{
  "contractName": "Broadcast",
  "abi": [
    {
      "constant": false,
      "inputs": [
        {
          "name": "_encSecretHash",
          "type": "bytes32"
        },
        {
          "name": "_contractCode",
          "type": "bytes32"
        },
        {
          "name": "_contractTransaction",
          "type": "bytes32"
        }
      ],
      "name": "pushSwapInfo",
      "outputs": [],
      "payable": false,
      "stateMutability": "nonpayable",
      "type": "function"
    },
    {
      "inputs": [
        {
          "name": "_initiator",
          "type": "address"
        },
        {
          "name": "_participant",
          "type": "address"
        }
      ],
      "payable": false,
      "stateMutability": "nonpayable",
      "type": "constructor"
    },
    {
      "anonymous": false,
      "inputs": [
        {
          "indexed": false,
          "name": "_participant",
          "type": "address"
        },
        {
          "indexed": false,
          "name": "_encSecretHash",
          "type": "bytes32"
        },
        {
          "indexed": false,
          "name": "_contractCode",
          "type": "bytes32"
        },
        {
          "indexed": false,
          "name": "_contractTransaction",
          "type": "bytes32"
        }
      ],
      "name": "SwapInfo",
      "type": "event"
    }
  ],
  "bytecode": "0x6060604052341561000f57600080fd5b6040516040806102b783398101604052808051906020019091908051906020019091905050816000806101000a81548173ffffffffffffffffffffffffffffffffffffffff021916908373ffffffffffffffffffffffffffffffffffffffff16021790555080600160006101000a81548173ffffffffffffffffffffffffffffffffffffffff021916908373ffffffffffffffffffffffffffffffffffffffff16021790555050506101f1806100c66000396000f300606060405260043610610041576000357c0100000000000000000000000000000000000000000000000000000000900463ffffffff168063fd91f63514610046575b600080fd5b341561005157600080fd5b6100856004808035600019169060200190919080356000191690602001909190803560001916906020019091905050610087565b005b6000809054906101000a900473ffffffffffffffffffffffffffffffffffffffff168073ffffffffffffffffffffffffffffffffffffffff163373ffffffffffffffffffffffffffffffffffffffff161415156100e357600080fd5b8360028160001916905550826003816000191690555081600481600019169055507fcb4c4553e41a5c09e85963086a9705c2fcec623bbb356eace47d3d043233973a600160009054906101000a900473ffffffffffffffffffffffffffffffffffffffff16600254600354600454604051808573ffffffffffffffffffffffffffffffffffffffff1673ffffffffffffffffffffffffffffffffffffffff16815260200184600019166000191681526020018360001916600019168152602001826000191660001916815260200194505050505060405180910390a1505050505600a165627a7a7230582033acd0eb7a2a1954e6f651a221958a4664f289bcf992e62b7df0a7326988629e0029",
  "source": "pragma solidity ^0.4.18;\n\ncontract Broadcast{\n  address initiator;\n  address participant;\n  // Secret hash encrypted with participant's pubkey\n  bytes32 encSecretHash;\n  // Contract and contract transaction\n  bytes32 contractCode;\n  bytes32 contractTransaction;\n\n  modifier onlyBy(address _account)\n  {\n    require(msg.sender == _account);\n    _;\n  }\n\n  function Broadcast(address _initiator, address _participant)\n    public\n  {\n    initiator = _initiator;\n    participant = _participant;\n  }\n\n  event SwapInfo(\n    address _participant,\n    bytes32 _encSecretHash,\n    bytes32 _contractCode,\n    bytes32 _contractTransaction\n  );\n\n  function pushSwapInfo(bytes32 _encSecretHash, bytes32 _contractCode,\n                        bytes32 _contractTransaction)\n    public\n    onlyBy(initiator)\n  {\n    encSecretHash = _encSecretHash;\n    contractCode = _contractCode;\n    contractTransaction = _contractTransaction;\n    SwapInfo(participant, encSecretHash, contractCode, contractTransaction);\n  }\n}\n",
  "sourcePath": "/Users/Karim/Desktop/Valex/contracts/Broadcast.sol",
  "compiler": {
    "name": "solc",
    "version": "0.4.18+commit.9cf6e910.Emscripten.clang"
  },
  "schemaVersion": "1.0.1",
  "updatedAt": "2018-05-17T02:56:58.601Z"
}