{
  "contractName": "Broadcast",
  "abi": [
    {
      "constant": false,
      "inputs": [
        {
          "name": "_encSecretHash",
          "type": "bytes32"
        },
        {
          "name": "_contractCode",
          "type": "bytes32"
        },
        {
          "name": "_contractTransaction",
          "type": "bytes32"
        }
      ],
      "name": "pushSwapInfo",
      "outputs": [],
      "payable": false,
      "stateMutability": "nonpayable",
      "type": "function"
    },
    {
      "inputs": [
        {
          "name": "_initiator",
          "type": "address"
        },
        {
          "name": "_participant",
          "type": "address"
        }
      ],
      "payable": false,
      "stateMutability": "nonpayable",
      "type": "constructor"
    }
  ],
  "bytecode": "0x6060604052341561000f57600080fd5b60405160408061028683398101604052808051906020019091908051906020019091905050816000806101000a81548173ffffffffffffffffffffffffffffffffffffffff021916908373ffffffffffffffffffffffffffffffffffffffff16021790555080600160006101000a81548173ffffffffffffffffffffffffffffffffffffffff021916908373ffffffffffffffffffffffffffffffffffffffff16021790555050506101c0806100c66000396000f300606060405260043610610041576000357c0100000000000000000000000000000000000000000000000000000000900463ffffffff168063fd91f63514610046575b600080fd5b341561005157600080fd5b6100856004808035600019169060200190919080356000191690602001909190803560001916906020019091905050610087565b005b6000809054906101000a900473ffffffffffffffffffffffffffffffffffffffff168073ffffffffffffffffffffffffffffffffffffffff163373ffffffffffffffffffffffffffffffffffffffff161415156100e357600080fd5b836002816000191690555082600381600019169055508160048160001916905550600160009054906101000a900473ffffffffffffffffffffffffffffffffffffffff1673ffffffffffffffffffffffffffffffffffffffff166000806060604051908101604052806002546000191681526020016003546000191681526020016004546000191681525060405180828152602001915050600060405180830381858888f1935050505050505050505600a165627a7a7230582072b2e1c0d76e05ac69dec5d8c60aeace671d262812c78292a4bc42061583924c0029",
  "source": "pragma solidity ^0.4.18;\n\ncontract Broadcast{\n  address initiator;\n  address participant;\n  // Secret hash encrypted with participant's pubkey\n  bytes32 encSecretHash;\n  // Contract and contract transaction\n  bytes32 contractCode;\n  bytes32 contractTransaction;\n\n  modifier onlyBy(address _account)\n  {\n    require(msg.sender == _account);\n    _;\n  }\n\n  function Broadcast(address _initiator, address _participant)\n    public\n  {\n    initiator = _initiator;\n    participant = _participant;\n  }\n\n  struct SwapInfo {\n    bytes32 _encSecretHash;\n    bytes32 _contractCode;\n    bytes32 _contractTransaction;\n  }\n\n  function pushSwapInfo(bytes32 _encSecretHash, bytes32 _contractCode,\n                        bytes32 _contractTransaction)\n    public\n    onlyBy(initiator)\n  {\n    encSecretHash = _encSecretHash;\n    contractCode = _contractCode;\n    contractTransaction = _contractTransaction;\n    participant.call.gas(0).value(0)(\n      SwapInfo(encSecretHash, contractCode, contractTransaction)\n    );\n  }\n}\n",
  "sourcePath": "/Users/Karim/Desktop/Valex/contracts/Broadcast.sol",
  "compiler": {
    "name": "solc",
    "version": "0.4.18+commit.9cf6e910.Emscripten.clang"
  },
  "schemaVersion": "1.0.1",
  "updatedAt": "2018-05-18T23:41:00.230Z"
}