{
  "contractName": "Exchange",
  "abi": [
    {
      "constant": true,
      "inputs": [
        {
          "name": "",
          "type": "uint256"
        },
        {
          "name": "",
          "type": "uint256"
        },
        {
          "name": "",
          "type": "uint256"
        }
      ],
      "name": "secondAddressBook",
      "outputs": [
        {
          "name": "",
          "type": "bytes32"
        }
      ],
      "payable": false,
      "stateMutability": "view",
      "type": "function"
    },
    {
      "constant": true,
      "inputs": [
        {
          "name": "chapter",
          "type": "uint256"
        }
      ],
      "name": "getSecondAddressChapter",
      "outputs": [
        {
          "name": "secondAddressChapter",
          "type": "bytes32[2][]"
        }
      ],
      "payable": false,
      "stateMutability": "view",
      "type": "function"
    },
    {
      "constant": true,
      "inputs": [
        {
          "name": "",
          "type": "uint256"
        },
        {
          "name": "",
          "type": "uint256"
        },
        {
          "name": "",
          "type": "uint256"
        }
      ],
      "name": "firstAddressBook",
      "outputs": [
        {
          "name": "",
          "type": "bytes32"
        }
      ],
      "payable": false,
      "stateMutability": "view",
      "type": "function"
    },
    {
      "constant": true,
      "inputs": [
        {
          "name": "",
          "type": "uint256"
        },
        {
          "name": "",
          "type": "uint256"
        }
      ],
      "name": "buyBook",
      "outputs": [
        {
          "name": "",
          "type": "bool"
        }
      ],
      "payable": false,
      "stateMutability": "view",
      "type": "function"
    },
    {
      "constant": true,
      "inputs": [
        {
          "name": "chapter",
          "type": "uint256"
        }
      ],
      "name": "getOrderChapter",
      "outputs": [
        {
          "name": "buyChapter",
          "type": "bool[]"
        },
        {
          "name": "volChapter",
          "type": "uint256[]"
        },
        {
          "name": "minVolChapter",
          "type": "uint256[]"
        },
        {
          "name": "limitChapter",
          "type": "uint256[]"
        }
      ],
      "payable": false,
      "stateMutability": "view",
      "type": "function"
    },
    {
      "constant": false,
      "inputs": [
        {
          "name": "buyETH",
          "type": "bool"
        },
        {
          "name": "volume",
          "type": "uint256"
        },
        {
          "name": "minVolume",
          "type": "uint256"
        },
        {
          "name": "limit",
          "type": "uint256"
        },
        {
          "name": "ethAddress",
          "type": "address"
        },
        {
          "name": "firstAddress",
          "type": "bytes32[2]"
        },
        {
          "name": "otherAddress",
          "type": "bytes32[2]"
        },
        {
          "name": "chapter",
          "type": "uint256"
        }
      ],
      "name": "placeOrder",
      "outputs": [
        {
          "name": "accepted",
          "type": "bool"
        }
      ],
      "payable": true,
      "stateMutability": "payable",
      "type": "function"
    },
    {
      "constant": true,
      "inputs": [
        {
          "name": "",
          "type": "uint256"
        },
        {
          "name": "",
          "type": "uint256"
        }
      ],
      "name": "ethAddressBook",
      "outputs": [
        {
          "name": "",
          "type": "address"
        }
      ],
      "payable": false,
      "stateMutability": "view",
      "type": "function"
    },
    {
      "constant": true,
      "inputs": [
        {
          "name": "",
          "type": "uint256"
        },
        {
          "name": "",
          "type": "uint256"
        }
      ],
      "name": "limitBook",
      "outputs": [
        {
          "name": "",
          "type": "uint256"
        }
      ],
      "payable": false,
      "stateMutability": "view",
      "type": "function"
    },
    {
      "constant": true,
      "inputs": [],
      "name": "DISTTIME",
      "outputs": [
        {
          "name": "",
          "type": "uint256"
        }
      ],
      "payable": false,
      "stateMutability": "view",
      "type": "function"
    },
    {
      "constant": true,
      "inputs": [
        {
          "name": "chapter",
          "type": "uint256"
        },
        {
          "name": "index1",
          "type": "uint256"
        },
        {
          "name": "index2",
          "type": "uint256"
        }
      ],
      "name": "calcRateAndVol",
      "outputs": [
        {
          "name": "mimRate",
          "type": "uint256"
        },
        {
          "name": "ethVol",
          "type": "uint256"
        }
      ],
      "payable": false,
      "stateMutability": "view",
      "type": "function"
    },
    {
      "constant": true,
      "inputs": [],
      "name": "openBalance",
      "outputs": [
        {
          "name": "",
          "type": "uint256"
        }
      ],
      "payable": false,
      "stateMutability": "view",
      "type": "function"
    },
    {
      "constant": true,
      "inputs": [
        {
          "name": "",
          "type": "uint256"
        },
        {
          "name": "",
          "type": "uint256"
        }
      ],
      "name": "minVolBook",
      "outputs": [
        {
          "name": "",
          "type": "uint256"
        }
      ],
      "payable": false,
      "stateMutability": "view",
      "type": "function"
    },
    {
      "constant": true,
      "inputs": [],
      "name": "PRECISION",
      "outputs": [
        {
          "name": "",
          "type": "uint256"
        }
      ],
      "payable": false,
      "stateMutability": "view",
      "type": "function"
    },
    {
      "constant": true,
      "inputs": [],
      "name": "lastDist",
      "outputs": [
        {
          "name": "",
          "type": "uint256"
        }
      ],
      "payable": false,
      "stateMutability": "view",
      "type": "function"
    },
    {
      "constant": false,
      "inputs": [
        {
          "name": "chapter",
          "type": "uint256"
        },
        {
          "name": "index",
          "type": "uint256"
        }
      ],
      "name": "cancelOrder",
      "outputs": [
        {
          "name": "accepted",
          "type": "bool"
        }
      ],
      "payable": false,
      "stateMutability": "nonpayable",
      "type": "function"
    },
    {
      "constant": true,
      "inputs": [],
      "name": "params",
      "outputs": [
        {
          "name": "closureFee",
          "type": "uint256"
        },
        {
          "name": "cancelFee",
          "type": "uint256"
        },
        {
          "name": "cleanSize",
          "type": "uint256"
        },
        {
          "name": "minerShare",
          "type": "uint256"
        },
        {
          "name": "difficulty",
          "type": "bytes32"
        }
      ],
      "payable": false,
      "stateMutability": "view",
      "type": "function"
    },
    {
      "constant": false,
      "inputs": [
        {
          "name": "depositAddress",
          "type": "address"
        },
        {
          "name": "chapter",
          "type": "uint256"
        },
        {
          "name": "index1",
          "type": "uint256"
        },
        {
          "name": "index2",
          "type": "uint256"
        },
        {
          "name": "nonce",
          "type": "uint256"
        }
      ],
      "name": "giveMatch",
      "outputs": [
        {
          "name": "isValid",
          "type": "bool"
        }
      ],
      "payable": false,
      "stateMutability": "nonpayable",
      "type": "function"
    },
    {
      "constant": true,
      "inputs": [
        {
          "name": "chapter",
          "type": "uint256"
        }
      ],
      "name": "getETHAddressChapter",
      "outputs": [
        {
          "name": "ethAddressChapter",
          "type": "address[]"
        }
      ],
      "payable": false,
      "stateMutability": "view",
      "type": "function"
    },
    {
      "constant": true,
      "inputs": [
        {
          "name": "",
          "type": "uint256"
        },
        {
          "name": "",
          "type": "uint256"
        }
      ],
      "name": "volBook",
      "outputs": [
        {
          "name": "",
          "type": "uint256"
        }
      ],
      "payable": false,
      "stateMutability": "view",
      "type": "function"
    },
    {
      "constant": true,
      "inputs": [
        {
          "name": "chapter",
          "type": "uint256"
        }
      ],
      "name": "getFirstAddressChapter",
      "outputs": [
        {
          "name": "firstAddressChapter",
          "type": "bytes32[2][]"
        }
      ],
      "payable": false,
      "stateMutability": "view",
      "type": "function"
    },
    {
      "inputs": [
        {
          "name": "closureFee",
          "type": "uint256"
        },
        {
          "name": "cancelFee",
          "type": "uint256"
        },
        {
          "name": "cleanSize",
          "type": "uint256"
        },
        {
          "name": "minerShare",
          "type": "uint256"
        },
        {
          "name": "difficulty",
          "type": "bytes32"
        }
      ],
      "payable": false,
      "stateMutability": "nonpayable",
      "type": "constructor"
    },
    {
      "anonymous": false,
      "inputs": [
        {
          "indexed": false,
          "name": "ethAddress1",
          "type": "address"
        },
        {
          "indexed": false,
          "name": "ethAddress2",
          "type": "address"
        },
        {
          "indexed": false,
          "name": "firstAddress1",
          "type": "bytes32[2]"
        },
        {
          "indexed": false,
          "name": "firstAddress2",
          "type": "bytes32[2]"
        },
        {
          "indexed": false,
          "name": "otherAddress1",
          "type": "bytes32[2]"
        },
        {
          "indexed": false,
          "name": "otherAddress2",
          "type": "bytes32[2]"
        },
        {
          "indexed": false,
          "name": "mimRate",
          "type": "uint256"
        },
        {
          "indexed": false,
          "name": "ethVol",
          "type": "uint256"
        }
      ],
      "name": "TradeInfo",
      "type": "event"
    }
  ],
  "bytecode": "0x6060604052670de0b6b3a76400006000556249d40060015560006002554260035534156200002c57600080fd5b60405160a0806200352b83398101604052808051906020019091908051906020019091908051906020019091908051906020019091908051906020019091905050620000908585858585620000e46401000000000262002d09176401000000009004565b620000ae620001206401000000000262002d45176401000000009004565b60108054806001018281620000c4919062000399565b916000526020600020900160008090919091505550505050505062000543565b84600460000181905550836004600101819055508260046002018190555081600460030181905550806004800181600019169055505050505050565b600960008081526020019081526020016000208054806001018281620001479190620003c8565b91600052602060002090602091828204019190066000909190916101000a81548160ff02191690831515021790555050600a600080815260200190815260200160002080548060010182816200019e919062000399565b916000526020600020900160008090919091505550600b60008081526020019081526020016000208054806001018281620001da919062000399565b916000526020600020900160008090919091505550600c6000808152602001908152602001600020805480600101828162000216919062000399565b916000526020600020900160008090919091505550600d6000808152602001908152602001600020805480600101828162000252919062000405565b9160005260206000209001600080909190916101000a81548173ffffffffffffffffffffffffffffffffffffffff021916908373ffffffffffffffffffffffffffffffffffffffff16021790555050600e60008081526020019081526020016000208054806001018281620002c8919062000434565b9160005260206000209060020201600060408051908101604052806000600102600019166000191681526020016000600102600019166000191681525090919091509060026200031a92919062000469565b5050600f6000808152602001908152602001600020805480600101828162000343919062000434565b9160005260206000209060020201600060408051908101604052806000600102600019166000191681526020016000600102600019166000191681525090919091509060026200039592919062000469565b5050565b815481835581811511620003c357818360005260206000209182019101620003c29190620004b4565b5b505050565b8154818355818115116200040057601f016020900481601f01602090048360005260206000209182019101620003ff9190620004b4565b5b505050565b8154818355818115116200042f578183600052602060002091820191016200042e9190620004b4565b5b505050565b8154818355818115116200046457600202816002028360005260206000209182019101620004639190620004dc565b5b505050565b8260028101928215620004a1579160200282015b82811115620004a05782518290600019169055916020019190600101906200047d565b5b509050620004b091906200050d565b5090565b620004d991905b80821115620004d5576000816000905550600101620004bb565b5090565b90565b6200050a91905b80821115620005065760008181620004fc919062000535565b50600201620004e3565b5090565b90565b6200053291905b808211156200052e57600081600090555060010162000514565b5090565b90565b506000815560010160009055565b612fd880620005536000396000f300606060405260043610610112576000357c0100000000000000000000000000000000000000000000000000000000900463ffffffff16806310fc8a1514610117578063145404fc14610168578063324a1467146102035780633af8c2d5146102545780633b6a08001461029857806349827685146103e857806353c1d882146104b55780638139cbc6146105215780638a0c528a146105615780638eae03d21461058a5780639138ec3a146105da5780639febbcfa14610603578063aaf5eb6814610643578063b19462431461066c578063b6ed063214610695578063cff0ab96146106d9578063d2426ab914610726578063e0cfdce01461079b578063e0f1f59f14610813578063ee4b94bb14610853575b600080fd5b341561012257600080fd5b61014a60048080359060200190919080359060200190919080359060200190919050506108ee565b60405180826000191660001916815260200191505060405180910390f35b341561017357600080fd5b6101896004808035906020019091905050610931565b60405180806020018281038252838181518152602001915080516000925b818410156101f257828490602001906020020151600260200280838360005b838110156101e15780820151818401526020810190506101c6565b5050505090500192600101926101a7565b925050509250505060405180910390f35b341561020e57600080fd5b61023660048080359060200190919080359060200190919080359060200190919050506109de565b60405180826000191660001916815260200191505060405180910390f35b341561025f57600080fd5b61027e6004808035906020019091908035906020019091905050610a21565b604051808215151515815260200191505060405180910390f35b34156102a357600080fd5b6102b96004808035906020019091905050610a63565b6040518080602001806020018060200180602001858103855289818151815260200191508051906020019060200280838360005b838110156103085780820151818401526020810190506102ed565b50505050905001858103845288818151815260200191508051906020019060200280838360005b8381101561034a57808201518184015260208101905061032f565b50505050905001858103835287818151815260200191508051906020019060200280838360005b8381101561038c578082015181840152602081019050610371565b50505050905001858103825286818151815260200191508051906020019060200280838360005b838110156103ce5780820151818401526020810190506103b3565b505050509050019850505050505050505060405180910390f35b61049b6004808035151590602001909190803590602001909190803590602001909190803590602001909190803573ffffffffffffffffffffffffffffffffffffffff1690602001909190806040019060028060200260405190810160405280929190826002602002808284378201915050505050919080604001906002806020026040519081016040528092919082600260200280828437820191505050505091908035906020019091905050610c4b565b604051808215151515815260200191505060405180910390f35b34156104c057600080fd5b6104df6004808035906020019091908035906020019091905050610f5e565b604051808273ffffffffffffffffffffffffffffffffffffffff1673ffffffffffffffffffffffffffffffffffffffff16815260200191505060405180910390f35b341561052c57600080fd5b61054b6004808035906020019091908035906020019091905050610fac565b6040518082815260200191505060405180910390f35b341561056c57600080fd5b610574610fdd565b6040518082815260200191505060405180910390f35b341561059557600080fd5b6105bd6004808035906020019091908035906020019091908035906020019091905050610fe3565b604051808381526020018281526020019250505060405180910390f35b34156105e557600080fd5b6105ed6112a3565b6040518082815260200191505060405180910390f35b341561060e57600080fd5b61062d60048080359060200190919080359060200190919050506112a9565b6040518082815260200191505060405180910390f35b341561064e57600080fd5b6106566112da565b6040518082815260200191505060405180910390f35b341561067757600080fd5b61067f6112e0565b6040518082815260200191505060405180910390f35b34156106a057600080fd5b6106bf60048080359060200190919080359060200190919050506112e6565b604051808215151515815260200191505060405180910390f35b34156106e457600080fd5b6106ec6116bd565b6040518086815260200185815260200184815260200183815260200182600019166000191681526020019550505050505060405180910390f35b341561073157600080fd5b610781600480803573ffffffffffffffffffffffffffffffffffffffff169060200190919080359060200190919080359060200190919080359060200190919080359060200190919050506116e1565b604051808215151515815260200191505060405180910390f35b34156107a657600080fd5b6107bc60048080359060200190919050506117ea565b6040518080602001828103825283818151815260200191508051906020019060200280838360005b838110156107ff5780820151818401526020810190506107e4565b505050509050019250505060405180910390f35b341561081e57600080fd5b61083d6004808035906020019091908035906020019091905050611891565b6040518082815260200191505060405180910390f35b341561085e57600080fd5b61087460048080359060200190919050506118c2565b60405180806020018281038252838181518152602001915080516000925b818410156108dd57828490602001906020020151600260200280838360005b838110156108cc5780820151818401526020810190506108b1565b505050509050019260010192610892565b925050509250505060405180910390f35b600f6020528260005260406000208281548110151561090957fe5b90600052602060002090600202018160028110151561092457fe5b0160009250925050505481565b6109396129ff565b600f6000838152602001908152602001600020805480602002602001604051908101604052809291908181526020016000905b828210156109d357838290600052602060002090600202016002806020026040519081016040528092919082600280156109bf576020028201915b815460001916815260200190600101908083116109a7575b50505050508152602001906001019061096c565b505050509050919050565b600e602052826000526040600020828154811015156109f957fe5b906000526020600020906002020181600281101515610a1457fe5b0160009250925050505481565b600960205281600052604060002081815481101515610a3c57fe5b9060005260206000209060209182820401919006915091509054906101000a900460ff1681565b610a6b612a13565b610a73612a27565b610a7b612a27565b610a83612a27565b60096000868152602001908152602001600020600a6000878152602001908152602001600020600b6000888152602001908152602001600020600c600089815260200190815260200160002083805480602002602001604051908101604052809291908181526020018280548015610b3f57602002820191906000526020600020906000905b82829054906101000a900460ff16151581526020019060010190602082600001049283019260010382029150808411610b095790505b5050505050935082805480602002602001604051908101604052809291908181526020018280548015610b9157602002820191906000526020600020905b815481526020019060010190808311610b7d575b5050505050925081805480602002602001604051908101604052809291908181526020018280548015610be357602002820191906000526020600020905b815481526020019060010190808311610bcf575b5050505050915080805480602002602001604051908101604052809291908181526020018280548015610c3557602002820191906000526020600020905b815481526020019060010190808311610c21575b5050505050905093509350935093509193509193565b60008088111515610c5b57600080fd5b600087111515610c6a57600080fd5b868810151515610c7957600080fd5b600086111515610c8857600080fd5b8815610cd557600460000154880234870210151515610ca657600080fd5b60005460005402866004600001548a0202811515610cc057fe5b04600260008282540192505081905550610d1d565b6000546004600001548902811515610ce957fe5b043410151515610cf857600080fd5b6000546004600001548902811515610d0c57fe5b046002600082825401925050819055505b60006009600084815260200190815260200160002080549050111515610d4257600080fd5b600960008381526020019081526020016000208054806001018281610d679190612a3b565b91600052602060002090602091828204019190068b909190916101000a81548160ff02191690831515021790555050600a60008381526020019081526020016000208054806001018281610dbb9190612a75565b916000526020600020900160008a90919091505550600b60008381526020019081526020016000208054806001018281610df59190612a75565b916000526020600020900160008990919091505550600c60008381526020019081526020016000208054806001018281610e2f9190612a75565b916000526020600020900160008890919091505550600d60008381526020019081526020016000208054806001018281610e699190612aa1565b9160005260206000209001600087909190916101000a81548173ffffffffffffffffffffffffffffffffffffffff021916908373ffffffffffffffffffffffffffffffffffffffff16021790555050600e60008381526020019081526020016000208054806001018281610edd9190612acd565b91600052602060002090600202016000869091909150906002610f01929190612aff565b5050600f60008381526020019081526020016000208054806001018281610f289190612acd565b91600052602060002090600202016000859091909150906002610f4c929190612aff565b50506001905098975050505050505050565b600d60205281600052604060002081815481101515610f7957fe5b90600052602060002090016000915091509054906101000a900473ffffffffffffffffffffffffffffffffffffffff1681565b600c60205281600052604060002081815481101515610fc757fe5b9060005260206000209001600091509150505481565b60015481565b600080600080610ff1612b45565b610ff9612b45565b61100489898961196f565b151561101c5760008081915080905095509550611297565b600960008a81526020019081526020016000208881548110151561103c57fe5b90600052602060002090602091828204019190069054906101000a900460ff161561106c57879350869250611073565b8693508792505b608060405190810160405280600115158152602001600a60008c8152602001908152602001600020868154811015156110a857fe5b9060005260206000209001548152602001600b60008c8152602001908152602001600020868154811015156110d957fe5b9060005260206000209001548152602001600c60008c81526020019081526020016000208681548110151561110a57fe5b9060005260206000209001548152509150608060405190810160405280600015158152602001600a60008c81526020019081526020016000208581548110151561115057fe5b9060005260206000209001548152602001600b60008c81526020019081526020016000208581548110151561118157fe5b9060005260206000209001548152602001600c60008c8152602001908152602001600020858154811015156111b257fe5b90600052602060002090015481525090508060600151826060015110156111e55760008081915080905095509550611297565b600281606001518360600151018115156111fb57fe5b04955085816020015102600054836020015102111561124d5785816020015102600054836040015102111561123c5760008081915080905095509550611297565b858682602001510295509550611297565b60005482602001510286826020015102111561128c5760005482602001510286826040015102111561128b5760008081915080905095509550611297565b5b858260200151955095505b50505050935093915050565b60025481565b600b602052816000526040600020818154811015156112c457fe5b9060005260206000209001600091509150505481565b60005481565b60035481565b600080600060096000868152602001908152602001600020805490508410151561130f57600080fd5b600d60008681526020019081526020016000208481548110151561132f57fe5b906000526020600020900160009054906101000a900473ffffffffffffffffffffffffffffffffffffffff1673ffffffffffffffffffffffffffffffffffffffff163373ffffffffffffffffffffffffffffffffffffffff1614151561139457600080fd5b600c6000868152602001908152602001600020848154811015156113b457fe5b9060005260206000209001549150600a6000868152602001908152602001600020848154811015156113e257fe5b9060005260206000209001549050600960008681526020019081526020016000208481548110151561141057fe5b90600052602060002090602091828204019190069054906101000a900460ff1615611493573373ffffffffffffffffffffffffffffffffffffffff166108fc8360046001015460046000015403840281151561146857fe5b049081150290604051600060405180830381858888f19350505050151561148e57600080fd5b6114ed565b3373ffffffffffffffffffffffffffffffffffffffff166108fc836004600101546004600001540384028115156114c657fe5b049081150290604051600060405180830381858888f1935050505015156114ec57600080fd5b5b600960008681526020019081526020016000208481548110151561150d57fe5b90600052602060002090602091828204019190066101000a81549060ff0219169055600a60008681526020019081526020016000208481548110151561154f57fe5b906000526020600020900160009055600b60008681526020019081526020016000208481548110151561157e57fe5b906000526020600020900160009055600c6000868152602001908152602001600020848154811015156115ad57fe5b906000526020600020900160009055600d6000868152602001908152602001600020848154811015156115dc57fe5b906000526020600020900160006101000a81549073ffffffffffffffffffffffffffffffffffffffff0219169055600e60008681526020019081526020016000208481548110151561162a57fe5b906000526020600020906002020160006116449190612b70565b600f60008681526020019081526020016000208481548110151561166457fe5b9060005260206000209060020201600061167e9190612b70565b600160108681548110151561168f57fe5b9060005260206000209001600082825401925050819055506116b085611acb565b5060019250505092915050565b60048060000154908060010154908060020154908060030154908060040154905085565b60008060008060006116f68a8a8a8a8a6122ce565b151561170157600080fd5b61170c898989610fe3565b9350935060008311151561171f57600080fd5b600960008a81526020019081526020016000208881548110151561173f57fe5b90600052602060002090602091828204019190069054906101000a900460ff161561176f57879150869050611776565b8691508790505b6117808a8461236b565b6117b583600c60008c8152602001908152602001600020848154811015156117a457fe5b9060005260206000209001546123d3565b6117c2898989878761243d565b6117cf89898987876126e5565b6117d889611acb565b50600194505050505095945050505050565b6117f2612b7e565b600d600083815260200190815260200160002080548060200260200160405190810160405280929190818152602001828054801561188557602002820191906000526020600020905b8160009054906101000a900473ffffffffffffffffffffffffffffffffffffffff1673ffffffffffffffffffffffffffffffffffffffff168152602001906001019080831161183b575b50505050509050919050565b600a602052816000526040600020818154811015156118ac57fe5b9060005260206000209001600091509150505481565b6118ca6129ff565b600e6000838152602001908152602001600020805480602002602001604051908101604052809291908181526020016000905b828210156119645783829060005260206000209060020201600280602002604051908101604052809291908260028015611950576020028201915b81546000191681526020019060010190808311611938575b5050505050815260200190600101906118fd565b505050509050919050565b600060096000858152602001908152602001600020805490508310151561199557600080fd5b6009600085815260200190815260200160002080549050821015156119b957600080fd5b60096000858152602001908152602001600020828154811015156119d957fe5b90600052602060002090602091828204019190069054906101000a900460ff1615156009600086815260200190815260200160002084815481101515611a1b57fe5b90600052602060002090602091828204019190069054906101000a900460ff16151514151515611a4a57600080fd5b6000600a600086815260200190815260200160002084815481101515611a6c57fe5b90600052602060002090015414151515611a8557600080fd5b6000600a600086815260200190815260200160002083815481101515611aa757fe5b90600052602060002090015414151515611ac057600080fd5b600190509392505050565b600080600460020154601084815481101515611ae357fe5b9060005260206000209001541015611afe57600091506122c8565b600190505b6009600084815260200190815260200160002080549050811015612065576000600a600085815260200190815260200160002082815481101515611b4357fe5b9060005260206000209001541415612058576001600960008581526020019081526020016000208054905003811015612057576009600084815260200190815260200160002060018201815481101515611b9957fe5b90600052602060002090602091828204019190069054906101000a900460ff166009600085815260200190815260200160002082815481101515611bd957fe5b90600052602060002090602091828204019190066101000a81548160ff021916908315150217905550600a600084815260200190815260200160002060018201815481101515611c2557fe5b906000526020600020900154600a600085815260200190815260200160002082815481101515611c5157fe5b906000526020600020900181905550600b600084815260200190815260200160002060018201815481101515611c8357fe5b906000526020600020900154600b600085815260200190815260200160002082815481101515611caf57fe5b906000526020600020900181905550600c600084815260200190815260200160002060018201815481101515611ce157fe5b906000526020600020900154600c600085815260200190815260200160002082815481101515611d0d57fe5b906000526020600020900181905550600d600084815260200190815260200160002060018201815481101515611d3f57fe5b906000526020600020900160009054906101000a900473ffffffffffffffffffffffffffffffffffffffff16600d600085815260200190815260200160002082815481101515611d8b57fe5b906000526020600020900160006101000a81548173ffffffffffffffffffffffffffffffffffffffff021916908373ffffffffffffffffffffffffffffffffffffffff160217905550600e600084815260200190815260200160002060018201815481101515611df757fe5b9060005260206000209060020201600e600085815260200190815260200160002082815481101515611e2557fe5b9060005260206000209060020201906002611e41929190612b92565b50600f600084815260200190815260200160002060018201815481101515611e6557fe5b9060005260206000209060020201600f600085815260200190815260200160002082815481101515611e9357fe5b9060005260206000209060020201906002611eaf929190612b92565b506009600084815260200190815260200160002060018201815481101515611ed357fe5b90600052602060002090602091828204019190066101000a81549060ff0219169055600a600084815260200190815260200160002060018201815481101515611f1857fe5b906000526020600020900160009055600b600084815260200190815260200160002060018201815481101515611f4a57fe5b906000526020600020900160009055600c600084815260200190815260200160002060018201815481101515611f7c57fe5b906000526020600020900160009055600d600084815260200190815260200160002060018201815481101515611fae57fe5b906000526020600020900160006101000a81549073ffffffffffffffffffffffffffffffffffffffff0219169055600e600084815260200190815260200160002060018201815481101515611fff57fe5b906000526020600020906002020160006120199190612b70565b600f60008481526020019081526020016000206001820181548110151561203c57fe5b906000526020600020906002020160006120569190612b70565b5b5b8080600101915050611b03565b60108381548110151561207457fe5b90600052602060002090015460096000858152602001908152602001600020805490500360096000858152602001908152602001600020816120b69190612bcf565b506010838154811015156120c657fe5b906000526020600020900154600a60008581526020019081526020016000208054905003600a6000858152602001908152602001600020816121089190612c09565b5060108381548110151561211857fe5b906000526020600020900154600b60008581526020019081526020016000208054905003600b60008581526020019081526020016000208161215a9190612c09565b5060108381548110151561216a57fe5b906000526020600020900154600c60008581526020019081526020016000208054905003600c6000858152602001908152602001600020816121ac9190612c09565b506010838154811015156121bc57fe5b906000526020600020900154600d60008581526020019081526020016000208054905003600d6000858152602001908152602001600020816121fe9190612c35565b5060108381548110151561220e57fe5b906000526020600020900154600e60008581526020019081526020016000208054905003600e6000858152602001908152602001600020816122509190612c61565b5060108381548110151561226057fe5b906000526020600020900154600f60008581526020019081526020016000208054905003600f6000858152602001908152602001600020816122a29190612c61565b5060006010848154811015156122b457fe5b906000526020600020900181905550600191505b50919050565b60008585858585604051808673ffffffffffffffffffffffffffffffffffffffff1673ffffffffffffffffffffffffffffffffffffffff166c0100000000000000000000000002815260140185815260200184815260200183815260200182815260200195505050505050604051809103902060001916600480015460001916101561235d5760009050612362565b600190505b95945050505050565b600080546000540282600460000154600460030154020281151561238b57fe5b0490508273ffffffffffffffffffffffffffffffffffffffff166108fc829081150290604051600060405180830381858888f1935050505015156123ce57600080fd5b505050565b60005482600460000154028115156123e757fe5b04600260008282540392505081905550600054600054028183600460000154020281151561241157fe5b046002600082825403925050819055504260015460035401111515612439576124386129f6565b5b5050565b7f389a889e7f65d263df200f5a0bc042c0ba9d0c600161ff14d87cc1daa06b8e6d600d60008781526020019081526020016000208581548110151561247e57fe5b906000526020600020900160009054906101000a900473ffffffffffffffffffffffffffffffffffffffff16600d6000888152602001908152602001600020858154811015156124ca57fe5b906000526020600020900160009054906101000a900473ffffffffffffffffffffffffffffffffffffffff16600e60008981526020019081526020016000208781548110151561251657fe5b9060005260206000209060020201600e60008a81526020019081526020016000208781548110151561254457fe5b9060005260206000209060020201600f60008b81526020019081526020016000208981548110151561257257fe5b9060005260206000209060020201600f60008c8152602001908152602001600020898154811015156125a057fe5b90600052602060002090600202018888604051808973ffffffffffffffffffffffffffffffffffffffff1673ffffffffffffffffffffffffffffffffffffffff1681526020018873ffffffffffffffffffffffffffffffffffffffff1673ffffffffffffffffffffffffffffffffffffffff1681526020018760028015612640576020028201915b81546000191681526020019060010190808311612628575b5050866002801561266a576020028201915b81546000191681526020019060010190808311612652575b50508560028015612694576020028201915b8154600019168152602001906001019080831161267c575b505084600280156126be576020028201915b815460001916815260200190600101908083116126a6575b50508381526020018281526020019850505050505050505060405180910390a15050505050565b600080600960008881526020019081526020016000208681548110151561270857fe5b90600052602060002090602091828204019190069054906101000a900460ff16156127385785915084905061273f565b8491508590505b82600a60008981526020019081526020016000208381548110151561276057fe5b906000526020600020900154141561279c57600160108881548110151561278357fe5b9060005260206000209001600082825401925050819055505b82600b6000898152602001908152602001600020838154811015156127bd57fe5b9060005260206000209001541015612805576000600b6000898152602001908152602001600020838154811015156127f157fe5b90600052602060002090018190555061283f565b82600b60008981526020019081526020016000208381548110151561282657fe5b9060005260206000209001600082825403925050819055505b82600a60008981526020019081526020016000208381548110151561286057fe5b90600052602060002090016000828254039250508190555060005484840281151561288757fe5b04600a6000898152602001908152602001600020828154811015156128a857fe5b90600052602060002090015414156128e45760016010888154811015156128cb57fe5b9060005260206000209001600082825401925050819055505b6000548484028115156128f357fe5b04600b60008981526020019081526020016000208281548110151561291457fe5b906000526020600020900154101561295c576000600b60008981526020019081526020016000208281548110151561294857fe5b9060005260206000209001819055506129a5565b60005484840281151561296b57fe5b04600b60008981526020019081526020016000208281548110151561298c57fe5b9060005260206000209001600082825403925050819055505b6000548484028115156129b457fe5b04600a6000898152602001908152602001600020828154811015156129d557fe5b90600052602060002090016000828254039250508190555050505050505050565b42600381905550565b602060405190810160405280600081525090565b602060405190810160405280600081525090565b602060405190810160405280600081525090565b815481835581811511612a7057601f016020900481601f01602090048360005260206000209182019101612a6f9190612c93565b5b505050565b815481835581811511612a9c57818360005260206000209182019101612a9b9190612c93565b5b505050565b815481835581811511612ac857818360005260206000209182019101612ac79190612c93565b5b505050565b815481835581811511612afa57600202816002028360005260206000209182019101612af99190612cb8565b5b505050565b8260028101928215612b34579160200282015b82811115612b33578251829060001916905591602001919060010190612b12565b5b509050612b419190612ce4565b5090565b6080604051908101604052806000151581526020016000815260200160008152602001600081525090565b506000815560010160009055565b602060405190810160405280600081525090565b8260028101928215612bbe579182015b82811115612bbd578254825591600101919060010190612ba2565b5b509050612bcb9190612ce4565b5090565b815481835581811511612c0457601f016020900481601f01602090048360005260206000209182019101612c039190612c93565b5b505050565b815481835581811511612c3057818360005260206000209182019101612c2f9190612c93565b5b505050565b815481835581811511612c5c57818360005260206000209182019101612c5b9190612c93565b5b505050565b815481835581811511612c8e57600202816002028360005260206000209182019101612c8d9190612cb8565b5b505050565b612cb591905b80821115612cb1576000816000905550600101612c99565b5090565b90565b612ce191905b80821115612cdd5760008181612cd49190612b70565b50600201612cbe565b5090565b90565b612d0691905b80821115612d02576000816000905550600101612cea565b5090565b90565b84600460000181905550836004600101819055508260046002018190555081600460030181905550806004800181600019169055505050505050565b600960008081526020019081526020016000208054806001018281612d6a9190612a3b565b91600052602060002090602091828204019190066000909190916101000a81548160ff02191690831515021790555050600a60008081526020019081526020016000208054806001018281612dbf9190612a75565b916000526020600020900160008090919091505550600b60008081526020019081526020016000208054806001018281612df99190612a75565b916000526020600020900160008090919091505550600c60008081526020019081526020016000208054806001018281612e339190612a75565b916000526020600020900160008090919091505550600d60008081526020019081526020016000208054806001018281612e6d9190612aa1565b9160005260206000209001600080909190916101000a81548173ffffffffffffffffffffffffffffffffffffffff021916908373ffffffffffffffffffffffffffffffffffffffff16021790555050600e60008081526020019081526020016000208054806001018281612ee19190612acd565b916000526020600020906002020160006040805190810160405280600060010260001916600019168152602001600060010260001916600019168152509091909150906002612f31929190612aff565b5050600f60008081526020019081526020016000208054806001018281612f589190612acd565b916000526020600020906002020160006040805190810160405280600060010260001916600019168152602001600060010260001916600019168152509091909150906002612fa8929190612aff565b50505600a165627a7a72305820a7cd8ffe2cb87e3516d610c7c1285e934a70582db71c411e54cfd1c3a863c41b0029",
  "source": "pragma solidity ^0.4.18;\n\nimport 'zeppelin-solidity/contracts/math/SafeMath.sol';\nimport './ExchangeStructs.sol';\n/// @title Exchange\n/// @author Karim Helmy\n\n// Primary contract: Describes functions of exchange\ncontract Exchange is ExchangeStructs {\n  // TODO: Make all operations safe\n  using SafeMath for uint;\n\n  // SECTION: Declaring/initializing variables\n  uint public PRECISION = 10 ** 18;\n\n  uint public DISTTIME = 8 weeks;\n\n  // separate out the open balance (includes unclosed fees, gas fees),\n  // which will be distributed between miners, the exchange, and traders,\n  // from closed balance, which belongs to the exchange\n  uint public openBalance = 0;\n\n  uint public lastDist = now;\n\n  Parameters public params;\n\n  // separate chapters for different currency pairs\n  // that's why they're 2D\n  /*\n  * Web3 can't properly handle structs.\n  * Ethers.js can only handle them under experimental version.\n  * Therefore, the old orderBook and adressBook pattern won't work.\n  * \\_()_/\n  */\n  // separate chapters for different currency pairs\n  // that's why they're 2D\n  mapping (uint => bool[]) public buyBook;\n  mapping (uint => uint[]) public volBook;\n  mapping (uint => uint[]) public minVolBook;\n  mapping (uint => uint[]) public limitBook;\n\n  mapping (uint => address[]) public ethAddressBook;\n  mapping (uint => bytes32[2][]) public firstAddressBook;\n  mapping (uint => bytes32[2][]) public secondAddressBook;\n\n  // Numbers of orders that have been closed are kept here\n  uint[] numsCleared;\n\n  // SECTION: Constructor and helpers\n  // Constructor for contract\n  function Exchange(uint closureFee, uint cancelFee,\n                    uint cleanSize, uint minerShare,\n                    bytes32 difficulty)\n    public\n  {\n    // Initialize parameters books\n    setParams(closureFee, cancelFee,\n              cleanSize, minerShare, difficulty);\n    // Initialize order books\n    setBooks();\n    // Initialize numsCleared[0] as zero\n    numsCleared.push(0);\n    return;\n  }\n\n  /*\n  * Initializes order book and address book\n  * Only used in constructor\n  * Pushes \"genesis order\"\n  */\n  function setBooks()\n    private\n  {\n    buyBook[0].push(false);\n    volBook[0].push(0);\n    minVolBook[0].push(0);\n    limitBook[0].push(0);\n\n    ethAddressBook[0].push(address(0));\n    firstAddressBook[0].push([bytes32(0), bytes32(0)]);\n    secondAddressBook[0].push([bytes32(0), bytes32(0)]);\n  }\n\n  // Init the params struct, which contains the bulk of exchange's parameters\n  // Only used in constructor\n  function setParams(uint closureFee, uint cancelFee,\n                    uint cleanSize, uint minerShare,\n                    bytes32 difficulty)\n    internal\n  {\n    params.closureFee = closureFee;\n    params.cancelFee = cancelFee;\n    params.cleanSize = cleanSize;\n    params.minerShare = minerShare;\n    params.difficulty = difficulty;\n  }\n\n  // SECTION: Getters\n  // Get chapter from order book\n  function getOrderChapter(uint chapter)\n    external\n    view\n    returns(bool[] buyChapter, uint[] volChapter,\n            uint[] minVolChapter, uint[] limitChapter)\n  {\n    return(buyBook[chapter], volBook[chapter],\n          minVolBook[chapter], limitBook[chapter]);\n  }\n\n  /*\n  * Wish I could've bundled these.\n  * For some reason, get a bug when firstAddressChapter and secondAddressChapter are together.\n  * Suspect it has something to do with returning dynamic arrays of fixed size arrays\n  */\n  // Get chapter from ethAddressBook\n  function getETHAddressChapter(uint chapter)\n    external\n    view\n    returns(address[] ethAddressChapter)\n  {\n    return(ethAddressBook[chapter]);\n  }\n\n  // Get chapter from firstAddressBook\n  function getFirstAddressChapter(uint chapter)\n    external\n    view\n    returns(bytes32[2][] firstAddressChapter)\n  {\n    return(firstAddressBook[chapter]);\n  }\n\n  // Get chapter from secondAddressBook\n  function getSecondAddressChapter(uint chapter)\n    external\n    view\n    returns(bytes32[2][] secondAddressChapter)\n  {\n    return(secondAddressBook[chapter]);\n  }\n\n  // SECTION: Core functionality\n  // Checks edge cases for match verification\n  function checkMatchEdges(uint chapter, uint index1, uint index2)\n    private\n    view\n    returns(bool passes)\n  {\n    // valid indices\n    require(index1 < buyBook[chapter].length);\n    require(index2 < buyBook[chapter].length);\n    //One buy order and one sell order\n    require(buyBook[chapter][index1] != buyBook[chapter][index2]);\n    //Non-empty order\n    require(volBook[chapter][index1] != 0);\n    require(volBook[chapter][index2] != 0);\n    // All edge cases work!\n    return true;\n  }\n\n  // verifies that match is valid\n  function calcRateAndVol(uint chapter, uint index1, uint index2)\n    public\n    view\n    returns (uint mimRate, uint ethVol)\n  {\n    // check edge cases\n    if (! checkMatchEdges(chapter, index1, index2)) {\n      return (0,0);\n    }\n    // which order is buying and selling ETH?\n    // buy-sell copy1\n    uint buyIndex;\n    uint sellIndex;\n    if (buyBook[chapter][index1]) {\n      buyIndex = index1;\n      sellIndex = index2;\n    } else{\n      buyIndex = index2;\n      sellIndex = index1;\n    }\n    // shorthand for buy and sell orders\n    Order memory buyOrder = Order(true, volBook[chapter][buyIndex],\n                                  minVolBook[chapter][buyIndex],\n                                  limitBook[chapter][buyIndex]);\n    Order memory sellOrder = Order(false, volBook[chapter][sellIndex],\n                                  minVolBook[chapter][sellIndex],\n                                  limitBook[chapter][sellIndex]);\n\n    // Non-contradictory limits\n    if (buyOrder.limit < sellOrder.limit) {\n      return (0, 0);\n    }\n    // Meet in middle rate\n    // mimRate\n    mimRate = (buyOrder.limit + sellOrder.limit) / 2;\n    // Volumes comparable\n    if (buyOrder.volume * PRECISION > sellOrder.volume * mimRate) {\n      if (buyOrder.minVolume * PRECISION > sellOrder.volume * mimRate) {\n        return (0, 0);\n      }\n      return (mimRate, sellOrder.volume * mimRate);\n    }\n    if (sellOrder.volume * mimRate > buyOrder.volume * PRECISION ) {\n      if (sellOrder.minVolume * mimRate > buyOrder.volume * PRECISION) {\n        return (0, 0);\n      }\n    }\n    return (mimRate, buyOrder.volume);\n  }\n\n  // Clears closed trade, reenters into order book if incomplete\n  function clearTrade(uint chapter, uint index1, uint index2,\n                      uint mimRate, uint ethVol)\n    private\n  {\n    // which order is buying and selling ETH?\n    // buy-sell copy1\n    uint buyIndex;\n    uint sellIndex;\n    if (buyBook[chapter][index1]) {\n      buyIndex = index1;\n      sellIndex = index2;\n    } else{\n      buyIndex = index2;\n      sellIndex = index1;\n    }\n    if (volBook[chapter][buyIndex] == ethVol) {\n      numsCleared[chapter] += 1;\n    }\n    if (minVolBook[chapter][buyIndex] < ethVol) {\n      minVolBook[chapter][buyIndex] = 0;\n    } else{\n      minVolBook[chapter][buyIndex] -= ethVol;\n    }\n    volBook[chapter][buyIndex] -= ethVol;\n    if (volBook[chapter][sellIndex] == (ethVol * mimRate / PRECISION)) {\n      numsCleared[chapter] += 1;\n    }\n    if (minVolBook[chapter][sellIndex] < (ethVol * mimRate / PRECISION)) {\n      minVolBook[chapter][sellIndex] = 0;\n    } else{\n      minVolBook[chapter][sellIndex] -= (ethVol * mimRate / PRECISION);\n    }\n    volBook[chapter][sellIndex] -= ethVol * mimRate / PRECISION;\n  }\n\n  // Adds trade to log, for traders to note\n  // http://solidity.readthedocs.io/en/latest/contracts.html?highlight=events#events\n  function alertTraders(uint chapter, uint index1, uint index2, uint mimRate, uint ethVol)\n    private\n  {\n    TradeInfo(\n      ethAddressBook[chapter][index1], //ethAddress1,\n      ethAddressBook[chapter][index2], //ethAddress2,\n      firstAddressBook[chapter][index1], //firstAddress1,\n      firstAddressBook[chapter][index2], //firstAddress2,\n      secondAddressBook[chapter][index1], //otherAddress1,\n      secondAddressBook[chapter][index2], // otherAddress2,\n      mimRate,\n      ethVol\n      );\n  }\n\n  // ValexToken override distributes dividends when balance is of sufficient size\n  // What to do about purity?\n  // TODO: Make dividends distributed by time, not quantity\n  // TODO: Add forced dividend distribution\n  function distDividends()\n    internal\n  {\n    lastDist = now;\n    return;\n  }\n\n  // Move balance from open to closed\n  function clearBalance(uint ethVol, uint buyLimit)\n    private\n  {\n    openBalance -= (params.closureFee * ethVol) / PRECISION;\n    openBalance -= (params.closureFee * ethVol * buyLimit) / (PRECISION * PRECISION);\n    if (lastDist + DISTTIME <= now) {\n      distDividends();\n    }\n  }\n\n  // Clean chapter (called when size reaches size to clean)\n  function cleanChapter(uint chapter)\n    private\n    returns(bool cleaned)\n  {\n    // Clean chapter only if size is appropriate\n    if (numsCleared[chapter] < params.cleanSize) {\n      return false;\n    }\n    // For all orders\n    // If it's a cleared order:\n    // Replace it with the next one, and clear the next one\n    for (uint i = 1; i < buyBook[chapter].length; i++) {\n      if (volBook[chapter][i] == 0) {\n        if (i < buyBook[chapter].length - 1) {\n          buyBook[chapter][i] = buyBook[chapter][i+1];\n          volBook[chapter][i] = volBook[chapter][i+1];\n          minVolBook[chapter][i] = minVolBook[chapter][i+1];\n          limitBook[chapter][i] = limitBook[chapter][i+1];\n\n          ethAddressBook[chapter][i] = ethAddressBook[chapter][i+1];\n          firstAddressBook[chapter][i] = firstAddressBook[chapter][i+1];\n          secondAddressBook[chapter][i] = secondAddressBook[chapter][i+1];\n\n          delete buyBook[chapter][i+1];\n          delete volBook[chapter][i+1];\n          delete minVolBook[chapter][i+1];\n          delete limitBook[chapter][i+1];\n\n          delete ethAddressBook[chapter][i+1];\n          delete firstAddressBook[chapter][i+1];\n          delete secondAddressBook[chapter][i+1];\n        }\n      }\n    }\n    buyBook[chapter].length = buyBook[chapter].length - numsCleared[chapter];\n    volBook[chapter].length = volBook[chapter].length - numsCleared[chapter];\n    minVolBook[chapter].length = minVolBook[chapter].length - numsCleared[chapter];\n    limitBook[chapter].length = limitBook[chapter].length - numsCleared[chapter];\n\n    ethAddressBook[chapter].length = ethAddressBook[chapter].length - numsCleared[chapter];\n    firstAddressBook[chapter].length = firstAddressBook[chapter].length - numsCleared[chapter];\n    secondAddressBook[chapter].length = secondAddressBook[chapter].length - numsCleared[chapter];\n\n    numsCleared[chapter] = 0;\n    return true;\n  }\n\n  // Checks if POW (nonce) is valid\n  // Performs nonce verification (keccak256)\n  // Helper for giveMatch\n  function isValidPOW(address depositAddress, uint chapter, uint index1,\n                      uint index2, uint nonce)\n    private\n    view\n    returns(bool isValid)\n  {\n    if (params.difficulty < keccak256(depositAddress, chapter, index1, index2, nonce)) {\n      return false;\n    }\n    return true;\n  }\n\n  // Function to pay the miner what's due\n  function payMiner(address depositAddress, uint ethVol)\n    private\n  {\n    // Calculate the miner's payment\n    uint minerPayment = ((params.minerShare * params.closureFee * ethVol) /\n                          (PRECISION * PRECISION));\n    // Pay the miner\n    depositAddress.transfer(minerPayment);\n  }\n\n  // Miners suggest matches with this function\n  // Wrapper for calcRateAndVol and isValidPOW, performs other required functions\n  function giveMatch(address depositAddress, uint chapter,\n                    uint index1, uint index2, uint nonce)\n    public\n    returns(bool isValid)\n  {\n    // Validate nonce\n    require(isValidPOW(depositAddress, chapter, index1, index2, nonce));\n    var (mimRate, ethVol) = calcRateAndVol(chapter, index1, index2);\n    require(ethVol > 0);\n    // which order is buying and selling ETH?\n    // buy-sell copy1\n    uint buyIndex;\n    uint sellIndex;\n    if (buyBook[chapter][index1]) {\n      buyIndex = index1;\n      sellIndex = index2;\n    } else{\n      buyIndex = index2;\n      sellIndex = index1;\n    }\n    payMiner(depositAddress, ethVol);\n    clearBalance(ethVol, limitBook[chapter][buyIndex]);\n    alertTraders(chapter, index1, index2, mimRate, ethVol);\n    clearTrade(chapter, index1, index2, mimRate, ethVol);\n    cleanChapter(chapter);\n    return true;\n  }\n\n  // Allows traders to place orders\n  function placeOrder(bool buyETH, uint volume, uint minVolume, uint limit,\n                      address ethAddress, bytes32[2] firstAddress,\n                      bytes32[2] otherAddress, uint chapter)\n    public\n    payable\n    returns(bool accepted)\n  {\n    require(volume > 0);\n    require(minVolume > 0);\n    require(volume >= minVolume);\n    require(limit > 0);\n    // TODO: NEXT VERSION: Charge according to transaction vol for generic currencies\n    // Use market rate\n    // TODO: Instant refunds (prototype code below)\n    if (buyETH) {\n      require(limit * msg.value >= volume * params.closureFee);\n      openBalance += volume * params.closureFee * limit / (PRECISION * PRECISION);\n      //msg.sender.transfer((limit * msg.value) - (volume * params.closureFee));\n    } else{\n      require(msg.value >= volume * params.closureFee / PRECISION);\n      openBalance += volume * params.closureFee / PRECISION;\n      //msg.sender.transfer(msg.value - (volume * params.closureFee / PRECISION));\n    }\n    require(buyBook[chapter].length > 0);\n\n    buyBook[chapter].push(buyETH);\n    volBook[chapter].push(volume);\n    minVolBook[chapter].push(minVolume);\n    limitBook[chapter].push(limit);\n\n    ethAddressBook[chapter].push(ethAddress);\n    firstAddressBook[chapter].push(firstAddress);\n    secondAddressBook[chapter].push(otherAddress);\n    return true;\n  }\n\n  // Allows traders to cancel orders\n  function cancelOrder(uint chapter, uint index)\n    public\n    returns(bool accepted)\n  {\n    require(index < buyBook[chapter].length);\n    // Can't cancel other people's orders\n    require(msg.sender == ethAddressBook[chapter][index]);\n\n    uint limit = limitBook[chapter][index];\n    uint volume = volBook[chapter][index];\n\n    // TODO: NEXT VERSION: Refund according to transaction vol for generic currencies\n    // Use market rate\n    // Refund according to ether transaction volume\n    if (buyBook[chapter][index]) {\n      msg.sender.transfer(volume * (params.closureFee - params.cancelFee) / limit);\n    } else{\n      msg.sender.transfer(volume * (params.closureFee - params.cancelFee) / limit);\n    }\n    delete buyBook[chapter][index];\n    delete volBook[chapter][index];\n    delete minVolBook[chapter][index];\n    delete limitBook[chapter][index];\n\n    delete ethAddressBook[chapter][index];\n    delete firstAddressBook[chapter][index];\n    delete secondAddressBook[chapter][index];\n\n    numsCleared[chapter] += 1;\n    cleanChapter(chapter);\n    return true;\n  }\n}\n",
  "sourcePath": "/Users/Karim/Desktop/Valex/contracts/Exchange.sol",
  "compiler": {
    "name": "solc",
    "version": "0.4.18+commit.9cf6e910.Emscripten.clang"
  },
  "schemaVersion": "1.0.1",
  "updatedAt": "2018-03-27T02:10:41.717Z"
}