{
  "contractName": "Exchange",
  "abi": [
    {
      "constant": true,
      "inputs": [
        {
          "name": "",
          "type": "uint256"
        },
        {
          "name": "",
          "type": "uint256"
        }
      ],
      "name": "firstAddressBook",
      "outputs": [
        {
          "name": "",
          "type": "string"
        }
      ],
      "payable": false,
      "stateMutability": "view",
      "type": "function"
    },
    {
      "constant": true,
      "inputs": [
        {
          "name": "",
          "type": "uint256"
        },
        {
          "name": "",
          "type": "uint256"
        }
      ],
      "name": "buyBook",
      "outputs": [
        {
          "name": "",
          "type": "bool"
        }
      ],
      "payable": false,
      "stateMutability": "view",
      "type": "function"
    },
    {
      "constant": false,
      "inputs": [
        {
          "name": "buyETH",
          "type": "bool"
        },
        {
          "name": "volume",
          "type": "uint256"
        },
        {
          "name": "minVolume",
          "type": "uint256"
        },
        {
          "name": "limit",
          "type": "uint256"
        },
        {
          "name": "ethAddress",
          "type": "address"
        },
        {
          "name": "firstAddress",
          "type": "string"
        },
        {
          "name": "otherAddress",
          "type": "string"
        },
        {
          "name": "chapter",
          "type": "uint256"
        }
      ],
      "name": "placeOrder",
      "outputs": [
        {
          "name": "accepted",
          "type": "bool"
        }
      ],
      "payable": true,
      "stateMutability": "payable",
      "type": "function"
    },
    {
      "constant": true,
      "inputs": [
        {
          "name": "",
          "type": "uint256"
        },
        {
          "name": "",
          "type": "uint256"
        }
      ],
      "name": "ethAddressBook",
      "outputs": [
        {
          "name": "",
          "type": "address"
        }
      ],
      "payable": false,
      "stateMutability": "view",
      "type": "function"
    },
    {
      "constant": true,
      "inputs": [],
      "name": "exBalances",
      "outputs": [
        {
          "name": "openBalance",
          "type": "uint256"
        },
        {
          "name": "closedBalance",
          "type": "uint256"
        }
      ],
      "payable": false,
      "stateMutability": "view",
      "type": "function"
    },
    {
      "constant": true,
      "inputs": [
        {
          "name": "",
          "type": "uint256"
        },
        {
          "name": "",
          "type": "uint256"
        }
      ],
      "name": "limitBook",
      "outputs": [
        {
          "name": "",
          "type": "uint256"
        }
      ],
      "payable": false,
      "stateMutability": "view",
      "type": "function"
    },
    {
      "constant": true,
      "inputs": [
        {
          "name": "",
          "type": "uint256"
        },
        {
          "name": "",
          "type": "uint256"
        }
      ],
      "name": "minVolBook",
      "outputs": [
        {
          "name": "",
          "type": "uint256"
        }
      ],
      "payable": false,
      "stateMutability": "view",
      "type": "function"
    },
    {
      "constant": true,
      "inputs": [],
      "name": "PRECISION",
      "outputs": [
        {
          "name": "",
          "type": "uint256"
        }
      ],
      "payable": false,
      "stateMutability": "view",
      "type": "function"
    },
    {
      "constant": false,
      "inputs": [
        {
          "name": "chapter",
          "type": "uint256"
        },
        {
          "name": "index",
          "type": "uint256"
        }
      ],
      "name": "cancelOrder",
      "outputs": [
        {
          "name": "accepted",
          "type": "bool"
        }
      ],
      "payable": false,
      "stateMutability": "nonpayable",
      "type": "function"
    },
    {
      "constant": true,
      "inputs": [
        {
          "name": "",
          "type": "uint256"
        },
        {
          "name": "",
          "type": "uint256"
        }
      ],
      "name": "secondAddressBook",
      "outputs": [
        {
          "name": "",
          "type": "string"
        }
      ],
      "payable": false,
      "stateMutability": "view",
      "type": "function"
    },
    {
      "constant": true,
      "inputs": [],
      "name": "params",
      "outputs": [
        {
          "name": "closureFee",
          "type": "uint256"
        },
        {
          "name": "cancelFee",
          "type": "uint256"
        },
        {
          "name": "cleanSize",
          "type": "uint256"
        },
        {
          "name": "minerShare",
          "type": "uint256"
        },
        {
          "name": "distBalance",
          "type": "uint256"
        },
        {
          "name": "difficulty",
          "type": "bytes32"
        }
      ],
      "payable": false,
      "stateMutability": "view",
      "type": "function"
    },
    {
      "constant": false,
      "inputs": [
        {
          "name": "depositAddress",
          "type": "address"
        },
        {
          "name": "chapter",
          "type": "uint256"
        },
        {
          "name": "index1",
          "type": "uint256"
        },
        {
          "name": "index2",
          "type": "uint256"
        },
        {
          "name": "nonce",
          "type": "uint256"
        }
      ],
      "name": "giveMatch",
      "outputs": [
        {
          "name": "isValid",
          "type": "bool"
        }
      ],
      "payable": true,
      "stateMutability": "payable",
      "type": "function"
    },
    {
      "constant": true,
      "inputs": [
        {
          "name": "",
          "type": "uint256"
        },
        {
          "name": "",
          "type": "uint256"
        }
      ],
      "name": "volBook",
      "outputs": [
        {
          "name": "",
          "type": "uint256"
        }
      ],
      "payable": false,
      "stateMutability": "view",
      "type": "function"
    },
    {
      "inputs": [
        {
          "name": "closureFee",
          "type": "uint256"
        },
        {
          "name": "cancelFee",
          "type": "uint256"
        },
        {
          "name": "cleanSize",
          "type": "uint256"
        },
        {
          "name": "minerShare",
          "type": "uint256"
        },
        {
          "name": "distBalance",
          "type": "uint256"
        },
        {
          "name": "difficulty",
          "type": "bytes32"
        }
      ],
      "payable": false,
      "stateMutability": "nonpayable",
      "type": "constructor"
    },
    {
      "anonymous": false,
      "inputs": [
        {
          "indexed": false,
          "name": "ethAddress1",
          "type": "address"
        },
        {
          "indexed": false,
          "name": "ethAddress2",
          "type": "address"
        },
        {
          "indexed": false,
          "name": "firstAddress1",
          "type": "string"
        },
        {
          "indexed": false,
          "name": "firstAddress2",
          "type": "string"
        },
        {
          "indexed": false,
          "name": "otherAddress1",
          "type": "string"
        },
        {
          "indexed": false,
          "name": "otherAddress2",
          "type": "string"
        },
        {
          "indexed": false,
          "name": "mimRate",
          "type": "uint256"
        },
        {
          "indexed": false,
          "name": "ethVol",
          "type": "uint256"
        }
      ],
      "name": "TradeInfo",
      "type": "event"
    }
  ],
  "bytecode": "0x6060604052670de0b6b3a764000060005534156200001c57600080fd5b60405160c0806200301f833981016040528080519060200190919080519060200190919080519060200190919080519060200190919080519060200190919080519060200190919050506200008a868686868686620000df6401000000000262002808176401000000009004565b620000a862000126640100000000026200284f176401000000009004565b60108054806001018281620000be91906200036b565b91600052602060002090016000809091909150555050505050505062000561565b856001600001819055508460018001819055508360016002018190555082600160030181905550816001600401819055508060016005018160001916905550505050505050565b6009600080815260200190815260200160002080548060010182816200014d91906200039a565b91600052602060002090602091828204019190066000909190916101000a81548160ff02191690831515021790555050600a60008081526020019081526020016000208054806001018281620001a491906200036b565b916000526020600020900160008090919091505550600b60008081526020019081526020016000208054806001018281620001e091906200036b565b916000526020600020900160008090919091505550600c600080815260200190815260200160002080548060010182816200021c91906200036b565b916000526020600020900160008090919091505550600d60008081526020019081526020016000208054806001018281620002589190620003d7565b9160005260206000209001600080909190916101000a81548173ffffffffffffffffffffffffffffffffffffffff021916908373ffffffffffffffffffffffffffffffffffffffff16021790555050600e60008081526020019081526020016000208054806001018281620002ce919062000406565b916000526020600020900160006020604051908101604052806000815250909190915090805190602001906200030692919062000435565b5050600f600080815260200190815260200160002080548060010182816200032f919062000406565b916000526020600020900160006020604051908101604052806000815250909190915090805190602001906200036792919062000435565b5050565b8154818355818115116200039557818360005260206000209182019101620003949190620004bc565b5b505050565b815481835581811511620003d257601f016020900481601f01602090048360005260206000209182019101620003d19190620004bc565b5b505050565b8154818355818115116200040157818360005260206000209182019101620004009190620004bc565b5b505050565b81548183558181151162000430578183600052602060002091820191016200042f9190620004e4565b5b505050565b828054600181600116156101000203166002900490600052602060002090601f016020900481019282601f106200047857805160ff1916838001178555620004a9565b82800160010185558215620004a9579182015b82811115620004a85782518255916020019190600101906200048b565b5b509050620004b89190620004bc565b5090565b620004e191905b80821115620004dd576000816000905550600101620004c3565b5090565b90565b6200051291905b808211156200050e576000818162000504919062000515565b50600101620004eb565b5090565b90565b50805460018160011615610100020316600290046000825580601f106200053d57506200055e565b601f0160209004906000526020600020908101906200055d9190620004bc565b5b50565b612aae80620005716000396000f3006060604052600436106100c5576000357c0100000000000000000000000000000000000000000000000000000000900463ffffffff168063217c9273146100ca5780633af8c2d51461016f5780634aed275c146101b357806353c1d882146102ae578063737f02af1461031a5780638139cbc61461034a5780639febbcfa1461038a578063aaf5eb68146103ca578063b6ed0632146103f3578063c74060fb14610437578063cff0ab96146104dc578063d2426ab914610530578063e0f1f59f1461059a575b600080fd5b34156100d557600080fd5b6100f460048080359060200190919080359060200190919050506105da565b6040518080602001828103825283818151815260200191508051906020019080838360005b83811015610134578082015181840152602081019050610119565b50505050905090810190601f1680156101615780820380516001836020036101000a031916815260200191505b509250505060405180910390f35b341561017a57600080fd5b61019960048080359060200190919080359060200190919050506106a3565b604051808215151515815260200191505060405180910390f35b6102946004808035151590602001909190803590602001909190803590602001909190803590602001909190803573ffffffffffffffffffffffffffffffffffffffff1690602001909190803590602001908201803590602001908080601f0160208091040260200160405190810160405280939291908181526020018383808284378201915050505050509190803590602001908201803590602001908080601f016020809104026020016040519081016040528093929190818152602001838380828437820191505050505050919080359060200190919050506106e5565b604051808215151515815260200191505060405180910390f35b34156102b957600080fd5b6102d860048080359060200190919080359060200190919050506109bb565b604051808273ffffffffffffffffffffffffffffffffffffffff1673ffffffffffffffffffffffffffffffffffffffff16815260200191505060405180910390f35b341561032557600080fd5b61032d610a09565b604051808381526020018281526020019250505060405180910390f35b341561035557600080fd5b6103746004808035906020019091908035906020019091905050610a1b565b6040518082815260200191505060405180910390f35b341561039557600080fd5b6103b46004808035906020019091908035906020019091905050610a4c565b6040518082815260200191505060405180910390f35b34156103d557600080fd5b6103dd610a7d565b6040518082815260200191505060405180910390f35b34156103fe57600080fd5b61041d6004808035906020019091908035906020019091905050610a83565b604051808215151515815260200191505060405180910390f35b341561044257600080fd5b6104616004808035906020019091908035906020019091905050610e52565b6040518080602001828103825283818151815260200191508051906020019080838360005b838110156104a1578082015181840152602081019050610486565b50505050905090810190601f1680156104ce5780820380516001836020036101000a031916815260200191505b509250505060405180910390f35b34156104e757600080fd5b6104ef610f1b565b604051808781526020018681526020018581526020018481526020018381526020018260001916600019168152602001965050505050505060405180910390f35b610580600480803573ffffffffffffffffffffffffffffffffffffffff16906020019091908035906020019091908035906020019091908035906020019091908035906020019091905050610f45565b604051808215151515815260200191505060405180910390f35b34156105a557600080fd5b6105c46004808035906020019091908035906020019091905050611025565b6040518082815260200191505060405180910390f35b600e602052816000526040600020818154811015156105f557fe5b9060005260206000209001600091509150508054600181600116156101000203166002900480601f01602080910402602001604051908101604052809291908181526020018280546001816001161561010002031660029004801561069b5780601f106106705761010080835404028352916020019161069b565b820191906000526020600020905b81548152906001019060200180831161067e57829003601f168201915b505050505081565b6009602052816000526040600020818154811015156106be57fe5b9060005260206000209060209182820401919006915091509054906101000a900460ff1681565b600080881115156106f557600080fd5b60008711151561070457600080fd5b86881015151561071357600080fd5b60008611151561072257600080fd5b881561075257600054600160000154890281151561073c57fe5b043487021015151561074d57600080fd5b610776565b600054600160000154890281151561076657fe5b04341015151561077557600080fd5b5b6000600960008481526020019081526020016000208054905011151561079b57600080fd5b6009600083815260200190815260200160002080548060010182816107c091906124c1565b91600052602060002090602091828204019190068b909190916101000a81548160ff02191690831515021790555050600a6000838152602001908152602001600020805480600101828161081491906124fb565b916000526020600020900160008a90919091505550600b6000838152602001908152602001600020805480600101828161084e91906124fb565b916000526020600020900160008990919091505550600c6000838152602001908152602001600020805480600101828161088891906124fb565b916000526020600020900160008890919091505550600d600083815260200190815260200160002080548060010182816108c29190612527565b9160005260206000209001600087909190916101000a81548173ffffffffffffffffffffffffffffffffffffffff021916908373ffffffffffffffffffffffffffffffffffffffff16021790555050600e600083815260200190815260200160002080548060010182816109369190612553565b91600052602060002090016000869091909150908051906020019061095c92919061257f565b5050600f600083815260200190815260200160002080548060010182816109839190612553565b9160005260206000209001600085909190915090805190602001906109a992919061257f565b50506001905098975050505050505050565b600d602052816000526040600020818154811015156109d657fe5b90600052602060002090016000915091509054906101000a900473ffffffffffffffffffffffffffffffffffffffff1681565b60078060000154908060010154905082565b600c60205281600052604060002081815481101515610a3657fe5b9060005260206000209001600091509150505481565b600b60205281600052604060002081815481101515610a6757fe5b9060005260206000209001600091509150505481565b60005481565b6000806000600960008681526020019081526020016000208054905084101515610aac57600080fd5b600d600086815260200190815260200160002084815481101515610acc57fe5b906000526020600020900160009054906101000a900473ffffffffffffffffffffffffffffffffffffffff1673ffffffffffffffffffffffffffffffffffffffff163373ffffffffffffffffffffffffffffffffffffffff16141515610b3157600080fd5b600c600086815260200190815260200160002084815481101515610b5157fe5b9060005260206000209001549150600a600086815260200190815260200160002084815481101515610b7f57fe5b90600052602060002090015490506009600086815260200190815260200160002084815481101515610bad57fe5b90600052602060002090602091828204019190069054906101000a900460ff1615610c2f573373ffffffffffffffffffffffffffffffffffffffff166108fc836001800154600160000154038402811515610c0457fe5b049081150290604051600060405180830381858888f193505050501515610c2a57600080fd5b610c88565b3373ffffffffffffffffffffffffffffffffffffffff166108fc836001800154600160000154038402811515610c6157fe5b049081150290604051600060405180830381858888f193505050501515610c8757600080fd5b5b6009600086815260200190815260200160002084815481101515610ca857fe5b90600052602060002090602091828204019190066101000a81549060ff0219169055600a600086815260200190815260200160002084815481101515610cea57fe5b906000526020600020900160009055600b600086815260200190815260200160002084815481101515610d1957fe5b906000526020600020900160009055600c600086815260200190815260200160002084815481101515610d4857fe5b906000526020600020900160009055600d600086815260200190815260200160002084815481101515610d7757fe5b906000526020600020900160006101000a81549073ffffffffffffffffffffffffffffffffffffffff0219169055600e600086815260200190815260200160002084815481101515610dc557fe5b90600052602060002090016000610ddc91906125ff565b600f600086815260200190815260200160002084815481101515610dfc57fe5b90600052602060002090016000610e1391906125ff565b6001601086815481101515610e2457fe5b906000526020600020900160008282540192505081905550610e4585611056565b5060019250505092915050565b600f60205281600052604060002081815481101515610e6d57fe5b9060005260206000209001600091509150508054600181600116156101000203166002900480601f016020809104026020016040519081016040528092919081815260200182805460018160011615610100020316600290048015610f135780601f10610ee857610100808354040283529160200191610f13565b820191906000526020600020905b815481529060010190602001808311610ef657829003601f168201915b505050505081565b60018060000154908060010154908060020154908060030154908060040154908060050154905086565b600080600080610f588989898989611869565b1515610f675760009350611019565b610f72888888611907565b925092506000821415610f885760009350611019565b600054826001600001546001600301540202811515610fa357fe5b0490508873ffffffffffffffffffffffffffffffffffffffff166108fc829081150290604051600060405180830381858888f193505050501515610fe657600080fd5b610ff08183611bc7565b610ffd8888888686611c33565b61100a8888888686612047565b61101388611056565b50600193505b50505095945050505050565b600a6020528160005260406000208181548110151561104057fe5b9060005260206000209001600091509150505481565b60008060016002015460108481548110151561106e57fe5b90600052602060002090015410156110895760009150611863565b600190505b6009600084815260200190815260200160002080549050811015611600576000600a6000858152602001908152602001600020828154811015156110ce57fe5b90600052602060002090015414156115f35760016009600085815260200190815260200160002080549050038110156115f257600960008481526020019081526020016000206001820181548110151561112457fe5b90600052602060002090602091828204019190069054906101000a900460ff16600960008581526020019081526020016000208281548110151561116457fe5b90600052602060002090602091828204019190066101000a81548160ff021916908315150217905550600a6000848152602001908152602001600020600182018154811015156111b057fe5b906000526020600020900154600a6000858152602001908152602001600020828154811015156111dc57fe5b906000526020600020900181905550600b60008481526020019081526020016000206001820181548110151561120e57fe5b906000526020600020900154600b60008581526020019081526020016000208281548110151561123a57fe5b906000526020600020900181905550600c60008481526020019081526020016000206001820181548110151561126c57fe5b906000526020600020900154600c60008581526020019081526020016000208281548110151561129857fe5b906000526020600020900181905550600d6000848152602001908152602001600020600182018154811015156112ca57fe5b906000526020600020900160009054906101000a900473ffffffffffffffffffffffffffffffffffffffff16600d60008581526020019081526020016000208281548110151561131657fe5b906000526020600020900160006101000a81548173ffffffffffffffffffffffffffffffffffffffff021916908373ffffffffffffffffffffffffffffffffffffffff160217905550600e60008481526020019081526020016000206001820181548110151561138257fe5b9060005260206000209001600e6000858152602001908152602001600020828154811015156113ad57fe5b906000526020600020900190805460018160011615610100020316600290046113d7929190612647565b50600f6000848152602001908152602001600020600182018154811015156113fb57fe5b9060005260206000209001600f60008581526020019081526020016000208281548110151561142657fe5b90600052602060002090019080546001816001161561010002031660029004611450929190612647565b50600960008481526020019081526020016000206001820181548110151561147457fe5b90600052602060002090602091828204019190066101000a81549060ff0219169055600a6000848152602001908152602001600020600182018154811015156114b957fe5b906000526020600020900160009055600b6000848152602001908152602001600020600182018154811015156114eb57fe5b906000526020600020900160009055600c60008481526020019081526020016000206001820181548110151561151d57fe5b906000526020600020900160009055600d60008481526020019081526020016000206001820181548110151561154f57fe5b906000526020600020900160006101000a81549073ffffffffffffffffffffffffffffffffffffffff0219169055600e6000848152602001908152602001600020600182018154811015156115a057fe5b906000526020600020900160006115b791906125ff565b600f6000848152602001908152602001600020600182018154811015156115da57fe5b906000526020600020900160006115f191906125ff565b5b5b808060010191505061108e565b60108381548110151561160f57fe5b906000526020600020900154600960008581526020019081526020016000208054905003600960008581526020019081526020016000208161165191906126ce565b5060108381548110151561166157fe5b906000526020600020900154600a60008581526020019081526020016000208054905003600a6000858152602001908152602001600020816116a39190612708565b506010838154811015156116b357fe5b906000526020600020900154600b60008581526020019081526020016000208054905003600b6000858152602001908152602001600020816116f59190612708565b5060108381548110151561170557fe5b906000526020600020900154600c60008581526020019081526020016000208054905003600c6000858152602001908152602001600020816117479190612708565b5060108381548110151561175757fe5b906000526020600020900154600d60008581526020019081526020016000208054905003600d6000858152602001908152602001600020816117999190612734565b506010838154811015156117a957fe5b906000526020600020900154600e60008581526020019081526020016000208054905003600e6000858152602001908152602001600020816117eb9190612760565b506010838154811015156117fb57fe5b906000526020600020900154600f60008581526020019081526020016000208054905003600f60008581526020019081526020016000208161183d9190612760565b50600060108481548110151561184f57fe5b906000526020600020900181905550600191505b50919050565b60008585858585604051808673ffffffffffffffffffffffffffffffffffffffff1673ffffffffffffffffffffffffffffffffffffffff166c01000000000000000000000000028152601401858152602001848152602001838152602001828152602001955050505050506040518091039020600019166001600501546000191611156118f957600090506118fe565b600190505b95945050505050565b60008060008061191561278c565b61191d61278c565b611928898989612358565b15156119405760008081915080905095509550611bbb565b600960008a81526020019081526020016000208881548110151561196057fe5b90600052602060002090602091828204019190069054906101000a900460ff161561199057879350869250611997565b8693508792505b608060405190810160405280600115158152602001600a60008c8152602001908152602001600020868154811015156119cc57fe5b9060005260206000209001548152602001600b60008c8152602001908152602001600020868154811015156119fd57fe5b9060005260206000209001548152602001600c60008c815260200190815260200160002086815481101515611a2e57fe5b9060005260206000209001548152509150608060405190810160405280600015158152602001600a60008c815260200190815260200160002085815481101515611a7457fe5b9060005260206000209001548152602001600b60008c815260200190815260200160002085815481101515611aa557fe5b9060005260206000209001548152602001600c60008c815260200190815260200160002085815481101515611ad657fe5b9060005260206000209001548152509050806060015182606001511015611b095760008081915080905095509550611bbb565b60028160600151836060015101811515611b1f57fe5b049550858160200151026000548360200151021115611b7157858160200151026000548360400151021115611b605760008081915080905095509550611bbb565b858682602001510295509550611bbb565b600054826020015102868260200151021115611bb057600054826020015102868260400151021115611baf5760008081915080905095509550611bbb565b5b858260200151955095505b50505050935093915050565b6000548160016000015402811515611bdb57fe5b04600760000154036007600001819055506000548160016000015402811515611c0057fe5b04826007600101540301600760010181905550600160040154600760010154101515611c2f57611c2e6124b4565b5b5050565b7f17fad608e647bf180e9f2d2542498a2ec81fb1cb077d60802b67b21d64adc9b8600d600087815260200190815260200160002085815481101515611c7457fe5b906000526020600020900160009054906101000a900473ffffffffffffffffffffffffffffffffffffffff16600d600088815260200190815260200160002085815481101515611cc057fe5b906000526020600020900160009054906101000a900473ffffffffffffffffffffffffffffffffffffffff16600e600089815260200190815260200160002087815481101515611d0c57fe5b9060005260206000209001600e60008a815260200190815260200160002087815481101515611d3757fe5b9060005260206000209001600f60008b815260200190815260200160002089815481101515611d6257fe5b9060005260206000209001600f60008c815260200190815260200160002089815481101515611d8d57fe5b90600052602060002090018888604051808973ffffffffffffffffffffffffffffffffffffffff1673ffffffffffffffffffffffffffffffffffffffff1681526020018873ffffffffffffffffffffffffffffffffffffffff1673ffffffffffffffffffffffffffffffffffffffff1681526020018060200180602001806020018060200187815260200186815260200185810385528b818154600181600116156101000203166002900481526020019150805460018160011615610100020316600290048015611e9f5780601f10611e7457610100808354040283529160200191611e9f565b820191906000526020600020905b815481529060010190602001808311611e8257829003601f168201915b505085810384528a818154600181600116156101000203166002900481526020019150805460018160011615610100020316600290048015611f225780601f10611ef757610100808354040283529160200191611f22565b820191906000526020600020905b815481529060010190602001808311611f0557829003601f168201915b5050858103835289818154600181600116156101000203166002900481526020019150805460018160011615610100020316600290048015611fa55780601f10611f7a57610100808354040283529160200191611fa5565b820191906000526020600020905b815481529060010190602001808311611f8857829003601f168201915b50508581038252888181546001816001161561010002031660029004815260200191508054600181600116156101000203166002900480156120285780601f10611ffd57610100808354040283529160200191612028565b820191906000526020600020905b81548152906001019060200180831161200b57829003601f168201915b50509c5050505050505050505050505060405180910390a15050505050565b600080600960008881526020019081526020016000208681548110151561206a57fe5b90600052602060002090602091828204019190069054906101000a900460ff161561209a578591508490506120a1565b8491508590505b82600a6000898152602001908152602001600020838154811015156120c257fe5b90600052602060002090015414156120fe5760016010888154811015156120e557fe5b9060005260206000209001600082825401925050819055505b82600b60008981526020019081526020016000208381548110151561211f57fe5b9060005260206000209001541015612167576000600b60008981526020019081526020016000208381548110151561215357fe5b9060005260206000209001819055506121a1565b82600b60008981526020019081526020016000208381548110151561218857fe5b9060005260206000209001600082825403925050819055505b82600a6000898152602001908152602001600020838154811015156121c257fe5b9060005260206000209001600082825403925050819055506000548484028115156121e957fe5b04600a60008981526020019081526020016000208281548110151561220a57fe5b906000526020600020900154141561224657600160108881548110151561222d57fe5b9060005260206000209001600082825401925050819055505b60005484840281151561225557fe5b04600b60008981526020019081526020016000208281548110151561227657fe5b90600052602060002090015410156122be576000600b6000898152602001908152602001600020828154811015156122aa57fe5b906000526020600020900181905550612307565b6000548484028115156122cd57fe5b04600b6000898152602001908152602001600020828154811015156122ee57fe5b9060005260206000209001600082825403925050819055505b60005484840281151561231657fe5b04600a60008981526020019081526020016000208281548110151561233757fe5b90600052602060002090016000828254039250508190555050505050505050565b600060096000858152602001908152602001600020805490508310151561237e57600080fd5b6009600085815260200190815260200160002080549050821015156123a257600080fd5b60096000858152602001908152602001600020828154811015156123c257fe5b90600052602060002090602091828204019190069054906101000a900460ff161515600960008681526020019081526020016000208481548110151561240457fe5b90600052602060002090602091828204019190069054906101000a900460ff1615151415151561243357600080fd5b6000600a60008681526020019081526020016000208481548110151561245557fe5b9060005260206000209001541415151561246e57600080fd5b6000600a60008681526020019081526020016000208381548110151561249057fe5b906000526020600020900154141515156124a957600080fd5b600190509392505050565b6000600760010181905550565b8154818355818115116124f657601f016020900481601f016020900483600052602060002091820191016124f591906127b7565b5b505050565b8154818355818115116125225781836000526020600020918201910161252191906127b7565b5b505050565b81548183558181151161254e5781836000526020600020918201910161254d91906127b7565b5b505050565b81548183558181151161257a5781836000526020600020918201910161257991906127dc565b5b505050565b828054600181600116156101000203166002900490600052602060002090601f016020900481019282601f106125c057805160ff19168380011785556125ee565b828001600101855582156125ee579182015b828111156125ed5782518255916020019190600101906125d2565b5b5090506125fb91906127b7565b5090565b50805460018160011615610100020316600290046000825580601f106126255750612644565b601f01602090049060005260206000209081019061264391906127b7565b5b50565b828054600181600116156101000203166002900490600052602060002090601f016020900481019282601f1061268057805485556126bd565b828001600101855582156126bd57600052602060002091601f016020900482015b828111156126bc5782548255916001019190600101906126a1565b5b5090506126ca91906127b7565b5090565b81548183558181151161270357601f016020900481601f0160209004836000526020600020918201910161270291906127b7565b5b505050565b81548183558181151161272f5781836000526020600020918201910161272e91906127b7565b5b505050565b81548183558181151161275b5781836000526020600020918201910161275a91906127b7565b5b505050565b8154818355818115116127875781836000526020600020918201910161278691906127dc565b5b505050565b6080604051908101604052806000151581526020016000815260200160008152602001600081525090565b6127d991905b808211156127d55760008160009055506001016127bd565b5090565b90565b61280591905b8082111561280157600081816127f891906125ff565b506001016127e2565b5090565b90565b856001600001819055508460018001819055508360016002018190555082600160030181905550816001600401819055508060016005018160001916905550505050505050565b60096000808152602001908152602001600020805480600101828161287491906124c1565b91600052602060002090602091828204019190066000909190916101000a81548160ff02191690831515021790555050600a600080815260200190815260200160002080548060010182816128c991906124fb565b916000526020600020900160008090919091505550600b6000808152602001908152602001600020805480600101828161290391906124fb565b916000526020600020900160008090919091505550600c6000808152602001908152602001600020805480600101828161293d91906124fb565b916000526020600020900160008090919091505550600d600080815260200190815260200160002080548060010182816129779190612527565b9160005260206000209001600080909190916101000a81548173ffffffffffffffffffffffffffffffffffffffff021916908373ffffffffffffffffffffffffffffffffffffffff16021790555050600e600080815260200190815260200160002080548060010182816129eb9190612553565b91600052602060002090016000602060405190810160405280600081525090919091509080519060200190612a2192919061257f565b5050600f60008081526020019081526020016000208054806001018281612a489190612553565b91600052602060002090016000602060405190810160405280600081525090919091509080519060200190612a7e92919061257f565b50505600a165627a7a72305820c2bdb0eacc969915f4242803abb27b8667b45cd59769696757c796876fe76a6c0029",
  "source": "pragma solidity ^0.4.18;\n\nimport 'zeppelin-solidity/contracts/math/SafeMath.sol';\nimport './ExchangeStructs.sol';\n/// @title Exchange\n/// @author Karim Helmy\n\n// Primary contract: Describes functions of exchange\ncontract Exchange is ExchangeStructs {\n  // TODO: Make all operations safe\n  using SafeMath for uint;\n\n  uint public PRECISION = 10 ** 18;\n\n  Parameters public params;\n  Balances public exBalances;\n\n  // separate chapters for different currency pairs\n  // that's why they're 2D\n  /*\n  * Web3 can't properly handle structs.\n  * Ethers.js can only handle them under experimental version.\n  * Therefore, the old orderBook and adressBook pattern won't work.\n  * \\_()_/\n  */\n  // separate chapters for different currency pairs\n  // that's why they're 2D\n  mapping (uint => bool[]) public buyBook;\n  mapping (uint => uint[]) public volBook;\n  mapping (uint => uint[]) public minVolBook;\n  mapping (uint => uint[]) public limitBook;\n\n  mapping (uint => address[]) public ethAddressBook;\n  mapping (uint => string[]) public firstAddressBook;\n  mapping (uint => string[]) public secondAddressBook;\n  // Numbers of orders that have been closed are kept here\n  uint[] numsCleared;\n\n  // Constructor for contract\n  function Exchange(uint closureFee, uint cancelFee,\n                    uint cleanSize, uint minerShare, uint distBalance,\n                    bytes32 difficulty)\n    public\n  {\n    // Initialize parameters books\n    setParams(closureFee, cancelFee,\n              cleanSize, minerShare, distBalance, difficulty);\n    // Initialize order books\n    setBooks();\n    // Initialize numsCleared[0] as zero\n    numsCleared.push(0);\n    return;\n  }\n\n  /*\n  * Initializes order book and address book\n  * Only used in constructor\n  * Pushes \"genesis order\"\n  */\n  function setBooks()\n    private\n  {\n    buyBook[0].push(false);\n    volBook[0].push(0);\n    minVolBook[0].push(0);\n    limitBook[0].push(0);\n\n    ethAddressBook[0].push(address(0));\n    firstAddressBook[0].push(\"\");\n    secondAddressBook[0].push(\"\");\n  }\n\n  // Init the params struct, which contains the bulk of exchange's parameters\n  // Only used in constructor\n  function setParams(uint closureFee, uint cancelFee,\n                    uint cleanSize, uint minerShare, uint distBalance,\n                    bytes32 difficulty)\n    internal\n  {\n    params.closureFee = closureFee;\n    params.cancelFee = cancelFee;\n    params.cleanSize = cleanSize;\n    params.minerShare = minerShare;\n    params.distBalance = distBalance;\n    params.difficulty = difficulty;\n  }\n  // Checks edge cases for match verification\n  function checkMatchEdges(uint chapter, uint index1, uint index2)\n    private\n    view\n    returns(bool passes)\n  {\n    // valid indices\n    require(index1 < buyBook[chapter].length);\n    require(index2 < buyBook[chapter].length);\n    //One buy order and one sell order\n    require(buyBook[chapter][index1] != buyBook[chapter][index2]);\n    //Non-empty order\n    require(volBook[chapter][index1] != 0);\n    require(volBook[chapter][index2] != 0);\n    // All edge cases work!\n    return true;\n  }\n\n  // verifies that match is valid\n  function calcRateAndVol(uint chapter, uint index1, uint index2)\n    private\n    view\n    returns (uint mimRate, uint ethVol)\n  {\n    // check edge cases\n    if (! checkMatchEdges(chapter, index1, index2)) {\n      return (0,0);\n    }\n    // which order is buying and selling ETH?\n    // buy-sell copy1\n    uint buyIndex;\n    uint sellIndex;\n    if (buyBook[chapter][index1]) {\n      buyIndex = index1;\n      sellIndex = index2;\n    } else{\n      buyIndex = index2;\n      sellIndex = index1;\n    }\n    // shorthand for buy and sell orders\n    Order memory buyOrder = Order(true, volBook[chapter][buyIndex],\n                                  minVolBook[chapter][buyIndex],\n                                  limitBook[chapter][buyIndex]);\n    Order memory sellOrder = Order(false, volBook[chapter][sellIndex],\n                                  minVolBook[chapter][sellIndex],\n                                  limitBook[chapter][sellIndex]);\n\n    // Non-contradictory limits\n    if (buyOrder.limit < sellOrder.limit) {\n      return (0, 0);\n    }\n    // Meet in middle rate\n    // mimRate\n    mimRate = (buyOrder.limit + sellOrder.limit) / 2;\n    // Volumes comparable\n    if (buyOrder.volume * PRECISION > sellOrder.volume * mimRate) {\n      if (buyOrder.minVolume * PRECISION > sellOrder.volume * mimRate) {\n        return (0, 0);\n      }\n      return (mimRate, sellOrder.volume * mimRate);\n    }\n    if (sellOrder.volume * mimRate > buyOrder.volume * PRECISION ) {\n      if (sellOrder.minVolume * mimRate > buyOrder.volume * PRECISION) {\n        return (0, 0);\n      }\n    }\n    return (mimRate, buyOrder.volume);\n  }\n\n  // Clears closed trade, reenters into order book if incomplete\n  function clearTrade(uint chapter, uint index1, uint index2,\n                      uint mimRate, uint ethVol)\n    private\n  {\n    // which order is buying and selling ETH?\n    // buy-sell copy1\n    uint buyIndex;\n    uint sellIndex;\n    if (buyBook[chapter][index1]) {\n      buyIndex = index1;\n      sellIndex = index2;\n    } else{\n      buyIndex = index2;\n      sellIndex = index1;\n    }\n    if (volBook[chapter][buyIndex] == ethVol) {\n      numsCleared[chapter] += 1;\n    }\n    if (minVolBook[chapter][buyIndex] < ethVol) {\n      minVolBook[chapter][buyIndex] = 0;\n    } else{\n      minVolBook[chapter][buyIndex] -= ethVol;\n    }\n    volBook[chapter][buyIndex] -= ethVol;\n    if (volBook[chapter][sellIndex] == (ethVol * mimRate / PRECISION)) {\n      numsCleared[chapter] += 1;\n    }\n    if (minVolBook[chapter][sellIndex] < (ethVol * mimRate / PRECISION)) {\n      minVolBook[chapter][sellIndex] = 0;\n    } else{\n      minVolBook[chapter][sellIndex] -= (ethVol * mimRate / PRECISION);\n    }\n    volBook[chapter][sellIndex] -= ethVol * mimRate / PRECISION;\n  }\n\n  // Adds trade to log, for traders to note\n  // http://solidity.readthedocs.io/en/latest/contracts.html?highlight=events#events\n  function alertTraders(uint chapter, uint index1, uint index2, uint mimRate, uint ethVol)\n    private\n  {\n    TradeInfo(\n      ethAddressBook[chapter][index1], //ethAddress1,\n      ethAddressBook[chapter][index2], //ethAddress2,\n      firstAddressBook[chapter][index1], //firstAddress1,\n      firstAddressBook[chapter][index2], //firstAddress2,\n      secondAddressBook[chapter][index1], //otherAddress1,\n      secondAddressBook[chapter][index2], // otherAddress2,\n      mimRate,\n      ethVol\n      );\n  }\n\n  // Clears exBalances.closedBalance\n  // ValexToken ovverride distributes dividends when balance is of sufficient size\n  // TODO: Make dividends distributed by time, not quantity\n  // TODO: Add forced dividend distribution\n  function distDividends()\n    internal\n  {\n    exBalances.closedBalance = 0;\n  }\n\n  // Move balance from open to closed\n  // Eliminate minerPayment from either balance\n  function clearBalance(uint minerPayment, uint ethVol)\n    private\n  {\n    exBalances.openBalance = (exBalances.openBalance -\n                                  (params.closureFee * ethVol / PRECISION));\n    exBalances.closedBalance = (exBalances.closedBalance -\n                                  minerPayment +\n                                  (params.closureFee * ethVol / PRECISION));\n    if (exBalances.closedBalance >= params.distBalance) {\n      distDividends();\n    }\n  }\n\n  // Clean chapter (called when size reaches size to clean)\n  function cleanChapter(uint chapter)\n    private\n    returns(bool cleaned)\n  {\n    // Clean chapter only if size is appropriate\n    if (numsCleared[chapter] < params.cleanSize) {\n      return false;\n    }\n    // For all orders\n    // If it's a cleared order:\n    // Replace it with the next one, and clear the next one\n    for (uint i = 1; i < buyBook[chapter].length; i++) {\n      if (volBook[chapter][i] == 0) {\n        if (i < buyBook[chapter].length - 1) {\n          buyBook[chapter][i] = buyBook[chapter][i+1];\n          volBook[chapter][i] = volBook[chapter][i+1];\n          minVolBook[chapter][i] = minVolBook[chapter][i+1];\n          limitBook[chapter][i] = limitBook[chapter][i+1];\n\n          ethAddressBook[chapter][i] = ethAddressBook[chapter][i+1];\n          firstAddressBook[chapter][i] = firstAddressBook[chapter][i+1];\n          secondAddressBook[chapter][i] = secondAddressBook[chapter][i+1];\n\n          delete buyBook[chapter][i+1];\n          delete volBook[chapter][i+1];\n          delete minVolBook[chapter][i+1];\n          delete limitBook[chapter][i+1];\n\n          delete ethAddressBook[chapter][i+1];\n          delete firstAddressBook[chapter][i+1];\n          delete secondAddressBook[chapter][i+1];\n        }\n      }\n    }\n    buyBook[chapter].length = buyBook[chapter].length - numsCleared[chapter];\n    volBook[chapter].length = volBook[chapter].length - numsCleared[chapter];\n    minVolBook[chapter].length = minVolBook[chapter].length - numsCleared[chapter];\n    limitBook[chapter].length = limitBook[chapter].length - numsCleared[chapter];\n\n    ethAddressBook[chapter].length = ethAddressBook[chapter].length - numsCleared[chapter];\n    firstAddressBook[chapter].length = firstAddressBook[chapter].length - numsCleared[chapter];\n    secondAddressBook[chapter].length = secondAddressBook[chapter].length - numsCleared[chapter];\n\n    numsCleared[chapter] = 0;\n    return true;\n  }\n\n  // Checks if POW (nonce) is valid\n  // Performs nonce verification (keccak256)\n  // Helper for giveMatch\n  function isValidPOW(address depositAddress, uint chapter, uint index1,\n                      uint index2, uint nonce)\n    private\n    view\n    returns(bool isValid)\n  {\n    if (params.difficulty > keccak256(depositAddress, chapter, index1, index2, nonce)) {\n      return false;\n    }\n    return true;\n  }\n\n  // Miners suggest matches with this function\n  // Wrapper for calcRateAndVol and isValidPOW, performs other required functions\n  function giveMatch(address depositAddress, uint chapter,\n                    uint index1, uint index2, uint nonce)\n    public\n    payable\n    returns(bool isValid)\n  {\n    // Validate that nonce is equivalent\n    // postImage adds entropy if trade volume is small\n    // Helper for giveMatch\n    if (! isValidPOW(depositAddress, chapter, index1, index2, nonce)) {\n      return false;\n    }\n    var (mimRate, ethVol) = calcRateAndVol(chapter, index1, index2);\n    if (ethVol == 0) {\n      return false;\n    }\n    // calculate the miner's payment\n    uint minerPayment = ((params.minerShare * params.closureFee * ethVol) /\n                          PRECISION);\n    depositAddress.transfer(minerPayment);\n    clearBalance(minerPayment, ethVol);\n    alertTraders(chapter, index1, index2, mimRate, ethVol);\n    clearTrade(chapter, index1, index2, mimRate, ethVol);\n    cleanChapter(chapter);\n    return true;\n  }\n\n  // Allows traders to place orders\n  function placeOrder(bool buyETH, uint volume, uint minVolume, uint limit,\n                      address ethAddress, string firstAddress,\n                      string otherAddress, uint chapter)\n    public\n    payable\n    returns(bool accepted)\n  {\n    require(volume > 0);\n    require(minVolume > 0);\n    require(volume >= minVolume);\n    require(limit > 0);\n    // TODO: NEXT VERSION: Charge according to transaction vol for generic currencies\n    // Use market rate\n    if (buyETH) {\n      require(limit * msg.value >= volume * params.closureFee / PRECISION);\n    } else{\n      require(msg.value >= volume * params.closureFee / PRECISION);\n    }\n    require(buyBook[chapter].length > 0);\n\n    buyBook[chapter].push(buyETH);\n    volBook[chapter].push(volume);\n    minVolBook[chapter].push(minVolume);\n    limitBook[chapter].push(limit);\n\n    ethAddressBook[chapter].push(ethAddress);\n    firstAddressBook[chapter].push(firstAddress);\n    secondAddressBook[chapter].push(otherAddress);\n    return true;\n  }\n\n  // Allows traders to cancel orders\n  function cancelOrder(uint chapter, uint index)\n    public\n    returns(bool accepted)\n  {\n    require(index < buyBook[chapter].length);\n    // Can't cancel other people's orders\n    require(msg.sender == ethAddressBook[chapter][index]);\n\n    uint limit = limitBook[chapter][index];\n    uint volume = volBook[chapter][index];\n\n    // TODO: NEXT VERSION: Refund according to transaction vol for generic currencies\n    // Use market rate\n    // Refund according to ether transaction volume\n    if (buyBook[chapter][index]) {\n      msg.sender.transfer(volume * (params.closureFee - params.cancelFee) / limit);\n    } else{\n      msg.sender.transfer(volume * (params.closureFee - params.cancelFee) / limit);\n    }\n    delete buyBook[chapter][index];\n    delete volBook[chapter][index];\n    delete minVolBook[chapter][index];\n    delete limitBook[chapter][index];\n\n    delete ethAddressBook[chapter][index];\n    delete firstAddressBook[chapter][index];\n    delete secondAddressBook[chapter][index];\n\n    numsCleared[chapter] += 1;\n    cleanChapter(chapter);\n    return true;\n  }\n}\n",
  "sourcePath": "/Users/Karim/Desktop/Valex/contracts/Exchange.sol",
  "compiler": {
    "name": "solc",
    "version": "0.4.18+commit.9cf6e910.Emscripten.clang"
  },
  "schemaVersion": "1.0.1",
  "updatedAt": "2018-02-16T17:59:04.560Z"
}