{
  "contractName": "Exchange",
  "abi": [
    {
      "constant": true,
      "inputs": [
        {
          "name": "",
          "type": "uint256"
        },
        {
          "name": "",
          "type": "uint256"
        }
      ],
      "name": "orderBook",
      "outputs": [
        {
          "name": "buyETH",
          "type": "bool"
        },
        {
          "name": "volume",
          "type": "uint256"
        },
        {
          "name": "minVolume",
          "type": "uint256"
        },
        {
          "name": "limit",
          "type": "uint256"
        }
      ],
      "payable": false,
      "stateMutability": "view",
      "type": "function"
    },
    {
      "constant": false,
      "inputs": [
        {
          "name": "buyETH",
          "type": "bool"
        },
        {
          "name": "volume",
          "type": "uint256"
        },
        {
          "name": "minVolume",
          "type": "uint256"
        },
        {
          "name": "limit",
          "type": "uint256"
        },
        {
          "name": "ethAddress",
          "type": "address"
        },
        {
          "name": "firstAddress",
          "type": "string"
        },
        {
          "name": "otherAddress",
          "type": "string"
        },
        {
          "name": "chapter",
          "type": "uint256"
        }
      ],
      "name": "placeOrder",
      "outputs": [
        {
          "name": "accepted",
          "type": "bool"
        }
      ],
      "payable": true,
      "stateMutability": "payable",
      "type": "function"
    },
    {
      "constant": false,
      "inputs": [
        {
          "name": "chapter",
          "type": "uint256"
        },
        {
          "name": "index1",
          "type": "uint256"
        },
        {
          "name": "index2",
          "type": "uint256"
        },
        {
          "name": "nonce",
          "type": "bytes32"
        },
        {
          "name": "hashVal",
          "type": "uint256"
        }
      ],
      "name": "giveMatch",
      "outputs": [
        {
          "name": "isValid",
          "type": "bool"
        }
      ],
      "payable": true,
      "stateMutability": "payable",
      "type": "function"
    },
    {
      "constant": true,
      "inputs": [],
      "name": "exBalances",
      "outputs": [
        {
          "name": "openBalance",
          "type": "uint256"
        },
        {
          "name": "closedBalance",
          "type": "uint256"
        }
      ],
      "payable": false,
      "stateMutability": "view",
      "type": "function"
    },
    {
      "constant": false,
      "inputs": [
        {
          "name": "chapter",
          "type": "uint256"
        },
        {
          "name": "index",
          "type": "uint256"
        }
      ],
      "name": "cancelOrder",
      "outputs": [
        {
          "name": "accepted",
          "type": "bool"
        }
      ],
      "payable": false,
      "stateMutability": "nonpayable",
      "type": "function"
    },
    {
      "constant": true,
      "inputs": [],
      "name": "params",
      "outputs": [
        {
          "name": "closureFeePerUnit",
          "type": "uint256"
        },
        {
          "name": "cancelFeePerUnit",
          "type": "uint256"
        },
        {
          "name": "cleanSize",
          "type": "uint256"
        },
        {
          "name": "minerShare",
          "type": "uint256"
        },
        {
          "name": "distBalance",
          "type": "uint256"
        }
      ],
      "payable": false,
      "stateMutability": "view",
      "type": "function"
    },
    {
      "inputs": [
        {
          "name": "closureFeePerUnit",
          "type": "uint256"
        },
        {
          "name": "cancelFeePerUnit",
          "type": "uint256"
        },
        {
          "name": "cleanSize",
          "type": "uint256"
        },
        {
          "name": "minerShare",
          "type": "uint256"
        },
        {
          "name": "distBalance",
          "type": "uint256"
        }
      ],
      "payable": false,
      "stateMutability": "nonpayable",
      "type": "constructor"
    },
    {
      "anonymous": false,
      "inputs": [
        {
          "indexed": false,
          "name": "ethAddress1",
          "type": "address"
        },
        {
          "indexed": false,
          "name": "ethAddress2",
          "type": "address"
        },
        {
          "indexed": false,
          "name": "firstAddress1",
          "type": "string"
        },
        {
          "indexed": false,
          "name": "firstAddress2",
          "type": "string"
        },
        {
          "indexed": false,
          "name": "otherAddress1",
          "type": "string"
        },
        {
          "indexed": false,
          "name": "otherAddress2",
          "type": "string"
        },
        {
          "indexed": false,
          "name": "mimRate",
          "type": "uint256"
        },
        {
          "indexed": false,
          "name": "ethVol",
          "type": "uint256"
        }
      ],
      "name": "TradeInfo",
      "type": "event"
    }
  ],
  "bytecode": "0x606060405234156200001057600080fd5b60405160a08062001cba83398101604052808051906020019091908051906020019091908051906020019091908051906020019091908051906020019091905050620000748585858585620000ca6401000000000262001acb176401000000009004565b50620000936200010a6401000000000262001b0b176401000000009004565b5060098054806001018281620000aa919062000113565b91600052602060002090016000809091909150555050505050506200016a565b6000856000800181905550846000600101819055508360006002018190555082600060030181905550816000600401819055506001905095945050505050565b60006001905090565b8154818355818115116200013d578183600052602060002091820191016200013c919062000142565b5b505050565b6200016791905b808211156200016357600081600090555060010162000149565b5090565b90565b611b40806200017a6000396000f300606060405260043610610078576000357c0100000000000000000000000000000000000000000000000000000000900463ffffffff16806314974f461461007d5780634aed275c146100d65780635a1f6393146101d1578063737f02af14610229578063b6ed063214610259578063cff0ab961461029d575b600080fd5b341561008857600080fd5b6100a760048080359060200190919080359060200190919050506102e2565b604051808515151515815260200184815260200183815260200182815260200194505050505060405180910390f35b6101b76004808035151590602001909190803590602001909190803590602001909190803590602001909190803573ffffffffffffffffffffffffffffffffffffffff1690602001909190803590602001908201803590602001908080601f0160208091040260200160405190810160405280939291908181526020018383808284378201915050505050509190803590602001908201803590602001908080601f0160208091040260200160405190810160405280939291908181526020018383808284378201915050505050509190803590602001909190505061033b565b604051808215151515815260200191505060405180910390f35b61020f60048080359060200190919080359060200190919080359060200190919080356000191690602001909190803590602001909190505061054f565b604051808215151515815260200191505060405180910390f35b341561023457600080fd5b61023c610638565b604051808381526020018281526020019250505060405180910390f35b341561026457600080fd5b610283600480803590602001909190803590602001909190505061064a565b604051808215151515815260200191505060405180910390f35b34156102a857600080fd5b6102b0610974565b604051808681526020018581526020018481526020018381526020018281526020019550505050505060405180910390f35b6007602052816000526040600020818154811015156102fd57fe5b9060005260206000209060040201600091509150508060000160009054906101000a900460ff16908060010154908060020154908060030154905084565b6000808811151561034b57600080fd5b60008711151561035a57600080fd5b86881015151561036957600080fd5b60008611151561037857600080fd5b881561039a57600080015488023487021015151561039557600080fd5b6103b0565b6000800154880234101515156103af57600080fd5b5b6007600083815260200190815260200160002080548060010182816103d5919061186c565b916000526020600020906004020160006080604051908101604052808d151581526020018c81526020018b81526020018a815250909190915060008201518160000160006101000a81548160ff021916908315150217905550602082015181600101556040820151816002015560608201518160030155505050600860008381526020019081526020016000208054806001018281610474919061189e565b916000526020600020906003020160006060604051908101604052808973ffffffffffffffffffffffffffffffffffffffff16815260200188815260200187815250909190915060008201518160000160006101000a81548173ffffffffffffffffffffffffffffffffffffffff021916908373ffffffffffffffffffffffffffffffffffffffff160217905550602082015181600101908051906020019061051e9291906118d0565b50604082015181600201908051906020019061053b9291906118d0565b505050506001905098975050505050505050565b600080600080610563338a8a8a8a8a610998565b1515610572576000935061062c565b61057d898989610a33565b925092506000821415610593576000935061062c565b670de0b6b3a764000082600080015460006003015402028115156105b357fe5b0490503373ffffffffffffffffffffffffffffffffffffffff166108fc829081150290604051600060405180830381858888f1935050505015156105f657600080fd5b6106008183610ca4565b5061060e8989898686610cfd565b5061061c898989868661113d565b50610626896114a9565b50600193505b50505095945050505050565b60058060000154908060010154905082565b600080600060076000868152602001908152602001600020805490508410151561067357600080fd5b600860008681526020019081526020016000208481548110151561069357fe5b906000526020600020906003020160000160009054906101000a900473ffffffffffffffffffffffffffffffffffffffff1673ffffffffffffffffffffffffffffffffffffffff163373ffffffffffffffffffffffffffffffffffffffff161415156106fe57600080fd5b600760008681526020019081526020016000208481548110151561071e57fe5b9060005260206000209060040201600301549150600760008681526020019081526020016000208481548110151561075257fe5b9060005260206000209060040201600101549050600760008681526020019081526020016000208481548110151561078657fe5b906000526020600020906004020160000160009054906101000a900460ff1615610807573373ffffffffffffffffffffffffffffffffffffffff166108fc8360006001015460008001540384028115156107dc57fe5b049081150290604051600060405180830381858888f19350505050151561080257600080fd5b610860565b3373ffffffffffffffffffffffffffffffffffffffff166108fc83600060010154600080015403840281151561083957fe5b049081150290604051600060405180830381858888f19350505050151561085f57600080fd5b5b600760008681526020019081526020016000208481548110151561088057fe5b9060005260206000209060040201600080820160006101000a81549060ff0219169055600182016000905560028201600090556003820160009055505060086000868152602001908152602001600020848154811015156108dd57fe5b9060005260206000209060030201600080820160006101000a81549073ffffffffffffffffffffffffffffffffffffffff02191690556001820160006109239190611950565b6002820160006109339190611950565b5050600160098681548110151561094657fe5b906000526020600020900160008282540192505081905550610967856114a9565b5060019250505092915050565b60008060000154908060010154908060020154908060030154908060040154905085565b60008686868685604051808673ffffffffffffffffffffffffffffffffffffffff1673ffffffffffffffffffffffffffffffffffffffff166c01000000000000000000000000028152601401858152602001848152602001838152602001828152602001955050505050506040518091039020600019168360001916141515610a245760009050610a29565b600190505b9695505050505050565b600080600080610a41611998565b610a49611998565b610a548989896116f3565b1515610a6c5760008081915080905095509550610c98565b600760008a815260200190815260200160002088815481101515610a8c57fe5b906000526020600020906004020160000160009054906101000a900460ff1615610abb57879350869250610ac2565b8693508792505b600760008a815260200190815260200160002084815481101515610ae257fe5b9060005260206000209060040201608060405190810160405290816000820160009054906101000a900460ff1615151515815260200160018201548152602001600282015481526020016003820154815250509150600760008a815260200190815260200160002083815481101515610b5757fe5b9060005260206000209060040201608060405190810160405290816000820160009054906101000a900460ff1615151515815260200160018201548152602001600282015481526020016003820154815250509050806060015182606001511015610bce5760008081915080905095509550610c98565b60028160600151836060015101811515610be457fe5b04955085816020015102670de0b6b3a76400008360200151021115610c425785816020015102670de0b6b3a76400008360400151021115610c315760008081915080905095509550610c98565b858682602001510295509550610c98565b670de0b6b3a7640000826020015102868260200151021115610c8d57670de0b6b3a7640000826020015102868260400151021115610c8c5760008081915080905095509550610c98565b5b858260200151955095505b50505050935093915050565b6000816000800154026005600001540360056000018190555081600080015402836005600101540301600560010181905550600060040154600560010154101515610cf357610cf1611859565b505b6001905092915050565b60007f17fad608e647bf180e9f2d2542498a2ec81fb1cb077d60802b67b21d64adc9b86008600088815260200190815260200160002086815481101515610d4057fe5b906000526020600020906003020160000160009054906101000a900473ffffffffffffffffffffffffffffffffffffffff166008600089815260200190815260200160002086815481101515610d9257fe5b906000526020600020906003020160000160009054906101000a900473ffffffffffffffffffffffffffffffffffffffff16600860008a815260200190815260200160002088815481101515610de457fe5b9060005260206000209060030201600101600860008b815260200190815260200160002088815481101515610e1557fe5b9060005260206000209060030201600101600860008c81526020019081526020016000208a815481101515610e4657fe5b9060005260206000209060030201600201600860008d81526020019081526020016000208a815481101515610e7757fe5b90600052602060002090600302016002018989604051808973ffffffffffffffffffffffffffffffffffffffff1673ffffffffffffffffffffffffffffffffffffffff1681526020018873ffffffffffffffffffffffffffffffffffffffff1673ffffffffffffffffffffffffffffffffffffffff1681526020018060200180602001806020018060200187815260200186815260200185810385528b818154600181600116156101000203166002900481526020019150805460018160011615610100020316600290048015610f8f5780601f10610f6457610100808354040283529160200191610f8f565b820191906000526020600020905b815481529060010190602001808311610f7257829003601f168201915b505085810384528a8181546001816001161561010002031660029004815260200191508054600181600116156101000203166002900480156110125780601f10610fe757610100808354040283529160200191611012565b820191906000526020600020905b815481529060010190602001808311610ff557829003601f168201915b50508581038352898181546001816001161561010002031660029004815260200191508054600181600116156101000203166002900480156110955780601f1061106a57610100808354040283529160200191611095565b820191906000526020600020905b81548152906001019060200180831161107857829003601f168201915b50508581038252888181546001816001161561010002031660029004815260200191508054600181600116156101000203166002900480156111185780601f106110ed57610100808354040283529160200191611118565b820191906000526020600020905b8154815290600101906020018083116110fb57829003601f168201915b50509c5050505050505050505050505060405180910390a16001905095945050505050565b6000806000600760008981526020019081526020016000208781548110151561116257fe5b906000526020600020906004020160000160009054906101000a900460ff161561119157869150859050611198565b8591508690505b83600760008a8152602001908152602001600020838154811015156111b957fe5b90600052602060002090600402016001015414156111fb5760016009898154811015156111e257fe5b9060005260206000209001600082825401925050819055505b83600760008a81526020019081526020016000208381548110151561121c57fe5b9060005260206000209060040201600201541015611270576000600760008a81526020019081526020016000208381548110151561125657fe5b9060005260206000209060040201600201819055506112b0565b83600760008a81526020019081526020016000208381548110151561129157fe5b9060005260206000209060040201600201600082825403925050819055505b83600760008a8152602001908152602001600020838154811015156112d157fe5b906000526020600020906004020160010160008282540392505081905550670de0b6b3a764000085850281151561130457fe5b04600760008a81526020019081526020016000208281548110151561132557fe5b906000526020600020906004020160010154141561136757600160098981548110151561134e57fe5b9060005260206000209001600082825401925050819055505b670de0b6b3a764000085850281151561137c57fe5b04600760008a81526020019081526020016000208281548110151561139d57fe5b90600052602060002090600402016002015410156113f1576000600760008a8152602001908152602001600020828154811015156113d757fe5b906000526020600020906004020160020181905550611446565b670de0b6b3a764000085850281151561140657fe5b04600760008a81526020019081526020016000208281548110151561142757fe5b9060005260206000209060040201600201600082825403925050819055505b670de0b6b3a764000085850281151561145b57fe5b04600760008a81526020019081526020016000208281548110151561147c57fe5b90600052602060002090600402016001016000828254039250508190555060019250505095945050505050565b6000806000600201546009848154811015156114c157fe5b90600052602060002090015410156114dc57600091506116ed565b600090505b6007600084815260200190815260200160002080549050811015611676576000600760008581526020019081526020016000208281548110151561152157fe5b906000526020600020906004020160010154141561166957600160076000858152602001908152602001600020805490500381101561166857600760008481526020019081526020016000206001820181548110151561157d57fe5b906000526020600020906004020160076000858152602001908152602001600020828154811015156115ab57fe5b90600052602060002090600402016000820160009054906101000a900460ff168160000160006101000a81548160ff021916908315150217905550600182015481600101556002820154816002015560038201548160030155905050600760008481526020019081526020016000206001820181548110151561162a57fe5b9060005260206000209060040201600080820160006101000a81549060ff021916905560018201600090556002820160009055600382016000905550505b5b80806001019150506114e1565b60098381548110151561168557fe5b90600052602060002090015460076000858152602001908152602001600020805490500360076000858152602001908152602001600020816116c791906119c3565b5060006009848154811015156116d957fe5b906000526020600020900181905550600191505b50919050565b600060076000858152602001908152602001600020805490508310151561171957600080fd5b60076000858152602001908152602001600020805490508210151561173d57600080fd5b600760008581526020019081526020016000208281548110151561175d57fe5b906000526020600020906004020160000160009054906101000a900460ff161515600760008681526020019081526020016000208481548110151561179e57fe5b906000526020600020906004020160000160009054906101000a900460ff161515141515156117cc57600080fd5b600060076000868152602001908152602001600020848154811015156117ee57fe5b9060005260206000209060040201600101541415151561180d57600080fd5b6000600760008681526020019081526020016000208381548110151561182f57fe5b9060005260206000209060040201600101541415151561184e57600080fd5b600190509392505050565b6000806005600101819055506001905090565b8154818355818115116118995760040281600402836000526020600020918201910161189891906119f5565b5b505050565b8154818355818115116118cb576003028160030283600052602060002091820191016118ca9190611a40565b5b505050565b828054600181600116156101000203166002900490600052602060002090601f016020900481019282601f1061191157805160ff191683800117855561193f565b8280016001018555821561193f579182015b8281111561193e578251825591602001919060010190611923565b5b50905061194c9190611aa6565b5090565b50805460018160011615610100020316600290046000825580601f106119765750611995565b601f0160209004906000526020600020908101906119949190611aa6565b5b50565b6080604051908101604052806000151581526020016000815260200160008152602001600081525090565b8154818355818115116119f0576004028160040283600052602060002091820191016119ef91906119f5565b5b505050565b611a3d91905b80821115611a3957600080820160006101000a81549060ff0219169055600182016000905560028201600090556003820160009055506004016119fb565b5090565b90565b611aa391905b80821115611a9f57600080820160006101000a81549073ffffffffffffffffffffffffffffffffffffffff0219169055600182016000611a869190611950565b600282016000611a969190611950565b50600301611a46565b5090565b90565b611ac891905b80821115611ac4576000816000905550600101611aac565b5090565b90565b6000856000800181905550846000600101819055508360006002018190555082600060030181905550816000600401819055506001905095945050505050565b600060019050905600a165627a7a723058204febe94854d386847c56487cd7408beeae89f9e2332c8f135ea77569ed332ed80029",
  "source": "pragma solidity ^0.4.18;\n\nimport 'zeppelin-solidity/contracts/math/SafeMath.sol';\nimport './ExchangeStructs.sol';\n/// @title Exchange\n/// @author Karim Helmy\n\n// Primary contract: Describes functions of exchange\ncontract Exchange is ExchangeStructs {\n  // TODO: Make all operations safe\n  using SafeMath for uint;\n\n  Parameters public params;\n  Balances public exBalances;\n\n  // separate chapters for different currency pairs\n  // that's why they're 2D mappings\n  mapping (uint => Order[]) public orderBook;\n  // Order[][] public orderBook;\n  mapping (uint => AddressInfo[]) private addressBook;\n  // AddressInfo[][] private addressBook;\n  // Numbers of orders that have been closed are kept here\n  uint[] numsCleared;\n\n  // Constructor for contract\n  function Exchange(uint closureFeePerUnit, uint cancelFeePerUnit,\n                    uint cleanSize, uint minerShare, uint distBalance)\n    public\n  {\n    // Initialize parameters books\n    setParams(closureFeePerUnit, cancelFeePerUnit,\n              cleanSize, minerShare, distBalance);\n    // Initialize order books\n    setBooks();\n    // Initialize numsCleared[0] as zero\n    numsCleared.push(0);\n    return;\n  }\n\n  // TODO: Implement\n  // Initializes orderBook and addressBook\n  // Only used in constructor\n  function setBooks()\n    private\n    // TODO: Make impure when finished\n    // pure to avoid warning, but in final version will not be\n    pure\n    returns(bool passes)\n  {\n    return true;\n  }\n  // Init the params struct, which contains the bulk of exchange's parameters\n  // Only used in constructor\n  function setParams(uint closureFeePerUnit, uint cancelFeePerUnit,\n                    uint cleanSize, uint minerShare, uint distBalance)\n    private\n    returns(bool passes)\n  {\n    params.closureFeePerUnit = closureFeePerUnit;\n    params.cancelFeePerUnit = cancelFeePerUnit;\n    params.cleanSize = cleanSize;\n    params.minerShare = minerShare;\n    params.distBalance = distBalance;\n    return true;\n  }\n\n  // Checks edge cases for match verification\n  function checkMatchEdges(uint chapter, uint index1, uint index2)\n    private\n    view\n    returns(bool passes)\n  {\n    // valid indices\n    require(index1 < orderBook[chapter].length);\n    require(index2 < orderBook[chapter].length);\n    //One buy order and one sell order\n    require(orderBook[chapter][index1].buyETH != orderBook[chapter][index2].buyETH);\n    //Non-empty order\n    require(orderBook[chapter][index1].volume != 0);\n    require(orderBook[chapter][index2].volume != 0);\n    // All edge cases work!\n    return true;\n  }\n\n  // verifies that match is valid\n  function calcRateAndVol(uint chapter, uint index1, uint index2)\n    private\n    view\n    returns (uint mimRate, uint ethVol)\n  {\n    // check edge cases\n    if (! checkMatchEdges(chapter, index1, index2)) {\n      return (0,0);\n    }\n    // which order is buying and selling ETH?\n    // buy-sell copy1\n    uint buyIndex;\n    uint sellIndex;\n    if (orderBook[chapter][index1].buyETH) {\n      buyIndex = index1;\n      sellIndex = index2;\n    } else{\n      buyIndex = index2;\n      sellIndex = index1;\n    }\n    // shorthand for buy and sell orders\n    Order memory buyOrder = orderBook[chapter][buyIndex];\n    Order memory sellOrder = orderBook[chapter][sellIndex];\n\n    // Non-contradictory limits\n    if (buyOrder.limit < sellOrder.limit) {\n      return (0, 0);\n    }\n    // Meet in middle rate\n    // mimRate\n    mimRate = (buyOrder.limit + sellOrder.limit) / 2;\n\n    // Volumes comparable\n    // TODO: DEBUGGING: verify that these are the correct equations\n    if (buyOrder.volume * PRECISION > sellOrder.volume * mimRate) {\n      if (buyOrder.minVolume * PRECISION > sellOrder.volume * mimRate) {\n        return (0, 0);\n      }\n      return (mimRate, sellOrder.volume * mimRate);\n    }\n    if (sellOrder.volume * mimRate > buyOrder.volume * PRECISION ) {\n      if (sellOrder.minVolume * mimRate > buyOrder.volume * PRECISION) {\n        return (0, 0);\n      }\n    }\n    return (mimRate, buyOrder.volume);\n  }\n\n  // Clears closed trade, reenters into order book if incomplete\n  function clearTrade(uint chapter, uint index1, uint index2,\n                      uint mimRate, uint ethVol)\n    private\n    returns(bool passed)\n  {\n    // which order is buying and selling ETH?\n    // buy-sell copy1\n    uint buyIndex;\n    uint sellIndex;\n    if (orderBook[chapter][index1].buyETH) {\n      buyIndex = index1;\n      sellIndex = index2;\n    } else{\n      buyIndex = index2;\n      sellIndex = index1;\n    }\n    if (orderBook[chapter][buyIndex].volume == ethVol) {\n      numsCleared[chapter] += 1;\n    }\n    if (orderBook[chapter][buyIndex].minVolume < ethVol) {\n      orderBook[chapter][buyIndex].minVolume = 0;\n    } else{\n      orderBook[chapter][buyIndex].minVolume -= ethVol;\n    }\n    orderBook[chapter][buyIndex].volume -= ethVol;\n    if (orderBook[chapter][sellIndex].volume == (ethVol * mimRate / PRECISION)) {\n      numsCleared[chapter] += 1;\n    }\n    if (orderBook[chapter][sellIndex].minVolume < (ethVol * mimRate / PRECISION)) {\n      orderBook[chapter][sellIndex].minVolume = 0;\n    } else{\n      orderBook[chapter][sellIndex].minVolume -= (ethVol * mimRate / PRECISION);\n    }\n    orderBook[chapter][sellIndex].volume -= ethVol * mimRate / PRECISION;\n    return true;\n  }\n\n  // Adds trade to log, for traders to note\n  // http://solidity.readthedocs.io/en/latest/contracts.html?highlight=events#events\n  function alertTraders(uint chapter, uint index1, uint index2, uint mimRate, uint ethVol)\n    private\n    returns(bool passed)\n  {\n    TradeInfo(\n      addressBook[chapter][index1].ethAddress, //ethAddress1,\n      addressBook[chapter][index2].ethAddress, //ethAddress2,\n      addressBook[chapter][index1].firstAddress, //firstAddress1,\n      addressBook[chapter][index2].firstAddress, //firstAddress2,\n      addressBook[chapter][index1].otherAddress, //otherAddress1,\n      addressBook[chapter][index2].otherAddress, // otherAddress2,\n      mimRate,\n      ethVol\n      );\n    return true;\n  }\n\n  // TODO: Implement\n  // Distributes dividends when balance is of sufficient size\n  function distDividends()\n    private\n    returns(bool passes)\n  {\n    exBalances.closedBalance = 0;\n    return true;\n  }\n\n  // Move balance from open to closed\n  // Eliminate minerPayment from either balance\n  function clearBalance(uint minerPayment, uint ethVol)\n    private\n    returns(bool passed)\n  {\n    exBalances.openBalance = (exBalances.openBalance -\n                                  (params.closureFeePerUnit * ethVol));\n    exBalances.closedBalance = (exBalances.closedBalance -\n                                  minerPayment +\n                                  (params.closureFeePerUnit * ethVol));\n    if (exBalances.closedBalance >= params.distBalance) {\n      distDividends();\n    }\n    return true;\n  }\n\n  // Clean chapter (called when size reaches size to clean)\n  function cleanChapter(uint chapter)\n    private\n    returns(bool cleaned)\n  {\n    // Clean chapter only if size is appropriate\n    if (numsCleared[chapter] < params.cleanSize) {\n      return false;\n    }\n    // For all orders\n    // If it's a cleared order:\n    // Replace it with the next one, and clear the next one\n    for (uint i = 0; i < orderBook[chapter].length; i++) {\n      if (orderBook[chapter][i].volume == 0) {\n        if (i < orderBook[chapter].length - 1) {\n          orderBook[chapter][i] = orderBook[chapter][i+1];\n          delete orderBook[chapter][i+1];\n        }\n      }\n    }\n    orderBook[chapter].length = orderBook[chapter].length - numsCleared[chapter];\n    numsCleared[chapter] = 0;\n    return true;\n  }\n\n  // Checks if POW (nonce) is valid\n  // Performs nonce verification (keccak256)\n  // Helper for giveMatch\n  function isValidPOW(address msgSender, uint chapter, uint index1,\n                      uint index2, bytes32 nonce, uint hashVal)\n    private\n    pure\n    returns(bool isValid)\n  {\n    if (nonce != keccak256(msgSender,\n                          chapter,\n                          index1,\n                          index2,\n                          hashVal)) {\n      return false;\n    }\n    return true;\n  }\n\n  // Miners suggest matches with this function\n  // Wrapper for calcRateAndVol and isValidPOW, performs other required functions\n  function giveMatch(uint chapter, uint index1, uint index2,\n                  bytes32 nonce, uint hashVal)\n    public\n    payable\n    returns(bool isValid)\n  {\n    // Validate that nonce is equivalent\n    // modulo so that cost is constant\n    // + 110 so that it's always 3 digits\n    // storing all values is impractical\n    // hashVal adds security if trade volume is small\n    // Helper for giveMatch\n    if (! isValidPOW(msg.sender, chapter, index1, index2, nonce, hashVal)) {\n      return false;\n    }\n    var (mimRate, ethVol) = calcRateAndVol(chapter, index1, index2);\n    if (ethVol == 0) {\n      return false;\n    }\n    // calculate the miner's payment\n    uint minerPayment = ((params.minerShare * params.closureFeePerUnit * ethVol) /\n                          PRECISION);\n    msg.sender.transfer(minerPayment);\n    clearBalance(minerPayment, ethVol);\n    alertTraders(chapter, index1, index2, mimRate, ethVol);\n    clearTrade(chapter, index1, index2, mimRate, ethVol);\n    cleanChapter(chapter);\n    return true;\n  }\n\n  // Allows traders to place orders\n  function placeOrder(bool buyETH, uint volume, uint minVolume, uint limit,\n                      address ethAddress, string firstAddress,\n                      string otherAddress, uint chapter)\n    public\n    payable\n    returns(bool accepted)\n  {\n    require(volume > 0);\n    require(minVolume > 0);\n    require(volume >= minVolume);\n    require(limit > 0);\n    // TODO: NEXT VERSION: Charge according to transaction vol for generic currencies\n    // Use market rate\n    if (buyETH) {\n      require(limit * msg.value >= volume * params.closureFeePerUnit);\n    } else{\n      require(msg.value >= volume * params.closureFeePerUnit);\n    }\n    orderBook[chapter].push(Order(buyETH, volume, minVolume, limit));\n    addressBook[chapter].push(AddressInfo(ethAddress, firstAddress, otherAddress));\n    return true;\n  }\n\n  // Allows traders to cancel orders\n  function cancelOrder(uint chapter, uint index)\n    public\n    returns(bool accepted)\n  {\n    require(index < orderBook[chapter].length);\n    // Can't cancel other people's orders\n    require(msg.sender == addressBook[chapter][index].ethAddress);\n    // uint volume = orderBook[chapter][index].volume;\n    uint limit = orderBook[chapter][index].limit;\n    uint volume = orderBook[chapter][index].volume;\n    // TODO: NEXT VERSION: Refund according to transaction vol for generic currencies\n    // Use market rate\n    // Refund according to ether transaction volume\n    if (orderBook[chapter][index].buyETH) {\n      msg.sender.transfer(volume * (params.closureFeePerUnit - params.cancelFeePerUnit) / limit);\n    } else{\n      msg.sender.transfer(volume * (params.closureFeePerUnit - params.cancelFeePerUnit) / limit);\n    }\n    delete orderBook[chapter][index];\n    delete addressBook[chapter][index];\n    numsCleared[chapter] += 1;\n    cleanChapter(chapter);\n    return true;\n  }\n}\n",
  "sourcePath": "/Users/Karim/Desktop/Valex/contracts/Exchange.sol",
  "compiler": {
    "name": "solc",
    "version": "0.4.18+commit.9cf6e910.Emscripten.clang"
  },
  "schemaVersion": "1.0.1",
  "updatedAt": "2018-01-23T19:21:15.139Z"
}