{
  "contractName": "Exchange",
  "abi": [
    {
      "constant": true,
      "inputs": [
        {
          "name": "",
          "type": "uint256"
        },
        {
          "name": "",
          "type": "uint256"
        }
      ],
      "name": "orderBook",
      "outputs": [
        {
          "name": "buyETH",
          "type": "bool"
        },
        {
          "name": "volume",
          "type": "uint256"
        },
        {
          "name": "minVolume",
          "type": "uint256"
        },
        {
          "name": "limit",
          "type": "uint256"
        }
      ],
      "payable": false,
      "stateMutability": "view",
      "type": "function"
    },
    {
      "constant": false,
      "inputs": [
        {
          "name": "buyETH",
          "type": "bool"
        },
        {
          "name": "volume",
          "type": "uint256"
        },
        {
          "name": "minVolume",
          "type": "uint256"
        },
        {
          "name": "limit",
          "type": "uint256"
        },
        {
          "name": "ethAddress",
          "type": "address"
        },
        {
          "name": "firstAddress",
          "type": "string"
        },
        {
          "name": "otherAddress",
          "type": "string"
        },
        {
          "name": "chapter",
          "type": "uint256"
        }
      ],
      "name": "placeOrder",
      "outputs": [
        {
          "name": "accepted",
          "type": "bool"
        }
      ],
      "payable": true,
      "stateMutability": "payable",
      "type": "function"
    },
    {
      "constant": true,
      "inputs": [],
      "name": "exBalances",
      "outputs": [
        {
          "name": "openBalance",
          "type": "uint256"
        },
        {
          "name": "closedBalance",
          "type": "uint256"
        }
      ],
      "payable": false,
      "stateMutability": "view",
      "type": "function"
    },
    {
      "constant": true,
      "inputs": [],
      "name": "PRECISION",
      "outputs": [
        {
          "name": "",
          "type": "uint256"
        }
      ],
      "payable": false,
      "stateMutability": "view",
      "type": "function"
    },
    {
      "constant": false,
      "inputs": [
        {
          "name": "chapter",
          "type": "uint256"
        },
        {
          "name": "index",
          "type": "uint256"
        }
      ],
      "name": "cancelOrder",
      "outputs": [
        {
          "name": "accepted",
          "type": "bool"
        }
      ],
      "payable": false,
      "stateMutability": "nonpayable",
      "type": "function"
    },
    {
      "constant": true,
      "inputs": [],
      "name": "params",
      "outputs": [
        {
          "name": "closureFee",
          "type": "uint256"
        },
        {
          "name": "cancelFee",
          "type": "uint256"
        },
        {
          "name": "cleanSize",
          "type": "uint256"
        },
        {
          "name": "minerShare",
          "type": "uint256"
        },
        {
          "name": "distBalance",
          "type": "uint256"
        },
        {
          "name": "difficulty",
          "type": "bytes32"
        }
      ],
      "payable": false,
      "stateMutability": "view",
      "type": "function"
    },
    {
      "constant": false,
      "inputs": [
        {
          "name": "depositAddress",
          "type": "address"
        },
        {
          "name": "chapter",
          "type": "uint256"
        },
        {
          "name": "index1",
          "type": "uint256"
        },
        {
          "name": "index2",
          "type": "uint256"
        },
        {
          "name": "nonce",
          "type": "uint256"
        }
      ],
      "name": "giveMatch",
      "outputs": [
        {
          "name": "isValid",
          "type": "bool"
        }
      ],
      "payable": true,
      "stateMutability": "payable",
      "type": "function"
    },
    {
      "constant": true,
      "inputs": [
        {
          "name": "",
          "type": "uint256"
        },
        {
          "name": "",
          "type": "uint256"
        }
      ],
      "name": "addressBook",
      "outputs": [
        {
          "name": "ethAddress",
          "type": "address"
        },
        {
          "name": "firstAddress",
          "type": "string"
        },
        {
          "name": "otherAddress",
          "type": "string"
        }
      ],
      "payable": false,
      "stateMutability": "view",
      "type": "function"
    },
    {
      "inputs": [
        {
          "name": "closureFee",
          "type": "uint256"
        },
        {
          "name": "cancelFee",
          "type": "uint256"
        },
        {
          "name": "cleanSize",
          "type": "uint256"
        },
        {
          "name": "minerShare",
          "type": "uint256"
        },
        {
          "name": "distBalance",
          "type": "uint256"
        },
        {
          "name": "difficulty",
          "type": "bytes32"
        }
      ],
      "payable": false,
      "stateMutability": "nonpayable",
      "type": "constructor"
    },
    {
      "anonymous": false,
      "inputs": [
        {
          "indexed": false,
          "name": "ethAddress1",
          "type": "address"
        },
        {
          "indexed": false,
          "name": "ethAddress2",
          "type": "address"
        },
        {
          "indexed": false,
          "name": "firstAddress1",
          "type": "string"
        },
        {
          "indexed": false,
          "name": "firstAddress2",
          "type": "string"
        },
        {
          "indexed": false,
          "name": "otherAddress1",
          "type": "string"
        },
        {
          "indexed": false,
          "name": "otherAddress2",
          "type": "string"
        },
        {
          "indexed": false,
          "name": "mimRate",
          "type": "uint256"
        },
        {
          "indexed": false,
          "name": "ethVol",
          "type": "uint256"
        }
      ],
      "name": "TradeInfo",
      "type": "event"
    }
  ],
  "bytecode": "0x6060604052670de0b6b3a764000060005534156200001c57600080fd5b60405160c0806200249c833981016040528080519060200190919080519060200190919080519060200190919080519060200190919080519060200190919080519060200190919050506200008a868686868686620000e06401000000000262001d21176401000000009004565b620000a8620001276401000000000262001d68176401000000009004565b50600b8054806001018281620000bf9190620002ec565b9160005260206000209001600080909190915055505050505050506200053b565b856001600001819055508460018001819055508360016002018190555082600160030181905550816001600401819055508060016005018160001916905550505050505050565b60006009600080815260200190815260200160002080548060010182816200015091906200031b565b9160005260206000209060040201600060806040519081016040528060001515815260200160008152602001600081526020016000815250909190915060008201518160000160006101000a81548160ff021916908315150217905550602082015181600101556040820151816002015560608201518160030155505050600a60008081526020019081526020016000208054806001018281620001f5919062000350565b91600052602060002090600302016000606060405190810160405280600073ffffffffffffffffffffffffffffffffffffffff168152602001602060405190810160405280600081525081526020016020604051908101604052806000815250815250909190915060008201518160000160006101000a81548173ffffffffffffffffffffffffffffffffffffffff021916908373ffffffffffffffffffffffffffffffffffffffff1602179055506020820151816001019080519060200190620002c292919062000385565b506040820151816002019080519060200190620002e192919062000385565b505050506001905090565b81548183558181151162000316578183600052602060002091820191016200031591906200040c565b5b505050565b8154818355818115116200034b576004028160040283600052602060002091820191016200034a919062000434565b5b505050565b81548183558181151162000380576003028160030283600052602060002091820191016200037f919062000482565b5b505050565b828054600181600116156101000203166002900490600052602060002090601f016020900481019282601f10620003c857805160ff1916838001178555620003f9565b82800160010185558215620003f9579182015b82811115620003f8578251825591602001919060010190620003db565b5b5090506200040891906200040c565b5090565b6200043191905b808211156200042d57600081600090555060010162000413565b5090565b90565b6200047f91905b808211156200047b57600080820160006101000a81549060ff0219169055600182016000905560028201600090556003820160009055506004016200043b565b5090565b90565b620004ec91905b80821115620004e857600080820160006101000a81549073ffffffffffffffffffffffffffffffffffffffff0219169055600182016000620004cc9190620004ef565b600282016000620004de9190620004ef565b5060030162000489565b5090565b90565b50805460018160011615610100020316600290046000825580601f1062000517575062000538565b601f0160209004906000526020600020908101906200053791906200040c565b5b50565b611f51806200054b6000396000f30060606040526004361061008e576000357c0100000000000000000000000000000000000000000000000000000000900463ffffffff16806314974f46146100935780634aed275c146100ec578063737f02af146101e7578063aaf5eb6814610217578063b6ed063214610240578063cff0ab9614610284578063d2426ab9146102d8578063da92b7c114610342575b600080fd5b341561009e57600080fd5b6100bd60048080359060200190919080359060200190919050506104c0565b604051808515151515815260200184815260200183815260200182815260200194505050505060405180910390f35b6101cd6004808035151590602001909190803590602001909190803590602001909190803590602001909190803573ffffffffffffffffffffffffffffffffffffffff1690602001909190803590602001908201803590602001908080601f0160208091040260200160405190810160405280939291908181526020018383808284378201915050505050509190803590602001908201803590602001908080601f01602080910402602001604051908101604052809392919081815260200183838082843782019150505050505091908035906020019091905050610519565b604051808215151515815260200191505060405180910390f35b34156101f257600080fd5b6101fa61076e565b604051808381526020018281526020019250505060405180910390f35b341561022257600080fd5b61022a610780565b6040518082815260200191505060405180910390f35b341561024b57600080fd5b61026a6004808035906020019091908035906020019091905050610786565b604051808215151515815260200191505060405180910390f35b341561028f57600080fd5b610297610ab0565b604051808781526020018681526020018581526020018481526020018381526020018260001916600019168152602001965050505050505060405180910390f35b610328600480803573ffffffffffffffffffffffffffffffffffffffff16906020019091908035906020019091908035906020019091908035906020019091908035906020019091905050610ada565b604051808215151515815260200191505060405180910390f35b341561034d57600080fd5b61036c6004808035906020019091908035906020019091905050610bba565b604051808473ffffffffffffffffffffffffffffffffffffffff1673ffffffffffffffffffffffffffffffffffffffff168152602001806020018060200183810383528581815460018160011615610100020316600290048152602001915080546001816001161561010002031660029004801561042b5780601f106104005761010080835404028352916020019161042b565b820191906000526020600020905b81548152906001019060200180831161040e57829003601f168201915b50508381038252848181546001816001161561010002031660029004815260200191508054600181600116156101000203166002900480156104ae5780601f10610483576101008083540402835291602001916104ae565b820191906000526020600020905b81548152906001019060200180831161049157829003601f168201915b50509550505050505060405180910390f35b6009602052816000526040600020818154811015156104db57fe5b9060005260206000209060040201600091509150508060000160009054906101000a900460ff16908060010154908060020154908060030154905084565b6000808811151561052957600080fd5b60008711151561053857600080fd5b86881015151561054757600080fd5b60008611151561055657600080fd5b881561058657600054600160000154890281151561057057fe5b043487021015151561058157600080fd5b6105aa565b600054600160000154890281151561059a57fe5b0434101515156105a957600080fd5b5b600060096000848152602001908152602001600020805490501115156105cf57600080fd5b6009600083815260200190815260200160002080548060010182816105f49190611ac2565b916000526020600020906004020160006080604051908101604052808d151581526020018c81526020018b81526020018a815250909190915060008201518160000160006101000a81548160ff021916908315150217905550602082015181600101556040820151816002015560608201518160030155505050600a600083815260200190815260200160002080548060010182816106939190611af4565b916000526020600020906003020160006060604051908101604052808973ffffffffffffffffffffffffffffffffffffffff16815260200188815260200187815250909190915060008201518160000160006101000a81548173ffffffffffffffffffffffffffffffffffffffff021916908373ffffffffffffffffffffffffffffffffffffffff160217905550602082015181600101908051906020019061073d929190611b26565b50604082015181600201908051906020019061075a929190611b26565b505050506001905098975050505050505050565b60078060000154908060010154905082565b60005481565b60008060006009600086815260200190815260200160002080549050841015156107af57600080fd5b600a6000868152602001908152602001600020848154811015156107cf57fe5b906000526020600020906003020160000160009054906101000a900473ffffffffffffffffffffffffffffffffffffffff1673ffffffffffffffffffffffffffffffffffffffff163373ffffffffffffffffffffffffffffffffffffffff1614151561083a57600080fd5b600960008681526020019081526020016000208481548110151561085a57fe5b9060005260206000209060040201600301549150600960008681526020019081526020016000208481548110151561088e57fe5b906000526020600020906004020160010154905060096000868152602001908152602001600020848154811015156108c257fe5b906000526020600020906004020160000160009054906101000a900460ff1615610943573373ffffffffffffffffffffffffffffffffffffffff166108fc83600180015460016000015403840281151561091857fe5b049081150290604051600060405180830381858888f19350505050151561093e57600080fd5b61099c565b3373ffffffffffffffffffffffffffffffffffffffff166108fc83600180015460016000015403840281151561097557fe5b049081150290604051600060405180830381858888f19350505050151561099b57600080fd5b5b60096000868152602001908152602001600020848154811015156109bc57fe5b9060005260206000209060040201600080820160006101000a81549060ff02191690556001820160009055600282016000905560038201600090555050600a600086815260200190815260200160002084815481101515610a1957fe5b9060005260206000209060030201600080820160006101000a81549073ffffffffffffffffffffffffffffffffffffffff0219169055600182016000610a5f9190611ba6565b600282016000610a6f9190611ba6565b50506001600b86815481101515610a8257fe5b906000526020600020900160008282540192505081905550610aa385610c1e565b5060019250505092915050565b60018060000154908060010154908060020154908060030154908060040154908060050154905086565b600080600080610aed8989898989610e68565b1515610afc5760009350610bae565b610b07888888610f06565b925092506000821415610b1d5760009350610bae565b600054826001600001546001600301540202811515610b3857fe5b0490508873ffffffffffffffffffffffffffffffffffffffff166108fc829081150290604051600060405180830381858888f193505050501515610b7b57600080fd5b610b85818361115f565b610b9288888886866111cb565b610b9f8888888686611603565b610ba888610c1e565b50600193505b50505095945050505050565b600a60205281600052604060002081815481101515610bd557fe5b9060005260206000209060030201600091509150508060000160009054906101000a900473ffffffffffffffffffffffffffffffffffffffff1690806001019080600201905083565b600080600160020154600b84815481101515610c3657fe5b9060005260206000209001541015610c515760009150610e62565b600190505b6009600084815260200190815260200160002080549050811015610deb5760006009600085815260200190815260200160002082815481101515610c9657fe5b9060005260206000209060040201600101541415610dde576001600960008581526020019081526020016000208054905003811015610ddd576009600084815260200190815260200160002060018201815481101515610cf257fe5b90600052602060002090600402016009600085815260200190815260200160002082815481101515610d2057fe5b90600052602060002090600402016000820160009054906101000a900460ff168160000160006101000a81548160ff0219169083151502179055506001820154816001015560028201548160020155600382015481600301559050506009600084815260200190815260200160002060018201815481101515610d9f57fe5b9060005260206000209060040201600080820160006101000a81549060ff021916905560018201600090556002820160009055600382016000905550505b5b8080600101915050610c56565b600b83815481101515610dfa57fe5b9060005260206000209001546009600085815260200190815260200160002080549050036009600085815260200190815260200160002081610e3c9190611bee565b506000600b84815481101515610e4e57fe5b906000526020600020900181905550600191505b50919050565b60008585858585604051808673ffffffffffffffffffffffffffffffffffffffff1673ffffffffffffffffffffffffffffffffffffffff166c0100000000000000000000000002815260140185815260200184815260200183815260200182815260200195505050505050604051809103902060001916600160050154600019161115610ef85760009050610efd565b600190505b95945050505050565b600080600080610f14611c20565b610f1c611c20565b610f2789898961194f565b1515610f3f5760008081915080905095509550611153565b600960008a815260200190815260200160002088815481101515610f5f57fe5b906000526020600020906004020160000160009054906101000a900460ff1615610f8e57879350869250610f95565b8693508792505b600960008a815260200190815260200160002084815481101515610fb557fe5b9060005260206000209060040201608060405190810160405290816000820160009054906101000a900460ff1615151515815260200160018201548152602001600282015481526020016003820154815250509150600960008a81526020019081526020016000208381548110151561102a57fe5b9060005260206000209060040201608060405190810160405290816000820160009054906101000a900460ff16151515158152602001600182015481526020016002820154815260200160038201548152505090508060600151826060015110156110a15760008081915080905095509550611153565b600281606001518360600151018115156110b757fe5b049550858160200151026000548360200151021115611109578581602001510260005483604001510211156110f85760008081915080905095509550611153565b858682602001510295509550611153565b600054826020015102868260200151021115611148576000548260200151028682604001510211156111475760008081915080905095509550611153565b5b858260200151955095505b50505050935093915050565b600054816001600001540281151561117357fe5b0460076000015403600760000181905550600054816001600001540281151561119857fe5b048260076001015403016007600101819055506001600401546007600101541015156111c7576111c6611ab5565b5b5050565b7f17fad608e647bf180e9f2d2542498a2ec81fb1cb077d60802b67b21d64adc9b8600a60008781526020019081526020016000208581548110151561120c57fe5b906000526020600020906003020160000160009054906101000a900473ffffffffffffffffffffffffffffffffffffffff16600a60008881526020019081526020016000208581548110151561125e57fe5b906000526020600020906003020160000160009054906101000a900473ffffffffffffffffffffffffffffffffffffffff16600a6000898152602001908152602001600020878154811015156112b057fe5b9060005260206000209060030201600101600a60008a8152602001908152602001600020878154811015156112e157fe5b9060005260206000209060030201600101600a60008b81526020019081526020016000208981548110151561131257fe5b9060005260206000209060030201600201600a60008c81526020019081526020016000208981548110151561134357fe5b90600052602060002090600302016002018888604051808973ffffffffffffffffffffffffffffffffffffffff1673ffffffffffffffffffffffffffffffffffffffff1681526020018873ffffffffffffffffffffffffffffffffffffffff1673ffffffffffffffffffffffffffffffffffffffff1681526020018060200180602001806020018060200187815260200186815260200185810385528b81815460018160011615610100020316600290048152602001915080546001816001161561010002031660029004801561145b5780601f106114305761010080835404028352916020019161145b565b820191906000526020600020905b81548152906001019060200180831161143e57829003601f168201915b505085810384528a8181546001816001161561010002031660029004815260200191508054600181600116156101000203166002900480156114de5780601f106114b3576101008083540402835291602001916114de565b820191906000526020600020905b8154815290600101906020018083116114c157829003601f168201915b50508581038352898181546001816001161561010002031660029004815260200191508054600181600116156101000203166002900480156115615780601f1061153657610100808354040283529160200191611561565b820191906000526020600020905b81548152906001019060200180831161154457829003601f168201915b50508581038252888181546001816001161561010002031660029004815260200191508054600181600116156101000203166002900480156115e45780601f106115b9576101008083540402835291602001916115e4565b820191906000526020600020905b8154815290600101906020018083116115c757829003601f168201915b50509c5050505050505050505050505060405180910390a15050505050565b600080600960008881526020019081526020016000208681548110151561162657fe5b906000526020600020906004020160000160009054906101000a900460ff16156116555785915084905061165c565b8491508590505b82600960008981526020019081526020016000208381548110151561167d57fe5b90600052602060002090600402016001015414156116bf576001600b888154811015156116a657fe5b9060005260206000209001600082825401925050819055505b8260096000898152602001908152602001600020838154811015156116e057fe5b9060005260206000209060040201600201541015611734576000600960008981526020019081526020016000208381548110151561171a57fe5b906000526020600020906004020160020181905550611774565b82600960008981526020019081526020016000208381548110151561175557fe5b9060005260206000209060040201600201600082825403925050819055505b82600960008981526020019081526020016000208381548110151561179557fe5b9060005260206000209060040201600101600082825403925050819055506000548484028115156117c257fe5b0460096000898152602001908152602001600020828154811015156117e357fe5b9060005260206000209060040201600101541415611825576001600b8881548110151561180c57fe5b9060005260206000209001600082825401925050819055505b60005484840281151561183457fe5b04600960008981526020019081526020016000208281548110151561185557fe5b90600052602060002090600402016002015410156118a9576000600960008981526020019081526020016000208281548110151561188f57fe5b9060005260206000209060040201600201819055506118f8565b6000548484028115156118b857fe5b0460096000898152602001908152602001600020828154811015156118d957fe5b9060005260206000209060040201600201600082825403925050819055505b60005484840281151561190757fe5b04600960008981526020019081526020016000208281548110151561192857fe5b90600052602060002090600402016001016000828254039250508190555050505050505050565b600060096000858152602001908152602001600020805490508310151561197557600080fd5b60096000858152602001908152602001600020805490508210151561199957600080fd5b60096000858152602001908152602001600020828154811015156119b957fe5b906000526020600020906004020160000160009054906101000a900460ff16151560096000868152602001908152602001600020848154811015156119fa57fe5b906000526020600020906004020160000160009054906101000a900460ff16151514151515611a2857600080fd5b60006009600086815260200190815260200160002084815481101515611a4a57fe5b90600052602060002090600402016001015414151515611a6957600080fd5b60006009600086815260200190815260200160002083815481101515611a8b57fe5b90600052602060002090600402016001015414151515611aaa57600080fd5b600190509392505050565b6000600760010181905550565b815481835581811511611aef57600402816004028360005260206000209182019101611aee9190611c4b565b5b505050565b815481835581811511611b2157600302816003028360005260206000209182019101611b209190611c96565b5b505050565b828054600181600116156101000203166002900490600052602060002090601f016020900481019282601f10611b6757805160ff1916838001178555611b95565b82800160010185558215611b95579182015b82811115611b94578251825591602001919060010190611b79565b5b509050611ba29190611cfc565b5090565b50805460018160011615610100020316600290046000825580601f10611bcc5750611beb565b601f016020900490600052602060002090810190611bea9190611cfc565b5b50565b815481835581811511611c1b57600402816004028360005260206000209182019101611c1a9190611c4b565b5b505050565b6080604051908101604052806000151581526020016000815260200160008152602001600081525090565b611c9391905b80821115611c8f57600080820160006101000a81549060ff021916905560018201600090556002820160009055600382016000905550600401611c51565b5090565b90565b611cf991905b80821115611cf557600080820160006101000a81549073ffffffffffffffffffffffffffffffffffffffff0219169055600182016000611cdc9190611ba6565b600282016000611cec9190611ba6565b50600301611c9c565b5090565b90565b611d1e91905b80821115611d1a576000816000905550600101611d02565b5090565b90565b856001600001819055508460018001819055508360016002018190555082600160030181905550816001600401819055508060016005018160001916905550505050505050565b6000600960008081526020019081526020016000208054806001018281611d8f9190611ac2565b9160005260206000209060040201600060806040519081016040528060001515815260200160008152602001600081526020016000815250909190915060008201518160000160006101000a81548160ff021916908315150217905550602082015181600101556040820151816002015560608201518160030155505050600a60008081526020019081526020016000208054806001018281611e329190611af4565b91600052602060002090600302016000606060405190810160405280600073ffffffffffffffffffffffffffffffffffffffff168152602001602060405190810160405280600081525081526020016020604051908101604052806000815250815250909190915060008201518160000160006101000a81548173ffffffffffffffffffffffffffffffffffffffff021916908373ffffffffffffffffffffffffffffffffffffffff1602179055506020820151816001019080519060200190611efd929190611b26565b506040820151816002019080519060200190611f1a929190611b26565b5050505060019050905600a165627a7a7230582033887ea42174fab912531580c87adb9c4930f69bedcf4bdf3725074fba19f2490029",
  "source": "pragma solidity ^0.4.18;\n\nimport 'zeppelin-solidity/contracts/math/SafeMath.sol';\nimport './ExchangeStructs.sol';\n/// @title Exchange\n/// @author Karim Helmy\n\n// Primary contract: Describes functions of exchange\ncontract Exchange is ExchangeStructs {\n  // TODO: Make all operations safe\n  using SafeMath for uint;\n\n  uint public PRECISION = 10 ** 18;\n\n  Parameters public params;\n  Balances public exBalances;\n\n  // separate chapters for different currency pairs\n  // that's why they're 2D mappings\n  mapping (uint => Order[]) public orderBook;\n  // Order[][] public orderBook;\n  mapping (uint => AddressInfo[]) public addressBook;\n  // AddressInfo[][] private addressBook;\n  // Numbers of orders that have been closed are kept here\n  uint[] numsCleared;\n\n  // Constructor for contract\n  function Exchange(uint closureFee, uint cancelFee,\n                    uint cleanSize, uint minerShare, uint distBalance,\n                    bytes32 difficulty)\n    public\n  {\n    // Initialize parameters books\n    setParams(closureFee, cancelFee,\n              cleanSize, minerShare, distBalance, difficulty);\n    // Initialize order books\n    setBooks();\n    // Initialize numsCleared[0] as zero\n    numsCleared.push(0);\n    return;\n  }\n\n  // Initializes orderBook and addressBook\n  // Only used in constructor\n  function setBooks()\n    private\n    returns(bool passes)\n  {\n    orderBook[0].push(Order(false,0,0,0));\n    addressBook[0].push(AddressInfo(address(0),\"\",\"\"));\n    return true;\n  }\n\n  // Init the params struct, which contains the bulk of exchange's parameters\n  // Only used in constructor\n  function setParams(uint closureFee, uint cancelFee,\n                    uint cleanSize, uint minerShare, uint distBalance,\n                    bytes32 difficulty)\n    internal\n  {\n    params.closureFee = closureFee;\n    params.cancelFee = cancelFee;\n    params.cleanSize = cleanSize;\n    params.minerShare = minerShare;\n    params.distBalance = distBalance;\n    params.difficulty = difficulty;\n  }\n\n  // Checks edge cases for match verification\n  function checkMatchEdges(uint chapter, uint index1, uint index2)\n    private\n    view\n    returns(bool passes)\n  {\n    // valid indices\n    require(index1 < orderBook[chapter].length);\n    require(index2 < orderBook[chapter].length);\n    //One buy order and one sell order\n    require(orderBook[chapter][index1].buyETH != orderBook[chapter][index2].buyETH);\n    //Non-empty order\n    require(orderBook[chapter][index1].volume != 0);\n    require(orderBook[chapter][index2].volume != 0);\n    // All edge cases work!\n    return true;\n  }\n\n  // verifies that match is valid\n  function calcRateAndVol(uint chapter, uint index1, uint index2)\n    private\n    view\n    returns (uint mimRate, uint ethVol)\n  {\n    // check edge cases\n    if (! checkMatchEdges(chapter, index1, index2)) {\n      return (0,0);\n    }\n    // which order is buying and selling ETH?\n    // buy-sell copy1\n    uint buyIndex;\n    uint sellIndex;\n    if (orderBook[chapter][index1].buyETH) {\n      buyIndex = index1;\n      sellIndex = index2;\n    } else{\n      buyIndex = index2;\n      sellIndex = index1;\n    }\n    // shorthand for buy and sell orders\n    Order memory buyOrder = orderBook[chapter][buyIndex];\n    Order memory sellOrder = orderBook[chapter][sellIndex];\n\n    // Non-contradictory limits\n    if (buyOrder.limit < sellOrder.limit) {\n      return (0, 0);\n    }\n    // Meet in middle rate\n    // mimRate\n    mimRate = (buyOrder.limit + sellOrder.limit) / 2;\n    // Volumes comparable\n    if (buyOrder.volume * PRECISION > sellOrder.volume * mimRate) {\n      if (buyOrder.minVolume * PRECISION > sellOrder.volume * mimRate) {\n        return (0, 0);\n      }\n      return (mimRate, sellOrder.volume * mimRate);\n    }\n    if (sellOrder.volume * mimRate > buyOrder.volume * PRECISION ) {\n      if (sellOrder.minVolume * mimRate > buyOrder.volume * PRECISION) {\n        return (0, 0);\n      }\n    }\n    return (mimRate, buyOrder.volume);\n  }\n\n  // Clears closed trade, reenters into order book if incomplete\n  function clearTrade(uint chapter, uint index1, uint index2,\n                      uint mimRate, uint ethVol)\n    private\n  {\n    // which order is buying and selling ETH?\n    // buy-sell copy1\n    uint buyIndex;\n    uint sellIndex;\n    if (orderBook[chapter][index1].buyETH) {\n      buyIndex = index1;\n      sellIndex = index2;\n    } else{\n      buyIndex = index2;\n      sellIndex = index1;\n    }\n    if (orderBook[chapter][buyIndex].volume == ethVol) {\n      numsCleared[chapter] += 1;\n    }\n    if (orderBook[chapter][buyIndex].minVolume < ethVol) {\n      orderBook[chapter][buyIndex].minVolume = 0;\n    } else{\n      orderBook[chapter][buyIndex].minVolume -= ethVol;\n    }\n    orderBook[chapter][buyIndex].volume -= ethVol;\n    if (orderBook[chapter][sellIndex].volume == (ethVol * mimRate / PRECISION)) {\n      numsCleared[chapter] += 1;\n    }\n    if (orderBook[chapter][sellIndex].minVolume < (ethVol * mimRate / PRECISION)) {\n      orderBook[chapter][sellIndex].minVolume = 0;\n    } else{\n      orderBook[chapter][sellIndex].minVolume -= (ethVol * mimRate / PRECISION);\n    }\n    orderBook[chapter][sellIndex].volume -= ethVol * mimRate / PRECISION;\n  }\n\n  // Adds trade to log, for traders to note\n  // http://solidity.readthedocs.io/en/latest/contracts.html?highlight=events#events\n  function alertTraders(uint chapter, uint index1, uint index2, uint mimRate, uint ethVol)\n    private\n  {\n    TradeInfo(\n      addressBook[chapter][index1].ethAddress, //ethAddress1,\n      addressBook[chapter][index2].ethAddress, //ethAddress2,\n      addressBook[chapter][index1].firstAddress, //firstAddress1,\n      addressBook[chapter][index2].firstAddress, //firstAddress2,\n      addressBook[chapter][index1].otherAddress, //otherAddress1,\n      addressBook[chapter][index2].otherAddress, // otherAddress2,\n      mimRate,\n      ethVol\n      );\n  }\n\n  // Clears exBalances.closedBalance\n  // ValexToken ovverride distributes dividends when balance is of sufficient size\n  // TODO: Make dividends distributed by time, not quantity\n  // TODO: Add forced dividend distribution\n  function distDividends()\n    internal\n  {\n    exBalances.closedBalance = 0;\n  }\n\n  // Move balance from open to closed\n  // Eliminate minerPayment from either balance\n  function clearBalance(uint minerPayment, uint ethVol)\n    private\n  {\n    exBalances.openBalance = (exBalances.openBalance -\n                                  (params.closureFee * ethVol / PRECISION));\n    exBalances.closedBalance = (exBalances.closedBalance -\n                                  minerPayment +\n                                  (params.closureFee * ethVol / PRECISION));\n    if (exBalances.closedBalance >= params.distBalance) {\n      distDividends();\n    }\n  }\n\n  // Clean chapter (called when size reaches size to clean)\n  function cleanChapter(uint chapter)\n    private\n    returns(bool cleaned)\n  {\n    // Clean chapter only if size is appropriate\n    if (numsCleared[chapter] < params.cleanSize) {\n      return false;\n    }\n    // For all orders\n    // If it's a cleared order:\n    // Replace it with the next one, and clear the next one\n    for (uint i = 1; i < orderBook[chapter].length; i++) {\n      if (orderBook[chapter][i].volume == 0) {\n        if (i < orderBook[chapter].length - 1) {\n          orderBook[chapter][i] = orderBook[chapter][i+1];\n          delete orderBook[chapter][i+1];\n        }\n      }\n    }\n    orderBook[chapter].length = orderBook[chapter].length - numsCleared[chapter];\n    numsCleared[chapter] = 0;\n    return true;\n  }\n\n  // Checks if POW (nonce) is valid\n  // Performs nonce verification (keccak256)\n  // Helper for giveMatch\n  function isValidPOW(address depositAddress, uint chapter, uint index1,\n                      uint index2, uint nonce)\n    private\n    view\n    returns(bool isValid)\n  {\n    if (params.difficulty > keccak256(depositAddress, chapter, index1, index2, nonce)) {\n      return false;\n    }\n    return true;\n  }\n\n  // Miners suggest matches with this function\n  // Wrapper for calcRateAndVol and isValidPOW, performs other required functions\n  function giveMatch(address depositAddress, uint chapter,\n                    uint index1, uint index2, uint nonce)\n    public\n    payable\n    returns(bool isValid)\n  {\n    // Validate that nonce is equivalent\n    // postImage adds entropy if trade volume is small\n    // Helper for giveMatch\n    if (! isValidPOW(depositAddress, chapter, index1, index2, nonce)) {\n      return false;\n    }\n    var (mimRate, ethVol) = calcRateAndVol(chapter, index1, index2);\n    if (ethVol == 0) {\n      return false;\n    }\n    // calculate the miner's payment\n    uint minerPayment = ((params.minerShare * params.closureFee * ethVol) /\n                          PRECISION);\n    depositAddress.transfer(minerPayment);\n    clearBalance(minerPayment, ethVol);\n    alertTraders(chapter, index1, index2, mimRate, ethVol);\n    clearTrade(chapter, index1, index2, mimRate, ethVol);\n    cleanChapter(chapter);\n    return true;\n  }\n\n  // Allows traders to place orders\n  function placeOrder(bool buyETH, uint volume, uint minVolume, uint limit,\n                      address ethAddress, string firstAddress,\n                      string otherAddress, uint chapter)\n    public\n    payable\n    returns(bool accepted)\n  {\n    require(volume > 0);\n    require(minVolume > 0);\n    require(volume >= minVolume);\n    require(limit > 0);\n    // TODO: NEXT VERSION: Charge according to transaction vol for generic currencies\n    // Use market rate\n    if (buyETH) {\n      require(limit * msg.value >= volume * params.closureFee / PRECISION);\n    } else{\n      require(msg.value >= volume * params.closureFee / PRECISION);\n    }\n    require(orderBook[chapter].length > 0);\n    orderBook[chapter].push(Order(buyETH, volume, minVolume, limit));\n    addressBook[chapter].push(AddressInfo(ethAddress, firstAddress, otherAddress));\n    return true;\n  }\n\n  // Allows traders to cancel orders\n  function cancelOrder(uint chapter, uint index)\n    public\n    returns(bool accepted)\n  {\n    require(index < orderBook[chapter].length);\n    // Can't cancel other people's orders\n    require(msg.sender == addressBook[chapter][index].ethAddress);\n    // uint volume = orderBook[chapter][index].volume;\n    uint limit = orderBook[chapter][index].limit;\n    uint volume = orderBook[chapter][index].volume;\n    // TODO: NEXT VERSION: Refund according to transaction vol for generic currencies\n    // Use market rate\n    // Refund according to ether transaction volume\n    if (orderBook[chapter][index].buyETH) {\n      msg.sender.transfer(volume * (params.closureFee - params.cancelFee) / limit);\n    } else{\n      msg.sender.transfer(volume * (params.closureFee - params.cancelFee) / limit);\n    }\n    delete orderBook[chapter][index];\n    delete addressBook[chapter][index];\n    numsCleared[chapter] += 1;\n    cleanChapter(chapter);\n    return true;\n  }\n}\n",
  "sourcePath": "/Users/Karim/Desktop/Valex/contracts/Exchange.sol",
  "compiler": {
    "name": "solc",
    "version": "0.4.18+commit.9cf6e910.Emscripten.clang"
  },
  "schemaVersion": "1.0.1",
  "updatedAt": "2018-02-16T04:04:06.713Z"
}