{
  "contractName": "Exchange",
  "abi": [
    {
      "constant": true,
      "inputs": [
        {
          "name": "chapter",
          "type": "uint256"
        }
      ],
      "name": "getSecondAddressChapter",
      "outputs": [
        {
          "name": "secondAddressChapter",
          "type": "bytes32[]"
        }
      ],
      "payable": false,
      "stateMutability": "view",
      "type": "function"
    },
    {
      "constant": false,
      "inputs": [
        {
          "name": "newAddress",
          "type": "address"
        }
      ],
      "name": "addToMinerWhitelist",
      "outputs": [],
      "payable": false,
      "stateMutability": "nonpayable",
      "type": "function"
    },
    {
      "constant": true,
      "inputs": [
        {
          "name": "",
          "type": "uint256"
        },
        {
          "name": "",
          "type": "uint256"
        }
      ],
      "name": "firstAddressBook",
      "outputs": [
        {
          "name": "",
          "type": "bytes32"
        }
      ],
      "payable": false,
      "stateMutability": "view",
      "type": "function"
    },
    {
      "constant": false,
      "inputs": [
        {
          "name": "buyAlpha",
          "type": "bool"
        },
        {
          "name": "volume",
          "type": "uint256"
        },
        {
          "name": "ethAddress",
          "type": "address"
        },
        {
          "name": "firstAddress",
          "type": "bytes32"
        },
        {
          "name": "otherAddress",
          "type": "bytes32"
        },
        {
          "name": "chapter",
          "type": "uint256"
        },
        {
          "name": "index1",
          "type": "uint256"
        },
        {
          "name": "nonce",
          "type": "uint256"
        }
      ],
      "name": "placeTakeOrder",
      "outputs": [
        {
          "name": "accepted",
          "type": "bool"
        }
      ],
      "payable": true,
      "stateMutability": "payable",
      "type": "function"
    },
    {
      "constant": true,
      "inputs": [
        {
          "name": "",
          "type": "uint256"
        },
        {
          "name": "",
          "type": "uint256"
        }
      ],
      "name": "buyBook",
      "outputs": [
        {
          "name": "",
          "type": "bool"
        }
      ],
      "payable": false,
      "stateMutability": "view",
      "type": "function"
    },
    {
      "constant": true,
      "inputs": [
        {
          "name": "chapter",
          "type": "uint256"
        }
      ],
      "name": "getOrderChapter",
      "outputs": [
        {
          "name": "buyChapter",
          "type": "bool[]"
        },
        {
          "name": "volChapter",
          "type": "uint256[]"
        },
        {
          "name": "minVolChapter",
          "type": "uint256[]"
        },
        {
          "name": "limitChapter",
          "type": "uint256[]"
        }
      ],
      "payable": false,
      "stateMutability": "view",
      "type": "function"
    },
    {
      "constant": false,
      "inputs": [
        {
          "name": "newAddress",
          "type": "address"
        }
      ],
      "name": "addToTraderWhitelist",
      "outputs": [],
      "payable": false,
      "stateMutability": "nonpayable",
      "type": "function"
    },
    {
      "constant": true,
      "inputs": [
        {
          "name": "",
          "type": "uint256"
        },
        {
          "name": "",
          "type": "uint256"
        }
      ],
      "name": "ethAddressBook",
      "outputs": [
        {
          "name": "",
          "type": "address"
        }
      ],
      "payable": false,
      "stateMutability": "view",
      "type": "function"
    },
    {
      "constant": false,
      "inputs": [
        {
          "name": "buyAlpha",
          "type": "bool"
        },
        {
          "name": "volume",
          "type": "uint256"
        },
        {
          "name": "minVolume",
          "type": "uint256"
        },
        {
          "name": "limit",
          "type": "uint256"
        },
        {
          "name": "ethAddress",
          "type": "address"
        },
        {
          "name": "firstAddress",
          "type": "bytes32"
        },
        {
          "name": "otherAddress",
          "type": "bytes32"
        },
        {
          "name": "chapter",
          "type": "uint256"
        }
      ],
      "name": "placeOrder",
      "outputs": [
        {
          "name": "accepted",
          "type": "bool"
        }
      ],
      "payable": true,
      "stateMutability": "payable",
      "type": "function"
    },
    {
      "constant": true,
      "inputs": [
        {
          "name": "",
          "type": "uint256"
        },
        {
          "name": "",
          "type": "uint256"
        }
      ],
      "name": "limitBook",
      "outputs": [
        {
          "name": "",
          "type": "uint256"
        }
      ],
      "payable": false,
      "stateMutability": "view",
      "type": "function"
    },
    {
      "constant": true,
      "inputs": [],
      "name": "owner",
      "outputs": [
        {
          "name": "",
          "type": "address"
        }
      ],
      "payable": false,
      "stateMutability": "view",
      "type": "function"
    },
    {
      "constant": true,
      "inputs": [
        {
          "name": "chapter",
          "type": "uint256"
        },
        {
          "name": "index1",
          "type": "uint256"
        },
        {
          "name": "index2",
          "type": "uint256"
        }
      ],
      "name": "calcRateAndVol",
      "outputs": [
        {
          "name": "mimRate",
          "type": "uint256"
        },
        {
          "name": "alphaVol",
          "type": "uint256"
        }
      ],
      "payable": false,
      "stateMutability": "view",
      "type": "function"
    },
    {
      "constant": true,
      "inputs": [],
      "name": "openBalance",
      "outputs": [
        {
          "name": "",
          "type": "uint256"
        }
      ],
      "payable": false,
      "stateMutability": "view",
      "type": "function"
    },
    {
      "constant": true,
      "inputs": [
        {
          "name": "",
          "type": "uint256"
        },
        {
          "name": "",
          "type": "uint256"
        }
      ],
      "name": "minVolBook",
      "outputs": [
        {
          "name": "",
          "type": "uint256"
        }
      ],
      "payable": false,
      "stateMutability": "view",
      "type": "function"
    },
    {
      "constant": false,
      "inputs": [
        {
          "name": "_newOwner",
          "type": "address"
        }
      ],
      "name": "changeOwner",
      "outputs": [],
      "payable": false,
      "stateMutability": "nonpayable",
      "type": "function"
    },
    {
      "constant": true,
      "inputs": [],
      "name": "PRECISION",
      "outputs": [
        {
          "name": "",
          "type": "uint256"
        }
      ],
      "payable": false,
      "stateMutability": "view",
      "type": "function"
    },
    {
      "constant": false,
      "inputs": [
        {
          "name": "chapter",
          "type": "uint256"
        },
        {
          "name": "index",
          "type": "uint256"
        }
      ],
      "name": "cancelOrder",
      "outputs": [
        {
          "name": "accepted",
          "type": "bool"
        }
      ],
      "payable": false,
      "stateMutability": "nonpayable",
      "type": "function"
    },
    {
      "constant": true,
      "inputs": [
        {
          "name": "",
          "type": "uint256"
        },
        {
          "name": "",
          "type": "uint256"
        }
      ],
      "name": "secondAddressBook",
      "outputs": [
        {
          "name": "",
          "type": "bytes32"
        }
      ],
      "payable": false,
      "stateMutability": "view",
      "type": "function"
    },
    {
      "constant": true,
      "inputs": [],
      "name": "params",
      "outputs": [
        {
          "name": "cleanSize",
          "type": "uint256"
        },
        {
          "name": "minerShare",
          "type": "uint256"
        },
        {
          "name": "difficulty",
          "type": "bytes32"
        },
        {
          "name": "traderKYC",
          "type": "bool"
        },
        {
          "name": "minerKYC",
          "type": "bool"
        }
      ],
      "payable": false,
      "stateMutability": "view",
      "type": "function"
    },
    {
      "constant": false,
      "inputs": [
        {
          "name": "depositAddress",
          "type": "address"
        },
        {
          "name": "chapter",
          "type": "uint256"
        },
        {
          "name": "index1",
          "type": "uint256"
        },
        {
          "name": "index2",
          "type": "uint256"
        },
        {
          "name": "nonce",
          "type": "uint256"
        }
      ],
      "name": "giveMatch",
      "outputs": [
        {
          "name": "isValid",
          "type": "bool"
        }
      ],
      "payable": false,
      "stateMutability": "nonpayable",
      "type": "function"
    },
    {
      "constant": false,
      "inputs": [
        {
          "name": "chapter",
          "type": "uint256"
        },
        {
          "name": "closureFeeBuy",
          "type": "uint256"
        },
        {
          "name": "closureFeeSell",
          "type": "uint256"
        },
        {
          "name": "cancelFeeBuy",
          "type": "uint256"
        },
        {
          "name": "cancelFeeSell",
          "type": "uint256"
        }
      ],
      "name": "addChapter",
      "outputs": [],
      "payable": false,
      "stateMutability": "nonpayable",
      "type": "function"
    },
    {
      "constant": true,
      "inputs": [
        {
          "name": "chapter",
          "type": "uint256"
        }
      ],
      "name": "getETHAddressChapter",
      "outputs": [
        {
          "name": "ethAddressChapter",
          "type": "address[]"
        }
      ],
      "payable": false,
      "stateMutability": "view",
      "type": "function"
    },
    {
      "constant": true,
      "inputs": [
        {
          "name": "",
          "type": "uint256"
        },
        {
          "name": "",
          "type": "uint256"
        }
      ],
      "name": "volBook",
      "outputs": [
        {
          "name": "",
          "type": "uint256"
        }
      ],
      "payable": false,
      "stateMutability": "view",
      "type": "function"
    },
    {
      "constant": true,
      "inputs": [
        {
          "name": "chapter",
          "type": "uint256"
        }
      ],
      "name": "getFirstAddressChapter",
      "outputs": [
        {
          "name": "firstAddressChapter",
          "type": "bytes32[]"
        }
      ],
      "payable": false,
      "stateMutability": "view",
      "type": "function"
    },
    {
      "inputs": [
        {
          "name": "closureFeeBuy0",
          "type": "uint256"
        },
        {
          "name": "closureFeeSell0",
          "type": "uint256"
        },
        {
          "name": "cancelFeeBuy0",
          "type": "uint256"
        },
        {
          "name": "cancelFeeSell0",
          "type": "uint256"
        },
        {
          "name": "cleanSize",
          "type": "uint256"
        },
        {
          "name": "minerShare",
          "type": "uint256"
        },
        {
          "name": "difficulty",
          "type": "bytes32"
        },
        {
          "name": "minerKYC",
          "type": "bool"
        },
        {
          "name": "traderKYC",
          "type": "bool"
        }
      ],
      "payable": false,
      "stateMutability": "nonpayable",
      "type": "constructor"
    }
  ],
  "bytecode": "0x6060604052336000806101000a81548173ffffffffffffffffffffffffffffffffffffffff021916908373ffffffffffffffffffffffffffffffffffffffff160217905550670de0b6b3a7640000600155600060025534156200006157600080fd5b6040516101208062004b8c83398101604052808051906020019091908051906020019091908051906020019091908051906020019091908051906020019091908051906020019091908051906020019091908051906020019091908051906020019091905050620000ea85858585856200011d640100000000026200424f176401000000009004565b6200010e60008a8a8a8a6200017e6401000000000262001e79176401000000009004565b505050505050505050620005e9565b84600360000181905550836003600101819055508260036002018160001916905550816003800160016101000a81548160ff021916908315150217905550806003800160006101000a81548160ff0219169083151502179055505050505050565b6000809054906101000a900473ffffffffffffffffffffffffffffffffffffffff168073ffffffffffffffffffffffffffffffffffffffff163373ffffffffffffffffffffffffffffffffffffffff16141515620001db57600080fd5b600760008781526020019081526020016000208054806001018281620002029190620004cf565b91600052602060002090602091828204019190066000909190916101000a81548160ff021916908315150217905550506008600087815260200190815260200160002080548060010182816200025991906200050c565b9160005260206000209001600080909190915055506009600087815260200190815260200160002080548060010182816200029591906200050c565b916000526020600020900160008090919091505550600a60008781526020019081526020016000208054806001018281620002d191906200050c565b916000526020600020900160008090919091505550600b600087815260200190815260200160002080548060010182816200030d91906200053b565b9160005260206000209001600080909190916101000a81548173ffffffffffffffffffffffffffffffffffffffff021916908373ffffffffffffffffffffffffffffffffffffffff16021790555050600c600087815260200190815260200160002080548060010182816200038391906200056a565b916000526020600020900160008060010290919091509060001916905550600d60008781526020019081526020016000208054806001018281620003c891906200056a565b91600052602060002090016000806001029091909150906000191690555060128054806001018281620003fc91906200050c565b91600052602060002090016000809091909150555084600e6000888152602001908152602001600020600060011515151581526020019081526020016000208190555083600e60008881526020019081526020016000206000801515151581526020019081526020016000208190555082600f6000888152602001908152602001600020600060011515151581526020019081526020016000208190555081600f600088815260200190815260200160002060008015151515815260200190815260200160002081905550505050505050565b8154818355818115116200050757601f016020900481601f0160209004836000526020600020918201910162000506919062000599565b5b505050565b815481835581811511620005365781836000526020600020918201910162000535919062000599565b5b505050565b815481835581811511620005655781836000526020600020918201910162000564919062000599565b5b505050565b8154818355818115116200059457818360005260206000209182019101620005939190620005c1565b5b505050565b620005be91905b80821115620005ba576000816000905550600101620005a0565b5090565b90565b620005e691905b80821115620005e2576000816000905550600101620005c8565b5090565b90565b61459380620005f96000396000f30060606040526004361061013e576000357c0100000000000000000000000000000000000000000000000000000000900463ffffffff168063145404fc1461014357806316004545146101bb578063217c9273146101f4578063239032a81461023c5780633af8c2d5146102cb5780633b6a08001461030f5780633f8359691461045f57806353c1d882146104985780637851b31c146105045780638139cbc6146105935780638da5cb5b146105d35780638eae03d2146106285780639138ec3a146106785780639febbcfa146106a1578063a6f9dae1146106e1578063aaf5eb681461071a578063b6ed063214610743578063c74060fb14610787578063cff0ab96146107cf578063d2426ab914610824578063d7cefcda14610899578063e0cfdce0146108e0578063e0f1f59f14610958578063ee4b94bb14610998575b600080fd5b341561014e57600080fd5b6101646004808035906020019091905050610a10565b6040518080602001828103825283818151815260200191508051906020019060200280838360005b838110156101a757808201518184015260208101905061018c565b505050509050019250505060405180910390f35b34156101c657600080fd5b6101f2600480803573ffffffffffffffffffffffffffffffffffffffff16906020019091905050610a85565b005b34156101ff57600080fd5b61021e6004808035906020019091908035906020019091905050610b3d565b60405180826000191660001916815260200191505060405180910390f35b6102b16004808035151590602001909190803590602001909190803573ffffffffffffffffffffffffffffffffffffffff169060200190919080356000191690602001909190803560001916906020019091908035906020019091908035906020019091908035906020019091905050610b6e565b604051808215151515815260200191505060405180910390f35b34156102d657600080fd5b6102f56004808035906020019091908035906020019091905050610de2565b604051808215151515815260200191505060405180910390f35b341561031a57600080fd5b6103306004808035906020019091905050610e24565b6040518080602001806020018060200180602001858103855289818151815260200191508051906020019060200280838360005b8381101561037f578082015181840152602081019050610364565b50505050905001858103845288818151815260200191508051906020019060200280838360005b838110156103c15780820151818401526020810190506103a6565b50505050905001858103835287818151815260200191508051906020019060200280838360005b838110156104035780820151818401526020810190506103e8565b50505050905001858103825286818151815260200191508051906020019060200280838360005b8381101561044557808201518184015260208101905061042a565b505050509050019850505050505050505060405180910390f35b341561046a57600080fd5b610496600480803573ffffffffffffffffffffffffffffffffffffffff1690602001909190505061100c565b005b34156104a357600080fd5b6104c260048080359060200190919080359060200190919050506110c4565b604051808273ffffffffffffffffffffffffffffffffffffffff1673ffffffffffffffffffffffffffffffffffffffff16815260200191505060405180910390f35b6105796004808035151590602001909190803590602001909190803590602001909190803590602001909190803573ffffffffffffffffffffffffffffffffffffffff169060200190919080356000191690602001909190803560001916906020019091908035906020019091905050611112565b604051808215151515815260200191505060405180910390f35b341561059e57600080fd5b6105bd6004808035906020019091908035906020019091905050611407565b6040518082815260200191505060405180910390f35b34156105de57600080fd5b6105e6611438565b604051808273ffffffffffffffffffffffffffffffffffffffff1673ffffffffffffffffffffffffffffffffffffffff16815260200191505060405180910390f35b341561063357600080fd5b61065b600480803590602001909190803590602001909190803590602001909190505061145d565b604051808381526020018281526020019250505060405180910390f35b341561068357600080fd5b61068b61171d565b6040518082815260200191505060405180910390f35b34156106ac57600080fd5b6106cb6004808035906020019091908035906020019091905050611723565b6040518082815260200191505060405180910390f35b34156106ec57600080fd5b610718600480803573ffffffffffffffffffffffffffffffffffffffff16906020019091905050611754565b005b341561072557600080fd5b61072d6117f4565b6040518082815260200191505060405180910390f35b341561074e57600080fd5b61076d60048080359060200190919080359060200190919050506117fa565b604051808215151515815260200191505060405180910390f35b341561079257600080fd5b6107b16004808035906020019091908035906020019091905050611c8b565b60405180826000191660001916815260200191505060405180910390f35b34156107da57600080fd5b6107e2611cbc565b60405180868152602001858152602001846000191660001916815260200183151515158152602001821515151581526020019550505050505060405180910390f35b341561082f57600080fd5b61087f600480803573ffffffffffffffffffffffffffffffffffffffff16906020019091908035906020019091908035906020019091908035906020019091908035906020019091905050611cfa565b604051808215151515815260200191505060405180910390f35b34156108a457600080fd5b6108de6004808035906020019091908035906020019091908035906020019091908035906020019091908035906020019091905050611e79565b005b34156108eb57600080fd5b61090160048080359060200190919050506121b9565b6040518080602001828103825283818151815260200191508051906020019060200280838360005b83811015610944578082015181840152602081019050610929565b505050509050019250505060405180910390f35b341561096357600080fd5b6109826004808035906020019091908035906020019091905050612260565b6040518082815260200191505060405180910390f35b34156109a357600080fd5b6109b96004808035906020019091905050612291565b6040518080602001828103825283818151815260200191508051906020019060200280838360005b838110156109fc5780820151818401526020810190506109e1565b505050509050019250505060405180910390f35b610a18613ffe565b600d6000838152602001908152602001600020805480602002602001604051908101604052809291908181526020018280548015610a7957602002820191906000526020600020905b81546000191681526020019060010190808311610a61575b50505050509050919050565b6000809054906101000a900473ffffffffffffffffffffffffffffffffffffffff168073ffffffffffffffffffffffffffffffffffffffff163373ffffffffffffffffffffffffffffffffffffffff16141515610ae157600080fd5b6001601060008473ffffffffffffffffffffffffffffffffffffffff1673ffffffffffffffffffffffffffffffffffffffff16815260200190815260200160002060006101000a81548160ff0219169083151502179055505050565b600c60205281600052604060002081815481101515610b5857fe5b9060005260206000209001600091509150505481565b60008033601160003373ffffffffffffffffffffffffffffffffffffffff1673ffffffffffffffffffffffffffffffffffffffff16815260200190815260200160002060009054906101000a900460ff1680610bd957506003800160009054906101000a900460ff16155b1515610be457600080fd5b600760008781526020019081526020016000208054905085101515610c0857600080fd5b6007600087815260200190815260200160002085815481101515610c2857fe5b90600052602060002090602091828204019190069054906101000a900460ff1615158b151514151515610c5a57600080fd5b60006008600088815260200190815260200160002086815481101515610c7c57fe5b90600052602060002090015414151515610c9557600080fd5b60008a111515610ca457600080fd5b610cb2898760008888612306565b1515610cbd57600080fd5b610cf58b348c600a60008b815260200190815260200160002089815481101515610ce357fe5b9060005260206000209001548a6123a4565b1515610d0057600080fd5b8a15610d1b57610d148a8a8a8a8a8a6125cc565b9150610d2c565b610d298a8a8a8a8a8a612a18565b91505b610d8d82600a600089815260200190815260200160002087815481101515610d5057fe5b906000526020600020900154600a60008a815260200190815260200160002088815481101515610d7c57fe5b906000526020600020900154612e2a565b610dc68686600a60008a815260200190815260200160002088815481101515610db257fe5b906000526020600020900154858f15612ec4565b610dcf86613185565b5060019250505098975050505050505050565b600760205281600052604060002081815481101515610dfd57fe5b9060005260206000209060209182820401919006915091509054906101000a900460ff1681565b610e2c614012565b610e34614026565b610e3c614026565b610e44614026565b600760008681526020019081526020016000206008600087815260200190815260200160002060096000888152602001908152602001600020600a600089815260200190815260200160002083805480602002602001604051908101604052809291908181526020018280548015610f0057602002820191906000526020600020906000905b82829054906101000a900460ff16151581526020019060010190602082600001049283019260010382029150808411610eca5790505b5050505050935082805480602002602001604051908101604052809291908181526020018280548015610f5257602002820191906000526020600020905b815481526020019060010190808311610f3e575b5050505050925081805480602002602001604051908101604052809291908181526020018280548015610fa457602002820191906000526020600020905b815481526020019060010190808311610f90575b5050505050915080805480602002602001604051908101604052809291908181526020018280548015610ff657602002820191906000526020600020905b815481526020019060010190808311610fe2575b5050505050905093509350935093509193509193565b6000809054906101000a900473ffffffffffffffffffffffffffffffffffffffff168073ffffffffffffffffffffffffffffffffffffffff163373ffffffffffffffffffffffffffffffffffffffff1614151561106857600080fd5b6001601160008473ffffffffffffffffffffffffffffffffffffffff1673ffffffffffffffffffffffffffffffffffffffff16815260200190815260200160002060006101000a81548160ff0219169083151502179055505050565b600b602052816000526040600020818154811015156110df57fe5b90600052602060002090016000915091509054906101000a900473ffffffffffffffffffffffffffffffffffffffff1681565b600033601160003373ffffffffffffffffffffffffffffffffffffffff1673ffffffffffffffffffffffffffffffffffffffff16815260200190815260200160002060009054906101000a900460ff168061117c57506003800160009054906101000a900460ff16155b151561118757600080fd5b60008911151561119657600080fd5b6000881115156111a557600080fd5b8789101515156111b457600080fd5b6000871115156111c357600080fd5b6111d08a348b8a876123a4565b15156111db57600080fd5b6000600760008581526020019081526020016000208054905011151561120057600080fd5b600760008481526020019081526020016000208054806001018281611225919061403a565b91600052602060002090602091828204019190068c909190916101000a81548160ff021916908315150217905550506008600084815260200190815260200160002080548060010182816112799190614074565b916000526020600020900160008b909190915055506009600084815260200190815260200160002080548060010182816112b39190614074565b916000526020600020900160008a90919091505550600a600084815260200190815260200160002080548060010182816112ed9190614074565b916000526020600020900160008990919091505550600b6000848152602001908152602001600020805480600101828161132791906140a0565b9160005260206000209001600088909190916101000a81548173ffffffffffffffffffffffffffffffffffffffff021916908373ffffffffffffffffffffffffffffffffffffffff16021790555050600c6000848152602001908152602001600020805480600101828161139b91906140cc565b916000526020600020900160008790919091509060001916905550600d600084815260200190815260200160002080548060010182816113db91906140cc565b916000526020600020900160008690919091509060001916905550600191505098975050505050505050565b600a6020528160005260406000208181548110151561142257fe5b9060005260206000209001600091509150505481565b6000809054906101000a900473ffffffffffffffffffffffffffffffffffffffff1681565b60008060008061146b6140f8565b6114736140f8565b61147e89898961395a565b15156114965760008081915080905095509550611711565b600760008a8152602001908152602001600020888154811015156114b657fe5b90600052602060002090602091828204019190069054906101000a900460ff16156114e6578793508692506114ed565b8693508792505b608060405190810160405280600115158152602001600860008c81526020019081526020016000208681548110151561152257fe5b9060005260206000209001548152602001600960008c81526020019081526020016000208681548110151561155357fe5b9060005260206000209001548152602001600a60008c81526020019081526020016000208681548110151561158457fe5b9060005260206000209001548152509150608060405190810160405280600015158152602001600860008c8152602001908152602001600020858154811015156115ca57fe5b9060005260206000209001548152602001600960008c8152602001908152602001600020858154811015156115fb57fe5b9060005260206000209001548152602001600a60008c81526020019081526020016000208581548110151561162c57fe5b906000526020600020900154815250905080606001518260600151101561165f5760008081915080905095509550611711565b6002816060015183606001510181151561167557fe5b0495508581602001510260015483602001510211156116c7578581602001510260015483604001510211156116b65760008081915080905095509550611711565b858682602001510295509550611711565b600154826020015102868260200151021115611706576001548260200151028682604001510211156117055760008081915080905095509550611711565b5b858260200151955095505b50505050935093915050565b60025481565b60096020528160005260406000208181548110151561173e57fe5b9060005260206000209001600091509150505481565b6000809054906101000a900473ffffffffffffffffffffffffffffffffffffffff168073ffffffffffffffffffffffffffffffffffffffff163373ffffffffffffffffffffffffffffffffffffffff161415156117b057600080fd5b816000806101000a81548173ffffffffffffffffffffffffffffffffffffffff021916908373ffffffffffffffffffffffffffffffffffffffff1602179055505050565b60015481565b60008060008060076000878152602001908152602001600020805490508510151561182457600080fd5b600b60008781526020019081526020016000208581548110151561184457fe5b906000526020600020900160009054906101000a900473ffffffffffffffffffffffffffffffffffffffff1673ffffffffffffffffffffffffffffffffffffffff163373ffffffffffffffffffffffffffffffffffffffff161415156118a957600080fd5b600a6000878152602001908152602001600020858154811015156118c957fe5b906000526020600020900154925060086000878152602001908152602001600020858154811015156118f757fe5b9060005260206000209001549150600760008781526020019081526020016000208581548110151561192557fe5b90600052602060002090602091828204019190069054906101000a900460ff169050600760008781526020019081526020016000208581548110151561196757fe5b90600052602060002090602091828204019190069054906101000a900460ff1615611a30573373ffffffffffffffffffffffffffffffffffffffff166108fc84600f60008a815260200190815260200160002060008515151515815260200190815260200160002054600e60008b815260200190815260200160002060008615151515815260200190815260200160002054038502811515611a0557fe5b049081150290604051600060405180830381858888f193505050501515611a2b57600080fd5b611ad0565b3373ffffffffffffffffffffffffffffffffffffffff166108fc84600f60008a815260200190815260200160002060008515151515815260200190815260200160002054600e60008b815260200190815260200160002060008615151515815260200190815260200160002054038502811515611aa957fe5b049081150290604051600060405180830381858888f193505050501515611acf57600080fd5b5b6007600087815260200190815260200160002085815481101515611af057fe5b90600052602060002090602091828204019190066101000a81549060ff02191690556008600087815260200190815260200160002085815481101515611b3257fe5b9060005260206000209001600090556009600087815260200190815260200160002085815481101515611b6157fe5b906000526020600020900160009055600a600087815260200190815260200160002085815481101515611b9057fe5b906000526020600020900160009055600b600087815260200190815260200160002085815481101515611bbf57fe5b906000526020600020900160006101000a81549073ffffffffffffffffffffffffffffffffffffffff0219169055600c600087815260200190815260200160002085815481101515611c0d57fe5b906000526020600020900160009055600d600087815260200190815260200160002085815481101515611c3c57fe5b9060005260206000209001600090556001601287815481101515611c5c57fe5b906000526020600020900160008282540192505081905550611c7d86613185565b506001935050505092915050565b600d60205281600052604060002081815481101515611ca657fe5b9060005260206000209001600091509150505481565b60038060000154908060010154908060020154908060030160009054906101000a900460ff16908060030160019054906101000a900460ff16905085565b600080600080600033601060003373ffffffffffffffffffffffffffffffffffffffff1673ffffffffffffffffffffffffffffffffffffffff16815260200190815260200160002060009054906101000a900460ff1680611d6a57506003800160019054906101000a900460ff16155b1515611d7557600080fd5b611d828b8b8b8b8b612306565b1515611d8d57600080fd5b611d988a8a8a61145d565b94509450600084111515611dab57600080fd5b600760008b815260200190815260200160002089815481101515611dcb57fe5b90600052602060002090602091828204019190069054906101000a900460ff1615611dfb57889250879150611e02565b8792508891505b611e0d8a8c86613ab6565b611e438a85600a60008e815260200190815260200160002086815481101515611e3257fe5b906000526020600020900154612e2a565b611e508a84848888613b44565b611e5d8a8a8a8888613f7f565b611e668a613185565b5060019550505050505095945050505050565b6000809054906101000a900473ffffffffffffffffffffffffffffffffffffffff168073ffffffffffffffffffffffffffffffffffffffff163373ffffffffffffffffffffffffffffffffffffffff16141515611ed557600080fd5b600760008781526020019081526020016000208054806001018281611efa919061403a565b91600052602060002090602091828204019190066000909190916101000a81548160ff02191690831515021790555050600860008781526020019081526020016000208054806001018281611f4f9190614074565b916000526020600020900160008090919091505550600960008781526020019081526020016000208054806001018281611f899190614074565b916000526020600020900160008090919091505550600a60008781526020019081526020016000208054806001018281611fc39190614074565b916000526020600020900160008090919091505550600b60008781526020019081526020016000208054806001018281611ffd91906140a0565b9160005260206000209001600080909190916101000a81548173ffffffffffffffffffffffffffffffffffffffff021916908373ffffffffffffffffffffffffffffffffffffffff16021790555050600c6000878152602001908152602001600020805480600101828161207191906140cc565b916000526020600020900160008060010290919091509060001916905550600d600087815260200190815260200160002080548060010182816120b491906140cc565b916000526020600020900160008060010290919091509060001916905550601280548060010182816120e69190614074565b91600052602060002090016000809091909150555084600e6000888152602001908152602001600020600060011515151581526020019081526020016000208190555083600e60008881526020019081526020016000206000801515151581526020019081526020016000208190555082600f6000888152602001908152602001600020600060011515151581526020019081526020016000208190555081600f600088815260200190815260200160002060008015151515815260200190815260200160002081905550505050505050565b6121c1614123565b600b600083815260200190815260200160002080548060200260200160405190810160405280929190818152602001828054801561225457602002820191906000526020600020905b8160009054906101000a900473ffffffffffffffffffffffffffffffffffffffff1673ffffffffffffffffffffffffffffffffffffffff168152602001906001019080831161220a575b50505050509050919050565b60086020528160005260406000208181548110151561227b57fe5b9060005260206000209001600091509150505481565b612299613ffe565b600c60008381526020019081526020016000208054806020026020016040519081016040528092919081815260200182805480156122fa57602002820191906000526020600020905b815460001916815260200190600101908083116122e2575b50505050509050919050565b60008585858585604051808673ffffffffffffffffffffffffffffffffffffffff1673ffffffffffffffffffffffffffffffffffffffff166c0100000000000000000000000002815260140185815260200184815260200183815260200182815260200195505050505050604051809103902060001916600360020154600019161015612396576000905061239b565b600190505b95945050505050565b600085156124b857600e6000838152602001908152602001600020600087151515158152602001908152602001600020548402858402101515156123e757600080fd5b6001546001540283600e60008581526020019081526020016000206000891515151581526020019081526020016000205486020281151561242457fe5b046002600082825401925050819055503373ffffffffffffffffffffffffffffffffffffffff166108fc6001546001540285600e600087815260200190815260200160002060008b1515151581526020019081526020016000205488020281151561248b57fe5b0487039081150290604051600060405180830381858888f1935050505015156124b357600080fd5b6125bf565b600154600e60008481526020019081526020016000206000881515151581526020019081526020016000205485028115156124ef57fe5b0485101515156124fe57600080fd5b600154600e600084815260200190815260200160002060008815151515815260200190815260200160002054850281151561253557fe5b046002600082825401925050819055503373ffffffffffffffffffffffffffffffffffffffff166108fc600154600e600086815260200190815260200160002060008a15151515815260200190815260200160002054870281151561259657fe5b0487039081150290604051600060405180830381858888f1935050505015156125be57600080fd5b5b6001905095945050505050565b600080600154600a6000868152602001908152602001600020848154811015156125f257fe5b906000526020600020900154600960008781526020019081526020016000208581548110151561261e57fe5b9060005260206000209001540281151561263457fe5b04881015151561264357600080fd5b600154600a60008681526020019081526020016000208481548110151561266657fe5b906000526020600020900154600860008781526020019081526020016000208581548110151561269257fe5b906000526020600020900154028115156126a857fe5b0488111515156126b757600080fd5b87915086600b6000868152602001908152602001600020848154811015156126db57fe5b906000526020600020900160009054906101000a900473ffffffffffffffffffffffffffffffffffffffff1661270f614137565b808373ffffffffffffffffffffffffffffffffffffffff1673ffffffffffffffffffffffffffffffffffffffff1681526020018273ffffffffffffffffffffffffffffffffffffffff1673ffffffffffffffffffffffffffffffffffffffff16815260200192505050604051809103906000f080151561278e57600080fd5b90508673ffffffffffffffffffffffffffffffffffffffff1660008060c060405190810160405280600b60008a8152602001908152602001600020888154811015156127d657fe5b906000526020600020900160009054906101000a900473ffffffffffffffffffffffffffffffffffffffff1673ffffffffffffffffffffffffffffffffffffffff168152602001600c60008a81526020019081526020016000208881548110151561283d57fe5b906000526020600020900154600019168152602001600d60008a81526020019081526020016000208881548110151561287257fe5b906000526020600020900154600019168152602001600a60008a8152602001908152602001600020888154811015156128a757fe5b90600052602060002090015481526020018681526020018573ffffffffffffffffffffffffffffffffffffffff1681525060405180828152602001915050600060405180830381858888f1935050505050600b60008581526020019081526020016000208381548110151561291857fe5b906000526020600020900160009054906101000a900473ffffffffffffffffffffffffffffffffffffffff1673ffffffffffffffffffffffffffffffffffffffff1660008060c0604051908101604052808b73ffffffffffffffffffffffffffffffffffffffff1681526020018a60001916815260200189600019168152602001600a60008a8152602001908152602001600020888154811015156129b957fe5b90600052602060002090015481526020018681526020018573ffffffffffffffffffffffffffffffffffffffff1681525060405180828152602001915050600060405180830381858888f1935050505050819150509695505050505050565b600080600154600a600086815260200190815260200160002084815481101515612a3e57fe5b9060005260206000209001548902811515612a5557fe5b0491506009600085815260200190815260200160002083815481101515612a7857fe5b9060005260206000209001548210151515612a9257600080fd5b6008600085815260200190815260200160002083815481101515612ab257fe5b9060005260206000209001548211151515612acc57600080fd5b600b600085815260200190815260200160002083815481101515612aec57fe5b906000526020600020900160009054906101000a900473ffffffffffffffffffffffffffffffffffffffff1687612b21614137565b808373ffffffffffffffffffffffffffffffffffffffff1673ffffffffffffffffffffffffffffffffffffffff1681526020018273ffffffffffffffffffffffffffffffffffffffff1673ffffffffffffffffffffffffffffffffffffffff16815260200192505050604051809103906000f0801515612ba057600080fd5b9050600b600085815260200190815260200160002083815481101515612bc257fe5b906000526020600020900160009054906101000a900473ffffffffffffffffffffffffffffffffffffffff1673ffffffffffffffffffffffffffffffffffffffff1660008060c0604051908101604052808b73ffffffffffffffffffffffffffffffffffffffff1681526020018a60001916815260200189600019168152602001600a60008a815260200190815260200160002088815481101515612c6357fe5b90600052602060002090015481526020018681526020018573ffffffffffffffffffffffffffffffffffffffff1681525060405180828152602001915050600060405180830381858888f19350505050508673ffffffffffffffffffffffffffffffffffffffff1660008060c060405190810160405280600b60008a815260200190815260200160002088815481101515612cfa57fe5b906000526020600020900160009054906101000a900473ffffffffffffffffffffffffffffffffffffffff1673ffffffffffffffffffffffffffffffffffffffff168152602001600c60008a815260200190815260200160002088815481101515612d6157fe5b906000526020600020900154600019168152602001600d60008a815260200190815260200160002088815481101515612d9657fe5b906000526020600020900154600019168152602001600a60008a815260200190815260200160002088815481101515612dcb57fe5b90600052602060002090015481526020018681526020018573ffffffffffffffffffffffffffffffffffffffff1681525060405180828152602001915050600060405180830381858888f1935050505050819150509695505050505050565b60015482600e60008681526020019081526020016000206000801515151581526020019081526020016000205402811515612e6157fe5b04600260008282540392505081905550600154600154028183600e600087815260200190815260200160002060006001151515158152602001908152602001600020540202811515612eaf57fe5b04600260008282540392505081905550505050565b801561300857816008600087815260200190815260200160002085815481101515612eeb57fe5b9060005260206000209001541415612f27576001601286815481101515612f0e57fe5b9060005260206000209001600082825401925050819055505b816009600087815260200190815260200160002085815481101515612f4857fe5b9060005260206000209001541015612f905760006009600087815260200190815260200160002085815481101515612f7c57fe5b906000526020600020900181905550612fca565b816009600087815260200190815260200160002085815481101515612fb157fe5b9060005260206000209001600082825403925050819055505b816008600087815260200190815260200160002085815481101515612feb57fe5b90600052602060002090016000828254039250508190555061317e565b60015483830281151561301757fe5b04600860008781526020019081526020016000208581548110151561303857fe5b906000526020600020900154141561307457600160128681548110151561305b57fe5b9060005260206000209001600082825401925050819055505b60015483830281151561308357fe5b0460096000878152602001908152602001600020858154811015156130a457fe5b90600052602060002090015410156130ec57600060096000878152602001908152602001600020858154811015156130d857fe5b906000526020600020900181905550613135565b6001548383028115156130fb57fe5b04600960008781526020019081526020016000208581548110151561311c57fe5b9060005260206000209001600082825403925050819055505b60015483830281151561314457fe5b04600860008781526020019081526020016000208581548110151561316557fe5b9060005260206000209001600082825403925050819055505b5050505050565b60008060036000015460128481548110151561319d57fe5b90600052602060002090015410156131b85760009150613954565b600190505b60076000848152602001908152602001600020805490508110156136f157600060086000858152602001908152602001600020828154811015156131fd57fe5b90600052602060002090015414156136e45760016007600085815260200190815260200160002080549050038110156136e357600760008481526020019081526020016000206001820181548110151561325357fe5b90600052602060002090602091828204019190069054906101000a900460ff16600760008581526020019081526020016000208281548110151561329357fe5b90600052602060002090602091828204019190066101000a81548160ff02191690831515021790555060086000848152602001908152602001600020600182018154811015156132df57fe5b906000526020600020900154600860008581526020019081526020016000208281548110151561330b57fe5b906000526020600020900181905550600960008481526020019081526020016000206001820181548110151561333d57fe5b906000526020600020900154600960008581526020019081526020016000208281548110151561336957fe5b906000526020600020900181905550600a60008481526020019081526020016000206001820181548110151561339b57fe5b906000526020600020900154600a6000858152602001908152602001600020828154811015156133c757fe5b906000526020600020900181905550600b6000848152602001908152602001600020600182018154811015156133f957fe5b906000526020600020900160009054906101000a900473ffffffffffffffffffffffffffffffffffffffff16600b60008581526020019081526020016000208281548110151561344557fe5b906000526020600020900160006101000a81548173ffffffffffffffffffffffffffffffffffffffff021916908373ffffffffffffffffffffffffffffffffffffffff160217905550600c6000848152602001908152602001600020600182018154811015156134b157fe5b906000526020600020900154600c6000858152602001908152602001600020828154811015156134dd57fe5b90600052602060002090018160001916905550600d60008481526020019081526020016000206001820181548110151561351357fe5b906000526020600020900154600d60008581526020019081526020016000208281548110151561353f57fe5b90600052602060002090018160001916905550600760008481526020019081526020016000206001820181548110151561357557fe5b90600052602060002090602091828204019190066101000a81549060ff021916905560086000848152602001908152602001600020600182018154811015156135ba57fe5b90600052602060002090016000905560096000848152602001908152602001600020600182018154811015156135ec57fe5b906000526020600020900160009055600a60008481526020019081526020016000206001820181548110151561361e57fe5b906000526020600020900160009055600b60008481526020019081526020016000206001820181548110151561365057fe5b906000526020600020900160006101000a81549073ffffffffffffffffffffffffffffffffffffffff0219169055600c6000848152602001908152602001600020600182018154811015156136a157fe5b906000526020600020900160009055600d6000848152602001908152602001600020600182018154811015156136d357fe5b9060005260206000209001600090555b5b80806001019150506131bd565b60128381548110151561370057fe5b90600052602060002090015460076000858152602001908152602001600020805490500360076000858152602001908152602001600020816137429190614147565b5060128381548110151561375257fe5b90600052602060002090015460086000858152602001908152602001600020805490500360086000858152602001908152602001600020816137949190614181565b506012838154811015156137a457fe5b90600052602060002090015460096000858152602001908152602001600020805490500360096000858152602001908152602001600020816137e69190614181565b506012838154811015156137f657fe5b906000526020600020900154600a60008581526020019081526020016000208054905003600a6000858152602001908152602001600020816138389190614181565b5060128381548110151561384857fe5b906000526020600020900154600b60008581526020019081526020016000208054905003600b60008581526020019081526020016000208161388a91906141ad565b5060128381548110151561389a57fe5b906000526020600020900154600c60008581526020019081526020016000208054905003600c6000858152602001908152602001600020816138dc91906141d9565b506012838154811015156138ec57fe5b906000526020600020900154600d60008581526020019081526020016000208054905003600d60008581526020019081526020016000208161392e91906141d9565b50600060128481548110151561394057fe5b906000526020600020900181905550600191505b50919050565b600060076000858152602001908152602001600020805490508310151561398057600080fd5b6007600085815260200190815260200160002080549050821015156139a457600080fd5b60076000858152602001908152602001600020828154811015156139c457fe5b90600052602060002090602091828204019190069054906101000a900460ff1615156007600086815260200190815260200160002084815481101515613a0657fe5b90600052602060002090602091828204019190069054906101000a900460ff16151514151515613a3557600080fd5b60006008600086815260200190815260200160002084815481101515613a5757fe5b90600052602060002090015414151515613a7057600080fd5b60006008600086815260200190815260200160002083815481101515613a9257fe5b90600052602060002090015414151515613aab57600080fd5b600190509392505050565b60006001546001540282600e600087815260200190815260200160002060006001151515158152602001908152602001600020546003600101540202811515613afb57fe5b0490508273ffffffffffffffffffffffffffffffffffffffff166108fc829081150290604051600060405180830381858888f193505050501515613b3e57600080fd5b50505050565b6000600b600087815260200190815260200160002085815481101515613b6657fe5b906000526020600020900160009054906101000a900473ffffffffffffffffffffffffffffffffffffffff16600b600088815260200190815260200160002085815481101515613bb257fe5b906000526020600020900160009054906101000a900473ffffffffffffffffffffffffffffffffffffffff16613be6614137565b808373ffffffffffffffffffffffffffffffffffffffff1673ffffffffffffffffffffffffffffffffffffffff1681526020018273ffffffffffffffffffffffffffffffffffffffff1673ffffffffffffffffffffffffffffffffffffffff16815260200192505050604051809103906000f0801515613c6557600080fd5b9050600b600087815260200190815260200160002085815481101515613c8757fe5b906000526020600020900160009054906101000a900473ffffffffffffffffffffffffffffffffffffffff1673ffffffffffffffffffffffffffffffffffffffff1660008060c060405190810160405280600b60008c815260200190815260200160002089815481101515613cf857fe5b906000526020600020900160009054906101000a900473ffffffffffffffffffffffffffffffffffffffff1673ffffffffffffffffffffffffffffffffffffffff168152602001600c60008c815260200190815260200160002089815481101515613d5f57fe5b906000526020600020900154600019168152602001600d60008c815260200190815260200160002089815481101515613d9457fe5b9060005260206000209001546000191681526020018781526020018681526020018573ffffffffffffffffffffffffffffffffffffffff1681525060405180828152602001915050600060405180830381858888f1935050505050600b600087815260200190815260200160002084815481101515613e0f57fe5b906000526020600020900160009054906101000a900473ffffffffffffffffffffffffffffffffffffffff1673ffffffffffffffffffffffffffffffffffffffff1660008060c060405190810160405280600b60008c81526020019081526020016000208a815481101515613e8057fe5b906000526020600020900160009054906101000a900473ffffffffffffffffffffffffffffffffffffffff1673ffffffffffffffffffffffffffffffffffffffff168152602001600c60008c81526020019081526020016000208a815481101515613ee757fe5b906000526020600020900154600019168152602001600d60008c81526020019081526020016000208a815481101515613f1c57fe5b9060005260206000209001546000191681526020018781526020018681526020018573ffffffffffffffffffffffffffffffffffffffff1681525060405180828152602001915050600060405180830381858888f1935050505050505050505050565b6000806007600088815260200190815260200160002086815481101515613fa257fe5b90600052602060002090602091828204019190069054906101000a900460ff1615613fd257859150849050613fd9565b8491508590505b613fe7878386866001612ec4565b613ff5878286866000612ec4565b50505050505050565b602060405190810160405280600081525090565b602060405190810160405280600081525090565b602060405190810160405280600081525090565b81548183558181151161406f57601f016020900481601f0160209004836000526020600020918201910161406e9190614205565b5b505050565b81548183558181151161409b5781836000526020600020918201910161409a9190614205565b5b505050565b8154818355818115116140c7578183600052602060002091820191016140c69190614205565b5b505050565b8154818355818115116140f3578183600052602060002091820191016140f2919061422a565b5b505050565b6080604051908101604052806000151581526020016000815260200160008152602001600081525090565b602060405190810160405280600081525090565b6040516102b7806142b183390190565b81548183558181151161417c57601f016020900481601f0160209004836000526020600020918201910161417b9190614205565b5b505050565b8154818355818115116141a8578183600052602060002091820191016141a79190614205565b5b505050565b8154818355818115116141d4578183600052602060002091820191016141d39190614205565b5b505050565b815481835581811511614200578183600052602060002091820191016141ff919061422a565b5b505050565b61422791905b8082111561422357600081600090555060010161420b565b5090565b90565b61424c91905b80821115614248576000816000905550600101614230565b5090565b90565b84600360000181905550836003600101819055508260036002018160001916905550816003800160016101000a81548160ff021916908315150217905550806003800160006101000a81548160ff021916908315150217905550505050505056006060604052341561000f57600080fd5b6040516040806102b783398101604052808051906020019091908051906020019091905050816000806101000a81548173ffffffffffffffffffffffffffffffffffffffff021916908373ffffffffffffffffffffffffffffffffffffffff16021790555080600160006101000a81548173ffffffffffffffffffffffffffffffffffffffff021916908373ffffffffffffffffffffffffffffffffffffffff16021790555050506101f1806100c66000396000f300606060405260043610610041576000357c0100000000000000000000000000000000000000000000000000000000900463ffffffff168063fd91f63514610046575b600080fd5b341561005157600080fd5b6100856004808035600019169060200190919080356000191690602001909190803560001916906020019091905050610087565b005b6000809054906101000a900473ffffffffffffffffffffffffffffffffffffffff168073ffffffffffffffffffffffffffffffffffffffff163373ffffffffffffffffffffffffffffffffffffffff161415156100e357600080fd5b8360028160001916905550826003816000191690555081600481600019169055507fcb4c4553e41a5c09e85963086a9705c2fcec623bbb356eace47d3d043233973a600160009054906101000a900473ffffffffffffffffffffffffffffffffffffffff16600254600354600454604051808573ffffffffffffffffffffffffffffffffffffffff1673ffffffffffffffffffffffffffffffffffffffff16815260200184600019166000191681526020018360001916600019168152602001826000191660001916815260200194505050505060405180910390a1505050505600a165627a7a7230582033acd0eb7a2a1954e6f651a221958a4664f289bcf992e62b7df0a7326988629e0029a165627a7a72305820f9a8db7f112bcca3abd0c1840db0499531657b134960cd181a44622e62bec9be0029",
  "source": "pragma solidity ^0.4.18;\n\nimport 'zeppelin-solidity/contracts/math/SafeMath.sol';\nimport './ExchangeStructs.sol';\nimport './Broadcast.sol';\n/// @title Exchange\n/// @author Karim Helmy\n\n// Primary contract: Describes functions of exchange\ncontract Exchange is ExchangeStructs {\n  // TODO: Make all operations safe\n  using SafeMath for uint;\n\n  // SECTION: Declaring/initializing variables\n  address public owner = msg.sender;\n  uint public PRECISION = 10 ** 18;\n\n  // separate out the open balance (includes unclosed fees, gas fees),\n  // which will be distributed between miners, the exchange, and traders,\n  // from closed balance, which belongs to the exchange\n  uint public openBalance = 0;\n\n  Parameters public params;\n\n  // separate chapters for different currency pairs\n  // that's why they're 2D\n  /*\n  * Web3 can't properly handle structs.\n  * Ethers.js can only handle them under experimental version.\n  * Therefore, the old orderBook and adressBook pattern won't work.\n  * \\_()_/\n  */\n  // separate chapters for different currency pairs\n  // that's why they're 2D\n  mapping (uint => bool[]) public buyBook;\n  mapping (uint => uint[]) public volBook;\n  mapping (uint => uint[]) public minVolBook;\n  mapping (uint => uint[]) public limitBook;\n\n  mapping (uint => address[]) public ethAddressBook;\n  mapping (uint => bytes32[]) public firstAddressBook;\n  mapping (uint => bytes32[]) public secondAddressBook;\n\n  // Fixed fees per unit, rather than using dynamic exchange rate\n  // Different fees for buy/sell\n  // can be done with mapping (uint => mapping (bool => uint))\n  // Allows us to use multiple currencies (not just Ether trading pairs)\n\n  mapping (uint => mapping (bool => uint)) closureFees;\n  mapping (uint => mapping (bool => uint)) cancelFees;\n\n  // KYC whitelists\n  mapping (address => bool) minerWhitelist;\n  mapping (address => bool) traderWhitelist;\n\n  // Numbers of orders that have been closed are kept here\n  uint[] numsCleared;\n\n  // SECTION: Constructor and helpers\n  // Constructor for contract\n  function Exchange(uint closureFeeBuy0, uint closureFeeSell0,\n                    uint cancelFeeBuy0, uint cancelFeeSell0,\n                    uint cleanSize, uint minerShare,\n                    bytes32 difficulty, bool minerKYC, bool traderKYC)\n    public\n  {\n    // Initialize parameters books\n    setParams(cleanSize, minerShare, difficulty, minerKYC, traderKYC);\n    // Initialize order books\n    addChapter(0, closureFeeBuy0, closureFeeSell0,\n                cancelFeeBuy0, cancelFeeSell0);\n    return;\n  }\n\n  // SECTION: Permissions\n  // Modified: http://solidity.readthedocs.io/en/v0.3.1/common-patterns.html\n  modifier onlyBy(address _account)\n  {\n    require(msg.sender == _account);\n    _;\n  }\n\n  modifier minerWhitelisted(address _account)\n  {\n    require(minerWhitelist[msg.sender] || ! params.minerKYC);\n    _;\n  }\n\n  modifier traderWhitelisted(address _account)\n  {\n    require(traderWhitelist[msg.sender] || ! params.traderKYC);\n    _;\n  }\n\n  function changeOwner(address _newOwner)\n    public\n    onlyBy(owner)\n  {\n    owner = _newOwner;\n  }\n\n  function addToMinerWhitelist(address newAddress)\n    public\n    onlyBy(owner)\n  {\n    minerWhitelist[newAddress] = true;\n  }\n\n  function addToTraderWhitelist(address newAddress)\n    public\n    onlyBy(owner)\n  {\n    traderWhitelist[newAddress] = true;\n  }\n\n  /*\n  * Initializes order book and address book for chapter\n  * Only used in constructor\n  * Pushes \"genesis order\" to chapter\n  * ONLY USE FOR MOST RECENT CHAPTER + 1\n  */\n  function addChapter(uint chapter, uint closureFeeBuy, uint closureFeeSell,\n                      uint cancelFeeBuy, uint cancelFeeSell)\n    public\n    onlyBy(owner)\n  {\n    buyBook[chapter].push(false);\n    volBook[chapter].push(0);\n    minVolBook[chapter].push(0);\n    limitBook[chapter].push(0);\n\n    ethAddressBook[chapter].push(address(0));\n    firstAddressBook[chapter].push(bytes32(0));\n    secondAddressBook[chapter].push(bytes32(0));\n    // Initialize numsCleared[chapter] as zero\n    numsCleared.push(0);\n\n    closureFees[chapter][true] = closureFeeBuy;\n    closureFees[chapter][false] = closureFeeSell;\n    cancelFees[chapter][true] = cancelFeeBuy;\n    cancelFees[chapter][false] = cancelFeeSell;\n  }\n\n  // Init the params struct, which contains the bulk of exchange's parameters\n  // Only used in constructor\n  function setParams(uint cleanSize, uint minerShare,\n                    bytes32 difficulty, bool minerKYC, bool traderKYC)\n    internal\n  {\n    params.cleanSize = cleanSize;\n    params.minerShare = minerShare;\n    params.difficulty = difficulty;\n    params.minerKYC = minerKYC;\n    params.traderKYC = traderKYC;\n  }\n\n  // SECTION: Getters\n  // Get chapter from order book\n  function getOrderChapter(uint chapter)\n    external\n    view\n    returns(bool[] buyChapter, uint[] volChapter,\n            uint[] minVolChapter, uint[] limitChapter)\n  {\n    return(buyBook[chapter], volBook[chapter],\n          minVolBook[chapter], limitBook[chapter]);\n  }\n\n  /*\n  * Wish I could've bundled these.\n  * For some reason, get a bug when firstAddressChapter and secondAddressChapter are together.\n  * Suspect it has something to do with returning dynamic arrays of fixed size arrays\n  */\n  // Get chapter from ethAddressBook\n  function getETHAddressChapter(uint chapter)\n    external\n    view\n    returns(address[] ethAddressChapter)\n  {\n    return(ethAddressBook[chapter]);\n  }\n\n  // Get chapter from firstAddressBook\n  function getFirstAddressChapter(uint chapter)\n    external\n    view\n    returns(bytes32[] firstAddressChapter)\n  {\n    return(firstAddressBook[chapter]);\n  }\n\n  // Get chapter from secondAddressBook\n  function getSecondAddressChapter(uint chapter)\n    external\n    view\n    returns(bytes32[] secondAddressChapter)\n  {\n    return(secondAddressBook[chapter]);\n  }\n\n  // SECTION: Core functionality\n  // Checks edge cases for match verification\n  function checkMatchEdges(uint chapter, uint index1, uint index2)\n    private\n    view\n    returns(bool passes)\n  {\n    // valid indices\n    require(index1 < buyBook[chapter].length);\n    require(index2 < buyBook[chapter].length);\n    //One buy order and one sell order\n    require(buyBook[chapter][index1] != buyBook[chapter][index2]);\n    //Non-empty order\n    require(volBook[chapter][index1] != 0);\n    require(volBook[chapter][index2] != 0);\n    // All edge cases work!\n    return true;\n  }\n\n  // verifies that match is valid\n  function calcRateAndVol(uint chapter, uint index1, uint index2)\n    public\n    view\n    returns (uint mimRate, uint alphaVol)\n  {\n    // check edge cases\n    if (! checkMatchEdges(chapter, index1, index2)) {\n      return (0,0);\n    }\n    // which order is buying and selling ETH?\n    // buy-sell copy1\n    uint buyIndex;\n    uint sellIndex;\n    if (buyBook[chapter][index1]) {\n      buyIndex = index1;\n      sellIndex = index2;\n    } else{\n      buyIndex = index2;\n      sellIndex = index1;\n    }\n    // shorthand for buy and sell orders\n    Order memory buyOrder = Order(true, volBook[chapter][buyIndex],\n                                  minVolBook[chapter][buyIndex],\n                                  limitBook[chapter][buyIndex]);\n    Order memory sellOrder = Order(false, volBook[chapter][sellIndex],\n                                  minVolBook[chapter][sellIndex],\n                                  limitBook[chapter][sellIndex]);\n\n    // Non-contradictory limits\n    if (buyOrder.limit < sellOrder.limit) {\n      return (0, 0);\n    }\n    // Meet in middle rate\n    // mimRate\n    mimRate = (buyOrder.limit + sellOrder.limit) / 2;\n    // Volumes comparable\n    if (buyOrder.volume * PRECISION > sellOrder.volume * mimRate) {\n      if (buyOrder.minVolume * PRECISION > sellOrder.volume * mimRate) {\n        return (0, 0);\n      }\n      return (mimRate, sellOrder.volume * mimRate);\n    }\n    if (sellOrder.volume * mimRate > buyOrder.volume * PRECISION ) {\n      if (sellOrder.minVolume * mimRate > buyOrder.volume * PRECISION) {\n        return (0, 0);\n      }\n    }\n    return (mimRate, buyOrder.volume);\n  }\n\n  // Clears closed trade, reenters into order book if incomplete\n  function clearTrade(uint chapter, uint index1, uint index2,\n                      uint mimRate, uint alphaVol)\n    private\n  {\n    // which order is buying and selling ETH?\n    // buy-sell copy1\n    uint buyIndex;\n    uint sellIndex;\n    if (buyBook[chapter][index1]) {\n      buyIndex = index1;\n      sellIndex = index2;\n    } else{\n      buyIndex = index2;\n      sellIndex = index1;\n    }\n    clearOrder(chapter, buyIndex, mimRate, alphaVol, true);\n    clearOrder(chapter, sellIndex, mimRate, alphaVol, false);\n  }\n\n  function clearOrder(uint chapter, uint index,\n                      uint mimRate, uint alphaVol, bool buyAlpha)\n    private\n  {\n    if (buyAlpha) {\n      if (volBook[chapter][index] == alphaVol) {\n        numsCleared[chapter] += 1;\n      }\n      if (minVolBook[chapter][index] < alphaVol) {\n        minVolBook[chapter][index] = 0;\n      } else{\n        minVolBook[chapter][index] -= alphaVol;\n      }\n      volBook[chapter][index] -= alphaVol;\n    } else{\n      if (volBook[chapter][index] == (alphaVol * mimRate / PRECISION)) {\n        numsCleared[chapter] += 1;\n      }\n      if (minVolBook[chapter][index] < (alphaVol * mimRate / PRECISION)) {\n        minVolBook[chapter][index] = 0;\n      } else{\n        minVolBook[chapter][index] -= (alphaVol * mimRate / PRECISION);\n      }\n      volBook[chapter][index] -= alphaVol * mimRate / PRECISION;\n    }\n  }\n\n  // Adds trade to log, for traders to note\n  // http://solidity.readthedocs.io/en/latest/contracts.html?highlight=events#events\n  function alertTraders(uint chapter, uint index1, uint index2, uint mimRate, uint alphaVol)\n    private\n  {\n    address broadcastAddress = new Broadcast(ethAddressBook[chapter][index1],\n                                              ethAddressBook[chapter][index2]);\n    ethAddressBook[chapter][index1].call.gas(0).value(0)(\n      TradeInfo(\n        ethAddressBook[chapter][index2], // counterEthAddress,\n        firstAddressBook[chapter][index2], // counterFirstAddress,\n        secondAddressBook[chapter][index2], // counterSecondAddress,\n        mimRate,\n        alphaVol,\n        broadcastAddress\n      )\n    );\n    ethAddressBook[chapter][index2].call.gas(0).value(0)(\n      TradeInfo(\n        ethAddressBook[chapter][index1], // counterEthAddress,\n        firstAddressBook[chapter][index1], // counterFirstAddress,\n        secondAddressBook[chapter][index1], // counterSecondAddress,\n        mimRate,\n        alphaVol,\n        broadcastAddress\n      )\n    );\n  }\n\n  // Move balance from open to closed\n  function clearBalance(uint chapter, uint alphaVol, uint buyLimit)\n    private\n  {\n    openBalance -= (closureFees[chapter][false] * alphaVol) / PRECISION;\n    openBalance -= (closureFees[chapter][true] * alphaVol * buyLimit) / (PRECISION * PRECISION);\n  }\n\n  // Clean chapter (called when size reaches size to clean)\n  function cleanChapter(uint chapter)\n    private\n    returns(bool cleaned)\n  {\n    // Clean chapter only if size is appropriate\n    if (numsCleared[chapter] < params.cleanSize) {\n      return false;\n    }\n    // For all orders\n    // If it's a cleared order:\n    // Replace it with the next one, and clear the next one\n    for (uint i = 1; i < buyBook[chapter].length; i++) {\n      if (volBook[chapter][i] == 0) {\n        if (i < buyBook[chapter].length - 1) {\n          buyBook[chapter][i] = buyBook[chapter][i+1];\n          volBook[chapter][i] = volBook[chapter][i+1];\n          minVolBook[chapter][i] = minVolBook[chapter][i+1];\n          limitBook[chapter][i] = limitBook[chapter][i+1];\n\n          ethAddressBook[chapter][i] = ethAddressBook[chapter][i+1];\n          firstAddressBook[chapter][i] = firstAddressBook[chapter][i+1];\n          secondAddressBook[chapter][i] = secondAddressBook[chapter][i+1];\n\n          delete buyBook[chapter][i+1];\n          delete volBook[chapter][i+1];\n          delete minVolBook[chapter][i+1];\n          delete limitBook[chapter][i+1];\n\n          delete ethAddressBook[chapter][i+1];\n          delete firstAddressBook[chapter][i+1];\n          delete secondAddressBook[chapter][i+1];\n        }\n      }\n    }\n    buyBook[chapter].length = buyBook[chapter].length - numsCleared[chapter];\n    volBook[chapter].length = volBook[chapter].length - numsCleared[chapter];\n    minVolBook[chapter].length = minVolBook[chapter].length - numsCleared[chapter];\n    limitBook[chapter].length = limitBook[chapter].length - numsCleared[chapter];\n\n    ethAddressBook[chapter].length = ethAddressBook[chapter].length - numsCleared[chapter];\n    firstAddressBook[chapter].length = firstAddressBook[chapter].length - numsCleared[chapter];\n    secondAddressBook[chapter].length = secondAddressBook[chapter].length - numsCleared[chapter];\n\n    numsCleared[chapter] = 0;\n    return true;\n  }\n\n  // Checks if POW (nonce) is valid\n  // Performs nonce verification (keccak256)\n  // Helper for giveMatch\n  function isValidPOW(address depositAddress, uint chapter, uint index1,\n                      uint index2, uint nonce)\n    private\n    view\n    returns(bool isValid)\n  {\n    if (params.difficulty < keccak256(depositAddress, chapter, index1, index2, nonce)) {\n      return false;\n    }\n    return true;\n  }\n\n  // Function to pay the miner what's due\n  function payMiner(uint chapter, address depositAddress, uint alphaVol)\n    private\n  {\n    // Calculate the miner's payment\n    uint minerPayment = ((params.minerShare * closureFees[chapter][true] * alphaVol) /\n                          (PRECISION * PRECISION));\n    // Pay the miner\n    depositAddress.transfer(minerPayment);\n  }\n\n  // Miners suggest matches with this function\n  // Wrapper for calcRateAndVol and isValidPOW, performs other required functions\n  function giveMatch(address depositAddress, uint chapter,\n                    uint index1, uint index2, uint nonce)\n    public\n    minerWhitelisted(msg.sender)\n    returns(bool isValid)\n  {\n    // Validate nonce\n    require(isValidPOW(depositAddress, chapter, index1, index2, nonce));\n    var (mimRate, alphaVol) = calcRateAndVol(chapter, index1, index2);\n    require(alphaVol > 0);\n    // which order is buying and selling ETH?\n    // buy-sell copy1\n    uint buyIndex;\n    uint sellIndex;\n    if (buyBook[chapter][index1]) {\n      buyIndex = index1;\n      sellIndex = index2;\n    } else{\n      buyIndex = index2;\n      sellIndex = index1;\n    }\n    payMiner(chapter, depositAddress, alphaVol);\n    clearBalance(chapter, alphaVol, limitBook[chapter][buyIndex]);\n    alertTraders(chapter, buyIndex, sellIndex, mimRate, alphaVol);\n    clearTrade(chapter, index1, index2, mimRate, alphaVol);\n    cleanChapter(chapter);\n    return true;\n  }\n\n  // Checks whether user has paid enough with the order that was placed\n  function paidEnough(bool buyAlpha, uint value, uint volume, uint limit, uint chapter)\n    private\n    returns(bool accepted)\n  {\n    if (buyAlpha) {\n      require(limit * value >= volume * closureFees[chapter][buyAlpha]);\n      openBalance += volume * closureFees[chapter][buyAlpha] * limit / (PRECISION * PRECISION);\n      msg.sender.transfer(value - (volume * closureFees[chapter][buyAlpha] *\n                          limit / (PRECISION * PRECISION)));\n    } else{\n      require(value >= volume * closureFees[chapter][buyAlpha] / PRECISION);\n      openBalance += volume * closureFees[chapter][buyAlpha] / PRECISION;\n      msg.sender.transfer(value - (volume * closureFees[chapter][buyAlpha] / PRECISION));\n    }\n    return true;\n  }\n\n  function placeTakeBuy(uint volume, address ethAddress, bytes32 firstAddress,\n                        bytes32 otherAddress, uint chapter, uint index1)\n    internal\n    returns(uint alphaVol)\n  {\n    require(volume >= minVolBook[chapter][index1] *\n            limitBook[chapter][index1] /  PRECISION);\n    require(volume <= volBook[chapter][index1] *\n            limitBook[chapter][index1] / PRECISION);\n    alphaVol = volume;\n    address broadcastAddress = new Broadcast(ethAddress,\n                                              ethAddressBook[chapter][index1]);\n    ethAddress.call.gas(0).value(0)(\n      TradeInfo(\n        ethAddressBook[chapter][index1], // counterEthAddress,\n        firstAddressBook[chapter][index1], // counterFirstAddress,\n        secondAddressBook[chapter][index1], // counterSecondAddress,\n        limitBook[chapter][index1],\n        alphaVol,\n        broadcastAddress\n      )\n    );\n    ethAddressBook[chapter][index1].call.gas(0).value(0)(\n      TradeInfo(\n        ethAddress, // counterEthAddress,\n        firstAddress, // counterFirstAddress,\n        otherAddress, // counterSecondAddress,\n        limitBook[chapter][index1],\n        alphaVol,\n        broadcastAddress\n      )\n    );\n    return(alphaVol);\n  }\n\n  function placeTakeSell(uint volume, address ethAddress, bytes32 firstAddress,\n                          bytes32 otherAddress, uint chapter, uint index1)\n    internal\n    returns(uint alphaVol)\n  {\n    alphaVol = volume * limitBook[chapter][index1] /  PRECISION;\n    require(alphaVol >= minVolBook[chapter][index1]);\n    require(alphaVol <= volBook[chapter][index1]);\n    address broadcastAddress = new Broadcast(ethAddressBook[chapter][index1],\n                                              ethAddress);\n    ethAddressBook[chapter][index1].call.gas(0).value(0)(\n      TradeInfo(\n        ethAddress, // counterEthAddress,\n        firstAddress, // counterFirstAddress,\n        otherAddress, // counterSecondAddress,\n        limitBook[chapter][index1],\n        alphaVol,\n        broadcastAddress\n      )\n    );\n    ethAddress.call.gas(0).value(0)(\n      TradeInfo(\n        ethAddressBook[chapter][index1], // counterEthAddress,\n        firstAddressBook[chapter][index1], // counterFirstAddress,\n        secondAddressBook[chapter][index1], // counterSecondAddress,\n        limitBook[chapter][index1],\n        alphaVol,\n        broadcastAddress\n      )\n    );\n    return(alphaVol);\n  }\n\n  // Place market taker orders: choose an index and match with it\n  function placeTakeOrder(bool buyAlpha, uint volume,\n                          address ethAddress, bytes32 firstAddress,\n                          bytes32 otherAddress,\n                          uint chapter, uint index1, uint nonce)\n    public\n    payable\n    traderWhitelisted(msg.sender)\n    returns(bool accepted)\n  {\n    require(index1 < buyBook[chapter].length);\n    //One buy order and one sell order\n    require(buyAlpha != buyBook[chapter][index1]);\n    //Non-empty order\n    require(volBook[chapter][index1] != 0);\n    require(volume > 0);\n    require(isValidPOW(ethAddress, chapter, 0, index1, nonce));\n    require(paidEnough(buyAlpha, msg.value, volume, limitBook[chapter][index1], chapter));\n    uint alphaVol;\n    if (buyAlpha) {\n      alphaVol = placeTakeBuy(volume, ethAddress, firstAddress,\n                              otherAddress, chapter, index1);\n    } else {\n      alphaVol = placeTakeSell(volume, ethAddress, firstAddress,\n                                otherAddress, chapter, index1);\n    }\n\n    clearBalance(alphaVol, limitBook[chapter][index1], limitBook[chapter][index1]);\n    clearOrder(chapter, index1, limitBook[chapter][index1], alphaVol, ! buyAlpha);\n    cleanChapter(chapter);\n    return true;\n  }\n\n  // Allows traders to place (limit) orders\n  function placeOrder(bool buyAlpha, uint volume, uint minVolume, uint limit,\n                      address ethAddress, bytes32 firstAddress,\n                      bytes32 otherAddress, uint chapter)\n    public\n    payable\n    traderWhitelisted(msg.sender)\n    returns(bool accepted)\n  {\n    require(volume > 0);\n    require(minVolume > 0);\n    require(volume >= minVolume);\n    require(limit > 0);\n    require(paidEnough(buyAlpha, msg.value, volume, limit, chapter));\n    require(buyBook[chapter].length > 0);\n\n    buyBook[chapter].push(buyAlpha);\n    volBook[chapter].push(volume);\n    minVolBook[chapter].push(minVolume);\n    limitBook[chapter].push(limit);\n\n    ethAddressBook[chapter].push(ethAddress);\n    firstAddressBook[chapter].push(firstAddress);\n    secondAddressBook[chapter].push(otherAddress);\n    return true;\n  }\n\n  // Allows traders to cancel orders\n  function cancelOrder(uint chapter, uint index)\n    public\n    returns(bool accepted)\n  {\n    require(index < buyBook[chapter].length);\n    // Can't cancel other people's orders\n    require(msg.sender == ethAddressBook[chapter][index]);\n\n    uint limit = limitBook[chapter][index];\n    uint volume = volBook[chapter][index];\n    bool buyAlpha = buyBook[chapter][index];\n\n    // Refund according to alpha transaction volume\n    if (buyBook[chapter][index]) {\n      msg.sender.transfer(volume * (closureFees[chapter][buyAlpha] - cancelFees[chapter][buyAlpha]) / limit);\n    } else{\n      msg.sender.transfer(volume * (closureFees[chapter][buyAlpha] - cancelFees[chapter][buyAlpha]) / limit);\n    }\n    delete buyBook[chapter][index];\n    delete volBook[chapter][index];\n    delete minVolBook[chapter][index];\n    delete limitBook[chapter][index];\n\n    delete ethAddressBook[chapter][index];\n    delete firstAddressBook[chapter][index];\n    delete secondAddressBook[chapter][index];\n\n    numsCleared[chapter] += 1;\n    cleanChapter(chapter);\n    return true;\n  }\n}\n",
  "sourcePath": "/Users/Karim/Desktop/Valex/contracts/Exchange.sol",
  "compiler": {
    "name": "solc",
    "version": "0.4.18+commit.9cf6e910.Emscripten.clang"
  },
  "schemaVersion": "1.0.1",
  "updatedAt": "2018-05-18T19:32:26.020Z"
}