{
  "contractName": "Exchange",
  "abi": [
    {
      "constant": true,
      "inputs": [
        {
          "name": "",
          "type": "uint256"
        },
        {
          "name": "",
          "type": "uint256"
        }
      ],
      "name": "orderBook",
      "outputs": [
        {
          "name": "buyETH",
          "type": "bool"
        },
        {
          "name": "volume",
          "type": "uint256"
        },
        {
          "name": "minVolume",
          "type": "uint256"
        },
        {
          "name": "limit",
          "type": "uint256"
        }
      ],
      "payable": false,
      "stateMutability": "view",
      "type": "function"
    },
    {
      "constant": true,
      "inputs": [
        {
          "name": "chapter",
          "type": "uint256"
        }
      ],
      "name": "getOrderChapter",
      "outputs": [
        {
          "components": [
            {
              "name": "buyETH",
              "type": "bool"
            },
            {
              "name": "volume",
              "type": "uint256"
            },
            {
              "name": "minVolume",
              "type": "uint256"
            },
            {
              "name": "limit",
              "type": "uint256"
            }
          ],
          "name": "orderChapter",
          "type": "tuple[]"
        }
      ],
      "payable": false,
      "stateMutability": "view",
      "type": "function"
    },
    {
      "constant": false,
      "inputs": [
        {
          "name": "buyETH",
          "type": "bool"
        },
        {
          "name": "volume",
          "type": "uint256"
        },
        {
          "name": "minVolume",
          "type": "uint256"
        },
        {
          "name": "limit",
          "type": "uint256"
        },
        {
          "name": "ethAddress",
          "type": "address"
        },
        {
          "name": "firstAddress",
          "type": "string"
        },
        {
          "name": "otherAddress",
          "type": "string"
        },
        {
          "name": "chapter",
          "type": "uint256"
        }
      ],
      "name": "placeOrder",
      "outputs": [
        {
          "name": "accepted",
          "type": "bool"
        }
      ],
      "payable": true,
      "stateMutability": "payable",
      "type": "function"
    },
    {
      "constant": true,
      "inputs": [],
      "name": "exBalances",
      "outputs": [
        {
          "name": "openBalance",
          "type": "uint256"
        },
        {
          "name": "closedBalance",
          "type": "uint256"
        }
      ],
      "payable": false,
      "stateMutability": "view",
      "type": "function"
    },
    {
      "constant": true,
      "inputs": [],
      "name": "PRECISION",
      "outputs": [
        {
          "name": "",
          "type": "uint256"
        }
      ],
      "payable": false,
      "stateMutability": "view",
      "type": "function"
    },
    {
      "constant": false,
      "inputs": [
        {
          "name": "chapter",
          "type": "uint256"
        },
        {
          "name": "index",
          "type": "uint256"
        }
      ],
      "name": "cancelOrder",
      "outputs": [
        {
          "name": "accepted",
          "type": "bool"
        }
      ],
      "payable": false,
      "stateMutability": "nonpayable",
      "type": "function"
    },
    {
      "constant": true,
      "inputs": [
        {
          "name": "chapter",
          "type": "uint256"
        }
      ],
      "name": "getAddressChapter",
      "outputs": [
        {
          "components": [
            {
              "name": "ethAddress",
              "type": "address"
            },
            {
              "name": "firstAddress",
              "type": "string"
            },
            {
              "name": "otherAddress",
              "type": "string"
            }
          ],
          "name": "addressChapter",
          "type": "tuple[]"
        }
      ],
      "payable": false,
      "stateMutability": "view",
      "type": "function"
    },
    {
      "constant": true,
      "inputs": [],
      "name": "params",
      "outputs": [
        {
          "name": "closureFee",
          "type": "uint256"
        },
        {
          "name": "cancelFee",
          "type": "uint256"
        },
        {
          "name": "cleanSize",
          "type": "uint256"
        },
        {
          "name": "minerShare",
          "type": "uint256"
        },
        {
          "name": "distBalance",
          "type": "uint256"
        },
        {
          "name": "difficulty",
          "type": "bytes32"
        }
      ],
      "payable": false,
      "stateMutability": "view",
      "type": "function"
    },
    {
      "constant": false,
      "inputs": [
        {
          "name": "depositAddress",
          "type": "address"
        },
        {
          "name": "chapter",
          "type": "uint256"
        },
        {
          "name": "index1",
          "type": "uint256"
        },
        {
          "name": "index2",
          "type": "uint256"
        },
        {
          "name": "nonce",
          "type": "uint256"
        }
      ],
      "name": "giveMatch",
      "outputs": [
        {
          "name": "isValid",
          "type": "bool"
        }
      ],
      "payable": true,
      "stateMutability": "payable",
      "type": "function"
    },
    {
      "constant": true,
      "inputs": [
        {
          "name": "",
          "type": "uint256"
        },
        {
          "name": "",
          "type": "uint256"
        }
      ],
      "name": "addressBook",
      "outputs": [
        {
          "name": "ethAddress",
          "type": "address"
        },
        {
          "name": "firstAddress",
          "type": "string"
        },
        {
          "name": "otherAddress",
          "type": "string"
        }
      ],
      "payable": false,
      "stateMutability": "view",
      "type": "function"
    },
    {
      "inputs": [
        {
          "name": "closureFee",
          "type": "uint256"
        },
        {
          "name": "cancelFee",
          "type": "uint256"
        },
        {
          "name": "cleanSize",
          "type": "uint256"
        },
        {
          "name": "minerShare",
          "type": "uint256"
        },
        {
          "name": "distBalance",
          "type": "uint256"
        },
        {
          "name": "difficulty",
          "type": "bytes32"
        }
      ],
      "payable": false,
      "stateMutability": "nonpayable",
      "type": "constructor"
    },
    {
      "anonymous": false,
      "inputs": [
        {
          "indexed": false,
          "name": "ethAddress1",
          "type": "address"
        },
        {
          "indexed": false,
          "name": "ethAddress2",
          "type": "address"
        },
        {
          "indexed": false,
          "name": "firstAddress1",
          "type": "string"
        },
        {
          "indexed": false,
          "name": "firstAddress2",
          "type": "string"
        },
        {
          "indexed": false,
          "name": "otherAddress1",
          "type": "string"
        },
        {
          "indexed": false,
          "name": "otherAddress2",
          "type": "string"
        },
        {
          "indexed": false,
          "name": "mimRate",
          "type": "uint256"
        },
        {
          "indexed": false,
          "name": "ethVol",
          "type": "uint256"
        }
      ],
      "name": "TradeInfo",
      "type": "event"
    }
  ],
  "bytecode": "0x6060604052670de0b6b3a764000060005534156200001c57600080fd5b60405160c08062002885833981016040528080519060200190919080519060200190919080519060200190919080519060200190919080519060200190919080519060200190919050506200008a868686868686620000e0640100000000026200210a176401000000009004565b620000a8620001276401000000000262002151176401000000009004565b50600b8054806001018281620000bf9190620002ec565b9160005260206000209001600080909190915055505050505050506200053b565b856001600001819055508460018001819055508360016002018190555082600160030181905550816001600401819055508060016005018160001916905550505050505050565b60006009600080815260200190815260200160002080548060010182816200015091906200031b565b9160005260206000209060040201600060806040519081016040528060001515815260200160008152602001600081526020016000815250909190915060008201518160000160006101000a81548160ff021916908315150217905550602082015181600101556040820151816002015560608201518160030155505050600a60008081526020019081526020016000208054806001018281620001f5919062000350565b91600052602060002090600302016000606060405190810160405280600073ffffffffffffffffffffffffffffffffffffffff168152602001602060405190810160405280600081525081526020016020604051908101604052806000815250815250909190915060008201518160000160006101000a81548173ffffffffffffffffffffffffffffffffffffffff021916908373ffffffffffffffffffffffffffffffffffffffff1602179055506020820151816001019080519060200190620002c292919062000385565b506040820151816002019080519060200190620002e192919062000385565b505050506001905090565b81548183558181151162000316578183600052602060002091820191016200031591906200040c565b5b505050565b8154818355818115116200034b576004028160040283600052602060002091820191016200034a919062000434565b5b505050565b81548183558181151162000380576003028160030283600052602060002091820191016200037f919062000482565b5b505050565b828054600181600116156101000203166002900490600052602060002090601f016020900481019282601f10620003c857805160ff1916838001178555620003f9565b82800160010185558215620003f9579182015b82811115620003f8578251825591602001919060010190620003db565b5b5090506200040891906200040c565b5090565b6200043191905b808211156200042d57600081600090555060010162000413565b5090565b90565b6200047f91905b808211156200047b57600080820160006101000a81549060ff0219169055600182016000905560028201600090556003820160009055506004016200043b565b5090565b90565b620004ec91905b80821115620004e857600080820160006101000a81549073ffffffffffffffffffffffffffffffffffffffff0219169055600182016000620004cc9190620004ef565b600282016000620004de9190620004ef565b5060030162000489565b5090565b90565b50805460018160011615610100020316600290046000825580601f1062000517575062000538565b601f0160209004906000526020600020908101906200053791906200040c565b5b50565b61233a806200054b6000396000f3006060604052600436106100a4576000357c0100000000000000000000000000000000000000000000000000000000900463ffffffff16806314974f46146100a95780633b6a0800146101025780634aed275c14610175578063737f02af14610270578063aaf5eb68146102a0578063b6ed0632146102c9578063b90aa0c21461030d578063cff0ab9614610380578063d2426ab9146103d4578063da92b7c11461043e575b600080fd5b34156100b457600080fd5b6100d360048080359060200190919080359060200190919050506105bc565b604051808515151515815260200184815260200183815260200182815260200194505050505060405180910390f35b341561010d57600080fd5b6101236004808035906020019091905050610615565b60405180806020018281038252838181518152602001915080516000925b818410156101645782849060200190602002015181526020019260010192610141565b925050509250505060405180910390f35b6102566004808035151590602001909190803590602001909190803590602001909190803590602001909190803573ffffffffffffffffffffffffffffffffffffffff1690602001909190803590602001908201803590602001908080601f0160208091040260200160405190810160405280939291908181526020018383808284378201915050505050509190803590602001908201803590602001908080601f016020809104026020016040519081016040528093929190818152602001838380828437820191505050505050919080359060200190919050506106c7565b604051808215151515815260200191505060405180910390f35b341561027b57600080fd5b61028361091c565b604051808381526020018281526020019250505060405180910390f35b34156102ab57600080fd5b6102b361092e565b6040518082815260200191505060405180910390f35b34156102d457600080fd5b6102f36004808035906020019091908035906020019091905050610934565b604051808215151515815260200191505060405180910390f35b341561031857600080fd5b61032e6004808035906020019091905050610c5e565b60405180806020018281038252838181518152602001915080516000925b8184101561036f578284906020019060200201518152602001926001019261034c565b925050509250505060405180910390f35b341561038b57600080fd5b610393610e71565b604051808781526020018681526020018581526020018481526020018381526020018260001916600019168152602001965050505050505060405180910390f35b610424600480803573ffffffffffffffffffffffffffffffffffffffff16906020019091908035906020019091908035906020019091908035906020019091908035906020019091905050610e9b565b604051808215151515815260200191505060405180910390f35b341561044957600080fd5b6104686004808035906020019091908035906020019091905050610f7b565b604051808473ffffffffffffffffffffffffffffffffffffffff1673ffffffffffffffffffffffffffffffffffffffff16815260200180602001806020018381038352858181546001816001161561010002031660029004815260200191508054600181600116156101000203166002900480156105275780601f106104fc57610100808354040283529160200191610527565b820191906000526020600020905b81548152906001019060200180831161050a57829003601f168201915b50508381038252848181546001816001161561010002031660029004815260200191508054600181600116156101000203166002900480156105aa5780601f1061057f576101008083540402835291602001916105aa565b820191906000526020600020905b81548152906001019060200180831161058d57829003601f168201915b50509550505050505060405180910390f35b6009602052816000526040600020818154811015156105d757fe5b9060005260206000209060040201600091509150508060000160009054906101000a900460ff16908060010154908060020154908060030154905084565b61061d611e83565b60096000838152602001908152602001600020805480602002602001604051908101604052809291908181526020016000905b828210156106bc5783829060005260206000209060040201608060405190810160405290816000820160009054906101000a900460ff16151515158152602001600182015481526020016002820154815260200160038201548152505081526020019060010190610650565b505050509050919050565b600080881115156106d757600080fd5b6000871115156106e657600080fd5b8688101515156106f557600080fd5b60008611151561070457600080fd5b881561073457600054600160000154890281151561071e57fe5b043487021015151561072f57600080fd5b610758565b600054600160000154890281151561074857fe5b04341015151561075757600080fd5b5b6000600960008481526020019081526020016000208054905011151561077d57600080fd5b6009600083815260200190815260200160002080548060010182816107a29190611e97565b916000526020600020906004020160006080604051908101604052808d151581526020018c81526020018b81526020018a815250909190915060008201518160000160006101000a81548160ff021916908315150217905550602082015181600101556040820151816002015560608201518160030155505050600a600083815260200190815260200160002080548060010182816108419190611ec9565b916000526020600020906003020160006060604051908101604052808973ffffffffffffffffffffffffffffffffffffffff16815260200188815260200187815250909190915060008201518160000160006101000a81548173ffffffffffffffffffffffffffffffffffffffff021916908373ffffffffffffffffffffffffffffffffffffffff16021790555060208201518160010190805190602001906108eb929190611efb565b506040820151816002019080519060200190610908929190611efb565b505050506001905098975050505050505050565b60078060000154908060010154905082565b60005481565b600080600060096000868152602001908152602001600020805490508410151561095d57600080fd5b600a60008681526020019081526020016000208481548110151561097d57fe5b906000526020600020906003020160000160009054906101000a900473ffffffffffffffffffffffffffffffffffffffff1673ffffffffffffffffffffffffffffffffffffffff163373ffffffffffffffffffffffffffffffffffffffff161415156109e857600080fd5b6009600086815260200190815260200160002084815481101515610a0857fe5b90600052602060002090600402016003015491506009600086815260200190815260200160002084815481101515610a3c57fe5b90600052602060002090600402016001015490506009600086815260200190815260200160002084815481101515610a7057fe5b906000526020600020906004020160000160009054906101000a900460ff1615610af1573373ffffffffffffffffffffffffffffffffffffffff166108fc836001800154600160000154038402811515610ac657fe5b049081150290604051600060405180830381858888f193505050501515610aec57600080fd5b610b4a565b3373ffffffffffffffffffffffffffffffffffffffff166108fc836001800154600160000154038402811515610b2357fe5b049081150290604051600060405180830381858888f193505050501515610b4957600080fd5b5b6009600086815260200190815260200160002084815481101515610b6a57fe5b9060005260206000209060040201600080820160006101000a81549060ff02191690556001820160009055600282016000905560038201600090555050600a600086815260200190815260200160002084815481101515610bc757fe5b9060005260206000209060030201600080820160006101000a81549073ffffffffffffffffffffffffffffffffffffffff0219169055600182016000610c0d9190611f7b565b600282016000610c1d9190611f7b565b50506001600b86815481101515610c3057fe5b906000526020600020900160008282540192505081905550610c5185610fdf565b5060019250505092915050565b610c66611fc3565b600a6000838152602001908152602001600020805480602002602001604051908101604052809291908181526020016000905b82821015610e665783829060005260206000209060030201606060405190810160405290816000820160009054906101000a900473ffffffffffffffffffffffffffffffffffffffff1673ffffffffffffffffffffffffffffffffffffffff1673ffffffffffffffffffffffffffffffffffffffff168152602001600182018054600181600116156101000203166002900480601f016020809104026020016040519081016040528092919081815260200182805460018160011615610100020316600290048015610dac5780601f10610d8157610100808354040283529160200191610dac565b820191906000526020600020905b815481529060010190602001808311610d8f57829003601f168201915b50505050508152602001600282018054600181600116156101000203166002900480601f016020809104026020016040519081016040528092919081815260200182805460018160011615610100020316600290048015610e4e5780601f10610e2357610100808354040283529160200191610e4e565b820191906000526020600020905b815481529060010190602001808311610e3157829003601f168201915b50505050508152505081526020019060010190610c99565b505050509050919050565b60018060000154908060010154908060020154908060030154908060040154908060050154905086565b600080600080610eae8989898989611229565b1515610ebd5760009350610f6f565b610ec88888886112c7565b925092506000821415610ede5760009350610f6f565b600054826001600001546001600301540202811515610ef957fe5b0490508873ffffffffffffffffffffffffffffffffffffffff166108fc829081150290604051600060405180830381858888f193505050501515610f3c57600080fd5b610f468183611520565b610f53888888868661158c565b610f6088888886866119c4565b610f6988610fdf565b50600193505b50505095945050505050565b600a60205281600052604060002081815481101515610f9657fe5b9060005260206000209060030201600091509150508060000160009054906101000a900473ffffffffffffffffffffffffffffffffffffffff1690806001019080600201905083565b600080600160020154600b84815481101515610ff757fe5b90600052602060002090015410156110125760009150611223565b600190505b60096000848152602001908152602001600020805490508110156111ac576000600960008581526020019081526020016000208281548110151561105757fe5b906000526020600020906004020160010154141561119f57600160096000858152602001908152602001600020805490500381101561119e5760096000848152602001908152602001600020600182018154811015156110b357fe5b906000526020600020906004020160096000858152602001908152602001600020828154811015156110e157fe5b90600052602060002090600402016000820160009054906101000a900460ff168160000160006101000a81548160ff021916908315150217905550600182015481600101556002820154816002015560038201548160030155905050600960008481526020019081526020016000206001820181548110151561116057fe5b9060005260206000209060040201600080820160006101000a81549060ff021916905560018201600090556002820160009055600382016000905550505b5b8080600101915050611017565b600b838154811015156111bb57fe5b90600052602060002090015460096000858152602001908152602001600020805490500360096000858152602001908152602001600020816111fd9190611fd7565b506000600b8481548110151561120f57fe5b906000526020600020900181905550600191505b50919050565b60008585858585604051808673ffffffffffffffffffffffffffffffffffffffff1673ffffffffffffffffffffffffffffffffffffffff166c01000000000000000000000000028152601401858152602001848152602001838152602001828152602001955050505050506040518091039020600019166001600501546000191611156112b957600090506112be565b600190505b95945050505050565b6000806000806112d5612009565b6112dd612009565b6112e8898989611d10565b15156113005760008081915080905095509550611514565b600960008a81526020019081526020016000208881548110151561132057fe5b906000526020600020906004020160000160009054906101000a900460ff161561134f57879350869250611356565b8693508792505b600960008a81526020019081526020016000208481548110151561137657fe5b9060005260206000209060040201608060405190810160405290816000820160009054906101000a900460ff1615151515815260200160018201548152602001600282015481526020016003820154815250509150600960008a8152602001908152602001600020838154811015156113eb57fe5b9060005260206000209060040201608060405190810160405290816000820160009054906101000a900460ff16151515158152602001600182015481526020016002820154815260200160038201548152505090508060600151826060015110156114625760008081915080905095509550611514565b6002816060015183606001510181151561147857fe5b0495508581602001510260005483602001510211156114ca578581602001510260005483604001510211156114b95760008081915080905095509550611514565b858682602001510295509550611514565b600054826020015102868260200151021115611509576000548260200151028682604001510211156115085760008081915080905095509550611514565b5b858260200151955095505b50505050935093915050565b600054816001600001540281151561153457fe5b0460076000015403600760000181905550600054816001600001540281151561155957fe5b0482600760010154030160076001018190555060016004015460076001015410151561158857611587611e76565b5b5050565b7f17fad608e647bf180e9f2d2542498a2ec81fb1cb077d60802b67b21d64adc9b8600a6000878152602001908152602001600020858154811015156115cd57fe5b906000526020600020906003020160000160009054906101000a900473ffffffffffffffffffffffffffffffffffffffff16600a60008881526020019081526020016000208581548110151561161f57fe5b906000526020600020906003020160000160009054906101000a900473ffffffffffffffffffffffffffffffffffffffff16600a60008981526020019081526020016000208781548110151561167157fe5b9060005260206000209060030201600101600a60008a8152602001908152602001600020878154811015156116a257fe5b9060005260206000209060030201600101600a60008b8152602001908152602001600020898154811015156116d357fe5b9060005260206000209060030201600201600a60008c81526020019081526020016000208981548110151561170457fe5b90600052602060002090600302016002018888604051808973ffffffffffffffffffffffffffffffffffffffff1673ffffffffffffffffffffffffffffffffffffffff1681526020018873ffffffffffffffffffffffffffffffffffffffff1673ffffffffffffffffffffffffffffffffffffffff1681526020018060200180602001806020018060200187815260200186815260200185810385528b81815460018160011615610100020316600290048152602001915080546001816001161561010002031660029004801561181c5780601f106117f15761010080835404028352916020019161181c565b820191906000526020600020905b8154815290600101906020018083116117ff57829003601f168201915b505085810384528a81815460018160011615610100020316600290048152602001915080546001816001161561010002031660029004801561189f5780601f106118745761010080835404028352916020019161189f565b820191906000526020600020905b81548152906001019060200180831161188257829003601f168201915b50508581038352898181546001816001161561010002031660029004815260200191508054600181600116156101000203166002900480156119225780601f106118f757610100808354040283529160200191611922565b820191906000526020600020905b81548152906001019060200180831161190557829003601f168201915b50508581038252888181546001816001161561010002031660029004815260200191508054600181600116156101000203166002900480156119a55780601f1061197a576101008083540402835291602001916119a5565b820191906000526020600020905b81548152906001019060200180831161198857829003601f168201915b50509c5050505050505050505050505060405180910390a15050505050565b60008060096000888152602001908152602001600020868154811015156119e757fe5b906000526020600020906004020160000160009054906101000a900460ff1615611a1657859150849050611a1d565b8491508590505b826009600089815260200190815260200160002083815481101515611a3e57fe5b9060005260206000209060040201600101541415611a80576001600b88815481101515611a6757fe5b9060005260206000209001600082825401925050819055505b826009600089815260200190815260200160002083815481101515611aa157fe5b9060005260206000209060040201600201541015611af55760006009600089815260200190815260200160002083815481101515611adb57fe5b906000526020600020906004020160020181905550611b35565b826009600089815260200190815260200160002083815481101515611b1657fe5b9060005260206000209060040201600201600082825403925050819055505b826009600089815260200190815260200160002083815481101515611b5657fe5b906000526020600020906004020160010160008282540392505081905550600054848402811515611b8357fe5b046009600089815260200190815260200160002082815481101515611ba457fe5b9060005260206000209060040201600101541415611be6576001600b88815481101515611bcd57fe5b9060005260206000209001600082825401925050819055505b600054848402811515611bf557fe5b046009600089815260200190815260200160002082815481101515611c1657fe5b9060005260206000209060040201600201541015611c6a5760006009600089815260200190815260200160002082815481101515611c5057fe5b906000526020600020906004020160020181905550611cb9565b600054848402811515611c7957fe5b046009600089815260200190815260200160002082815481101515611c9a57fe5b9060005260206000209060040201600201600082825403925050819055505b600054848402811515611cc857fe5b046009600089815260200190815260200160002082815481101515611ce957fe5b90600052602060002090600402016001016000828254039250508190555050505050505050565b6000600960008581526020019081526020016000208054905083101515611d3657600080fd5b600960008581526020019081526020016000208054905082101515611d5a57600080fd5b6009600085815260200190815260200160002082815481101515611d7a57fe5b906000526020600020906004020160000160009054906101000a900460ff1615156009600086815260200190815260200160002084815481101515611dbb57fe5b906000526020600020906004020160000160009054906101000a900460ff16151514151515611de957600080fd5b60006009600086815260200190815260200160002084815481101515611e0b57fe5b90600052602060002090600402016001015414151515611e2a57600080fd5b60006009600086815260200190815260200160002083815481101515611e4c57fe5b90600052602060002090600402016001015414151515611e6b57600080fd5b600190509392505050565b6000600760010181905550565b602060405190810160405280600081525090565b815481835581811511611ec457600402816004028360005260206000209182019101611ec39190612034565b5b505050565b815481835581811511611ef657600302816003028360005260206000209182019101611ef5919061207f565b5b505050565b828054600181600116156101000203166002900490600052602060002090601f016020900481019282601f10611f3c57805160ff1916838001178555611f6a565b82800160010185558215611f6a579182015b82811115611f69578251825591602001919060010190611f4e565b5b509050611f7791906120e5565b5090565b50805460018160011615610100020316600290046000825580601f10611fa15750611fc0565b601f016020900490600052602060002090810190611fbf91906120e5565b5b50565b602060405190810160405280600081525090565b815481835581811511612004576004028160040283600052602060002091820191016120039190612034565b5b505050565b6080604051908101604052806000151581526020016000815260200160008152602001600081525090565b61207c91905b8082111561207857600080820160006101000a81549060ff02191690556001820160009055600282016000905560038201600090555060040161203a565b5090565b90565b6120e291905b808211156120de57600080820160006101000a81549073ffffffffffffffffffffffffffffffffffffffff02191690556001820160006120c59190611f7b565b6002820160006120d59190611f7b565b50600301612085565b5090565b90565b61210791905b808211156121035760008160009055506001016120eb565b5090565b90565b856001600001819055508460018001819055508360016002018190555082600160030181905550816001600401819055508060016005018160001916905550505050505050565b60006009600080815260200190815260200160002080548060010182816121789190611e97565b9160005260206000209060040201600060806040519081016040528060001515815260200160008152602001600081526020016000815250909190915060008201518160000160006101000a81548160ff021916908315150217905550602082015181600101556040820151816002015560608201518160030155505050600a6000808152602001908152602001600020805480600101828161221b9190611ec9565b91600052602060002090600302016000606060405190810160405280600073ffffffffffffffffffffffffffffffffffffffff168152602001602060405190810160405280600081525081526020016020604051908101604052806000815250815250909190915060008201518160000160006101000a81548173ffffffffffffffffffffffffffffffffffffffff021916908373ffffffffffffffffffffffffffffffffffffffff16021790555060208201518160010190805190602001906122e6929190611efb565b506040820151816002019080519060200190612303929190611efb565b5050505060019050905600a165627a7a7230582085b5ef49f4b88970b9643305ee4c0d6f243228cd2e6301cce31a76d22904bc7d0029",
  "source": "pragma solidity ^0.4.18;\n\nimport 'zeppelin-solidity/contracts/math/SafeMath.sol';\nimport './ExchangeStructs.sol';\n/// @title Exchange\n/// @author Karim Helmy\n\n// Primary contract: Describes functions of exchange\ncontract Exchange is ExchangeStructs {\n  // TODO: Make all operations safe\n  using SafeMath for uint;\n\n  uint public PRECISION = 10 ** 18;\n\n  Parameters public params;\n  Balances public exBalances;\n\n  // separate chapters for different currency pairs\n  // that's why they're 2D mappings\n  mapping (uint => Order[]) public orderBook;\n  // Order[][] public orderBook;\n  mapping (uint => AddressInfo[]) public addressBook;\n  // AddressInfo[][] private addressBook;\n  // Numbers of orders that have been closed are kept here\n  uint[] numsCleared;\n\n  // Constructor for contract\n  function Exchange(uint closureFee, uint cancelFee,\n                    uint cleanSize, uint minerShare, uint distBalance,\n                    bytes32 difficulty)\n    public\n  {\n    // Initialize parameters books\n    setParams(closureFee, cancelFee,\n              cleanSize, minerShare, distBalance, difficulty);\n    // Initialize order books\n    setBooks();\n    // Initialize numsCleared[0] as zero\n    numsCleared.push(0);\n    return;\n  }\n\n  // Initializes orderBook and addressBook\n  // Only used in constructor\n  function setBooks()\n    private\n    returns(bool passes)\n  {\n    orderBook[0].push(Order(false,0,0,0));\n    addressBook[0].push(AddressInfo(address(0),\"\",\"\"));\n    return true;\n  }\n\n  // Init the params struct, which contains the bulk of exchange's parameters\n  // Only used in constructor\n  function setParams(uint closureFee, uint cancelFee,\n                    uint cleanSize, uint minerShare, uint distBalance,\n                    bytes32 difficulty)\n    internal\n  {\n    params.closureFee = closureFee;\n    params.cancelFee = cancelFee;\n    params.cleanSize = cleanSize;\n    params.minerShare = minerShare;\n    params.distBalance = distBalance;\n    params.difficulty = difficulty;\n  }\n\n  // Gets live orders in chapter (trading pair) from order book\n  function getOrderChapter(uint chapter)\n    public\n    view\n    returns(Order[] orderChapter)\n  {\n    return orderBook[chapter];\n  }\n\n  // Gets live addresses in chapter (trading pair) from order book\n  function getAddressChapter(uint chapter)\n    public\n    view\n    returns(AddressInfo[] addressChapter)\n  {\n    return addressBook[chapter];\n  }\n\n  // Checks edge cases for match verification\n  function checkMatchEdges(uint chapter, uint index1, uint index2)\n    private\n    view\n    returns(bool passes)\n  {\n    // valid indices\n    require(index1 < orderBook[chapter].length);\n    require(index2 < orderBook[chapter].length);\n    //One buy order and one sell order\n    require(orderBook[chapter][index1].buyETH != orderBook[chapter][index2].buyETH);\n    //Non-empty order\n    require(orderBook[chapter][index1].volume != 0);\n    require(orderBook[chapter][index2].volume != 0);\n    // All edge cases work!\n    return true;\n  }\n\n  // verifies that match is valid\n  function calcRateAndVol(uint chapter, uint index1, uint index2)\n    private\n    view\n    returns (uint mimRate, uint ethVol)\n  {\n    // check edge cases\n    if (! checkMatchEdges(chapter, index1, index2)) {\n      return (0,0);\n    }\n    // which order is buying and selling ETH?\n    // buy-sell copy1\n    uint buyIndex;\n    uint sellIndex;\n    if (orderBook[chapter][index1].buyETH) {\n      buyIndex = index1;\n      sellIndex = index2;\n    } else{\n      buyIndex = index2;\n      sellIndex = index1;\n    }\n    // shorthand for buy and sell orders\n    Order memory buyOrder = orderBook[chapter][buyIndex];\n    Order memory sellOrder = orderBook[chapter][sellIndex];\n\n    // Non-contradictory limits\n    if (buyOrder.limit < sellOrder.limit) {\n      return (0, 0);\n    }\n    // Meet in middle rate\n    // mimRate\n    mimRate = (buyOrder.limit + sellOrder.limit) / 2;\n    // Volumes comparable\n    if (buyOrder.volume * PRECISION > sellOrder.volume * mimRate) {\n      if (buyOrder.minVolume * PRECISION > sellOrder.volume * mimRate) {\n        return (0, 0);\n      }\n      return (mimRate, sellOrder.volume * mimRate);\n    }\n    if (sellOrder.volume * mimRate > buyOrder.volume * PRECISION ) {\n      if (sellOrder.minVolume * mimRate > buyOrder.volume * PRECISION) {\n        return (0, 0);\n      }\n    }\n    return (mimRate, buyOrder.volume);\n  }\n\n  // Clears closed trade, reenters into order book if incomplete\n  function clearTrade(uint chapter, uint index1, uint index2,\n                      uint mimRate, uint ethVol)\n    private\n  {\n    // which order is buying and selling ETH?\n    // buy-sell copy1\n    uint buyIndex;\n    uint sellIndex;\n    if (orderBook[chapter][index1].buyETH) {\n      buyIndex = index1;\n      sellIndex = index2;\n    } else{\n      buyIndex = index2;\n      sellIndex = index1;\n    }\n    if (orderBook[chapter][buyIndex].volume == ethVol) {\n      numsCleared[chapter] += 1;\n    }\n    if (orderBook[chapter][buyIndex].minVolume < ethVol) {\n      orderBook[chapter][buyIndex].minVolume = 0;\n    } else{\n      orderBook[chapter][buyIndex].minVolume -= ethVol;\n    }\n    orderBook[chapter][buyIndex].volume -= ethVol;\n    if (orderBook[chapter][sellIndex].volume == (ethVol * mimRate / PRECISION)) {\n      numsCleared[chapter] += 1;\n    }\n    if (orderBook[chapter][sellIndex].minVolume < (ethVol * mimRate / PRECISION)) {\n      orderBook[chapter][sellIndex].minVolume = 0;\n    } else{\n      orderBook[chapter][sellIndex].minVolume -= (ethVol * mimRate / PRECISION);\n    }\n    orderBook[chapter][sellIndex].volume -= ethVol * mimRate / PRECISION;\n  }\n\n  // Adds trade to log, for traders to note\n  // http://solidity.readthedocs.io/en/latest/contracts.html?highlight=events#events\n  function alertTraders(uint chapter, uint index1, uint index2, uint mimRate, uint ethVol)\n    private\n  {\n    TradeInfo(\n      addressBook[chapter][index1].ethAddress, //ethAddress1,\n      addressBook[chapter][index2].ethAddress, //ethAddress2,\n      addressBook[chapter][index1].firstAddress, //firstAddress1,\n      addressBook[chapter][index2].firstAddress, //firstAddress2,\n      addressBook[chapter][index1].otherAddress, //otherAddress1,\n      addressBook[chapter][index2].otherAddress, // otherAddress2,\n      mimRate,\n      ethVol\n      );\n  }\n\n  // Clears exBalances.closedBalance\n  // ValexToken ovverride distributes dividends when balance is of sufficient size\n  // TODO: Make dividends distributed by time, not quantity\n  // TODO: Add forced dividend distribution\n  function distDividends()\n    internal\n  {\n    exBalances.closedBalance = 0;\n  }\n\n  // Move balance from open to closed\n  // Eliminate minerPayment from either balance\n  function clearBalance(uint minerPayment, uint ethVol)\n    private\n  {\n    exBalances.openBalance = (exBalances.openBalance -\n                                  (params.closureFee * ethVol / PRECISION));\n    exBalances.closedBalance = (exBalances.closedBalance -\n                                  minerPayment +\n                                  (params.closureFee * ethVol / PRECISION));\n    if (exBalances.closedBalance >= params.distBalance) {\n      distDividends();\n    }\n  }\n\n  // Clean chapter (called when size reaches size to clean)\n  function cleanChapter(uint chapter)\n    private\n    returns(bool cleaned)\n  {\n    // Clean chapter only if size is appropriate\n    if (numsCleared[chapter] < params.cleanSize) {\n      return false;\n    }\n    // For all orders\n    // If it's a cleared order:\n    // Replace it with the next one, and clear the next one\n    for (uint i = 1; i < orderBook[chapter].length; i++) {\n      if (orderBook[chapter][i].volume == 0) {\n        if (i < orderBook[chapter].length - 1) {\n          orderBook[chapter][i] = orderBook[chapter][i+1];\n          delete orderBook[chapter][i+1];\n        }\n      }\n    }\n    orderBook[chapter].length = orderBook[chapter].length - numsCleared[chapter];\n    numsCleared[chapter] = 0;\n    return true;\n  }\n\n  // Checks if POW (nonce) is valid\n  // Performs nonce verification (keccak256)\n  // Helper for giveMatch\n  function isValidPOW(address depositAddress, uint chapter, uint index1,\n                      uint index2, uint nonce)\n    private\n    view\n    returns(bool isValid)\n  {\n    if (params.difficulty > keccak256(depositAddress, chapter, index1, index2, nonce)) {\n      return false;\n    }\n    return true;\n  }\n\n  // Miners suggest matches with this function\n  // Wrapper for calcRateAndVol and isValidPOW, performs other required functions\n  function giveMatch(address depositAddress, uint chapter,\n                    uint index1, uint index2, uint nonce)\n    public\n    payable\n    returns(bool isValid)\n  {\n    // Validate that nonce is equivalent\n    // postImage adds entropy if trade volume is small\n    // Helper for giveMatch\n    if (! isValidPOW(depositAddress, chapter, index1, index2, nonce)) {\n      return false;\n    }\n    var (mimRate, ethVol) = calcRateAndVol(chapter, index1, index2);\n    if (ethVol == 0) {\n      return false;\n    }\n    // calculate the miner's payment\n    uint minerPayment = ((params.minerShare * params.closureFee * ethVol) /\n                          PRECISION);\n    depositAddress.transfer(minerPayment);\n    clearBalance(minerPayment, ethVol);\n    alertTraders(chapter, index1, index2, mimRate, ethVol);\n    clearTrade(chapter, index1, index2, mimRate, ethVol);\n    cleanChapter(chapter);\n    return true;\n  }\n\n  // Allows traders to place orders\n  function placeOrder(bool buyETH, uint volume, uint minVolume, uint limit,\n                      address ethAddress, string firstAddress,\n                      string otherAddress, uint chapter)\n    public\n    payable\n    returns(bool accepted)\n  {\n    require(volume > 0);\n    require(minVolume > 0);\n    require(volume >= minVolume);\n    require(limit > 0);\n    // TODO: NEXT VERSION: Charge according to transaction vol for generic currencies\n    // Use market rate\n    if (buyETH) {\n      require(limit * msg.value >= volume * params.closureFee / PRECISION);\n    } else{\n      require(msg.value >= volume * params.closureFee / PRECISION);\n    }\n    require(orderBook[chapter].length > 0);\n    orderBook[chapter].push(Order(buyETH, volume, minVolume, limit));\n    addressBook[chapter].push(AddressInfo(ethAddress, firstAddress, otherAddress));\n    return true;\n  }\n\n  // Allows traders to cancel orders\n  function cancelOrder(uint chapter, uint index)\n    public\n    returns(bool accepted)\n  {\n    require(index < orderBook[chapter].length);\n    // Can't cancel other people's orders\n    require(msg.sender == addressBook[chapter][index].ethAddress);\n    // uint volume = orderBook[chapter][index].volume;\n    uint limit = orderBook[chapter][index].limit;\n    uint volume = orderBook[chapter][index].volume;\n    // TODO: NEXT VERSION: Refund according to transaction vol for generic currencies\n    // Use market rate\n    // Refund according to ether transaction volume\n    if (orderBook[chapter][index].buyETH) {\n      msg.sender.transfer(volume * (params.closureFee - params.cancelFee) / limit);\n    } else{\n      msg.sender.transfer(volume * (params.closureFee - params.cancelFee) / limit);\n    }\n    delete orderBook[chapter][index];\n    delete addressBook[chapter][index];\n    numsCleared[chapter] += 1;\n    cleanChapter(chapter);\n    return true;\n  }\n}\n",
  "sourcePath": "/Users/Karim/Desktop/Valex/contracts/Exchange.sol",
  "compiler": {
    "name": "solc",
    "version": "0.4.18+commit.9cf6e910.Emscripten.clang"
  },
  "schemaVersion": "1.0.1",
  "updatedAt": "2018-02-16T04:26:47.357Z"
}