{
  "contractName": "Exchange",
  "abi": [
    {
      "constant": true,
      "inputs": [
        {
          "name": "",
          "type": "uint256"
        },
        {
          "name": "",
          "type": "uint256"
        },
        {
          "name": "",
          "type": "uint256"
        }
      ],
      "name": "secondAddressBook",
      "outputs": [
        {
          "name": "",
          "type": "bytes32"
        }
      ],
      "payable": false,
      "stateMutability": "view",
      "type": "function"
    },
    {
      "constant": true,
      "inputs": [
        {
          "name": "chapter",
          "type": "uint256"
        }
      ],
      "name": "getSecondAddressChapter",
      "outputs": [
        {
          "name": "secondAddressChapter",
          "type": "bytes32[2][]"
        }
      ],
      "payable": false,
      "stateMutability": "view",
      "type": "function"
    },
    {
      "constant": true,
      "inputs": [
        {
          "name": "",
          "type": "uint256"
        },
        {
          "name": "",
          "type": "uint256"
        },
        {
          "name": "",
          "type": "uint256"
        }
      ],
      "name": "firstAddressBook",
      "outputs": [
        {
          "name": "",
          "type": "bytes32"
        }
      ],
      "payable": false,
      "stateMutability": "view",
      "type": "function"
    },
    {
      "constant": true,
      "inputs": [
        {
          "name": "",
          "type": "uint256"
        },
        {
          "name": "",
          "type": "uint256"
        }
      ],
      "name": "buyBook",
      "outputs": [
        {
          "name": "",
          "type": "bool"
        }
      ],
      "payable": false,
      "stateMutability": "view",
      "type": "function"
    },
    {
      "constant": true,
      "inputs": [
        {
          "name": "chapter",
          "type": "uint256"
        }
      ],
      "name": "getOrderChapter",
      "outputs": [
        {
          "name": "buyChapter",
          "type": "bool[]"
        },
        {
          "name": "volChapter",
          "type": "uint256[]"
        },
        {
          "name": "minVolChapter",
          "type": "uint256[]"
        },
        {
          "name": "limitChapter",
          "type": "uint256[]"
        }
      ],
      "payable": false,
      "stateMutability": "view",
      "type": "function"
    },
    {
      "constant": false,
      "inputs": [
        {
          "name": "buyETH",
          "type": "bool"
        },
        {
          "name": "volume",
          "type": "uint256"
        },
        {
          "name": "minVolume",
          "type": "uint256"
        },
        {
          "name": "limit",
          "type": "uint256"
        },
        {
          "name": "ethAddress",
          "type": "address"
        },
        {
          "name": "firstAddress",
          "type": "bytes32[2]"
        },
        {
          "name": "otherAddress",
          "type": "bytes32[2]"
        },
        {
          "name": "chapter",
          "type": "uint256"
        }
      ],
      "name": "placeOrder",
      "outputs": [
        {
          "name": "accepted",
          "type": "bool"
        }
      ],
      "payable": true,
      "stateMutability": "payable",
      "type": "function"
    },
    {
      "constant": true,
      "inputs": [
        {
          "name": "",
          "type": "uint256"
        },
        {
          "name": "",
          "type": "uint256"
        }
      ],
      "name": "ethAddressBook",
      "outputs": [
        {
          "name": "",
          "type": "address"
        }
      ],
      "payable": false,
      "stateMutability": "view",
      "type": "function"
    },
    {
      "constant": true,
      "inputs": [
        {
          "name": "",
          "type": "uint256"
        },
        {
          "name": "",
          "type": "uint256"
        }
      ],
      "name": "limitBook",
      "outputs": [
        {
          "name": "",
          "type": "uint256"
        }
      ],
      "payable": false,
      "stateMutability": "view",
      "type": "function"
    },
    {
      "constant": true,
      "inputs": [],
      "name": "owner",
      "outputs": [
        {
          "name": "",
          "type": "address"
        }
      ],
      "payable": false,
      "stateMutability": "view",
      "type": "function"
    },
    {
      "constant": true,
      "inputs": [
        {
          "name": "chapter",
          "type": "uint256"
        },
        {
          "name": "index1",
          "type": "uint256"
        },
        {
          "name": "index2",
          "type": "uint256"
        }
      ],
      "name": "calcRateAndVol",
      "outputs": [
        {
          "name": "mimRate",
          "type": "uint256"
        },
        {
          "name": "ethVol",
          "type": "uint256"
        }
      ],
      "payable": false,
      "stateMutability": "view",
      "type": "function"
    },
    {
      "constant": true,
      "inputs": [],
      "name": "openBalance",
      "outputs": [
        {
          "name": "",
          "type": "uint256"
        }
      ],
      "payable": false,
      "stateMutability": "view",
      "type": "function"
    },
    {
      "constant": true,
      "inputs": [
        {
          "name": "",
          "type": "uint256"
        },
        {
          "name": "",
          "type": "uint256"
        }
      ],
      "name": "minVolBook",
      "outputs": [
        {
          "name": "",
          "type": "uint256"
        }
      ],
      "payable": false,
      "stateMutability": "view",
      "type": "function"
    },
    {
      "constant": false,
      "inputs": [
        {
          "name": "_newOwner",
          "type": "address"
        }
      ],
      "name": "changeOwner",
      "outputs": [],
      "payable": false,
      "stateMutability": "nonpayable",
      "type": "function"
    },
    {
      "constant": true,
      "inputs": [],
      "name": "PRECISION",
      "outputs": [
        {
          "name": "",
          "type": "uint256"
        }
      ],
      "payable": false,
      "stateMutability": "view",
      "type": "function"
    },
    {
      "constant": false,
      "inputs": [
        {
          "name": "chapter",
          "type": "uint256"
        },
        {
          "name": "index",
          "type": "uint256"
        }
      ],
      "name": "cancelOrder",
      "outputs": [
        {
          "name": "accepted",
          "type": "bool"
        }
      ],
      "payable": false,
      "stateMutability": "nonpayable",
      "type": "function"
    },
    {
      "constant": false,
      "inputs": [
        {
          "name": "chapter",
          "type": "uint256"
        }
      ],
      "name": "addChapter",
      "outputs": [],
      "payable": false,
      "stateMutability": "nonpayable",
      "type": "function"
    },
    {
      "constant": true,
      "inputs": [],
      "name": "params",
      "outputs": [
        {
          "name": "closureFee",
          "type": "uint256"
        },
        {
          "name": "cancelFee",
          "type": "uint256"
        },
        {
          "name": "cleanSize",
          "type": "uint256"
        },
        {
          "name": "minerShare",
          "type": "uint256"
        },
        {
          "name": "difficulty",
          "type": "bytes32"
        }
      ],
      "payable": false,
      "stateMutability": "view",
      "type": "function"
    },
    {
      "constant": false,
      "inputs": [
        {
          "name": "depositAddress",
          "type": "address"
        },
        {
          "name": "chapter",
          "type": "uint256"
        },
        {
          "name": "index1",
          "type": "uint256"
        },
        {
          "name": "index2",
          "type": "uint256"
        },
        {
          "name": "nonce",
          "type": "uint256"
        }
      ],
      "name": "giveMatch",
      "outputs": [
        {
          "name": "isValid",
          "type": "bool"
        }
      ],
      "payable": false,
      "stateMutability": "nonpayable",
      "type": "function"
    },
    {
      "constant": true,
      "inputs": [
        {
          "name": "chapter",
          "type": "uint256"
        }
      ],
      "name": "getETHAddressChapter",
      "outputs": [
        {
          "name": "ethAddressChapter",
          "type": "address[]"
        }
      ],
      "payable": false,
      "stateMutability": "view",
      "type": "function"
    },
    {
      "constant": true,
      "inputs": [
        {
          "name": "",
          "type": "uint256"
        },
        {
          "name": "",
          "type": "uint256"
        }
      ],
      "name": "volBook",
      "outputs": [
        {
          "name": "",
          "type": "uint256"
        }
      ],
      "payable": false,
      "stateMutability": "view",
      "type": "function"
    },
    {
      "constant": true,
      "inputs": [
        {
          "name": "chapter",
          "type": "uint256"
        }
      ],
      "name": "getFirstAddressChapter",
      "outputs": [
        {
          "name": "firstAddressChapter",
          "type": "bytes32[2][]"
        }
      ],
      "payable": false,
      "stateMutability": "view",
      "type": "function"
    },
    {
      "inputs": [
        {
          "name": "closureFee",
          "type": "uint256"
        },
        {
          "name": "cancelFee",
          "type": "uint256"
        },
        {
          "name": "cleanSize",
          "type": "uint256"
        },
        {
          "name": "minerShare",
          "type": "uint256"
        },
        {
          "name": "difficulty",
          "type": "bytes32"
        }
      ],
      "payable": false,
      "stateMutability": "nonpayable",
      "type": "constructor"
    },
    {
      "anonymous": false,
      "inputs": [
        {
          "indexed": false,
          "name": "ethAddress1",
          "type": "address"
        },
        {
          "indexed": false,
          "name": "ethAddress2",
          "type": "address"
        },
        {
          "indexed": false,
          "name": "firstAddress1",
          "type": "bytes32[2]"
        },
        {
          "indexed": false,
          "name": "firstAddress2",
          "type": "bytes32[2]"
        },
        {
          "indexed": false,
          "name": "otherAddress1",
          "type": "bytes32[2]"
        },
        {
          "indexed": false,
          "name": "otherAddress2",
          "type": "bytes32[2]"
        },
        {
          "indexed": false,
          "name": "mimRate",
          "type": "uint256"
        },
        {
          "indexed": false,
          "name": "ethVol",
          "type": "uint256"
        }
      ],
      "name": "TradeInfo",
      "type": "event"
    }
  ],
  "bytecode": "0x6060604052670de0b6b3a7640000600055600060015533600f60006101000a81548173ffffffffffffffffffffffffffffffffffffffff021916908373ffffffffffffffffffffffffffffffffffffffff16021790555034156200006257600080fd5b60405160a0806200375083398101604052808051906020019091908051906020019091908051906020019091908051906020019091908051906020019091905050620000c68585858585620000f164010000000002620030fd176401000000009004565b620000e660006200012d64010000000002620017e3176401000000009004565b5050505050620005db565b84600260000181905550836002600101819055508260028001819055508160026003018190555080600260040181600019169055505050505050565b600f60009054906101000a900473ffffffffffffffffffffffffffffffffffffffff168073ffffffffffffffffffffffffffffffffffffffff163373ffffffffffffffffffffffffffffffffffffffff161415156200018b57600080fd5b600760008381526020019081526020016000208054806001018281620001b2919062000431565b91600052602060002090602091828204019190066000909190916101000a81548160ff021916908315150217905550506008600083815260200190815260200160002080548060010182816200020991906200046e565b9160005260206000209001600080909190915055506009600083815260200190815260200160002080548060010182816200024591906200046e565b916000526020600020900160008090919091505550600a600083815260200190815260200160002080548060010182816200028191906200046e565b916000526020600020900160008090919091505550600b60008381526020019081526020016000208054806001018281620002bd91906200049d565b9160005260206000209001600080909190916101000a81548173ffffffffffffffffffffffffffffffffffffffff021916908373ffffffffffffffffffffffffffffffffffffffff16021790555050600c60008381526020019081526020016000208054806001018281620003339190620004cc565b9160005260206000209060020201600060408051908101604052806000600102600019166000191681526020016000600102600019166000191681525090919091509060026200038592919062000501565b5050600d60008381526020019081526020016000208054806001018281620003ae9190620004cc565b9160005260206000209060020201600060408051908101604052806000600102600019166000191681526020016000600102600019166000191681525090919091509060026200040092919062000501565b5050600e80548060010182816200041891906200046e565b9160005260206000209001600080909190915055505050565b8154818355818115116200046957601f016020900481601f016020900483600052602060002091820191016200046891906200054c565b5b505050565b81548183558181151162000498578183600052602060002091820191016200049791906200054c565b5b505050565b815481835581811511620004c757818360005260206000209182019101620004c691906200054c565b5b505050565b815481835581811511620004fc57600202816002028360005260206000209182019101620004fb919062000574565b5b505050565b826002810192821562000539579160200282015b828111156200053857825182906000191690559160200191906001019062000515565b5b509050620005489190620005a5565b5090565b6200057191905b808211156200056d57600081600090555060010162000553565b5090565b90565b620005a291905b808211156200059e5760008181620005949190620005cd565b506002016200057b565b5090565b90565b620005ca91905b80821115620005c6576000816000905550600101620005ac565b5090565b90565b506000815560010160009055565b61316580620005eb6000396000f30060606040526004361061011d576000357c0100000000000000000000000000000000000000000000000000000000900463ffffffff16806310fc8a1514610122578063145404fc14610173578063324a14671461020e5780633af8c2d51461025f5780633b6a0800146102a357806349827685146103f357806353c1d882146104c05780638139cbc61461052c5780638da5cb5b1461056c5780638eae03d2146105c15780639138ec3a146106115780639febbcfa1461063a578063a6f9dae11461067a578063aaf5eb68146106b3578063b6ed0632146106dc578063c759b91e14610720578063cff0ab9614610743578063d2426ab914610790578063e0cfdce014610805578063e0f1f59f1461087d578063ee4b94bb146108bd575b600080fd5b341561012d57600080fd5b6101556004808035906020019091908035906020019091908035906020019091905050610958565b60405180826000191660001916815260200191505060405180910390f35b341561017e57600080fd5b610194600480803590602001909190505061099b565b60405180806020018281038252838181518152602001915080516000925b818410156101fd57828490602001906020020151600260200280838360005b838110156101ec5780820151818401526020810190506101d1565b5050505090500192600101926101b2565b925050509250505060405180910390f35b341561021957600080fd5b6102416004808035906020019091908035906020019091908035906020019091905050610a48565b60405180826000191660001916815260200191505060405180910390f35b341561026a57600080fd5b6102896004808035906020019091908035906020019091905050610a8b565b604051808215151515815260200191505060405180910390f35b34156102ae57600080fd5b6102c46004808035906020019091905050610acd565b6040518080602001806020018060200180602001858103855289818151815260200191508051906020019060200280838360005b838110156103135780820151818401526020810190506102f8565b50505050905001858103845288818151815260200191508051906020019060200280838360005b8381101561035557808201518184015260208101905061033a565b50505050905001858103835287818151815260200191508051906020019060200280838360005b8381101561039757808201518184015260208101905061037c565b50505050905001858103825286818151815260200191508051906020019060200280838360005b838110156103d95780820151818401526020810190506103be565b505050509050019850505050505050505060405180910390f35b6104a66004808035151590602001909190803590602001909190803590602001909190803590602001909190803573ffffffffffffffffffffffffffffffffffffffff1690602001909190806040019060028060200260405190810160405280929190826002602002808284378201915050505050919080604001906002806020026040519081016040528092919082600260200280828437820191505050505091908035906020019091905050610cb5565b604051808215151515815260200191505060405180910390f35b34156104cb57600080fd5b6104ea6004808035906020019091908035906020019091905050610fc8565b604051808273ffffffffffffffffffffffffffffffffffffffff1673ffffffffffffffffffffffffffffffffffffffff16815260200191505060405180910390f35b341561053757600080fd5b6105566004808035906020019091908035906020019091905050611016565b6040518082815260200191505060405180910390f35b341561057757600080fd5b61057f611047565b604051808273ffffffffffffffffffffffffffffffffffffffff1673ffffffffffffffffffffffffffffffffffffffff16815260200191505060405180910390f35b34156105cc57600080fd5b6105f4600480803590602001909190803590602001909190803590602001909190505061106d565b604051808381526020018281526020019250505060405180910390f35b341561061c57600080fd5b61062461132d565b6040518082815260200191505060405180910390f35b341561064557600080fd5b6106646004808035906020019091908035906020019091905050611333565b6040518082815260200191505060405180910390f35b341561068557600080fd5b6106b1600480803573ffffffffffffffffffffffffffffffffffffffff16906020019091905050611364565b005b34156106be57600080fd5b6106c6611406565b6040518082815260200191505060405180910390f35b34156106e757600080fd5b610706600480803590602001909190803590602001909190505061140c565b604051808215151515815260200191505060405180910390f35b341561072b57600080fd5b61074160048080359060200190919050506117e3565b005b341561074e57600080fd5b610756611ad2565b6040518086815260200185815260200184815260200183815260200182600019166000191681526020019550505050505060405180910390f35b341561079b57600080fd5b6107eb600480803573ffffffffffffffffffffffffffffffffffffffff16906020019091908035906020019091908035906020019091908035906020019091908035906020019091905050611af6565b604051808215151515815260200191505060405180910390f35b341561081057600080fd5b6108266004808035906020019091905050611bff565b6040518080602001828103825283818151815260200191508051906020019060200280838360005b8381101561086957808201518184015260208101905061084e565b505050509050019250505060405180910390f35b341561088857600080fd5b6108a76004808035906020019091908035906020019091905050611ca6565b6040518082815260200191505060405180910390f35b34156108c857600080fd5b6108de6004808035906020019091905050611cd7565b60405180806020018281038252838181518152602001915080516000925b8184101561094757828490602001906020020151600260200280838360005b8381101561093657808201518184015260208101905061091b565b5050505090500192600101926108fc565b925050509250505060405180910390f35b600d6020528260005260406000208281548110151561097357fe5b90600052602060002090600202018160028110151561098e57fe5b0160009250925050505481565b6109a3612df3565b600d6000838152602001908152602001600020805480602002602001604051908101604052809291908181526020016000905b82821015610a3d5783829060005260206000209060020201600280602002604051908101604052809291908260028015610a29576020028201915b81546000191681526020019060010190808311610a11575b5050505050815260200190600101906109d6565b505050509050919050565b600c60205282600052604060002082815481101515610a6357fe5b906000526020600020906002020181600281101515610a7e57fe5b0160009250925050505481565b600760205281600052604060002081815481101515610aa657fe5b9060005260206000209060209182820401919006915091509054906101000a900460ff1681565b610ad5612e07565b610add612e1b565b610ae5612e1b565b610aed612e1b565b600760008681526020019081526020016000206008600087815260200190815260200160002060096000888152602001908152602001600020600a600089815260200190815260200160002083805480602002602001604051908101604052809291908181526020018280548015610ba957602002820191906000526020600020906000905b82829054906101000a900460ff16151581526020019060010190602082600001049283019260010382029150808411610b735790505b5050505050935082805480602002602001604051908101604052809291908181526020018280548015610bfb57602002820191906000526020600020905b815481526020019060010190808311610be7575b5050505050925081805480602002602001604051908101604052809291908181526020018280548015610c4d57602002820191906000526020600020905b815481526020019060010190808311610c39575b5050505050915080805480602002602001604051908101604052809291908181526020018280548015610c9f57602002820191906000526020600020905b815481526020019060010190808311610c8b575b5050505050905093509350935093509193509193565b60008088111515610cc557600080fd5b600087111515610cd457600080fd5b868810151515610ce357600080fd5b600086111515610cf257600080fd5b8815610d3f57600260000154880234870210151515610d1057600080fd5b60005460005402866002600001548a0202811515610d2a57fe5b04600160008282540192505081905550610d87565b6000546002600001548902811515610d5357fe5b043410151515610d6257600080fd5b6000546002600001548902811515610d7657fe5b046001600082825401925050819055505b60006007600084815260200190815260200160002080549050111515610dac57600080fd5b600760008381526020019081526020016000208054806001018281610dd19190612e2f565b91600052602060002090602091828204019190068b909190916101000a81548160ff02191690831515021790555050600860008381526020019081526020016000208054806001018281610e259190612e69565b916000526020600020900160008a90919091505550600960008381526020019081526020016000208054806001018281610e5f9190612e69565b916000526020600020900160008990919091505550600a60008381526020019081526020016000208054806001018281610e999190612e69565b916000526020600020900160008890919091505550600b60008381526020019081526020016000208054806001018281610ed39190612e95565b9160005260206000209001600087909190916101000a81548173ffffffffffffffffffffffffffffffffffffffff021916908373ffffffffffffffffffffffffffffffffffffffff16021790555050600c60008381526020019081526020016000208054806001018281610f479190612ec1565b91600052602060002090600202016000869091909150906002610f6b929190612ef3565b5050600d60008381526020019081526020016000208054806001018281610f929190612ec1565b91600052602060002090600202016000859091909150906002610fb6929190612ef3565b50506001905098975050505050505050565b600b60205281600052604060002081815481101515610fe357fe5b90600052602060002090016000915091509054906101000a900473ffffffffffffffffffffffffffffffffffffffff1681565b600a6020528160005260406000208181548110151561103157fe5b9060005260206000209001600091509150505481565b600f60009054906101000a900473ffffffffffffffffffffffffffffffffffffffff1681565b60008060008061107b612f39565b611083612f39565b61108e898989611d84565b15156110a65760008081915080905095509550611321565b600760008a8152602001908152602001600020888154811015156110c657fe5b90600052602060002090602091828204019190069054906101000a900460ff16156110f6578793508692506110fd565b8693508792505b608060405190810160405280600115158152602001600860008c81526020019081526020016000208681548110151561113257fe5b9060005260206000209001548152602001600960008c81526020019081526020016000208681548110151561116357fe5b9060005260206000209001548152602001600a60008c81526020019081526020016000208681548110151561119457fe5b9060005260206000209001548152509150608060405190810160405280600015158152602001600860008c8152602001908152602001600020858154811015156111da57fe5b9060005260206000209001548152602001600960008c81526020019081526020016000208581548110151561120b57fe5b9060005260206000209001548152602001600a60008c81526020019081526020016000208581548110151561123c57fe5b906000526020600020900154815250905080606001518260600151101561126f5760008081915080905095509550611321565b6002816060015183606001510181151561128557fe5b0495508581602001510260005483602001510211156112d7578581602001510260005483604001510211156112c65760008081915080905095509550611321565b858682602001510295509550611321565b600054826020015102868260200151021115611316576000548260200151028682604001510211156113155760008081915080905095509550611321565b5b858260200151955095505b50505050935093915050565b60015481565b60096020528160005260406000208181548110151561134e57fe5b9060005260206000209001600091509150505481565b600f60009054906101000a900473ffffffffffffffffffffffffffffffffffffffff168073ffffffffffffffffffffffffffffffffffffffff163373ffffffffffffffffffffffffffffffffffffffff161415156113c157600080fd5b81600f60006101000a81548173ffffffffffffffffffffffffffffffffffffffff021916908373ffffffffffffffffffffffffffffffffffffffff1602179055505050565b60005481565b600080600060076000868152602001908152602001600020805490508410151561143557600080fd5b600b60008681526020019081526020016000208481548110151561145557fe5b906000526020600020900160009054906101000a900473ffffffffffffffffffffffffffffffffffffffff1673ffffffffffffffffffffffffffffffffffffffff163373ffffffffffffffffffffffffffffffffffffffff161415156114ba57600080fd5b600a6000868152602001908152602001600020848154811015156114da57fe5b9060005260206000209001549150600860008681526020019081526020016000208481548110151561150857fe5b9060005260206000209001549050600760008681526020019081526020016000208481548110151561153657fe5b90600052602060002090602091828204019190069054906101000a900460ff16156115b9573373ffffffffffffffffffffffffffffffffffffffff166108fc8360026001015460026000015403840281151561158e57fe5b049081150290604051600060405180830381858888f1935050505015156115b457600080fd5b611613565b3373ffffffffffffffffffffffffffffffffffffffff166108fc836002600101546002600001540384028115156115ec57fe5b049081150290604051600060405180830381858888f19350505050151561161257600080fd5b5b600760008681526020019081526020016000208481548110151561163357fe5b90600052602060002090602091828204019190066101000a81549060ff0219169055600860008681526020019081526020016000208481548110151561167557fe5b90600052602060002090016000905560096000868152602001908152602001600020848154811015156116a457fe5b906000526020600020900160009055600a6000868152602001908152602001600020848154811015156116d357fe5b906000526020600020900160009055600b60008681526020019081526020016000208481548110151561170257fe5b906000526020600020900160006101000a81549073ffffffffffffffffffffffffffffffffffffffff0219169055600c60008681526020019081526020016000208481548110151561175057fe5b9060005260206000209060020201600061176a9190612f64565b600d60008681526020019081526020016000208481548110151561178a57fe5b906000526020600020906002020160006117a49190612f64565b6001600e868154811015156117b557fe5b9060005260206000209001600082825401925050819055506117d685611ee0565b5060019250505092915050565b600f60009054906101000a900473ffffffffffffffffffffffffffffffffffffffff168073ffffffffffffffffffffffffffffffffffffffff163373ffffffffffffffffffffffffffffffffffffffff1614151561184057600080fd5b6007600083815260200190815260200160002080548060010182816118659190612e2f565b91600052602060002090602091828204019190066000909190916101000a81548160ff021916908315150217905550506008600083815260200190815260200160002080548060010182816118ba9190612e69565b9160005260206000209001600080909190915055506009600083815260200190815260200160002080548060010182816118f49190612e69565b916000526020600020900160008090919091505550600a6000838152602001908152602001600020805480600101828161192e9190612e69565b916000526020600020900160008090919091505550600b600083815260200190815260200160002080548060010182816119689190612e95565b9160005260206000209001600080909190916101000a81548173ffffffffffffffffffffffffffffffffffffffff021916908373ffffffffffffffffffffffffffffffffffffffff16021790555050600c600083815260200190815260200160002080548060010182816119dc9190612ec1565b916000526020600020906002020160006040805190810160405280600060010260001916600019168152602001600060010260001916600019168152509091909150906002611a2c929190612ef3565b5050600d60008381526020019081526020016000208054806001018281611a539190612ec1565b916000526020600020906002020160006040805190810160405280600060010260001916600019168152602001600060010260001916600019168152509091909150906002611aa3929190612ef3565b5050600e8054806001018281611ab99190612e69565b9160005260206000209001600080909190915055505050565b60028060000154908060010154908060020154908060030154908060040154905085565b6000806000806000611b0b8a8a8a8a8a6126e2565b1515611b1657600080fd5b611b2189898961106d565b93509350600083111515611b3457600080fd5b600760008a815260200190815260200160002088815481101515611b5457fe5b90600052602060002090602091828204019190069054906101000a900460ff1615611b8457879150869050611b8b565b8691508790505b611b958a84612780565b611bca83600a60008c815260200190815260200160002084815481101515611bb957fe5b9060005260206000209001546127e8565b611bd7898989878761283a565b611be48989898787612ae2565b611bed89611ee0565b50600194505050505095945050505050565b611c07612f72565b600b6000838152602001908152602001600020805480602002602001604051908101604052809291908181526020018280548015611c9a57602002820191906000526020600020905b8160009054906101000a900473ffffffffffffffffffffffffffffffffffffffff1673ffffffffffffffffffffffffffffffffffffffff1681526020019060010190808311611c50575b50505050509050919050565b600860205281600052604060002081815481101515611cc157fe5b9060005260206000209001600091509150505481565b611cdf612df3565b600c6000838152602001908152602001600020805480602002602001604051908101604052809291908181526020016000905b82821015611d795783829060005260206000209060020201600280602002604051908101604052809291908260028015611d65576020028201915b81546000191681526020019060010190808311611d4d575b505050505081526020019060010190611d12565b505050509050919050565b6000600760008581526020019081526020016000208054905083101515611daa57600080fd5b600760008581526020019081526020016000208054905082101515611dce57600080fd5b6007600085815260200190815260200160002082815481101515611dee57fe5b90600052602060002090602091828204019190069054906101000a900460ff1615156007600086815260200190815260200160002084815481101515611e3057fe5b90600052602060002090602091828204019190069054906101000a900460ff16151514151515611e5f57600080fd5b60006008600086815260200190815260200160002084815481101515611e8157fe5b90600052602060002090015414151515611e9a57600080fd5b60006008600086815260200190815260200160002083815481101515611ebc57fe5b90600052602060002090015414151515611ed557600080fd5b600190509392505050565b6000806002800154600e84815481101515611ef757fe5b9060005260206000209001541015611f1257600091506126dc565b600190505b60076000848152602001908152602001600020805490508110156124795760006008600085815260200190815260200160002082815481101515611f5757fe5b906000526020600020900154141561246c57600160076000858152602001908152602001600020805490500381101561246b576007600084815260200190815260200160002060018201815481101515611fad57fe5b90600052602060002090602091828204019190069054906101000a900460ff166007600085815260200190815260200160002082815481101515611fed57fe5b90600052602060002090602091828204019190066101000a81548160ff021916908315150217905550600860008481526020019081526020016000206001820181548110151561203957fe5b906000526020600020900154600860008581526020019081526020016000208281548110151561206557fe5b906000526020600020900181905550600960008481526020019081526020016000206001820181548110151561209757fe5b90600052602060002090015460096000858152602001908152602001600020828154811015156120c357fe5b906000526020600020900181905550600a6000848152602001908152602001600020600182018154811015156120f557fe5b906000526020600020900154600a60008581526020019081526020016000208281548110151561212157fe5b906000526020600020900181905550600b60008481526020019081526020016000206001820181548110151561215357fe5b906000526020600020900160009054906101000a900473ffffffffffffffffffffffffffffffffffffffff16600b60008581526020019081526020016000208281548110151561219f57fe5b906000526020600020900160006101000a81548173ffffffffffffffffffffffffffffffffffffffff021916908373ffffffffffffffffffffffffffffffffffffffff160217905550600c60008481526020019081526020016000206001820181548110151561220b57fe5b9060005260206000209060020201600c60008581526020019081526020016000208281548110151561223957fe5b9060005260206000209060020201906002612255929190612f86565b50600d60008481526020019081526020016000206001820181548110151561227957fe5b9060005260206000209060020201600d6000858152602001908152602001600020828154811015156122a757fe5b90600052602060002090600202019060026122c3929190612f86565b5060076000848152602001908152602001600020600182018154811015156122e757fe5b90600052602060002090602091828204019190066101000a81549060ff0219169055600860008481526020019081526020016000206001820181548110151561232c57fe5b906000526020600020900160009055600960008481526020019081526020016000206001820181548110151561235e57fe5b906000526020600020900160009055600a60008481526020019081526020016000206001820181548110151561239057fe5b906000526020600020900160009055600b6000848152602001908152602001600020600182018154811015156123c257fe5b906000526020600020900160006101000a81549073ffffffffffffffffffffffffffffffffffffffff0219169055600c60008481526020019081526020016000206001820181548110151561241357fe5b9060005260206000209060020201600061242d9190612f64565b600d60008481526020019081526020016000206001820181548110151561245057fe5b9060005260206000209060020201600061246a9190612f64565b5b5b8080600101915050611f17565b600e8381548110151561248857fe5b90600052602060002090015460076000858152602001908152602001600020805490500360076000858152602001908152602001600020816124ca9190612fc3565b50600e838154811015156124da57fe5b906000526020600020900154600860008581526020019081526020016000208054905003600860008581526020019081526020016000208161251c9190612ffd565b50600e8381548110151561252c57fe5b906000526020600020900154600960008581526020019081526020016000208054905003600960008581526020019081526020016000208161256e9190612ffd565b50600e8381548110151561257e57fe5b906000526020600020900154600a60008581526020019081526020016000208054905003600a6000858152602001908152602001600020816125c09190612ffd565b50600e838154811015156125d057fe5b906000526020600020900154600b60008581526020019081526020016000208054905003600b6000858152602001908152602001600020816126129190613029565b50600e8381548110151561262257fe5b906000526020600020900154600c60008581526020019081526020016000208054905003600c6000858152602001908152602001600020816126649190613055565b50600e8381548110151561267457fe5b906000526020600020900154600d60008581526020019081526020016000208054905003600d6000858152602001908152602001600020816126b69190613055565b506000600e848154811015156126c857fe5b906000526020600020900181905550600191505b50919050565b60008585858585604051808673ffffffffffffffffffffffffffffffffffffffff1673ffffffffffffffffffffffffffffffffffffffff166c01000000000000000000000000028152601401858152602001848152602001838152602001828152602001955050505050506040518091039020600019166002600401546000191610156127725760009050612777565b600190505b95945050505050565b60008054600054028260026000015460026003015402028115156127a057fe5b0490508273ffffffffffffffffffffffffffffffffffffffff166108fc829081150290604051600060405180830381858888f1935050505015156127e357600080fd5b505050565b60005482600260000154028115156127fc57fe5b04600160008282540392505081905550600054600054028183600260000154020281151561282657fe5b046001600082825403925050819055505050565b7f389a889e7f65d263df200f5a0bc042c0ba9d0c600161ff14d87cc1daa06b8e6d600b60008781526020019081526020016000208581548110151561287b57fe5b906000526020600020900160009054906101000a900473ffffffffffffffffffffffffffffffffffffffff16600b6000888152602001908152602001600020858154811015156128c757fe5b906000526020600020900160009054906101000a900473ffffffffffffffffffffffffffffffffffffffff16600c60008981526020019081526020016000208781548110151561291357fe5b9060005260206000209060020201600c60008a81526020019081526020016000208781548110151561294157fe5b9060005260206000209060020201600d60008b81526020019081526020016000208981548110151561296f57fe5b9060005260206000209060020201600d60008c81526020019081526020016000208981548110151561299d57fe5b90600052602060002090600202018888604051808973ffffffffffffffffffffffffffffffffffffffff1673ffffffffffffffffffffffffffffffffffffffff1681526020018873ffffffffffffffffffffffffffffffffffffffff1673ffffffffffffffffffffffffffffffffffffffff1681526020018760028015612a3d576020028201915b81546000191681526020019060010190808311612a25575b50508660028015612a67576020028201915b81546000191681526020019060010190808311612a4f575b50508560028015612a91576020028201915b81546000191681526020019060010190808311612a79575b50508460028015612abb576020028201915b81546000191681526020019060010190808311612aa3575b50508381526020018281526020019850505050505050505060405180910390a15050505050565b6000806007600088815260200190815260200160002086815481101515612b0557fe5b90600052602060002090602091828204019190069054906101000a900460ff1615612b3557859150849050612b3c565b8491508590505b826008600089815260200190815260200160002083815481101515612b5d57fe5b9060005260206000209001541415612b99576001600e88815481101515612b8057fe5b9060005260206000209001600082825401925050819055505b826009600089815260200190815260200160002083815481101515612bba57fe5b9060005260206000209001541015612c025760006009600089815260200190815260200160002083815481101515612bee57fe5b906000526020600020900181905550612c3c565b826009600089815260200190815260200160002083815481101515612c2357fe5b9060005260206000209001600082825403925050819055505b826008600089815260200190815260200160002083815481101515612c5d57fe5b906000526020600020900160008282540392505081905550600054848402811515612c8457fe5b046008600089815260200190815260200160002082815481101515612ca557fe5b9060005260206000209001541415612ce1576001600e88815481101515612cc857fe5b9060005260206000209001600082825401925050819055505b600054848402811515612cf057fe5b046009600089815260200190815260200160002082815481101515612d1157fe5b9060005260206000209001541015612d595760006009600089815260200190815260200160002082815481101515612d4557fe5b906000526020600020900181905550612da2565b600054848402811515612d6857fe5b046009600089815260200190815260200160002082815481101515612d8957fe5b9060005260206000209001600082825403925050819055505b600054848402811515612db157fe5b046008600089815260200190815260200160002082815481101515612dd257fe5b90600052602060002090016000828254039250508190555050505050505050565b602060405190810160405280600081525090565b602060405190810160405280600081525090565b602060405190810160405280600081525090565b815481835581811511612e6457601f016020900481601f01602090048360005260206000209182019101612e639190613087565b5b505050565b815481835581811511612e9057818360005260206000209182019101612e8f9190613087565b5b505050565b815481835581811511612ebc57818360005260206000209182019101612ebb9190613087565b5b505050565b815481835581811511612eee57600202816002028360005260206000209182019101612eed91906130ac565b5b505050565b8260028101928215612f28579160200282015b82811115612f27578251829060001916905591602001919060010190612f06565b5b509050612f3591906130d8565b5090565b6080604051908101604052806000151581526020016000815260200160008152602001600081525090565b506000815560010160009055565b602060405190810160405280600081525090565b8260028101928215612fb2579182015b82811115612fb1578254825591600101919060010190612f96565b5b509050612fbf91906130d8565b5090565b815481835581811511612ff857601f016020900481601f01602090048360005260206000209182019101612ff79190613087565b5b505050565b815481835581811511613024578183600052602060002091820191016130239190613087565b5b505050565b8154818355818115116130505781836000526020600020918201910161304f9190613087565b5b505050565b8154818355818115116130825760020281600202836000526020600020918201910161308191906130ac565b5b505050565b6130a991905b808211156130a557600081600090555060010161308d565b5090565b90565b6130d591905b808211156130d157600081816130c89190612f64565b506002016130b2565b5090565b90565b6130fa91905b808211156130f65760008160009055506001016130de565b5090565b90565b846002600001819055508360026001018190555082600280018190555081600260030181905550806002600401816000191690555050505050505600a165627a7a72305820ae40eb2c7af345b746dbf1ee72a0c13e634bb3d94f9cfcc0be6a4670f8f60e840029",
  "source": "pragma solidity ^0.4.18;\n\nimport 'zeppelin-solidity/contracts/math/SafeMath.sol';\nimport './ExchangeStructs.sol';\n/// @title Exchange\n/// @author Karim Helmy\n\n// Primary contract: Describes functions of exchange\ncontract Exchange is ExchangeStructs {\n  // TODO: Make all operations safe\n  using SafeMath for uint;\n\n  // SECTION: Declaring/initializing variables\n  uint public PRECISION = 10 ** 18;\n\n  // separate out the open balance (includes unclosed fees, gas fees),\n  // which will be distributed between miners, the exchange, and traders,\n  // from closed balance, which belongs to the exchange\n  uint public openBalance = 0;\n\n  Parameters public params;\n\n  // separate chapters for different currency pairs\n  // that's why they're 2D\n  /*\n  * Web3 can't properly handle structs.\n  * Ethers.js can only handle them under experimental version.\n  * Therefore, the old orderBook and adressBook pattern won't work.\n  * \\_()_/\n  */\n  // separate chapters for different currency pairs\n  // that's why they're 2D\n  mapping (uint => bool[]) public buyBook;\n  mapping (uint => uint[]) public volBook;\n  mapping (uint => uint[]) public minVolBook;\n  mapping (uint => uint[]) public limitBook;\n\n  mapping (uint => address[]) public ethAddressBook;\n  mapping (uint => bytes32[2][]) public firstAddressBook;\n  mapping (uint => bytes32[2][]) public secondAddressBook;\n\n  // Numbers of orders that have been closed are kept here\n  uint[] numsCleared;\n\n  address public owner = msg.sender;\n\n  // SECTION: Permissions\n  // Modified: http://solidity.readthedocs.io/en/v0.3.1/common-patterns.html\n  modifier onlyBy(address _account)\n  {\n    require(msg.sender == _account);\n    _;\n  }\n\n  function changeOwner(address _newOwner)\n    public\n    onlyBy(owner)\n  {\n    owner = _newOwner;\n  }\n\n  // SECTION: Constructor and helpers\n  // Constructor for contract\n  function Exchange(uint closureFee, uint cancelFee,\n                    uint cleanSize, uint minerShare,\n                    bytes32 difficulty)\n    public\n  {\n    // Initialize parameters books\n    setParams(closureFee, cancelFee,\n              cleanSize, minerShare, difficulty);\n    // Initialize order books\n    addChapter(0);\n    return;\n  }\n\n  /*\n  * Initializes order book and address book for chapter\n  * Only used in constructor\n  * Pushes \"genesis order\" to chapter\n  * ONLY USE FOR MOST RECENT CHAPTER + 1\n  */\n  function addChapter(uint chapter)\n    public\n    onlyBy(owner)\n  {\n    buyBook[chapter].push(false);\n    volBook[chapter].push(0);\n    minVolBook[chapter].push(0);\n    limitBook[chapter].push(0);\n\n    ethAddressBook[chapter].push(address(0));\n    firstAddressBook[chapter].push([bytes32(0), bytes32(0)]);\n    secondAddressBook[chapter].push([bytes32(0), bytes32(0)]);\n    // Initialize numsCleared[chapter] as zero\n    numsCleared.push(0);\n  }\n\n  // Init the params struct, which contains the bulk of exchange's parameters\n  // Only used in constructor\n  function setParams(uint closureFee, uint cancelFee,\n                    uint cleanSize, uint minerShare,\n                    bytes32 difficulty)\n    internal\n  {\n    params.closureFee = closureFee;\n    params.cancelFee = cancelFee;\n    params.cleanSize = cleanSize;\n    params.minerShare = minerShare;\n    params.difficulty = difficulty;\n  }\n\n  // SECTION: Getters\n  // Get chapter from order book\n  function getOrderChapter(uint chapter)\n    external\n    view\n    returns(bool[] buyChapter, uint[] volChapter,\n            uint[] minVolChapter, uint[] limitChapter)\n  {\n    return(buyBook[chapter], volBook[chapter],\n          minVolBook[chapter], limitBook[chapter]);\n  }\n\n  /*\n  * Wish I could've bundled these.\n  * For some reason, get a bug when firstAddressChapter and secondAddressChapter are together.\n  * Suspect it has something to do with returning dynamic arrays of fixed size arrays\n  */\n  // Get chapter from ethAddressBook\n  function getETHAddressChapter(uint chapter)\n    external\n    view\n    returns(address[] ethAddressChapter)\n  {\n    return(ethAddressBook[chapter]);\n  }\n\n  // Get chapter from firstAddressBook\n  function getFirstAddressChapter(uint chapter)\n    external\n    view\n    returns(bytes32[2][] firstAddressChapter)\n  {\n    return(firstAddressBook[chapter]);\n  }\n\n  // Get chapter from secondAddressBook\n  function getSecondAddressChapter(uint chapter)\n    external\n    view\n    returns(bytes32[2][] secondAddressChapter)\n  {\n    return(secondAddressBook[chapter]);\n  }\n\n  // SECTION: Core functionality\n  // Checks edge cases for match verification\n  function checkMatchEdges(uint chapter, uint index1, uint index2)\n    private\n    view\n    returns(bool passes)\n  {\n    // valid indices\n    require(index1 < buyBook[chapter].length);\n    require(index2 < buyBook[chapter].length);\n    //One buy order and one sell order\n    require(buyBook[chapter][index1] != buyBook[chapter][index2]);\n    //Non-empty order\n    require(volBook[chapter][index1] != 0);\n    require(volBook[chapter][index2] != 0);\n    // All edge cases work!\n    return true;\n  }\n\n  // verifies that match is valid\n  function calcRateAndVol(uint chapter, uint index1, uint index2)\n    public\n    view\n    returns (uint mimRate, uint ethVol)\n  {\n    // check edge cases\n    if (! checkMatchEdges(chapter, index1, index2)) {\n      return (0,0);\n    }\n    // which order is buying and selling ETH?\n    // buy-sell copy1\n    uint buyIndex;\n    uint sellIndex;\n    if (buyBook[chapter][index1]) {\n      buyIndex = index1;\n      sellIndex = index2;\n    } else{\n      buyIndex = index2;\n      sellIndex = index1;\n    }\n    // shorthand for buy and sell orders\n    Order memory buyOrder = Order(true, volBook[chapter][buyIndex],\n                                  minVolBook[chapter][buyIndex],\n                                  limitBook[chapter][buyIndex]);\n    Order memory sellOrder = Order(false, volBook[chapter][sellIndex],\n                                  minVolBook[chapter][sellIndex],\n                                  limitBook[chapter][sellIndex]);\n\n    // Non-contradictory limits\n    if (buyOrder.limit < sellOrder.limit) {\n      return (0, 0);\n    }\n    // Meet in middle rate\n    // mimRate\n    mimRate = (buyOrder.limit + sellOrder.limit) / 2;\n    // Volumes comparable\n    if (buyOrder.volume * PRECISION > sellOrder.volume * mimRate) {\n      if (buyOrder.minVolume * PRECISION > sellOrder.volume * mimRate) {\n        return (0, 0);\n      }\n      return (mimRate, sellOrder.volume * mimRate);\n    }\n    if (sellOrder.volume * mimRate > buyOrder.volume * PRECISION ) {\n      if (sellOrder.minVolume * mimRate > buyOrder.volume * PRECISION) {\n        return (0, 0);\n      }\n    }\n    return (mimRate, buyOrder.volume);\n  }\n\n  // Clears closed trade, reenters into order book if incomplete\n  function clearTrade(uint chapter, uint index1, uint index2,\n                      uint mimRate, uint ethVol)\n    private\n  {\n    // which order is buying and selling ETH?\n    // buy-sell copy1\n    uint buyIndex;\n    uint sellIndex;\n    if (buyBook[chapter][index1]) {\n      buyIndex = index1;\n      sellIndex = index2;\n    } else{\n      buyIndex = index2;\n      sellIndex = index1;\n    }\n    if (volBook[chapter][buyIndex] == ethVol) {\n      numsCleared[chapter] += 1;\n    }\n    if (minVolBook[chapter][buyIndex] < ethVol) {\n      minVolBook[chapter][buyIndex] = 0;\n    } else{\n      minVolBook[chapter][buyIndex] -= ethVol;\n    }\n    volBook[chapter][buyIndex] -= ethVol;\n    if (volBook[chapter][sellIndex] == (ethVol * mimRate / PRECISION)) {\n      numsCleared[chapter] += 1;\n    }\n    if (minVolBook[chapter][sellIndex] < (ethVol * mimRate / PRECISION)) {\n      minVolBook[chapter][sellIndex] = 0;\n    } else{\n      minVolBook[chapter][sellIndex] -= (ethVol * mimRate / PRECISION);\n    }\n    volBook[chapter][sellIndex] -= ethVol * mimRate / PRECISION;\n  }\n\n  // Adds trade to log, for traders to note\n  // http://solidity.readthedocs.io/en/latest/contracts.html?highlight=events#events\n  function alertTraders(uint chapter, uint index1, uint index2, uint mimRate, uint ethVol)\n    private\n  {\n    TradeInfo(\n      ethAddressBook[chapter][index1], //ethAddress1,\n      ethAddressBook[chapter][index2], //ethAddress2,\n      firstAddressBook[chapter][index1], //firstAddress1,\n      firstAddressBook[chapter][index2], //firstAddress2,\n      secondAddressBook[chapter][index1], //otherAddress1,\n      secondAddressBook[chapter][index2], // otherAddress2,\n      mimRate,\n      ethVol\n      );\n  }\n\n  // Move balance from open to closed\n  function clearBalance(uint ethVol, uint buyLimit)\n    private\n  {\n    openBalance -= (params.closureFee * ethVol) / PRECISION;\n    openBalance -= (params.closureFee * ethVol * buyLimit) / (PRECISION * PRECISION);\n  }\n\n  // Clean chapter (called when size reaches size to clean)\n  function cleanChapter(uint chapter)\n    private\n    returns(bool cleaned)\n  {\n    // Clean chapter only if size is appropriate\n    if (numsCleared[chapter] < params.cleanSize) {\n      return false;\n    }\n    // For all orders\n    // If it's a cleared order:\n    // Replace it with the next one, and clear the next one\n    for (uint i = 1; i < buyBook[chapter].length; i++) {\n      if (volBook[chapter][i] == 0) {\n        if (i < buyBook[chapter].length - 1) {\n          buyBook[chapter][i] = buyBook[chapter][i+1];\n          volBook[chapter][i] = volBook[chapter][i+1];\n          minVolBook[chapter][i] = minVolBook[chapter][i+1];\n          limitBook[chapter][i] = limitBook[chapter][i+1];\n\n          ethAddressBook[chapter][i] = ethAddressBook[chapter][i+1];\n          firstAddressBook[chapter][i] = firstAddressBook[chapter][i+1];\n          secondAddressBook[chapter][i] = secondAddressBook[chapter][i+1];\n\n          delete buyBook[chapter][i+1];\n          delete volBook[chapter][i+1];\n          delete minVolBook[chapter][i+1];\n          delete limitBook[chapter][i+1];\n\n          delete ethAddressBook[chapter][i+1];\n          delete firstAddressBook[chapter][i+1];\n          delete secondAddressBook[chapter][i+1];\n        }\n      }\n    }\n    buyBook[chapter].length = buyBook[chapter].length - numsCleared[chapter];\n    volBook[chapter].length = volBook[chapter].length - numsCleared[chapter];\n    minVolBook[chapter].length = minVolBook[chapter].length - numsCleared[chapter];\n    limitBook[chapter].length = limitBook[chapter].length - numsCleared[chapter];\n\n    ethAddressBook[chapter].length = ethAddressBook[chapter].length - numsCleared[chapter];\n    firstAddressBook[chapter].length = firstAddressBook[chapter].length - numsCleared[chapter];\n    secondAddressBook[chapter].length = secondAddressBook[chapter].length - numsCleared[chapter];\n\n    numsCleared[chapter] = 0;\n    return true;\n  }\n\n  // Checks if POW (nonce) is valid\n  // Performs nonce verification (keccak256)\n  // Helper for giveMatch\n  function isValidPOW(address depositAddress, uint chapter, uint index1,\n                      uint index2, uint nonce)\n    private\n    view\n    returns(bool isValid)\n  {\n    if (params.difficulty < keccak256(depositAddress, chapter, index1, index2, nonce)) {\n      return false;\n    }\n    return true;\n  }\n\n  // Function to pay the miner what's due\n  function payMiner(address depositAddress, uint ethVol)\n    private\n  {\n    // Calculate the miner's payment\n    uint minerPayment = ((params.minerShare * params.closureFee * ethVol) /\n                          (PRECISION * PRECISION));\n    // Pay the miner\n    depositAddress.transfer(minerPayment);\n  }\n\n  // Miners suggest matches with this function\n  // Wrapper for calcRateAndVol and isValidPOW, performs other required functions\n  function giveMatch(address depositAddress, uint chapter,\n                    uint index1, uint index2, uint nonce)\n    public\n    returns(bool isValid)\n  {\n    // Validate nonce\n    require(isValidPOW(depositAddress, chapter, index1, index2, nonce));\n    var (mimRate, ethVol) = calcRateAndVol(chapter, index1, index2);\n    require(ethVol > 0);\n    // which order is buying and selling ETH?\n    // buy-sell copy1\n    uint buyIndex;\n    uint sellIndex;\n    if (buyBook[chapter][index1]) {\n      buyIndex = index1;\n      sellIndex = index2;\n    } else{\n      buyIndex = index2;\n      sellIndex = index1;\n    }\n    payMiner(depositAddress, ethVol);\n    clearBalance(ethVol, limitBook[chapter][buyIndex]);\n    alertTraders(chapter, index1, index2, mimRate, ethVol);\n    clearTrade(chapter, index1, index2, mimRate, ethVol);\n    cleanChapter(chapter);\n    return true;\n  }\n\n  // Allows traders to place orders\n  function placeOrder(bool buyETH, uint volume, uint minVolume, uint limit,\n                      address ethAddress, bytes32[2] firstAddress,\n                      bytes32[2] otherAddress, uint chapter)\n    public\n    payable\n    returns(bool accepted)\n  {\n    require(volume > 0);\n    require(minVolume > 0);\n    require(volume >= minVolume);\n    require(limit > 0);\n    // TODO: NEXT VERSION: Charge according to transaction vol for generic currencies\n    // Use market rate\n    // TODO: NEXT VERSION: Instant refunds (prototype code below)\n    if (buyETH) {\n      require(limit * msg.value >= volume * params.closureFee);\n      openBalance += volume * params.closureFee * limit / (PRECISION * PRECISION);\n      //msg.sender.transfer((limit * msg.value) - (volume * params.closureFee));\n    } else{\n      require(msg.value >= volume * params.closureFee / PRECISION);\n      openBalance += volume * params.closureFee / PRECISION;\n      //msg.sender.transfer(msg.value - (volume * params.closureFee / PRECISION));\n    }\n    require(buyBook[chapter].length > 0);\n\n    buyBook[chapter].push(buyETH);\n    volBook[chapter].push(volume);\n    minVolBook[chapter].push(minVolume);\n    limitBook[chapter].push(limit);\n\n    ethAddressBook[chapter].push(ethAddress);\n    firstAddressBook[chapter].push(firstAddress);\n    secondAddressBook[chapter].push(otherAddress);\n    return true;\n  }\n\n  // Allows traders to cancel orders\n  function cancelOrder(uint chapter, uint index)\n    public\n    returns(bool accepted)\n  {\n    require(index < buyBook[chapter].length);\n    // Can't cancel other people's orders\n    require(msg.sender == ethAddressBook[chapter][index]);\n\n    uint limit = limitBook[chapter][index];\n    uint volume = volBook[chapter][index];\n\n    // TODO: NEXT VERSION: Refund according to transaction vol for generic currencies\n    // Use market rate\n    // Refund according to ether transaction volume\n    if (buyBook[chapter][index]) {\n      msg.sender.transfer(volume * (params.closureFee - params.cancelFee) / limit);\n    } else{\n      msg.sender.transfer(volume * (params.closureFee - params.cancelFee) / limit);\n    }\n    delete buyBook[chapter][index];\n    delete volBook[chapter][index];\n    delete minVolBook[chapter][index];\n    delete limitBook[chapter][index];\n\n    delete ethAddressBook[chapter][index];\n    delete firstAddressBook[chapter][index];\n    delete secondAddressBook[chapter][index];\n\n    numsCleared[chapter] += 1;\n    cleanChapter(chapter);\n    return true;\n  }\n}\n",
  "sourcePath": "/Users/Karim/Desktop/Valex/contracts/Exchange.sol",
  "compiler": {
    "name": "solc",
    "version": "0.4.18+commit.9cf6e910.Emscripten.clang"
  },
  "schemaVersion": "1.0.1",
  "updatedAt": "2018-03-27T23:28:34.637Z"
}