{
  "contractName": "Exchange",
  "abi": [
    {
      "constant": true,
      "inputs": [
        {
          "name": "",
          "type": "uint256"
        },
        {
          "name": "",
          "type": "uint256"
        },
        {
          "name": "",
          "type": "uint256"
        }
      ],
      "name": "secondAddressBook",
      "outputs": [
        {
          "name": "",
          "type": "bytes32"
        }
      ],
      "payable": false,
      "stateMutability": "view",
      "type": "function"
    },
    {
      "constant": true,
      "inputs": [
        {
          "name": "chapter",
          "type": "uint256"
        }
      ],
      "name": "getSecondAddressChapter",
      "outputs": [
        {
          "name": "secondAddressChapter",
          "type": "bytes32[2][]"
        }
      ],
      "payable": false,
      "stateMutability": "view",
      "type": "function"
    },
    {
      "constant": false,
      "inputs": [
        {
          "name": "newAddress",
          "type": "address"
        }
      ],
      "name": "addToMinerWhitelist",
      "outputs": [],
      "payable": false,
      "stateMutability": "nonpayable",
      "type": "function"
    },
    {
      "constant": true,
      "inputs": [
        {
          "name": "",
          "type": "uint256"
        },
        {
          "name": "",
          "type": "uint256"
        },
        {
          "name": "",
          "type": "uint256"
        }
      ],
      "name": "firstAddressBook",
      "outputs": [
        {
          "name": "",
          "type": "bytes32"
        }
      ],
      "payable": false,
      "stateMutability": "view",
      "type": "function"
    },
    {
      "constant": true,
      "inputs": [
        {
          "name": "",
          "type": "uint256"
        },
        {
          "name": "",
          "type": "uint256"
        }
      ],
      "name": "buyBook",
      "outputs": [
        {
          "name": "",
          "type": "bool"
        }
      ],
      "payable": false,
      "stateMutability": "view",
      "type": "function"
    },
    {
      "constant": true,
      "inputs": [
        {
          "name": "chapter",
          "type": "uint256"
        }
      ],
      "name": "getOrderChapter",
      "outputs": [
        {
          "name": "buyChapter",
          "type": "bool[]"
        },
        {
          "name": "volChapter",
          "type": "uint256[]"
        },
        {
          "name": "minVolChapter",
          "type": "uint256[]"
        },
        {
          "name": "limitChapter",
          "type": "uint256[]"
        }
      ],
      "payable": false,
      "stateMutability": "view",
      "type": "function"
    },
    {
      "constant": false,
      "inputs": [
        {
          "name": "newAddress",
          "type": "address"
        }
      ],
      "name": "addToTraderWhitelist",
      "outputs": [],
      "payable": false,
      "stateMutability": "nonpayable",
      "type": "function"
    },
    {
      "constant": false,
      "inputs": [
        {
          "name": "buyAlpha",
          "type": "bool"
        },
        {
          "name": "volume",
          "type": "uint256"
        },
        {
          "name": "minVolume",
          "type": "uint256"
        },
        {
          "name": "limit",
          "type": "uint256"
        },
        {
          "name": "ethAddress",
          "type": "address"
        },
        {
          "name": "firstAddress",
          "type": "bytes32[2]"
        },
        {
          "name": "otherAddress",
          "type": "bytes32[2]"
        },
        {
          "name": "chapter",
          "type": "uint256"
        }
      ],
      "name": "placeOrder",
      "outputs": [
        {
          "name": "accepted",
          "type": "bool"
        }
      ],
      "payable": true,
      "stateMutability": "payable",
      "type": "function"
    },
    {
      "constant": true,
      "inputs": [
        {
          "name": "",
          "type": "uint256"
        },
        {
          "name": "",
          "type": "uint256"
        }
      ],
      "name": "ethAddressBook",
      "outputs": [
        {
          "name": "",
          "type": "address"
        }
      ],
      "payable": false,
      "stateMutability": "view",
      "type": "function"
    },
    {
      "constant": false,
      "inputs": [
        {
          "name": "buyAlpha",
          "type": "bool"
        },
        {
          "name": "volume",
          "type": "uint256"
        },
        {
          "name": "ethAddress",
          "type": "address"
        },
        {
          "name": "firstAddress",
          "type": "bytes32[2]"
        },
        {
          "name": "otherAddress",
          "type": "bytes32[2]"
        },
        {
          "name": "chapter",
          "type": "uint256"
        },
        {
          "name": "index1",
          "type": "uint256"
        },
        {
          "name": "nonce",
          "type": "uint256"
        }
      ],
      "name": "placeTakeOrder",
      "outputs": [
        {
          "name": "accepted",
          "type": "bool"
        }
      ],
      "payable": true,
      "stateMutability": "payable",
      "type": "function"
    },
    {
      "constant": true,
      "inputs": [
        {
          "name": "",
          "type": "uint256"
        },
        {
          "name": "",
          "type": "uint256"
        }
      ],
      "name": "limitBook",
      "outputs": [
        {
          "name": "",
          "type": "uint256"
        }
      ],
      "payable": false,
      "stateMutability": "view",
      "type": "function"
    },
    {
      "constant": true,
      "inputs": [],
      "name": "owner",
      "outputs": [
        {
          "name": "",
          "type": "address"
        }
      ],
      "payable": false,
      "stateMutability": "view",
      "type": "function"
    },
    {
      "constant": true,
      "inputs": [
        {
          "name": "chapter",
          "type": "uint256"
        },
        {
          "name": "index1",
          "type": "uint256"
        },
        {
          "name": "index2",
          "type": "uint256"
        }
      ],
      "name": "calcRateAndVol",
      "outputs": [
        {
          "name": "mimRate",
          "type": "uint256"
        },
        {
          "name": "alphaVol",
          "type": "uint256"
        }
      ],
      "payable": false,
      "stateMutability": "view",
      "type": "function"
    },
    {
      "constant": true,
      "inputs": [],
      "name": "openBalance",
      "outputs": [
        {
          "name": "",
          "type": "uint256"
        }
      ],
      "payable": false,
      "stateMutability": "view",
      "type": "function"
    },
    {
      "constant": true,
      "inputs": [
        {
          "name": "",
          "type": "uint256"
        },
        {
          "name": "",
          "type": "uint256"
        }
      ],
      "name": "minVolBook",
      "outputs": [
        {
          "name": "",
          "type": "uint256"
        }
      ],
      "payable": false,
      "stateMutability": "view",
      "type": "function"
    },
    {
      "constant": false,
      "inputs": [
        {
          "name": "_newOwner",
          "type": "address"
        }
      ],
      "name": "changeOwner",
      "outputs": [],
      "payable": false,
      "stateMutability": "nonpayable",
      "type": "function"
    },
    {
      "constant": true,
      "inputs": [],
      "name": "PRECISION",
      "outputs": [
        {
          "name": "",
          "type": "uint256"
        }
      ],
      "payable": false,
      "stateMutability": "view",
      "type": "function"
    },
    {
      "constant": false,
      "inputs": [
        {
          "name": "chapter",
          "type": "uint256"
        },
        {
          "name": "index",
          "type": "uint256"
        }
      ],
      "name": "cancelOrder",
      "outputs": [
        {
          "name": "accepted",
          "type": "bool"
        }
      ],
      "payable": false,
      "stateMutability": "nonpayable",
      "type": "function"
    },
    {
      "constant": true,
      "inputs": [],
      "name": "params",
      "outputs": [
        {
          "name": "cleanSize",
          "type": "uint256"
        },
        {
          "name": "minerShare",
          "type": "uint256"
        },
        {
          "name": "difficulty",
          "type": "bytes32"
        },
        {
          "name": "traderKYC",
          "type": "bool"
        },
        {
          "name": "minerKYC",
          "type": "bool"
        }
      ],
      "payable": false,
      "stateMutability": "view",
      "type": "function"
    },
    {
      "constant": false,
      "inputs": [
        {
          "name": "depositAddress",
          "type": "address"
        },
        {
          "name": "chapter",
          "type": "uint256"
        },
        {
          "name": "index1",
          "type": "uint256"
        },
        {
          "name": "index2",
          "type": "uint256"
        },
        {
          "name": "nonce",
          "type": "uint256"
        }
      ],
      "name": "giveMatch",
      "outputs": [
        {
          "name": "isValid",
          "type": "bool"
        }
      ],
      "payable": false,
      "stateMutability": "nonpayable",
      "type": "function"
    },
    {
      "constant": false,
      "inputs": [
        {
          "name": "chapter",
          "type": "uint256"
        },
        {
          "name": "closureFeeBuy",
          "type": "uint256"
        },
        {
          "name": "closureFeeSell",
          "type": "uint256"
        },
        {
          "name": "cancelFeeBuy",
          "type": "uint256"
        },
        {
          "name": "cancelFeeSell",
          "type": "uint256"
        }
      ],
      "name": "addChapter",
      "outputs": [],
      "payable": false,
      "stateMutability": "nonpayable",
      "type": "function"
    },
    {
      "constant": true,
      "inputs": [
        {
          "name": "chapter",
          "type": "uint256"
        }
      ],
      "name": "getETHAddressChapter",
      "outputs": [
        {
          "name": "ethAddressChapter",
          "type": "address[]"
        }
      ],
      "payable": false,
      "stateMutability": "view",
      "type": "function"
    },
    {
      "constant": true,
      "inputs": [
        {
          "name": "",
          "type": "uint256"
        },
        {
          "name": "",
          "type": "uint256"
        }
      ],
      "name": "volBook",
      "outputs": [
        {
          "name": "",
          "type": "uint256"
        }
      ],
      "payable": false,
      "stateMutability": "view",
      "type": "function"
    },
    {
      "constant": true,
      "inputs": [
        {
          "name": "chapter",
          "type": "uint256"
        }
      ],
      "name": "getFirstAddressChapter",
      "outputs": [
        {
          "name": "firstAddressChapter",
          "type": "bytes32[2][]"
        }
      ],
      "payable": false,
      "stateMutability": "view",
      "type": "function"
    },
    {
      "inputs": [
        {
          "name": "closureFeeBuy0",
          "type": "uint256"
        },
        {
          "name": "closureFeeSell0",
          "type": "uint256"
        },
        {
          "name": "cancelFeeBuy0",
          "type": "uint256"
        },
        {
          "name": "cancelFeeSell0",
          "type": "uint256"
        },
        {
          "name": "cleanSize",
          "type": "uint256"
        },
        {
          "name": "minerShare",
          "type": "uint256"
        },
        {
          "name": "difficulty",
          "type": "bytes32"
        },
        {
          "name": "minerKYC",
          "type": "bool"
        },
        {
          "name": "traderKYC",
          "type": "bool"
        }
      ],
      "payable": false,
      "stateMutability": "nonpayable",
      "type": "constructor"
    },
    {
      "anonymous": false,
      "inputs": [
        {
          "indexed": false,
          "name": "ethAddress1",
          "type": "address"
        },
        {
          "indexed": false,
          "name": "ethAddress2",
          "type": "address"
        },
        {
          "indexed": false,
          "name": "firstAddress1",
          "type": "bytes32[2]"
        },
        {
          "indexed": false,
          "name": "firstAddress2",
          "type": "bytes32[2]"
        },
        {
          "indexed": false,
          "name": "otherAddress1",
          "type": "bytes32[2]"
        },
        {
          "indexed": false,
          "name": "otherAddress2",
          "type": "bytes32[2]"
        },
        {
          "indexed": false,
          "name": "mimRate",
          "type": "uint256"
        },
        {
          "indexed": false,
          "name": "ethVol",
          "type": "uint256"
        }
      ],
      "name": "TradeInfo",
      "type": "event"
    }
  ],
  "bytecode": "0x6060604052336000806101000a81548173ffffffffffffffffffffffffffffffffffffffff021916908373ffffffffffffffffffffffffffffffffffffffff160217905550670de0b6b3a7640000600155600060025534156200006157600080fd5b604051610120806200489d83398101604052808051906020019091908051906020019091908051906020019091908051906020019091908051906020019091908051906020019091908051906020019091908051906020019091908051906020019091905050620000ea85858585856200011d640100000000026200411b176401000000009004565b6200010e60008a8a8a8a6200017e64010000000002620025af176401000000009004565b505050505050505050620006e5565b84600360000181905550836003600101819055508260036002018160001916905550816003800160016101000a81548160ff021916908315150217905550806003800160006101000a81548160ff0219169083151502179055505050505050565b6000809054906101000a900473ffffffffffffffffffffffffffffffffffffffff168073ffffffffffffffffffffffffffffffffffffffff163373ffffffffffffffffffffffffffffffffffffffff16141515620001db57600080fd5b6007600087815260200190815260200160002080548060010182816200020291906200053b565b91600052602060002090602091828204019190066000909190916101000a81548160ff0219169083151502179055505060086000878152602001908152602001600020805480600101828162000259919062000578565b91600052602060002090016000809091909150555060096000878152602001908152602001600020805480600101828162000295919062000578565b916000526020600020900160008090919091505550600a60008781526020019081526020016000208054806001018281620002d1919062000578565b916000526020600020900160008090919091505550600b600087815260200190815260200160002080548060010182816200030d9190620005a7565b9160005260206000209001600080909190916101000a81548173ffffffffffffffffffffffffffffffffffffffff021916908373ffffffffffffffffffffffffffffffffffffffff16021790555050600c60008781526020019081526020016000208054806001018281620003839190620005d6565b916000526020600020906002020160006040805190810160405280600060010260001916600019168152602001600060010260001916600019168152509091909150906002620003d59291906200060b565b5050600d60008781526020019081526020016000208054806001018281620003fe9190620005d6565b916000526020600020906002020160006040805190810160405280600060010260001916600019168152602001600060010260001916600019168152509091909150906002620004509291906200060b565b50506012805480600101828162000468919062000578565b91600052602060002090016000809091909150555084600e6000888152602001908152602001600020600060011515151581526020019081526020016000208190555083600e60008881526020019081526020016000206000801515151581526020019081526020016000208190555082600f6000888152602001908152602001600020600060011515151581526020019081526020016000208190555081600f600088815260200190815260200160002060008015151515815260200190815260200160002081905550505050505050565b8154818355818115116200057357601f016020900481601f0160209004836000526020600020918201910162000572919062000656565b5b505050565b815481835581811511620005a257818360005260206000209182019101620005a1919062000656565b5b505050565b815481835581811511620005d157818360005260206000209182019101620005d0919062000656565b5b505050565b81548183558181151162000606576002028160020283600052602060002091820191016200060591906200067e565b5b505050565b826002810192821562000643579160200282015b82811115620006425782518290600019169055916020019190600101906200061f565b5b509050620006529190620006af565b5090565b6200067b91905b80821115620006775760008160009055506001016200065d565b5090565b90565b620006ac91905b80821115620006a857600081816200069e9190620006d7565b5060020162000685565b5090565b90565b620006d491905b80821115620006d0576000816000905550600101620006b6565b5090565b90565b506000815560010160009055565b6141a880620006f56000396000f30060606040526004361061013e576000357c0100000000000000000000000000000000000000000000000000000000900463ffffffff16806310fc8a1514610143578063145404fc14610194578063160045451461022f578063324a1467146102685780633af8c2d5146102b95780633b6a0800146102fd5780633f8359691461044d578063498276851461048657806353c1d8821461055357806361246cb8146105bf5780638139cbc61461068c5780638da5cb5b146106cc5780638eae03d2146107215780639138ec3a146107715780639febbcfa1461079a578063a6f9dae1146107da578063aaf5eb6814610813578063b6ed06321461083c578063cff0ab9614610880578063d2426ab9146108d5578063d7cefcda1461094a578063e0cfdce014610991578063e0f1f59f14610a09578063ee4b94bb14610a49575b600080fd5b341561014e57600080fd5b6101766004808035906020019091908035906020019091908035906020019091905050610ae4565b60405180826000191660001916815260200191505060405180910390f35b341561019f57600080fd5b6101b56004808035906020019091905050610b27565b60405180806020018281038252838181518152602001915080516000925b8184101561021e57828490602001906020020151600260200280838360005b8381101561020d5780820151818401526020810190506101f2565b5050505090500192600101926101d3565b925050509250505060405180910390f35b341561023a57600080fd5b610266600480803573ffffffffffffffffffffffffffffffffffffffff16906020019091905050610bd4565b005b341561027357600080fd5b61029b6004808035906020019091908035906020019091908035906020019091905050610c8c565b60405180826000191660001916815260200191505060405180910390f35b34156102c457600080fd5b6102e36004808035906020019091908035906020019091905050610ccf565b604051808215151515815260200191505060405180910390f35b341561030857600080fd5b61031e6004808035906020019091905050610d11565b6040518080602001806020018060200180602001858103855289818151815260200191508051906020019060200280838360005b8381101561036d578082015181840152602081019050610352565b50505050905001858103845288818151815260200191508051906020019060200280838360005b838110156103af578082015181840152602081019050610394565b50505050905001858103835287818151815260200191508051906020019060200280838360005b838110156103f15780820151818401526020810190506103d6565b50505050905001858103825286818151815260200191508051906020019060200280838360005b83811015610433578082015181840152602081019050610418565b505050509050019850505050505050505060405180910390f35b341561045857600080fd5b610484600480803573ffffffffffffffffffffffffffffffffffffffff16906020019091905050610ef9565b005b6105396004808035151590602001909190803590602001909190803590602001909190803590602001909190803573ffffffffffffffffffffffffffffffffffffffff1690602001909190806040019060028060200260405190810160405280929190826002602002808284378201915050505050919080604001906002806020026040519081016040528092919082600260200280828437820191505050505091908035906020019091905050610fb1565b604051808215151515815260200191505060405180910390f35b341561055e57600080fd5b61057d60048080359060200190919080359060200190919050506112bc565b604051808273ffffffffffffffffffffffffffffffffffffffff1673ffffffffffffffffffffffffffffffffffffffff16815260200191505060405180910390f35b6106726004808035151590602001909190803590602001909190803573ffffffffffffffffffffffffffffffffffffffff169060200190919080604001906002806020026040519081016040528092919082600260200280828437820191505050505091908060400190600280602002604051908101604052809291908260026020028082843782019150505050509190803590602001909190803590602001909190803590602001909190505061130a565b604051808215151515815260200191505060405180910390f35b341561069757600080fd5b6106b66004808035906020019091908035906020019091905050611b58565b6040518082815260200191505060405180910390f35b34156106d757600080fd5b6106df611b89565b604051808273ffffffffffffffffffffffffffffffffffffffff1673ffffffffffffffffffffffffffffffffffffffff16815260200191505060405180910390f35b341561072c57600080fd5b6107546004808035906020019091908035906020019091908035906020019091905050611bae565b604051808381526020018281526020019250505060405180910390f35b341561077c57600080fd5b610784611e6e565b6040518082815260200191505060405180910390f35b34156107a557600080fd5b6107c46004808035906020019091908035906020019091905050611e74565b6040518082815260200191505060405180910390f35b34156107e557600080fd5b610811600480803573ffffffffffffffffffffffffffffffffffffffff16906020019091905050611ea5565b005b341561081e57600080fd5b610826611f45565b6040518082815260200191505060405180910390f35b341561084757600080fd5b6108666004808035906020019091908035906020019091905050611f4b565b604051808215151515815260200191505060405180910390f35b341561088b57600080fd5b6108936123f2565b60405180868152602001858152602001846000191660001916815260200183151515158152602001821515151581526020019550505050505060405180910390f35b34156108e057600080fd5b610930600480803573ffffffffffffffffffffffffffffffffffffffff16906020019091908035906020019091908035906020019091908035906020019091908035906020019091905050612430565b604051808215151515815260200191505060405180910390f35b341561095557600080fd5b61098f60048080359060200190919080359060200190919080359060200190919080359060200190919080359060200190919050506125af565b005b341561099c57600080fd5b6109b26004808035906020019091905050612957565b6040518080602001828103825283818151815260200191508051906020019060200280838360005b838110156109f55780820151818401526020810190506109da565b505050509050019250505060405180910390f35b3415610a1457600080fd5b610a3360048080359060200190919080359060200190919050506129fe565b6040518082815260200191505060405180910390f35b3415610a5457600080fd5b610a6a6004808035906020019091905050612a2f565b60405180806020018281038252838181518152602001915080516000925b81841015610ad357828490602001906020020151600260200280838360005b83811015610ac2578082015181840152602081019050610aa7565b505050509050019260010192610a88565b925050509250505060405180910390f35b600d60205282600052604060002082815481101515610aff57fe5b906000526020600020906002020181600281101515610b1a57fe5b0160009250925050505481565b610b2f613e11565b600d6000838152602001908152602001600020805480602002602001604051908101604052809291908181526020016000905b82821015610bc95783829060005260206000209060020201600280602002604051908101604052809291908260028015610bb5576020028201915b81546000191681526020019060010190808311610b9d575b505050505081526020019060010190610b62565b505050509050919050565b6000809054906101000a900473ffffffffffffffffffffffffffffffffffffffff168073ffffffffffffffffffffffffffffffffffffffff163373ffffffffffffffffffffffffffffffffffffffff16141515610c3057600080fd5b6001601060008473ffffffffffffffffffffffffffffffffffffffff1673ffffffffffffffffffffffffffffffffffffffff16815260200190815260200160002060006101000a81548160ff0219169083151502179055505050565b600c60205282600052604060002082815481101515610ca757fe5b906000526020600020906002020181600281101515610cc257fe5b0160009250925050505481565b600760205281600052604060002081815481101515610cea57fe5b9060005260206000209060209182820401919006915091509054906101000a900460ff1681565b610d19613e25565b610d21613e39565b610d29613e39565b610d31613e39565b600760008681526020019081526020016000206008600087815260200190815260200160002060096000888152602001908152602001600020600a600089815260200190815260200160002083805480602002602001604051908101604052809291908181526020018280548015610ded57602002820191906000526020600020906000905b82829054906101000a900460ff16151581526020019060010190602082600001049283019260010382029150808411610db75790505b5050505050935082805480602002602001604051908101604052809291908181526020018280548015610e3f57602002820191906000526020600020905b815481526020019060010190808311610e2b575b5050505050925081805480602002602001604051908101604052809291908181526020018280548015610e9157602002820191906000526020600020905b815481526020019060010190808311610e7d575b5050505050915080805480602002602001604051908101604052809291908181526020018280548015610ee357602002820191906000526020600020905b815481526020019060010190808311610ecf575b5050505050905093509350935093509193509193565b6000809054906101000a900473ffffffffffffffffffffffffffffffffffffffff168073ffffffffffffffffffffffffffffffffffffffff163373ffffffffffffffffffffffffffffffffffffffff16141515610f5557600080fd5b6001601160008473ffffffffffffffffffffffffffffffffffffffff1673ffffffffffffffffffffffffffffffffffffffff16815260200190815260200160002060006101000a81548160ff0219169083151502179055505050565b600033601160003373ffffffffffffffffffffffffffffffffffffffff1673ffffffffffffffffffffffffffffffffffffffff16815260200190815260200160002060009054906101000a900460ff168061101b57506003800160009054906101000a900460ff16155b151561102657600080fd5b60008911151561103557600080fd5b60008811151561104457600080fd5b87891015151561105357600080fd5b60008711151561106257600080fd5b61106f8a348b8a87612adc565b151561107a57600080fd5b6000600760008581526020019081526020016000208054905011151561109f57600080fd5b6007600084815260200190815260200160002080548060010182816110c49190613e4d565b91600052602060002090602091828204019190068c909190916101000a81548160ff021916908315150217905550506008600084815260200190815260200160002080548060010182816111189190613e87565b916000526020600020900160008b909190915055506009600084815260200190815260200160002080548060010182816111529190613e87565b916000526020600020900160008a90919091505550600a6000848152602001908152602001600020805480600101828161118c9190613e87565b916000526020600020900160008990919091505550600b600084815260200190815260200160002080548060010182816111c69190613eb3565b9160005260206000209001600088909190916101000a81548173ffffffffffffffffffffffffffffffffffffffff021916908373ffffffffffffffffffffffffffffffffffffffff16021790555050600c6000848152602001908152602001600020805480600101828161123a9190613edf565b9160005260206000209060020201600087909190915090600261125e929190613f11565b5050600d600084815260200190815260200160002080548060010182816112859190613edf565b916000526020600020906002020160008690919091509060026112a9929190613f11565b5050600191505098975050505050505050565b600b602052816000526040600020818154811015156112d757fe5b90600052602060002090016000915091509054906101000a900473ffffffffffffffffffffffffffffffffffffffff1681565b60008033601160003373ffffffffffffffffffffffffffffffffffffffff1673ffffffffffffffffffffffffffffffffffffffff16815260200190815260200160002060009054906101000a900460ff168061137557506003800160009054906101000a900460ff16155b151561138057600080fd5b6007600087815260200190815260200160002080549050851015156113a457600080fd5b60076000878152602001908152602001600020858154811015156113c457fe5b90600052602060002090602091828204019190069054906101000a900460ff1615158b1515141515156113f657600080fd5b6000600860008881526020019081526020016000208681548110151561141857fe5b9060005260206000209001541415151561143157600080fd5b60008a11151561144057600080fd5b61144e898760008888612d04565b151561145957600080fd5b6114918b348c600a60008b81526020019081526020016000208981548110151561147f57fe5b9060005260206000209001548a612adc565b151561149c57600080fd5b8a156117c157600154600a6000888152602001908152602001600020868154811015156114c557fe5b90600052602060002090015460096000898152602001908152602001600020878154811015156114f157fe5b9060005260206000209001540281151561150757fe5b048a1015151561151657600080fd5b600154600a60008881526020019081526020016000208681548110151561153957fe5b906000526020600020900154600860008981526020019081526020016000208781548110151561156557fe5b9060005260206000209001540281151561157b57fe5b048a1115151561158a57600080fd5b8991507f389a889e7f65d263df200f5a0bc042c0ba9d0c600161ff14d87cc1daa06b8e6d89600b6000898152602001908152602001600020878154811015156115cf57fe5b906000526020600020900160009054906101000a900473ffffffffffffffffffffffffffffffffffffffff168a600c60008b81526020019081526020016000208981548110151561161c57fe5b90600052602060002090600202018b600d60008d81526020019081526020016000208b81548110151561164b57fe5b9060005260206000209060020201600a60008e81526020019081526020016000208c81548110151561167957fe5b90600052602060002090015489604051808973ffffffffffffffffffffffffffffffffffffffff1673ffffffffffffffffffffffffffffffffffffffff1681526020018873ffffffffffffffffffffffffffffffffffffffff1673ffffffffffffffffffffffffffffffffffffffff16815260200187600260200280838360005b838110156117155780820151818401526020810190506116fa565b505050509050018660028015611744576020028201915b8154600019168152602001906001019080831161172c575b505085600260200280838360005b8381101561176d578082015181840152602081019050611752565b50505050905001846002801561179c576020028201915b81546000191681526020019060010190808311611784575b50508381526020018281526020019850505050505050505060405180910390a1611aa2565b600154600a6000888152602001908152602001600020868154811015156117e457fe5b9060005260206000209001548b028115156117fb57fe5b049150600960008781526020019081526020016000208581548110151561181e57fe5b906000526020600020900154821015151561183857600080fd5b600860008781526020019081526020016000208581548110151561185857fe5b906000526020600020900154821115151561187257600080fd5b7f389a889e7f65d263df200f5a0bc042c0ba9d0c600161ff14d87cc1daa06b8e6d600b6000888152602001908152602001600020868154811015156118b357fe5b906000526020600020900160009054906101000a900473ffffffffffffffffffffffffffffffffffffffff168a600c60008a81526020019081526020016000208881548110151561190057fe5b90600052602060002090600202018b600d60008c81526020019081526020016000208a81548110151561192f57fe5b90600052602060002090600202018c600a60008e81526020019081526020016000208c81548110151561195e57fe5b90600052602060002090015489604051808973ffffffffffffffffffffffffffffffffffffffff1673ffffffffffffffffffffffffffffffffffffffff1681526020018873ffffffffffffffffffffffffffffffffffffffff1673ffffffffffffffffffffffffffffffffffffffff16815260200187600280156119fb576020028201915b815460001916815260200190600101908083116119e3575b505086600260200280838360005b83811015611a24578082015181840152602081019050611a09565b505050509050018560028015611a53576020028201915b81546000191681526020019060010190808311611a3b575b505084600260200280838360005b83811015611a7c578082015181840152602081019050611a61565b505050509050018381526020018281526020019850505050505050505060405180910390a15b611b0382600a600089815260200190815260200160002087815481101515611ac657fe5b906000526020600020900154600a60008a815260200190815260200160002088815481101515611af257fe5b906000526020600020900154612da2565b611b3c8686600a60008a815260200190815260200160002088815481101515611b2857fe5b906000526020600020900154858f15612e3c565b611b45866130fd565b5060019250505098975050505050505050565b600a60205281600052604060002081815481101515611b7357fe5b9060005260206000209001600091509150505481565b6000809054906101000a900473ffffffffffffffffffffffffffffffffffffffff1681565b600080600080611bbc613f57565b611bc4613f57565b611bcf898989613900565b1515611be75760008081915080905095509550611e62565b600760008a815260200190815260200160002088815481101515611c0757fe5b90600052602060002090602091828204019190069054906101000a900460ff1615611c3757879350869250611c3e565b8693508792505b608060405190810160405280600115158152602001600860008c815260200190815260200160002086815481101515611c7357fe5b9060005260206000209001548152602001600960008c815260200190815260200160002086815481101515611ca457fe5b9060005260206000209001548152602001600a60008c815260200190815260200160002086815481101515611cd557fe5b9060005260206000209001548152509150608060405190810160405280600015158152602001600860008c815260200190815260200160002085815481101515611d1b57fe5b9060005260206000209001548152602001600960008c815260200190815260200160002085815481101515611d4c57fe5b9060005260206000209001548152602001600a60008c815260200190815260200160002085815481101515611d7d57fe5b9060005260206000209001548152509050806060015182606001511015611db05760008081915080905095509550611e62565b60028160600151836060015101811515611dc657fe5b049550858160200151026001548360200151021115611e1857858160200151026001548360400151021115611e075760008081915080905095509550611e62565b858682602001510295509550611e62565b600154826020015102868260200151021115611e5757600154826020015102868260400151021115611e565760008081915080905095509550611e62565b5b858260200151955095505b50505050935093915050565b60025481565b600960205281600052604060002081815481101515611e8f57fe5b9060005260206000209001600091509150505481565b6000809054906101000a900473ffffffffffffffffffffffffffffffffffffffff168073ffffffffffffffffffffffffffffffffffffffff163373ffffffffffffffffffffffffffffffffffffffff16141515611f0157600080fd5b816000806101000a81548173ffffffffffffffffffffffffffffffffffffffff021916908373ffffffffffffffffffffffffffffffffffffffff1602179055505050565b60015481565b600080600080600760008781526020019081526020016000208054905085101515611f7557600080fd5b600b600087815260200190815260200160002085815481101515611f9557fe5b906000526020600020900160009054906101000a900473ffffffffffffffffffffffffffffffffffffffff1673ffffffffffffffffffffffffffffffffffffffff163373ffffffffffffffffffffffffffffffffffffffff16141515611ffa57600080fd5b600a60008781526020019081526020016000208581548110151561201a57fe5b9060005260206000209001549250600860008781526020019081526020016000208581548110151561204857fe5b9060005260206000209001549150600760008781526020019081526020016000208581548110151561207657fe5b90600052602060002090602091828204019190069054906101000a900460ff16905060076000878152602001908152602001600020858154811015156120b857fe5b90600052602060002090602091828204019190069054906101000a900460ff1615612181573373ffffffffffffffffffffffffffffffffffffffff166108fc84600f60008a815260200190815260200160002060008515151515815260200190815260200160002054600e60008b81526020019081526020016000206000861515151581526020019081526020016000205403850281151561215657fe5b049081150290604051600060405180830381858888f19350505050151561217c57600080fd5b612221565b3373ffffffffffffffffffffffffffffffffffffffff166108fc84600f60008a815260200190815260200160002060008515151515815260200190815260200160002054600e60008b8152602001908152602001600020600086151515158152602001908152602001600020540385028115156121fa57fe5b049081150290604051600060405180830381858888f19350505050151561222057600080fd5b5b600760008781526020019081526020016000208581548110151561224157fe5b90600052602060002090602091828204019190066101000a81549060ff0219169055600860008781526020019081526020016000208581548110151561228357fe5b90600052602060002090016000905560096000878152602001908152602001600020858154811015156122b257fe5b906000526020600020900160009055600a6000878152602001908152602001600020858154811015156122e157fe5b906000526020600020900160009055600b60008781526020019081526020016000208581548110151561231057fe5b906000526020600020900160006101000a81549073ffffffffffffffffffffffffffffffffffffffff0219169055600c60008781526020019081526020016000208581548110151561235e57fe5b906000526020600020906002020160006123789190613f82565b600d60008781526020019081526020016000208581548110151561239857fe5b906000526020600020906002020160006123b29190613f82565b60016012878154811015156123c357fe5b9060005260206000209001600082825401925050819055506123e4866130fd565b506001935050505092915050565b60038060000154908060010154908060020154908060030160009054906101000a900460ff16908060030160019054906101000a900460ff16905085565b600080600080600033601060003373ffffffffffffffffffffffffffffffffffffffff1673ffffffffffffffffffffffffffffffffffffffff16815260200190815260200160002060009054906101000a900460ff16806124a057506003800160019054906101000a900460ff16155b15156124ab57600080fd5b6124b88b8b8b8b8b612d04565b15156124c357600080fd5b6124ce8a8a8a611bae565b945094506000841115156124e157600080fd5b600760008b81526020019081526020016000208981548110151561250157fe5b90600052602060002090602091828204019190069054906101000a900460ff161561253157889250879150612538565b8792508891505b6125438a8c86613a5c565b6125798a85600a60008e81526020019081526020016000208681548110151561256857fe5b906000526020600020900154612da2565b6125868a84848888613aea565b6125938a8a8a8888613d92565b61259c8a6130fd565b5060019550505050505095945050505050565b6000809054906101000a900473ffffffffffffffffffffffffffffffffffffffff168073ffffffffffffffffffffffffffffffffffffffff163373ffffffffffffffffffffffffffffffffffffffff1614151561260b57600080fd5b6007600087815260200190815260200160002080548060010182816126309190613e4d565b91600052602060002090602091828204019190066000909190916101000a81548160ff021916908315150217905550506008600087815260200190815260200160002080548060010182816126859190613e87565b9160005260206000209001600080909190915055506009600087815260200190815260200160002080548060010182816126bf9190613e87565b916000526020600020900160008090919091505550600a600087815260200190815260200160002080548060010182816126f99190613e87565b916000526020600020900160008090919091505550600b600087815260200190815260200160002080548060010182816127339190613eb3565b9160005260206000209001600080909190916101000a81548173ffffffffffffffffffffffffffffffffffffffff021916908373ffffffffffffffffffffffffffffffffffffffff16021790555050600c600087815260200190815260200160002080548060010182816127a79190613edf565b9160005260206000209060020201600060408051908101604052806000600102600019166000191681526020016000600102600019166000191681525090919091509060026127f7929190613f11565b5050600d6000878152602001908152602001600020805480600101828161281e9190613edf565b91600052602060002090600202016000604080519081016040528060006001026000191660001916815260200160006001026000191660001916815250909190915090600261286e929190613f11565b5050601280548060010182816128849190613e87565b91600052602060002090016000809091909150555084600e6000888152602001908152602001600020600060011515151581526020019081526020016000208190555083600e60008881526020019081526020016000206000801515151581526020019081526020016000208190555082600f6000888152602001908152602001600020600060011515151581526020019081526020016000208190555081600f600088815260200190815260200160002060008015151515815260200190815260200160002081905550505050505050565b61295f613f90565b600b60008381526020019081526020016000208054806020026020016040519081016040528092919081815260200182805480156129f257602002820191906000526020600020905b8160009054906101000a900473ffffffffffffffffffffffffffffffffffffffff1673ffffffffffffffffffffffffffffffffffffffff16815260200190600101908083116129a8575b50505050509050919050565b600860205281600052604060002081815481101515612a1957fe5b9060005260206000209001600091509150505481565b612a37613e11565b600c6000838152602001908152602001600020805480602002602001604051908101604052809291908181526020016000905b82821015612ad15783829060005260206000209060020201600280602002604051908101604052809291908260028015612abd576020028201915b81546000191681526020019060010190808311612aa5575b505050505081526020019060010190612a6a565b505050509050919050565b60008515612bf057600e600083815260200190815260200160002060008715151515815260200190815260200160002054840285840210151515612b1f57600080fd5b6001546001540283600e600085815260200190815260200160002060008915151515815260200190815260200160002054860202811515612b5c57fe5b046002600082825401925050819055503373ffffffffffffffffffffffffffffffffffffffff166108fc6001546001540285600e600087815260200190815260200160002060008b15151515815260200190815260200160002054880202811515612bc357fe5b0487039081150290604051600060405180830381858888f193505050501515612beb57600080fd5b612cf7565b600154600e6000848152602001908152602001600020600088151515158152602001908152602001600020548502811515612c2757fe5b048510151515612c3657600080fd5b600154600e6000848152602001908152602001600020600088151515158152602001908152602001600020548502811515612c6d57fe5b046002600082825401925050819055503373ffffffffffffffffffffffffffffffffffffffff166108fc600154600e600086815260200190815260200160002060008a151515158152602001908152602001600020548702811515612cce57fe5b0487039081150290604051600060405180830381858888f193505050501515612cf657600080fd5b5b6001905095945050505050565b60008585858585604051808673ffffffffffffffffffffffffffffffffffffffff1673ffffffffffffffffffffffffffffffffffffffff166c0100000000000000000000000002815260140185815260200184815260200183815260200182815260200195505050505050604051809103902060001916600360020154600019161015612d945760009050612d99565b600190505b95945050505050565b60015482600e60008681526020019081526020016000206000801515151581526020019081526020016000205402811515612dd957fe5b04600260008282540392505081905550600154600154028183600e600087815260200190815260200160002060006001151515158152602001908152602001600020540202811515612e2757fe5b04600260008282540392505081905550505050565b8015612f8057816008600087815260200190815260200160002085815481101515612e6357fe5b9060005260206000209001541415612e9f576001601286815481101515612e8657fe5b9060005260206000209001600082825401925050819055505b816009600087815260200190815260200160002085815481101515612ec057fe5b9060005260206000209001541015612f085760006009600087815260200190815260200160002085815481101515612ef457fe5b906000526020600020900181905550612f42565b816009600087815260200190815260200160002085815481101515612f2957fe5b9060005260206000209001600082825403925050819055505b816008600087815260200190815260200160002085815481101515612f6357fe5b9060005260206000209001600082825403925050819055506130f6565b600154838302811515612f8f57fe5b046008600087815260200190815260200160002085815481101515612fb057fe5b9060005260206000209001541415612fec576001601286815481101515612fd357fe5b9060005260206000209001600082825401925050819055505b600154838302811515612ffb57fe5b04600960008781526020019081526020016000208581548110151561301c57fe5b9060005260206000209001541015613064576000600960008781526020019081526020016000208581548110151561305057fe5b9060005260206000209001819055506130ad565b60015483830281151561307357fe5b04600960008781526020019081526020016000208581548110151561309457fe5b9060005260206000209001600082825403925050819055505b6001548383028115156130bc57fe5b0460086000878152602001908152602001600020858154811015156130dd57fe5b9060005260206000209001600082825403925050819055505b5050505050565b60008060036000015460128481548110151561311557fe5b906000526020600020900154101561313057600091506138fa565b600190505b6007600084815260200190815260200160002080549050811015613697576000600860008581526020019081526020016000208281548110151561317557fe5b906000526020600020900154141561368a5760016007600085815260200190815260200160002080549050038110156136895760076000848152602001908152602001600020600182018154811015156131cb57fe5b90600052602060002090602091828204019190069054906101000a900460ff16600760008581526020019081526020016000208281548110151561320b57fe5b90600052602060002090602091828204019190066101000a81548160ff021916908315150217905550600860008481526020019081526020016000206001820181548110151561325757fe5b906000526020600020900154600860008581526020019081526020016000208281548110151561328357fe5b90600052602060002090018190555060096000848152602001908152602001600020600182018154811015156132b557fe5b90600052602060002090015460096000858152602001908152602001600020828154811015156132e157fe5b906000526020600020900181905550600a60008481526020019081526020016000206001820181548110151561331357fe5b906000526020600020900154600a60008581526020019081526020016000208281548110151561333f57fe5b906000526020600020900181905550600b60008481526020019081526020016000206001820181548110151561337157fe5b906000526020600020900160009054906101000a900473ffffffffffffffffffffffffffffffffffffffff16600b6000858152602001908152602001600020828154811015156133bd57fe5b906000526020600020900160006101000a81548173ffffffffffffffffffffffffffffffffffffffff021916908373ffffffffffffffffffffffffffffffffffffffff160217905550600c60008481526020019081526020016000206001820181548110151561342957fe5b9060005260206000209060020201600c60008581526020019081526020016000208281548110151561345757fe5b9060005260206000209060020201906002613473929190613fa4565b50600d60008481526020019081526020016000206001820181548110151561349757fe5b9060005260206000209060020201600d6000858152602001908152602001600020828154811015156134c557fe5b90600052602060002090600202019060026134e1929190613fa4565b50600760008481526020019081526020016000206001820181548110151561350557fe5b90600052602060002090602091828204019190066101000a81549060ff0219169055600860008481526020019081526020016000206001820181548110151561354a57fe5b906000526020600020900160009055600960008481526020019081526020016000206001820181548110151561357c57fe5b906000526020600020900160009055600a6000848152602001908152602001600020600182018154811015156135ae57fe5b906000526020600020900160009055600b6000848152602001908152602001600020600182018154811015156135e057fe5b906000526020600020900160006101000a81549073ffffffffffffffffffffffffffffffffffffffff0219169055600c60008481526020019081526020016000206001820181548110151561363157fe5b9060005260206000209060020201600061364b9190613f82565b600d60008481526020019081526020016000206001820181548110151561366e57fe5b906000526020600020906002020160006136889190613f82565b5b5b8080600101915050613135565b6012838154811015156136a657fe5b90600052602060002090015460076000858152602001908152602001600020805490500360076000858152602001908152602001600020816136e89190613fe1565b506012838154811015156136f857fe5b906000526020600020900154600860008581526020019081526020016000208054905003600860008581526020019081526020016000208161373a919061401b565b5060128381548110151561374a57fe5b906000526020600020900154600960008581526020019081526020016000208054905003600960008581526020019081526020016000208161378c919061401b565b5060128381548110151561379c57fe5b906000526020600020900154600a60008581526020019081526020016000208054905003600a6000858152602001908152602001600020816137de919061401b565b506012838154811015156137ee57fe5b906000526020600020900154600b60008581526020019081526020016000208054905003600b6000858152602001908152602001600020816138309190614047565b5060128381548110151561384057fe5b906000526020600020900154600c60008581526020019081526020016000208054905003600c6000858152602001908152602001600020816138829190614073565b5060128381548110151561389257fe5b906000526020600020900154600d60008581526020019081526020016000208054905003600d6000858152602001908152602001600020816138d49190614073565b5060006012848154811015156138e657fe5b906000526020600020900181905550600191505b50919050565b600060076000858152602001908152602001600020805490508310151561392657600080fd5b60076000858152602001908152602001600020805490508210151561394a57600080fd5b600760008581526020019081526020016000208281548110151561396a57fe5b90600052602060002090602091828204019190069054906101000a900460ff16151560076000868152602001908152602001600020848154811015156139ac57fe5b90600052602060002090602091828204019190069054906101000a900460ff161515141515156139db57600080fd5b600060086000868152602001908152602001600020848154811015156139fd57fe5b90600052602060002090015414151515613a1657600080fd5b60006008600086815260200190815260200160002083815481101515613a3857fe5b90600052602060002090015414151515613a5157600080fd5b600190509392505050565b60006001546001540282600e600087815260200190815260200160002060006001151515158152602001908152602001600020546003600101540202811515613aa157fe5b0490508273ffffffffffffffffffffffffffffffffffffffff166108fc829081150290604051600060405180830381858888f193505050501515613ae457600080fd5b50505050565b7f389a889e7f65d263df200f5a0bc042c0ba9d0c600161ff14d87cc1daa06b8e6d600b600087815260200190815260200160002085815481101515613b2b57fe5b906000526020600020900160009054906101000a900473ffffffffffffffffffffffffffffffffffffffff16600b600088815260200190815260200160002085815481101515613b7757fe5b906000526020600020900160009054906101000a900473ffffffffffffffffffffffffffffffffffffffff16600c600089815260200190815260200160002087815481101515613bc357fe5b9060005260206000209060020201600c60008a815260200190815260200160002087815481101515613bf157fe5b9060005260206000209060020201600d60008b815260200190815260200160002089815481101515613c1f57fe5b9060005260206000209060020201600d60008c815260200190815260200160002089815481101515613c4d57fe5b90600052602060002090600202018888604051808973ffffffffffffffffffffffffffffffffffffffff1673ffffffffffffffffffffffffffffffffffffffff1681526020018873ffffffffffffffffffffffffffffffffffffffff1673ffffffffffffffffffffffffffffffffffffffff1681526020018760028015613ced576020028201915b81546000191681526020019060010190808311613cd5575b50508660028015613d17576020028201915b81546000191681526020019060010190808311613cff575b50508560028015613d41576020028201915b81546000191681526020019060010190808311613d29575b50508460028015613d6b576020028201915b81546000191681526020019060010190808311613d53575b50508381526020018281526020019850505050505050505060405180910390a15050505050565b6000806007600088815260200190815260200160002086815481101515613db557fe5b90600052602060002090602091828204019190069054906101000a900460ff1615613de557859150849050613dec565b8491508590505b613dfa878386866001612e3c565b613e08878286866000612e3c565b50505050505050565b602060405190810160405280600081525090565b602060405190810160405280600081525090565b602060405190810160405280600081525090565b815481835581811511613e8257601f016020900481601f01602090048360005260206000209182019101613e8191906140a5565b5b505050565b815481835581811511613eae57818360005260206000209182019101613ead91906140a5565b5b505050565b815481835581811511613eda57818360005260206000209182019101613ed991906140a5565b5b505050565b815481835581811511613f0c57600202816002028360005260206000209182019101613f0b91906140ca565b5b505050565b8260028101928215613f46579160200282015b82811115613f45578251829060001916905591602001919060010190613f24565b5b509050613f5391906140f6565b5090565b6080604051908101604052806000151581526020016000815260200160008152602001600081525090565b506000815560010160009055565b602060405190810160405280600081525090565b8260028101928215613fd0579182015b82811115613fcf578254825591600101919060010190613fb4565b5b509050613fdd91906140f6565b5090565b81548183558181151161401657601f016020900481601f0160209004836000526020600020918201910161401591906140a5565b5b505050565b8154818355818115116140425781836000526020600020918201910161404191906140a5565b5b505050565b81548183558181151161406e5781836000526020600020918201910161406d91906140a5565b5b505050565b8154818355818115116140a05760020281600202836000526020600020918201910161409f91906140ca565b5b505050565b6140c791905b808211156140c35760008160009055506001016140ab565b5090565b90565b6140f391905b808211156140ef57600081816140e69190613f82565b506002016140d0565b5090565b90565b61411891905b808211156141145760008160009055506001016140fc565b5090565b90565b84600360000181905550836003600101819055508260036002018160001916905550816003800160016101000a81548160ff021916908315150217905550806003800160006101000a81548160ff02191690831515021790555050505050505600a165627a7a723058204a047caae267b5428fbca1cde31ea460e72279564ba999ee6f5fb3c1dcb58f9e0029",
  "source": "pragma solidity ^0.4.18;\n\nimport 'zeppelin-solidity/contracts/math/SafeMath.sol';\nimport './ExchangeStructs.sol';\n/// @title Exchange\n/// @author Karim Helmy\n\n// Primary contract: Describes functions of exchange\ncontract Exchange is ExchangeStructs {\n  // TODO: Make all operations safe\n  using SafeMath for uint;\n\n  // SECTION: Declaring/initializing variables\n  address public owner = msg.sender;\n  uint public PRECISION = 10 ** 18;\n\n  // separate out the open balance (includes unclosed fees, gas fees),\n  // which will be distributed between miners, the exchange, and traders,\n  // from closed balance, which belongs to the exchange\n  uint public openBalance = 0;\n\n  Parameters public params;\n\n  // separate chapters for different currency pairs\n  // that's why they're 2D\n  /*\n  * Web3 can't properly handle structs.\n  * Ethers.js can only handle them under experimental version.\n  * Therefore, the old orderBook and adressBook pattern won't work.\n  * \\_()_/\n  */\n  // separate chapters for different currency pairs\n  // that's why they're 2D\n  mapping (uint => bool[]) public buyBook;\n  mapping (uint => uint[]) public volBook;\n  mapping (uint => uint[]) public minVolBook;\n  mapping (uint => uint[]) public limitBook;\n\n  mapping (uint => address[]) public ethAddressBook;\n  mapping (uint => bytes32[2][]) public firstAddressBook;\n  mapping (uint => bytes32[2][]) public secondAddressBook;\n\n  // Fixed fees per unit, rather than using dynamic exchange rate\n  // Different fees for buy/sell\n  // can be done with mapping (uint => mapping (bool => uint))\n  // Allows us to use multiple currencies (not just Ether trading pairs)\n\n  mapping (uint => mapping (bool => uint)) closureFees;\n  mapping (uint => mapping (bool => uint)) cancelFees;\n\n  // KYC whitelists\n  mapping (address => bool) minerWhitelist;\n  mapping (address => bool) traderWhitelist;\n\n  // Numbers of orders that have been closed are kept here\n  uint[] numsCleared;\n\n  // SECTION: Constructor and helpers\n  // Constructor for contract\n  function Exchange(uint closureFeeBuy0, uint closureFeeSell0,\n                    uint cancelFeeBuy0, uint cancelFeeSell0,\n                    uint cleanSize, uint minerShare,\n                    bytes32 difficulty, bool minerKYC, bool traderKYC)\n    public\n  {\n    // Initialize parameters books\n    setParams(cleanSize, minerShare, difficulty, minerKYC, traderKYC);\n    // Initialize order books\n    addChapter(0, closureFeeBuy0, closureFeeSell0,\n                cancelFeeBuy0, cancelFeeSell0);\n    return;\n  }\n\n  // SECTION: Permissions\n  // Modified: http://solidity.readthedocs.io/en/v0.3.1/common-patterns.html\n  modifier onlyBy(address _account)\n  {\n    require(msg.sender == _account);\n    _;\n  }\n\n  modifier minerWhitelisted(address _account)\n  {\n    require(minerWhitelist[msg.sender] || ! params.minerKYC);\n    _;\n  }\n\n  modifier traderWhitelisted(address _account)\n  {\n    require(traderWhitelist[msg.sender] || ! params.traderKYC);\n    _;\n  }\n\n  function changeOwner(address _newOwner)\n    public\n    onlyBy(owner)\n  {\n    owner = _newOwner;\n  }\n\n  function addToMinerWhitelist(address newAddress)\n    public\n    onlyBy(owner)\n  {\n    minerWhitelist[newAddress] = true;\n  }\n\n  function addToTraderWhitelist(address newAddress)\n    public\n    onlyBy(owner)\n  {\n    traderWhitelist[newAddress] = true;\n  }\n\n  /*\n  * Initializes order book and address book for chapter\n  * Only used in constructor\n  * Pushes \"genesis order\" to chapter\n  * ONLY USE FOR MOST RECENT CHAPTER + 1\n  */\n  function addChapter(uint chapter, uint closureFeeBuy, uint closureFeeSell,\n                      uint cancelFeeBuy, uint cancelFeeSell)\n    public\n    onlyBy(owner)\n  {\n    buyBook[chapter].push(false);\n    volBook[chapter].push(0);\n    minVolBook[chapter].push(0);\n    limitBook[chapter].push(0);\n\n    ethAddressBook[chapter].push(address(0));\n    firstAddressBook[chapter].push([bytes32(0), bytes32(0)]);\n    secondAddressBook[chapter].push([bytes32(0), bytes32(0)]);\n    // Initialize numsCleared[chapter] as zero\n    numsCleared.push(0);\n\n    closureFees[chapter][true] = closureFeeBuy;\n    closureFees[chapter][false] = closureFeeSell;\n    cancelFees[chapter][true] = cancelFeeBuy;\n    cancelFees[chapter][false] = cancelFeeSell;\n  }\n\n  // Init the params struct, which contains the bulk of exchange's parameters\n  // Only used in constructor\n  function setParams(uint cleanSize, uint minerShare,\n                    bytes32 difficulty, bool minerKYC, bool traderKYC)\n    internal\n  {\n    params.cleanSize = cleanSize;\n    params.minerShare = minerShare;\n    params.difficulty = difficulty;\n    params.minerKYC = minerKYC;\n    params.traderKYC = traderKYC;\n  }\n\n  // SECTION: Getters\n  // Get chapter from order book\n  function getOrderChapter(uint chapter)\n    external\n    view\n    returns(bool[] buyChapter, uint[] volChapter,\n            uint[] minVolChapter, uint[] limitChapter)\n  {\n    return(buyBook[chapter], volBook[chapter],\n          minVolBook[chapter], limitBook[chapter]);\n  }\n\n  /*\n  * Wish I could've bundled these.\n  * For some reason, get a bug when firstAddressChapter and secondAddressChapter are together.\n  * Suspect it has something to do with returning dynamic arrays of fixed size arrays\n  */\n  // Get chapter from ethAddressBook\n  function getETHAddressChapter(uint chapter)\n    external\n    view\n    returns(address[] ethAddressChapter)\n  {\n    return(ethAddressBook[chapter]);\n  }\n\n  // Get chapter from firstAddressBook\n  function getFirstAddressChapter(uint chapter)\n    external\n    view\n    returns(bytes32[2][] firstAddressChapter)\n  {\n    return(firstAddressBook[chapter]);\n  }\n\n  // Get chapter from secondAddressBook\n  function getSecondAddressChapter(uint chapter)\n    external\n    view\n    returns(bytes32[2][] secondAddressChapter)\n  {\n    return(secondAddressBook[chapter]);\n  }\n\n  // SECTION: Core functionality\n  // Checks edge cases for match verification\n  function checkMatchEdges(uint chapter, uint index1, uint index2)\n    private\n    view\n    returns(bool passes)\n  {\n    // valid indices\n    require(index1 < buyBook[chapter].length);\n    require(index2 < buyBook[chapter].length);\n    //One buy order and one sell order\n    require(buyBook[chapter][index1] != buyBook[chapter][index2]);\n    //Non-empty order\n    require(volBook[chapter][index1] != 0);\n    require(volBook[chapter][index2] != 0);\n    // All edge cases work!\n    return true;\n  }\n\n  // verifies that match is valid\n  function calcRateAndVol(uint chapter, uint index1, uint index2)\n    public\n    view\n    returns (uint mimRate, uint alphaVol)\n  {\n    // check edge cases\n    if (! checkMatchEdges(chapter, index1, index2)) {\n      return (0,0);\n    }\n    // which order is buying and selling ETH?\n    // buy-sell copy1\n    uint buyIndex;\n    uint sellIndex;\n    if (buyBook[chapter][index1]) {\n      buyIndex = index1;\n      sellIndex = index2;\n    } else{\n      buyIndex = index2;\n      sellIndex = index1;\n    }\n    // shorthand for buy and sell orders\n    Order memory buyOrder = Order(true, volBook[chapter][buyIndex],\n                                  minVolBook[chapter][buyIndex],\n                                  limitBook[chapter][buyIndex]);\n    Order memory sellOrder = Order(false, volBook[chapter][sellIndex],\n                                  minVolBook[chapter][sellIndex],\n                                  limitBook[chapter][sellIndex]);\n\n    // Non-contradictory limits\n    if (buyOrder.limit < sellOrder.limit) {\n      return (0, 0);\n    }\n    // Meet in middle rate\n    // mimRate\n    mimRate = (buyOrder.limit + sellOrder.limit) / 2;\n    // Volumes comparable\n    if (buyOrder.volume * PRECISION > sellOrder.volume * mimRate) {\n      if (buyOrder.minVolume * PRECISION > sellOrder.volume * mimRate) {\n        return (0, 0);\n      }\n      return (mimRate, sellOrder.volume * mimRate);\n    }\n    if (sellOrder.volume * mimRate > buyOrder.volume * PRECISION ) {\n      if (sellOrder.minVolume * mimRate > buyOrder.volume * PRECISION) {\n        return (0, 0);\n      }\n    }\n    return (mimRate, buyOrder.volume);\n  }\n\n  // Clears closed trade, reenters into order book if incomplete\n  function clearTrade(uint chapter, uint index1, uint index2,\n                      uint mimRate, uint alphaVol)\n    private\n  {\n    // which order is buying and selling ETH?\n    // buy-sell copy1\n    uint buyIndex;\n    uint sellIndex;\n    if (buyBook[chapter][index1]) {\n      buyIndex = index1;\n      sellIndex = index2;\n    } else{\n      buyIndex = index2;\n      sellIndex = index1;\n    }\n    clearOrder(chapter, buyIndex, mimRate, alphaVol, true);\n    clearOrder(chapter, sellIndex, mimRate, alphaVol, false);\n  }\n\n  function clearOrder(uint chapter, uint index,\n                      uint mimRate, uint alphaVol, bool buyAlpha)\n    private\n  {\n    if (buyAlpha) {\n      if (volBook[chapter][index] == alphaVol) {\n        numsCleared[chapter] += 1;\n      }\n      if (minVolBook[chapter][index] < alphaVol) {\n        minVolBook[chapter][index] = 0;\n      } else{\n        minVolBook[chapter][index] -= alphaVol;\n      }\n      volBook[chapter][index] -= alphaVol;\n    } else{\n      if (volBook[chapter][index] == (alphaVol * mimRate / PRECISION)) {\n        numsCleared[chapter] += 1;\n      }\n      if (minVolBook[chapter][index] < (alphaVol * mimRate / PRECISION)) {\n        minVolBook[chapter][index] = 0;\n      } else{\n        minVolBook[chapter][index] -= (alphaVol * mimRate / PRECISION);\n      }\n      volBook[chapter][index] -= alphaVol * mimRate / PRECISION;\n    }\n  }\n\n  // Adds trade to log, for traders to note\n  // http://solidity.readthedocs.io/en/latest/contracts.html?highlight=events#events\n  function alertTraders(uint chapter, uint index1, uint index2, uint mimRate, uint alphaVol)\n    private\n  {\n    TradeInfo(\n      ethAddressBook[chapter][index1], //ethAddress1,\n      ethAddressBook[chapter][index2], //ethAddress2,\n      firstAddressBook[chapter][index1], //firstAddress1,\n      firstAddressBook[chapter][index2], //firstAddress2,\n      secondAddressBook[chapter][index1], //otherAddress1,\n      secondAddressBook[chapter][index2], // otherAddress2,\n      mimRate,\n      alphaVol\n    );\n  }\n\n  // Move balance from open to closed\n  function clearBalance(uint chapter, uint alphaVol, uint buyLimit)\n    private\n  {\n    openBalance -= (closureFees[chapter][false] * alphaVol) / PRECISION;\n    openBalance -= (closureFees[chapter][true] * alphaVol * buyLimit) / (PRECISION * PRECISION);\n  }\n\n  // Clean chapter (called when size reaches size to clean)\n  function cleanChapter(uint chapter)\n    private\n    returns(bool cleaned)\n  {\n    // Clean chapter only if size is appropriate\n    if (numsCleared[chapter] < params.cleanSize) {\n      return false;\n    }\n    // For all orders\n    // If it's a cleared order:\n    // Replace it with the next one, and clear the next one\n    for (uint i = 1; i < buyBook[chapter].length; i++) {\n      if (volBook[chapter][i] == 0) {\n        if (i < buyBook[chapter].length - 1) {\n          buyBook[chapter][i] = buyBook[chapter][i+1];\n          volBook[chapter][i] = volBook[chapter][i+1];\n          minVolBook[chapter][i] = minVolBook[chapter][i+1];\n          limitBook[chapter][i] = limitBook[chapter][i+1];\n\n          ethAddressBook[chapter][i] = ethAddressBook[chapter][i+1];\n          firstAddressBook[chapter][i] = firstAddressBook[chapter][i+1];\n          secondAddressBook[chapter][i] = secondAddressBook[chapter][i+1];\n\n          delete buyBook[chapter][i+1];\n          delete volBook[chapter][i+1];\n          delete minVolBook[chapter][i+1];\n          delete limitBook[chapter][i+1];\n\n          delete ethAddressBook[chapter][i+1];\n          delete firstAddressBook[chapter][i+1];\n          delete secondAddressBook[chapter][i+1];\n        }\n      }\n    }\n    buyBook[chapter].length = buyBook[chapter].length - numsCleared[chapter];\n    volBook[chapter].length = volBook[chapter].length - numsCleared[chapter];\n    minVolBook[chapter].length = minVolBook[chapter].length - numsCleared[chapter];\n    limitBook[chapter].length = limitBook[chapter].length - numsCleared[chapter];\n\n    ethAddressBook[chapter].length = ethAddressBook[chapter].length - numsCleared[chapter];\n    firstAddressBook[chapter].length = firstAddressBook[chapter].length - numsCleared[chapter];\n    secondAddressBook[chapter].length = secondAddressBook[chapter].length - numsCleared[chapter];\n\n    numsCleared[chapter] = 0;\n    return true;\n  }\n\n  // Checks if POW (nonce) is valid\n  // Performs nonce verification (keccak256)\n  // Helper for giveMatch\n  function isValidPOW(address depositAddress, uint chapter, uint index1,\n                      uint index2, uint nonce)\n    private\n    view\n    returns(bool isValid)\n  {\n    if (params.difficulty < keccak256(depositAddress, chapter, index1, index2, nonce)) {\n      return false;\n    }\n    return true;\n  }\n\n  // Function to pay the miner what's due\n  function payMiner(uint chapter, address depositAddress, uint alphaVol)\n    private\n  {\n    // Calculate the miner's payment\n    uint minerPayment = ((params.minerShare * closureFees[chapter][true] * alphaVol) /\n                          (PRECISION * PRECISION));\n    // Pay the miner\n    depositAddress.transfer(minerPayment);\n  }\n\n  // Miners suggest matches with this function\n  // Wrapper for calcRateAndVol and isValidPOW, performs other required functions\n  function giveMatch(address depositAddress, uint chapter,\n                    uint index1, uint index2, uint nonce)\n    public\n    minerWhitelisted(msg.sender)\n    returns(bool isValid)\n  {\n    // Validate nonce\n    require(isValidPOW(depositAddress, chapter, index1, index2, nonce));\n    var (mimRate, alphaVol) = calcRateAndVol(chapter, index1, index2);\n    require(alphaVol > 0);\n    // which order is buying and selling ETH?\n    // buy-sell copy1\n    uint buyIndex;\n    uint sellIndex;\n    if (buyBook[chapter][index1]) {\n      buyIndex = index1;\n      sellIndex = index2;\n    } else{\n      buyIndex = index2;\n      sellIndex = index1;\n    }\n    payMiner(chapter, depositAddress, alphaVol);\n    clearBalance(chapter, alphaVol, limitBook[chapter][buyIndex]);\n    alertTraders(chapter, buyIndex, sellIndex, mimRate, alphaVol);\n    clearTrade(chapter, index1, index2, mimRate, alphaVol);\n    cleanChapter(chapter);\n    return true;\n  }\n\n  function paidEnough(bool buyAlpha, uint value, uint volume, uint limit, uint chapter)\n    private\n    returns(bool accepted)\n  {\n    // TODO: NEXT VERSION: Instant refunds (prototype code below)\n    if (buyAlpha) {\n      require(limit * value >= volume * closureFees[chapter][buyAlpha]);\n      openBalance += volume * closureFees[chapter][buyAlpha] * limit / (PRECISION * PRECISION);\n      msg.sender.transfer(value - (volume * closureFees[chapter][buyAlpha] *\n                          limit / (PRECISION * PRECISION)));\n      //msg.sender.transfer((limit * msg.value) - (volume * params.closureFee));\n    } else{\n      require(value >= volume * closureFees[chapter][buyAlpha] / PRECISION);\n      openBalance += volume * closureFees[chapter][buyAlpha] / PRECISION;\n      msg.sender.transfer(value - (volume * closureFees[chapter][buyAlpha] / PRECISION));\n      //msg.sender.transfer(msg.value - (volume * params.closureFee / PRECISION));\n    }\n    return true;\n  }\n\n  // Place market taker orders: choose an index and match with it\n  function placeTakeOrder(bool buyAlpha, uint volume,\n                          address ethAddress, bytes32[2] firstAddress,\n                          bytes32[2] otherAddress,\n                          uint chapter, uint index1, uint nonce)\n    public\n    payable\n    traderWhitelisted(msg.sender)\n    returns(bool accepted)\n  {\n    require(index1 < buyBook[chapter].length);\n    //One buy order and one sell order\n    require(buyAlpha != buyBook[chapter][index1]);\n    //Non-empty order\n    require(volBook[chapter][index1] != 0);\n    require(volume > 0);\n    require(isValidPOW(ethAddress, chapter, 0, index1, nonce));\n    require(paidEnough(buyAlpha, msg.value, volume, limitBook[chapter][index1], chapter));\n\n    uint alphaVol;\n    if (buyAlpha) {\n      require(volume >= minVolBook[chapter][index1] *\n              limitBook[chapter][index1] /  PRECISION);\n      require(volume <= volBook[chapter][index1] *\n              limitBook[chapter][index1] / PRECISION);\n      alphaVol = volume;\n      TradeInfo(\n        ethAddress, //ethAddress1,\n        ethAddressBook[chapter][index1], //ethAddress2,\n        firstAddress, //firstAddress1,\n        firstAddressBook[chapter][index1], //firstAddress2,\n        otherAddress, //otherAddress1,\n        secondAddressBook[chapter][index1], // otherAddress2,\n        limitBook[chapter][index1],\n        alphaVol\n      );\n    } else {\n      alphaVol = volume * limitBook[chapter][index1] /  PRECISION;\n      require(alphaVol >= minVolBook[chapter][index1]);\n      require(alphaVol <= volBook[chapter][index1]);\n      TradeInfo(\n        ethAddressBook[chapter][index1], //ethAddress1,\n        ethAddress, //ethAddress2,\n        firstAddressBook[chapter][index1], //firstAddress1,\n        firstAddress, //firstAddress2,\n        secondAddressBook[chapter][index1], //otherAddress1,\n        otherAddress, // otherAddress2,\n        limitBook[chapter][index1],\n        alphaVol\n      );\n    }\n\n    clearBalance(alphaVol, limitBook[chapter][index1], limitBook[chapter][index1]);\n    clearOrder(chapter, index1, limitBook[chapter][index1], alphaVol, ! buyAlpha);\n    cleanChapter(chapter);\n    return true;\n  }\n\n  // Allows traders to place (limit) orders\n  function placeOrder(bool buyAlpha, uint volume, uint minVolume, uint limit,\n                      address ethAddress, bytes32[2] firstAddress,\n                      bytes32[2] otherAddress, uint chapter)\n    public\n    payable\n    traderWhitelisted(msg.sender)\n    returns(bool accepted)\n  {\n    require(volume > 0);\n    require(minVolume > 0);\n    require(volume >= minVolume);\n    require(limit > 0);\n    require(paidEnough(buyAlpha, msg.value, volume, limit, chapter));\n    require(buyBook[chapter].length > 0);\n\n    buyBook[chapter].push(buyAlpha);\n    volBook[chapter].push(volume);\n    minVolBook[chapter].push(minVolume);\n    limitBook[chapter].push(limit);\n\n    ethAddressBook[chapter].push(ethAddress);\n    firstAddressBook[chapter].push(firstAddress);\n    secondAddressBook[chapter].push(otherAddress);\n    return true;\n  }\n\n  // Allows traders to cancel orders\n  function cancelOrder(uint chapter, uint index)\n    public\n    returns(bool accepted)\n  {\n    require(index < buyBook[chapter].length);\n    // Can't cancel other people's orders\n    require(msg.sender == ethAddressBook[chapter][index]);\n\n    uint limit = limitBook[chapter][index];\n    uint volume = volBook[chapter][index];\n    bool buyAlpha = buyBook[chapter][index];\n\n    // Refund according to alpha transaction volume\n    if (buyBook[chapter][index]) {\n      msg.sender.transfer(volume * (closureFees[chapter][buyAlpha] - cancelFees[chapter][buyAlpha]) / limit);\n    } else{\n      msg.sender.transfer(volume * (closureFees[chapter][buyAlpha] - cancelFees[chapter][buyAlpha]) / limit);\n    }\n    delete buyBook[chapter][index];\n    delete volBook[chapter][index];\n    delete minVolBook[chapter][index];\n    delete limitBook[chapter][index];\n\n    delete ethAddressBook[chapter][index];\n    delete firstAddressBook[chapter][index];\n    delete secondAddressBook[chapter][index];\n\n    numsCleared[chapter] += 1;\n    cleanChapter(chapter);\n    return true;\n  }\n}\n",
  "sourcePath": "/Users/Karim/Desktop/Valex/contracts/Exchange.sol",
  "compiler": {
    "name": "solc",
    "version": "0.4.18+commit.9cf6e910.Emscripten.clang"
  },
  "schemaVersion": "1.0.1",
  "updatedAt": "2018-05-07T07:23:48.422Z"
}