{
  "contractName": "Exchange",
  "abi": [
    {
      "constant": true,
      "inputs": [
        {
          "name": "",
          "type": "uint256"
        },
        {
          "name": "",
          "type": "uint256"
        },
        {
          "name": "",
          "type": "uint256"
        }
      ],
      "name": "secondAddressBook",
      "outputs": [
        {
          "name": "",
          "type": "bytes32"
        }
      ],
      "payable": false,
      "stateMutability": "view",
      "type": "function"
    },
    {
      "constant": true,
      "inputs": [
        {
          "name": "chapter",
          "type": "uint256"
        }
      ],
      "name": "getSecondAddressChapter",
      "outputs": [
        {
          "name": "secondAddressChapter",
          "type": "bytes32[2][]"
        }
      ],
      "payable": false,
      "stateMutability": "view",
      "type": "function"
    },
    {
      "constant": true,
      "inputs": [
        {
          "name": "",
          "type": "uint256"
        },
        {
          "name": "",
          "type": "uint256"
        },
        {
          "name": "",
          "type": "uint256"
        }
      ],
      "name": "firstAddressBook",
      "outputs": [
        {
          "name": "",
          "type": "bytes32"
        }
      ],
      "payable": false,
      "stateMutability": "view",
      "type": "function"
    },
    {
      "constant": true,
      "inputs": [
        {
          "name": "",
          "type": "uint256"
        },
        {
          "name": "",
          "type": "uint256"
        }
      ],
      "name": "buyBook",
      "outputs": [
        {
          "name": "",
          "type": "bool"
        }
      ],
      "payable": false,
      "stateMutability": "view",
      "type": "function"
    },
    {
      "constant": true,
      "inputs": [
        {
          "name": "chapter",
          "type": "uint256"
        }
      ],
      "name": "getOrderChapter",
      "outputs": [
        {
          "name": "buyChapter",
          "type": "bool[]"
        },
        {
          "name": "volChapter",
          "type": "uint256[]"
        },
        {
          "name": "minVolChapter",
          "type": "uint256[]"
        },
        {
          "name": "limitChapter",
          "type": "uint256[]"
        }
      ],
      "payable": false,
      "stateMutability": "view",
      "type": "function"
    },
    {
      "constant": false,
      "inputs": [
        {
          "name": "buyETH",
          "type": "bool"
        },
        {
          "name": "volume",
          "type": "uint256"
        },
        {
          "name": "minVolume",
          "type": "uint256"
        },
        {
          "name": "limit",
          "type": "uint256"
        },
        {
          "name": "ethAddress",
          "type": "address"
        },
        {
          "name": "firstAddress",
          "type": "bytes32[2]"
        },
        {
          "name": "otherAddress",
          "type": "bytes32[2]"
        },
        {
          "name": "chapter",
          "type": "uint256"
        }
      ],
      "name": "placeOrder",
      "outputs": [
        {
          "name": "accepted",
          "type": "bool"
        }
      ],
      "payable": true,
      "stateMutability": "payable",
      "type": "function"
    },
    {
      "constant": true,
      "inputs": [
        {
          "name": "",
          "type": "uint256"
        },
        {
          "name": "",
          "type": "uint256"
        }
      ],
      "name": "ethAddressBook",
      "outputs": [
        {
          "name": "",
          "type": "address"
        }
      ],
      "payable": false,
      "stateMutability": "view",
      "type": "function"
    },
    {
      "constant": true,
      "inputs": [],
      "name": "exBalances",
      "outputs": [
        {
          "name": "openBalance",
          "type": "uint256"
        },
        {
          "name": "closedBalance",
          "type": "uint256"
        }
      ],
      "payable": false,
      "stateMutability": "view",
      "type": "function"
    },
    {
      "constant": true,
      "inputs": [
        {
          "name": "",
          "type": "uint256"
        },
        {
          "name": "",
          "type": "uint256"
        }
      ],
      "name": "limitBook",
      "outputs": [
        {
          "name": "",
          "type": "uint256"
        }
      ],
      "payable": false,
      "stateMutability": "view",
      "type": "function"
    },
    {
      "constant": true,
      "inputs": [
        {
          "name": "",
          "type": "uint256"
        },
        {
          "name": "",
          "type": "uint256"
        }
      ],
      "name": "minVolBook",
      "outputs": [
        {
          "name": "",
          "type": "uint256"
        }
      ],
      "payable": false,
      "stateMutability": "view",
      "type": "function"
    },
    {
      "constant": true,
      "inputs": [],
      "name": "PRECISION",
      "outputs": [
        {
          "name": "",
          "type": "uint256"
        }
      ],
      "payable": false,
      "stateMutability": "view",
      "type": "function"
    },
    {
      "constant": false,
      "inputs": [
        {
          "name": "chapter",
          "type": "uint256"
        },
        {
          "name": "index",
          "type": "uint256"
        }
      ],
      "name": "cancelOrder",
      "outputs": [
        {
          "name": "accepted",
          "type": "bool"
        }
      ],
      "payable": false,
      "stateMutability": "nonpayable",
      "type": "function"
    },
    {
      "constant": true,
      "inputs": [],
      "name": "params",
      "outputs": [
        {
          "name": "closureFee",
          "type": "uint256"
        },
        {
          "name": "cancelFee",
          "type": "uint256"
        },
        {
          "name": "cleanSize",
          "type": "uint256"
        },
        {
          "name": "minerShare",
          "type": "uint256"
        },
        {
          "name": "distBalance",
          "type": "uint256"
        },
        {
          "name": "difficulty",
          "type": "bytes32"
        }
      ],
      "payable": false,
      "stateMutability": "view",
      "type": "function"
    },
    {
      "constant": false,
      "inputs": [
        {
          "name": "depositAddress",
          "type": "address"
        },
        {
          "name": "chapter",
          "type": "uint256"
        },
        {
          "name": "index1",
          "type": "uint256"
        },
        {
          "name": "index2",
          "type": "uint256"
        },
        {
          "name": "nonce",
          "type": "uint256"
        }
      ],
      "name": "giveMatch",
      "outputs": [
        {
          "name": "isValid",
          "type": "bool"
        }
      ],
      "payable": true,
      "stateMutability": "payable",
      "type": "function"
    },
    {
      "constant": true,
      "inputs": [
        {
          "name": "chapter",
          "type": "uint256"
        }
      ],
      "name": "getETHAddressChapter",
      "outputs": [
        {
          "name": "ethAddressChapter",
          "type": "address[]"
        }
      ],
      "payable": false,
      "stateMutability": "view",
      "type": "function"
    },
    {
      "constant": true,
      "inputs": [
        {
          "name": "",
          "type": "uint256"
        },
        {
          "name": "",
          "type": "uint256"
        }
      ],
      "name": "volBook",
      "outputs": [
        {
          "name": "",
          "type": "uint256"
        }
      ],
      "payable": false,
      "stateMutability": "view",
      "type": "function"
    },
    {
      "constant": true,
      "inputs": [
        {
          "name": "chapter",
          "type": "uint256"
        }
      ],
      "name": "getFirstAddressChapter",
      "outputs": [
        {
          "name": "firstAddressChapter",
          "type": "bytes32[2][]"
        }
      ],
      "payable": false,
      "stateMutability": "view",
      "type": "function"
    },
    {
      "inputs": [
        {
          "name": "closureFee",
          "type": "uint256"
        },
        {
          "name": "cancelFee",
          "type": "uint256"
        },
        {
          "name": "cleanSize",
          "type": "uint256"
        },
        {
          "name": "minerShare",
          "type": "uint256"
        },
        {
          "name": "distBalance",
          "type": "uint256"
        },
        {
          "name": "difficulty",
          "type": "bytes32"
        }
      ],
      "payable": false,
      "stateMutability": "nonpayable",
      "type": "constructor"
    },
    {
      "anonymous": false,
      "inputs": [
        {
          "indexed": false,
          "name": "ethAddress1",
          "type": "address"
        },
        {
          "indexed": false,
          "name": "ethAddress2",
          "type": "address"
        },
        {
          "indexed": false,
          "name": "firstAddress1",
          "type": "bytes32[2]"
        },
        {
          "indexed": false,
          "name": "firstAddress2",
          "type": "bytes32[2]"
        },
        {
          "indexed": false,
          "name": "otherAddress1",
          "type": "bytes32[2]"
        },
        {
          "indexed": false,
          "name": "otherAddress2",
          "type": "bytes32[2]"
        },
        {
          "indexed": false,
          "name": "mimRate",
          "type": "uint256"
        },
        {
          "indexed": false,
          "name": "ethVol",
          "type": "uint256"
        }
      ],
      "name": "TradeInfo",
      "type": "event"
    }
  ],
  "bytecode": "0x6060604052670de0b6b3a764000060005534156200001c57600080fd5b60405160c080620033b5833981016040528080519060200190919080519060200190919080519060200190919080519060200190919080519060200190919080519060200190919050506200008a868686868686620000df6401000000000262002b82176401000000009004565b620000a8620001266401000000000262002bc9176401000000009004565b60108054806001018281620000be91906200039f565b91600052602060002090016000809091909150555050505050505062000549565b856001600001819055508460018001819055508360016002018190555082600160030181905550816001600401819055508060016005018160001916905550505050505050565b6009600080815260200190815260200160002080548060010182816200014d9190620003ce565b91600052602060002090602091828204019190066000909190916101000a81548160ff02191690831515021790555050600a60008081526020019081526020016000208054806001018281620001a491906200039f565b916000526020600020900160008090919091505550600b60008081526020019081526020016000208054806001018281620001e091906200039f565b916000526020600020900160008090919091505550600c600080815260200190815260200160002080548060010182816200021c91906200039f565b916000526020600020900160008090919091505550600d600080815260200190815260200160002080548060010182816200025891906200040b565b9160005260206000209001600080909190916101000a81548173ffffffffffffffffffffffffffffffffffffffff021916908373ffffffffffffffffffffffffffffffffffffffff16021790555050600e60008081526020019081526020016000208054806001018281620002ce91906200043a565b916000526020600020906002020160006040805190810160405280600060010260001916600019168152602001600060010260001916600019168152509091909150906002620003209291906200046f565b5050600f600080815260200190815260200160002080548060010182816200034991906200043a565b9160005260206000209060020201600060408051908101604052806000600102600019166000191681526020016000600102600019166000191681525090919091509060026200039b9291906200046f565b5050565b815481835581811511620003c957818360005260206000209182019101620003c89190620004ba565b5b505050565b8154818355818115116200040657601f016020900481601f01602090048360005260206000209182019101620004059190620004ba565b5b505050565b8154818355818115116200043557818360005260206000209182019101620004349190620004ba565b5b505050565b8154818355818115116200046a57600202816002028360005260206000209182019101620004699190620004e2565b5b505050565b8260028101928215620004a7579160200282015b82811115620004a657825182906000191690559160200191906001019062000483565b5b509050620004b6919062000513565b5090565b620004df91905b80821115620004db576000816000905550600101620004c1565b5090565b90565b6200051091905b808211156200050c57600081816200050291906200053b565b50600201620004e9565b5090565b90565b6200053891905b80821115620005345760008160009055506001016200051a565b5090565b90565b506000815560010160009055565b612e5c80620005596000396000f3006060604052600436106100f1576000357c0100000000000000000000000000000000000000000000000000000000900463ffffffff16806310fc8a15146100f6578063145404fc14610147578063324a1467146101e25780633af8c2d5146102335780633b6a08001461027757806349827685146103c757806353c1d88214610494578063737f02af146105005780638139cbc6146105305780639febbcfa14610570578063aaf5eb68146105b0578063b6ed0632146105d9578063cff0ab961461061d578063d2426ab914610671578063e0cfdce0146106db578063e0f1f59f14610753578063ee4b94bb14610793575b600080fd5b341561010157600080fd5b610129600480803590602001909190803590602001909190803590602001909190505061082e565b60405180826000191660001916815260200191505060405180910390f35b341561015257600080fd5b6101686004808035906020019091905050610871565b60405180806020018281038252838181518152602001915080516000925b818410156101d157828490602001906020020151600260200280838360005b838110156101c05780820151818401526020810190506101a5565b505050509050019260010192610186565b925050509250505060405180910390f35b34156101ed57600080fd5b610215600480803590602001909190803590602001909190803590602001909190505061091e565b60405180826000191660001916815260200191505060405180910390f35b341561023e57600080fd5b61025d6004808035906020019091908035906020019091905050610961565b604051808215151515815260200191505060405180910390f35b341561028257600080fd5b61029860048080359060200190919050506109a3565b6040518080602001806020018060200180602001858103855289818151815260200191508051906020019060200280838360005b838110156102e75780820151818401526020810190506102cc565b50505050905001858103845288818151815260200191508051906020019060200280838360005b8381101561032957808201518184015260208101905061030e565b50505050905001858103835287818151815260200191508051906020019060200280838360005b8381101561036b578082015181840152602081019050610350565b50505050905001858103825286818151815260200191508051906020019060200280838360005b838110156103ad578082015181840152602081019050610392565b505050509050019850505050505050505060405180910390f35b61047a6004808035151590602001909190803590602001909190803590602001909190803590602001909190803573ffffffffffffffffffffffffffffffffffffffff1690602001909190806040019060028060200260405190810160405280929190826002602002808284378201915050505050919080604001906002806020026040519081016040528092919082600260200280828437820191505050505091908035906020019091905050610b8b565b604051808215151515815260200191505060405180910390f35b341561049f57600080fd5b6104be6004808035906020019091908035906020019091905050610e5d565b604051808273ffffffffffffffffffffffffffffffffffffffff1673ffffffffffffffffffffffffffffffffffffffff16815260200191505060405180910390f35b341561050b57600080fd5b610513610eab565b604051808381526020018281526020019250505060405180910390f35b341561053b57600080fd5b61055a6004808035906020019091908035906020019091905050610ebd565b6040518082815260200191505060405180910390f35b341561057b57600080fd5b61059a6004808035906020019091908035906020019091905050610eee565b6040518082815260200191505060405180910390f35b34156105bb57600080fd5b6105c3610f1f565b6040518082815260200191505060405180910390f35b34156105e457600080fd5b6106036004808035906020019091908035906020019091905050610f25565b604051808215151515815260200191505060405180910390f35b341561062857600080fd5b6106306112fa565b604051808781526020018681526020018581526020018481526020018381526020018260001916600019168152602001965050505050505060405180910390f35b6106c1600480803573ffffffffffffffffffffffffffffffffffffffff16906020019091908035906020019091908035906020019091908035906020019091908035906020019091905050611324565b604051808215151515815260200191505060405180910390f35b34156106e657600080fd5b6106fc6004808035906020019091905050611404565b6040518080602001828103825283818151815260200191508051906020019060200280838360005b8381101561073f578082015181840152602081019050610724565b505050509050019250505060405180910390f35b341561075e57600080fd5b61077d60048080359060200190919080359060200190919050506114ab565b6040518082815260200191505060405180910390f35b341561079e57600080fd5b6107b460048080359060200190919050506114dc565b60405180806020018281038252838181518152602001915080516000925b8184101561081d57828490602001906020020151600260200280838360005b8381101561080c5780820151818401526020810190506107f1565b5050505090500192600101926107d2565b925050509250505060405180910390f35b600f6020528260005260406000208281548110151561084957fe5b90600052602060002090600202018160028110151561086457fe5b0160009250925050505481565b610879612878565b600f6000838152602001908152602001600020805480602002602001604051908101604052809291908181526020016000905b8282101561091357838290600052602060002090600202016002806020026040519081016040528092919082600280156108ff576020028201915b815460001916815260200190600101908083116108e7575b5050505050815260200190600101906108ac565b505050509050919050565b600e6020528260005260406000208281548110151561093957fe5b90600052602060002090600202018160028110151561095457fe5b0160009250925050505481565b60096020528160005260406000208181548110151561097c57fe5b9060005260206000209060209182820401919006915091509054906101000a900460ff1681565b6109ab61288c565b6109b36128a0565b6109bb6128a0565b6109c36128a0565b60096000868152602001908152602001600020600a6000878152602001908152602001600020600b6000888152602001908152602001600020600c600089815260200190815260200160002083805480602002602001604051908101604052809291908181526020018280548015610a7f57602002820191906000526020600020906000905b82829054906101000a900460ff16151581526020019060010190602082600001049283019260010382029150808411610a495790505b5050505050935082805480602002602001604051908101604052809291908181526020018280548015610ad157602002820191906000526020600020905b815481526020019060010190808311610abd575b5050505050925081805480602002602001604051908101604052809291908181526020018280548015610b2357602002820191906000526020600020905b815481526020019060010190808311610b0f575b5050505050915080805480602002602001604051908101604052809291908181526020018280548015610b7557602002820191906000526020600020905b815481526020019060010190808311610b61575b5050505050905093509350935093509193509193565b60008088111515610b9b57600080fd5b600087111515610baa57600080fd5b868810151515610bb957600080fd5b600086111515610bc857600080fd5b8815610bf8576000546001600001548902811515610be257fe5b0434870210151515610bf357600080fd5b610c1c565b6000546001600001548902811515610c0c57fe5b043410151515610c1b57600080fd5b5b60006009600084815260200190815260200160002080549050111515610c4157600080fd5b600960008381526020019081526020016000208054806001018281610c6691906128b4565b91600052602060002090602091828204019190068b909190916101000a81548160ff02191690831515021790555050600a60008381526020019081526020016000208054806001018281610cba91906128ee565b916000526020600020900160008a90919091505550600b60008381526020019081526020016000208054806001018281610cf491906128ee565b916000526020600020900160008990919091505550600c60008381526020019081526020016000208054806001018281610d2e91906128ee565b916000526020600020900160008890919091505550600d60008381526020019081526020016000208054806001018281610d68919061291a565b9160005260206000209001600087909190916101000a81548173ffffffffffffffffffffffffffffffffffffffff021916908373ffffffffffffffffffffffffffffffffffffffff16021790555050600e60008381526020019081526020016000208054806001018281610ddc9190612946565b91600052602060002090600202016000869091909150906002610e00929190612978565b5050600f60008381526020019081526020016000208054806001018281610e279190612946565b91600052602060002090600202016000859091909150906002610e4b929190612978565b50506001905098975050505050505050565b600d60205281600052604060002081815481101515610e7857fe5b90600052602060002090016000915091509054906101000a900473ffffffffffffffffffffffffffffffffffffffff1681565b60078060000154908060010154905082565b600c60205281600052604060002081815481101515610ed857fe5b9060005260206000209001600091509150505481565b600b60205281600052604060002081815481101515610f0957fe5b9060005260206000209001600091509150505481565b60005481565b6000806000600960008681526020019081526020016000208054905084101515610f4e57600080fd5b600d600086815260200190815260200160002084815481101515610f6e57fe5b906000526020600020900160009054906101000a900473ffffffffffffffffffffffffffffffffffffffff1673ffffffffffffffffffffffffffffffffffffffff163373ffffffffffffffffffffffffffffffffffffffff16141515610fd357600080fd5b600c600086815260200190815260200160002084815481101515610ff357fe5b9060005260206000209001549150600a60008681526020019081526020016000208481548110151561102157fe5b9060005260206000209001549050600960008681526020019081526020016000208481548110151561104f57fe5b90600052602060002090602091828204019190069054906101000a900460ff16156110d1573373ffffffffffffffffffffffffffffffffffffffff166108fc8360018001546001600001540384028115156110a657fe5b049081150290604051600060405180830381858888f1935050505015156110cc57600080fd5b61112a565b3373ffffffffffffffffffffffffffffffffffffffff166108fc83600180015460016000015403840281151561110357fe5b049081150290604051600060405180830381858888f19350505050151561112957600080fd5b5b600960008681526020019081526020016000208481548110151561114a57fe5b90600052602060002090602091828204019190066101000a81549060ff0219169055600a60008681526020019081526020016000208481548110151561118c57fe5b906000526020600020900160009055600b6000868152602001908152602001600020848154811015156111bb57fe5b906000526020600020900160009055600c6000868152602001908152602001600020848154811015156111ea57fe5b906000526020600020900160009055600d60008681526020019081526020016000208481548110151561121957fe5b906000526020600020900160006101000a81549073ffffffffffffffffffffffffffffffffffffffff0219169055600e60008681526020019081526020016000208481548110151561126757fe5b9060005260206000209060020201600061128191906129be565b600f6000868152602001908152602001600020848154811015156112a157fe5b906000526020600020906002020160006112bb91906129be565b60016010868154811015156112cc57fe5b9060005260206000209001600082825401925050819055506112ed85611589565b5060019250505092915050565b60018060000154908060010154908060020154908060030154908060040154908060050154905086565b6000806000806113378989898989611d8c565b151561134657600093506113f8565b611351888888611e2a565b92509250600082141561136757600093506113f8565b60005482600160000154600160030154020281151561138257fe5b0490508873ffffffffffffffffffffffffffffffffffffffff166108fc829081150290604051600060405180830381858888f1935050505015156113c557600080fd5b6113cf81836120ea565b6113dc8888888686612156565b6113e988888886866123fe565b6113f288611589565b50600193505b50505095945050505050565b61140c6129cc565b600d600083815260200190815260200160002080548060200260200160405190810160405280929190818152602001828054801561149f57602002820191906000526020600020905b8160009054906101000a900473ffffffffffffffffffffffffffffffffffffffff1673ffffffffffffffffffffffffffffffffffffffff1681526020019060010190808311611455575b50505050509050919050565b600a602052816000526040600020818154811015156114c657fe5b9060005260206000209001600091509150505481565b6114e4612878565b600e6000838152602001908152602001600020805480602002602001604051908101604052809291908181526020016000905b8282101561157e578382906000526020600020906002020160028060200260405190810160405280929190826002801561156a576020028201915b81546000191681526020019060010190808311611552575b505050505081526020019060010190611517565b505050509050919050565b6000806001600201546010848154811015156115a157fe5b90600052602060002090015410156115bc5760009150611d86565b600190505b6009600084815260200190815260200160002080549050811015611b23576000600a60008581526020019081526020016000208281548110151561160157fe5b9060005260206000209001541415611b16576001600960008581526020019081526020016000208054905003811015611b1557600960008481526020019081526020016000206001820181548110151561165757fe5b90600052602060002090602091828204019190069054906101000a900460ff16600960008581526020019081526020016000208281548110151561169757fe5b90600052602060002090602091828204019190066101000a81548160ff021916908315150217905550600a6000848152602001908152602001600020600182018154811015156116e357fe5b906000526020600020900154600a60008581526020019081526020016000208281548110151561170f57fe5b906000526020600020900181905550600b60008481526020019081526020016000206001820181548110151561174157fe5b906000526020600020900154600b60008581526020019081526020016000208281548110151561176d57fe5b906000526020600020900181905550600c60008481526020019081526020016000206001820181548110151561179f57fe5b906000526020600020900154600c6000858152602001908152602001600020828154811015156117cb57fe5b906000526020600020900181905550600d6000848152602001908152602001600020600182018154811015156117fd57fe5b906000526020600020900160009054906101000a900473ffffffffffffffffffffffffffffffffffffffff16600d60008581526020019081526020016000208281548110151561184957fe5b906000526020600020900160006101000a81548173ffffffffffffffffffffffffffffffffffffffff021916908373ffffffffffffffffffffffffffffffffffffffff160217905550600e6000848152602001908152602001600020600182018154811015156118b557fe5b9060005260206000209060020201600e6000858152602001908152602001600020828154811015156118e357fe5b90600052602060002090600202019060026118ff9291906129e0565b50600f60008481526020019081526020016000206001820181548110151561192357fe5b9060005260206000209060020201600f60008581526020019081526020016000208281548110151561195157fe5b906000526020600020906002020190600261196d9291906129e0565b50600960008481526020019081526020016000206001820181548110151561199157fe5b90600052602060002090602091828204019190066101000a81549060ff0219169055600a6000848152602001908152602001600020600182018154811015156119d657fe5b906000526020600020900160009055600b600084815260200190815260200160002060018201815481101515611a0857fe5b906000526020600020900160009055600c600084815260200190815260200160002060018201815481101515611a3a57fe5b906000526020600020900160009055600d600084815260200190815260200160002060018201815481101515611a6c57fe5b906000526020600020900160006101000a81549073ffffffffffffffffffffffffffffffffffffffff0219169055600e600084815260200190815260200160002060018201815481101515611abd57fe5b90600052602060002090600202016000611ad791906129be565b600f600084815260200190815260200160002060018201815481101515611afa57fe5b90600052602060002090600202016000611b1491906129be565b5b5b80806001019150506115c1565b601083815481101515611b3257fe5b9060005260206000209001546009600085815260200190815260200160002080549050036009600085815260200190815260200160002081611b749190612a1d565b50601083815481101515611b8457fe5b906000526020600020900154600a60008581526020019081526020016000208054905003600a600085815260200190815260200160002081611bc69190612a57565b50601083815481101515611bd657fe5b906000526020600020900154600b60008581526020019081526020016000208054905003600b600085815260200190815260200160002081611c189190612a57565b50601083815481101515611c2857fe5b906000526020600020900154600c60008581526020019081526020016000208054905003600c600085815260200190815260200160002081611c6a9190612a57565b50601083815481101515611c7a57fe5b906000526020600020900154600d60008581526020019081526020016000208054905003600d600085815260200190815260200160002081611cbc9190612a83565b50601083815481101515611ccc57fe5b906000526020600020900154600e60008581526020019081526020016000208054905003600e600085815260200190815260200160002081611d0e9190612aaf565b50601083815481101515611d1e57fe5b906000526020600020900154600f60008581526020019081526020016000208054905003600f600085815260200190815260200160002081611d609190612aaf565b506000601084815481101515611d7257fe5b906000526020600020900181905550600191505b50919050565b60008585858585604051808673ffffffffffffffffffffffffffffffffffffffff1673ffffffffffffffffffffffffffffffffffffffff166c0100000000000000000000000002815260140185815260200184815260200183815260200182815260200195505050505050604051809103902060001916600160050154600019161115611e1c5760009050611e21565b600190505b95945050505050565b600080600080611e38612ae1565b611e40612ae1565b611e4b89898961270f565b1515611e6357600080819150809050955095506120de565b600960008a815260200190815260200160002088815481101515611e8357fe5b90600052602060002090602091828204019190069054906101000a900460ff1615611eb357879350869250611eba565b8693508792505b608060405190810160405280600115158152602001600a60008c815260200190815260200160002086815481101515611eef57fe5b9060005260206000209001548152602001600b60008c815260200190815260200160002086815481101515611f2057fe5b9060005260206000209001548152602001600c60008c815260200190815260200160002086815481101515611f5157fe5b9060005260206000209001548152509150608060405190810160405280600015158152602001600a60008c815260200190815260200160002085815481101515611f9757fe5b9060005260206000209001548152602001600b60008c815260200190815260200160002085815481101515611fc857fe5b9060005260206000209001548152602001600c60008c815260200190815260200160002085815481101515611ff957fe5b906000526020600020900154815250905080606001518260600151101561202c57600080819150809050955095506120de565b6002816060015183606001510181151561204257fe5b0495508581602001510260005483602001510211156120945785816020015102600054836040015102111561208357600080819150809050955095506120de565b8586826020015102955095506120de565b6000548260200151028682602001510211156120d3576000548260200151028682604001510211156120d257600080819150809050955095506120de565b5b858260200151955095505b50505050935093915050565b60005481600160000154028115156120fe57fe5b0460076000015403600760000181905550600054816001600001540281151561212357fe5b048260076001015403016007600101819055506001600401546007600101541015156121525761215161286b565b5b5050565b7f389a889e7f65d263df200f5a0bc042c0ba9d0c600161ff14d87cc1daa06b8e6d600d60008781526020019081526020016000208581548110151561219757fe5b906000526020600020900160009054906101000a900473ffffffffffffffffffffffffffffffffffffffff16600d6000888152602001908152602001600020858154811015156121e357fe5b906000526020600020900160009054906101000a900473ffffffffffffffffffffffffffffffffffffffff16600e60008981526020019081526020016000208781548110151561222f57fe5b9060005260206000209060020201600e60008a81526020019081526020016000208781548110151561225d57fe5b9060005260206000209060020201600f60008b81526020019081526020016000208981548110151561228b57fe5b9060005260206000209060020201600f60008c8152602001908152602001600020898154811015156122b957fe5b90600052602060002090600202018888604051808973ffffffffffffffffffffffffffffffffffffffff1673ffffffffffffffffffffffffffffffffffffffff1681526020018873ffffffffffffffffffffffffffffffffffffffff1673ffffffffffffffffffffffffffffffffffffffff1681526020018760028015612359576020028201915b81546000191681526020019060010190808311612341575b50508660028015612383576020028201915b8154600019168152602001906001019080831161236b575b505085600280156123ad576020028201915b81546000191681526020019060010190808311612395575b505084600280156123d7576020028201915b815460001916815260200190600101908083116123bf575b50508381526020018281526020019850505050505050505060405180910390a15050505050565b600080600960008881526020019081526020016000208681548110151561242157fe5b90600052602060002090602091828204019190069054906101000a900460ff161561245157859150849050612458565b8491508590505b82600a60008981526020019081526020016000208381548110151561247957fe5b90600052602060002090015414156124b557600160108881548110151561249c57fe5b9060005260206000209001600082825401925050819055505b82600b6000898152602001908152602001600020838154811015156124d657fe5b906000526020600020900154101561251e576000600b60008981526020019081526020016000208381548110151561250a57fe5b906000526020600020900181905550612558565b82600b60008981526020019081526020016000208381548110151561253f57fe5b9060005260206000209001600082825403925050819055505b82600a60008981526020019081526020016000208381548110151561257957fe5b9060005260206000209001600082825403925050819055506000548484028115156125a057fe5b04600a6000898152602001908152602001600020828154811015156125c157fe5b90600052602060002090015414156125fd5760016010888154811015156125e457fe5b9060005260206000209001600082825401925050819055505b60005484840281151561260c57fe5b04600b60008981526020019081526020016000208281548110151561262d57fe5b9060005260206000209001541015612675576000600b60008981526020019081526020016000208281548110151561266157fe5b9060005260206000209001819055506126be565b60005484840281151561268457fe5b04600b6000898152602001908152602001600020828154811015156126a557fe5b9060005260206000209001600082825403925050819055505b6000548484028115156126cd57fe5b04600a6000898152602001908152602001600020828154811015156126ee57fe5b90600052602060002090016000828254039250508190555050505050505050565b600060096000858152602001908152602001600020805490508310151561273557600080fd5b60096000858152602001908152602001600020805490508210151561275957600080fd5b600960008581526020019081526020016000208281548110151561277957fe5b90600052602060002090602091828204019190069054906101000a900460ff16151560096000868152602001908152602001600020848154811015156127bb57fe5b90600052602060002090602091828204019190069054906101000a900460ff161515141515156127ea57600080fd5b6000600a60008681526020019081526020016000208481548110151561280c57fe5b9060005260206000209001541415151561282557600080fd5b6000600a60008681526020019081526020016000208381548110151561284757fe5b9060005260206000209001541415151561286057600080fd5b600190509392505050565b6000600760010181905550565b602060405190810160405280600081525090565b602060405190810160405280600081525090565b602060405190810160405280600081525090565b8154818355818115116128e957601f016020900481601f016020900483600052602060002091820191016128e89190612b0c565b5b505050565b815481835581811511612915578183600052602060002091820191016129149190612b0c565b5b505050565b815481835581811511612941578183600052602060002091820191016129409190612b0c565b5b505050565b815481835581811511612973576002028160020283600052602060002091820191016129729190612b31565b5b505050565b82600281019282156129ad579160200282015b828111156129ac57825182906000191690559160200191906001019061298b565b5b5090506129ba9190612b5d565b5090565b506000815560010160009055565b602060405190810160405280600081525090565b8260028101928215612a0c579182015b82811115612a0b5782548255916001019190600101906129f0565b5b509050612a199190612b5d565b5090565b815481835581811511612a5257601f016020900481601f01602090048360005260206000209182019101612a519190612b0c565b5b505050565b815481835581811511612a7e57818360005260206000209182019101612a7d9190612b0c565b5b505050565b815481835581811511612aaa57818360005260206000209182019101612aa99190612b0c565b5b505050565b815481835581811511612adc57600202816002028360005260206000209182019101612adb9190612b31565b5b505050565b6080604051908101604052806000151581526020016000815260200160008152602001600081525090565b612b2e91905b80821115612b2a576000816000905550600101612b12565b5090565b90565b612b5a91905b80821115612b565760008181612b4d91906129be565b50600201612b37565b5090565b90565b612b7f91905b80821115612b7b576000816000905550600101612b63565b5090565b90565b856001600001819055508460018001819055508360016002018190555082600160030181905550816001600401819055508060016005018160001916905550505050505050565b600960008081526020019081526020016000208054806001018281612bee91906128b4565b91600052602060002090602091828204019190066000909190916101000a81548160ff02191690831515021790555050600a60008081526020019081526020016000208054806001018281612c4391906128ee565b916000526020600020900160008090919091505550600b60008081526020019081526020016000208054806001018281612c7d91906128ee565b916000526020600020900160008090919091505550600c60008081526020019081526020016000208054806001018281612cb791906128ee565b916000526020600020900160008090919091505550600d60008081526020019081526020016000208054806001018281612cf1919061291a565b9160005260206000209001600080909190916101000a81548173ffffffffffffffffffffffffffffffffffffffff021916908373ffffffffffffffffffffffffffffffffffffffff16021790555050600e60008081526020019081526020016000208054806001018281612d659190612946565b916000526020600020906002020160006040805190810160405280600060010260001916600019168152602001600060010260001916600019168152509091909150906002612db5929190612978565b5050600f60008081526020019081526020016000208054806001018281612ddc9190612946565b916000526020600020906002020160006040805190810160405280600060010260001916600019168152602001600060010260001916600019168152509091909150906002612e2c929190612978565b50505600a165627a7a723058206b704d61b7a2ff189dad906d27320db904965c47141e53b5f951faf675849ef60029",
  "source": "pragma solidity ^0.4.18;\n\nimport 'zeppelin-solidity/contracts/math/SafeMath.sol';\nimport './ExchangeStructs.sol';\n/// @title Exchange\n/// @author Karim Helmy\n\n// Primary contract: Describes functions of exchange\ncontract Exchange is ExchangeStructs {\n  // TODO: Make all operations safe\n  using SafeMath for uint;\n\n  // SECTION: Declaring/initializing variables\n  uint public PRECISION = 10 ** 18;\n\n  Parameters public params;\n  Balances public exBalances;\n\n  // separate chapters for different currency pairs\n  // that's why they're 2D\n  /*\n  * Web3 can't properly handle structs.\n  * Ethers.js can only handle them under experimental version.\n  * Therefore, the old orderBook and adressBook pattern won't work.\n  * \\_()_/\n  */\n  // separate chapters for different currency pairs\n  // that's why they're 2D\n  mapping (uint => bool[]) public buyBook;\n  mapping (uint => uint[]) public volBook;\n  mapping (uint => uint[]) public minVolBook;\n  mapping (uint => uint[]) public limitBook;\n\n  mapping (uint => address[]) public ethAddressBook;\n  mapping (uint => bytes32[2][]) public firstAddressBook;\n  mapping (uint => bytes32[2][]) public secondAddressBook;\n\n  // Numbers of orders that have been closed are kept here\n  uint[] numsCleared;\n\n  // SECTION: Constructor and helpers\n  // Constructor for contract\n  function Exchange(uint closureFee, uint cancelFee,\n                    uint cleanSize, uint minerShare, uint distBalance,\n                    bytes32 difficulty)\n    public\n  {\n    // Initialize parameters books\n    setParams(closureFee, cancelFee,\n              cleanSize, minerShare, distBalance, difficulty);\n    // Initialize order books\n    setBooks();\n    // Initialize numsCleared[0] as zero\n    numsCleared.push(0);\n    return;\n  }\n\n  /*\n  * Initializes order book and address book\n  * Only used in constructor\n  * Pushes \"genesis order\"\n  */\n  function setBooks()\n    private\n  {\n    buyBook[0].push(false);\n    volBook[0].push(0);\n    minVolBook[0].push(0);\n    limitBook[0].push(0);\n\n    ethAddressBook[0].push(address(0));\n    firstAddressBook[0].push([bytes32(0), bytes32(0)]);\n    secondAddressBook[0].push([bytes32(0), bytes32(0)]);\n  }\n\n  // Init the params struct, which contains the bulk of exchange's parameters\n  // Only used in constructor\n  function setParams(uint closureFee, uint cancelFee,\n                    uint cleanSize, uint minerShare, uint distBalance,\n                    bytes32 difficulty)\n    internal\n  {\n    params.closureFee = closureFee;\n    params.cancelFee = cancelFee;\n    params.cleanSize = cleanSize;\n    params.minerShare = minerShare;\n    params.distBalance = distBalance;\n    params.difficulty = difficulty;\n  }\n\n  // SECTION: Getters\n  // Get chapter from order book\n  function getOrderChapter(uint chapter)\n    external\n    view\n    returns(bool[] buyChapter, uint[] volChapter,\n            uint[] minVolChapter, uint[] limitChapter)\n  {\n    return(buyBook[chapter], volBook[chapter],\n          minVolBook[chapter], limitBook[chapter]);\n  }\n\n  /*\n  * Wish I could've bundled these.\n  * For some reason, get a bug when firstAddressChapter and secondAddressChapter are together.\n  * Suspect it has something to do with returning dynamic arrays of fixed size arrays\n  */\n  // Get chapter from ethAddressBook\n  function getETHAddressChapter(uint chapter)\n    external\n    view\n    returns(address[] ethAddressChapter)\n  {\n    return(ethAddressBook[chapter]);\n  }\n\n  // Get chapter from firstAddressBook\n  function getFirstAddressChapter(uint chapter)\n    external\n    view\n    returns(bytes32[2][] firstAddressChapter)\n  {\n    return(firstAddressBook[chapter]);\n  }\n\n  // Get chapter from secondAddressBook\n  function getSecondAddressChapter(uint chapter)\n    external\n    view\n    returns(bytes32[2][] secondAddressChapter)\n  {\n    return(secondAddressBook[chapter]);\n  }\n\n  // SECTION: Core functionality\n  // Checks edge cases for match verification\n  function checkMatchEdges(uint chapter, uint index1, uint index2)\n    private\n    view\n    returns(bool passes)\n  {\n    // valid indices\n    require(index1 < buyBook[chapter].length);\n    require(index2 < buyBook[chapter].length);\n    //One buy order and one sell order\n    require(buyBook[chapter][index1] != buyBook[chapter][index2]);\n    //Non-empty order\n    require(volBook[chapter][index1] != 0);\n    require(volBook[chapter][index2] != 0);\n    // All edge cases work!\n    return true;\n  }\n\n  // verifies that match is valid\n  function calcRateAndVol(uint chapter, uint index1, uint index2)\n    private\n    view\n    returns (uint mimRate, uint ethVol)\n  {\n    // check edge cases\n    if (! checkMatchEdges(chapter, index1, index2)) {\n      return (0,0);\n    }\n    // which order is buying and selling ETH?\n    // buy-sell copy1\n    uint buyIndex;\n    uint sellIndex;\n    if (buyBook[chapter][index1]) {\n      buyIndex = index1;\n      sellIndex = index2;\n    } else{\n      buyIndex = index2;\n      sellIndex = index1;\n    }\n    // shorthand for buy and sell orders\n    Order memory buyOrder = Order(true, volBook[chapter][buyIndex],\n                                  minVolBook[chapter][buyIndex],\n                                  limitBook[chapter][buyIndex]);\n    Order memory sellOrder = Order(false, volBook[chapter][sellIndex],\n                                  minVolBook[chapter][sellIndex],\n                                  limitBook[chapter][sellIndex]);\n\n    // Non-contradictory limits\n    if (buyOrder.limit < sellOrder.limit) {\n      return (0, 0);\n    }\n    // Meet in middle rate\n    // mimRate\n    mimRate = (buyOrder.limit + sellOrder.limit) / 2;\n    // Volumes comparable\n    if (buyOrder.volume * PRECISION > sellOrder.volume * mimRate) {\n      if (buyOrder.minVolume * PRECISION > sellOrder.volume * mimRate) {\n        return (0, 0);\n      }\n      return (mimRate, sellOrder.volume * mimRate);\n    }\n    if (sellOrder.volume * mimRate > buyOrder.volume * PRECISION ) {\n      if (sellOrder.minVolume * mimRate > buyOrder.volume * PRECISION) {\n        return (0, 0);\n      }\n    }\n    return (mimRate, buyOrder.volume);\n  }\n\n  // Clears closed trade, reenters into order book if incomplete\n  function clearTrade(uint chapter, uint index1, uint index2,\n                      uint mimRate, uint ethVol)\n    private\n  {\n    // which order is buying and selling ETH?\n    // buy-sell copy1\n    uint buyIndex;\n    uint sellIndex;\n    if (buyBook[chapter][index1]) {\n      buyIndex = index1;\n      sellIndex = index2;\n    } else{\n      buyIndex = index2;\n      sellIndex = index1;\n    }\n    if (volBook[chapter][buyIndex] == ethVol) {\n      numsCleared[chapter] += 1;\n    }\n    if (minVolBook[chapter][buyIndex] < ethVol) {\n      minVolBook[chapter][buyIndex] = 0;\n    } else{\n      minVolBook[chapter][buyIndex] -= ethVol;\n    }\n    volBook[chapter][buyIndex] -= ethVol;\n    if (volBook[chapter][sellIndex] == (ethVol * mimRate / PRECISION)) {\n      numsCleared[chapter] += 1;\n    }\n    if (minVolBook[chapter][sellIndex] < (ethVol * mimRate / PRECISION)) {\n      minVolBook[chapter][sellIndex] = 0;\n    } else{\n      minVolBook[chapter][sellIndex] -= (ethVol * mimRate / PRECISION);\n    }\n    volBook[chapter][sellIndex] -= ethVol * mimRate / PRECISION;\n  }\n\n  // Adds trade to log, for traders to note\n  // http://solidity.readthedocs.io/en/latest/contracts.html?highlight=events#events\n  function alertTraders(uint chapter, uint index1, uint index2, uint mimRate, uint ethVol)\n    private\n  {\n    TradeInfo(\n      ethAddressBook[chapter][index1], //ethAddress1,\n      ethAddressBook[chapter][index2], //ethAddress2,\n      firstAddressBook[chapter][index1], //firstAddress1,\n      firstAddressBook[chapter][index2], //firstAddress2,\n      secondAddressBook[chapter][index1], //otherAddress1,\n      secondAddressBook[chapter][index2], // otherAddress2,\n      mimRate,\n      ethVol\n      );\n  }\n\n  // Clears exBalances.closedBalance\n  // ValexToken ovverride distributes dividends when balance is of sufficient size\n  // TODO: Make dividends distributed by time, not quantity\n  // TODO: Add forced dividend distribution\n  function distDividends()\n    internal\n  {\n    exBalances.closedBalance = 0;\n  }\n\n  // Move balance from open to closed\n  // Eliminate minerPayment from either balance\n  function clearBalance(uint minerPayment, uint ethVol)\n    private\n  {\n    exBalances.openBalance = (exBalances.openBalance -\n                                  (params.closureFee * ethVol / PRECISION));\n    exBalances.closedBalance = (exBalances.closedBalance -\n                                  minerPayment +\n                                  (params.closureFee * ethVol / PRECISION));\n    if (exBalances.closedBalance >= params.distBalance) {\n      distDividends();\n    }\n  }\n\n  // Clean chapter (called when size reaches size to clean)\n  function cleanChapter(uint chapter)\n    private\n    returns(bool cleaned)\n  {\n    // Clean chapter only if size is appropriate\n    if (numsCleared[chapter] < params.cleanSize) {\n      return false;\n    }\n    // For all orders\n    // If it's a cleared order:\n    // Replace it with the next one, and clear the next one\n    for (uint i = 1; i < buyBook[chapter].length; i++) {\n      if (volBook[chapter][i] == 0) {\n        if (i < buyBook[chapter].length - 1) {\n          buyBook[chapter][i] = buyBook[chapter][i+1];\n          volBook[chapter][i] = volBook[chapter][i+1];\n          minVolBook[chapter][i] = minVolBook[chapter][i+1];\n          limitBook[chapter][i] = limitBook[chapter][i+1];\n\n          ethAddressBook[chapter][i] = ethAddressBook[chapter][i+1];\n          firstAddressBook[chapter][i] = firstAddressBook[chapter][i+1];\n          secondAddressBook[chapter][i] = secondAddressBook[chapter][i+1];\n\n          delete buyBook[chapter][i+1];\n          delete volBook[chapter][i+1];\n          delete minVolBook[chapter][i+1];\n          delete limitBook[chapter][i+1];\n\n          delete ethAddressBook[chapter][i+1];\n          delete firstAddressBook[chapter][i+1];\n          delete secondAddressBook[chapter][i+1];\n        }\n      }\n    }\n    buyBook[chapter].length = buyBook[chapter].length - numsCleared[chapter];\n    volBook[chapter].length = volBook[chapter].length - numsCleared[chapter];\n    minVolBook[chapter].length = minVolBook[chapter].length - numsCleared[chapter];\n    limitBook[chapter].length = limitBook[chapter].length - numsCleared[chapter];\n\n    ethAddressBook[chapter].length = ethAddressBook[chapter].length - numsCleared[chapter];\n    firstAddressBook[chapter].length = firstAddressBook[chapter].length - numsCleared[chapter];\n    secondAddressBook[chapter].length = secondAddressBook[chapter].length - numsCleared[chapter];\n\n    numsCleared[chapter] = 0;\n    return true;\n  }\n\n  // Checks if POW (nonce) is valid\n  // Performs nonce verification (keccak256)\n  // Helper for giveMatch\n  function isValidPOW(address depositAddress, uint chapter, uint index1,\n                      uint index2, uint nonce)\n    private\n    view\n    returns(bool isValid)\n  {\n    if (params.difficulty > keccak256(depositAddress, chapter, index1, index2, nonce)) {\n      return false;\n    }\n    return true;\n  }\n\n  // Miners suggest matches with this function\n  // Wrapper for calcRateAndVol and isValidPOW, performs other required functions\n  function giveMatch(address depositAddress, uint chapter,\n                    uint index1, uint index2, uint nonce)\n    public\n    payable\n    returns(bool isValid)\n  {\n    // Validate that nonce is equivalent\n    // postImage adds entropy if trade volume is small\n    // Helper for giveMatch\n    if (! isValidPOW(depositAddress, chapter, index1, index2, nonce)) {\n      return false;\n    }\n    var (mimRate, ethVol) = calcRateAndVol(chapter, index1, index2);\n    if (ethVol == 0) {\n      return false;\n    }\n    // calculate the miner's payment\n    uint minerPayment = ((params.minerShare * params.closureFee * ethVol) /\n                          PRECISION);\n    depositAddress.transfer(minerPayment);\n    clearBalance(minerPayment, ethVol);\n    alertTraders(chapter, index1, index2, mimRate, ethVol);\n    clearTrade(chapter, index1, index2, mimRate, ethVol);\n    cleanChapter(chapter);\n    return true;\n  }\n\n  // Allows traders to place orders\n  function placeOrder(bool buyETH, uint volume, uint minVolume, uint limit,\n                      address ethAddress, bytes32[2] firstAddress,\n                      bytes32[2] otherAddress, uint chapter)\n    public\n    payable\n    returns(bool accepted)\n  {\n    require(volume > 0);\n    require(minVolume > 0);\n    require(volume >= minVolume);\n    require(limit > 0);\n    // TODO: NEXT VERSION: Charge according to transaction vol for generic currencies\n    // Use market rate\n    if (buyETH) {\n      require(limit * msg.value >= volume * params.closureFee / PRECISION);\n    } else{\n      require(msg.value >= volume * params.closureFee / PRECISION);\n    }\n    require(buyBook[chapter].length > 0);\n\n    buyBook[chapter].push(buyETH);\n    volBook[chapter].push(volume);\n    minVolBook[chapter].push(minVolume);\n    limitBook[chapter].push(limit);\n\n    ethAddressBook[chapter].push(ethAddress);\n    firstAddressBook[chapter].push(firstAddress);\n    secondAddressBook[chapter].push(otherAddress);\n    return true;\n  }\n\n  // Allows traders to cancel orders\n  function cancelOrder(uint chapter, uint index)\n    public\n    returns(bool accepted)\n  {\n    require(index < buyBook[chapter].length);\n    // Can't cancel other people's orders\n    require(msg.sender == ethAddressBook[chapter][index]);\n\n    uint limit = limitBook[chapter][index];\n    uint volume = volBook[chapter][index];\n\n    // TODO: NEXT VERSION: Refund according to transaction vol for generic currencies\n    // Use market rate\n    // Refund according to ether transaction volume\n    if (buyBook[chapter][index]) {\n      msg.sender.transfer(volume * (params.closureFee - params.cancelFee) / limit);\n    } else{\n      msg.sender.transfer(volume * (params.closureFee - params.cancelFee) / limit);\n    }\n    delete buyBook[chapter][index];\n    delete volBook[chapter][index];\n    delete minVolBook[chapter][index];\n    delete limitBook[chapter][index];\n\n    delete ethAddressBook[chapter][index];\n    delete firstAddressBook[chapter][index];\n    delete secondAddressBook[chapter][index];\n\n    numsCleared[chapter] += 1;\n    cleanChapter(chapter);\n    return true;\n  }\n}\n",
  "sourcePath": "/Users/Karim/Desktop/Valex/contracts/Exchange.sol",
  "compiler": {
    "name": "solc",
    "version": "0.4.18+commit.9cf6e910.Emscripten.clang"
  },
  "schemaVersion": "1.0.1",
  "updatedAt": "2018-02-16T21:40:46.298Z"
}