{
  "contractName": "Exchange",
  "abi": [
    {
      "constant": true,
      "inputs": [
        {
          "name": "",
          "type": "uint256"
        },
        {
          "name": "",
          "type": "uint256"
        },
        {
          "name": "",
          "type": "uint256"
        }
      ],
      "name": "secondAddressBook",
      "outputs": [
        {
          "name": "",
          "type": "bytes32"
        }
      ],
      "payable": false,
      "stateMutability": "view",
      "type": "function"
    },
    {
      "constant": true,
      "inputs": [
        {
          "name": "chapter",
          "type": "uint256"
        }
      ],
      "name": "getSecondAddressChapter",
      "outputs": [
        {
          "name": "secondAddressChapter",
          "type": "bytes32[2][]"
        }
      ],
      "payable": false,
      "stateMutability": "view",
      "type": "function"
    },
    {
      "constant": true,
      "inputs": [
        {
          "name": "",
          "type": "uint256"
        },
        {
          "name": "",
          "type": "uint256"
        },
        {
          "name": "",
          "type": "uint256"
        }
      ],
      "name": "firstAddressBook",
      "outputs": [
        {
          "name": "",
          "type": "bytes32"
        }
      ],
      "payable": false,
      "stateMutability": "view",
      "type": "function"
    },
    {
      "constant": true,
      "inputs": [
        {
          "name": "",
          "type": "uint256"
        },
        {
          "name": "",
          "type": "uint256"
        }
      ],
      "name": "buyBook",
      "outputs": [
        {
          "name": "",
          "type": "bool"
        }
      ],
      "payable": false,
      "stateMutability": "view",
      "type": "function"
    },
    {
      "constant": true,
      "inputs": [
        {
          "name": "chapter",
          "type": "uint256"
        }
      ],
      "name": "getOrderChapter",
      "outputs": [
        {
          "name": "buyChapter",
          "type": "bool[]"
        },
        {
          "name": "volChapter",
          "type": "uint256[]"
        },
        {
          "name": "minVolChapter",
          "type": "uint256[]"
        },
        {
          "name": "limitChapter",
          "type": "uint256[]"
        }
      ],
      "payable": false,
      "stateMutability": "view",
      "type": "function"
    },
    {
      "constant": false,
      "inputs": [
        {
          "name": "buyETH",
          "type": "bool"
        },
        {
          "name": "volume",
          "type": "uint256"
        },
        {
          "name": "minVolume",
          "type": "uint256"
        },
        {
          "name": "limit",
          "type": "uint256"
        },
        {
          "name": "ethAddress",
          "type": "address"
        },
        {
          "name": "firstAddress",
          "type": "bytes32[2]"
        },
        {
          "name": "otherAddress",
          "type": "bytes32[2]"
        },
        {
          "name": "chapter",
          "type": "uint256"
        }
      ],
      "name": "placeOrder",
      "outputs": [
        {
          "name": "accepted",
          "type": "bool"
        }
      ],
      "payable": true,
      "stateMutability": "payable",
      "type": "function"
    },
    {
      "constant": true,
      "inputs": [
        {
          "name": "",
          "type": "uint256"
        },
        {
          "name": "",
          "type": "uint256"
        }
      ],
      "name": "ethAddressBook",
      "outputs": [
        {
          "name": "",
          "type": "address"
        }
      ],
      "payable": false,
      "stateMutability": "view",
      "type": "function"
    },
    {
      "constant": true,
      "inputs": [
        {
          "name": "",
          "type": "uint256"
        },
        {
          "name": "",
          "type": "uint256"
        }
      ],
      "name": "limitBook",
      "outputs": [
        {
          "name": "",
          "type": "uint256"
        }
      ],
      "payable": false,
      "stateMutability": "view",
      "type": "function"
    },
    {
      "constant": true,
      "inputs": [],
      "name": "openBalance",
      "outputs": [
        {
          "name": "",
          "type": "uint256"
        }
      ],
      "payable": false,
      "stateMutability": "view",
      "type": "function"
    },
    {
      "constant": true,
      "inputs": [
        {
          "name": "",
          "type": "uint256"
        },
        {
          "name": "",
          "type": "uint256"
        }
      ],
      "name": "minVolBook",
      "outputs": [
        {
          "name": "",
          "type": "uint256"
        }
      ],
      "payable": false,
      "stateMutability": "view",
      "type": "function"
    },
    {
      "constant": true,
      "inputs": [],
      "name": "PRECISION",
      "outputs": [
        {
          "name": "",
          "type": "uint256"
        }
      ],
      "payable": false,
      "stateMutability": "view",
      "type": "function"
    },
    {
      "constant": false,
      "inputs": [
        {
          "name": "chapter",
          "type": "uint256"
        },
        {
          "name": "index",
          "type": "uint256"
        }
      ],
      "name": "cancelOrder",
      "outputs": [
        {
          "name": "accepted",
          "type": "bool"
        }
      ],
      "payable": false,
      "stateMutability": "nonpayable",
      "type": "function"
    },
    {
      "constant": true,
      "inputs": [],
      "name": "params",
      "outputs": [
        {
          "name": "closureFee",
          "type": "uint256"
        },
        {
          "name": "cancelFee",
          "type": "uint256"
        },
        {
          "name": "cleanSize",
          "type": "uint256"
        },
        {
          "name": "minerShare",
          "type": "uint256"
        },
        {
          "name": "distBalance",
          "type": "uint256"
        },
        {
          "name": "difficulty",
          "type": "bytes32"
        }
      ],
      "payable": false,
      "stateMutability": "view",
      "type": "function"
    },
    {
      "constant": false,
      "inputs": [
        {
          "name": "depositAddress",
          "type": "address"
        },
        {
          "name": "chapter",
          "type": "uint256"
        },
        {
          "name": "index1",
          "type": "uint256"
        },
        {
          "name": "index2",
          "type": "uint256"
        },
        {
          "name": "nonce",
          "type": "uint256"
        }
      ],
      "name": "giveMatch",
      "outputs": [
        {
          "name": "isValid",
          "type": "bool"
        }
      ],
      "payable": true,
      "stateMutability": "payable",
      "type": "function"
    },
    {
      "constant": true,
      "inputs": [
        {
          "name": "chapter",
          "type": "uint256"
        }
      ],
      "name": "getETHAddressChapter",
      "outputs": [
        {
          "name": "ethAddressChapter",
          "type": "address[]"
        }
      ],
      "payable": false,
      "stateMutability": "view",
      "type": "function"
    },
    {
      "constant": true,
      "inputs": [
        {
          "name": "",
          "type": "uint256"
        },
        {
          "name": "",
          "type": "uint256"
        }
      ],
      "name": "volBook",
      "outputs": [
        {
          "name": "",
          "type": "uint256"
        }
      ],
      "payable": false,
      "stateMutability": "view",
      "type": "function"
    },
    {
      "constant": true,
      "inputs": [
        {
          "name": "chapter",
          "type": "uint256"
        }
      ],
      "name": "getFirstAddressChapter",
      "outputs": [
        {
          "name": "firstAddressChapter",
          "type": "bytes32[2][]"
        }
      ],
      "payable": false,
      "stateMutability": "view",
      "type": "function"
    },
    {
      "inputs": [
        {
          "name": "closureFee",
          "type": "uint256"
        },
        {
          "name": "cancelFee",
          "type": "uint256"
        },
        {
          "name": "cleanSize",
          "type": "uint256"
        },
        {
          "name": "minerShare",
          "type": "uint256"
        },
        {
          "name": "distBalance",
          "type": "uint256"
        },
        {
          "name": "difficulty",
          "type": "bytes32"
        }
      ],
      "payable": false,
      "stateMutability": "nonpayable",
      "type": "constructor"
    },
    {
      "anonymous": false,
      "inputs": [
        {
          "indexed": false,
          "name": "ethAddress1",
          "type": "address"
        },
        {
          "indexed": false,
          "name": "ethAddress2",
          "type": "address"
        },
        {
          "indexed": false,
          "name": "firstAddress1",
          "type": "bytes32[2]"
        },
        {
          "indexed": false,
          "name": "firstAddress2",
          "type": "bytes32[2]"
        },
        {
          "indexed": false,
          "name": "otherAddress1",
          "type": "bytes32[2]"
        },
        {
          "indexed": false,
          "name": "otherAddress2",
          "type": "bytes32[2]"
        },
        {
          "indexed": false,
          "name": "mimRate",
          "type": "uint256"
        },
        {
          "indexed": false,
          "name": "ethVol",
          "type": "uint256"
        }
      ],
      "name": "TradeInfo",
      "type": "event"
    }
  ],
  "bytecode": "0x6060604052670de0b6b3a7640000600055600060015534156200002157600080fd5b60405160c0806200339f833981016040528080519060200190919080519060200190919080519060200190919080519060200190919080519060200190919080519060200190919050506200008f868686868686620000e46401000000000262002b67176401000000009004565b620000ad6200012b6401000000000262002bae176401000000009004565b600f8054806001018281620000c39190620003a4565b9160005260206000209001600080909190915055505050505050506200054e565b856002600001819055508460026001018190555083600280018190555082600260030181905550816002600401819055508060026005018160001916905550505050505050565b600860008081526020019081526020016000208054806001018281620001529190620003d3565b91600052602060002090602091828204019190066000909190916101000a81548160ff02191690831515021790555050600960008081526020019081526020016000208054806001018281620001a99190620003a4565b916000526020600020900160008090919091505550600a60008081526020019081526020016000208054806001018281620001e59190620003a4565b916000526020600020900160008090919091505550600b60008081526020019081526020016000208054806001018281620002219190620003a4565b916000526020600020900160008090919091505550600c600080815260200190815260200160002080548060010182816200025d919062000410565b9160005260206000209001600080909190916101000a81548173ffffffffffffffffffffffffffffffffffffffff021916908373ffffffffffffffffffffffffffffffffffffffff16021790555050600d60008081526020019081526020016000208054806001018281620002d391906200043f565b9160005260206000209060020201600060408051908101604052806000600102600019166000191681526020016000600102600019166000191681525090919091509060026200032592919062000474565b5050600e600080815260200190815260200160002080548060010182816200034e91906200043f565b916000526020600020906002020160006040805190810160405280600060010260001916600019168152602001600060010260001916600019168152509091909150906002620003a092919062000474565b5050565b815481835581811511620003ce57818360005260206000209182019101620003cd9190620004bf565b5b505050565b8154818355818115116200040b57601f016020900481601f016020900483600052602060002091820191016200040a9190620004bf565b5b505050565b8154818355818115116200043a57818360005260206000209182019101620004399190620004bf565b5b505050565b8154818355818115116200046f576002028160020283600052602060002091820191016200046e9190620004e7565b5b505050565b8260028101928215620004ac579160200282015b82811115620004ab57825182906000191690559160200191906001019062000488565b5b509050620004bb919062000518565b5090565b620004e491905b80821115620004e0576000816000905550600101620004c6565b5090565b90565b6200051591905b8082111562000511576000818162000507919062000540565b50600201620004ee565b5090565b90565b6200053d91905b80821115620005395760008160009055506001016200051f565b5090565b90565b506000815560010160009055565b612e41806200055e6000396000f3006060604052600436106100f1576000357c0100000000000000000000000000000000000000000000000000000000900463ffffffff16806310fc8a15146100f6578063145404fc14610147578063324a1467146101e25780633af8c2d5146102335780633b6a08001461027757806349827685146103c757806353c1d882146104945780638139cbc6146105005780639138ec3a146105405780639febbcfa14610569578063aaf5eb68146105a9578063b6ed0632146105d2578063cff0ab9614610616578063d2426ab91461066a578063e0cfdce0146106d4578063e0f1f59f1461074c578063ee4b94bb1461078c575b600080fd5b341561010157600080fd5b6101296004808035906020019091908035906020019091908035906020019091905050610827565b60405180826000191660001916815260200191505060405180910390f35b341561015257600080fd5b610168600480803590602001909190505061086a565b60405180806020018281038252838181518152602001915080516000925b818410156101d157828490602001906020020151600260200280838360005b838110156101c05780820151818401526020810190506101a5565b505050509050019260010192610186565b925050509250505060405180910390f35b34156101ed57600080fd5b6102156004808035906020019091908035906020019091908035906020019091905050610917565b60405180826000191660001916815260200191505060405180910390f35b341561023e57600080fd5b61025d600480803590602001909190803590602001909190505061095a565b604051808215151515815260200191505060405180910390f35b341561028257600080fd5b610298600480803590602001909190505061099c565b6040518080602001806020018060200180602001858103855289818151815260200191508051906020019060200280838360005b838110156102e75780820151818401526020810190506102cc565b50505050905001858103845288818151815260200191508051906020019060200280838360005b8381101561032957808201518184015260208101905061030e565b50505050905001858103835287818151815260200191508051906020019060200280838360005b8381101561036b578082015181840152602081019050610350565b50505050905001858103825286818151815260200191508051906020019060200280838360005b838110156103ad578082015181840152602081019050610392565b505050509050019850505050505050505060405180910390f35b61047a6004808035151590602001909190803590602001909190803590602001909190803590602001909190803573ffffffffffffffffffffffffffffffffffffffff1690602001909190806040019060028060200260405190810160405280929190826002602002808284378201915050505050919080604001906002806020026040519081016040528092919082600260200280828437820191505050505091908035906020019091905050610b84565b604051808215151515815260200191505060405180910390f35b341561049f57600080fd5b6104be6004808035906020019091908035906020019091905050610e66565b604051808273ffffffffffffffffffffffffffffffffffffffff1673ffffffffffffffffffffffffffffffffffffffff16815260200191505060405180910390f35b341561050b57600080fd5b61052a6004808035906020019091908035906020019091905050610eb4565b6040518082815260200191505060405180910390f35b341561054b57600080fd5b610553610ee5565b6040518082815260200191505060405180910390f35b341561057457600080fd5b6105936004808035906020019091908035906020019091905050610eeb565b6040518082815260200191505060405180910390f35b34156105b457600080fd5b6105bc610f1c565b6040518082815260200191505060405180910390f35b34156105dd57600080fd5b6105fc6004808035906020019091908035906020019091905050610f22565b604051808215151515815260200191505060405180910390f35b341561062157600080fd5b6106296112f9565b604051808781526020018681526020018581526020018481526020018381526020018260001916600019168152602001965050505050505060405180910390f35b6106ba600480803573ffffffffffffffffffffffffffffffffffffffff16906020019091908035906020019091908035906020019091908035906020019091908035906020019091905050611323565b604051808215151515815260200191505060405180910390f35b34156106df57600080fd5b6106f560048080359060200190919050506113a4565b6040518080602001828103825283818151815260200191508051906020019060200280838360005b8381101561073857808201518184015260208101905061071d565b505050509050019250505060405180910390f35b341561075757600080fd5b610776600480803590602001909190803590602001909190505061144b565b6040518082815260200191505060405180910390f35b341561079757600080fd5b6107ad600480803590602001909190505061147c565b60405180806020018281038252838181518152602001915080516000925b8184101561081657828490602001906020020151600260200280838360005b838110156108055780820151818401526020810190506107ea565b5050505090500192600101926107cb565b925050509250505060405180910390f35b600e6020528260005260406000208281548110151561084257fe5b90600052602060002090600202018160028110151561085d57fe5b0160009250925050505481565b61087261285d565b600e6000838152602001908152602001600020805480602002602001604051908101604052809291908181526020016000905b8282101561090c57838290600052602060002090600202016002806020026040519081016040528092919082600280156108f8576020028201915b815460001916815260200190600101908083116108e0575b5050505050815260200190600101906108a5565b505050509050919050565b600d6020528260005260406000208281548110151561093257fe5b90600052602060002090600202018160028110151561094d57fe5b0160009250925050505481565b60086020528160005260406000208181548110151561097557fe5b9060005260206000209060209182820401919006915091509054906101000a900460ff1681565b6109a4612871565b6109ac612885565b6109b4612885565b6109bc612885565b6008600086815260200190815260200160002060096000878152602001908152602001600020600a6000888152602001908152602001600020600b600089815260200190815260200160002083805480602002602001604051908101604052809291908181526020018280548015610a7857602002820191906000526020600020906000905b82829054906101000a900460ff16151581526020019060010190602082600001049283019260010382029150808411610a425790505b5050505050935082805480602002602001604051908101604052809291908181526020018280548015610aca57602002820191906000526020600020905b815481526020019060010190808311610ab6575b5050505050925081805480602002602001604051908101604052809291908181526020018280548015610b1c57602002820191906000526020600020905b815481526020019060010190808311610b08575b5050505050915080805480602002602001604051908101604052809291908181526020018280548015610b6e57602002820191906000526020600020905b815481526020019060010190808311610b5a575b5050505050905093509350935093509193509193565b60008088111515610b9457600080fd5b600087111515610ba357600080fd5b868810151515610bb257600080fd5b600086111515610bc157600080fd5b8815610bf1576000546002600001548902811515610bdb57fe5b0434870210151515610bec57600080fd5b610c15565b6000546002600001548902811515610c0557fe5b043410151515610c1457600080fd5b5b60006008600084815260200190815260200160002080549050111515610c3a57600080fd5b34600160008282540192505081905550600860008381526020019081526020016000208054806001018281610c6f9190612899565b91600052602060002090602091828204019190068b909190916101000a81548160ff02191690831515021790555050600960008381526020019081526020016000208054806001018281610cc391906128d3565b916000526020600020900160008a90919091505550600a60008381526020019081526020016000208054806001018281610cfd91906128d3565b916000526020600020900160008990919091505550600b60008381526020019081526020016000208054806001018281610d3791906128d3565b916000526020600020900160008890919091505550600c60008381526020019081526020016000208054806001018281610d7191906128ff565b9160005260206000209001600087909190916101000a81548173ffffffffffffffffffffffffffffffffffffffff021916908373ffffffffffffffffffffffffffffffffffffffff16021790555050600d60008381526020019081526020016000208054806001018281610de5919061292b565b91600052602060002090600202016000869091909150906002610e0992919061295d565b5050600e60008381526020019081526020016000208054806001018281610e30919061292b565b91600052602060002090600202016000859091909150906002610e5492919061295d565b50506001905098975050505050505050565b600c60205281600052604060002081815481101515610e8157fe5b90600052602060002090016000915091509054906101000a900473ffffffffffffffffffffffffffffffffffffffff1681565b600b60205281600052604060002081815481101515610ecf57fe5b9060005260206000209001600091509150505481565b60015481565b600a60205281600052604060002081815481101515610f0657fe5b9060005260206000209001600091509150505481565b60005481565b6000806000600860008681526020019081526020016000208054905084101515610f4b57600080fd5b600c600086815260200190815260200160002084815481101515610f6b57fe5b906000526020600020900160009054906101000a900473ffffffffffffffffffffffffffffffffffffffff1673ffffffffffffffffffffffffffffffffffffffff163373ffffffffffffffffffffffffffffffffffffffff16141515610fd057600080fd5b600b600086815260200190815260200160002084815481101515610ff057fe5b9060005260206000209001549150600960008681526020019081526020016000208481548110151561101e57fe5b9060005260206000209001549050600860008681526020019081526020016000208481548110151561104c57fe5b90600052602060002090602091828204019190069054906101000a900460ff16156110cf573373ffffffffffffffffffffffffffffffffffffffff166108fc836002600101546002600001540384028115156110a457fe5b049081150290604051600060405180830381858888f1935050505015156110ca57600080fd5b611129565b3373ffffffffffffffffffffffffffffffffffffffff166108fc8360026001015460026000015403840281151561110257fe5b049081150290604051600060405180830381858888f19350505050151561112857600080fd5b5b600860008681526020019081526020016000208481548110151561114957fe5b90600052602060002090602091828204019190066101000a81549060ff0219169055600960008681526020019081526020016000208481548110151561118b57fe5b906000526020600020900160009055600a6000868152602001908152602001600020848154811015156111ba57fe5b906000526020600020900160009055600b6000868152602001908152602001600020848154811015156111e957fe5b906000526020600020900160009055600c60008681526020019081526020016000208481548110151561121857fe5b906000526020600020900160006101000a81549073ffffffffffffffffffffffffffffffffffffffff0219169055600d60008681526020019081526020016000208481548110151561126657fe5b9060005260206000209060020201600061128091906129a3565b600e6000868152602001908152602001600020848154811015156112a057fe5b906000526020600020906002020160006112ba91906129a3565b6001600f868154811015156112cb57fe5b9060005260206000209001600082825401925050819055506112ec85611529565b5060019250505092915050565b60028060000154908060010154908060020154908060030154908060040154908060050154905086565b60008060006113358888888888611d2b565b151561134057600080fd5b61134b878787611dc9565b9150915060008111151561135e57600080fd5b6113688882612089565b611371816120ed565b61137e8787878585612146565b61138b87878785856123ee565b61139487611529565b5060019250505095945050505050565b6113ac6129b1565b600c600083815260200190815260200160002080548060200260200160405190810160405280929190818152602001828054801561143f57602002820191906000526020600020905b8160009054906101000a900473ffffffffffffffffffffffffffffffffffffffff1673ffffffffffffffffffffffffffffffffffffffff16815260200190600101908083116113f5575b50505050509050919050565b60096020528160005260406000208181548110151561146657fe5b9060005260206000209001600091509150505481565b61148461285d565b600d6000838152602001908152602001600020805480602002602001604051908101604052809291908181526020016000905b8282101561151e578382906000526020600020906002020160028060200260405190810160405280929190826002801561150a576020028201915b815460001916815260200190600101908083116114f2575b5050505050815260200190600101906114b7565b505050509050919050565b6000806002800154600f8481548110151561154057fe5b906000526020600020900154101561155b5760009150611d25565b600190505b6008600084815260200190815260200160002080549050811015611ac257600060096000858152602001908152602001600020828154811015156115a057fe5b9060005260206000209001541415611ab5576001600860008581526020019081526020016000208054905003811015611ab45760086000848152602001908152602001600020600182018154811015156115f657fe5b90600052602060002090602091828204019190069054906101000a900460ff16600860008581526020019081526020016000208281548110151561163657fe5b90600052602060002090602091828204019190066101000a81548160ff021916908315150217905550600960008481526020019081526020016000206001820181548110151561168257fe5b90600052602060002090015460096000858152602001908152602001600020828154811015156116ae57fe5b906000526020600020900181905550600a6000848152602001908152602001600020600182018154811015156116e057fe5b906000526020600020900154600a60008581526020019081526020016000208281548110151561170c57fe5b906000526020600020900181905550600b60008481526020019081526020016000206001820181548110151561173e57fe5b906000526020600020900154600b60008581526020019081526020016000208281548110151561176a57fe5b906000526020600020900181905550600c60008481526020019081526020016000206001820181548110151561179c57fe5b906000526020600020900160009054906101000a900473ffffffffffffffffffffffffffffffffffffffff16600c6000858152602001908152602001600020828154811015156117e857fe5b906000526020600020900160006101000a81548173ffffffffffffffffffffffffffffffffffffffff021916908373ffffffffffffffffffffffffffffffffffffffff160217905550600d60008481526020019081526020016000206001820181548110151561185457fe5b9060005260206000209060020201600d60008581526020019081526020016000208281548110151561188257fe5b906000526020600020906002020190600261189e9291906129c5565b50600e6000848152602001908152602001600020600182018154811015156118c257fe5b9060005260206000209060020201600e6000858152602001908152602001600020828154811015156118f057fe5b906000526020600020906002020190600261190c9291906129c5565b50600860008481526020019081526020016000206001820181548110151561193057fe5b90600052602060002090602091828204019190066101000a81549060ff0219169055600960008481526020019081526020016000206001820181548110151561197557fe5b906000526020600020900160009055600a6000848152602001908152602001600020600182018154811015156119a757fe5b906000526020600020900160009055600b6000848152602001908152602001600020600182018154811015156119d957fe5b906000526020600020900160009055600c600084815260200190815260200160002060018201815481101515611a0b57fe5b906000526020600020900160006101000a81549073ffffffffffffffffffffffffffffffffffffffff0219169055600d600084815260200190815260200160002060018201815481101515611a5c57fe5b90600052602060002090600202016000611a7691906129a3565b600e600084815260200190815260200160002060018201815481101515611a9957fe5b90600052602060002090600202016000611ab391906129a3565b5b5b8080600101915050611560565b600f83815481101515611ad157fe5b9060005260206000209001546008600085815260200190815260200160002080549050036008600085815260200190815260200160002081611b139190612a02565b50600f83815481101515611b2357fe5b9060005260206000209001546009600085815260200190815260200160002080549050036009600085815260200190815260200160002081611b659190612a3c565b50600f83815481101515611b7557fe5b906000526020600020900154600a60008581526020019081526020016000208054905003600a600085815260200190815260200160002081611bb79190612a3c565b50600f83815481101515611bc757fe5b906000526020600020900154600b60008581526020019081526020016000208054905003600b600085815260200190815260200160002081611c099190612a3c565b50600f83815481101515611c1957fe5b906000526020600020900154600c60008581526020019081526020016000208054905003600c600085815260200190815260200160002081611c5b9190612a68565b50600f83815481101515611c6b57fe5b906000526020600020900154600d60008581526020019081526020016000208054905003600d600085815260200190815260200160002081611cad9190612a94565b50600f83815481101515611cbd57fe5b906000526020600020900154600e60008581526020019081526020016000208054905003600e600085815260200190815260200160002081611cff9190612a94565b506000600f84815481101515611d1157fe5b906000526020600020900181905550600191505b50919050565b60008585858585604051808673ffffffffffffffffffffffffffffffffffffffff1673ffffffffffffffffffffffffffffffffffffffff166c0100000000000000000000000002815260140185815260200184815260200183815260200182815260200195505050505050604051809103902060001916600260050154600019161115611dbb5760009050611dc0565b600190505b95945050505050565b600080600080611dd7612ac6565b611ddf612ac6565b611dea8989896126ff565b1515611e02576000808191508090509550955061207d565b600860008a815260200190815260200160002088815481101515611e2257fe5b90600052602060002090602091828204019190069054906101000a900460ff1615611e5257879350869250611e59565b8693508792505b608060405190810160405280600115158152602001600960008c815260200190815260200160002086815481101515611e8e57fe5b9060005260206000209001548152602001600a60008c815260200190815260200160002086815481101515611ebf57fe5b9060005260206000209001548152602001600b60008c815260200190815260200160002086815481101515611ef057fe5b9060005260206000209001548152509150608060405190810160405280600015158152602001600960008c815260200190815260200160002085815481101515611f3657fe5b9060005260206000209001548152602001600a60008c815260200190815260200160002085815481101515611f6757fe5b9060005260206000209001548152602001600b60008c815260200190815260200160002085815481101515611f9857fe5b9060005260206000209001548152509050806060015182606001511015611fcb576000808191508090509550955061207d565b60028160600151836060015101811515611fe157fe5b04955085816020015102600054836020015102111561203357858160200151026000548360400151021115612022576000808191508090509550955061207d565b85868260200151029550955061207d565b60005482602001510286826020015102111561207257600054826020015102868260400151021115612071576000808191508090509550955061207d565b5b858260200151955095505b50505050935093915050565b600080548260026000015460026003015402028115156120a557fe5b0490508273ffffffffffffffffffffffffffffffffffffffff166108fc829081150290604051600060405180830381858888f1935050505015156120e857600080fd5b505050565b600054816002600001540281151561210157fe5b046001600082825403925050819055506002600401546001543073ffffffffffffffffffffffffffffffffffffffff1631031015156121435761214261285b565b5b50565b7f389a889e7f65d263df200f5a0bc042c0ba9d0c600161ff14d87cc1daa06b8e6d600c60008781526020019081526020016000208581548110151561218757fe5b906000526020600020900160009054906101000a900473ffffffffffffffffffffffffffffffffffffffff16600c6000888152602001908152602001600020858154811015156121d357fe5b906000526020600020900160009054906101000a900473ffffffffffffffffffffffffffffffffffffffff16600d60008981526020019081526020016000208781548110151561221f57fe5b9060005260206000209060020201600d60008a81526020019081526020016000208781548110151561224d57fe5b9060005260206000209060020201600e60008b81526020019081526020016000208981548110151561227b57fe5b9060005260206000209060020201600e60008c8152602001908152602001600020898154811015156122a957fe5b90600052602060002090600202018888604051808973ffffffffffffffffffffffffffffffffffffffff1673ffffffffffffffffffffffffffffffffffffffff1681526020018873ffffffffffffffffffffffffffffffffffffffff1673ffffffffffffffffffffffffffffffffffffffff1681526020018760028015612349576020028201915b81546000191681526020019060010190808311612331575b50508660028015612373576020028201915b8154600019168152602001906001019080831161235b575b5050856002801561239d576020028201915b81546000191681526020019060010190808311612385575b505084600280156123c7576020028201915b815460001916815260200190600101908083116123af575b50508381526020018281526020019850505050505050505060405180910390a15050505050565b600080600860008881526020019081526020016000208681548110151561241157fe5b90600052602060002090602091828204019190069054906101000a900460ff161561244157859150849050612448565b8491508590505b82600960008981526020019081526020016000208381548110151561246957fe5b90600052602060002090015414156124a5576001600f8881548110151561248c57fe5b9060005260206000209001600082825401925050819055505b82600a6000898152602001908152602001600020838154811015156124c657fe5b906000526020600020900154101561250e576000600a6000898152602001908152602001600020838154811015156124fa57fe5b906000526020600020900181905550612548565b82600a60008981526020019081526020016000208381548110151561252f57fe5b9060005260206000209001600082825403925050819055505b82600960008981526020019081526020016000208381548110151561256957fe5b90600052602060002090016000828254039250508190555060005484840281151561259057fe5b0460096000898152602001908152602001600020828154811015156125b157fe5b90600052602060002090015414156125ed576001600f888154811015156125d457fe5b9060005260206000209001600082825401925050819055505b6000548484028115156125fc57fe5b04600a60008981526020019081526020016000208281548110151561261d57fe5b9060005260206000209001541015612665576000600a60008981526020019081526020016000208281548110151561265157fe5b9060005260206000209001819055506126ae565b60005484840281151561267457fe5b04600a60008981526020019081526020016000208281548110151561269557fe5b9060005260206000209001600082825403925050819055505b6000548484028115156126bd57fe5b0460096000898152602001908152602001600020828154811015156126de57fe5b90600052602060002090016000828254039250508190555050505050505050565b600060086000858152602001908152602001600020805490508310151561272557600080fd5b60086000858152602001908152602001600020805490508210151561274957600080fd5b600860008581526020019081526020016000208281548110151561276957fe5b90600052602060002090602091828204019190069054906101000a900460ff16151560086000868152602001908152602001600020848154811015156127ab57fe5b90600052602060002090602091828204019190069054906101000a900460ff161515141515156127da57600080fd5b600060096000868152602001908152602001600020848154811015156127fc57fe5b9060005260206000209001541415151561281557600080fd5b6000600960008681526020019081526020016000208381548110151561283757fe5b9060005260206000209001541415151561285057600080fd5b600190509392505050565b565b602060405190810160405280600081525090565b602060405190810160405280600081525090565b602060405190810160405280600081525090565b8154818355818115116128ce57601f016020900481601f016020900483600052602060002091820191016128cd9190612af1565b5b505050565b8154818355818115116128fa578183600052602060002091820191016128f99190612af1565b5b505050565b815481835581811511612926578183600052602060002091820191016129259190612af1565b5b505050565b815481835581811511612958576002028160020283600052602060002091820191016129579190612b16565b5b505050565b8260028101928215612992579160200282015b82811115612991578251829060001916905591602001919060010190612970565b5b50905061299f9190612b42565b5090565b506000815560010160009055565b602060405190810160405280600081525090565b82600281019282156129f1579182015b828111156129f05782548255916001019190600101906129d5565b5b5090506129fe9190612b42565b5090565b815481835581811511612a3757601f016020900481601f01602090048360005260206000209182019101612a369190612af1565b5b505050565b815481835581811511612a6357818360005260206000209182019101612a629190612af1565b5b505050565b815481835581811511612a8f57818360005260206000209182019101612a8e9190612af1565b5b505050565b815481835581811511612ac157600202816002028360005260206000209182019101612ac09190612b16565b5b505050565b6080604051908101604052806000151581526020016000815260200160008152602001600081525090565b612b1391905b80821115612b0f576000816000905550600101612af7565b5090565b90565b612b3f91905b80821115612b3b5760008181612b3291906129a3565b50600201612b1c565b5090565b90565b612b6491905b80821115612b60576000816000905550600101612b48565b5090565b90565b856002600001819055508460026001018190555083600280018190555082600260030181905550816002600401819055508060026005018160001916905550505050505050565b600860008081526020019081526020016000208054806001018281612bd39190612899565b91600052602060002090602091828204019190066000909190916101000a81548160ff02191690831515021790555050600960008081526020019081526020016000208054806001018281612c2891906128d3565b916000526020600020900160008090919091505550600a60008081526020019081526020016000208054806001018281612c6291906128d3565b916000526020600020900160008090919091505550600b60008081526020019081526020016000208054806001018281612c9c91906128d3565b916000526020600020900160008090919091505550600c60008081526020019081526020016000208054806001018281612cd691906128ff565b9160005260206000209001600080909190916101000a81548173ffffffffffffffffffffffffffffffffffffffff021916908373ffffffffffffffffffffffffffffffffffffffff16021790555050600d60008081526020019081526020016000208054806001018281612d4a919061292b565b916000526020600020906002020160006040805190810160405280600060010260001916600019168152602001600060010260001916600019168152509091909150906002612d9a92919061295d565b5050600e60008081526020019081526020016000208054806001018281612dc1919061292b565b916000526020600020906002020160006040805190810160405280600060010260001916600019168152602001600060010260001916600019168152509091909150906002612e1192919061295d565b50505600a165627a7a7230582037c5262a61b39617c8683c0996101fefa32ddcfeb317735a1795f7a9f0efb9880029",
  "source": "pragma solidity ^0.4.18;\n\nimport 'zeppelin-solidity/contracts/math/SafeMath.sol';\nimport './ExchangeStructs.sol';\n/// @title Exchange\n/// @author Karim Helmy\n\n// Primary contract: Describes functions of exchange\ncontract Exchange is ExchangeStructs {\n  // TODO: Make all operations safe\n  using SafeMath for uint;\n\n  // SECTION: Declaring/initializing variables\n  uint public PRECISION = 10 ** 18;\n\n  // separate out the open balance (includes unclosed fees, gas fees),\n  // which will be distributed between miners, the exchange, and traders,\n  // from closed balance, which belongs to the exchange\n  uint public openBalance = 0;\n\n  Parameters public params;\n\n  // separate chapters for different currency pairs\n  // that's why they're 2D\n  /*\n  * Web3 can't properly handle structs.\n  * Ethers.js can only handle them under experimental version.\n  * Therefore, the old orderBook and adressBook pattern won't work.\n  * \\_()_/\n  */\n  // separate chapters for different currency pairs\n  // that's why they're 2D\n  mapping (uint => bool[]) public buyBook;\n  mapping (uint => uint[]) public volBook;\n  mapping (uint => uint[]) public minVolBook;\n  mapping (uint => uint[]) public limitBook;\n\n  mapping (uint => address[]) public ethAddressBook;\n  mapping (uint => bytes32[2][]) public firstAddressBook;\n  mapping (uint => bytes32[2][]) public secondAddressBook;\n\n  // Numbers of orders that have been closed are kept here\n  uint[] numsCleared;\n\n  // SECTION: Constructor and helpers\n  // Constructor for contract\n  function Exchange(uint closureFee, uint cancelFee,\n                    uint cleanSize, uint minerShare, uint distBalance,\n                    bytes32 difficulty)\n    public\n  {\n    // Initialize parameters books\n    setParams(closureFee, cancelFee,\n              cleanSize, minerShare, distBalance, difficulty);\n    // Initialize order books\n    setBooks();\n    // Initialize numsCleared[0] as zero\n    numsCleared.push(0);\n    return;\n  }\n\n  /*\n  * Initializes order book and address book\n  * Only used in constructor\n  * Pushes \"genesis order\"\n  */\n  function setBooks()\n    private\n  {\n    buyBook[0].push(false);\n    volBook[0].push(0);\n    minVolBook[0].push(0);\n    limitBook[0].push(0);\n\n    ethAddressBook[0].push(address(0));\n    firstAddressBook[0].push([bytes32(0), bytes32(0)]);\n    secondAddressBook[0].push([bytes32(0), bytes32(0)]);\n  }\n\n  // Init the params struct, which contains the bulk of exchange's parameters\n  // Only used in constructor\n  function setParams(uint closureFee, uint cancelFee,\n                    uint cleanSize, uint minerShare, uint distBalance,\n                    bytes32 difficulty)\n    internal\n  {\n    params.closureFee = closureFee;\n    params.cancelFee = cancelFee;\n    params.cleanSize = cleanSize;\n    params.minerShare = minerShare;\n    params.distBalance = distBalance;\n    params.difficulty = difficulty;\n  }\n\n  // SECTION: Getters\n  // Get chapter from order book\n  function getOrderChapter(uint chapter)\n    external\n    view\n    returns(bool[] buyChapter, uint[] volChapter,\n            uint[] minVolChapter, uint[] limitChapter)\n  {\n    return(buyBook[chapter], volBook[chapter],\n          minVolBook[chapter], limitBook[chapter]);\n  }\n\n  /*\n  * Wish I could've bundled these.\n  * For some reason, get a bug when firstAddressChapter and secondAddressChapter are together.\n  * Suspect it has something to do with returning dynamic arrays of fixed size arrays\n  */\n  // Get chapter from ethAddressBook\n  function getETHAddressChapter(uint chapter)\n    external\n    view\n    returns(address[] ethAddressChapter)\n  {\n    return(ethAddressBook[chapter]);\n  }\n\n  // Get chapter from firstAddressBook\n  function getFirstAddressChapter(uint chapter)\n    external\n    view\n    returns(bytes32[2][] firstAddressChapter)\n  {\n    return(firstAddressBook[chapter]);\n  }\n\n  // Get chapter from secondAddressBook\n  function getSecondAddressChapter(uint chapter)\n    external\n    view\n    returns(bytes32[2][] secondAddressChapter)\n  {\n    return(secondAddressBook[chapter]);\n  }\n\n  // SECTION: Core functionality\n  // Checks edge cases for match verification\n  function checkMatchEdges(uint chapter, uint index1, uint index2)\n    private\n    view\n    returns(bool passes)\n  {\n    // valid indices\n    require(index1 < buyBook[chapter].length);\n    require(index2 < buyBook[chapter].length);\n    //One buy order and one sell order\n    require(buyBook[chapter][index1] != buyBook[chapter][index2]);\n    //Non-empty order\n    require(volBook[chapter][index1] != 0);\n    require(volBook[chapter][index2] != 0);\n    // All edge cases work!\n    return true;\n  }\n\n  // verifies that match is valid\n  function calcRateAndVol(uint chapter, uint index1, uint index2)\n    private\n    view\n    returns (uint mimRate, uint ethVol)\n  {\n    // check edge cases\n    if (! checkMatchEdges(chapter, index1, index2)) {\n      return (0,0);\n    }\n    // which order is buying and selling ETH?\n    // buy-sell copy1\n    uint buyIndex;\n    uint sellIndex;\n    if (buyBook[chapter][index1]) {\n      buyIndex = index1;\n      sellIndex = index2;\n    } else{\n      buyIndex = index2;\n      sellIndex = index1;\n    }\n    // shorthand for buy and sell orders\n    Order memory buyOrder = Order(true, volBook[chapter][buyIndex],\n                                  minVolBook[chapter][buyIndex],\n                                  limitBook[chapter][buyIndex]);\n    Order memory sellOrder = Order(false, volBook[chapter][sellIndex],\n                                  minVolBook[chapter][sellIndex],\n                                  limitBook[chapter][sellIndex]);\n\n    // Non-contradictory limits\n    if (buyOrder.limit < sellOrder.limit) {\n      return (0, 0);\n    }\n    // Meet in middle rate\n    // mimRate\n    mimRate = (buyOrder.limit + sellOrder.limit) / 2;\n    // Volumes comparable\n    if (buyOrder.volume * PRECISION > sellOrder.volume * mimRate) {\n      if (buyOrder.minVolume * PRECISION > sellOrder.volume * mimRate) {\n        return (0, 0);\n      }\n      return (mimRate, sellOrder.volume * mimRate);\n    }\n    if (sellOrder.volume * mimRate > buyOrder.volume * PRECISION ) {\n      if (sellOrder.minVolume * mimRate > buyOrder.volume * PRECISION) {\n        return (0, 0);\n      }\n    }\n    return (mimRate, buyOrder.volume);\n  }\n\n  // Clears closed trade, reenters into order book if incomplete\n  function clearTrade(uint chapter, uint index1, uint index2,\n                      uint mimRate, uint ethVol)\n    private\n  {\n    // which order is buying and selling ETH?\n    // buy-sell copy1\n    uint buyIndex;\n    uint sellIndex;\n    if (buyBook[chapter][index1]) {\n      buyIndex = index1;\n      sellIndex = index2;\n    } else{\n      buyIndex = index2;\n      sellIndex = index1;\n    }\n    if (volBook[chapter][buyIndex] == ethVol) {\n      numsCleared[chapter] += 1;\n    }\n    if (minVolBook[chapter][buyIndex] < ethVol) {\n      minVolBook[chapter][buyIndex] = 0;\n    } else{\n      minVolBook[chapter][buyIndex] -= ethVol;\n    }\n    volBook[chapter][buyIndex] -= ethVol;\n    if (volBook[chapter][sellIndex] == (ethVol * mimRate / PRECISION)) {\n      numsCleared[chapter] += 1;\n    }\n    if (minVolBook[chapter][sellIndex] < (ethVol * mimRate / PRECISION)) {\n      minVolBook[chapter][sellIndex] = 0;\n    } else{\n      minVolBook[chapter][sellIndex] -= (ethVol * mimRate / PRECISION);\n    }\n    volBook[chapter][sellIndex] -= ethVol * mimRate / PRECISION;\n  }\n\n  // Adds trade to log, for traders to note\n  // http://solidity.readthedocs.io/en/latest/contracts.html?highlight=events#events\n  function alertTraders(uint chapter, uint index1, uint index2, uint mimRate, uint ethVol)\n    private\n  {\n    TradeInfo(\n      ethAddressBook[chapter][index1], //ethAddress1,\n      ethAddressBook[chapter][index2], //ethAddress2,\n      firstAddressBook[chapter][index1], //firstAddress1,\n      firstAddressBook[chapter][index2], //firstAddress2,\n      secondAddressBook[chapter][index1], //otherAddress1,\n      secondAddressBook[chapter][index2], // otherAddress2,\n      mimRate,\n      ethVol\n      );\n  }\n\n  // ValexToken override distributes dividends when balance is of sufficient size\n  // What to do about purity?\n  // TODO: Make dividends distributed by time, not quantity\n  // TODO: Add forced dividend distribution\n  function distDividends()\n    internal\n    pure\n  {\n    return;\n  }\n\n  // Move balance from open to closed\n  function clearBalance(uint ethVol)\n    private\n  {\n    openBalance -= (params.closureFee * ethVol / PRECISION);\n    if (this.balance - openBalance >= params.distBalance) {\n      distDividends();\n    }\n  }\n\n  // Clean chapter (called when size reaches size to clean)\n  function cleanChapter(uint chapter)\n    private\n    returns(bool cleaned)\n  {\n    // Clean chapter only if size is appropriate\n    if (numsCleared[chapter] < params.cleanSize) {\n      return false;\n    }\n    // For all orders\n    // If it's a cleared order:\n    // Replace it with the next one, and clear the next one\n    for (uint i = 1; i < buyBook[chapter].length; i++) {\n      if (volBook[chapter][i] == 0) {\n        if (i < buyBook[chapter].length - 1) {\n          buyBook[chapter][i] = buyBook[chapter][i+1];\n          volBook[chapter][i] = volBook[chapter][i+1];\n          minVolBook[chapter][i] = minVolBook[chapter][i+1];\n          limitBook[chapter][i] = limitBook[chapter][i+1];\n\n          ethAddressBook[chapter][i] = ethAddressBook[chapter][i+1];\n          firstAddressBook[chapter][i] = firstAddressBook[chapter][i+1];\n          secondAddressBook[chapter][i] = secondAddressBook[chapter][i+1];\n\n          delete buyBook[chapter][i+1];\n          delete volBook[chapter][i+1];\n          delete minVolBook[chapter][i+1];\n          delete limitBook[chapter][i+1];\n\n          delete ethAddressBook[chapter][i+1];\n          delete firstAddressBook[chapter][i+1];\n          delete secondAddressBook[chapter][i+1];\n        }\n      }\n    }\n    buyBook[chapter].length = buyBook[chapter].length - numsCleared[chapter];\n    volBook[chapter].length = volBook[chapter].length - numsCleared[chapter];\n    minVolBook[chapter].length = minVolBook[chapter].length - numsCleared[chapter];\n    limitBook[chapter].length = limitBook[chapter].length - numsCleared[chapter];\n\n    ethAddressBook[chapter].length = ethAddressBook[chapter].length - numsCleared[chapter];\n    firstAddressBook[chapter].length = firstAddressBook[chapter].length - numsCleared[chapter];\n    secondAddressBook[chapter].length = secondAddressBook[chapter].length - numsCleared[chapter];\n\n    numsCleared[chapter] = 0;\n    return true;\n  }\n\n  // Checks if POW (nonce) is valid\n  // Performs nonce verification (keccak256)\n  // Helper for giveMatch\n  function isValidPOW(address depositAddress, uint chapter, uint index1,\n                      uint index2, uint nonce)\n    private\n    view\n    returns(bool isValid)\n  {\n    if (params.difficulty > keccak256(depositAddress, chapter, index1, index2, nonce)) {\n      return false;\n    }\n    return true;\n  }\n\n  // Function to pay the miner what's due\n  function payMiner(address depositAddress, uint ethVol)\n    private\n  {\n    // Calculate the miner's payment\n    uint minerPayment = ((params.minerShare * params.closureFee * ethVol) /\n                          PRECISION);\n    // Pay the miner\n    depositAddress.transfer(minerPayment);\n  }\n\n  // Miners suggest matches with this function\n  // Wrapper for calcRateAndVol and isValidPOW, performs other required functions\n  function giveMatch(address depositAddress, uint chapter,\n                    uint index1, uint index2, uint nonce)\n    public\n    payable\n    returns(bool isValid)\n  {\n    // Validate nonce\n    // Helper for giveMatch\n    require(isValidPOW(depositAddress, chapter, index1, index2, nonce));\n    var (mimRate, ethVol) = calcRateAndVol(chapter, index1, index2);\n    require(ethVol > 0);\n    payMiner(depositAddress, ethVol);\n    clearBalance(ethVol);\n    alertTraders(chapter, index1, index2, mimRate, ethVol);\n    clearTrade(chapter, index1, index2, mimRate, ethVol);\n    cleanChapter(chapter);\n    return true;\n  }\n\n  // Allows traders to place orders\n  function placeOrder(bool buyETH, uint volume, uint minVolume, uint limit,\n                      address ethAddress, bytes32[2] firstAddress,\n                      bytes32[2] otherAddress, uint chapter)\n    public\n    payable\n    returns(bool accepted)\n  {\n    require(volume > 0);\n    require(minVolume > 0);\n    require(volume >= minVolume);\n    require(limit > 0);\n    // TODO: NEXT VERSION: Charge according to transaction vol for generic currencies\n    // Use market rate\n    if (buyETH) {\n      require(limit * msg.value >= volume * params.closureFee / PRECISION);\n    } else{\n      require(msg.value >= volume * params.closureFee / PRECISION);\n    }\n    require(buyBook[chapter].length > 0);\n\n    openBalance += msg.value;\n\n    buyBook[chapter].push(buyETH);\n    volBook[chapter].push(volume);\n    minVolBook[chapter].push(minVolume);\n    limitBook[chapter].push(limit);\n\n    ethAddressBook[chapter].push(ethAddress);\n    firstAddressBook[chapter].push(firstAddress);\n    secondAddressBook[chapter].push(otherAddress);\n    return true;\n  }\n\n  // Allows traders to cancel orders\n  function cancelOrder(uint chapter, uint index)\n    public\n    returns(bool accepted)\n  {\n    require(index < buyBook[chapter].length);\n    // Can't cancel other people's orders\n    require(msg.sender == ethAddressBook[chapter][index]);\n\n    uint limit = limitBook[chapter][index];\n    uint volume = volBook[chapter][index];\n\n    // TODO: NEXT VERSION: Refund according to transaction vol for generic currencies\n    // Use market rate\n    // Refund according to ether transaction volume\n    if (buyBook[chapter][index]) {\n      msg.sender.transfer(volume * (params.closureFee - params.cancelFee) / limit);\n    } else{\n      msg.sender.transfer(volume * (params.closureFee - params.cancelFee) / limit);\n    }\n    delete buyBook[chapter][index];\n    delete volBook[chapter][index];\n    delete minVolBook[chapter][index];\n    delete limitBook[chapter][index];\n\n    delete ethAddressBook[chapter][index];\n    delete firstAddressBook[chapter][index];\n    delete secondAddressBook[chapter][index];\n\n    numsCleared[chapter] += 1;\n    cleanChapter(chapter);\n    return true;\n  }\n}\n",
  "sourcePath": "/Users/Karim/Desktop/Valex/contracts/Exchange.sol",
  "compiler": {
    "name": "solc",
    "version": "0.4.18+commit.9cf6e910.Emscripten.clang"
  },
  "schemaVersion": "1.0.1",
  "updatedAt": "2018-02-20T00:06:51.477Z"
}