{
  "contractName": "Exchange",
  "abi": [
    {
      "constant": true,
      "inputs": [
        {
          "name": "",
          "type": "uint256"
        },
        {
          "name": "",
          "type": "uint256"
        }
      ],
      "name": "orderBook",
      "outputs": [
        {
          "name": "buyETH",
          "type": "bool"
        },
        {
          "name": "volume",
          "type": "uint256"
        },
        {
          "name": "limit",
          "type": "uint256"
        }
      ],
      "payable": false,
      "stateMutability": "view",
      "type": "function"
    },
    {
      "constant": false,
      "inputs": [
        {
          "name": "chapter",
          "type": "uint256"
        },
        {
          "name": "index1",
          "type": "uint256"
        },
        {
          "name": "index2",
          "type": "uint256"
        },
        {
          "name": "nonce",
          "type": "bytes32"
        },
        {
          "name": "hashVal",
          "type": "uint256"
        }
      ],
      "name": "giveMatch",
      "outputs": [
        {
          "name": "isValid",
          "type": "bool"
        }
      ],
      "payable": true,
      "stateMutability": "payable",
      "type": "function"
    },
    {
      "constant": true,
      "inputs": [],
      "name": "exBalances",
      "outputs": [
        {
          "name": "openBalance",
          "type": "uint256"
        },
        {
          "name": "closedBalance",
          "type": "uint256"
        }
      ],
      "payable": false,
      "stateMutability": "view",
      "type": "function"
    },
    {
      "constant": false,
      "inputs": [
        {
          "name": "chapter",
          "type": "uint256"
        },
        {
          "name": "index",
          "type": "uint256"
        }
      ],
      "name": "cancelOrder",
      "outputs": [
        {
          "name": "accepted",
          "type": "bool"
        }
      ],
      "payable": false,
      "stateMutability": "nonpayable",
      "type": "function"
    },
    {
      "constant": true,
      "inputs": [],
      "name": "params",
      "outputs": [
        {
          "name": "closureFeePerUnit",
          "type": "uint256"
        },
        {
          "name": "cancelFeePerUnit",
          "type": "uint256"
        },
        {
          "name": "cleanSize",
          "type": "uint256"
        },
        {
          "name": "distBalance",
          "type": "uint256"
        }
      ],
      "payable": false,
      "stateMutability": "view",
      "type": "function"
    },
    {
      "constant": false,
      "inputs": [
        {
          "name": "buyETH",
          "type": "bool"
        },
        {
          "name": "volume",
          "type": "uint256"
        },
        {
          "name": "limit",
          "type": "uint256"
        },
        {
          "name": "ethAddress",
          "type": "address"
        },
        {
          "name": "firstAddress",
          "type": "string"
        },
        {
          "name": "otherAddress",
          "type": "string"
        },
        {
          "name": "chapter",
          "type": "uint256"
        }
      ],
      "name": "placeOrder",
      "outputs": [
        {
          "name": "accepted",
          "type": "bool"
        }
      ],
      "payable": true,
      "stateMutability": "payable",
      "type": "function"
    },
    {
      "inputs": [
        {
          "name": "closureFeePerUnit",
          "type": "uint256"
        },
        {
          "name": "cancelFeePerUnit",
          "type": "uint256"
        },
        {
          "name": "margin0",
          "type": "uint256"
        },
        {
          "name": "margin1",
          "type": "uint256"
        },
        {
          "name": "cleanSize",
          "type": "uint256"
        },
        {
          "name": "minershare0",
          "type": "uint256"
        },
        {
          "name": "minerShare1",
          "type": "uint256"
        },
        {
          "name": "distBalance",
          "type": "uint256"
        }
      ],
      "payable": false,
      "stateMutability": "nonpayable",
      "type": "constructor"
    },
    {
      "anonymous": false,
      "inputs": [
        {
          "indexed": false,
          "name": "ethAddress1",
          "type": "address"
        },
        {
          "indexed": false,
          "name": "ethAddress2",
          "type": "address"
        },
        {
          "indexed": false,
          "name": "firstAddress1",
          "type": "string"
        },
        {
          "indexed": false,
          "name": "firstAddress2",
          "type": "string"
        },
        {
          "indexed": false,
          "name": "otherAddress1",
          "type": "string"
        },
        {
          "indexed": false,
          "name": "otherAddress2",
          "type": "string"
        },
        {
          "indexed": false,
          "name": "ethVol",
          "type": "uint256"
        },
        {
          "indexed": false,
          "name": "otherVol",
          "type": "uint256"
        }
      ],
      "name": "TradeInfo",
      "type": "event"
    }
  ],
  "bytecode": "0x606060405234156200001057600080fd5b6040516101008062001ee883398101604052808051906020019091908051906020019091908051906020019091908051906020019091908051906020019091908051906020019091908051906020019091908051906020019091905050620000938888888888888888620000ec6401000000000262001c19176401000000009004565b50620000b26200018d6401000000000262001cb6176401000000009004565b50600c8054806001018281620000c9919062000196565b9160005260206000209001600080909190915055505050505050505050620001ed565b60008860008001819055508760006001018190555086600060020160006002811015156200011657fe5b018190555085600060020160016002811015156200013057fe5b01819055508460006004018190555083600060050160006002811015156200015457fe5b018190555082600060050160016002811015156200016e57fe5b0181905550816000600701819055506001905098975050505050505050565b60006001905090565b815481835581811511620001c057818360005260206000209182019101620001bf9190620001c5565b5b505050565b620001ea91905b80821115620001e6576000816000905550600101620001cc565b5090565b90565b611ceb80620001fd6000396000f300606060405260043610610078576000357c0100000000000000000000000000000000000000000000000000000000900463ffffffff16806314974f461461007d5780635a1f6393146100cf578063737f02af14610127578063b6ed063214610157578063cff0ab961461019b578063ff33d72e146101d9575b600080fd5b341561008857600080fd5b6100a760048080359060200190919080359060200190919050506102cb565b6040518084151515158152602001838152602001828152602001935050505060405180910390f35b61010d60048080359060200190919080359060200190919080359060200190919080356000191690602001909190803590602001909190505061031e565b604051808215151515815260200191505060405180910390f35b341561013257600080fd5b61013a610437565b604051808381526020018281526020019250505060405180910390f35b341561016257600080fd5b6101816004808035906020019091908035906020019091905050610449565b604051808215151515815260200191505060405180910390f35b34156101a657600080fd5b6101ae61076b565b6040518085815260200184815260200183815260200182815260200194505050505060405180910390f35b6102b16004808035151590602001909190803590602001909190803590602001909190803573ffffffffffffffffffffffffffffffffffffffff1690602001909190803590602001908201803590602001908080601f0160208091040260200160405190810160405280939291908181526020018383808284378201915050505050509190803590602001908201803590602001908080601f01602080910402602001604051908101604052809392919081815260200183838082843782019150505050505091908035906020019091905050610789565b604051808215151515815260200191505060405180910390f35b600a602052816000526040600020818154811015156102e657fe5b9060005260206000209060030201600091509150508060000160009054906101000a900460ff16908060010154908060020154905083565b60006103286119a2565b600061033588888861096e565b158061034c575061034a338989898989610bc2565b155b1561035a576000925061042c565b610365888888610c9d565b91506000600501600160028110151561037a57fe5b015482600060028110151561038b57fe5b60200201516000800154600060050160006002811015156103a857fe5b015402028115156103b557fe5b0490503373ffffffffffffffffffffffffffffffffffffffff166108fc829081150290604051600060405180830381858888f1935050505015156103f857600080fd5b6104028183610e26565b5061040f88888885610ea5565b5061041c8888888561138b565b50610426886115f1565b50600192505b505095945050505050565b60088060000154908060010154905082565b6000806000600a6000868152602001908152602001600020805490508410151561047257600080fd5b600b60008681526020019081526020016000208481548110151561049257fe5b906000526020600020906003020160000160009054906101000a900473ffffffffffffffffffffffffffffffffffffffff1673ffffffffffffffffffffffffffffffffffffffff163373ffffffffffffffffffffffffffffffffffffffff161415156104fd57600080fd5b600a60008681526020019081526020016000208481548110151561051d57fe5b9060005260206000209060030201600201549150600a60008681526020019081526020016000208481548110151561055157fe5b9060005260206000209060030201600101549050600a60008681526020019081526020016000208481548110151561058557fe5b906000526020600020906003020160000160009054906101000a900460ff1615610606573373ffffffffffffffffffffffffffffffffffffffff166108fc8360006001015460008001540384028115156105db57fe5b049081150290604051600060405180830381858888f19350505050151561060157600080fd5b61065f565b3373ffffffffffffffffffffffffffffffffffffffff166108fc83600060010154600080015403840281151561063857fe5b049081150290604051600060405180830381858888f19350505050151561065e57600080fd5b5b600a60008681526020019081526020016000208481548110151561067f57fe5b9060005260206000209060030201600080820160006101000a81549060ff0219169055600182016000905560028201600090555050600b6000868152602001908152602001600020848154811015156106d457fe5b9060005260206000209060030201600080820160006101000a81549073ffffffffffffffffffffffffffffffffffffffff021916905560018201600061071a91906119c9565b60028201600061072a91906119c9565b50506001600c8681548110151561073d57fe5b90600052602060002090016000828254019250508190555061075e856115f1565b5060019250505092915050565b60008060000154908060010154908060040154908060070154905084565b6000808711151561079957600080fd5b6000861115156107a857600080fd5b87156107ca5760008001548702348702101515156107c557600080fd5b6107e0565b6000800154870234101515156107df57600080fd5b5b600a600083815260200190815260200160002080548060010182816108059190611a11565b916000526020600020906003020160006060604051908101604052808c151581526020018b81526020018a815250909190915060008201518160000160006101000a81548160ff0219169083151502179055506020820151816001015560408201518160020155505050600b600083815260200190815260200160002080548060010182816108949190611a43565b916000526020600020906003020160006060604051908101604052808973ffffffffffffffffffffffffffffffffffffffff16815260200188815260200187815250909190915060008201518160000160006101000a81548173ffffffffffffffffffffffffffffffffffffffff021916908373ffffffffffffffffffffffffffffffffffffffff160217905550602082015181600101908051906020019061093e929190611a75565b50604082015181600201908051906020019061095b929190611a75565b5050505060019050979650505050505050565b600080600061097b611af5565b610983611af5565b6000610990898989611829565b151561099f5760009550610bb6565b600a60008a8152602001908152602001600020888154811015156109bf57fe5b906000526020600020906003020160000160009054906101000a900460ff16156109ee578794508693506109f5565b8694508793505b600a60008a815260200190815260200160002085815481101515610a1557fe5b9060005260206000209060030201606060405190810160405290816000820160009054906101000a900460ff16151515158152602001600182015481526020016002820154815250509250600a60008a815260200190815260200160002084815481101515610a8057fe5b9060005260206000209060030201606060405190810160405290816000820160009054906101000a900460ff16151515158152602001600182015481526020016002820154815250509150816040015183604001511015610ae45760009550610bb6565b60028260400151846040015101811515610afa57fe5b0490508082602001510283602001511115610b57578060006002016001600281101515610b2357fe5b01548360200151020260006002016000600281101515610b3f57fe5b01548460200151021115610b565760009550610bb6565b5b8260200151818360200151021115610bb15760006002016001600281101515610b7c57fe5b01548360200151028160006002016000600281101515610b9857fe5b0154846020015102021115610bb05760009550610bb6565b5b600195505b50505050509392505050565b6000866103e8606e8801811515610bd557fe5b066103e8606e8801811515610be657fe5b066103e8606e8801811515610bf757fe5b066103e8606e8701811515610c0857fe5b06604051808673ffffffffffffffffffffffffffffffffffffffff1673ffffffffffffffffffffffffffffffffffffffff166c01000000000000000000000000028152601401858152602001848152602001838152602001828152602001955050505050506040518091039020600019168360001916141515610c8e5760009050610c93565b600190505b9695505050505050565b610ca56119a2565b600080600080600080600a60008b815260200190815260200160002089815481101515610cce57fe5b906000526020600020906003020160000160009054906101000a900460ff1615610d015788955087945060009350610d0c565b879550889450600193505b600a60008b815260200190815260200160002086815481101515610d2c57fe5b90600052602060002090600302019250600a60008b815260200190815260200160002085815481101515610d5c57fe5b9060005260206000209060030201915060028260020154846002015401811515610d8257fe5b049050826001015481836001015402111515610dd9578160010154876000600281101515610dac57fe5b60200201818152505080826001015402876001600281101515610dcb57fe5b602002018181525050610e16565b80836001015402876000600281101515610def57fe5b6020020181815250508260010154876001600281101515610e0c57fe5b6020020181815250505b8696505050505050509392505050565b6000816000600281101515610e3757fe5b602002015160008001540260086000015403600860000181905550816000600281101515610e6157fe5b6020020151600080015402836008600101540301600860010181905550600060070154600860010154101515610e9b57610e9961198f565b505b6001905092915050565b6000806000600a600088815260200190815260200160002086815481101515610eca57fe5b906000526020600020906003020160000160009054906101000a900460ff1615610f1f57836000600281101515610efd57fe5b60200201519150836001600281101515610f1357fe5b60200201519050610f4c565b836000600281101515610f2e57fe5b60200201519150836001600281101515610f4457fe5b602002015190505b7f17fad608e647bf180e9f2d2542498a2ec81fb1cb077d60802b67b21d64adc9b8600b600089815260200190815260200160002087815481101515610f8d57fe5b906000526020600020906003020160000160009054906101000a900473ffffffffffffffffffffffffffffffffffffffff16600b60008a815260200190815260200160002087815481101515610fdf57fe5b906000526020600020906003020160000160009054906101000a900473ffffffffffffffffffffffffffffffffffffffff16600b60008b81526020019081526020016000208981548110151561103157fe5b9060005260206000209060030201600101600b60008c81526020019081526020016000208981548110151561106257fe5b9060005260206000209060030201600101600b60008d81526020019081526020016000208b81548110151561109357fe5b9060005260206000209060030201600201600b60008e81526020019081526020016000208b8154811015156110c457fe5b90600052602060002090600302016002018888604051808973ffffffffffffffffffffffffffffffffffffffff1673ffffffffffffffffffffffffffffffffffffffff1681526020018873ffffffffffffffffffffffffffffffffffffffff1673ffffffffffffffffffffffffffffffffffffffff1681526020018060200180602001806020018060200187815260200186815260200185810385528b8181546001816001161561010002031660029004815260200191508054600181600116156101000203166002900480156111dc5780601f106111b1576101008083540402835291602001916111dc565b820191906000526020600020905b8154815290600101906020018083116111bf57829003601f168201915b505085810384528a81815460018160011615610100020316600290048152602001915080546001816001161561010002031660029004801561125f5780601f106112345761010080835404028352916020019161125f565b820191906000526020600020905b81548152906001019060200180831161124257829003601f168201915b50508581038352898181546001816001161561010002031660029004815260200191508054600181600116156101000203166002900480156112e25780601f106112b7576101008083540402835291602001916112e2565b820191906000526020600020905b8154815290600101906020018083116112c557829003601f168201915b50508581038252888181546001816001161561010002031660029004815260200191508054600181600116156101000203166002900480156113655780601f1061133a57610100808354040283529160200191611365565b820191906000526020600020905b81548152906001019060200180831161134857829003601f168201915b50509c5050505050505050505050505060405180910390a1600192505050949350505050565b600081600060028110151561139c57fe5b6020020151600a6000878152602001908152602001600020858154811015156113c157fe5b906000526020600020906003020160010154141561143c57600a6000868152602001908152602001600020848154811015156113f957fe5b9060005260206000209060030201600101600090556001600c8681548110151561141f57fe5b9060005260206000209001600082825401925050819055506114b9565b81600060028110151561144b57fe5b6020020151600a60008781526020019081526020016000208581548110151561147057fe5b90600052602060002090600302016001015403600a6000878152602001908152602001600020858154811015156114a357fe5b9060005260206000209060030201600101819055505b8160016002811015156114c857fe5b6020020151600a6000878152602001908152602001600020848154811015156114ed57fe5b906000526020600020906003020160010154141561156857600a60008681526020019081526020016000208381548110151561152557fe5b9060005260206000209060030201600101600090556001600c8681548110151561154b57fe5b9060005260206000209001600082825401925050819055506115e5565b81600160028110151561157757fe5b6020020151600a60008781526020019081526020016000208481548110151561159c57fe5b90600052602060002090600302016001015403600a6000878152602001908152602001600020848154811015156115cf57fe5b9060005260206000209060030201600101819055505b60019050949350505050565b600080600060040154600c8481548110151561160957fe5b90600052602060002090015410156116245760009150611823565b600090505b600a6000848152602001908152602001600020805490508110156117ac576000600a60008581526020019081526020016000208281548110151561166957fe5b906000526020600020906003020160010154141561179f576001600a6000858152602001908152602001600020805490500381101561179e57600a6000848152602001908152602001600020600182018154811015156116c557fe5b9060005260206000209060030201600a6000858152602001908152602001600020828154811015156116f357fe5b90600052602060002090600302016000820160009054906101000a900460ff168160000160006101000a81548160ff0219169083151502179055506001820154816001015560028201548160020155905050600a60008481526020019081526020016000206001820181548110151561176857fe5b9060005260206000209060030201600080820160006101000a81549060ff02191690556001820160009055600282016000905550505b5b8080600101915050611629565b600c838154811015156117bb57fe5b906000526020600020900154600a60008581526020019081526020016000208054905003600a6000858152602001908152602001600020816117fd9190611b19565b506000600c8481548110151561180f57fe5b906000526020600020900181905550600191505b50919050565b6000600a6000858152602001908152602001600020805490508310151561184f57600080fd5b600a6000858152602001908152602001600020805490508210151561187357600080fd5b600a60008581526020019081526020016000208281548110151561189357fe5b906000526020600020906003020160000160009054906101000a900460ff161515600a6000868152602001908152602001600020848154811015156118d457fe5b906000526020600020906003020160000160009054906101000a900460ff1615151415151561190257600080fd5b6000600a60008681526020019081526020016000208481548110151561192457fe5b9060005260206000209060030201600101541415151561194357600080fd5b6000600a60008681526020019081526020016000208381548110151561196557fe5b9060005260206000209060030201600101541415151561198457600080fd5b600190509392505050565b6000806008600101819055506001905090565b60408051908101604052806002905b60008152602001906001900390816119b15790505090565b50805460018160011615610100020316600290046000825580601f106119ef5750611a0e565b601f016020900490600052602060002090810190611a0d9190611b4b565b5b50565b815481835581811511611a3e57600302816003028360005260206000209182019101611a3d9190611b70565b5b505050565b815481835581811511611a7057600302816003028360005260206000209182019101611a6f9190611bb3565b5b505050565b828054600181600116156101000203166002900490600052602060002090601f016020900481019282601f10611ab657805160ff1916838001178555611ae4565b82800160010185558215611ae4579182015b82811115611ae3578251825591602001919060010190611ac8565b5b509050611af19190611b4b565b5090565b60606040519081016040528060001515815260200160008152602001600081525090565b815481835581811511611b4657600302816003028360005260206000209182019101611b459190611b70565b5b505050565b611b6d91905b80821115611b69576000816000905550600101611b51565b5090565b90565b611bb091905b80821115611bac57600080820160006101000a81549060ff02191690556001820160009055600282016000905550600301611b76565b5090565b90565b611c1691905b80821115611c1257600080820160006101000a81549073ffffffffffffffffffffffffffffffffffffffff0219169055600182016000611bf991906119c9565b600282016000611c0991906119c9565b50600301611bb9565b5090565b90565b6000886000800181905550876000600101819055508660006002016000600281101515611c4257fe5b01819055508560006002016001600281101515611c5b57fe5b0181905550846000600401819055508360006005016000600281101515611c7e57fe5b01819055508260006005016001600281101515611c9757fe5b0181905550816000600701819055506001905098975050505050505050565b600060019050905600a165627a7a72305820822f5dc87c061614922bc99d689ab5493955eb8ec653fec18c434935f93beb7e0029",
  "source": "pragma solidity ^0.4.18;\n\nimport 'zeppelin-solidity/contracts/math/SafeMath.sol';\nimport './ExchangeStructs.sol';\n/// @title Exchange\n/// @author Karim Helmy\n\n// Primary contract: Describes functions of exchange\ncontract Exchange is ExchangeStructs {\n  // TODO: Make all operations safe\n  using SafeMath for uint;\n\n  Parameters public params;\n  Balances public exBalances;\n\n  // separate chapters for different currency pairs\n  // that's why they're 2D mappings\n  mapping (uint => Order[]) public orderBook;\n  // Order[][] public orderBook;\n  mapping (uint => AddressInfo[]) private addressBook;\n  // AddressInfo[][] private addressBook;\n  // Numbers of orders that have been closed are kept here\n  uint[] numsCleared;\n\n  // Constructor for contract\n  function Exchange(uint closureFeePerUnit, uint cancelFeePerUnit,\n                    uint margin0, uint margin1, uint cleanSize,\n                    uint minershare0, uint minerShare1, uint distBalance)\n    public\n  {\n    // Initialize parameters books\n    setParams(closureFeePerUnit, cancelFeePerUnit,\n              margin0, margin1, cleanSize, minershare0, minerShare1, distBalance);\n    // Initialize order books\n    setBooks();\n    // Initialize numsCleared[0] as zero\n    numsCleared.push(0);\n    return;\n  }\n\n  // TODO: Implement\n  // Initializes orderBook and addressBook\n  // Only used in constructor\n  function setBooks()\n    private\n    // TODO: Make impure when finished\n    // pure to avoid warning, but in final version will not be\n    pure\n    returns(bool passes)\n  {\n    return true;\n  }\n  // Init the params struct, which contains the bulk of exchange's parameters\n  // Only used in constructor\n  function setParams(uint closureFeePerUnit, uint cancelFeePerUnit,\n                    uint margin0, uint margin1, uint cleanSize,\n                    uint minerShare0, uint minerShare1, uint distBalance)\n    private\n    returns(bool passes)\n  {\n    params.closureFeePerUnit = closureFeePerUnit;\n    params.cancelFeePerUnit = cancelFeePerUnit;\n    params.margin[0] = margin0;\n    params.margin[1] = margin1;\n    params.cleanSize = cleanSize;\n    params.minerShare[0] = minerShare0;\n    params.minerShare[1] = minerShare1;\n    params.distBalance = distBalance;\n    return true;\n  }\n\n  // Checks edge cases for match verification\n  function checkMatchEdges(uint chapter, uint index1, uint index2)\n    private\n    view\n    returns(bool passes)\n  {\n    // valid indices\n    require(index1 < orderBook[chapter].length);\n    require(index2 < orderBook[chapter].length);\n    //One buy order and one sell order\n    require(orderBook[chapter][index1].buyETH != orderBook[chapter][index2].buyETH);\n    //Non-empty order\n    require(orderBook[chapter][index1].volume != 0);\n    require(orderBook[chapter][index2].volume != 0);\n    // All edge cases work!\n    return true;\n  }\n\n  // verifies that match is valid\n  function isValidMatch(uint chapter, uint index1, uint index2)\n    private\n    view\n    returns(bool isValid)\n  {\n    // check edge cases\n    if (! checkMatchEdges(chapter, index1, index2)){\n      return false;\n    }\n    // which order is buying and selling ETH?\n    // buy-sell copy1\n    uint buyIndex;\n    uint sellIndex;\n    if (orderBook[chapter][index1].buyETH){\n      buyIndex = index1;\n      sellIndex = index2;\n    }\n    else{\n      buyIndex = index2;\n      sellIndex = index1;\n    }\n    // shorthand for buy and sell orders\n    Order memory buyOrder = orderBook[chapter][buyIndex];\n    Order memory sellOrder = orderBook[chapter][sellIndex];\n\n    // Non-contradictory limits\n    if (buyOrder.limit < sellOrder.limit){\n      return false;\n    }\n\n    // Meet in middle rate\n    // mimRate copy2\n    uint mimRate = (buyOrder.limit + sellOrder.limit) / 2;\n\n    // Volumes comparable\n    // TODO: DEBUGGING: verify that these are the correct equations\n    // Probably have to multiply left side by 10^18\n    if (buyOrder.volume > sellOrder.volume * mimRate){\n      if (buyOrder.volume * params.margin[0] > sellOrder.volume * params.margin[1] * mimRate){\n        return false;\n      }\n    }\n    if (sellOrder.volume * mimRate > buyOrder.volume ){\n      if (sellOrder.volume * params.margin[0] * mimRate > buyOrder.volume * params.margin[1]){\n        return false;\n      }\n    }\n    return true;\n  }\n\n  // Clears closed trade, reenters into order book if incomplete\n  function clearTrade(uint chapter, uint index1, uint index2, uint[2] volumes)\n    private\n    returns(bool passed)\n  {\n    if (orderBook[chapter][index1].volume == volumes[0]){\n      delete orderBook[chapter][index1].volume;\n      numsCleared[chapter] += 1;\n    }\n    else{\n      orderBook[chapter][index1].volume = (orderBook[chapter][index1].volume -\n                                                volumes[0]);\n    }\n    if (orderBook[chapter][index2].volume == volumes[1]){\n      delete orderBook[chapter][index2].volume;\n      numsCleared[chapter] += 1;\n    }\n    else{\n      orderBook[chapter][index2].volume = (orderBook[chapter][index2].volume -\n                                                volumes[1]);\n    }\n    return true;\n  }\n\n  // Adds trade to log, for traders to note\n  // http://solidity.readthedocs.io/en/latest/contracts.html?highlight=events#events\n  function alertTraders(uint chapter, uint index1, uint index2, uint[2] volumes)\n    private\n    returns(bool passed)\n  {\n    uint ethVol;\n    uint otherVol;\n    if (orderBook[chapter][index1].buyETH){\n      ethVol = volumes[0];\n      otherVol = volumes[1];\n    }\n    else{\n      ethVol = volumes[0];\n      otherVol = volumes[1];\n    }\n    TradeInfo(\n      addressBook[chapter][index1].ethAddress, //ethAddress1,\n      addressBook[chapter][index2].ethAddress, //ethAddress2,\n      addressBook[chapter][index1].firstAddress, //firstAddress1,\n      addressBook[chapter][index2].firstAddress, //firstAddress2,\n      addressBook[chapter][index1].otherAddress, //otherAddress1,\n      addressBook[chapter][index2].otherAddress, // otherAddress2,\n      ethVol,\n      otherVol\n      );\n    return true;\n  }\n\n  // Calculates exchange volumes for trade using limits (meet in middle)\n  // Ether volume is always first\n  //TODO: CHANGE FOR NEW MODEL\n  function getVolumes(uint chapter, uint index1, uint index2)\n    private\n    view\n    returns(uint[2] volumes)\n  {\n    // which order is buying and selling ETH?\n    // buy-sell copy1\n    // a little different from the other version\n    uint buyIndex;\n    uint sellIndex;\n    bool index1ETH;\n    if (orderBook[chapter][index1].buyETH){\n      buyIndex = index1;\n      sellIndex = index2;\n      index1ETH = false;\n    }\n    else{\n      buyIndex = index2;\n      sellIndex = index1;\n      index1ETH = true;\n    }\n    // shorthand for buy and sell orders\n    Order storage buyOrder = orderBook[chapter][buyIndex];\n    Order storage sellOrder = orderBook[chapter][sellIndex];\n    // TODO: FINISH FUNCTION\n    // Meet in middle rate\n    // mimRate copy2\n    uint mimRate = (buyOrder.limit + sellOrder.limit) / 2;\n    if ((sellOrder.volume * mimRate) <= buyOrder.volume){\n      volumes[0] = sellOrder.volume;\n      volumes[1] = sellOrder.volume * mimRate;\n    }\n    else{\n      volumes[0] = buyOrder.volume * mimRate;\n      volumes[1] = buyOrder.volume;\n    }\n    return volumes;\n  }\n\n  // TODO: Implement\n  // Distributes dividends when balance is of sufficient size\n  function distDividends()\n    private\n    returns(bool passes)\n  {\n    exBalances.closedBalance = 0;\n    return true;\n  }\n\n  // Move balance from open to closed\n  // Eliminate minerPayment from either balance\n  function clearBalance(uint minerPayment, uint[2] volumes)\n    private\n    returns(bool passed)\n  {\n    exBalances.openBalance = (exBalances.openBalance -\n                                  (params.closureFeePerUnit * volumes[0]));\n    exBalances.closedBalance = (exBalances.closedBalance -\n                                  minerPayment +\n                                  (params.closureFeePerUnit * volumes[0]));\n    if (exBalances.closedBalance >= params.distBalance){\n      distDividends();\n    }\n    return true;\n  }\n\n  // Clean chapter (called when size reaches size to clean)\n  function cleanChapter(uint chapter)\n    private\n    returns(bool cleaned)\n  {\n    // Clean chapter only if size is appropriate\n    if (numsCleared[chapter] < params.cleanSize){\n      return false;\n    }\n    // For all orders\n    // If it's a cleared order:\n    // Replace it with the next one, and clear the next one\n    for (uint i = 0; i < orderBook[chapter].length; i++){\n      if (orderBook[chapter][i].volume == 0){\n        if (i < orderBook[chapter].length - 1){\n          orderBook[chapter][i] = orderBook[chapter][i+1];\n          delete orderBook[chapter][i+1];\n        }\n      }\n    }\n    orderBook[chapter].length = orderBook[chapter].length - numsCleared[chapter];\n    numsCleared[chapter] = 0;\n    return true;\n  }\n\n  // Checks if POW (nonce) is valid\n  // Performs nonce verification (keccak256)\n  // Helper for giveMatch\n  function isValidPOW(address msgSender, uint chapter, uint index1,\n                  uint index2, bytes32 nonce, uint hashVal)\n    private\n    pure\n    returns(bool isValid)\n  {\n    if (nonce != keccak256(msgSender,\n                          (chapter + 110) % 1000,\n                          (index1 + 110) % 1000,\n                          (index2 + 110) % 1000,\n                          (hashVal + 110) % 1000)){\n      return false;\n    }\n    return true;\n  }\n\n  // Miners suggest matches with this function\n  // Wrapper for isValidMatch and isValidPOW, performs other required functions\n  function giveMatch(uint chapter, uint index1, uint index2,\n                  bytes32 nonce, uint hashVal)\n    public\n    payable\n    returns(bool isValid)\n  {\n    // Validate that nonce is equivalent\n    // modulo so that cost is constant\n    // + 110 so that it's always 3 digits\n    // storing all values is impractical\n    // hashVal adds security if trade volume is small\n    // Helper for giveMatch\n    if (! isValidMatch(chapter, index1, index2) ||\n        ! isValidPOW(msg.sender, chapter, index1, index2, nonce, hashVal)){\n      return false;\n    }\n    uint[2] memory volumes = getVolumes(chapter, index1, index2);\n    // calculate the miner's payment\n    uint minerPayment = ((params.minerShare[0] * params.closureFeePerUnit * volumes[0]) /\n                          params.minerShare[1]);\n    msg.sender.transfer(minerPayment);\n    clearBalance(minerPayment, volumes);\n    alertTraders(chapter, index1, index2, volumes);\n    clearTrade(chapter, index1, index2, volumes);\n    cleanChapter(chapter);\n    return true;\n  }\n\n  // Allows traders to place orders\n  function placeOrder(bool buyETH, uint volume, uint limit,\n                      address ethAddress, string firstAddress,\n                      string otherAddress, uint chapter)\n    public\n    payable\n    returns(bool accepted)\n  {\n    require(volume > 0);\n    require(limit > 0);\n    // TODO: NEXT VERSION: Charge according to transaction vol for generic currencies\n    // Use market rate\n    if (buyETH){\n      require(limit * msg.value >= volume * params.closureFeePerUnit);\n    }\n    else{\n      require(msg.value >= volume * params.closureFeePerUnit);\n    }\n    orderBook[chapter].push(Order(buyETH, volume, limit));\n    addressBook[chapter].push(AddressInfo(ethAddress, firstAddress, otherAddress));\n    return true;\n  }\n\n  // Allows traders to cancel orders\n  function cancelOrder(uint chapter, uint index)\n    public\n    returns(bool accepted)\n  {\n    require(index < orderBook[chapter].length);\n    // Can't cancel other people's orders\n    require(msg.sender == addressBook[chapter][index].ethAddress);\n    // uint volume = orderBook[chapter][index].volume;\n    uint limit = orderBook[chapter][index].limit;\n    uint volume = orderBook[chapter][index].volume;\n    // TODO: NEXT VERSION: Refund according to transaction vol for generic currencies\n    // Use market rate\n    // Refund according to ether transaction volume\n    if (orderBook[chapter][index].buyETH){\n      msg.sender.transfer(volume * (params.closureFeePerUnit - params.cancelFeePerUnit) / limit);\n    }\n    else{\n      msg.sender.transfer(volume * (params.closureFeePerUnit - params.cancelFeePerUnit) / limit);\n    }\n    delete orderBook[chapter][index];\n    delete addressBook[chapter][index];\n    numsCleared[chapter] += 1;\n    cleanChapter(chapter);\n    return true;\n  }\n}\n",
  "sourcePath": "/Users/Karim/Desktop/Valex/contracts/Exchange.sol",
  "compiler": {
    "name": "solc",
    "version": "0.4.18+commit.9cf6e910.Emscripten.clang"
  },
  "schemaVersion": "1.0.1",
  "updatedAt": "2018-01-16T04:44:12.895Z"
}