{
  "contractName": "Exchange",
  "abi": [
    {
      "constant": true,
      "inputs": [
        {
          "name": "",
          "type": "uint256"
        },
        {
          "name": "",
          "type": "uint256"
        }
      ],
      "name": "orderBook",
      "outputs": [
        {
          "name": "buyETH",
          "type": "bool"
        },
        {
          "name": "volume",
          "type": "uint256"
        },
        {
          "name": "minVolume",
          "type": "uint256"
        },
        {
          "name": "limit",
          "type": "uint256"
        }
      ],
      "payable": false,
      "stateMutability": "view",
      "type": "function"
    },
    {
      "constant": false,
      "inputs": [
        {
          "name": "buyETH",
          "type": "bool"
        },
        {
          "name": "volume",
          "type": "uint256"
        },
        {
          "name": "minVolume",
          "type": "uint256"
        },
        {
          "name": "limit",
          "type": "uint256"
        },
        {
          "name": "ethAddress",
          "type": "address"
        },
        {
          "name": "firstAddress",
          "type": "string"
        },
        {
          "name": "otherAddress",
          "type": "string"
        },
        {
          "name": "chapter",
          "type": "uint256"
        }
      ],
      "name": "placeOrder",
      "outputs": [
        {
          "name": "accepted",
          "type": "bool"
        }
      ],
      "payable": true,
      "stateMutability": "payable",
      "type": "function"
    },
    {
      "constant": true,
      "inputs": [],
      "name": "exBalances",
      "outputs": [
        {
          "name": "openBalance",
          "type": "uint256"
        },
        {
          "name": "closedBalance",
          "type": "uint256"
        }
      ],
      "payable": false,
      "stateMutability": "view",
      "type": "function"
    },
    {
      "constant": false,
      "inputs": [
        {
          "name": "chapter",
          "type": "uint256"
        },
        {
          "name": "index",
          "type": "uint256"
        }
      ],
      "name": "cancelOrder",
      "outputs": [
        {
          "name": "accepted",
          "type": "bool"
        }
      ],
      "payable": false,
      "stateMutability": "nonpayable",
      "type": "function"
    },
    {
      "constant": true,
      "inputs": [],
      "name": "params",
      "outputs": [
        {
          "name": "closureFeePerUnit",
          "type": "uint256"
        },
        {
          "name": "cancelFeePerUnit",
          "type": "uint256"
        },
        {
          "name": "cleanSize",
          "type": "uint256"
        },
        {
          "name": "minerShare",
          "type": "uint256"
        },
        {
          "name": "distBalance",
          "type": "uint256"
        },
        {
          "name": "difficulty",
          "type": "bytes32"
        }
      ],
      "payable": false,
      "stateMutability": "view",
      "type": "function"
    },
    {
      "constant": false,
      "inputs": [
        {
          "name": "depositAddress",
          "type": "address"
        },
        {
          "name": "chapter",
          "type": "uint256"
        },
        {
          "name": "index1",
          "type": "uint256"
        },
        {
          "name": "index2",
          "type": "uint256"
        },
        {
          "name": "nonce",
          "type": "uint256"
        }
      ],
      "name": "giveMatch",
      "outputs": [
        {
          "name": "isValid",
          "type": "bool"
        }
      ],
      "payable": true,
      "stateMutability": "payable",
      "type": "function"
    },
    {
      "constant": true,
      "inputs": [
        {
          "name": "",
          "type": "uint256"
        },
        {
          "name": "",
          "type": "uint256"
        }
      ],
      "name": "addressBook",
      "outputs": [
        {
          "name": "ethAddress",
          "type": "address"
        },
        {
          "name": "firstAddress",
          "type": "string"
        },
        {
          "name": "otherAddress",
          "type": "string"
        }
      ],
      "payable": false,
      "stateMutability": "view",
      "type": "function"
    },
    {
      "inputs": [
        {
          "name": "closureFeePerUnit",
          "type": "uint256"
        },
        {
          "name": "cancelFeePerUnit",
          "type": "uint256"
        },
        {
          "name": "cleanSize",
          "type": "uint256"
        },
        {
          "name": "minerShare",
          "type": "uint256"
        },
        {
          "name": "distBalance",
          "type": "uint256"
        },
        {
          "name": "difficulty",
          "type": "bytes32"
        }
      ],
      "payable": false,
      "stateMutability": "nonpayable",
      "type": "constructor"
    },
    {
      "anonymous": false,
      "inputs": [
        {
          "indexed": false,
          "name": "ethAddress1",
          "type": "address"
        },
        {
          "indexed": false,
          "name": "ethAddress2",
          "type": "address"
        },
        {
          "indexed": false,
          "name": "firstAddress1",
          "type": "string"
        },
        {
          "indexed": false,
          "name": "firstAddress2",
          "type": "string"
        },
        {
          "indexed": false,
          "name": "otherAddress1",
          "type": "string"
        },
        {
          "indexed": false,
          "name": "otherAddress2",
          "type": "string"
        },
        {
          "indexed": false,
          "name": "mimRate",
          "type": "uint256"
        },
        {
          "indexed": false,
          "name": "ethVol",
          "type": "uint256"
        }
      ],
      "name": "TradeInfo",
      "type": "event"
    }
  ],
  "bytecode": "0x606060405234156200001057600080fd5b60405160c08062002453833981016040528080519060200190919080519060200190919080519060200190919080519060200190919080519060200190919080519060200190919050506200007e868686868686620000d46401000000000262001ce4176401000000009004565b6200009c6200011b6401000000000262001d2b176401000000009004565b50600a8054806001018281620000b39190620002e0565b9160005260206000209001600080909190915055505050505050506200052f565b856000800181905550846000600101819055508360006002018190555082600060030181905550816000600401819055508060006005018160001916905550505050505050565b60006008600080815260200190815260200160002080548060010182816200014491906200030f565b9160005260206000209060040201600060806040519081016040528060001515815260200160008152602001600081526020016000815250909190915060008201518160000160006101000a81548160ff021916908315150217905550602082015181600101556040820151816002015560608201518160030155505050600960008081526020019081526020016000208054806001018281620001e9919062000344565b91600052602060002090600302016000606060405190810160405280600073ffffffffffffffffffffffffffffffffffffffff168152602001602060405190810160405280600081525081526020016020604051908101604052806000815250815250909190915060008201518160000160006101000a81548173ffffffffffffffffffffffffffffffffffffffff021916908373ffffffffffffffffffffffffffffffffffffffff1602179055506020820151816001019080519060200190620002b692919062000379565b506040820151816002019080519060200190620002d592919062000379565b505050506001905090565b8154818355818115116200030a5781836000526020600020918201910162000309919062000400565b5b505050565b8154818355818115116200033f576004028160040283600052602060002091820191016200033e919062000428565b5b505050565b815481835581811511620003745760030281600302836000526020600020918201910162000373919062000476565b5b505050565b828054600181600116156101000203166002900490600052602060002090601f016020900481019282601f10620003bc57805160ff1916838001178555620003ed565b82800160010185558215620003ed579182015b82811115620003ec578251825591602001919060010190620003cf565b5b509050620003fc919062000400565b5090565b6200042591905b808211156200042157600081600090555060010162000407565b5090565b90565b6200047391905b808211156200046f57600080820160006101000a81549060ff0219169055600182016000905560028201600090556003820160009055506004016200042f565b5090565b90565b620004e091905b80821115620004dc57600080820160006101000a81549073ffffffffffffffffffffffffffffffffffffffff0219169055600182016000620004c09190620004e3565b600282016000620004d29190620004e3565b506003016200047d565b5090565b90565b50805460018160011615610100020316600290046000825580601f106200050b57506200052c565b601f0160209004906000526020600020908101906200052b919062000400565b5b50565b611f14806200053f6000396000f300606060405260043610610083576000357c0100000000000000000000000000000000000000000000000000000000900463ffffffff16806314974f46146100885780634aed275c146100e1578063737f02af146101dc578063b6ed06321461020c578063cff0ab9614610250578063d2426ab9146102a4578063da92b7c11461030e575b600080fd5b341561009357600080fd5b6100b2600480803590602001909190803590602001909190505061048c565b604051808515151515815260200184815260200183815260200182815260200194505050505060405180910390f35b6101c26004808035151590602001909190803590602001909190803590602001909190803590602001909190803573ffffffffffffffffffffffffffffffffffffffff1690602001909190803590602001908201803590602001908080601f0160208091040260200160405190810160405280939291908181526020018383808284378201915050505050509190803590602001908201803590602001908080601f016020809104026020016040519081016040528093929190818152602001838380828437820191505050505050919080359060200190919050506104e5565b604051808215151515815260200191505060405180910390f35b34156101e757600080fd5b6101ef61071e565b604051808381526020018281526020019250505060405180910390f35b341561021757600080fd5b6102366004808035906020019091908035906020019091905050610730565b604051808215151515815260200191505060405180910390f35b341561025b57600080fd5b610263610a5a565b604051808781526020018681526020018581526020018481526020018381526020018260001916600019168152602001965050505050505060405180910390f35b6102f4600480803573ffffffffffffffffffffffffffffffffffffffff16906020019091908035906020019091908035906020019091908035906020019091908035906020019091905050610a84565b604051808215151515815260200191505060405180910390f35b341561031957600080fd5b6103386004808035906020019091908035906020019091905050610b69565b604051808473ffffffffffffffffffffffffffffffffffffffff1673ffffffffffffffffffffffffffffffffffffffff16815260200180602001806020018381038352858181546001816001161561010002031660029004815260200191508054600181600116156101000203166002900480156103f75780601f106103cc576101008083540402835291602001916103f7565b820191906000526020600020905b8154815290600101906020018083116103da57829003601f168201915b505083810382528481815460018160011615610100020316600290048152602001915080546001816001161561010002031660029004801561047a5780601f1061044f5761010080835404028352916020019161047a565b820191906000526020600020905b81548152906001019060200180831161045d57829003601f168201915b50509550505050505060405180910390f35b6008602052816000526040600020818154811015156104a757fe5b9060005260206000209060040201600091509150508060000160009054906101000a900460ff16908060010154908060020154908060030154905084565b600080881115156104f557600080fd5b60008711151561050457600080fd5b86881015151561051357600080fd5b60008611151561052257600080fd5b881561054457600080015488023487021015151561053f57600080fd5b61055a565b60008001548802341015151561055957600080fd5b5b6000600860008481526020019081526020016000208054905011151561057f57600080fd5b6008600083815260200190815260200160002080548060010182816105a49190611a85565b916000526020600020906004020160006080604051908101604052808d151581526020018c81526020018b81526020018a815250909190915060008201518160000160006101000a81548160ff0219169083151502179055506020820151816001015560408201518160020155606082015181600301555050506009600083815260200190815260200160002080548060010182816106439190611ab7565b916000526020600020906003020160006060604051908101604052808973ffffffffffffffffffffffffffffffffffffffff16815260200188815260200187815250909190915060008201518160000160006101000a81548173ffffffffffffffffffffffffffffffffffffffff021916908373ffffffffffffffffffffffffffffffffffffffff16021790555060208201518160010190805190602001906106ed929190611ae9565b50604082015181600201908051906020019061070a929190611ae9565b505050506001905098975050505050505050565b60068060000154908060010154905082565b600080600060086000868152602001908152602001600020805490508410151561075957600080fd5b600960008681526020019081526020016000208481548110151561077957fe5b906000526020600020906003020160000160009054906101000a900473ffffffffffffffffffffffffffffffffffffffff1673ffffffffffffffffffffffffffffffffffffffff163373ffffffffffffffffffffffffffffffffffffffff161415156107e457600080fd5b600860008681526020019081526020016000208481548110151561080457fe5b9060005260206000209060040201600301549150600860008681526020019081526020016000208481548110151561083857fe5b9060005260206000209060040201600101549050600860008681526020019081526020016000208481548110151561086c57fe5b906000526020600020906004020160000160009054906101000a900460ff16156108ed573373ffffffffffffffffffffffffffffffffffffffff166108fc8360006001015460008001540384028115156108c257fe5b049081150290604051600060405180830381858888f1935050505015156108e857600080fd5b610946565b3373ffffffffffffffffffffffffffffffffffffffff166108fc83600060010154600080015403840281151561091f57fe5b049081150290604051600060405180830381858888f19350505050151561094557600080fd5b5b600860008681526020019081526020016000208481548110151561096657fe5b9060005260206000209060040201600080820160006101000a81549060ff0219169055600182016000905560028201600090556003820160009055505060096000868152602001908152602001600020848154811015156109c357fe5b9060005260206000209060030201600080820160006101000a81549073ffffffffffffffffffffffffffffffffffffffff0219169055600182016000610a099190611b69565b600282016000610a199190611b69565b50506001600a86815481101515610a2c57fe5b906000526020600020900160008282540192505081905550610a4d85610bcd565b5060019250505092915050565b60008060000154908060010154908060020154908060030154908060040154908060050154905086565b600080600080610a978989898989610e17565b1515610aa65760009350610b5d565b610ab1888888610eb5565b925092506000821415610ac75760009350610b5d565b670de0b6b3a76400008260008001546000600301540202811515610ae757fe5b0490508873ffffffffffffffffffffffffffffffffffffffff166108fc829081150290604051600060405180830381858888f193505050501515610b2a57600080fd5b610b348183611126565b610b418888888686611176565b610b4e88888886866115ae565b610b5788610bcd565b50600193505b50505095945050505050565b600960205281600052604060002081815481101515610b8457fe5b9060005260206000209060030201600091509150508060000160009054906101000a900473ffffffffffffffffffffffffffffffffffffffff1690806001019080600201905083565b600080600060020154600a84815481101515610be557fe5b9060005260206000209001541015610c005760009150610e11565b600190505b6008600084815260200190815260200160002080549050811015610d9a5760006008600085815260200190815260200160002082815481101515610c4557fe5b9060005260206000209060040201600101541415610d8d576001600860008581526020019081526020016000208054905003811015610d8c576008600084815260200190815260200160002060018201815481101515610ca157fe5b90600052602060002090600402016008600085815260200190815260200160002082815481101515610ccf57fe5b90600052602060002090600402016000820160009054906101000a900460ff168160000160006101000a81548160ff0219169083151502179055506001820154816001015560028201548160020155600382015481600301559050506008600084815260200190815260200160002060018201815481101515610d4e57fe5b9060005260206000209060040201600080820160006101000a81549060ff021916905560018201600090556002820160009055600382016000905550505b5b8080600101915050610c05565b600a83815481101515610da957fe5b9060005260206000209001546008600085815260200190815260200160002080549050036008600085815260200190815260200160002081610deb9190611bb1565b506000600a84815481101515610dfd57fe5b906000526020600020900181905550600191505b50919050565b60008585858585604051808673ffffffffffffffffffffffffffffffffffffffff1673ffffffffffffffffffffffffffffffffffffffff166c0100000000000000000000000002815260140185815260200184815260200183815260200182815260200195505050505050604051809103902060001916600060050154600019161115610ea75760009050610eac565b600190505b95945050505050565b600080600080610ec3611be3565b610ecb611be3565b610ed6898989611912565b1515610eee576000808191508090509550955061111a565b600860008a815260200190815260200160002088815481101515610f0e57fe5b906000526020600020906004020160000160009054906101000a900460ff1615610f3d57879350869250610f44565b8693508792505b600860008a815260200190815260200160002084815481101515610f6457fe5b9060005260206000209060040201608060405190810160405290816000820160009054906101000a900460ff1615151515815260200160018201548152602001600282015481526020016003820154815250509150600860008a815260200190815260200160002083815481101515610fd957fe5b9060005260206000209060040201608060405190810160405290816000820160009054906101000a900460ff1615151515815260200160018201548152602001600282015481526020016003820154815250509050806060015182606001511015611050576000808191508090509550955061111a565b6002816060015183606001510181151561106657fe5b04955085816020015102670de0b6b3a764000083602001510211156110c45785816020015102670de0b6b3a764000083604001510211156110b3576000808191508090509550955061111a565b85868260200151029550955061111a565b670de0b6b3a764000082602001510286826020015102111561110f57670de0b6b3a764000082602001510286826040015102111561110e576000808191508090509550955061111a565b5b858260200151955095505b50505050935093915050565b80600080015402600660000154036006600001819055508060008001540282600660010154030160066001018190555060006004015460066001015410151561117257611171611a78565b5b5050565b7f17fad608e647bf180e9f2d2542498a2ec81fb1cb077d60802b67b21d64adc9b860096000878152602001908152602001600020858154811015156111b757fe5b906000526020600020906003020160000160009054906101000a900473ffffffffffffffffffffffffffffffffffffffff16600960008881526020019081526020016000208581548110151561120957fe5b906000526020600020906003020160000160009054906101000a900473ffffffffffffffffffffffffffffffffffffffff16600960008981526020019081526020016000208781548110151561125b57fe5b9060005260206000209060030201600101600960008a81526020019081526020016000208781548110151561128c57fe5b9060005260206000209060030201600101600960008b8152602001908152602001600020898154811015156112bd57fe5b9060005260206000209060030201600201600960008c8152602001908152602001600020898154811015156112ee57fe5b90600052602060002090600302016002018888604051808973ffffffffffffffffffffffffffffffffffffffff1673ffffffffffffffffffffffffffffffffffffffff1681526020018873ffffffffffffffffffffffffffffffffffffffff1673ffffffffffffffffffffffffffffffffffffffff1681526020018060200180602001806020018060200187815260200186815260200185810385528b8181546001816001161561010002031660029004815260200191508054600181600116156101000203166002900480156114065780601f106113db57610100808354040283529160200191611406565b820191906000526020600020905b8154815290600101906020018083116113e957829003601f168201915b505085810384528a8181546001816001161561010002031660029004815260200191508054600181600116156101000203166002900480156114895780601f1061145e57610100808354040283529160200191611489565b820191906000526020600020905b81548152906001019060200180831161146c57829003601f168201915b505085810383528981815460018160011615610100020316600290048152602001915080546001816001161561010002031660029004801561150c5780601f106114e15761010080835404028352916020019161150c565b820191906000526020600020905b8154815290600101906020018083116114ef57829003601f168201915b505085810382528881815460018160011615610100020316600290048152602001915080546001816001161561010002031660029004801561158f5780601f106115645761010080835404028352916020019161158f565b820191906000526020600020905b81548152906001019060200180831161157257829003601f168201915b50509c5050505050505050505050505060405180910390a15050505050565b60008060086000888152602001908152602001600020868154811015156115d157fe5b906000526020600020906004020160000160009054906101000a900460ff161561160057859150849050611607565b8491508590505b82600860008981526020019081526020016000208381548110151561162857fe5b906000526020600020906004020160010154141561166a576001600a8881548110151561165157fe5b9060005260206000209001600082825401925050819055505b82600860008981526020019081526020016000208381548110151561168b57fe5b90600052602060002090600402016002015410156116df57600060086000898152602001908152602001600020838154811015156116c557fe5b90600052602060002090600402016002018190555061171f565b82600860008981526020019081526020016000208381548110151561170057fe5b9060005260206000209060040201600201600082825403925050819055505b82600860008981526020019081526020016000208381548110151561174057fe5b906000526020600020906004020160010160008282540392505081905550670de0b6b3a764000084840281151561177357fe5b04600860008981526020019081526020016000208281548110151561179457fe5b90600052602060002090600402016001015414156117d6576001600a888154811015156117bd57fe5b9060005260206000209001600082825401925050819055505b670de0b6b3a76400008484028115156117eb57fe5b04600860008981526020019081526020016000208281548110151561180c57fe5b9060005260206000209060040201600201541015611860576000600860008981526020019081526020016000208281548110151561184657fe5b9060005260206000209060040201600201819055506118b5565b670de0b6b3a764000084840281151561187557fe5b04600860008981526020019081526020016000208281548110151561189657fe5b9060005260206000209060040201600201600082825403925050819055505b670de0b6b3a76400008484028115156118ca57fe5b0460086000898152602001908152602001600020828154811015156118eb57fe5b90600052602060002090600402016001016000828254039250508190555050505050505050565b600060086000858152602001908152602001600020805490508310151561193857600080fd5b60086000858152602001908152602001600020805490508210151561195c57600080fd5b600860008581526020019081526020016000208281548110151561197c57fe5b906000526020600020906004020160000160009054906101000a900460ff16151560086000868152602001908152602001600020848154811015156119bd57fe5b906000526020600020906004020160000160009054906101000a900460ff161515141515156119eb57600080fd5b60006008600086815260200190815260200160002084815481101515611a0d57fe5b90600052602060002090600402016001015414151515611a2c57600080fd5b60006008600086815260200190815260200160002083815481101515611a4e57fe5b90600052602060002090600402016001015414151515611a6d57600080fd5b600190509392505050565b6000600660010181905550565b815481835581811511611ab257600402816004028360005260206000209182019101611ab19190611c0e565b5b505050565b815481835581811511611ae457600302816003028360005260206000209182019101611ae39190611c59565b5b505050565b828054600181600116156101000203166002900490600052602060002090601f016020900481019282601f10611b2a57805160ff1916838001178555611b58565b82800160010185558215611b58579182015b82811115611b57578251825591602001919060010190611b3c565b5b509050611b659190611cbf565b5090565b50805460018160011615610100020316600290046000825580601f10611b8f5750611bae565b601f016020900490600052602060002090810190611bad9190611cbf565b5b50565b815481835581811511611bde57600402816004028360005260206000209182019101611bdd9190611c0e565b5b505050565b6080604051908101604052806000151581526020016000815260200160008152602001600081525090565b611c5691905b80821115611c5257600080820160006101000a81549060ff021916905560018201600090556002820160009055600382016000905550600401611c14565b5090565b90565b611cbc91905b80821115611cb857600080820160006101000a81549073ffffffffffffffffffffffffffffffffffffffff0219169055600182016000611c9f9190611b69565b600282016000611caf9190611b69565b50600301611c5f565b5090565b90565b611ce191905b80821115611cdd576000816000905550600101611cc5565b5090565b90565b856000800181905550846000600101819055508360006002018190555082600060030181905550816000600401819055508060006005018160001916905550505050505050565b6000600860008081526020019081526020016000208054806001018281611d529190611a85565b9160005260206000209060040201600060806040519081016040528060001515815260200160008152602001600081526020016000815250909190915060008201518160000160006101000a81548160ff021916908315150217905550602082015181600101556040820151816002015560608201518160030155505050600960008081526020019081526020016000208054806001018281611df59190611ab7565b91600052602060002090600302016000606060405190810160405280600073ffffffffffffffffffffffffffffffffffffffff168152602001602060405190810160405280600081525081526020016020604051908101604052806000815250815250909190915060008201518160000160006101000a81548173ffffffffffffffffffffffffffffffffffffffff021916908373ffffffffffffffffffffffffffffffffffffffff1602179055506020820151816001019080519060200190611ec0929190611ae9565b506040820151816002019080519060200190611edd929190611ae9565b5050505060019050905600a165627a7a72305820e483c6cc3072f189d93831a0b122c8e79faaeb150ae2d719806efc19ad6f30d60029",
  "source": "pragma solidity ^0.4.18;\n\nimport 'zeppelin-solidity/contracts/math/SafeMath.sol';\nimport './ExchangeStructs.sol';\n/// @title Exchange\n/// @author Karim Helmy\n\n// Primary contract: Describes functions of exchange\ncontract Exchange is ExchangeStructs {\n  // TODO: Make all operations safe\n  using SafeMath for uint;\n\n  Parameters public params;\n  Balances public exBalances;\n\n  // separate chapters for different currency pairs\n  // that's why they're 2D mappings\n  mapping (uint => Order[]) public orderBook;\n  // Order[][] public orderBook;\n  mapping (uint => AddressInfo[]) public addressBook;\n  // AddressInfo[][] private addressBook;\n  // Numbers of orders that have been closed are kept here\n  uint[] numsCleared;\n\n  // Constructor for contract\n  function Exchange(uint closureFeePerUnit, uint cancelFeePerUnit,\n                    uint cleanSize, uint minerShare, uint distBalance,\n                    bytes32 difficulty)\n    public\n  {\n    // Initialize parameters books\n    setParams(closureFeePerUnit, cancelFeePerUnit,\n              cleanSize, minerShare, distBalance, difficulty);\n    // Initialize order books\n    setBooks();\n    // Initialize numsCleared[0] as zero\n    numsCleared.push(0);\n    return;\n  }\n\n  // Initializes orderBook and addressBook\n  // Only used in constructor\n  function setBooks()\n    private\n    returns(bool passes)\n  {\n    orderBook[0].push(Order(false,0,0,0));\n    addressBook[0].push(AddressInfo(address(0),\"\",\"\"));\n    return true;\n  }\n\n  // Init the params struct, which contains the bulk of exchange's parameters\n  // Only used in constructor\n  function setParams(uint closureFeePerUnit, uint cancelFeePerUnit,\n                    uint cleanSize, uint minerShare, uint distBalance,\n                    bytes32 difficulty)\n    internal\n  {\n    params.closureFeePerUnit = closureFeePerUnit;\n    params.cancelFeePerUnit = cancelFeePerUnit;\n    params.cleanSize = cleanSize;\n    params.minerShare = minerShare;\n    params.distBalance = distBalance;\n    params.difficulty = difficulty;\n  }\n\n  // Checks edge cases for match verification\n  function checkMatchEdges(uint chapter, uint index1, uint index2)\n    private\n    view\n    returns(bool passes)\n  {\n    // valid indices\n    require(index1 < orderBook[chapter].length);\n    require(index2 < orderBook[chapter].length);\n    //One buy order and one sell order\n    require(orderBook[chapter][index1].buyETH != orderBook[chapter][index2].buyETH);\n    //Non-empty order\n    require(orderBook[chapter][index1].volume != 0);\n    require(orderBook[chapter][index2].volume != 0);\n    // All edge cases work!\n    return true;\n  }\n\n  // verifies that match is valid\n  function calcRateAndVol(uint chapter, uint index1, uint index2)\n    private\n    view\n    returns (uint mimRate, uint ethVol)\n  {\n    // check edge cases\n    if (! checkMatchEdges(chapter, index1, index2)) {\n      return (0,0);\n    }\n    // which order is buying and selling ETH?\n    // buy-sell copy1\n    uint buyIndex;\n    uint sellIndex;\n    if (orderBook[chapter][index1].buyETH) {\n      buyIndex = index1;\n      sellIndex = index2;\n    } else{\n      buyIndex = index2;\n      sellIndex = index1;\n    }\n    // shorthand for buy and sell orders\n    Order memory buyOrder = orderBook[chapter][buyIndex];\n    Order memory sellOrder = orderBook[chapter][sellIndex];\n\n    // Non-contradictory limits\n    if (buyOrder.limit < sellOrder.limit) {\n      return (0, 0);\n    }\n    // Meet in middle rate\n    // mimRate\n    mimRate = (buyOrder.limit + sellOrder.limit) / 2;\n    // Volumes comparable\n    if (buyOrder.volume * PRECISION > sellOrder.volume * mimRate) {\n      if (buyOrder.minVolume * PRECISION > sellOrder.volume * mimRate) {\n        return (0, 0);\n      }\n      return (mimRate, sellOrder.volume * mimRate);\n    }\n    if (sellOrder.volume * mimRate > buyOrder.volume * PRECISION ) {\n      if (sellOrder.minVolume * mimRate > buyOrder.volume * PRECISION) {\n        return (0, 0);\n      }\n    }\n    return (mimRate, buyOrder.volume);\n  }\n\n  // Clears closed trade, reenters into order book if incomplete\n  function clearTrade(uint chapter, uint index1, uint index2,\n                      uint mimRate, uint ethVol)\n    private\n  {\n    // which order is buying and selling ETH?\n    // buy-sell copy1\n    uint buyIndex;\n    uint sellIndex;\n    if (orderBook[chapter][index1].buyETH) {\n      buyIndex = index1;\n      sellIndex = index2;\n    } else{\n      buyIndex = index2;\n      sellIndex = index1;\n    }\n    if (orderBook[chapter][buyIndex].volume == ethVol) {\n      numsCleared[chapter] += 1;\n    }\n    if (orderBook[chapter][buyIndex].minVolume < ethVol) {\n      orderBook[chapter][buyIndex].minVolume = 0;\n    } else{\n      orderBook[chapter][buyIndex].minVolume -= ethVol;\n    }\n    orderBook[chapter][buyIndex].volume -= ethVol;\n    if (orderBook[chapter][sellIndex].volume == (ethVol * mimRate / PRECISION)) {\n      numsCleared[chapter] += 1;\n    }\n    if (orderBook[chapter][sellIndex].minVolume < (ethVol * mimRate / PRECISION)) {\n      orderBook[chapter][sellIndex].minVolume = 0;\n    } else{\n      orderBook[chapter][sellIndex].minVolume -= (ethVol * mimRate / PRECISION);\n    }\n    orderBook[chapter][sellIndex].volume -= ethVol * mimRate / PRECISION;\n  }\n\n  // Adds trade to log, for traders to note\n  // http://solidity.readthedocs.io/en/latest/contracts.html?highlight=events#events\n  function alertTraders(uint chapter, uint index1, uint index2, uint mimRate, uint ethVol)\n    private\n  {\n    TradeInfo(\n      addressBook[chapter][index1].ethAddress, //ethAddress1,\n      addressBook[chapter][index2].ethAddress, //ethAddress2,\n      addressBook[chapter][index1].firstAddress, //firstAddress1,\n      addressBook[chapter][index2].firstAddress, //firstAddress2,\n      addressBook[chapter][index1].otherAddress, //otherAddress1,\n      addressBook[chapter][index2].otherAddress, // otherAddress2,\n      mimRate,\n      ethVol\n      );\n  }\n\n  // Clears exBalances.closedBalance\n  // ValexToken ovverride distributes dividends when balance is of sufficient size\n  function distDividends()\n    internal\n  {\n    exBalances.closedBalance = 0;\n  }\n\n  // Move balance from open to closed\n  // Eliminate minerPayment from either balance\n  function clearBalance(uint minerPayment, uint ethVol)\n    private\n  {\n    exBalances.openBalance = (exBalances.openBalance -\n                                  (params.closureFeePerUnit * ethVol));\n    exBalances.closedBalance = (exBalances.closedBalance -\n                                  minerPayment +\n                                  (params.closureFeePerUnit * ethVol));\n    if (exBalances.closedBalance >= params.distBalance) {\n      distDividends();\n    }\n  }\n\n  // Clean chapter (called when size reaches size to clean)\n  function cleanChapter(uint chapter)\n    private\n    returns(bool cleaned)\n  {\n    // Clean chapter only if size is appropriate\n    if (numsCleared[chapter] < params.cleanSize) {\n      return false;\n    }\n    // For all orders\n    // If it's a cleared order:\n    // Replace it with the next one, and clear the next one\n    for (uint i = 1; i < orderBook[chapter].length; i++) {\n      if (orderBook[chapter][i].volume == 0) {\n        if (i < orderBook[chapter].length - 1) {\n          orderBook[chapter][i] = orderBook[chapter][i+1];\n          delete orderBook[chapter][i+1];\n        }\n      }\n    }\n    orderBook[chapter].length = orderBook[chapter].length - numsCleared[chapter];\n    numsCleared[chapter] = 0;\n    return true;\n  }\n\n  // Checks if POW (nonce) is valid\n  // Performs nonce verification (keccak256)\n  // Helper for giveMatch\n  function isValidPOW(address depositAddress, uint chapter, uint index1,\n                      uint index2, uint nonce)\n    private\n    view\n    returns(bool isValid)\n  {\n    if (params.difficulty > keccak256(depositAddress, chapter, index1, index2, nonce)) {\n      return false;\n    }\n    return true;\n  }\n\n  // Miners suggest matches with this function\n  // Wrapper for calcRateAndVol and isValidPOW, performs other required functions\n  function giveMatch(address depositAddress, uint chapter,\n                    uint index1, uint index2, uint nonce)\n    public\n    payable\n    returns(bool isValid)\n  {\n    // Validate that nonce is equivalent\n    // postImage adds entropy if trade volume is small\n    // Helper for giveMatch\n    if (! isValidPOW(depositAddress, chapter, index1, index2, nonce)) {\n      return false;\n    }\n    var (mimRate, ethVol) = calcRateAndVol(chapter, index1, index2);\n    if (ethVol == 0) {\n      return false;\n    }\n    // calculate the miner's payment\n    uint minerPayment = ((params.minerShare * params.closureFeePerUnit * ethVol) /\n                          PRECISION);\n    depositAddress.transfer(minerPayment);\n    clearBalance(minerPayment, ethVol);\n    alertTraders(chapter, index1, index2, mimRate, ethVol);\n    clearTrade(chapter, index1, index2, mimRate, ethVol);\n    cleanChapter(chapter);\n    return true;\n  }\n\n  // Allows traders to place orders\n  function placeOrder(bool buyETH, uint volume, uint minVolume, uint limit,\n                      address ethAddress, string firstAddress,\n                      string otherAddress, uint chapter)\n    public\n    payable\n    returns(bool accepted)\n  {\n    require(volume > 0);\n    require(minVolume > 0);\n    require(volume >= minVolume);\n    require(limit > 0);\n    // TODO: NEXT VERSION: Charge according to transaction vol for generic currencies\n    // Use market rate\n    if (buyETH) {\n      require(limit * msg.value >= volume * params.closureFeePerUnit);\n    } else{\n      require(msg.value >= volume * params.closureFeePerUnit);\n    }\n    require(orderBook[chapter].length > 0);\n    orderBook[chapter].push(Order(buyETH, volume, minVolume, limit));\n    addressBook[chapter].push(AddressInfo(ethAddress, firstAddress, otherAddress));\n    return true;\n  }\n\n  // Allows traders to cancel orders\n  function cancelOrder(uint chapter, uint index)\n    public\n    returns(bool accepted)\n  {\n    require(index < orderBook[chapter].length);\n    // Can't cancel other people's orders\n    require(msg.sender == addressBook[chapter][index].ethAddress);\n    // uint volume = orderBook[chapter][index].volume;\n    uint limit = orderBook[chapter][index].limit;\n    uint volume = orderBook[chapter][index].volume;\n    // TODO: NEXT VERSION: Refund according to transaction vol for generic currencies\n    // Use market rate\n    // Refund according to ether transaction volume\n    if (orderBook[chapter][index].buyETH) {\n      msg.sender.transfer(volume * (params.closureFeePerUnit - params.cancelFeePerUnit) / limit);\n    } else{\n      msg.sender.transfer(volume * (params.closureFeePerUnit - params.cancelFeePerUnit) / limit);\n    }\n    delete orderBook[chapter][index];\n    delete addressBook[chapter][index];\n    numsCleared[chapter] += 1;\n    cleanChapter(chapter);\n    return true;\n  }\n}\n",
  "sourcePath": "/Users/Karim/Desktop/Valex/contracts/Exchange.sol",
  "compiler": {
    "name": "solc",
    "version": "0.4.18+commit.9cf6e910.Emscripten.clang"
  },
  "schemaVersion": "1.0.1",
  "updatedAt": "2018-02-15T19:23:05.960Z"
}