{
  "contractName": "Exchange",
  "abi": [
    {
      "constant": true,
      "inputs": [
        {
          "name": "",
          "type": "uint256"
        },
        {
          "name": "",
          "type": "uint256"
        },
        {
          "name": "",
          "type": "uint256"
        }
      ],
      "name": "secondAddressBook",
      "outputs": [
        {
          "name": "",
          "type": "bytes32"
        }
      ],
      "payable": false,
      "stateMutability": "view",
      "type": "function"
    },
    {
      "constant": true,
      "inputs": [
        {
          "name": "chapter",
          "type": "uint256"
        }
      ],
      "name": "getSecondAddressChapter",
      "outputs": [
        {
          "name": "secondAddressChapter",
          "type": "bytes32[2][]"
        }
      ],
      "payable": false,
      "stateMutability": "view",
      "type": "function"
    },
    {
      "constant": true,
      "inputs": [
        {
          "name": "",
          "type": "uint256"
        },
        {
          "name": "",
          "type": "uint256"
        },
        {
          "name": "",
          "type": "uint256"
        }
      ],
      "name": "firstAddressBook",
      "outputs": [
        {
          "name": "",
          "type": "bytes32"
        }
      ],
      "payable": false,
      "stateMutability": "view",
      "type": "function"
    },
    {
      "constant": true,
      "inputs": [
        {
          "name": "",
          "type": "uint256"
        },
        {
          "name": "",
          "type": "uint256"
        }
      ],
      "name": "buyBook",
      "outputs": [
        {
          "name": "",
          "type": "bool"
        }
      ],
      "payable": false,
      "stateMutability": "view",
      "type": "function"
    },
    {
      "constant": true,
      "inputs": [
        {
          "name": "chapter",
          "type": "uint256"
        }
      ],
      "name": "getOrderChapter",
      "outputs": [
        {
          "name": "buyChapter",
          "type": "bool[]"
        },
        {
          "name": "volChapter",
          "type": "uint256[]"
        },
        {
          "name": "minVolChapter",
          "type": "uint256[]"
        },
        {
          "name": "limitChapter",
          "type": "uint256[]"
        }
      ],
      "payable": false,
      "stateMutability": "view",
      "type": "function"
    },
    {
      "constant": false,
      "inputs": [
        {
          "name": "buyETH",
          "type": "bool"
        },
        {
          "name": "volume",
          "type": "uint256"
        },
        {
          "name": "minVolume",
          "type": "uint256"
        },
        {
          "name": "limit",
          "type": "uint256"
        },
        {
          "name": "ethAddress",
          "type": "address"
        },
        {
          "name": "firstAddress",
          "type": "bytes32[2]"
        },
        {
          "name": "otherAddress",
          "type": "bytes32[2]"
        },
        {
          "name": "chapter",
          "type": "uint256"
        }
      ],
      "name": "placeOrder",
      "outputs": [
        {
          "name": "accepted",
          "type": "bool"
        }
      ],
      "payable": true,
      "stateMutability": "payable",
      "type": "function"
    },
    {
      "constant": true,
      "inputs": [
        {
          "name": "",
          "type": "uint256"
        },
        {
          "name": "",
          "type": "uint256"
        }
      ],
      "name": "ethAddressBook",
      "outputs": [
        {
          "name": "",
          "type": "address"
        }
      ],
      "payable": false,
      "stateMutability": "view",
      "type": "function"
    },
    {
      "constant": true,
      "inputs": [
        {
          "name": "",
          "type": "uint256"
        },
        {
          "name": "",
          "type": "uint256"
        }
      ],
      "name": "limitBook",
      "outputs": [
        {
          "name": "",
          "type": "uint256"
        }
      ],
      "payable": false,
      "stateMutability": "view",
      "type": "function"
    },
    {
      "constant": true,
      "inputs": [
        {
          "name": "chapter",
          "type": "uint256"
        },
        {
          "name": "index1",
          "type": "uint256"
        },
        {
          "name": "index2",
          "type": "uint256"
        }
      ],
      "name": "calcRateAndVol",
      "outputs": [
        {
          "name": "mimRate",
          "type": "uint256"
        },
        {
          "name": "ethVol",
          "type": "uint256"
        }
      ],
      "payable": false,
      "stateMutability": "view",
      "type": "function"
    },
    {
      "constant": true,
      "inputs": [],
      "name": "openBalance",
      "outputs": [
        {
          "name": "",
          "type": "uint256"
        }
      ],
      "payable": false,
      "stateMutability": "view",
      "type": "function"
    },
    {
      "constant": true,
      "inputs": [
        {
          "name": "",
          "type": "uint256"
        },
        {
          "name": "",
          "type": "uint256"
        }
      ],
      "name": "minVolBook",
      "outputs": [
        {
          "name": "",
          "type": "uint256"
        }
      ],
      "payable": false,
      "stateMutability": "view",
      "type": "function"
    },
    {
      "constant": true,
      "inputs": [],
      "name": "PRECISION",
      "outputs": [
        {
          "name": "",
          "type": "uint256"
        }
      ],
      "payable": false,
      "stateMutability": "view",
      "type": "function"
    },
    {
      "constant": false,
      "inputs": [
        {
          "name": "chapter",
          "type": "uint256"
        },
        {
          "name": "index",
          "type": "uint256"
        }
      ],
      "name": "cancelOrder",
      "outputs": [
        {
          "name": "accepted",
          "type": "bool"
        }
      ],
      "payable": false,
      "stateMutability": "nonpayable",
      "type": "function"
    },
    {
      "constant": true,
      "inputs": [],
      "name": "params",
      "outputs": [
        {
          "name": "closureFee",
          "type": "uint256"
        },
        {
          "name": "cancelFee",
          "type": "uint256"
        },
        {
          "name": "cleanSize",
          "type": "uint256"
        },
        {
          "name": "minerShare",
          "type": "uint256"
        },
        {
          "name": "distBalance",
          "type": "uint256"
        },
        {
          "name": "difficulty",
          "type": "bytes32"
        }
      ],
      "payable": false,
      "stateMutability": "view",
      "type": "function"
    },
    {
      "constant": false,
      "inputs": [
        {
          "name": "depositAddress",
          "type": "address"
        },
        {
          "name": "chapter",
          "type": "uint256"
        },
        {
          "name": "index1",
          "type": "uint256"
        },
        {
          "name": "index2",
          "type": "uint256"
        },
        {
          "name": "nonce",
          "type": "uint256"
        }
      ],
      "name": "giveMatch",
      "outputs": [
        {
          "name": "isValid",
          "type": "bool"
        }
      ],
      "payable": false,
      "stateMutability": "nonpayable",
      "type": "function"
    },
    {
      "constant": true,
      "inputs": [
        {
          "name": "chapter",
          "type": "uint256"
        }
      ],
      "name": "getETHAddressChapter",
      "outputs": [
        {
          "name": "ethAddressChapter",
          "type": "address[]"
        }
      ],
      "payable": false,
      "stateMutability": "view",
      "type": "function"
    },
    {
      "constant": true,
      "inputs": [
        {
          "name": "",
          "type": "uint256"
        },
        {
          "name": "",
          "type": "uint256"
        }
      ],
      "name": "volBook",
      "outputs": [
        {
          "name": "",
          "type": "uint256"
        }
      ],
      "payable": false,
      "stateMutability": "view",
      "type": "function"
    },
    {
      "constant": true,
      "inputs": [
        {
          "name": "chapter",
          "type": "uint256"
        }
      ],
      "name": "getFirstAddressChapter",
      "outputs": [
        {
          "name": "firstAddressChapter",
          "type": "bytes32[2][]"
        }
      ],
      "payable": false,
      "stateMutability": "view",
      "type": "function"
    },
    {
      "inputs": [
        {
          "name": "closureFee",
          "type": "uint256"
        },
        {
          "name": "cancelFee",
          "type": "uint256"
        },
        {
          "name": "cleanSize",
          "type": "uint256"
        },
        {
          "name": "minerShare",
          "type": "uint256"
        },
        {
          "name": "distBalance",
          "type": "uint256"
        },
        {
          "name": "difficulty",
          "type": "bytes32"
        }
      ],
      "payable": false,
      "stateMutability": "nonpayable",
      "type": "constructor"
    },
    {
      "anonymous": false,
      "inputs": [
        {
          "indexed": false,
          "name": "ethAddress1",
          "type": "address"
        },
        {
          "indexed": false,
          "name": "ethAddress2",
          "type": "address"
        },
        {
          "indexed": false,
          "name": "firstAddress1",
          "type": "bytes32[2]"
        },
        {
          "indexed": false,
          "name": "firstAddress2",
          "type": "bytes32[2]"
        },
        {
          "indexed": false,
          "name": "otherAddress1",
          "type": "bytes32[2]"
        },
        {
          "indexed": false,
          "name": "otherAddress2",
          "type": "bytes32[2]"
        },
        {
          "indexed": false,
          "name": "mimRate",
          "type": "uint256"
        },
        {
          "indexed": false,
          "name": "ethVol",
          "type": "uint256"
        }
      ],
      "name": "TradeInfo",
      "type": "event"
    }
  ],
  "bytecode": "0x6060604052670de0b6b3a7640000600055600060015534156200002157600080fd5b60405160c08062003409833981016040528080519060200190919080519060200190919080519060200190919080519060200190919080519060200190919080519060200190919050506200008f868686868686620000e46401000000000262002bd1176401000000009004565b620000ad6200012b6401000000000262002c18176401000000009004565b600f8054806001018281620000c39190620003a4565b9160005260206000209001600080909190915055505050505050506200054e565b856002600001819055508460026001018190555083600280018190555082600260030181905550816002600401819055508060026005018160001916905550505050505050565b600860008081526020019081526020016000208054806001018281620001529190620003d3565b91600052602060002090602091828204019190066000909190916101000a81548160ff02191690831515021790555050600960008081526020019081526020016000208054806001018281620001a99190620003a4565b916000526020600020900160008090919091505550600a60008081526020019081526020016000208054806001018281620001e59190620003a4565b916000526020600020900160008090919091505550600b60008081526020019081526020016000208054806001018281620002219190620003a4565b916000526020600020900160008090919091505550600c600080815260200190815260200160002080548060010182816200025d919062000410565b9160005260206000209001600080909190916101000a81548173ffffffffffffffffffffffffffffffffffffffff021916908373ffffffffffffffffffffffffffffffffffffffff16021790555050600d60008081526020019081526020016000208054806001018281620002d391906200043f565b9160005260206000209060020201600060408051908101604052806000600102600019166000191681526020016000600102600019166000191681525090919091509060026200032592919062000474565b5050600e600080815260200190815260200160002080548060010182816200034e91906200043f565b916000526020600020906002020160006040805190810160405280600060010260001916600019168152602001600060010260001916600019168152509091909150906002620003a092919062000474565b5050565b815481835581811511620003ce57818360005260206000209182019101620003cd9190620004bf565b5b505050565b8154818355818115116200040b57601f016020900481601f016020900483600052602060002091820191016200040a9190620004bf565b5b505050565b8154818355818115116200043a57818360005260206000209182019101620004399190620004bf565b5b505050565b8154818355818115116200046f576002028160020283600052602060002091820191016200046e9190620004e7565b5b505050565b8260028101928215620004ac579160200282015b82811115620004ab57825182906000191690559160200191906001019062000488565b5b509050620004bb919062000518565b5090565b620004e491905b80821115620004e0576000816000905550600101620004c6565b5090565b90565b6200051591905b8082111562000511576000818162000507919062000540565b50600201620004ee565b5090565b90565b6200053d91905b80821115620005395760008160009055506001016200051f565b5090565b90565b506000815560010160009055565b612eab806200055e6000396000f3006060604052600436106100fc576000357c0100000000000000000000000000000000000000000000000000000000900463ffffffff16806310fc8a1514610101578063145404fc14610152578063324a1467146101ed5780633af8c2d51461023e5780633b6a08001461028257806349827685146103d257806353c1d8821461049f5780638139cbc61461050b5780638eae03d21461054b5780639138ec3a1461059b5780639febbcfa146105c4578063aaf5eb6814610604578063b6ed06321461062d578063cff0ab9614610671578063d2426ab9146106c5578063e0cfdce01461073a578063e0f1f59f146107b2578063ee4b94bb146107f2575b600080fd5b341561010c57600080fd5b610134600480803590602001909190803590602001909190803590602001909190505061088d565b60405180826000191660001916815260200191505060405180910390f35b341561015d57600080fd5b61017360048080359060200190919050506108d0565b60405180806020018281038252838181518152602001915080516000925b818410156101dc57828490602001906020020151600260200280838360005b838110156101cb5780820151818401526020810190506101b0565b505050509050019260010192610191565b925050509250505060405180910390f35b34156101f857600080fd5b610220600480803590602001909190803590602001909190803590602001909190505061097d565b60405180826000191660001916815260200191505060405180910390f35b341561024957600080fd5b61026860048080359060200190919080359060200190919050506109c0565b604051808215151515815260200191505060405180910390f35b341561028d57600080fd5b6102a36004808035906020019091905050610a02565b6040518080602001806020018060200180602001858103855289818151815260200191508051906020019060200280838360005b838110156102f25780820151818401526020810190506102d7565b50505050905001858103845288818151815260200191508051906020019060200280838360005b83811015610334578082015181840152602081019050610319565b50505050905001858103835287818151815260200191508051906020019060200280838360005b8381101561037657808201518184015260208101905061035b565b50505050905001858103825286818151815260200191508051906020019060200280838360005b838110156103b857808201518184015260208101905061039d565b505050509050019850505050505050505060405180910390f35b6104856004808035151590602001909190803590602001909190803590602001909190803590602001909190803573ffffffffffffffffffffffffffffffffffffffff1690602001909190806040019060028060200260405190810160405280929190826002602002808284378201915050505050919080604001906002806020026040519081016040528092919082600260200280828437820191505050505091908035906020019091905050610bea565b604051808215151515815260200191505060405180910390f35b34156104aa57600080fd5b6104c96004808035906020019091908035906020019091905050610ecc565b604051808273ffffffffffffffffffffffffffffffffffffffff1673ffffffffffffffffffffffffffffffffffffffff16815260200191505060405180910390f35b341561051657600080fd5b6105356004808035906020019091908035906020019091905050610f1a565b6040518082815260200191505060405180910390f35b341561055657600080fd5b61057e6004808035906020019091908035906020019091908035906020019091905050610f4b565b604051808381526020018281526020019250505060405180910390f35b34156105a657600080fd5b6105ae61120b565b6040518082815260200191505060405180910390f35b34156105cf57600080fd5b6105ee6004808035906020019091908035906020019091905050611211565b6040518082815260200191505060405180910390f35b341561060f57600080fd5b610617611242565b6040518082815260200191505060405180910390f35b341561063857600080fd5b6106576004808035906020019091908035906020019091905050611248565b604051808215151515815260200191505060405180910390f35b341561067c57600080fd5b61068461161f565b604051808781526020018681526020018581526020018481526020018381526020018260001916600019168152602001965050505050505060405180910390f35b34156106d057600080fd5b610720600480803573ffffffffffffffffffffffffffffffffffffffff16906020019091908035906020019091908035906020019091908035906020019091908035906020019091905050611649565b604051808215151515815260200191505060405180910390f35b341561074557600080fd5b61075b60048080359060200190919050506116ca565b6040518080602001828103825283818151815260200191508051906020019060200280838360005b8381101561079e578082015181840152602081019050610783565b505050509050019250505060405180910390f35b34156107bd57600080fd5b6107dc6004808035906020019091908035906020019091905050611771565b6040518082815260200191505060405180910390f35b34156107fd57600080fd5b61081360048080359060200190919050506117a2565b60405180806020018281038252838181518152602001915080516000925b8184101561087c57828490602001906020020151600260200280838360005b8381101561086b578082015181840152602081019050610850565b505050509050019260010192610831565b925050509250505060405180910390f35b600e602052826000526040600020828154811015156108a857fe5b9060005260206000209060020201816002811015156108c357fe5b0160009250925050505481565b6108d86128c7565b600e6000838152602001908152602001600020805480602002602001604051908101604052809291908181526020016000905b82821015610972578382906000526020600020906002020160028060200260405190810160405280929190826002801561095e576020028201915b81546000191681526020019060010190808311610946575b50505050508152602001906001019061090b565b505050509050919050565b600d6020528260005260406000208281548110151561099857fe5b9060005260206000209060020201816002811015156109b357fe5b0160009250925050505481565b6008602052816000526040600020818154811015156109db57fe5b9060005260206000209060209182820401919006915091509054906101000a900460ff1681565b610a0a6128db565b610a126128ef565b610a1a6128ef565b610a226128ef565b6008600086815260200190815260200160002060096000878152602001908152602001600020600a6000888152602001908152602001600020600b600089815260200190815260200160002083805480602002602001604051908101604052809291908181526020018280548015610ade57602002820191906000526020600020906000905b82829054906101000a900460ff16151581526020019060010190602082600001049283019260010382029150808411610aa85790505b5050505050935082805480602002602001604051908101604052809291908181526020018280548015610b3057602002820191906000526020600020905b815481526020019060010190808311610b1c575b5050505050925081805480602002602001604051908101604052809291908181526020018280548015610b8257602002820191906000526020600020905b815481526020019060010190808311610b6e575b5050505050915080805480602002602001604051908101604052809291908181526020018280548015610bd457602002820191906000526020600020905b815481526020019060010190808311610bc0575b5050505050905093509350935093509193509193565b60008088111515610bfa57600080fd5b600087111515610c0957600080fd5b868810151515610c1857600080fd5b600086111515610c2757600080fd5b8815610c57576000546002600001548902811515610c4157fe5b0434870210151515610c5257600080fd5b610c7b565b6000546002600001548902811515610c6b57fe5b043410151515610c7a57600080fd5b5b60006008600084815260200190815260200160002080549050111515610ca057600080fd5b34600160008282540192505081905550600860008381526020019081526020016000208054806001018281610cd59190612903565b91600052602060002090602091828204019190068b909190916101000a81548160ff02191690831515021790555050600960008381526020019081526020016000208054806001018281610d29919061293d565b916000526020600020900160008a90919091505550600a60008381526020019081526020016000208054806001018281610d63919061293d565b916000526020600020900160008990919091505550600b60008381526020019081526020016000208054806001018281610d9d919061293d565b916000526020600020900160008890919091505550600c60008381526020019081526020016000208054806001018281610dd79190612969565b9160005260206000209001600087909190916101000a81548173ffffffffffffffffffffffffffffffffffffffff021916908373ffffffffffffffffffffffffffffffffffffffff16021790555050600d60008381526020019081526020016000208054806001018281610e4b9190612995565b91600052602060002090600202016000869091909150906002610e6f9291906129c7565b5050600e60008381526020019081526020016000208054806001018281610e969190612995565b91600052602060002090600202016000859091909150906002610eba9291906129c7565b50506001905098975050505050505050565b600c60205281600052604060002081815481101515610ee757fe5b90600052602060002090016000915091509054906101000a900473ffffffffffffffffffffffffffffffffffffffff1681565b600b60205281600052604060002081815481101515610f3557fe5b9060005260206000209001600091509150505481565b600080600080610f59612a0d565b610f61612a0d565b610f6c89898961184f565b1515610f8457600080819150809050955095506111ff565b600860008a815260200190815260200160002088815481101515610fa457fe5b90600052602060002090602091828204019190069054906101000a900460ff1615610fd457879350869250610fdb565b8693508792505b608060405190810160405280600115158152602001600960008c81526020019081526020016000208681548110151561101057fe5b9060005260206000209001548152602001600a60008c81526020019081526020016000208681548110151561104157fe5b9060005260206000209001548152602001600b60008c81526020019081526020016000208681548110151561107257fe5b9060005260206000209001548152509150608060405190810160405280600015158152602001600960008c8152602001908152602001600020858154811015156110b857fe5b9060005260206000209001548152602001600a60008c8152602001908152602001600020858154811015156110e957fe5b9060005260206000209001548152602001600b60008c81526020019081526020016000208581548110151561111a57fe5b906000526020600020900154815250905080606001518260600151101561114d57600080819150809050955095506111ff565b6002816060015183606001510181151561116357fe5b0495508581602001510260005483602001510211156111b5578581602001510260005483604001510211156111a457600080819150809050955095506111ff565b8586826020015102955095506111ff565b6000548260200151028682602001510211156111f4576000548260200151028682604001510211156111f357600080819150809050955095506111ff565b5b858260200151955095505b50505050935093915050565b60015481565b600a6020528160005260406000208181548110151561122c57fe5b9060005260206000209001600091509150505481565b60005481565b600080600060086000868152602001908152602001600020805490508410151561127157600080fd5b600c60008681526020019081526020016000208481548110151561129157fe5b906000526020600020900160009054906101000a900473ffffffffffffffffffffffffffffffffffffffff1673ffffffffffffffffffffffffffffffffffffffff163373ffffffffffffffffffffffffffffffffffffffff161415156112f657600080fd5b600b60008681526020019081526020016000208481548110151561131657fe5b9060005260206000209001549150600960008681526020019081526020016000208481548110151561134457fe5b9060005260206000209001549050600860008681526020019081526020016000208481548110151561137257fe5b90600052602060002090602091828204019190069054906101000a900460ff16156113f5573373ffffffffffffffffffffffffffffffffffffffff166108fc836002600101546002600001540384028115156113ca57fe5b049081150290604051600060405180830381858888f1935050505015156113f057600080fd5b61144f565b3373ffffffffffffffffffffffffffffffffffffffff166108fc8360026001015460026000015403840281151561142857fe5b049081150290604051600060405180830381858888f19350505050151561144e57600080fd5b5b600860008681526020019081526020016000208481548110151561146f57fe5b90600052602060002090602091828204019190066101000a81549060ff021916905560096000868152602001908152602001600020848154811015156114b157fe5b906000526020600020900160009055600a6000868152602001908152602001600020848154811015156114e057fe5b906000526020600020900160009055600b60008681526020019081526020016000208481548110151561150f57fe5b906000526020600020900160009055600c60008681526020019081526020016000208481548110151561153e57fe5b906000526020600020900160006101000a81549073ffffffffffffffffffffffffffffffffffffffff0219169055600d60008681526020019081526020016000208481548110151561158c57fe5b906000526020600020906002020160006115a69190612a38565b600e6000868152602001908152602001600020848154811015156115c657fe5b906000526020600020906002020160006115e09190612a38565b6001600f868154811015156115f157fe5b906000526020600020900160008282540192505081905550611612856119ab565b5060019250505092915050565b60028060000154908060010154908060020154908060030154908060040154908060050154905086565b600080600061165b88888888886121ad565b151561166657600080fd5b611671878787610f4b565b9150915060008111151561168457600080fd5b61168e888261224b565b611697816122b3565b6116a4878787858561230c565b6116b187878785856125b4565b6116ba876119ab565b5060019250505095945050505050565b6116d2612a46565b600c600083815260200190815260200160002080548060200260200160405190810160405280929190818152602001828054801561176557602002820191906000526020600020905b8160009054906101000a900473ffffffffffffffffffffffffffffffffffffffff1673ffffffffffffffffffffffffffffffffffffffff168152602001906001019080831161171b575b50505050509050919050565b60096020528160005260406000208181548110151561178c57fe5b9060005260206000209001600091509150505481565b6117aa6128c7565b600d6000838152602001908152602001600020805480602002602001604051908101604052809291908181526020016000905b828210156118445783829060005260206000209060020201600280602002604051908101604052809291908260028015611830576020028201915b81546000191681526020019060010190808311611818575b5050505050815260200190600101906117dd565b505050509050919050565b600060086000858152602001908152602001600020805490508310151561187557600080fd5b60086000858152602001908152602001600020805490508210151561189957600080fd5b60086000858152602001908152602001600020828154811015156118b957fe5b90600052602060002090602091828204019190069054906101000a900460ff16151560086000868152602001908152602001600020848154811015156118fb57fe5b90600052602060002090602091828204019190069054906101000a900460ff1615151415151561192a57600080fd5b6000600960008681526020019081526020016000208481548110151561194c57fe5b9060005260206000209001541415151561196557600080fd5b6000600960008681526020019081526020016000208381548110151561198757fe5b906000526020600020900154141515156119a057600080fd5b600190509392505050565b6000806002800154600f848154811015156119c257fe5b90600052602060002090015410156119dd57600091506121a7565b600190505b6008600084815260200190815260200160002080549050811015611f445760006009600085815260200190815260200160002082815481101515611a2257fe5b9060005260206000209001541415611f37576001600860008581526020019081526020016000208054905003811015611f36576008600084815260200190815260200160002060018201815481101515611a7857fe5b90600052602060002090602091828204019190069054906101000a900460ff166008600085815260200190815260200160002082815481101515611ab857fe5b90600052602060002090602091828204019190066101000a81548160ff0219169083151502179055506009600084815260200190815260200160002060018201815481101515611b0457fe5b9060005260206000209001546009600085815260200190815260200160002082815481101515611b3057fe5b906000526020600020900181905550600a600084815260200190815260200160002060018201815481101515611b6257fe5b906000526020600020900154600a600085815260200190815260200160002082815481101515611b8e57fe5b906000526020600020900181905550600b600084815260200190815260200160002060018201815481101515611bc057fe5b906000526020600020900154600b600085815260200190815260200160002082815481101515611bec57fe5b906000526020600020900181905550600c600084815260200190815260200160002060018201815481101515611c1e57fe5b906000526020600020900160009054906101000a900473ffffffffffffffffffffffffffffffffffffffff16600c600085815260200190815260200160002082815481101515611c6a57fe5b906000526020600020900160006101000a81548173ffffffffffffffffffffffffffffffffffffffff021916908373ffffffffffffffffffffffffffffffffffffffff160217905550600d600084815260200190815260200160002060018201815481101515611cd657fe5b9060005260206000209060020201600d600085815260200190815260200160002082815481101515611d0457fe5b9060005260206000209060020201906002611d20929190612a5a565b50600e600084815260200190815260200160002060018201815481101515611d4457fe5b9060005260206000209060020201600e600085815260200190815260200160002082815481101515611d7257fe5b9060005260206000209060020201906002611d8e929190612a5a565b506008600084815260200190815260200160002060018201815481101515611db257fe5b90600052602060002090602091828204019190066101000a81549060ff02191690556009600084815260200190815260200160002060018201815481101515611df757fe5b906000526020600020900160009055600a600084815260200190815260200160002060018201815481101515611e2957fe5b906000526020600020900160009055600b600084815260200190815260200160002060018201815481101515611e5b57fe5b906000526020600020900160009055600c600084815260200190815260200160002060018201815481101515611e8d57fe5b906000526020600020900160006101000a81549073ffffffffffffffffffffffffffffffffffffffff0219169055600d600084815260200190815260200160002060018201815481101515611ede57fe5b90600052602060002090600202016000611ef89190612a38565b600e600084815260200190815260200160002060018201815481101515611f1b57fe5b90600052602060002090600202016000611f359190612a38565b5b5b80806001019150506119e2565b600f83815481101515611f5357fe5b9060005260206000209001546008600085815260200190815260200160002080549050036008600085815260200190815260200160002081611f959190612a97565b50600f83815481101515611fa557fe5b9060005260206000209001546009600085815260200190815260200160002080549050036009600085815260200190815260200160002081611fe79190612ad1565b50600f83815481101515611ff757fe5b906000526020600020900154600a60008581526020019081526020016000208054905003600a6000858152602001908152602001600020816120399190612ad1565b50600f8381548110151561204957fe5b906000526020600020900154600b60008581526020019081526020016000208054905003600b60008581526020019081526020016000208161208b9190612ad1565b50600f8381548110151561209b57fe5b906000526020600020900154600c60008581526020019081526020016000208054905003600c6000858152602001908152602001600020816120dd9190612afd565b50600f838154811015156120ed57fe5b906000526020600020900154600d60008581526020019081526020016000208054905003600d60008581526020019081526020016000208161212f9190612b29565b50600f8381548110151561213f57fe5b906000526020600020900154600e60008581526020019081526020016000208054905003600e6000858152602001908152602001600020816121819190612b29565b506000600f8481548110151561219357fe5b906000526020600020900181905550600191505b50919050565b60008585858585604051808673ffffffffffffffffffffffffffffffffffffffff1673ffffffffffffffffffffffffffffffffffffffff166c010000000000000000000000000281526014018581526020018481526020018381526020018281526020019550505050505060405180910390206000191660026005015460001916101561223d5760009050612242565b600190505b95945050505050565b600080546000540282600260000154600260030154020281151561226b57fe5b0490508273ffffffffffffffffffffffffffffffffffffffff166108fc829081150290604051600060405180830381858888f1935050505015156122ae57600080fd5b505050565b60005481600260000154028115156122c757fe5b046001600082825403925050819055506002600401546001543073ffffffffffffffffffffffffffffffffffffffff163103101515612309576123086128c5565b5b50565b7f389a889e7f65d263df200f5a0bc042c0ba9d0c600161ff14d87cc1daa06b8e6d600c60008781526020019081526020016000208581548110151561234d57fe5b906000526020600020900160009054906101000a900473ffffffffffffffffffffffffffffffffffffffff16600c60008881526020019081526020016000208581548110151561239957fe5b906000526020600020900160009054906101000a900473ffffffffffffffffffffffffffffffffffffffff16600d6000898152602001908152602001600020878154811015156123e557fe5b9060005260206000209060020201600d60008a81526020019081526020016000208781548110151561241357fe5b9060005260206000209060020201600e60008b81526020019081526020016000208981548110151561244157fe5b9060005260206000209060020201600e60008c81526020019081526020016000208981548110151561246f57fe5b90600052602060002090600202018888604051808973ffffffffffffffffffffffffffffffffffffffff1673ffffffffffffffffffffffffffffffffffffffff1681526020018873ffffffffffffffffffffffffffffffffffffffff1673ffffffffffffffffffffffffffffffffffffffff168152602001876002801561250f576020028201915b815460001916815260200190600101908083116124f7575b50508660028015612539576020028201915b81546000191681526020019060010190808311612521575b50508560028015612563576020028201915b8154600019168152602001906001019080831161254b575b5050846002801561258d576020028201915b81546000191681526020019060010190808311612575575b50508381526020018281526020019850505050505050505060405180910390a15050505050565b60008060086000888152602001908152602001600020868154811015156125d757fe5b90600052602060002090602091828204019190069054906101000a900460ff16156126075785915084905061260e565b8491508590505b82600960008981526020019081526020016000208381548110151561262f57fe5b906000526020600020900154141561266b576001600f8881548110151561265257fe5b9060005260206000209001600082825401925050819055505b82600a60008981526020019081526020016000208381548110151561268c57fe5b90600052602060002090015410156126d4576000600a6000898152602001908152602001600020838154811015156126c057fe5b90600052602060002090018190555061270e565b82600a6000898152602001908152602001600020838154811015156126f557fe5b9060005260206000209001600082825403925050819055505b82600960008981526020019081526020016000208381548110151561272f57fe5b90600052602060002090016000828254039250508190555060005484840281151561275657fe5b04600960008981526020019081526020016000208281548110151561277757fe5b90600052602060002090015414156127b3576001600f8881548110151561279a57fe5b9060005260206000209001600082825401925050819055505b6000548484028115156127c257fe5b04600a6000898152602001908152602001600020828154811015156127e357fe5b906000526020600020900154101561282b576000600a60008981526020019081526020016000208281548110151561281757fe5b906000526020600020900181905550612874565b60005484840281151561283a57fe5b04600a60008981526020019081526020016000208281548110151561285b57fe5b9060005260206000209001600082825403925050819055505b60005484840281151561288357fe5b0460096000898152602001908152602001600020828154811015156128a457fe5b90600052602060002090016000828254039250508190555050505050505050565b565b602060405190810160405280600081525090565b602060405190810160405280600081525090565b602060405190810160405280600081525090565b81548183558181151161293857601f016020900481601f016020900483600052602060002091820191016129379190612b5b565b5b505050565b815481835581811511612964578183600052602060002091820191016129639190612b5b565b5b505050565b8154818355818115116129905781836000526020600020918201910161298f9190612b5b565b5b505050565b8154818355818115116129c2576002028160020283600052602060002091820191016129c19190612b80565b5b505050565b82600281019282156129fc579160200282015b828111156129fb5782518290600019169055916020019190600101906129da565b5b509050612a099190612bac565b5090565b6080604051908101604052806000151581526020016000815260200160008152602001600081525090565b506000815560010160009055565b602060405190810160405280600081525090565b8260028101928215612a86579182015b82811115612a85578254825591600101919060010190612a6a565b5b509050612a939190612bac565b5090565b815481835581811511612acc57601f016020900481601f01602090048360005260206000209182019101612acb9190612b5b565b5b505050565b815481835581811511612af857818360005260206000209182019101612af79190612b5b565b5b505050565b815481835581811511612b2457818360005260206000209182019101612b239190612b5b565b5b505050565b815481835581811511612b5657600202816002028360005260206000209182019101612b559190612b80565b5b505050565b612b7d91905b80821115612b79576000816000905550600101612b61565b5090565b90565b612ba991905b80821115612ba55760008181612b9c9190612a38565b50600201612b86565b5090565b90565b612bce91905b80821115612bca576000816000905550600101612bb2565b5090565b90565b856002600001819055508460026001018190555083600280018190555082600260030181905550816002600401819055508060026005018160001916905550505050505050565b600860008081526020019081526020016000208054806001018281612c3d9190612903565b91600052602060002090602091828204019190066000909190916101000a81548160ff02191690831515021790555050600960008081526020019081526020016000208054806001018281612c92919061293d565b916000526020600020900160008090919091505550600a60008081526020019081526020016000208054806001018281612ccc919061293d565b916000526020600020900160008090919091505550600b60008081526020019081526020016000208054806001018281612d06919061293d565b916000526020600020900160008090919091505550600c60008081526020019081526020016000208054806001018281612d409190612969565b9160005260206000209001600080909190916101000a81548173ffffffffffffffffffffffffffffffffffffffff021916908373ffffffffffffffffffffffffffffffffffffffff16021790555050600d60008081526020019081526020016000208054806001018281612db49190612995565b916000526020600020906002020160006040805190810160405280600060010260001916600019168152602001600060010260001916600019168152509091909150906002612e049291906129c7565b5050600e60008081526020019081526020016000208054806001018281612e2b9190612995565b916000526020600020906002020160006040805190810160405280600060010260001916600019168152602001600060010260001916600019168152509091909150906002612e7b9291906129c7565b50505600a165627a7a72305820f321932b1624aa1cdb6b282630ce3e2e13c0a0f6e6a4d900ba607ba7432711ae0029",
  "source": "pragma solidity ^0.4.18;\n\nimport 'zeppelin-solidity/contracts/math/SafeMath.sol';\nimport './ExchangeStructs.sol';\n/// @title Exchange\n/// @author Karim Helmy\n\n// Primary contract: Describes functions of exchange\ncontract Exchange is ExchangeStructs {\n  // TODO: Make all operations safe\n  using SafeMath for uint;\n\n  // SECTION: Declaring/initializing variables\n  uint public PRECISION = 10 ** 18;\n\n  // separate out the open balance (includes unclosed fees, gas fees),\n  // which will be distributed between miners, the exchange, and traders,\n  // from closed balance, which belongs to the exchange\n  uint public openBalance = 0;\n\n  Parameters public params;\n\n  // separate chapters for different currency pairs\n  // that's why they're 2D\n  /*\n  * Web3 can't properly handle structs.\n  * Ethers.js can only handle them under experimental version.\n  * Therefore, the old orderBook and adressBook pattern won't work.\n  * \\_()_/\n  */\n  // separate chapters for different currency pairs\n  // that's why they're 2D\n  mapping (uint => bool[]) public buyBook;\n  mapping (uint => uint[]) public volBook;\n  mapping (uint => uint[]) public minVolBook;\n  mapping (uint => uint[]) public limitBook;\n\n  mapping (uint => address[]) public ethAddressBook;\n  mapping (uint => bytes32[2][]) public firstAddressBook;\n  mapping (uint => bytes32[2][]) public secondAddressBook;\n\n  // Numbers of orders that have been closed are kept here\n  uint[] numsCleared;\n\n  // SECTION: Constructor and helpers\n  // Constructor for contract\n  function Exchange(uint closureFee, uint cancelFee,\n                    uint cleanSize, uint minerShare, uint distBalance,\n                    bytes32 difficulty)\n    public\n  {\n    // Initialize parameters books\n    setParams(closureFee, cancelFee,\n              cleanSize, minerShare, distBalance, difficulty);\n    // Initialize order books\n    setBooks();\n    // Initialize numsCleared[0] as zero\n    numsCleared.push(0);\n    return;\n  }\n\n  /*\n  * Initializes order book and address book\n  * Only used in constructor\n  * Pushes \"genesis order\"\n  */\n  function setBooks()\n    private\n  {\n    buyBook[0].push(false);\n    volBook[0].push(0);\n    minVolBook[0].push(0);\n    limitBook[0].push(0);\n\n    ethAddressBook[0].push(address(0));\n    firstAddressBook[0].push([bytes32(0), bytes32(0)]);\n    secondAddressBook[0].push([bytes32(0), bytes32(0)]);\n  }\n\n  // Init the params struct, which contains the bulk of exchange's parameters\n  // Only used in constructor\n  function setParams(uint closureFee, uint cancelFee,\n                    uint cleanSize, uint minerShare, uint distBalance,\n                    bytes32 difficulty)\n    internal\n  {\n    params.closureFee = closureFee;\n    params.cancelFee = cancelFee;\n    params.cleanSize = cleanSize;\n    params.minerShare = minerShare;\n    params.distBalance = distBalance;\n    params.difficulty = difficulty;\n  }\n\n  // SECTION: Getters\n  // Get chapter from order book\n  function getOrderChapter(uint chapter)\n    external\n    view\n    returns(bool[] buyChapter, uint[] volChapter,\n            uint[] minVolChapter, uint[] limitChapter)\n  {\n    return(buyBook[chapter], volBook[chapter],\n          minVolBook[chapter], limitBook[chapter]);\n  }\n\n  /*\n  * Wish I could've bundled these.\n  * For some reason, get a bug when firstAddressChapter and secondAddressChapter are together.\n  * Suspect it has something to do with returning dynamic arrays of fixed size arrays\n  */\n  // Get chapter from ethAddressBook\n  function getETHAddressChapter(uint chapter)\n    external\n    view\n    returns(address[] ethAddressChapter)\n  {\n    return(ethAddressBook[chapter]);\n  }\n\n  // Get chapter from firstAddressBook\n  function getFirstAddressChapter(uint chapter)\n    external\n    view\n    returns(bytes32[2][] firstAddressChapter)\n  {\n    return(firstAddressBook[chapter]);\n  }\n\n  // Get chapter from secondAddressBook\n  function getSecondAddressChapter(uint chapter)\n    external\n    view\n    returns(bytes32[2][] secondAddressChapter)\n  {\n    return(secondAddressBook[chapter]);\n  }\n\n  // SECTION: Core functionality\n  // Checks edge cases for match verification\n  function checkMatchEdges(uint chapter, uint index1, uint index2)\n    private\n    view\n    returns(bool passes)\n  {\n    // valid indices\n    require(index1 < buyBook[chapter].length);\n    require(index2 < buyBook[chapter].length);\n    //One buy order and one sell order\n    require(buyBook[chapter][index1] != buyBook[chapter][index2]);\n    //Non-empty order\n    require(volBook[chapter][index1] != 0);\n    require(volBook[chapter][index2] != 0);\n    // All edge cases work!\n    return true;\n  }\n\n  // verifies that match is valid\n  function calcRateAndVol(uint chapter, uint index1, uint index2)\n    public\n    view\n    returns (uint mimRate, uint ethVol)\n  {\n    // check edge cases\n    if (! checkMatchEdges(chapter, index1, index2)) {\n      return (0,0);\n    }\n    // which order is buying and selling ETH?\n    // buy-sell copy1\n    uint buyIndex;\n    uint sellIndex;\n    if (buyBook[chapter][index1]) {\n      buyIndex = index1;\n      sellIndex = index2;\n    } else{\n      buyIndex = index2;\n      sellIndex = index1;\n    }\n    // shorthand for buy and sell orders\n    Order memory buyOrder = Order(true, volBook[chapter][buyIndex],\n                                  minVolBook[chapter][buyIndex],\n                                  limitBook[chapter][buyIndex]);\n    Order memory sellOrder = Order(false, volBook[chapter][sellIndex],\n                                  minVolBook[chapter][sellIndex],\n                                  limitBook[chapter][sellIndex]);\n\n    // Non-contradictory limits\n    if (buyOrder.limit < sellOrder.limit) {\n      return (0, 0);\n    }\n    // Meet in middle rate\n    // mimRate\n    mimRate = (buyOrder.limit + sellOrder.limit) / 2;\n    // Volumes comparable\n    if (buyOrder.volume * PRECISION > sellOrder.volume * mimRate) {\n      if (buyOrder.minVolume * PRECISION > sellOrder.volume * mimRate) {\n        return (0, 0);\n      }\n      return (mimRate, sellOrder.volume * mimRate);\n    }\n    if (sellOrder.volume * mimRate > buyOrder.volume * PRECISION ) {\n      if (sellOrder.minVolume * mimRate > buyOrder.volume * PRECISION) {\n        return (0, 0);\n      }\n    }\n    return (mimRate, buyOrder.volume);\n  }\n\n  // Clears closed trade, reenters into order book if incomplete\n  function clearTrade(uint chapter, uint index1, uint index2,\n                      uint mimRate, uint ethVol)\n    private\n  {\n    // which order is buying and selling ETH?\n    // buy-sell copy1\n    uint buyIndex;\n    uint sellIndex;\n    if (buyBook[chapter][index1]) {\n      buyIndex = index1;\n      sellIndex = index2;\n    } else{\n      buyIndex = index2;\n      sellIndex = index1;\n    }\n    if (volBook[chapter][buyIndex] == ethVol) {\n      numsCleared[chapter] += 1;\n    }\n    if (minVolBook[chapter][buyIndex] < ethVol) {\n      minVolBook[chapter][buyIndex] = 0;\n    } else{\n      minVolBook[chapter][buyIndex] -= ethVol;\n    }\n    volBook[chapter][buyIndex] -= ethVol;\n    if (volBook[chapter][sellIndex] == (ethVol * mimRate / PRECISION)) {\n      numsCleared[chapter] += 1;\n    }\n    if (minVolBook[chapter][sellIndex] < (ethVol * mimRate / PRECISION)) {\n      minVolBook[chapter][sellIndex] = 0;\n    } else{\n      minVolBook[chapter][sellIndex] -= (ethVol * mimRate / PRECISION);\n    }\n    volBook[chapter][sellIndex] -= ethVol * mimRate / PRECISION;\n  }\n\n  // Adds trade to log, for traders to note\n  // http://solidity.readthedocs.io/en/latest/contracts.html?highlight=events#events\n  function alertTraders(uint chapter, uint index1, uint index2, uint mimRate, uint ethVol)\n    private\n  {\n    TradeInfo(\n      ethAddressBook[chapter][index1], //ethAddress1,\n      ethAddressBook[chapter][index2], //ethAddress2,\n      firstAddressBook[chapter][index1], //firstAddress1,\n      firstAddressBook[chapter][index2], //firstAddress2,\n      secondAddressBook[chapter][index1], //otherAddress1,\n      secondAddressBook[chapter][index2], // otherAddress2,\n      mimRate,\n      ethVol\n      );\n  }\n\n  // ValexToken override distributes dividends when balance is of sufficient size\n  // What to do about purity?\n  // TODO: Make dividends distributed by time, not quantity\n  // TODO: Add forced dividend distribution\n  function distDividends()\n    internal\n    pure\n  {\n    return;\n  }\n\n  // Move balance from open to closed\n  function clearBalance(uint ethVol)\n    private\n  {\n    openBalance -= (params.closureFee * ethVol / PRECISION);\n    if (this.balance - openBalance >= params.distBalance) {\n      distDividends();\n    }\n  }\n\n  // Clean chapter (called when size reaches size to clean)\n  function cleanChapter(uint chapter)\n    private\n    returns(bool cleaned)\n  {\n    // Clean chapter only if size is appropriate\n    if (numsCleared[chapter] < params.cleanSize) {\n      return false;\n    }\n    // For all orders\n    // If it's a cleared order:\n    // Replace it with the next one, and clear the next one\n    for (uint i = 1; i < buyBook[chapter].length; i++) {\n      if (volBook[chapter][i] == 0) {\n        if (i < buyBook[chapter].length - 1) {\n          buyBook[chapter][i] = buyBook[chapter][i+1];\n          volBook[chapter][i] = volBook[chapter][i+1];\n          minVolBook[chapter][i] = minVolBook[chapter][i+1];\n          limitBook[chapter][i] = limitBook[chapter][i+1];\n\n          ethAddressBook[chapter][i] = ethAddressBook[chapter][i+1];\n          firstAddressBook[chapter][i] = firstAddressBook[chapter][i+1];\n          secondAddressBook[chapter][i] = secondAddressBook[chapter][i+1];\n\n          delete buyBook[chapter][i+1];\n          delete volBook[chapter][i+1];\n          delete minVolBook[chapter][i+1];\n          delete limitBook[chapter][i+1];\n\n          delete ethAddressBook[chapter][i+1];\n          delete firstAddressBook[chapter][i+1];\n          delete secondAddressBook[chapter][i+1];\n        }\n      }\n    }\n    buyBook[chapter].length = buyBook[chapter].length - numsCleared[chapter];\n    volBook[chapter].length = volBook[chapter].length - numsCleared[chapter];\n    minVolBook[chapter].length = minVolBook[chapter].length - numsCleared[chapter];\n    limitBook[chapter].length = limitBook[chapter].length - numsCleared[chapter];\n\n    ethAddressBook[chapter].length = ethAddressBook[chapter].length - numsCleared[chapter];\n    firstAddressBook[chapter].length = firstAddressBook[chapter].length - numsCleared[chapter];\n    secondAddressBook[chapter].length = secondAddressBook[chapter].length - numsCleared[chapter];\n\n    numsCleared[chapter] = 0;\n    return true;\n  }\n\n  // Checks if POW (nonce) is valid\n  // Performs nonce verification (keccak256)\n  // Helper for giveMatch\n  function isValidPOW(address depositAddress, uint chapter, uint index1,\n                      uint index2, uint nonce)\n    private\n    view\n    returns(bool isValid)\n  {\n    if (params.difficulty < keccak256(depositAddress, chapter, index1, index2, nonce)) {\n      return false;\n    }\n    return true;\n  }\n\n  // Function to pay the miner what's due\n  function payMiner(address depositAddress, uint ethVol)\n    private\n  {\n    // Calculate the miner's payment\n    uint minerPayment = ((params.minerShare * params.closureFee * ethVol) /\n                          (PRECISION * PRECISION));\n    // Pay the miner\n    depositAddress.transfer(minerPayment);\n  }\n\n  // Miners suggest matches with this function\n  // Wrapper for calcRateAndVol and isValidPOW, performs other required functions\n  function giveMatch(address depositAddress, uint chapter,\n                    uint index1, uint index2, uint nonce)\n    public\n    returns(bool isValid)\n  {\n    // Validate nonce\n    require(isValidPOW(depositAddress, chapter, index1, index2, nonce));\n    var (mimRate, ethVol) = calcRateAndVol(chapter, index1, index2);\n    require(ethVol > 0);\n    payMiner(depositAddress, ethVol);\n    clearBalance(ethVol);\n    alertTraders(chapter, index1, index2, mimRate, ethVol);\n    clearTrade(chapter, index1, index2, mimRate, ethVol);\n    cleanChapter(chapter);\n    return true;\n  }\n\n  // Allows traders to place orders\n  function placeOrder(bool buyETH, uint volume, uint minVolume, uint limit,\n                      address ethAddress, bytes32[2] firstAddress,\n                      bytes32[2] otherAddress, uint chapter)\n    public\n    payable\n    returns(bool accepted)\n  {\n    require(volume > 0);\n    require(minVolume > 0);\n    require(volume >= minVolume);\n    require(limit > 0);\n    // TODO: NEXT VERSION: Charge according to transaction vol for generic currencies\n    // Use market rate\n    if (buyETH) {\n      require(limit * msg.value >= volume * params.closureFee / PRECISION);\n    } else{\n      require(msg.value >= volume * params.closureFee / PRECISION);\n    }\n    require(buyBook[chapter].length > 0);\n\n    openBalance += msg.value;\n\n    buyBook[chapter].push(buyETH);\n    volBook[chapter].push(volume);\n    minVolBook[chapter].push(minVolume);\n    limitBook[chapter].push(limit);\n\n    ethAddressBook[chapter].push(ethAddress);\n    firstAddressBook[chapter].push(firstAddress);\n    secondAddressBook[chapter].push(otherAddress);\n    return true;\n  }\n\n  // Allows traders to cancel orders\n  function cancelOrder(uint chapter, uint index)\n    public\n    returns(bool accepted)\n  {\n    require(index < buyBook[chapter].length);\n    // Can't cancel other people's orders\n    require(msg.sender == ethAddressBook[chapter][index]);\n\n    uint limit = limitBook[chapter][index];\n    uint volume = volBook[chapter][index];\n\n    // TODO: NEXT VERSION: Refund according to transaction vol for generic currencies\n    // Use market rate\n    // Refund according to ether transaction volume\n    if (buyBook[chapter][index]) {\n      msg.sender.transfer(volume * (params.closureFee - params.cancelFee) / limit);\n    } else{\n      msg.sender.transfer(volume * (params.closureFee - params.cancelFee) / limit);\n    }\n    delete buyBook[chapter][index];\n    delete volBook[chapter][index];\n    delete minVolBook[chapter][index];\n    delete limitBook[chapter][index];\n\n    delete ethAddressBook[chapter][index];\n    delete firstAddressBook[chapter][index];\n    delete secondAddressBook[chapter][index];\n\n    numsCleared[chapter] += 1;\n    cleanChapter(chapter);\n    return true;\n  }\n}\n",
  "sourcePath": "/Users/Karim/Desktop/Valex/contracts/Exchange.sol",
  "compiler": {
    "name": "solc",
    "version": "0.4.18+commit.9cf6e910.Emscripten.clang"
  },
  "schemaVersion": "1.0.1",
  "updatedAt": "2018-02-20T05:32:52.418Z"
}