{
  "contractName": "Exchange",
  "abi": [
    {
      "constant": true,
      "inputs": [
        {
          "name": "",
          "type": "uint256"
        },
        {
          "name": "",
          "type": "uint256"
        },
        {
          "name": "",
          "type": "uint256"
        }
      ],
      "name": "secondAddressBook",
      "outputs": [
        {
          "name": "",
          "type": "bytes32"
        }
      ],
      "payable": false,
      "stateMutability": "view",
      "type": "function"
    },
    {
      "constant": true,
      "inputs": [
        {
          "name": "chapter",
          "type": "uint256"
        }
      ],
      "name": "getSecondAddressChapter",
      "outputs": [
        {
          "name": "secondAddressChapter",
          "type": "bytes32[2][]"
        }
      ],
      "payable": false,
      "stateMutability": "view",
      "type": "function"
    },
    {
      "constant": false,
      "inputs": [
        {
          "name": "newAddress",
          "type": "address"
        }
      ],
      "name": "addToMinerWhitelist",
      "outputs": [],
      "payable": false,
      "stateMutability": "nonpayable",
      "type": "function"
    },
    {
      "constant": true,
      "inputs": [
        {
          "name": "",
          "type": "uint256"
        },
        {
          "name": "",
          "type": "uint256"
        },
        {
          "name": "",
          "type": "uint256"
        }
      ],
      "name": "firstAddressBook",
      "outputs": [
        {
          "name": "",
          "type": "bytes32"
        }
      ],
      "payable": false,
      "stateMutability": "view",
      "type": "function"
    },
    {
      "constant": true,
      "inputs": [
        {
          "name": "",
          "type": "uint256"
        },
        {
          "name": "",
          "type": "uint256"
        }
      ],
      "name": "buyBook",
      "outputs": [
        {
          "name": "",
          "type": "bool"
        }
      ],
      "payable": false,
      "stateMutability": "view",
      "type": "function"
    },
    {
      "constant": true,
      "inputs": [
        {
          "name": "chapter",
          "type": "uint256"
        }
      ],
      "name": "getOrderChapter",
      "outputs": [
        {
          "name": "buyChapter",
          "type": "bool[]"
        },
        {
          "name": "volChapter",
          "type": "uint256[]"
        },
        {
          "name": "minVolChapter",
          "type": "uint256[]"
        },
        {
          "name": "limitChapter",
          "type": "uint256[]"
        }
      ],
      "payable": false,
      "stateMutability": "view",
      "type": "function"
    },
    {
      "constant": false,
      "inputs": [
        {
          "name": "newAddress",
          "type": "address"
        }
      ],
      "name": "addToTraderWhitelist",
      "outputs": [],
      "payable": false,
      "stateMutability": "nonpayable",
      "type": "function"
    },
    {
      "constant": false,
      "inputs": [
        {
          "name": "buyETH",
          "type": "bool"
        },
        {
          "name": "volume",
          "type": "uint256"
        },
        {
          "name": "minVolume",
          "type": "uint256"
        },
        {
          "name": "limit",
          "type": "uint256"
        },
        {
          "name": "ethAddress",
          "type": "address"
        },
        {
          "name": "firstAddress",
          "type": "bytes32[2]"
        },
        {
          "name": "otherAddress",
          "type": "bytes32[2]"
        },
        {
          "name": "chapter",
          "type": "uint256"
        }
      ],
      "name": "placeOrder",
      "outputs": [
        {
          "name": "accepted",
          "type": "bool"
        }
      ],
      "payable": true,
      "stateMutability": "payable",
      "type": "function"
    },
    {
      "constant": true,
      "inputs": [
        {
          "name": "",
          "type": "uint256"
        },
        {
          "name": "",
          "type": "uint256"
        }
      ],
      "name": "ethAddressBook",
      "outputs": [
        {
          "name": "",
          "type": "address"
        }
      ],
      "payable": false,
      "stateMutability": "view",
      "type": "function"
    },
    {
      "constant": true,
      "inputs": [
        {
          "name": "",
          "type": "uint256"
        },
        {
          "name": "",
          "type": "uint256"
        }
      ],
      "name": "limitBook",
      "outputs": [
        {
          "name": "",
          "type": "uint256"
        }
      ],
      "payable": false,
      "stateMutability": "view",
      "type": "function"
    },
    {
      "constant": true,
      "inputs": [],
      "name": "owner",
      "outputs": [
        {
          "name": "",
          "type": "address"
        }
      ],
      "payable": false,
      "stateMutability": "view",
      "type": "function"
    },
    {
      "constant": true,
      "inputs": [
        {
          "name": "chapter",
          "type": "uint256"
        },
        {
          "name": "index1",
          "type": "uint256"
        },
        {
          "name": "index2",
          "type": "uint256"
        }
      ],
      "name": "calcRateAndVol",
      "outputs": [
        {
          "name": "mimRate",
          "type": "uint256"
        },
        {
          "name": "alphaVol",
          "type": "uint256"
        }
      ],
      "payable": false,
      "stateMutability": "view",
      "type": "function"
    },
    {
      "constant": true,
      "inputs": [],
      "name": "openBalance",
      "outputs": [
        {
          "name": "",
          "type": "uint256"
        }
      ],
      "payable": false,
      "stateMutability": "view",
      "type": "function"
    },
    {
      "constant": true,
      "inputs": [
        {
          "name": "",
          "type": "uint256"
        },
        {
          "name": "",
          "type": "uint256"
        }
      ],
      "name": "minVolBook",
      "outputs": [
        {
          "name": "",
          "type": "uint256"
        }
      ],
      "payable": false,
      "stateMutability": "view",
      "type": "function"
    },
    {
      "constant": false,
      "inputs": [
        {
          "name": "_newOwner",
          "type": "address"
        }
      ],
      "name": "changeOwner",
      "outputs": [],
      "payable": false,
      "stateMutability": "nonpayable",
      "type": "function"
    },
    {
      "constant": true,
      "inputs": [],
      "name": "PRECISION",
      "outputs": [
        {
          "name": "",
          "type": "uint256"
        }
      ],
      "payable": false,
      "stateMutability": "view",
      "type": "function"
    },
    {
      "constant": false,
      "inputs": [
        {
          "name": "chapter",
          "type": "uint256"
        },
        {
          "name": "index",
          "type": "uint256"
        }
      ],
      "name": "cancelOrder",
      "outputs": [
        {
          "name": "accepted",
          "type": "bool"
        }
      ],
      "payable": false,
      "stateMutability": "nonpayable",
      "type": "function"
    },
    {
      "constant": true,
      "inputs": [],
      "name": "params",
      "outputs": [
        {
          "name": "cleanSize",
          "type": "uint256"
        },
        {
          "name": "minerShare",
          "type": "uint256"
        },
        {
          "name": "difficulty",
          "type": "bytes32"
        },
        {
          "name": "traderKYC",
          "type": "bool"
        },
        {
          "name": "minerKYC",
          "type": "bool"
        }
      ],
      "payable": false,
      "stateMutability": "view",
      "type": "function"
    },
    {
      "constant": false,
      "inputs": [
        {
          "name": "depositAddress",
          "type": "address"
        },
        {
          "name": "chapter",
          "type": "uint256"
        },
        {
          "name": "index1",
          "type": "uint256"
        },
        {
          "name": "index2",
          "type": "uint256"
        },
        {
          "name": "nonce",
          "type": "uint256"
        }
      ],
      "name": "giveMatch",
      "outputs": [
        {
          "name": "isValid",
          "type": "bool"
        }
      ],
      "payable": false,
      "stateMutability": "nonpayable",
      "type": "function"
    },
    {
      "constant": false,
      "inputs": [
        {
          "name": "chapter",
          "type": "uint256"
        },
        {
          "name": "closureFeeBuy",
          "type": "uint256"
        },
        {
          "name": "closureFeeSell",
          "type": "uint256"
        },
        {
          "name": "cancelFeeBuy",
          "type": "uint256"
        },
        {
          "name": "cancelFeeSell",
          "type": "uint256"
        }
      ],
      "name": "addChapter",
      "outputs": [],
      "payable": false,
      "stateMutability": "nonpayable",
      "type": "function"
    },
    {
      "constant": true,
      "inputs": [
        {
          "name": "chapter",
          "type": "uint256"
        }
      ],
      "name": "getETHAddressChapter",
      "outputs": [
        {
          "name": "ethAddressChapter",
          "type": "address[]"
        }
      ],
      "payable": false,
      "stateMutability": "view",
      "type": "function"
    },
    {
      "constant": true,
      "inputs": [
        {
          "name": "",
          "type": "uint256"
        },
        {
          "name": "",
          "type": "uint256"
        }
      ],
      "name": "volBook",
      "outputs": [
        {
          "name": "",
          "type": "uint256"
        }
      ],
      "payable": false,
      "stateMutability": "view",
      "type": "function"
    },
    {
      "constant": true,
      "inputs": [
        {
          "name": "chapter",
          "type": "uint256"
        }
      ],
      "name": "getFirstAddressChapter",
      "outputs": [
        {
          "name": "firstAddressChapter",
          "type": "bytes32[2][]"
        }
      ],
      "payable": false,
      "stateMutability": "view",
      "type": "function"
    },
    {
      "inputs": [
        {
          "name": "closureFeeBuy0",
          "type": "uint256"
        },
        {
          "name": "closureFeeSell0",
          "type": "uint256"
        },
        {
          "name": "cancelFeeBuy0",
          "type": "uint256"
        },
        {
          "name": "cancelFeeSell0",
          "type": "uint256"
        },
        {
          "name": "cleanSize",
          "type": "uint256"
        },
        {
          "name": "minerShare",
          "type": "uint256"
        },
        {
          "name": "difficulty",
          "type": "bytes32"
        },
        {
          "name": "minerKYC",
          "type": "bool"
        },
        {
          "name": "traderKYC",
          "type": "bool"
        }
      ],
      "payable": false,
      "stateMutability": "nonpayable",
      "type": "constructor"
    },
    {
      "anonymous": false,
      "inputs": [
        {
          "indexed": false,
          "name": "ethAddress1",
          "type": "address"
        },
        {
          "indexed": false,
          "name": "ethAddress2",
          "type": "address"
        },
        {
          "indexed": false,
          "name": "firstAddress1",
          "type": "bytes32[2]"
        },
        {
          "indexed": false,
          "name": "firstAddress2",
          "type": "bytes32[2]"
        },
        {
          "indexed": false,
          "name": "otherAddress1",
          "type": "bytes32[2]"
        },
        {
          "indexed": false,
          "name": "otherAddress2",
          "type": "bytes32[2]"
        },
        {
          "indexed": false,
          "name": "mimRate",
          "type": "uint256"
        },
        {
          "indexed": false,
          "name": "ethVol",
          "type": "uint256"
        }
      ],
      "name": "TradeInfo",
      "type": "event"
    }
  ],
  "bytecode": "0x6060604052336000806101000a81548173ffffffffffffffffffffffffffffffffffffffff021916908373ffffffffffffffffffffffffffffffffffffffff160217905550670de0b6b3a7640000600155600060025534156200006157600080fd5b6040516101208062003e5483398101604052808051906020019091908051906020019091908051906020019091908051906020019091908051906020019091908051906020019091908051906020019091908051906020019091908051906020019091905050620000ea85858585856200011d64010000000002620036d2176401000000009004565b6200010e60008a8a8a8a6200017e6401000000000262001dbd176401000000009004565b505050505050505050620006e5565b84600360000181905550836003600101819055508260036002018160001916905550816003800160016101000a81548160ff021916908315150217905550806003800160006101000a81548160ff0219169083151502179055505050505050565b6000809054906101000a900473ffffffffffffffffffffffffffffffffffffffff168073ffffffffffffffffffffffffffffffffffffffff163373ffffffffffffffffffffffffffffffffffffffff16141515620001db57600080fd5b6007600087815260200190815260200160002080548060010182816200020291906200053b565b91600052602060002090602091828204019190066000909190916101000a81548160ff0219169083151502179055505060086000878152602001908152602001600020805480600101828162000259919062000578565b91600052602060002090016000809091909150555060096000878152602001908152602001600020805480600101828162000295919062000578565b916000526020600020900160008090919091505550600a60008781526020019081526020016000208054806001018281620002d1919062000578565b916000526020600020900160008090919091505550600b600087815260200190815260200160002080548060010182816200030d9190620005a7565b9160005260206000209001600080909190916101000a81548173ffffffffffffffffffffffffffffffffffffffff021916908373ffffffffffffffffffffffffffffffffffffffff16021790555050600c60008781526020019081526020016000208054806001018281620003839190620005d6565b916000526020600020906002020160006040805190810160405280600060010260001916600019168152602001600060010260001916600019168152509091909150906002620003d59291906200060b565b5050600d60008781526020019081526020016000208054806001018281620003fe9190620005d6565b916000526020600020906002020160006040805190810160405280600060010260001916600019168152602001600060010260001916600019168152509091909150906002620004509291906200060b565b50506012805480600101828162000468919062000578565b91600052602060002090016000809091909150555084600e6000888152602001908152602001600020600060011515151581526020019081526020016000208190555083600e60008881526020019081526020016000206000801515151581526020019081526020016000208190555082600f6000888152602001908152602001600020600060011515151581526020019081526020016000208190555081600f600088815260200190815260200160002060008015151515815260200190815260200160002081905550505050505050565b8154818355818115116200057357601f016020900481601f0160209004836000526020600020918201910162000572919062000656565b5b505050565b815481835581811511620005a257818360005260206000209182019101620005a1919062000656565b5b505050565b815481835581811511620005d157818360005260206000209182019101620005d0919062000656565b5b505050565b81548183558181151162000606576002028160020283600052602060002091820191016200060591906200067e565b5b505050565b826002810192821562000643579160200282015b82811115620006425782518290600019169055916020019190600101906200061f565b5b509050620006529190620006af565b5090565b6200067b91905b80821115620006775760008160009055506001016200065d565b5090565b90565b620006ac91905b80821115620006a857600081816200069e9190620006d7565b5060020162000685565b5090565b90565b620006d491905b80821115620006d0576000816000905550600101620006b6565b5090565b90565b506000815560010160009055565b61375f80620006f56000396000f300606060405260043610610133576000357c0100000000000000000000000000000000000000000000000000000000900463ffffffff16806310fc8a1514610138578063145404fc146101895780631600454514610224578063324a14671461025d5780633af8c2d5146102ae5780633b6a0800146102f25780633f83596914610442578063498276851461047b57806353c1d882146105485780638139cbc6146105b45780638da5cb5b146105f45780638eae03d2146106495780639138ec3a146106995780639febbcfa146106c2578063a6f9dae114610702578063aaf5eb681461073b578063b6ed063214610764578063cff0ab96146107a8578063d2426ab9146107fd578063d7cefcda14610872578063e0cfdce0146108b9578063e0f1f59f14610931578063ee4b94bb14610971575b600080fd5b341561014357600080fd5b61016b6004808035906020019091908035906020019091908035906020019091905050610a0c565b60405180826000191660001916815260200191505060405180910390f35b341561019457600080fd5b6101aa6004808035906020019091905050610a4f565b60405180806020018281038252838181518152602001915080516000925b8184101561021357828490602001906020020151600260200280838360005b838110156102025780820151818401526020810190506101e7565b5050505090500192600101926101c8565b925050509250505060405180910390f35b341561022f57600080fd5b61025b600480803573ffffffffffffffffffffffffffffffffffffffff16906020019091905050610afc565b005b341561026857600080fd5b6102906004808035906020019091908035906020019091908035906020019091905050610bb4565b60405180826000191660001916815260200191505060405180910390f35b34156102b957600080fd5b6102d86004808035906020019091908035906020019091905050610bf7565b604051808215151515815260200191505060405180910390f35b34156102fd57600080fd5b6103136004808035906020019091905050610c39565b6040518080602001806020018060200180602001858103855289818151815260200191508051906020019060200280838360005b83811015610362578082015181840152602081019050610347565b50505050905001858103845288818151815260200191508051906020019060200280838360005b838110156103a4578082015181840152602081019050610389565b50505050905001858103835287818151815260200191508051906020019060200280838360005b838110156103e65780820151818401526020810190506103cb565b50505050905001858103825286818151815260200191508051906020019060200280838360005b8381101561042857808201518184015260208101905061040d565b505050509050019850505050505050505060405180910390f35b341561044d57600080fd5b610479600480803573ffffffffffffffffffffffffffffffffffffffff16906020019091905050610e21565b005b61052e6004808035151590602001909190803590602001909190803590602001909190803590602001909190803573ffffffffffffffffffffffffffffffffffffffff1690602001909190806040019060028060200260405190810160405280929190826002602002808284378201915050505050919080604001906002806020026040519081016040528092919082600260200280828437820191505050505091908035906020019091905050610ed9565b604051808215151515815260200191505060405180910390f35b341561055357600080fd5b61057260048080359060200190919080359060200190919050506112ed565b604051808273ffffffffffffffffffffffffffffffffffffffff1673ffffffffffffffffffffffffffffffffffffffff16815260200191505060405180910390f35b34156105bf57600080fd5b6105de600480803590602001909190803590602001909190505061133b565b6040518082815260200191505060405180910390f35b34156105ff57600080fd5b61060761136c565b604051808273ffffffffffffffffffffffffffffffffffffffff1673ffffffffffffffffffffffffffffffffffffffff16815260200191505060405180910390f35b341561065457600080fd5b61067c6004808035906020019091908035906020019091908035906020019091905050611391565b604051808381526020018281526020019250505060405180910390f35b34156106a457600080fd5b6106ac611651565b6040518082815260200191505060405180910390f35b34156106cd57600080fd5b6106ec6004808035906020019091908035906020019091905050611657565b6040518082815260200191505060405180910390f35b341561070d57600080fd5b610739600480803573ffffffffffffffffffffffffffffffffffffffff16906020019091905050611688565b005b341561074657600080fd5b61074e611728565b6040518082815260200191505060405180910390f35b341561076f57600080fd5b61078e600480803590602001909190803590602001909190505061172e565b604051808215151515815260200191505060405180910390f35b34156107b357600080fd5b6107bb611bd5565b60405180868152602001858152602001846000191660001916815260200183151515158152602001821515151581526020019550505050505060405180910390f35b341561080857600080fd5b610858600480803573ffffffffffffffffffffffffffffffffffffffff16906020019091908035906020019091908035906020019091908035906020019091908035906020019091905050611c13565b604051808215151515815260200191505060405180910390f35b341561087d57600080fd5b6108b76004808035906020019091908035906020019091908035906020019091908035906020019091908035906020019091905050611dbd565b005b34156108c457600080fd5b6108da6004808035906020019091905050612165565b6040518080602001828103825283818151815260200191508051906020019060200280838360005b8381101561091d578082015181840152602081019050610902565b505050509050019250505060405180910390f35b341561093c57600080fd5b61095b600480803590602001909190803590602001909190505061220c565b6040518082815260200191505060405180910390f35b341561097c57600080fd5b610992600480803590602001909190505061223d565b60405180806020018281038252838181518152602001915080516000925b818410156109fb57828490602001906020020151600260200280838360005b838110156109ea5780820151818401526020810190506109cf565b5050505090500192600101926109b0565b925050509250505060405180910390f35b600d60205282600052604060002082815481101515610a2757fe5b906000526020600020906002020181600281101515610a4257fe5b0160009250925050505481565b610a576133c8565b600d6000838152602001908152602001600020805480602002602001604051908101604052809291908181526020016000905b82821015610af15783829060005260206000209060020201600280602002604051908101604052809291908260028015610add576020028201915b81546000191681526020019060010190808311610ac5575b505050505081526020019060010190610a8a565b505050509050919050565b6000809054906101000a900473ffffffffffffffffffffffffffffffffffffffff168073ffffffffffffffffffffffffffffffffffffffff163373ffffffffffffffffffffffffffffffffffffffff16141515610b5857600080fd5b6001601060008473ffffffffffffffffffffffffffffffffffffffff1673ffffffffffffffffffffffffffffffffffffffff16815260200190815260200160002060006101000a81548160ff0219169083151502179055505050565b600c60205282600052604060002082815481101515610bcf57fe5b906000526020600020906002020181600281101515610bea57fe5b0160009250925050505481565b600760205281600052604060002081815481101515610c1257fe5b9060005260206000209060209182820401919006915091509054906101000a900460ff1681565b610c416133dc565b610c496133f0565b610c516133f0565b610c596133f0565b600760008681526020019081526020016000206008600087815260200190815260200160002060096000888152602001908152602001600020600a600089815260200190815260200160002083805480602002602001604051908101604052809291908181526020018280548015610d1557602002820191906000526020600020906000905b82829054906101000a900460ff16151581526020019060010190602082600001049283019260010382029150808411610cdf5790505b5050505050935082805480602002602001604051908101604052809291908181526020018280548015610d6757602002820191906000526020600020905b815481526020019060010190808311610d53575b5050505050925081805480602002602001604051908101604052809291908181526020018280548015610db957602002820191906000526020600020905b815481526020019060010190808311610da5575b5050505050915080805480602002602001604051908101604052809291908181526020018280548015610e0b57602002820191906000526020600020905b815481526020019060010190808311610df7575b5050505050905093509350935093509193509193565b6000809054906101000a900473ffffffffffffffffffffffffffffffffffffffff168073ffffffffffffffffffffffffffffffffffffffff163373ffffffffffffffffffffffffffffffffffffffff16141515610e7d57600080fd5b6001601160008473ffffffffffffffffffffffffffffffffffffffff1673ffffffffffffffffffffffffffffffffffffffff16815260200190815260200160002060006101000a81548160ff0219169083151502179055505050565b600033601160003373ffffffffffffffffffffffffffffffffffffffff1673ffffffffffffffffffffffffffffffffffffffff16815260200190815260200160002060009054906101000a900460ff1680610f4357506003800160009054906101000a900460ff16155b1515610f4e57600080fd5b600089111515610f5d57600080fd5b600088111515610f6c57600080fd5b878910151515610f7b57600080fd5b600087111515610f8a57600080fd5b891561101d57600e600084815260200190815260200160002060008b15151515815260200190815260200160002054890234880210151515610fcb57600080fd5b6001546001540287600e600086815260200190815260200160002060008d151515158152602001908152602001600020548b020281151561100857fe5b046002600082825401925050819055506110ab565b600154600e600085815260200190815260200160002060008c151515158152602001908152602001600020548a0281151561105457fe5b04341015151561106357600080fd5b600154600e600085815260200190815260200160002060008c151515158152602001908152602001600020548a0281151561109a57fe5b046002600082825401925050819055505b600060076000858152602001908152602001600020805490501115156110d057600080fd5b6007600084815260200190815260200160002080548060010182816110f59190613404565b91600052602060002090602091828204019190068c909190916101000a81548160ff02191690831515021790555050600860008481526020019081526020016000208054806001018281611149919061343e565b916000526020600020900160008b90919091505550600960008481526020019081526020016000208054806001018281611183919061343e565b916000526020600020900160008a90919091505550600a600084815260200190815260200160002080548060010182816111bd919061343e565b916000526020600020900160008990919091505550600b600084815260200190815260200160002080548060010182816111f7919061346a565b9160005260206000209001600088909190916101000a81548173ffffffffffffffffffffffffffffffffffffffff021916908373ffffffffffffffffffffffffffffffffffffffff16021790555050600c6000848152602001908152602001600020805480600101828161126b9190613496565b9160005260206000209060020201600087909190915090600261128f9291906134c8565b5050600d600084815260200190815260200160002080548060010182816112b69190613496565b916000526020600020906002020160008690919091509060026112da9291906134c8565b5050600191505098975050505050505050565b600b6020528160005260406000208181548110151561130857fe5b90600052602060002090016000915091509054906101000a900473ffffffffffffffffffffffffffffffffffffffff1681565b600a6020528160005260406000208181548110151561135657fe5b9060005260206000209001600091509150505481565b6000809054906101000a900473ffffffffffffffffffffffffffffffffffffffff1681565b60008060008061139f61350e565b6113a761350e565b6113b28989896122ea565b15156113ca5760008081915080905095509550611645565b600760008a8152602001908152602001600020888154811015156113ea57fe5b90600052602060002090602091828204019190069054906101000a900460ff161561141a57879350869250611421565b8693508792505b608060405190810160405280600115158152602001600860008c81526020019081526020016000208681548110151561145657fe5b9060005260206000209001548152602001600960008c81526020019081526020016000208681548110151561148757fe5b9060005260206000209001548152602001600a60008c8152602001908152602001600020868154811015156114b857fe5b9060005260206000209001548152509150608060405190810160405280600015158152602001600860008c8152602001908152602001600020858154811015156114fe57fe5b9060005260206000209001548152602001600960008c81526020019081526020016000208581548110151561152f57fe5b9060005260206000209001548152602001600a60008c81526020019081526020016000208581548110151561156057fe5b90600052602060002090015481525090508060600151826060015110156115935760008081915080905095509550611645565b600281606001518360600151018115156115a957fe5b0495508581602001510260015483602001510211156115fb578581602001510260015483604001510211156115ea5760008081915080905095509550611645565b858682602001510295509550611645565b60015482602001510286826020015102111561163a576001548260200151028682604001510211156116395760008081915080905095509550611645565b5b858260200151955095505b50505050935093915050565b60025481565b60096020528160005260406000208181548110151561167257fe5b9060005260206000209001600091509150505481565b6000809054906101000a900473ffffffffffffffffffffffffffffffffffffffff168073ffffffffffffffffffffffffffffffffffffffff163373ffffffffffffffffffffffffffffffffffffffff161415156116e457600080fd5b816000806101000a81548173ffffffffffffffffffffffffffffffffffffffff021916908373ffffffffffffffffffffffffffffffffffffffff1602179055505050565b60015481565b60008060008060076000878152602001908152602001600020805490508510151561175857600080fd5b600b60008781526020019081526020016000208581548110151561177857fe5b906000526020600020900160009054906101000a900473ffffffffffffffffffffffffffffffffffffffff1673ffffffffffffffffffffffffffffffffffffffff163373ffffffffffffffffffffffffffffffffffffffff161415156117dd57600080fd5b600a6000878152602001908152602001600020858154811015156117fd57fe5b9060005260206000209001549250600860008781526020019081526020016000208581548110151561182b57fe5b9060005260206000209001549150600760008781526020019081526020016000208581548110151561185957fe5b90600052602060002090602091828204019190069054906101000a900460ff169050600760008781526020019081526020016000208581548110151561189b57fe5b90600052602060002090602091828204019190069054906101000a900460ff1615611964573373ffffffffffffffffffffffffffffffffffffffff166108fc84600f60008a815260200190815260200160002060008515151515815260200190815260200160002054600e60008b81526020019081526020016000206000861515151581526020019081526020016000205403850281151561193957fe5b049081150290604051600060405180830381858888f19350505050151561195f57600080fd5b611a04565b3373ffffffffffffffffffffffffffffffffffffffff166108fc84600f60008a815260200190815260200160002060008515151515815260200190815260200160002054600e60008b8152602001908152602001600020600086151515158152602001908152602001600020540385028115156119dd57fe5b049081150290604051600060405180830381858888f193505050501515611a0357600080fd5b5b6007600087815260200190815260200160002085815481101515611a2457fe5b90600052602060002090602091828204019190066101000a81549060ff02191690556008600087815260200190815260200160002085815481101515611a6657fe5b9060005260206000209001600090556009600087815260200190815260200160002085815481101515611a9557fe5b906000526020600020900160009055600a600087815260200190815260200160002085815481101515611ac457fe5b906000526020600020900160009055600b600087815260200190815260200160002085815481101515611af357fe5b906000526020600020900160006101000a81549073ffffffffffffffffffffffffffffffffffffffff0219169055600c600087815260200190815260200160002085815481101515611b4157fe5b90600052602060002090600202016000611b5b9190613539565b600d600087815260200190815260200160002085815481101515611b7b57fe5b90600052602060002090600202016000611b959190613539565b6001601287815481101515611ba657fe5b906000526020600020900160008282540192505081905550611bc786612446565b506001935050505092915050565b60038060000154908060010154908060020154908060030160009054906101000a900460ff16908060030160019054906101000a900460ff16905085565b600080600080600033601060003373ffffffffffffffffffffffffffffffffffffffff1673ffffffffffffffffffffffffffffffffffffffff16815260200190815260200160002060009054906101000a900460ff1680611c8357506003800160019054906101000a900460ff16155b1515611c8e57600080fd5b611c9b8b8b8b8b8b612c49565b1515611ca657600080fd5b611cb18a8a8a611391565b94509450600084111515611cc457600080fd5b600760008b815260200190815260200160002089815481101515611ce457fe5b90600052602060002090602091828204019190069054906101000a900460ff1615611d1457889250879150611d1b565b8792508891505b611d268a8c86612ce7565b611d8784600a60008d815260200190815260200160002085815481101515611d4a57fe5b906000526020600020900154600a60008e815260200190815260200160002085815481101515611d7657fe5b906000526020600020900154612d75565b611d948a8a8a8888612e0f565b611da18a8a8a88886130b7565b611daa8a612446565b5060019550505050505095945050505050565b6000809054906101000a900473ffffffffffffffffffffffffffffffffffffffff168073ffffffffffffffffffffffffffffffffffffffff163373ffffffffffffffffffffffffffffffffffffffff16141515611e1957600080fd5b600760008781526020019081526020016000208054806001018281611e3e9190613404565b91600052602060002090602091828204019190066000909190916101000a81548160ff02191690831515021790555050600860008781526020019081526020016000208054806001018281611e93919061343e565b916000526020600020900160008090919091505550600960008781526020019081526020016000208054806001018281611ecd919061343e565b916000526020600020900160008090919091505550600a60008781526020019081526020016000208054806001018281611f07919061343e565b916000526020600020900160008090919091505550600b60008781526020019081526020016000208054806001018281611f41919061346a565b9160005260206000209001600080909190916101000a81548173ffffffffffffffffffffffffffffffffffffffff021916908373ffffffffffffffffffffffffffffffffffffffff16021790555050600c60008781526020019081526020016000208054806001018281611fb59190613496565b9160005260206000209060020201600060408051908101604052806000600102600019166000191681526020016000600102600019166000191681525090919091509060026120059291906134c8565b5050600d6000878152602001908152602001600020805480600101828161202c9190613496565b91600052602060002090600202016000604080519081016040528060006001026000191660001916815260200160006001026000191660001916815250909190915090600261207c9291906134c8565b505060128054806001018281612092919061343e565b91600052602060002090016000809091909150555084600e6000888152602001908152602001600020600060011515151581526020019081526020016000208190555083600e60008881526020019081526020016000206000801515151581526020019081526020016000208190555082600f6000888152602001908152602001600020600060011515151581526020019081526020016000208190555081600f600088815260200190815260200160002060008015151515815260200190815260200160002081905550505050505050565b61216d613547565b600b600083815260200190815260200160002080548060200260200160405190810160405280929190818152602001828054801561220057602002820191906000526020600020905b8160009054906101000a900473ffffffffffffffffffffffffffffffffffffffff1673ffffffffffffffffffffffffffffffffffffffff16815260200190600101908083116121b6575b50505050509050919050565b60086020528160005260406000208181548110151561222757fe5b9060005260206000209001600091509150505481565b6122456133c8565b600c6000838152602001908152602001600020805480602002602001604051908101604052809291908181526020016000905b828210156122df57838290600052602060002090600202016002806020026040519081016040528092919082600280156122cb576020028201915b815460001916815260200190600101908083116122b3575b505050505081526020019060010190612278565b505050509050919050565b600060076000858152602001908152602001600020805490508310151561231057600080fd5b60076000858152602001908152602001600020805490508210151561233457600080fd5b600760008581526020019081526020016000208281548110151561235457fe5b90600052602060002090602091828204019190069054906101000a900460ff161515600760008681526020019081526020016000208481548110151561239657fe5b90600052602060002090602091828204019190069054906101000a900460ff161515141515156123c557600080fd5b600060086000868152602001908152602001600020848154811015156123e757fe5b9060005260206000209001541415151561240057600080fd5b6000600860008681526020019081526020016000208381548110151561242257fe5b9060005260206000209001541415151561243b57600080fd5b600190509392505050565b60008060036000015460128481548110151561245e57fe5b90600052602060002090015410156124795760009150612c43565b600190505b60076000848152602001908152602001600020805490508110156129e057600060086000858152602001908152602001600020828154811015156124be57fe5b90600052602060002090015414156129d35760016007600085815260200190815260200160002080549050038110156129d257600760008481526020019081526020016000206001820181548110151561251457fe5b90600052602060002090602091828204019190069054906101000a900460ff16600760008581526020019081526020016000208281548110151561255457fe5b90600052602060002090602091828204019190066101000a81548160ff02191690831515021790555060086000848152602001908152602001600020600182018154811015156125a057fe5b90600052602060002090015460086000858152602001908152602001600020828154811015156125cc57fe5b90600052602060002090018190555060096000848152602001908152602001600020600182018154811015156125fe57fe5b906000526020600020900154600960008581526020019081526020016000208281548110151561262a57fe5b906000526020600020900181905550600a60008481526020019081526020016000206001820181548110151561265c57fe5b906000526020600020900154600a60008581526020019081526020016000208281548110151561268857fe5b906000526020600020900181905550600b6000848152602001908152602001600020600182018154811015156126ba57fe5b906000526020600020900160009054906101000a900473ffffffffffffffffffffffffffffffffffffffff16600b60008581526020019081526020016000208281548110151561270657fe5b906000526020600020900160006101000a81548173ffffffffffffffffffffffffffffffffffffffff021916908373ffffffffffffffffffffffffffffffffffffffff160217905550600c60008481526020019081526020016000206001820181548110151561277257fe5b9060005260206000209060020201600c6000858152602001908152602001600020828154811015156127a057fe5b90600052602060002090600202019060026127bc92919061355b565b50600d6000848152602001908152602001600020600182018154811015156127e057fe5b9060005260206000209060020201600d60008581526020019081526020016000208281548110151561280e57fe5b906000526020600020906002020190600261282a92919061355b565b50600760008481526020019081526020016000206001820181548110151561284e57fe5b90600052602060002090602091828204019190066101000a81549060ff0219169055600860008481526020019081526020016000206001820181548110151561289357fe5b90600052602060002090016000905560096000848152602001908152602001600020600182018154811015156128c557fe5b906000526020600020900160009055600a6000848152602001908152602001600020600182018154811015156128f757fe5b906000526020600020900160009055600b60008481526020019081526020016000206001820181548110151561292957fe5b906000526020600020900160006101000a81549073ffffffffffffffffffffffffffffffffffffffff0219169055600c60008481526020019081526020016000206001820181548110151561297a57fe5b906000526020600020906002020160006129949190613539565b600d6000848152602001908152602001600020600182018154811015156129b757fe5b906000526020600020906002020160006129d19190613539565b5b5b808060010191505061247e565b6012838154811015156129ef57fe5b9060005260206000209001546007600085815260200190815260200160002080549050036007600085815260200190815260200160002081612a319190613598565b50601283815481101515612a4157fe5b9060005260206000209001546008600085815260200190815260200160002080549050036008600085815260200190815260200160002081612a8391906135d2565b50601283815481101515612a9357fe5b9060005260206000209001546009600085815260200190815260200160002080549050036009600085815260200190815260200160002081612ad591906135d2565b50601283815481101515612ae557fe5b906000526020600020900154600a60008581526020019081526020016000208054905003600a600085815260200190815260200160002081612b2791906135d2565b50601283815481101515612b3757fe5b906000526020600020900154600b60008581526020019081526020016000208054905003600b600085815260200190815260200160002081612b7991906135fe565b50601283815481101515612b8957fe5b906000526020600020900154600c60008581526020019081526020016000208054905003600c600085815260200190815260200160002081612bcb919061362a565b50601283815481101515612bdb57fe5b906000526020600020900154600d60008581526020019081526020016000208054905003600d600085815260200190815260200160002081612c1d919061362a565b506000601284815481101515612c2f57fe5b906000526020600020900181905550600191505b50919050565b60008585858585604051808673ffffffffffffffffffffffffffffffffffffffff1673ffffffffffffffffffffffffffffffffffffffff166c0100000000000000000000000002815260140185815260200184815260200183815260200182815260200195505050505050604051809103902060001916600360020154600019161015612cd95760009050612cde565b600190505b95945050505050565b60006001546001540282600e600087815260200190815260200160002060006001151515158152602001908152602001600020546003600101540202811515612d2c57fe5b0490508273ffffffffffffffffffffffffffffffffffffffff166108fc829081150290604051600060405180830381858888f193505050501515612d6f57600080fd5b50505050565b60015482600e60008681526020019081526020016000206000801515151581526020019081526020016000205402811515612dac57fe5b04600260008282540392505081905550600154600154028183600e600087815260200190815260200160002060006001151515158152602001908152602001600020540202811515612dfa57fe5b04600260008282540392505081905550505050565b7f389a889e7f65d263df200f5a0bc042c0ba9d0c600161ff14d87cc1daa06b8e6d600b600087815260200190815260200160002085815481101515612e5057fe5b906000526020600020900160009054906101000a900473ffffffffffffffffffffffffffffffffffffffff16600b600088815260200190815260200160002085815481101515612e9c57fe5b906000526020600020900160009054906101000a900473ffffffffffffffffffffffffffffffffffffffff16600c600089815260200190815260200160002087815481101515612ee857fe5b9060005260206000209060020201600c60008a815260200190815260200160002087815481101515612f1657fe5b9060005260206000209060020201600d60008b815260200190815260200160002089815481101515612f4457fe5b9060005260206000209060020201600d60008c815260200190815260200160002089815481101515612f7257fe5b90600052602060002090600202018888604051808973ffffffffffffffffffffffffffffffffffffffff1673ffffffffffffffffffffffffffffffffffffffff1681526020018873ffffffffffffffffffffffffffffffffffffffff1673ffffffffffffffffffffffffffffffffffffffff1681526020018760028015613012576020028201915b81546000191681526020019060010190808311612ffa575b5050866002801561303c576020028201915b81546000191681526020019060010190808311613024575b50508560028015613066576020028201915b8154600019168152602001906001019080831161304e575b50508460028015613090576020028201915b81546000191681526020019060010190808311613078575b50508381526020018281526020019850505050505050505060405180910390a15050505050565b60008060076000888152602001908152602001600020868154811015156130da57fe5b90600052602060002090602091828204019190069054906101000a900460ff161561310a57859150849050613111565b8491508590505b82600860008981526020019081526020016000208381548110151561313257fe5b906000526020600020900154141561316e57600160128881548110151561315557fe5b9060005260206000209001600082825401925050819055505b82600960008981526020019081526020016000208381548110151561318f57fe5b90600052602060002090015410156131d757600060096000898152602001908152602001600020838154811015156131c357fe5b906000526020600020900181905550613211565b8260096000898152602001908152602001600020838154811015156131f857fe5b9060005260206000209001600082825403925050819055505b82600860008981526020019081526020016000208381548110151561323257fe5b90600052602060002090016000828254039250508190555060015484840281151561325957fe5b04600860008981526020019081526020016000208281548110151561327a57fe5b90600052602060002090015414156132b657600160128881548110151561329d57fe5b9060005260206000209001600082825401925050819055505b6001548484028115156132c557fe5b0460096000898152602001908152602001600020828154811015156132e657fe5b906000526020600020900154101561332e576000600960008981526020019081526020016000208281548110151561331a57fe5b906000526020600020900181905550613377565b60015484840281151561333d57fe5b04600960008981526020019081526020016000208281548110151561335e57fe5b9060005260206000209001600082825403925050819055505b60015484840281151561338657fe5b0460086000898152602001908152602001600020828154811015156133a757fe5b90600052602060002090016000828254039250508190555050505050505050565b602060405190810160405280600081525090565b602060405190810160405280600081525090565b602060405190810160405280600081525090565b81548183558181151161343957601f016020900481601f01602090048360005260206000209182019101613438919061365c565b5b505050565b81548183558181151161346557818360005260206000209182019101613464919061365c565b5b505050565b81548183558181151161349157818360005260206000209182019101613490919061365c565b5b505050565b8154818355818115116134c3576002028160020283600052602060002091820191016134c29190613681565b5b505050565b82600281019282156134fd579160200282015b828111156134fc5782518290600019169055916020019190600101906134db565b5b50905061350a91906136ad565b5090565b6080604051908101604052806000151581526020016000815260200160008152602001600081525090565b506000815560010160009055565b602060405190810160405280600081525090565b8260028101928215613587579182015b8281111561358657825482559160010191906001019061356b565b5b50905061359491906136ad565b5090565b8154818355818115116135cd57601f016020900481601f016020900483600052602060002091820191016135cc919061365c565b5b505050565b8154818355818115116135f9578183600052602060002091820191016135f8919061365c565b5b505050565b81548183558181151161362557818360005260206000209182019101613624919061365c565b5b505050565b815481835581811511613657576002028160020283600052602060002091820191016136569190613681565b5b505050565b61367e91905b8082111561367a576000816000905550600101613662565b5090565b90565b6136aa91905b808211156136a6576000818161369d9190613539565b50600201613687565b5090565b90565b6136cf91905b808211156136cb5760008160009055506001016136b3565b5090565b90565b84600360000181905550836003600101819055508260036002018160001916905550816003800160016101000a81548160ff021916908315150217905550806003800160006101000a81548160ff02191690831515021790555050505050505600a165627a7a72305820e46a177beec04803bde67eeab7c8166b785acc671342eb893599e426754963290029",
  "source": "pragma solidity ^0.4.18;\n\nimport 'zeppelin-solidity/contracts/math/SafeMath.sol';\nimport './ExchangeStructs.sol';\n/// @title Exchange\n/// @author Karim Helmy\n\n// Primary contract: Describes functions of exchange\ncontract Exchange is ExchangeStructs {\n  // TODO: Make all operations safe\n  using SafeMath for uint;\n\n  // SECTION: Declaring/initializing variables\n  address public owner = msg.sender;\n  uint public PRECISION = 10 ** 18;\n\n  // separate out the open balance (includes unclosed fees, gas fees),\n  // which will be distributed between miners, the exchange, and traders,\n  // from closed balance, which belongs to the exchange\n  uint public openBalance = 0;\n\n  Parameters public params;\n\n  // separate chapters for different currency pairs\n  // that's why they're 2D\n  /*\n  * Web3 can't properly handle structs.\n  * Ethers.js can only handle them under experimental version.\n  * Therefore, the old orderBook and adressBook pattern won't work.\n  * \\_()_/\n  */\n  // separate chapters for different currency pairs\n  // that's why they're 2D\n  mapping (uint => bool[]) public buyBook;\n  mapping (uint => uint[]) public volBook;\n  mapping (uint => uint[]) public minVolBook;\n  mapping (uint => uint[]) public limitBook;\n\n  mapping (uint => address[]) public ethAddressBook;\n  mapping (uint => bytes32[2][]) public firstAddressBook;\n  mapping (uint => bytes32[2][]) public secondAddressBook;\n\n  // Fixed fees per unit, rather than using dynamic exchange rate\n  // Different fees for buy/sell\n  // can be done with mapping (uint => mapping (bool => uint))\n  // Allows us to use multiple currencies (not just Ether trading pairs)\n\n  mapping (uint => mapping (bool => uint)) closureFees;\n  mapping (uint => mapping (bool => uint)) cancelFees;\n\n  // KYC whitelists\n  mapping (address => bool) minerWhitelist;\n  mapping (address => bool) traderWhitelist;\n\n  // Numbers of orders that have been closed are kept here\n  uint[] numsCleared;\n\n  // SECTION: Constructor and helpers\n  // Constructor for contract\n  function Exchange(uint closureFeeBuy0, uint closureFeeSell0,\n                    uint cancelFeeBuy0, uint cancelFeeSell0,\n                    uint cleanSize, uint minerShare,\n                    bytes32 difficulty, bool minerKYC, bool traderKYC)\n    public\n  {\n    // Initialize parameters books\n    setParams(cleanSize, minerShare, difficulty, minerKYC, traderKYC);\n    // Initialize order books\n    addChapter(0, closureFeeBuy0, closureFeeSell0,\n                cancelFeeBuy0, cancelFeeSell0);\n    return;\n  }\n\n  // SECTION: Permissions\n  // Modified: http://solidity.readthedocs.io/en/v0.3.1/common-patterns.html\n  modifier onlyBy(address _account)\n  {\n    require(msg.sender == _account);\n    _;\n  }\n\n  modifier minerWhitelisted(address _account)\n  {\n    require(minerWhitelist[msg.sender] || ! params.minerKYC);\n    _;\n  }\n\n  modifier traderWhitelisted(address _account)\n  {\n    require(traderWhitelist[msg.sender] || ! params.traderKYC);\n    _;\n  }\n\n  function changeOwner(address _newOwner)\n    public\n    onlyBy(owner)\n  {\n    owner = _newOwner;\n  }\n\n  function addToMinerWhitelist(address newAddress)\n    public\n    onlyBy(owner)\n  {\n    minerWhitelist[newAddress] = true;\n  }\n\n  function addToTraderWhitelist(address newAddress)\n    public\n    onlyBy(owner)\n  {\n    traderWhitelist[newAddress] = true;\n  }\n\n  /*\n  * Initializes order book and address book for chapter\n  * Only used in constructor\n  * Pushes \"genesis order\" to chapter\n  * ONLY USE FOR MOST RECENT CHAPTER + 1\n  */\n  function addChapter(uint chapter, uint closureFeeBuy, uint closureFeeSell,\n                      uint cancelFeeBuy, uint cancelFeeSell)\n    public\n    onlyBy(owner)\n  {\n    buyBook[chapter].push(false);\n    volBook[chapter].push(0);\n    minVolBook[chapter].push(0);\n    limitBook[chapter].push(0);\n\n    ethAddressBook[chapter].push(address(0));\n    firstAddressBook[chapter].push([bytes32(0), bytes32(0)]);\n    secondAddressBook[chapter].push([bytes32(0), bytes32(0)]);\n    // Initialize numsCleared[chapter] as zero\n    numsCleared.push(0);\n\n    closureFees[chapter][true] = closureFeeBuy;\n    closureFees[chapter][false] = closureFeeSell;\n    cancelFees[chapter][true] = cancelFeeBuy;\n    cancelFees[chapter][false] = cancelFeeSell;\n  }\n\n  // Init the params struct, which contains the bulk of exchange's parameters\n  // Only used in constructor\n  function setParams(uint cleanSize, uint minerShare,\n                    bytes32 difficulty, bool minerKYC, bool traderKYC)\n    internal\n  {\n    params.cleanSize = cleanSize;\n    params.minerShare = minerShare;\n    params.difficulty = difficulty;\n    params.minerKYC = minerKYC;\n    params.traderKYC = traderKYC;\n  }\n\n  // SECTION: Getters\n  // Get chapter from order book\n  function getOrderChapter(uint chapter)\n    external\n    view\n    returns(bool[] buyChapter, uint[] volChapter,\n            uint[] minVolChapter, uint[] limitChapter)\n  {\n    return(buyBook[chapter], volBook[chapter],\n          minVolBook[chapter], limitBook[chapter]);\n  }\n\n  /*\n  * Wish I could've bundled these.\n  * For some reason, get a bug when firstAddressChapter and secondAddressChapter are together.\n  * Suspect it has something to do with returning dynamic arrays of fixed size arrays\n  */\n  // Get chapter from ethAddressBook\n  function getETHAddressChapter(uint chapter)\n    external\n    view\n    returns(address[] ethAddressChapter)\n  {\n    return(ethAddressBook[chapter]);\n  }\n\n  // Get chapter from firstAddressBook\n  function getFirstAddressChapter(uint chapter)\n    external\n    view\n    returns(bytes32[2][] firstAddressChapter)\n  {\n    return(firstAddressBook[chapter]);\n  }\n\n  // Get chapter from secondAddressBook\n  function getSecondAddressChapter(uint chapter)\n    external\n    view\n    returns(bytes32[2][] secondAddressChapter)\n  {\n    return(secondAddressBook[chapter]);\n  }\n\n  // SECTION: Core functionality\n  // Checks edge cases for match verification\n  function checkMatchEdges(uint chapter, uint index1, uint index2)\n    private\n    view\n    returns(bool passes)\n  {\n    // valid indices\n    require(index1 < buyBook[chapter].length);\n    require(index2 < buyBook[chapter].length);\n    //One buy order and one sell order\n    require(buyBook[chapter][index1] != buyBook[chapter][index2]);\n    //Non-empty order\n    require(volBook[chapter][index1] != 0);\n    require(volBook[chapter][index2] != 0);\n    // All edge cases work!\n    return true;\n  }\n\n  // verifies that match is valid\n  function calcRateAndVol(uint chapter, uint index1, uint index2)\n    public\n    view\n    returns (uint mimRate, uint alphaVol)\n  {\n    // check edge cases\n    if (! checkMatchEdges(chapter, index1, index2)) {\n      return (0,0);\n    }\n    // which order is buying and selling ETH?\n    // buy-sell copy1\n    uint buyIndex;\n    uint sellIndex;\n    if (buyBook[chapter][index1]) {\n      buyIndex = index1;\n      sellIndex = index2;\n    } else{\n      buyIndex = index2;\n      sellIndex = index1;\n    }\n    // shorthand for buy and sell orders\n    Order memory buyOrder = Order(true, volBook[chapter][buyIndex],\n                                  minVolBook[chapter][buyIndex],\n                                  limitBook[chapter][buyIndex]);\n    Order memory sellOrder = Order(false, volBook[chapter][sellIndex],\n                                  minVolBook[chapter][sellIndex],\n                                  limitBook[chapter][sellIndex]);\n\n    // Non-contradictory limits\n    if (buyOrder.limit < sellOrder.limit) {\n      return (0, 0);\n    }\n    // Meet in middle rate\n    // mimRate\n    mimRate = (buyOrder.limit + sellOrder.limit) / 2;\n    // Volumes comparable\n    if (buyOrder.volume * PRECISION > sellOrder.volume * mimRate) {\n      if (buyOrder.minVolume * PRECISION > sellOrder.volume * mimRate) {\n        return (0, 0);\n      }\n      return (mimRate, sellOrder.volume * mimRate);\n    }\n    if (sellOrder.volume * mimRate > buyOrder.volume * PRECISION ) {\n      if (sellOrder.minVolume * mimRate > buyOrder.volume * PRECISION) {\n        return (0, 0);\n      }\n    }\n    return (mimRate, buyOrder.volume);\n  }\n\n  // Clears closed trade, reenters into order book if incomplete\n  function clearTrade(uint chapter, uint index1, uint index2,\n                      uint mimRate, uint alphaVol)\n    private\n  {\n    // which order is buying and selling ETH?\n    // buy-sell copy1\n    uint buyIndex;\n    uint sellIndex;\n    if (buyBook[chapter][index1]) {\n      buyIndex = index1;\n      sellIndex = index2;\n    } else{\n      buyIndex = index2;\n      sellIndex = index1;\n    }\n    if (volBook[chapter][buyIndex] == alphaVol) {\n      numsCleared[chapter] += 1;\n    }\n    if (minVolBook[chapter][buyIndex] < alphaVol) {\n      minVolBook[chapter][buyIndex] = 0;\n    } else{\n      minVolBook[chapter][buyIndex] -= alphaVol;\n    }\n    volBook[chapter][buyIndex] -= alphaVol;\n    if (volBook[chapter][sellIndex] == (alphaVol * mimRate / PRECISION)) {\n      numsCleared[chapter] += 1;\n    }\n    if (minVolBook[chapter][sellIndex] < (alphaVol * mimRate / PRECISION)) {\n      minVolBook[chapter][sellIndex] = 0;\n    } else{\n      minVolBook[chapter][sellIndex] -= (alphaVol * mimRate / PRECISION);\n    }\n    volBook[chapter][sellIndex] -= alphaVol * mimRate / PRECISION;\n  }\n\n  // Adds trade to log, for traders to note\n  // http://solidity.readthedocs.io/en/latest/contracts.html?highlight=events#events\n  function alertTraders(uint chapter, uint index1, uint index2, uint mimRate, uint alphaVol)\n    private\n  {\n    TradeInfo(\n      ethAddressBook[chapter][index1], //ethAddress1,\n      ethAddressBook[chapter][index2], //ethAddress2,\n      firstAddressBook[chapter][index1], //firstAddress1,\n      firstAddressBook[chapter][index2], //firstAddress2,\n      secondAddressBook[chapter][index1], //otherAddress1,\n      secondAddressBook[chapter][index2], // otherAddress2,\n      mimRate,\n      alphaVol\n      );\n  }\n\n  // Move balance from open to closed\n  function clearBalance(uint chapter, uint alphaVol, uint buyLimit)\n    private\n  {\n    openBalance -= (closureFees[chapter][false] * alphaVol) / PRECISION;\n    openBalance -= (closureFees[chapter][true] * alphaVol * buyLimit) / (PRECISION * PRECISION);\n  }\n\n  // Clean chapter (called when size reaches size to clean)\n  function cleanChapter(uint chapter)\n    private\n    returns(bool cleaned)\n  {\n    // Clean chapter only if size is appropriate\n    if (numsCleared[chapter] < params.cleanSize) {\n      return false;\n    }\n    // For all orders\n    // If it's a cleared order:\n    // Replace it with the next one, and clear the next one\n    for (uint i = 1; i < buyBook[chapter].length; i++) {\n      if (volBook[chapter][i] == 0) {\n        if (i < buyBook[chapter].length - 1) {\n          buyBook[chapter][i] = buyBook[chapter][i+1];\n          volBook[chapter][i] = volBook[chapter][i+1];\n          minVolBook[chapter][i] = minVolBook[chapter][i+1];\n          limitBook[chapter][i] = limitBook[chapter][i+1];\n\n          ethAddressBook[chapter][i] = ethAddressBook[chapter][i+1];\n          firstAddressBook[chapter][i] = firstAddressBook[chapter][i+1];\n          secondAddressBook[chapter][i] = secondAddressBook[chapter][i+1];\n\n          delete buyBook[chapter][i+1];\n          delete volBook[chapter][i+1];\n          delete minVolBook[chapter][i+1];\n          delete limitBook[chapter][i+1];\n\n          delete ethAddressBook[chapter][i+1];\n          delete firstAddressBook[chapter][i+1];\n          delete secondAddressBook[chapter][i+1];\n        }\n      }\n    }\n    buyBook[chapter].length = buyBook[chapter].length - numsCleared[chapter];\n    volBook[chapter].length = volBook[chapter].length - numsCleared[chapter];\n    minVolBook[chapter].length = minVolBook[chapter].length - numsCleared[chapter];\n    limitBook[chapter].length = limitBook[chapter].length - numsCleared[chapter];\n\n    ethAddressBook[chapter].length = ethAddressBook[chapter].length - numsCleared[chapter];\n    firstAddressBook[chapter].length = firstAddressBook[chapter].length - numsCleared[chapter];\n    secondAddressBook[chapter].length = secondAddressBook[chapter].length - numsCleared[chapter];\n\n    numsCleared[chapter] = 0;\n    return true;\n  }\n\n  // Checks if POW (nonce) is valid\n  // Performs nonce verification (keccak256)\n  // Helper for giveMatch\n  function isValidPOW(address depositAddress, uint chapter, uint index1,\n                      uint index2, uint nonce)\n    private\n    view\n    returns(bool isValid)\n  {\n    if (params.difficulty < keccak256(depositAddress, chapter, index1, index2, nonce)) {\n      return false;\n    }\n    return true;\n  }\n\n  // Function to pay the miner what's due\n  function payMiner(uint chapter, address depositAddress, uint alphaVol)\n    private\n  {\n    // Calculate the miner's payment\n    uint minerPayment = ((params.minerShare * closureFees[chapter][true] * alphaVol) /\n                          (PRECISION * PRECISION));\n    // Pay the miner\n    depositAddress.transfer(minerPayment);\n  }\n\n  // Miners suggest matches with this function\n  // Wrapper for calcRateAndVol and isValidPOW, performs other required functions\n  function giveMatch(address depositAddress, uint chapter,\n                    uint index1, uint index2, uint nonce)\n    public\n    minerWhitelisted(msg.sender)\n    returns(bool isValid)\n  {\n    // Validate nonce\n    require(isValidPOW(depositAddress, chapter, index1, index2, nonce));\n    var (mimRate, alphaVol) = calcRateAndVol(chapter, index1, index2);\n    require(alphaVol > 0);\n    // which order is buying and selling ETH?\n    // buy-sell copy1\n    uint buyIndex;\n    uint sellIndex;\n    if (buyBook[chapter][index1]) {\n      buyIndex = index1;\n      sellIndex = index2;\n    } else{\n      buyIndex = index2;\n      sellIndex = index1;\n    }\n    payMiner(chapter, depositAddress, alphaVol);\n    clearBalance(alphaVol, limitBook[chapter][buyIndex], limitBook[chapter][sellIndex]);\n    alertTraders(chapter, index1, index2, mimRate, alphaVol);\n    clearTrade(chapter, index1, index2, mimRate, alphaVol);\n    cleanChapter(chapter);\n    return true;\n  }\n\n  // Allows traders to place orders\n  function placeOrder(bool buyETH, uint volume, uint minVolume, uint limit,\n                      address ethAddress, bytes32[2] firstAddress,\n                      bytes32[2] otherAddress, uint chapter)\n    public\n    payable\n    traderWhitelisted(msg.sender)\n    returns(bool accepted)\n  {\n    require(volume > 0);\n    require(minVolume > 0);\n    require(volume >= minVolume);\n    require(limit > 0);\n    // TODO: NEXT VERSION: Instant refunds (prototype code below)\n    if (buyETH) {\n      require(limit * msg.value >= volume * closureFees[chapter][buyETH]);\n      openBalance += volume * closureFees[chapter][buyETH] * limit / (PRECISION * PRECISION);\n      //msg.sender.transfer((limit * msg.value) - (volume * params.closureFee));\n    } else{\n      require(msg.value >= volume * closureFees[chapter][buyETH] / PRECISION);\n      openBalance += volume * closureFees[chapter][buyETH] / PRECISION;\n      //msg.sender.transfer(msg.value - (volume * params.closureFee / PRECISION));\n    }\n    require(buyBook[chapter].length > 0);\n\n    buyBook[chapter].push(buyETH);\n    volBook[chapter].push(volume);\n    minVolBook[chapter].push(minVolume);\n    limitBook[chapter].push(limit);\n\n    ethAddressBook[chapter].push(ethAddress);\n    firstAddressBook[chapter].push(firstAddress);\n    secondAddressBook[chapter].push(otherAddress);\n    return true;\n  }\n\n  // Allows traders to cancel orders\n  function cancelOrder(uint chapter, uint index)\n    public\n    returns(bool accepted)\n  {\n    require(index < buyBook[chapter].length);\n    // Can't cancel other people's orders\n    require(msg.sender == ethAddressBook[chapter][index]);\n\n    uint limit = limitBook[chapter][index];\n    uint volume = volBook[chapter][index];\n    bool buyETH = buyBook[chapter][index];\n\n    // Refund according to alpha transaction volume\n    if (buyBook[chapter][index]) {\n      msg.sender.transfer(volume * (closureFees[chapter][buyETH] - cancelFees[chapter][buyETH]) / limit);\n    } else{\n      msg.sender.transfer(volume * (closureFees[chapter][buyETH] - cancelFees[chapter][buyETH]) / limit);\n    }\n    delete buyBook[chapter][index];\n    delete volBook[chapter][index];\n    delete minVolBook[chapter][index];\n    delete limitBook[chapter][index];\n\n    delete ethAddressBook[chapter][index];\n    delete firstAddressBook[chapter][index];\n    delete secondAddressBook[chapter][index];\n\n    numsCleared[chapter] += 1;\n    cleanChapter(chapter);\n    return true;\n  }\n}\n",
  "sourcePath": "/Users/Karim/Desktop/Valex/contracts/Exchange.sol",
  "compiler": {
    "name": "solc",
    "version": "0.4.18+commit.9cf6e910.Emscripten.clang"
  },
  "schemaVersion": "1.0.1",
  "updatedAt": "2018-04-24T05:04:48.635Z"
}