{
  "contractName": "Exchange",
  "abi": [
    {
      "constant": true,
      "inputs": [
        {
          "name": "",
          "type": "uint256"
        },
        {
          "name": "",
          "type": "uint256"
        },
        {
          "name": "",
          "type": "uint256"
        }
      ],
      "name": "secondAddressBook",
      "outputs": [
        {
          "name": "",
          "type": "bytes32"
        }
      ],
      "payable": false,
      "stateMutability": "view",
      "type": "function"
    },
    {
      "constant": true,
      "inputs": [
        {
          "name": "chapter",
          "type": "uint256"
        }
      ],
      "name": "getSecondAddressChapter",
      "outputs": [
        {
          "name": "secondAddressChapter",
          "type": "bytes32[2][]"
        }
      ],
      "payable": false,
      "stateMutability": "view",
      "type": "function"
    },
    {
      "constant": true,
      "inputs": [
        {
          "name": "",
          "type": "uint256"
        },
        {
          "name": "",
          "type": "uint256"
        },
        {
          "name": "",
          "type": "uint256"
        }
      ],
      "name": "firstAddressBook",
      "outputs": [
        {
          "name": "",
          "type": "bytes32"
        }
      ],
      "payable": false,
      "stateMutability": "view",
      "type": "function"
    },
    {
      "constant": true,
      "inputs": [
        {
          "name": "",
          "type": "uint256"
        },
        {
          "name": "",
          "type": "uint256"
        }
      ],
      "name": "buyBook",
      "outputs": [
        {
          "name": "",
          "type": "bool"
        }
      ],
      "payable": false,
      "stateMutability": "view",
      "type": "function"
    },
    {
      "constant": true,
      "inputs": [
        {
          "name": "chapter",
          "type": "uint256"
        }
      ],
      "name": "getOrderChapter",
      "outputs": [
        {
          "name": "buyChapter",
          "type": "bool[]"
        },
        {
          "name": "volChapter",
          "type": "uint256[]"
        },
        {
          "name": "minVolChapter",
          "type": "uint256[]"
        },
        {
          "name": "limitChapter",
          "type": "uint256[]"
        }
      ],
      "payable": false,
      "stateMutability": "view",
      "type": "function"
    },
    {
      "constant": false,
      "inputs": [
        {
          "name": "buyETH",
          "type": "bool"
        },
        {
          "name": "volume",
          "type": "uint256"
        },
        {
          "name": "minVolume",
          "type": "uint256"
        },
        {
          "name": "limit",
          "type": "uint256"
        },
        {
          "name": "ethAddress",
          "type": "address"
        },
        {
          "name": "firstAddress",
          "type": "bytes32[2]"
        },
        {
          "name": "otherAddress",
          "type": "bytes32[2]"
        },
        {
          "name": "chapter",
          "type": "uint256"
        }
      ],
      "name": "placeOrder",
      "outputs": [
        {
          "name": "accepted",
          "type": "bool"
        }
      ],
      "payable": true,
      "stateMutability": "payable",
      "type": "function"
    },
    {
      "constant": true,
      "inputs": [
        {
          "name": "",
          "type": "uint256"
        },
        {
          "name": "",
          "type": "uint256"
        }
      ],
      "name": "ethAddressBook",
      "outputs": [
        {
          "name": "",
          "type": "address"
        }
      ],
      "payable": false,
      "stateMutability": "view",
      "type": "function"
    },
    {
      "constant": true,
      "inputs": [
        {
          "name": "",
          "type": "uint256"
        },
        {
          "name": "",
          "type": "uint256"
        }
      ],
      "name": "limitBook",
      "outputs": [
        {
          "name": "",
          "type": "uint256"
        }
      ],
      "payable": false,
      "stateMutability": "view",
      "type": "function"
    },
    {
      "constant": true,
      "inputs": [],
      "name": "owner",
      "outputs": [
        {
          "name": "",
          "type": "address"
        }
      ],
      "payable": false,
      "stateMutability": "view",
      "type": "function"
    },
    {
      "constant": true,
      "inputs": [
        {
          "name": "chapter",
          "type": "uint256"
        },
        {
          "name": "index1",
          "type": "uint256"
        },
        {
          "name": "index2",
          "type": "uint256"
        }
      ],
      "name": "calcRateAndVol",
      "outputs": [
        {
          "name": "mimRate",
          "type": "uint256"
        },
        {
          "name": "ethVol",
          "type": "uint256"
        }
      ],
      "payable": false,
      "stateMutability": "view",
      "type": "function"
    },
    {
      "constant": true,
      "inputs": [],
      "name": "openBalance",
      "outputs": [
        {
          "name": "",
          "type": "uint256"
        }
      ],
      "payable": false,
      "stateMutability": "view",
      "type": "function"
    },
    {
      "constant": true,
      "inputs": [
        {
          "name": "",
          "type": "uint256"
        },
        {
          "name": "",
          "type": "uint256"
        }
      ],
      "name": "minVolBook",
      "outputs": [
        {
          "name": "",
          "type": "uint256"
        }
      ],
      "payable": false,
      "stateMutability": "view",
      "type": "function"
    },
    {
      "constant": false,
      "inputs": [
        {
          "name": "_newOwner",
          "type": "address"
        }
      ],
      "name": "changeOwner",
      "outputs": [],
      "payable": false,
      "stateMutability": "nonpayable",
      "type": "function"
    },
    {
      "constant": true,
      "inputs": [],
      "name": "PRECISION",
      "outputs": [
        {
          "name": "",
          "type": "uint256"
        }
      ],
      "payable": false,
      "stateMutability": "view",
      "type": "function"
    },
    {
      "constant": false,
      "inputs": [
        {
          "name": "chapter",
          "type": "uint256"
        },
        {
          "name": "index",
          "type": "uint256"
        }
      ],
      "name": "cancelOrder",
      "outputs": [
        {
          "name": "accepted",
          "type": "bool"
        }
      ],
      "payable": false,
      "stateMutability": "nonpayable",
      "type": "function"
    },
    {
      "constant": true,
      "inputs": [],
      "name": "params",
      "outputs": [
        {
          "name": "closureFee",
          "type": "uint256"
        },
        {
          "name": "cancelFee",
          "type": "uint256"
        },
        {
          "name": "cleanSize",
          "type": "uint256"
        },
        {
          "name": "minerShare",
          "type": "uint256"
        },
        {
          "name": "difficulty",
          "type": "bytes32"
        }
      ],
      "payable": false,
      "stateMutability": "view",
      "type": "function"
    },
    {
      "constant": false,
      "inputs": [
        {
          "name": "depositAddress",
          "type": "address"
        },
        {
          "name": "chapter",
          "type": "uint256"
        },
        {
          "name": "index1",
          "type": "uint256"
        },
        {
          "name": "index2",
          "type": "uint256"
        },
        {
          "name": "nonce",
          "type": "uint256"
        }
      ],
      "name": "giveMatch",
      "outputs": [
        {
          "name": "isValid",
          "type": "bool"
        }
      ],
      "payable": false,
      "stateMutability": "nonpayable",
      "type": "function"
    },
    {
      "constant": false,
      "inputs": [
        {
          "name": "chapter",
          "type": "uint256"
        },
        {
          "name": "closureFeeBuy",
          "type": "uint256"
        },
        {
          "name": "closureFeeSell",
          "type": "uint256"
        },
        {
          "name": "cancelFeeBuy",
          "type": "uint256"
        },
        {
          "name": "cancelFeeSell",
          "type": "uint256"
        }
      ],
      "name": "addChapter",
      "outputs": [],
      "payable": false,
      "stateMutability": "nonpayable",
      "type": "function"
    },
    {
      "constant": true,
      "inputs": [
        {
          "name": "chapter",
          "type": "uint256"
        }
      ],
      "name": "getETHAddressChapter",
      "outputs": [
        {
          "name": "ethAddressChapter",
          "type": "address[]"
        }
      ],
      "payable": false,
      "stateMutability": "view",
      "type": "function"
    },
    {
      "constant": true,
      "inputs": [
        {
          "name": "",
          "type": "uint256"
        },
        {
          "name": "",
          "type": "uint256"
        }
      ],
      "name": "volBook",
      "outputs": [
        {
          "name": "",
          "type": "uint256"
        }
      ],
      "payable": false,
      "stateMutability": "view",
      "type": "function"
    },
    {
      "constant": true,
      "inputs": [
        {
          "name": "chapter",
          "type": "uint256"
        }
      ],
      "name": "getFirstAddressChapter",
      "outputs": [
        {
          "name": "firstAddressChapter",
          "type": "bytes32[2][]"
        }
      ],
      "payable": false,
      "stateMutability": "view",
      "type": "function"
    },
    {
      "inputs": [
        {
          "name": "closureFeeBuy0",
          "type": "uint256"
        },
        {
          "name": "closureFeeSell0",
          "type": "uint256"
        },
        {
          "name": "cancelFeeBuy0",
          "type": "uint256"
        },
        {
          "name": "cancelFeeSell0",
          "type": "uint256"
        },
        {
          "name": "cleanSize",
          "type": "uint256"
        },
        {
          "name": "minerShare",
          "type": "uint256"
        },
        {
          "name": "difficulty",
          "type": "bytes32"
        }
      ],
      "payable": false,
      "stateMutability": "nonpayable",
      "type": "constructor"
    },
    {
      "anonymous": false,
      "inputs": [
        {
          "indexed": false,
          "name": "ethAddress1",
          "type": "address"
        },
        {
          "indexed": false,
          "name": "ethAddress2",
          "type": "address"
        },
        {
          "indexed": false,
          "name": "firstAddress1",
          "type": "bytes32[2]"
        },
        {
          "indexed": false,
          "name": "firstAddress2",
          "type": "bytes32[2]"
        },
        {
          "indexed": false,
          "name": "otherAddress1",
          "type": "bytes32[2]"
        },
        {
          "indexed": false,
          "name": "otherAddress2",
          "type": "bytes32[2]"
        },
        {
          "indexed": false,
          "name": "mimRate",
          "type": "uint256"
        },
        {
          "indexed": false,
          "name": "ethVol",
          "type": "uint256"
        }
      ],
      "name": "TradeInfo",
      "type": "event"
    }
  ],
  "bytecode": "0x6060604052670de0b6b3a7640000600055600060015533601160006101000a81548173ffffffffffffffffffffffffffffffffffffffff021916908373ffffffffffffffffffffffffffffffffffffffff16021790555034156200006257600080fd5b60405160e08062003acb83398101604052808051906020019091908051906020019091908051906020019091908051906020019091908051906020019091908051906020019091908051906020019091905050620000d68383836200010764010000000002620033d4176401000000009004565b620000fa6000888888886200012d6401000000000262001abd176401000000009004565b5050505050505062000695565b826002800181905550816002600301819055508060026004018160001916905550505050565b601160009054906101000a900473ffffffffffffffffffffffffffffffffffffffff168073ffffffffffffffffffffffffffffffffffffffff163373ffffffffffffffffffffffffffffffffffffffff161415156200018b57600080fd5b600760008781526020019081526020016000208054806001018281620001b29190620004eb565b91600052602060002090602091828204019190066000909190916101000a81548160ff0219169083151502179055505060086000878152602001908152602001600020805480600101828162000209919062000528565b91600052602060002090016000809091909150555060096000878152602001908152602001600020805480600101828162000245919062000528565b916000526020600020900160008090919091505550600a6000878152602001908152602001600020805480600101828162000281919062000528565b916000526020600020900160008090919091505550600b60008781526020019081526020016000208054806001018281620002bd919062000557565b9160005260206000209001600080909190916101000a81548173ffffffffffffffffffffffffffffffffffffffff021916908373ffffffffffffffffffffffffffffffffffffffff16021790555050600c6000878152602001908152602001600020805480600101828162000333919062000586565b91600052602060002090600202016000604080519081016040528060006001026000191660001916815260200160006001026000191660001916815250909190915090600262000385929190620005bb565b5050600d60008781526020019081526020016000208054806001018281620003ae919062000586565b91600052602060002090600202016000604080519081016040528060006001026000191660001916815260200160006001026000191660001916815250909190915090600262000400929190620005bb565b50506010805480600101828162000418919062000528565b91600052602060002090016000809091909150555084600e6000888152602001908152602001600020600060011515151581526020019081526020016000208190555083600e60008881526020019081526020016000206000801515151581526020019081526020016000208190555082600f6000888152602001908152602001600020600060011515151581526020019081526020016000208190555081600f600088815260200190815260200160002060008015151515815260200190815260200160002081905550505050505050565b8154818355818115116200052357601f016020900481601f0160209004836000526020600020918201910162000522919062000606565b5b505050565b815481835581811511620005525781836000526020600020918201910162000551919062000606565b5b505050565b815481835581811511620005815781836000526020600020918201910162000580919062000606565b5b505050565b815481835581811511620005b657600202816002028360005260206000209182019101620005b591906200062e565b5b505050565b8260028101928215620005f3579160200282015b82811115620005f2578251829060001916905591602001919060010190620005cf565b5b5090506200060291906200065f565b5090565b6200062b91905b80821115620006275760008160009055506001016200060d565b5090565b90565b6200065c91905b808211156200065857600081816200064e919062000687565b5060020162000635565b5090565b90565b6200068491905b808211156200068057600081600090555060010162000666565b5090565b90565b506000815560010160009055565b61342680620006a56000396000f30060606040526004361061011d576000357c0100000000000000000000000000000000000000000000000000000000900463ffffffff16806310fc8a1514610122578063145404fc14610173578063324a14671461020e5780633af8c2d51461025f5780633b6a0800146102a357806349827685146103f357806353c1d882146104c05780638139cbc61461052c5780638da5cb5b1461056c5780638eae03d2146105c15780639138ec3a146106115780639febbcfa1461063a578063a6f9dae11461067a578063aaf5eb68146106b3578063b6ed0632146106dc578063cff0ab9614610720578063d2426ab91461076d578063d7cefcda146107e2578063e0cfdce014610829578063e0f1f59f146108a1578063ee4b94bb146108e1575b600080fd5b341561012d57600080fd5b610155600480803590602001909190803590602001909190803590602001909190505061097c565b60405180826000191660001916815260200191505060405180910390f35b341561017e57600080fd5b61019460048080359060200190919050506109bf565b60405180806020018281038252838181518152602001915080516000925b818410156101fd57828490602001906020020151600260200280838360005b838110156101ec5780820151818401526020810190506101d1565b5050505090500192600101926101b2565b925050509250505060405180910390f35b341561021957600080fd5b6102416004808035906020019091908035906020019091908035906020019091905050610a6c565b60405180826000191660001916815260200191505060405180910390f35b341561026a57600080fd5b6102896004808035906020019091908035906020019091905050610aaf565b604051808215151515815260200191505060405180910390f35b34156102ae57600080fd5b6102c46004808035906020019091905050610af1565b6040518080602001806020018060200180602001858103855289818151815260200191508051906020019060200280838360005b838110156103135780820151818401526020810190506102f8565b50505050905001858103845288818151815260200191508051906020019060200280838360005b8381101561035557808201518184015260208101905061033a565b50505050905001858103835287818151815260200191508051906020019060200280838360005b8381101561039757808201518184015260208101905061037c565b50505050905001858103825286818151815260200191508051906020019060200280838360005b838110156103d95780820151818401526020810190506103be565b505050509050019850505050505050505060405180910390f35b6104a66004808035151590602001909190803590602001909190803590602001909190803590602001909190803573ffffffffffffffffffffffffffffffffffffffff1690602001909190806040019060028060200260405190810160405280929190826002602002808284378201915050505050919080604001906002806020026040519081016040528092919082600260200280828437820191505050505091908035906020019091905050610cd9565b604051808215151515815260200191505060405180910390f35b34156104cb57600080fd5b6104ea6004808035906020019091908035906020019091905050611078565b604051808273ffffffffffffffffffffffffffffffffffffffff1673ffffffffffffffffffffffffffffffffffffffff16815260200191505060405180910390f35b341561053757600080fd5b61055660048080359060200190919080359060200190919050506110c6565b6040518082815260200191505060405180910390f35b341561057757600080fd5b61057f6110f7565b604051808273ffffffffffffffffffffffffffffffffffffffff1673ffffffffffffffffffffffffffffffffffffffff16815260200191505060405180910390f35b34156105cc57600080fd5b6105f4600480803590602001909190803590602001909190803590602001909190505061111d565b604051808381526020018281526020019250505060405180910390f35b341561061c57600080fd5b6106246113dd565b6040518082815260200191505060405180910390f35b341561064557600080fd5b61066460048080359060200190919080359060200190919050506113e3565b6040518082815260200191505060405180910390f35b341561068557600080fd5b6106b1600480803573ffffffffffffffffffffffffffffffffffffffff16906020019091905050611414565b005b34156106be57600080fd5b6106c66114b6565b6040518082815260200191505060405180910390f35b34156106e757600080fd5b61070660048080359060200190919080359060200190919050506114bc565b604051808215151515815260200191505060405180910390f35b341561072b57600080fd5b610733611963565b6040518086815260200185815260200184815260200183815260200182600019166000191681526020019550505050505060405180910390f35b341561077857600080fd5b6107c8600480803573ffffffffffffffffffffffffffffffffffffffff16906020019091908035906020019091908035906020019091908035906020019091908035906020019091905050611987565b604051808215151515815260200191505060405180910390f35b34156107ed57600080fd5b6108276004808035906020019091908035906020019091908035906020019091908035906020019091908035906020019091905050611abd565b005b341561083457600080fd5b61084a6004808035906020019091905050611e66565b6040518080602001828103825283818151815260200191508051906020019060200280838360005b8381101561088d578082015181840152602081019050610872565b505050509050019250505060405180910390f35b34156108ac57600080fd5b6108cb6004808035906020019091908035906020019091905050611f0d565b6040518082815260200191505060405180910390f35b34156108ec57600080fd5b6109026004808035906020019091905050611f3e565b60405180806020018281038252838181518152602001915080516000925b8184101561096b57828490602001906020020151600260200280838360005b8381101561095a57808201518184015260208101905061093f565b505050509050019260010192610920565b925050509250505060405180910390f35b600d6020528260005260406000208281548110151561099757fe5b9060005260206000209060020201816002811015156109b257fe5b0160009250925050505481565b6109c76130ca565b600d6000838152602001908152602001600020805480602002602001604051908101604052809291908181526020016000905b82821015610a615783829060005260206000209060020201600280602002604051908101604052809291908260028015610a4d576020028201915b81546000191681526020019060010190808311610a35575b5050505050815260200190600101906109fa565b505050509050919050565b600c60205282600052604060002082815481101515610a8757fe5b906000526020600020906002020181600281101515610aa257fe5b0160009250925050505481565b600760205281600052604060002081815481101515610aca57fe5b9060005260206000209060209182820401919006915091509054906101000a900460ff1681565b610af96130de565b610b016130f2565b610b096130f2565b610b116130f2565b600760008681526020019081526020016000206008600087815260200190815260200160002060096000888152602001908152602001600020600a600089815260200190815260200160002083805480602002602001604051908101604052809291908181526020018280548015610bcd57602002820191906000526020600020906000905b82829054906101000a900460ff16151581526020019060010190602082600001049283019260010382029150808411610b975790505b5050505050935082805480602002602001604051908101604052809291908181526020018280548015610c1f57602002820191906000526020600020905b815481526020019060010190808311610c0b575b5050505050925081805480602002602001604051908101604052809291908181526020018280548015610c7157602002820191906000526020600020905b815481526020019060010190808311610c5d575b5050505050915080805480602002602001604051908101604052809291908181526020018280548015610cc357602002820191906000526020600020905b815481526020019060010190808311610caf575b5050505050905093509350935093509193509193565b60008088111515610ce957600080fd5b600087111515610cf857600080fd5b868810151515610d0757600080fd5b600086111515610d1657600080fd5b8815610da957600e600083815260200190815260200160002060008a15151515815260200190815260200160002054880234870210151515610d5757600080fd5b6000546000540286600e600085815260200190815260200160002060008c151515158152602001908152602001600020548a0202811515610d9457fe5b04600160008282540192505081905550610e37565b600054600e600084815260200190815260200160002060008b151515158152602001908152602001600020548902811515610de057fe5b043410151515610def57600080fd5b600054600e600084815260200190815260200160002060008b151515158152602001908152602001600020548902811515610e2657fe5b046001600082825401925050819055505b60006007600084815260200190815260200160002080549050111515610e5c57600080fd5b600760008381526020019081526020016000208054806001018281610e819190613106565b91600052602060002090602091828204019190068b909190916101000a81548160ff02191690831515021790555050600860008381526020019081526020016000208054806001018281610ed59190613140565b916000526020600020900160008a90919091505550600960008381526020019081526020016000208054806001018281610f0f9190613140565b916000526020600020900160008990919091505550600a60008381526020019081526020016000208054806001018281610f499190613140565b916000526020600020900160008890919091505550600b60008381526020019081526020016000208054806001018281610f83919061316c565b9160005260206000209001600087909190916101000a81548173ffffffffffffffffffffffffffffffffffffffff021916908373ffffffffffffffffffffffffffffffffffffffff16021790555050600c60008381526020019081526020016000208054806001018281610ff79190613198565b9160005260206000209060020201600086909190915090600261101b9291906131ca565b5050600d600083815260200190815260200160002080548060010182816110429190613198565b916000526020600020906002020160008590919091509060026110669291906131ca565b50506001905098975050505050505050565b600b6020528160005260406000208181548110151561109357fe5b90600052602060002090016000915091509054906101000a900473ffffffffffffffffffffffffffffffffffffffff1681565b600a602052816000526040600020818154811015156110e157fe5b9060005260206000209001600091509150505481565b601160009054906101000a900473ffffffffffffffffffffffffffffffffffffffff1681565b60008060008061112b613210565b611133613210565b61113e898989611feb565b151561115657600080819150809050955095506113d1565b600760008a81526020019081526020016000208881548110151561117657fe5b90600052602060002090602091828204019190069054906101000a900460ff16156111a6578793508692506111ad565b8693508792505b608060405190810160405280600115158152602001600860008c8152602001908152602001600020868154811015156111e257fe5b9060005260206000209001548152602001600960008c81526020019081526020016000208681548110151561121357fe5b9060005260206000209001548152602001600a60008c81526020019081526020016000208681548110151561124457fe5b9060005260206000209001548152509150608060405190810160405280600015158152602001600860008c81526020019081526020016000208581548110151561128a57fe5b9060005260206000209001548152602001600960008c8152602001908152602001600020858154811015156112bb57fe5b9060005260206000209001548152602001600a60008c8152602001908152602001600020858154811015156112ec57fe5b906000526020600020900154815250905080606001518260600151101561131f57600080819150809050955095506113d1565b6002816060015183606001510181151561133557fe5b0495508581602001510260005483602001510211156113875785816020015102600054836040015102111561137657600080819150809050955095506113d1565b8586826020015102955095506113d1565b6000548260200151028682602001510211156113c6576000548260200151028682604001510211156113c557600080819150809050955095506113d1565b5b858260200151955095505b50505050935093915050565b60015481565b6009602052816000526040600020818154811015156113fe57fe5b9060005260206000209001600091509150505481565b601160009054906101000a900473ffffffffffffffffffffffffffffffffffffffff168073ffffffffffffffffffffffffffffffffffffffff163373ffffffffffffffffffffffffffffffffffffffff1614151561147157600080fd5b81601160006101000a81548173ffffffffffffffffffffffffffffffffffffffff021916908373ffffffffffffffffffffffffffffffffffffffff1602179055505050565b60005481565b6000806000806007600087815260200190815260200160002080549050851015156114e657600080fd5b600b60008781526020019081526020016000208581548110151561150657fe5b906000526020600020900160009054906101000a900473ffffffffffffffffffffffffffffffffffffffff1673ffffffffffffffffffffffffffffffffffffffff163373ffffffffffffffffffffffffffffffffffffffff1614151561156b57600080fd5b600a60008781526020019081526020016000208581548110151561158b57fe5b906000526020600020900154925060086000878152602001908152602001600020858154811015156115b957fe5b906000526020600020900154915060076000878152602001908152602001600020858154811015156115e757fe5b90600052602060002090602091828204019190069054906101000a900460ff169050600760008781526020019081526020016000208581548110151561162957fe5b90600052602060002090602091828204019190069054906101000a900460ff16156116f2573373ffffffffffffffffffffffffffffffffffffffff166108fc84600f60008a815260200190815260200160002060008515151515815260200190815260200160002054600e60008b8152602001908152602001600020600086151515158152602001908152602001600020540385028115156116c757fe5b049081150290604051600060405180830381858888f1935050505015156116ed57600080fd5b611792565b3373ffffffffffffffffffffffffffffffffffffffff166108fc84600f60008a815260200190815260200160002060008515151515815260200190815260200160002054600e60008b81526020019081526020016000206000861515151581526020019081526020016000205403850281151561176b57fe5b049081150290604051600060405180830381858888f19350505050151561179157600080fd5b5b60076000878152602001908152602001600020858154811015156117b257fe5b90600052602060002090602091828204019190066101000a81549060ff021916905560086000878152602001908152602001600020858154811015156117f457fe5b906000526020600020900160009055600960008781526020019081526020016000208581548110151561182357fe5b906000526020600020900160009055600a60008781526020019081526020016000208581548110151561185257fe5b906000526020600020900160009055600b60008781526020019081526020016000208581548110151561188157fe5b906000526020600020900160006101000a81549073ffffffffffffffffffffffffffffffffffffffff0219169055600c6000878152602001908152602001600020858154811015156118cf57fe5b906000526020600020906002020160006118e9919061323b565b600d60008781526020019081526020016000208581548110151561190957fe5b90600052602060002090600202016000611923919061323b565b600160108781548110151561193457fe5b90600052602060002090016000828254019250508190555061195586612147565b506001935050505092915050565b60028060000154908060010154908060020154908060030154908060040154905085565b600080600080600061199c8a8a8a8a8a612949565b15156119a757600080fd5b6119b289898961111d565b935093506000831115156119c557600080fd5b600760008a8152602001908152602001600020888154811015156119e557fe5b90600052602060002090602091828204019190069054906101000a900460ff1615611a1557879150869050611a1c565b8691508790505b611a27898b856129e7565b611a8883600a60008c815260200190815260200160002084815481101515611a4b57fe5b906000526020600020900154600a60008d815260200190815260200160002084815481101515611a7757fe5b906000526020600020900154612a77565b611a958989898787612b11565b611aa28989898787612db9565b611aab89612147565b50600194505050505095945050505050565b601160009054906101000a900473ffffffffffffffffffffffffffffffffffffffff168073ffffffffffffffffffffffffffffffffffffffff163373ffffffffffffffffffffffffffffffffffffffff16141515611b1a57600080fd5b600760008781526020019081526020016000208054806001018281611b3f9190613106565b91600052602060002090602091828204019190066000909190916101000a81548160ff02191690831515021790555050600860008781526020019081526020016000208054806001018281611b949190613140565b916000526020600020900160008090919091505550600960008781526020019081526020016000208054806001018281611bce9190613140565b916000526020600020900160008090919091505550600a60008781526020019081526020016000208054806001018281611c089190613140565b916000526020600020900160008090919091505550600b60008781526020019081526020016000208054806001018281611c42919061316c565b9160005260206000209001600080909190916101000a81548173ffffffffffffffffffffffffffffffffffffffff021916908373ffffffffffffffffffffffffffffffffffffffff16021790555050600c60008781526020019081526020016000208054806001018281611cb69190613198565b916000526020600020906002020160006040805190810160405280600060010260001916600019168152602001600060010260001916600019168152509091909150906002611d069291906131ca565b5050600d60008781526020019081526020016000208054806001018281611d2d9190613198565b916000526020600020906002020160006040805190810160405280600060010260001916600019168152602001600060010260001916600019168152509091909150906002611d7d9291906131ca565b505060108054806001018281611d939190613140565b91600052602060002090016000809091909150555084600e6000888152602001908152602001600020600060011515151581526020019081526020016000208190555083600e60008881526020019081526020016000206000801515151581526020019081526020016000208190555082600f6000888152602001908152602001600020600060011515151581526020019081526020016000208190555081600f600088815260200190815260200160002060008015151515815260200190815260200160002081905550505050505050565b611e6e613249565b600b6000838152602001908152602001600020805480602002602001604051908101604052809291908181526020018280548015611f0157602002820191906000526020600020905b8160009054906101000a900473ffffffffffffffffffffffffffffffffffffffff1673ffffffffffffffffffffffffffffffffffffffff1681526020019060010190808311611eb7575b50505050509050919050565b600860205281600052604060002081815481101515611f2857fe5b9060005260206000209001600091509150505481565b611f466130ca565b600c6000838152602001908152602001600020805480602002602001604051908101604052809291908181526020016000905b82821015611fe05783829060005260206000209060020201600280602002604051908101604052809291908260028015611fcc576020028201915b81546000191681526020019060010190808311611fb4575b505050505081526020019060010190611f79565b505050509050919050565b600060076000858152602001908152602001600020805490508310151561201157600080fd5b60076000858152602001908152602001600020805490508210151561203557600080fd5b600760008581526020019081526020016000208281548110151561205557fe5b90600052602060002090602091828204019190069054906101000a900460ff161515600760008681526020019081526020016000208481548110151561209757fe5b90600052602060002090602091828204019190069054906101000a900460ff161515141515156120c657600080fd5b600060086000868152602001908152602001600020848154811015156120e857fe5b9060005260206000209001541415151561210157600080fd5b6000600860008681526020019081526020016000208381548110151561212357fe5b9060005260206000209001541415151561213c57600080fd5b600190509392505050565b600080600280015460108481548110151561215e57fe5b90600052602060002090015410156121795760009150612943565b600190505b60076000848152602001908152602001600020805490508110156126e057600060086000858152602001908152602001600020828154811015156121be57fe5b90600052602060002090015414156126d35760016007600085815260200190815260200160002080549050038110156126d257600760008481526020019081526020016000206001820181548110151561221457fe5b90600052602060002090602091828204019190069054906101000a900460ff16600760008581526020019081526020016000208281548110151561225457fe5b90600052602060002090602091828204019190066101000a81548160ff02191690831515021790555060086000848152602001908152602001600020600182018154811015156122a057fe5b90600052602060002090015460086000858152602001908152602001600020828154811015156122cc57fe5b90600052602060002090018190555060096000848152602001908152602001600020600182018154811015156122fe57fe5b906000526020600020900154600960008581526020019081526020016000208281548110151561232a57fe5b906000526020600020900181905550600a60008481526020019081526020016000206001820181548110151561235c57fe5b906000526020600020900154600a60008581526020019081526020016000208281548110151561238857fe5b906000526020600020900181905550600b6000848152602001908152602001600020600182018154811015156123ba57fe5b906000526020600020900160009054906101000a900473ffffffffffffffffffffffffffffffffffffffff16600b60008581526020019081526020016000208281548110151561240657fe5b906000526020600020900160006101000a81548173ffffffffffffffffffffffffffffffffffffffff021916908373ffffffffffffffffffffffffffffffffffffffff160217905550600c60008481526020019081526020016000206001820181548110151561247257fe5b9060005260206000209060020201600c6000858152602001908152602001600020828154811015156124a057fe5b90600052602060002090600202019060026124bc92919061325d565b50600d6000848152602001908152602001600020600182018154811015156124e057fe5b9060005260206000209060020201600d60008581526020019081526020016000208281548110151561250e57fe5b906000526020600020906002020190600261252a92919061325d565b50600760008481526020019081526020016000206001820181548110151561254e57fe5b90600052602060002090602091828204019190066101000a81549060ff0219169055600860008481526020019081526020016000206001820181548110151561259357fe5b90600052602060002090016000905560096000848152602001908152602001600020600182018154811015156125c557fe5b906000526020600020900160009055600a6000848152602001908152602001600020600182018154811015156125f757fe5b906000526020600020900160009055600b60008481526020019081526020016000206001820181548110151561262957fe5b906000526020600020900160006101000a81549073ffffffffffffffffffffffffffffffffffffffff0219169055600c60008481526020019081526020016000206001820181548110151561267a57fe5b90600052602060002090600202016000612694919061323b565b600d6000848152602001908152602001600020600182018154811015156126b757fe5b906000526020600020906002020160006126d1919061323b565b5b5b808060010191505061217e565b6010838154811015156126ef57fe5b9060005260206000209001546007600085815260200190815260200160002080549050036007600085815260200190815260200160002081612731919061329a565b5060108381548110151561274157fe5b906000526020600020900154600860008581526020019081526020016000208054905003600860008581526020019081526020016000208161278391906132d4565b5060108381548110151561279357fe5b90600052602060002090015460096000858152602001908152602001600020805490500360096000858152602001908152602001600020816127d591906132d4565b506010838154811015156127e557fe5b906000526020600020900154600a60008581526020019081526020016000208054905003600a60008581526020019081526020016000208161282791906132d4565b5060108381548110151561283757fe5b906000526020600020900154600b60008581526020019081526020016000208054905003600b6000858152602001908152602001600020816128799190613300565b5060108381548110151561288957fe5b906000526020600020900154600c60008581526020019081526020016000208054905003600c6000858152602001908152602001600020816128cb919061332c565b506010838154811015156128db57fe5b906000526020600020900154600d60008581526020019081526020016000208054905003600d60008581526020019081526020016000208161291d919061332c565b50600060108481548110151561292f57fe5b906000526020600020900181905550600191505b50919050565b60008585858585604051808673ffffffffffffffffffffffffffffffffffffffff1673ffffffffffffffffffffffffffffffffffffffff166c01000000000000000000000000028152601401858152602001848152602001838152602001828152602001955050505050506040518091039020600019166002600401546000191610156129d957600090506129de565b600190505b95945050505050565b6000805460005402600283600e60008881526020019081526020016000206000600115151515815260200190815260200160002054600260030154020202811515612a2e57fe5b0490508273ffffffffffffffffffffffffffffffffffffffff166108fc829081150290604051600060405180830381858888f193505050501515612a7157600080fd5b50505050565b60005482600e60008681526020019081526020016000206000801515151581526020019081526020016000205402811515612aae57fe5b04600160008282540392505081905550600054600054028183600e600087815260200190815260200160002060006001151515158152602001908152602001600020540202811515612afc57fe5b04600160008282540392505081905550505050565b7f389a889e7f65d263df200f5a0bc042c0ba9d0c600161ff14d87cc1daa06b8e6d600b600087815260200190815260200160002085815481101515612b5257fe5b906000526020600020900160009054906101000a900473ffffffffffffffffffffffffffffffffffffffff16600b600088815260200190815260200160002085815481101515612b9e57fe5b906000526020600020900160009054906101000a900473ffffffffffffffffffffffffffffffffffffffff16600c600089815260200190815260200160002087815481101515612bea57fe5b9060005260206000209060020201600c60008a815260200190815260200160002087815481101515612c1857fe5b9060005260206000209060020201600d60008b815260200190815260200160002089815481101515612c4657fe5b9060005260206000209060020201600d60008c815260200190815260200160002089815481101515612c7457fe5b90600052602060002090600202018888604051808973ffffffffffffffffffffffffffffffffffffffff1673ffffffffffffffffffffffffffffffffffffffff1681526020018873ffffffffffffffffffffffffffffffffffffffff1673ffffffffffffffffffffffffffffffffffffffff1681526020018760028015612d14576020028201915b81546000191681526020019060010190808311612cfc575b50508660028015612d3e576020028201915b81546000191681526020019060010190808311612d26575b50508560028015612d68576020028201915b81546000191681526020019060010190808311612d50575b50508460028015612d92576020028201915b81546000191681526020019060010190808311612d7a575b50508381526020018281526020019850505050505050505060405180910390a15050505050565b6000806007600088815260200190815260200160002086815481101515612ddc57fe5b90600052602060002090602091828204019190069054906101000a900460ff1615612e0c57859150849050612e13565b8491508590505b826008600089815260200190815260200160002083815481101515612e3457fe5b9060005260206000209001541415612e70576001601088815481101515612e5757fe5b9060005260206000209001600082825401925050819055505b826009600089815260200190815260200160002083815481101515612e9157fe5b9060005260206000209001541015612ed95760006009600089815260200190815260200160002083815481101515612ec557fe5b906000526020600020900181905550612f13565b826009600089815260200190815260200160002083815481101515612efa57fe5b9060005260206000209001600082825403925050819055505b826008600089815260200190815260200160002083815481101515612f3457fe5b906000526020600020900160008282540392505081905550600054848402811515612f5b57fe5b046008600089815260200190815260200160002082815481101515612f7c57fe5b9060005260206000209001541415612fb8576001601088815481101515612f9f57fe5b9060005260206000209001600082825401925050819055505b600054848402811515612fc757fe5b046009600089815260200190815260200160002082815481101515612fe857fe5b9060005260206000209001541015613030576000600960008981526020019081526020016000208281548110151561301c57fe5b906000526020600020900181905550613079565b60005484840281151561303f57fe5b04600960008981526020019081526020016000208281548110151561306057fe5b9060005260206000209001600082825403925050819055505b60005484840281151561308857fe5b0460086000898152602001908152602001600020828154811015156130a957fe5b90600052602060002090016000828254039250508190555050505050505050565b602060405190810160405280600081525090565b602060405190810160405280600081525090565b602060405190810160405280600081525090565b81548183558181151161313b57601f016020900481601f0160209004836000526020600020918201910161313a919061335e565b5b505050565b81548183558181151161316757818360005260206000209182019101613166919061335e565b5b505050565b81548183558181151161319357818360005260206000209182019101613192919061335e565b5b505050565b8154818355818115116131c5576002028160020283600052602060002091820191016131c49190613383565b5b505050565b82600281019282156131ff579160200282015b828111156131fe5782518290600019169055916020019190600101906131dd565b5b50905061320c91906133af565b5090565b6080604051908101604052806000151581526020016000815260200160008152602001600081525090565b506000815560010160009055565b602060405190810160405280600081525090565b8260028101928215613289579182015b8281111561328857825482559160010191906001019061326d565b5b50905061329691906133af565b5090565b8154818355818115116132cf57601f016020900481601f016020900483600052602060002091820191016132ce919061335e565b5b505050565b8154818355818115116132fb578183600052602060002091820191016132fa919061335e565b5b505050565b81548183558181151161332757818360005260206000209182019101613326919061335e565b5b505050565b815481835581811511613359576002028160020283600052602060002091820191016133589190613383565b5b505050565b61338091905b8082111561337c576000816000905550600101613364565b5090565b90565b6133ac91905b808211156133a8576000818161339f919061323b565b50600201613389565b5090565b90565b6133d191905b808211156133cd5760008160009055506001016133b5565b5090565b90565b8260028001819055508160026003018190555080600260040181600019169055505050505600a165627a7a723058200fe1bd6bfa4d00d442a21b8579318760d2cbd764e8bca7a8e55a54f72f3554ef0029",
  "source": "pragma solidity ^0.4.18;\n\nimport 'zeppelin-solidity/contracts/math/SafeMath.sol';\nimport './ExchangeStructs.sol';\n/// @title Exchange\n/// @author Karim Helmy\n\n// Primary contract: Describes functions of exchange\ncontract Exchange is ExchangeStructs {\n  // TODO: Make all operations safe\n  using SafeMath for uint;\n\n  // SECTION: Declaring/initializing variables\n  uint public PRECISION = 10 ** 18;\n\n  // separate out the open balance (includes unclosed fees, gas fees),\n  // which will be distributed between miners, the exchange, and traders,\n  // from closed balance, which belongs to the exchange\n  uint public openBalance = 0;\n\n  Parameters public params;\n\n  // separate chapters for different currency pairs\n  // that's why they're 2D\n  /*\n  * Web3 can't properly handle structs.\n  * Ethers.js can only handle them under experimental version.\n  * Therefore, the old orderBook and adressBook pattern won't work.\n  * \\_()_/\n  */\n  // separate chapters for different currency pairs\n  // that's why they're 2D\n  mapping (uint => bool[]) public buyBook;\n  mapping (uint => uint[]) public volBook;\n  mapping (uint => uint[]) public minVolBook;\n  mapping (uint => uint[]) public limitBook;\n\n  mapping (uint => address[]) public ethAddressBook;\n  mapping (uint => bytes32[2][]) public firstAddressBook;\n  mapping (uint => bytes32[2][]) public secondAddressBook;\n\n  mapping (uint => mapping (bool => uint)) closureFees;\n  mapping (uint => mapping (bool => uint)) cancelFees;\n\n  // Numbers of orders that have been closed are kept here\n  uint[] numsCleared;\n\n  address public owner = msg.sender;\n\n  // SECTION: Permissions\n  // Modified: http://solidity.readthedocs.io/en/v0.3.1/common-patterns.html\n  modifier onlyBy(address _account)\n  {\n    require(msg.sender == _account);\n    _;\n  }\n\n  function changeOwner(address _newOwner)\n    public\n    onlyBy(owner)\n  {\n    owner = _newOwner;\n  }\n\n  // SECTION: Constructor and helpers\n  // Constructor for contract\n  function Exchange(uint closureFeeBuy0, uint closureFeeSell0,\n                    uint cancelFeeBuy0, uint cancelFeeSell0,\n                    uint cleanSize, uint minerShare,\n                    bytes32 difficulty)\n    public\n  {\n    // Initialize parameters books\n    setParams(cleanSize, minerShare, difficulty);\n    // Initialize order books\n    addChapter(0, closureFeeBuy0, closureFeeSell0,\n                cancelFeeBuy0, cancelFeeSell0);\n    return;\n  }\n\n  /*\n  * Initializes order book and address book for chapter\n  * Only used in constructor\n  * Pushes \"genesis order\" to chapter\n  * ONLY USE FOR MOST RECENT CHAPTER + 1\n  */\n  function addChapter(uint chapter, uint closureFeeBuy, uint closureFeeSell,\n                      uint cancelFeeBuy, uint cancelFeeSell)\n    public\n    onlyBy(owner)\n  {\n    buyBook[chapter].push(false);\n    volBook[chapter].push(0);\n    minVolBook[chapter].push(0);\n    limitBook[chapter].push(0);\n\n    ethAddressBook[chapter].push(address(0));\n    firstAddressBook[chapter].push([bytes32(0), bytes32(0)]);\n    secondAddressBook[chapter].push([bytes32(0), bytes32(0)]);\n    // Initialize numsCleared[chapter] as zero\n    numsCleared.push(0);\n\n    closureFees[chapter][true] = closureFeeBuy;\n    closureFees[chapter][false] = closureFeeSell;\n    cancelFees[chapter][true] = cancelFeeBuy;\n    cancelFees[chapter][false] = cancelFeeSell;\n  }\n\n  // Init the params struct, which contains the bulk of exchange's parameters\n  // Only used in constructor\n  function setParams(uint cleanSize, uint minerShare,\n                    bytes32 difficulty)\n    internal\n  {\n    params.cleanSize = cleanSize;\n    params.minerShare = minerShare;\n    params.difficulty = difficulty;\n  }\n\n  // SECTION: Getters\n  // Get chapter from order book\n  function getOrderChapter(uint chapter)\n    external\n    view\n    returns(bool[] buyChapter, uint[] volChapter,\n            uint[] minVolChapter, uint[] limitChapter)\n  {\n    return(buyBook[chapter], volBook[chapter],\n          minVolBook[chapter], limitBook[chapter]);\n  }\n\n  /*\n  * Wish I could've bundled these.\n  * For some reason, get a bug when firstAddressChapter and secondAddressChapter are together.\n  * Suspect it has something to do with returning dynamic arrays of fixed size arrays\n  */\n  // Get chapter from ethAddressBook\n  function getETHAddressChapter(uint chapter)\n    external\n    view\n    returns(address[] ethAddressChapter)\n  {\n    return(ethAddressBook[chapter]);\n  }\n\n  // Get chapter from firstAddressBook\n  function getFirstAddressChapter(uint chapter)\n    external\n    view\n    returns(bytes32[2][] firstAddressChapter)\n  {\n    return(firstAddressBook[chapter]);\n  }\n\n  // Get chapter from secondAddressBook\n  function getSecondAddressChapter(uint chapter)\n    external\n    view\n    returns(bytes32[2][] secondAddressChapter)\n  {\n    return(secondAddressBook[chapter]);\n  }\n\n  // SECTION: Core functionality\n  // Checks edge cases for match verification\n  function checkMatchEdges(uint chapter, uint index1, uint index2)\n    private\n    view\n    returns(bool passes)\n  {\n    // valid indices\n    require(index1 < buyBook[chapter].length);\n    require(index2 < buyBook[chapter].length);\n    //One buy order and one sell order\n    require(buyBook[chapter][index1] != buyBook[chapter][index2]);\n    //Non-empty order\n    require(volBook[chapter][index1] != 0);\n    require(volBook[chapter][index2] != 0);\n    // All edge cases work!\n    return true;\n  }\n\n  // verifies that match is valid\n  function calcRateAndVol(uint chapter, uint index1, uint index2)\n    public\n    view\n    returns (uint mimRate, uint ethVol)\n  {\n    // check edge cases\n    if (! checkMatchEdges(chapter, index1, index2)) {\n      return (0,0);\n    }\n    // which order is buying and selling ETH?\n    // buy-sell copy1\n    uint buyIndex;\n    uint sellIndex;\n    if (buyBook[chapter][index1]) {\n      buyIndex = index1;\n      sellIndex = index2;\n    } else{\n      buyIndex = index2;\n      sellIndex = index1;\n    }\n    // shorthand for buy and sell orders\n    Order memory buyOrder = Order(true, volBook[chapter][buyIndex],\n                                  minVolBook[chapter][buyIndex],\n                                  limitBook[chapter][buyIndex]);\n    Order memory sellOrder = Order(false, volBook[chapter][sellIndex],\n                                  minVolBook[chapter][sellIndex],\n                                  limitBook[chapter][sellIndex]);\n\n    // Non-contradictory limits\n    if (buyOrder.limit < sellOrder.limit) {\n      return (0, 0);\n    }\n    // Meet in middle rate\n    // mimRate\n    mimRate = (buyOrder.limit + sellOrder.limit) / 2;\n    // Volumes comparable\n    if (buyOrder.volume * PRECISION > sellOrder.volume * mimRate) {\n      if (buyOrder.minVolume * PRECISION > sellOrder.volume * mimRate) {\n        return (0, 0);\n      }\n      return (mimRate, sellOrder.volume * mimRate);\n    }\n    if (sellOrder.volume * mimRate > buyOrder.volume * PRECISION ) {\n      if (sellOrder.minVolume * mimRate > buyOrder.volume * PRECISION) {\n        return (0, 0);\n      }\n    }\n    return (mimRate, buyOrder.volume);\n  }\n\n  // Clears closed trade, reenters into order book if incomplete\n  function clearTrade(uint chapter, uint index1, uint index2,\n                      uint mimRate, uint ethVol)\n    private\n  {\n    // which order is buying and selling ETH?\n    // buy-sell copy1\n    uint buyIndex;\n    uint sellIndex;\n    if (buyBook[chapter][index1]) {\n      buyIndex = index1;\n      sellIndex = index2;\n    } else{\n      buyIndex = index2;\n      sellIndex = index1;\n    }\n    if (volBook[chapter][buyIndex] == ethVol) {\n      numsCleared[chapter] += 1;\n    }\n    if (minVolBook[chapter][buyIndex] < ethVol) {\n      minVolBook[chapter][buyIndex] = 0;\n    } else{\n      minVolBook[chapter][buyIndex] -= ethVol;\n    }\n    volBook[chapter][buyIndex] -= ethVol;\n    if (volBook[chapter][sellIndex] == (ethVol * mimRate / PRECISION)) {\n      numsCleared[chapter] += 1;\n    }\n    if (minVolBook[chapter][sellIndex] < (ethVol * mimRate / PRECISION)) {\n      minVolBook[chapter][sellIndex] = 0;\n    } else{\n      minVolBook[chapter][sellIndex] -= (ethVol * mimRate / PRECISION);\n    }\n    volBook[chapter][sellIndex] -= ethVol * mimRate / PRECISION;\n  }\n\n  // Adds trade to log, for traders to note\n  // http://solidity.readthedocs.io/en/latest/contracts.html?highlight=events#events\n  function alertTraders(uint chapter, uint index1, uint index2, uint mimRate, uint ethVol)\n    private\n  {\n    TradeInfo(\n      ethAddressBook[chapter][index1], //ethAddress1,\n      ethAddressBook[chapter][index2], //ethAddress2,\n      firstAddressBook[chapter][index1], //firstAddress1,\n      firstAddressBook[chapter][index2], //firstAddress2,\n      secondAddressBook[chapter][index1], //otherAddress1,\n      secondAddressBook[chapter][index2], // otherAddress2,\n      mimRate,\n      ethVol\n      );\n  }\n\n  // Move balance from open to closed\n  function clearBalance(uint chapter, uint ethVol, uint buyLimit)\n    private\n  {\n    openBalance -= (closureFees[chapter][false] * ethVol) / PRECISION;\n    openBalance -= (closureFees[chapter][true] * ethVol * buyLimit) / (PRECISION * PRECISION);\n  }\n\n  // Clean chapter (called when size reaches size to clean)\n  function cleanChapter(uint chapter)\n    private\n    returns(bool cleaned)\n  {\n    // Clean chapter only if size is appropriate\n    if (numsCleared[chapter] < params.cleanSize) {\n      return false;\n    }\n    // For all orders\n    // If it's a cleared order:\n    // Replace it with the next one, and clear the next one\n    for (uint i = 1; i < buyBook[chapter].length; i++) {\n      if (volBook[chapter][i] == 0) {\n        if (i < buyBook[chapter].length - 1) {\n          buyBook[chapter][i] = buyBook[chapter][i+1];\n          volBook[chapter][i] = volBook[chapter][i+1];\n          minVolBook[chapter][i] = minVolBook[chapter][i+1];\n          limitBook[chapter][i] = limitBook[chapter][i+1];\n\n          ethAddressBook[chapter][i] = ethAddressBook[chapter][i+1];\n          firstAddressBook[chapter][i] = firstAddressBook[chapter][i+1];\n          secondAddressBook[chapter][i] = secondAddressBook[chapter][i+1];\n\n          delete buyBook[chapter][i+1];\n          delete volBook[chapter][i+1];\n          delete minVolBook[chapter][i+1];\n          delete limitBook[chapter][i+1];\n\n          delete ethAddressBook[chapter][i+1];\n          delete firstAddressBook[chapter][i+1];\n          delete secondAddressBook[chapter][i+1];\n        }\n      }\n    }\n    buyBook[chapter].length = buyBook[chapter].length - numsCleared[chapter];\n    volBook[chapter].length = volBook[chapter].length - numsCleared[chapter];\n    minVolBook[chapter].length = minVolBook[chapter].length - numsCleared[chapter];\n    limitBook[chapter].length = limitBook[chapter].length - numsCleared[chapter];\n\n    ethAddressBook[chapter].length = ethAddressBook[chapter].length - numsCleared[chapter];\n    firstAddressBook[chapter].length = firstAddressBook[chapter].length - numsCleared[chapter];\n    secondAddressBook[chapter].length = secondAddressBook[chapter].length - numsCleared[chapter];\n\n    numsCleared[chapter] = 0;\n    return true;\n  }\n\n  // Checks if POW (nonce) is valid\n  // Performs nonce verification (keccak256)\n  // Helper for giveMatch\n  function isValidPOW(address depositAddress, uint chapter, uint index1,\n                      uint index2, uint nonce)\n    private\n    view\n    returns(bool isValid)\n  {\n    if (params.difficulty < keccak256(depositAddress, chapter, index1, index2, nonce)) {\n      return false;\n    }\n    return true;\n  }\n\n  // Function to pay the miner what's due\n  function payMiner(uint chapter, address depositAddress, uint ethVol)\n    private\n  {\n    // Calculate the miner's payment\n    uint minerPayment = ((params.minerShare * closureFees[chapter][true] * ethVol * 2) /\n                          (PRECISION * PRECISION));\n    // Pay the miner\n    depositAddress.transfer(minerPayment);\n  }\n\n  // Miners suggest matches with this function\n  // Wrapper for calcRateAndVol and isValidPOW, performs other required functions\n  function giveMatch(address depositAddress, uint chapter,\n                    uint index1, uint index2, uint nonce)\n    public\n    returns(bool isValid)\n  {\n    // Validate nonce\n    require(isValidPOW(depositAddress, chapter, index1, index2, nonce));\n    var (mimRate, ethVol) = calcRateAndVol(chapter, index1, index2);\n    require(ethVol > 0);\n    // which order is buying and selling ETH?\n    // buy-sell copy1\n    uint buyIndex;\n    uint sellIndex;\n    if (buyBook[chapter][index1]) {\n      buyIndex = index1;\n      sellIndex = index2;\n    } else{\n      buyIndex = index2;\n      sellIndex = index1;\n    }\n    payMiner(chapter, depositAddress, ethVol);\n    clearBalance(ethVol, limitBook[chapter][buyIndex], limitBook[chapter][sellIndex]);\n    alertTraders(chapter, index1, index2, mimRate, ethVol);\n    clearTrade(chapter, index1, index2, mimRate, ethVol);\n    cleanChapter(chapter);\n    return true;\n  }\n\n  // Allows traders to place orders\n  function placeOrder(bool buyETH, uint volume, uint minVolume, uint limit,\n                      address ethAddress, bytes32[2] firstAddress,\n                      bytes32[2] otherAddress, uint chapter)\n    public\n    payable\n    returns(bool accepted)\n  {\n    require(volume > 0);\n    require(minVolume > 0);\n    require(volume >= minVolume);\n    require(limit > 0);\n    // TODO: NEXT VERSION: Charge according to transaction vol with fixed fees for generic currencies\n    // TODO: NEXT VERSION: Instant refunds (prototype code below)\n    if (buyETH) {\n      require(limit * msg.value >= volume * closureFees[chapter][buyETH]);\n      openBalance += volume * closureFees[chapter][buyETH] * limit / (PRECISION * PRECISION);\n      //msg.sender.transfer((limit * msg.value) - (volume * params.closureFee));\n    } else{\n      require(msg.value >= volume * closureFees[chapter][buyETH] / PRECISION);\n      openBalance += volume * closureFees[chapter][buyETH] / PRECISION;\n      //msg.sender.transfer(msg.value - (volume * params.closureFee / PRECISION));\n    }\n    require(buyBook[chapter].length > 0);\n\n    buyBook[chapter].push(buyETH);\n    volBook[chapter].push(volume);\n    minVolBook[chapter].push(minVolume);\n    limitBook[chapter].push(limit);\n\n    ethAddressBook[chapter].push(ethAddress);\n    firstAddressBook[chapter].push(firstAddress);\n    secondAddressBook[chapter].push(otherAddress);\n    return true;\n  }\n\n  // Allows traders to cancel orders\n  function cancelOrder(uint chapter, uint index)\n    public\n    returns(bool accepted)\n  {\n    require(index < buyBook[chapter].length);\n    // Can't cancel other people's orders\n    require(msg.sender == ethAddressBook[chapter][index]);\n\n    uint limit = limitBook[chapter][index];\n    uint volume = volBook[chapter][index];\n    bool buyETH = buyBook[chapter][index];\n\n    // TODO: NEXT VERSION: Refund according to fixed fees for generic currencies\n    // Refund according to ether transaction volume\n    if (buyBook[chapter][index]) {\n      msg.sender.transfer(volume * (closureFees[chapter][buyETH] - cancelFees[chapter][buyETH]) / limit);\n    } else{\n      msg.sender.transfer(volume * (closureFees[chapter][buyETH] - cancelFees[chapter][buyETH]) / limit);\n    }\n    delete buyBook[chapter][index];\n    delete volBook[chapter][index];\n    delete minVolBook[chapter][index];\n    delete limitBook[chapter][index];\n\n    delete ethAddressBook[chapter][index];\n    delete firstAddressBook[chapter][index];\n    delete secondAddressBook[chapter][index];\n\n    numsCleared[chapter] += 1;\n    cleanChapter(chapter);\n    return true;\n  }\n\n  // TODO: Fixed fees per unit, rather than using dynamic exchange rate\n  // Different fees for buy/sell\n  // can be done with mapping (uint => mapping (bool => uint))\n  // Allows us to use multiple currencies (not just Ether trading pairs)\n\n  // TODO: NEXT VERSION: Add KYC whitelist\n}\n",
  "sourcePath": "/Users/Karim/Desktop/Valex/contracts/Exchange.sol",
  "compiler": {
    "name": "solc",
    "version": "0.4.18+commit.9cf6e910.Emscripten.clang"
  },
  "schemaVersion": "1.0.1",
  "updatedAt": "2018-04-24T04:33:00.354Z"
}