{
  "contractName": "Exchange",
  "abi": [
    {
      "constant": true,
      "inputs": [
        {
          "name": "chapter",
          "type": "uint256"
        }
      ],
      "name": "getSecondAddressChapter",
      "outputs": [
        {
          "name": "secondAddressChapter",
          "type": "bytes32[]"
        }
      ],
      "payable": false,
      "stateMutability": "view",
      "type": "function"
    },
    {
      "constant": false,
      "inputs": [
        {
          "name": "newAddress",
          "type": "address"
        }
      ],
      "name": "addToMinerWhitelist",
      "outputs": [],
      "payable": false,
      "stateMutability": "nonpayable",
      "type": "function"
    },
    {
      "constant": true,
      "inputs": [
        {
          "name": "",
          "type": "uint256"
        },
        {
          "name": "",
          "type": "uint256"
        }
      ],
      "name": "firstAddressBook",
      "outputs": [
        {
          "name": "",
          "type": "bytes32"
        }
      ],
      "payable": false,
      "stateMutability": "view",
      "type": "function"
    },
    {
      "constant": false,
      "inputs": [
        {
          "name": "buyAlpha",
          "type": "bool"
        },
        {
          "name": "volume",
          "type": "uint256"
        },
        {
          "name": "ethAddress",
          "type": "address"
        },
        {
          "name": "firstAddress",
          "type": "bytes32"
        },
        {
          "name": "otherAddress",
          "type": "bytes32"
        },
        {
          "name": "chapter",
          "type": "uint256"
        },
        {
          "name": "index1",
          "type": "uint256"
        },
        {
          "name": "nonce",
          "type": "uint256"
        }
      ],
      "name": "placeTakeOrder",
      "outputs": [
        {
          "name": "accepted",
          "type": "bool"
        }
      ],
      "payable": true,
      "stateMutability": "payable",
      "type": "function"
    },
    {
      "constant": true,
      "inputs": [
        {
          "name": "",
          "type": "uint256"
        },
        {
          "name": "",
          "type": "uint256"
        }
      ],
      "name": "buyBook",
      "outputs": [
        {
          "name": "",
          "type": "bool"
        }
      ],
      "payable": false,
      "stateMutability": "view",
      "type": "function"
    },
    {
      "constant": true,
      "inputs": [
        {
          "name": "chapter",
          "type": "uint256"
        }
      ],
      "name": "getOrderChapter",
      "outputs": [
        {
          "name": "buyChapter",
          "type": "bool[]"
        },
        {
          "name": "volChapter",
          "type": "uint256[]"
        },
        {
          "name": "minVolChapter",
          "type": "uint256[]"
        },
        {
          "name": "limitChapter",
          "type": "uint256[]"
        }
      ],
      "payable": false,
      "stateMutability": "view",
      "type": "function"
    },
    {
      "constant": false,
      "inputs": [
        {
          "name": "newAddress",
          "type": "address"
        }
      ],
      "name": "addToTraderWhitelist",
      "outputs": [],
      "payable": false,
      "stateMutability": "nonpayable",
      "type": "function"
    },
    {
      "constant": true,
      "inputs": [
        {
          "name": "",
          "type": "uint256"
        },
        {
          "name": "",
          "type": "uint256"
        }
      ],
      "name": "ethAddressBook",
      "outputs": [
        {
          "name": "",
          "type": "address"
        }
      ],
      "payable": false,
      "stateMutability": "view",
      "type": "function"
    },
    {
      "constant": false,
      "inputs": [
        {
          "name": "buyAlpha",
          "type": "bool"
        },
        {
          "name": "volume",
          "type": "uint256"
        },
        {
          "name": "minVolume",
          "type": "uint256"
        },
        {
          "name": "limit",
          "type": "uint256"
        },
        {
          "name": "ethAddress",
          "type": "address"
        },
        {
          "name": "firstAddress",
          "type": "bytes32"
        },
        {
          "name": "otherAddress",
          "type": "bytes32"
        },
        {
          "name": "chapter",
          "type": "uint256"
        }
      ],
      "name": "placeOrder",
      "outputs": [
        {
          "name": "accepted",
          "type": "bool"
        }
      ],
      "payable": true,
      "stateMutability": "payable",
      "type": "function"
    },
    {
      "constant": true,
      "inputs": [
        {
          "name": "",
          "type": "uint256"
        },
        {
          "name": "",
          "type": "uint256"
        }
      ],
      "name": "limitBook",
      "outputs": [
        {
          "name": "",
          "type": "uint256"
        }
      ],
      "payable": false,
      "stateMutability": "view",
      "type": "function"
    },
    {
      "constant": true,
      "inputs": [],
      "name": "owner",
      "outputs": [
        {
          "name": "",
          "type": "address"
        }
      ],
      "payable": false,
      "stateMutability": "view",
      "type": "function"
    },
    {
      "constant": true,
      "inputs": [
        {
          "name": "chapter",
          "type": "uint256"
        },
        {
          "name": "index1",
          "type": "uint256"
        },
        {
          "name": "index2",
          "type": "uint256"
        }
      ],
      "name": "calcRateAndVol",
      "outputs": [
        {
          "name": "mimRate",
          "type": "uint256"
        },
        {
          "name": "alphaVol",
          "type": "uint256"
        }
      ],
      "payable": false,
      "stateMutability": "view",
      "type": "function"
    },
    {
      "constant": true,
      "inputs": [],
      "name": "openBalance",
      "outputs": [
        {
          "name": "",
          "type": "uint256"
        }
      ],
      "payable": false,
      "stateMutability": "view",
      "type": "function"
    },
    {
      "constant": true,
      "inputs": [
        {
          "name": "",
          "type": "uint256"
        },
        {
          "name": "",
          "type": "uint256"
        }
      ],
      "name": "minVolBook",
      "outputs": [
        {
          "name": "",
          "type": "uint256"
        }
      ],
      "payable": false,
      "stateMutability": "view",
      "type": "function"
    },
    {
      "constant": false,
      "inputs": [
        {
          "name": "_newOwner",
          "type": "address"
        }
      ],
      "name": "changeOwner",
      "outputs": [],
      "payable": false,
      "stateMutability": "nonpayable",
      "type": "function"
    },
    {
      "constant": true,
      "inputs": [],
      "name": "PRECISION",
      "outputs": [
        {
          "name": "",
          "type": "uint256"
        }
      ],
      "payable": false,
      "stateMutability": "view",
      "type": "function"
    },
    {
      "constant": false,
      "inputs": [
        {
          "name": "chapter",
          "type": "uint256"
        },
        {
          "name": "index",
          "type": "uint256"
        }
      ],
      "name": "cancelOrder",
      "outputs": [
        {
          "name": "accepted",
          "type": "bool"
        }
      ],
      "payable": false,
      "stateMutability": "nonpayable",
      "type": "function"
    },
    {
      "constant": true,
      "inputs": [
        {
          "name": "",
          "type": "uint256"
        },
        {
          "name": "",
          "type": "uint256"
        }
      ],
      "name": "secondAddressBook",
      "outputs": [
        {
          "name": "",
          "type": "bytes32"
        }
      ],
      "payable": false,
      "stateMutability": "view",
      "type": "function"
    },
    {
      "constant": true,
      "inputs": [],
      "name": "params",
      "outputs": [
        {
          "name": "cleanSize",
          "type": "uint256"
        },
        {
          "name": "minerShare",
          "type": "uint256"
        },
        {
          "name": "difficulty",
          "type": "bytes32"
        },
        {
          "name": "traderKYC",
          "type": "bool"
        },
        {
          "name": "minerKYC",
          "type": "bool"
        }
      ],
      "payable": false,
      "stateMutability": "view",
      "type": "function"
    },
    {
      "constant": false,
      "inputs": [
        {
          "name": "depositAddress",
          "type": "address"
        },
        {
          "name": "chapter",
          "type": "uint256"
        },
        {
          "name": "index1",
          "type": "uint256"
        },
        {
          "name": "index2",
          "type": "uint256"
        },
        {
          "name": "nonce",
          "type": "uint256"
        }
      ],
      "name": "giveMatch",
      "outputs": [
        {
          "name": "isValid",
          "type": "bool"
        }
      ],
      "payable": false,
      "stateMutability": "nonpayable",
      "type": "function"
    },
    {
      "constant": false,
      "inputs": [
        {
          "name": "chapter",
          "type": "uint256"
        },
        {
          "name": "closureFeeBuy",
          "type": "uint256"
        },
        {
          "name": "closureFeeSell",
          "type": "uint256"
        },
        {
          "name": "cancelFeeBuy",
          "type": "uint256"
        },
        {
          "name": "cancelFeeSell",
          "type": "uint256"
        }
      ],
      "name": "addChapter",
      "outputs": [],
      "payable": false,
      "stateMutability": "nonpayable",
      "type": "function"
    },
    {
      "constant": true,
      "inputs": [
        {
          "name": "chapter",
          "type": "uint256"
        }
      ],
      "name": "getETHAddressChapter",
      "outputs": [
        {
          "name": "ethAddressChapter",
          "type": "address[]"
        }
      ],
      "payable": false,
      "stateMutability": "view",
      "type": "function"
    },
    {
      "constant": true,
      "inputs": [
        {
          "name": "",
          "type": "uint256"
        },
        {
          "name": "",
          "type": "uint256"
        }
      ],
      "name": "volBook",
      "outputs": [
        {
          "name": "",
          "type": "uint256"
        }
      ],
      "payable": false,
      "stateMutability": "view",
      "type": "function"
    },
    {
      "constant": true,
      "inputs": [
        {
          "name": "chapter",
          "type": "uint256"
        }
      ],
      "name": "getFirstAddressChapter",
      "outputs": [
        {
          "name": "firstAddressChapter",
          "type": "bytes32[]"
        }
      ],
      "payable": false,
      "stateMutability": "view",
      "type": "function"
    },
    {
      "inputs": [
        {
          "name": "closureFeeBuy0",
          "type": "uint256"
        },
        {
          "name": "closureFeeSell0",
          "type": "uint256"
        },
        {
          "name": "cancelFeeBuy0",
          "type": "uint256"
        },
        {
          "name": "cancelFeeSell0",
          "type": "uint256"
        },
        {
          "name": "cleanSize",
          "type": "uint256"
        },
        {
          "name": "minerShare",
          "type": "uint256"
        },
        {
          "name": "difficulty",
          "type": "bytes32"
        },
        {
          "name": "minerKYC",
          "type": "bool"
        },
        {
          "name": "traderKYC",
          "type": "bool"
        }
      ],
      "payable": false,
      "stateMutability": "nonpayable",
      "type": "constructor"
    },
    {
      "anonymous": false,
      "inputs": [
        {
          "indexed": false,
          "name": "ethAddress1",
          "type": "address"
        },
        {
          "indexed": false,
          "name": "ethAddress2",
          "type": "address"
        },
        {
          "indexed": false,
          "name": "firstAddress1",
          "type": "bytes32"
        },
        {
          "indexed": false,
          "name": "firstAddress2",
          "type": "bytes32"
        },
        {
          "indexed": false,
          "name": "otherAddress1",
          "type": "bytes32"
        },
        {
          "indexed": false,
          "name": "otherAddress2",
          "type": "bytes32"
        },
        {
          "indexed": false,
          "name": "mimRate",
          "type": "uint256"
        },
        {
          "indexed": false,
          "name": "ethVol",
          "type": "uint256"
        }
      ],
      "name": "TradeInfo",
      "type": "event"
    }
  ],
  "bytecode": "0x6060604052336000806101000a81548173ffffffffffffffffffffffffffffffffffffffff021916908373ffffffffffffffffffffffffffffffffffffffff160217905550670de0b6b3a7640000600155600060025534156200006157600080fd5b604051610120806200433e83398101604052808051906020019091908051906020019091908051906020019091908051906020019091908051906020019091908051906020019091908051906020019091908051906020019091908051906020019091905050620000ea85858585856200011d6401000000000262003cb8176401000000009004565b6200010e60008a8a8a8a6200017e640100000000026200235b176401000000009004565b505050505050505050620005e9565b84600360000181905550836003600101819055508260036002018160001916905550816003800160016101000a81548160ff021916908315150217905550806003800160006101000a81548160ff0219169083151502179055505050505050565b6000809054906101000a900473ffffffffffffffffffffffffffffffffffffffff168073ffffffffffffffffffffffffffffffffffffffff163373ffffffffffffffffffffffffffffffffffffffff16141515620001db57600080fd5b600760008781526020019081526020016000208054806001018281620002029190620004cf565b91600052602060002090602091828204019190066000909190916101000a81548160ff021916908315150217905550506008600087815260200190815260200160002080548060010182816200025991906200050c565b9160005260206000209001600080909190915055506009600087815260200190815260200160002080548060010182816200029591906200050c565b916000526020600020900160008090919091505550600a60008781526020019081526020016000208054806001018281620002d191906200050c565b916000526020600020900160008090919091505550600b600087815260200190815260200160002080548060010182816200030d91906200053b565b9160005260206000209001600080909190916101000a81548173ffffffffffffffffffffffffffffffffffffffff021916908373ffffffffffffffffffffffffffffffffffffffff16021790555050600c600087815260200190815260200160002080548060010182816200038391906200056a565b916000526020600020900160008060010290919091509060001916905550600d60008781526020019081526020016000208054806001018281620003c891906200056a565b91600052602060002090016000806001029091909150906000191690555060128054806001018281620003fc91906200050c565b91600052602060002090016000809091909150555084600e6000888152602001908152602001600020600060011515151581526020019081526020016000208190555083600e60008881526020019081526020016000206000801515151581526020019081526020016000208190555082600f6000888152602001908152602001600020600060011515151581526020019081526020016000208190555081600f600088815260200190815260200160002060008015151515815260200190815260200160002081905550505050505050565b8154818355818115116200050757601f016020900481601f0160209004836000526020600020918201910162000506919062000599565b5b505050565b815481835581811511620005365781836000526020600020918201910162000535919062000599565b5b505050565b815481835581811511620005655781836000526020600020918201910162000564919062000599565b5b505050565b8154818355818115116200059457818360005260206000209182019101620005939190620005c1565b5b505050565b620005be91905b80821115620005ba576000816000905550600101620005a0565b5090565b90565b620005e691905b80821115620005e2576000816000905550600101620005c8565b5090565b90565b613d4580620005f96000396000f30060606040526004361061013e576000357c0100000000000000000000000000000000000000000000000000000000900463ffffffff168063145404fc1461014357806316004545146101bb578063217c9273146101f4578063239032a81461023c5780633af8c2d5146102cb5780633b6a08001461030f5780633f8359691461045f57806353c1d882146104985780637851b31c146105045780638139cbc6146105935780638da5cb5b146105d35780638eae03d2146106285780639138ec3a146106785780639febbcfa146106a1578063a6f9dae1146106e1578063aaf5eb681461071a578063b6ed063214610743578063c74060fb14610787578063cff0ab96146107cf578063d2426ab914610824578063d7cefcda14610899578063e0cfdce0146108e0578063e0f1f59f14610958578063ee4b94bb14610998575b600080fd5b341561014e57600080fd5b6101646004808035906020019091905050610a10565b6040518080602001828103825283818151815260200191508051906020019060200280838360005b838110156101a757808201518184015260208101905061018c565b505050509050019250505060405180910390f35b34156101c657600080fd5b6101f2600480803573ffffffffffffffffffffffffffffffffffffffff16906020019091905050610a85565b005b34156101ff57600080fd5b61021e6004808035906020019091908035906020019091905050610b3d565b60405180826000191660001916815260200191505060405180910390f35b6102b16004808035151590602001909190803590602001909190803573ffffffffffffffffffffffffffffffffffffffff169060200190919080356000191690602001909190803560001916906020019091908035906020019091908035906020019091908035906020019091905050610b6e565b604051808215151515815260200191505060405180910390f35b34156102d657600080fd5b6102f560048080359060200190919080359060200190919050506112c4565b604051808215151515815260200191505060405180910390f35b341561031a57600080fd5b6103306004808035906020019091905050611306565b6040518080602001806020018060200180602001858103855289818151815260200191508051906020019060200280838360005b8381101561037f578082015181840152602081019050610364565b50505050905001858103845288818151815260200191508051906020019060200280838360005b838110156103c15780820151818401526020810190506103a6565b50505050905001858103835287818151815260200191508051906020019060200280838360005b838110156104035780820151818401526020810190506103e8565b50505050905001858103825286818151815260200191508051906020019060200280838360005b8381101561044557808201518184015260208101905061042a565b505050509050019850505050505050505060405180910390f35b341561046a57600080fd5b610496600480803573ffffffffffffffffffffffffffffffffffffffff169060200190919050506114ee565b005b34156104a357600080fd5b6104c260048080359060200190919080359060200190919050506115a6565b604051808273ffffffffffffffffffffffffffffffffffffffff1673ffffffffffffffffffffffffffffffffffffffff16815260200191505060405180910390f35b6105796004808035151590602001909190803590602001909190803590602001909190803590602001909190803573ffffffffffffffffffffffffffffffffffffffff1690602001909190803560001916906020019091908035600019169060200190919080359060200190919050506115f4565b604051808215151515815260200191505060405180910390f35b341561059e57600080fd5b6105bd60048080359060200190919080359060200190919050506118e9565b6040518082815260200191505060405180910390f35b34156105de57600080fd5b6105e661191a565b604051808273ffffffffffffffffffffffffffffffffffffffff1673ffffffffffffffffffffffffffffffffffffffff16815260200191505060405180910390f35b341561063357600080fd5b61065b600480803590602001909190803590602001909190803590602001909190505061193f565b604051808381526020018281526020019250505060405180910390f35b341561068357600080fd5b61068b611bff565b6040518082815260200191505060405180910390f35b34156106ac57600080fd5b6106cb6004808035906020019091908035906020019091905050611c05565b6040518082815260200191505060405180910390f35b34156106ec57600080fd5b610718600480803573ffffffffffffffffffffffffffffffffffffffff16906020019091905050611c36565b005b341561072557600080fd5b61072d611cd6565b6040518082815260200191505060405180910390f35b341561074e57600080fd5b61076d6004808035906020019091908035906020019091905050611cdc565b604051808215151515815260200191505060405180910390f35b341561079257600080fd5b6107b1600480803590602001909190803590602001909190505061216d565b60405180826000191660001916815260200191505060405180910390f35b34156107da57600080fd5b6107e261219e565b60405180868152602001858152602001846000191660001916815260200183151515158152602001821515151581526020019550505050505060405180910390f35b341561082f57600080fd5b61087f600480803573ffffffffffffffffffffffffffffffffffffffff169060200190919080359060200190919080359060200190919080359060200190919080359060200190919050506121dc565b604051808215151515815260200191505060405180910390f35b34156108a457600080fd5b6108de600480803590602001909190803590602001909190803590602001909190803590602001909190803590602001909190505061235b565b005b34156108eb57600080fd5b610901600480803590602001909190505061269b565b6040518080602001828103825283818151815260200191508051906020019060200280838360005b83811015610944578082015181840152602081019050610929565b505050509050019250505060405180910390f35b341561096357600080fd5b6109826004808035906020019091908035906020019091905050612742565b6040518082815260200191505060405180910390f35b34156109a357600080fd5b6109b96004808035906020019091905050612773565b6040518080602001828103825283818151815260200191508051906020019060200280838360005b838110156109fc5780820151818401526020810190506109e1565b505050509050019250505060405180910390f35b610a18613a77565b600d6000838152602001908152602001600020805480602002602001604051908101604052809291908181526020018280548015610a7957602002820191906000526020600020905b81546000191681526020019060010190808311610a61575b50505050509050919050565b6000809054906101000a900473ffffffffffffffffffffffffffffffffffffffff168073ffffffffffffffffffffffffffffffffffffffff163373ffffffffffffffffffffffffffffffffffffffff16141515610ae157600080fd5b6001601060008473ffffffffffffffffffffffffffffffffffffffff1673ffffffffffffffffffffffffffffffffffffffff16815260200190815260200160002060006101000a81548160ff0219169083151502179055505050565b600c60205281600052604060002081815481101515610b5857fe5b9060005260206000209001600091509150505481565b60008033601160003373ffffffffffffffffffffffffffffffffffffffff1673ffffffffffffffffffffffffffffffffffffffff16815260200190815260200160002060009054906101000a900460ff1680610bd957506003800160009054906101000a900460ff16155b1515610be457600080fd5b600760008781526020019081526020016000208054905085101515610c0857600080fd5b6007600087815260200190815260200160002085815481101515610c2857fe5b90600052602060002090602091828204019190069054906101000a900460ff1615158b151514151515610c5a57600080fd5b60006008600088815260200190815260200160002086815481101515610c7c57fe5b90600052602060002090015414151515610c9557600080fd5b60008a111515610ca457600080fd5b610cb28987600088886127e8565b1515610cbd57600080fd5b610cf58b348c600a60008b815260200190815260200160002089815481101515610ce357fe5b9060005260206000209001548a612886565b1515610d0057600080fd5b8a15610fa957600154600a600088815260200190815260200160002086815481101515610d2957fe5b9060005260206000209001546009600089815260200190815260200160002087815481101515610d5557fe5b90600052602060002090015402811515610d6b57fe5b048a10151515610d7a57600080fd5b600154600a600088815260200190815260200160002086815481101515610d9d57fe5b9060005260206000209001546008600089815260200190815260200160002087815481101515610dc957fe5b90600052602060002090015402811515610ddf57fe5b048a11151515610dee57600080fd5b8991507f835256f687a0477436e79e9954c841b9c7a175ad0b152130f6ab141855b2f66e89600b600089815260200190815260200160002087815481101515610e3357fe5b906000526020600020900160009054906101000a900473ffffffffffffffffffffffffffffffffffffffff168a600c60008b815260200190815260200160002089815481101515610e8057fe5b9060005260206000209001548b600d60008d81526020019081526020016000208b815481101515610ead57fe5b906000526020600020900154600a60008e81526020019081526020016000208c815481101515610ed957fe5b90600052602060002090015489604051808973ffffffffffffffffffffffffffffffffffffffff1673ffffffffffffffffffffffffffffffffffffffff1681526020018873ffffffffffffffffffffffffffffffffffffffff1673ffffffffffffffffffffffffffffffffffffffff16815260200187600019166000191681526020018660001916600019168152602001856000191660001916815260200184600019166000191681526020018381526020018281526020019850505050505050505060405180910390a161120e565b600154600a600088815260200190815260200160002086815481101515610fcc57fe5b9060005260206000209001548b02811515610fe357fe5b049150600960008781526020019081526020016000208581548110151561100657fe5b906000526020600020900154821015151561102057600080fd5b600860008781526020019081526020016000208581548110151561104057fe5b906000526020600020900154821115151561105a57600080fd5b7f835256f687a0477436e79e9954c841b9c7a175ad0b152130f6ab141855b2f66e600b60008881526020019081526020016000208681548110151561109b57fe5b906000526020600020900160009054906101000a900473ffffffffffffffffffffffffffffffffffffffff168a600c60008a8152602001908152602001600020888154811015156110e857fe5b9060005260206000209001548b600d60008c81526020019081526020016000208a81548110151561111557fe5b9060005260206000209001548c600a60008e81526020019081526020016000208c81548110151561114257fe5b90600052602060002090015489604051808973ffffffffffffffffffffffffffffffffffffffff1673ffffffffffffffffffffffffffffffffffffffff1681526020018873ffffffffffffffffffffffffffffffffffffffff1673ffffffffffffffffffffffffffffffffffffffff16815260200187600019166000191681526020018660001916600019168152602001856000191660001916815260200184600019166000191681526020018381526020018281526020019850505050505050505060405180910390a15b61126f82600a60008981526020019081526020016000208781548110151561123257fe5b906000526020600020900154600a60008a81526020019081526020016000208881548110151561125e57fe5b906000526020600020900154612aae565b6112a88686600a60008a81526020019081526020016000208881548110151561129457fe5b906000526020600020900154858f15612b48565b6112b186612e09565b5060019250505098975050505050505050565b6007602052816000526040600020818154811015156112df57fe5b9060005260206000209060209182820401919006915091509054906101000a900460ff1681565b61130e613a8b565b611316613a9f565b61131e613a9f565b611326613a9f565b600760008681526020019081526020016000206008600087815260200190815260200160002060096000888152602001908152602001600020600a6000898152602001908152602001600020838054806020026020016040519081016040528092919081815260200182805480156113e257602002820191906000526020600020906000905b82829054906101000a900460ff161515815260200190600101906020826000010492830192600103820291508084116113ac5790505b505050505093508280548060200260200160405190810160405280929190818152602001828054801561143457602002820191906000526020600020905b815481526020019060010190808311611420575b505050505092508180548060200260200160405190810160405280929190818152602001828054801561148657602002820191906000526020600020905b815481526020019060010190808311611472575b50505050509150808054806020026020016040519081016040528092919081815260200182805480156114d857602002820191906000526020600020905b8154815260200190600101908083116114c4575b5050505050905093509350935093509193509193565b6000809054906101000a900473ffffffffffffffffffffffffffffffffffffffff168073ffffffffffffffffffffffffffffffffffffffff163373ffffffffffffffffffffffffffffffffffffffff1614151561154a57600080fd5b6001601160008473ffffffffffffffffffffffffffffffffffffffff1673ffffffffffffffffffffffffffffffffffffffff16815260200190815260200160002060006101000a81548160ff0219169083151502179055505050565b600b602052816000526040600020818154811015156115c157fe5b90600052602060002090016000915091509054906101000a900473ffffffffffffffffffffffffffffffffffffffff1681565b600033601160003373ffffffffffffffffffffffffffffffffffffffff1673ffffffffffffffffffffffffffffffffffffffff16815260200190815260200160002060009054906101000a900460ff168061165e57506003800160009054906101000a900460ff16155b151561166957600080fd5b60008911151561167857600080fd5b60008811151561168757600080fd5b87891015151561169657600080fd5b6000871115156116a557600080fd5b6116b28a348b8a87612886565b15156116bd57600080fd5b600060076000858152602001908152602001600020805490501115156116e257600080fd5b6007600084815260200190815260200160002080548060010182816117079190613ab3565b91600052602060002090602091828204019190068c909190916101000a81548160ff0219169083151502179055505060086000848152602001908152602001600020805480600101828161175b9190613aed565b916000526020600020900160008b909190915055506009600084815260200190815260200160002080548060010182816117959190613aed565b916000526020600020900160008a90919091505550600a600084815260200190815260200160002080548060010182816117cf9190613aed565b916000526020600020900160008990919091505550600b600084815260200190815260200160002080548060010182816118099190613b19565b9160005260206000209001600088909190916101000a81548173ffffffffffffffffffffffffffffffffffffffff021916908373ffffffffffffffffffffffffffffffffffffffff16021790555050600c6000848152602001908152602001600020805480600101828161187d9190613b45565b916000526020600020900160008790919091509060001916905550600d600084815260200190815260200160002080548060010182816118bd9190613b45565b916000526020600020900160008690919091509060001916905550600191505098975050505050505050565b600a6020528160005260406000208181548110151561190457fe5b9060005260206000209001600091509150505481565b6000809054906101000a900473ffffffffffffffffffffffffffffffffffffffff1681565b60008060008061194d613b71565b611955613b71565b6119608989896135de565b15156119785760008081915080905095509550611bf3565b600760008a81526020019081526020016000208881548110151561199857fe5b90600052602060002090602091828204019190069054906101000a900460ff16156119c8578793508692506119cf565b8693508792505b608060405190810160405280600115158152602001600860008c815260200190815260200160002086815481101515611a0457fe5b9060005260206000209001548152602001600960008c815260200190815260200160002086815481101515611a3557fe5b9060005260206000209001548152602001600a60008c815260200190815260200160002086815481101515611a6657fe5b9060005260206000209001548152509150608060405190810160405280600015158152602001600860008c815260200190815260200160002085815481101515611aac57fe5b9060005260206000209001548152602001600960008c815260200190815260200160002085815481101515611add57fe5b9060005260206000209001548152602001600a60008c815260200190815260200160002085815481101515611b0e57fe5b9060005260206000209001548152509050806060015182606001511015611b415760008081915080905095509550611bf3565b60028160600151836060015101811515611b5757fe5b049550858160200151026001548360200151021115611ba957858160200151026001548360400151021115611b985760008081915080905095509550611bf3565b858682602001510295509550611bf3565b600154826020015102868260200151021115611be857600154826020015102868260400151021115611be75760008081915080905095509550611bf3565b5b858260200151955095505b50505050935093915050565b60025481565b600960205281600052604060002081815481101515611c2057fe5b9060005260206000209001600091509150505481565b6000809054906101000a900473ffffffffffffffffffffffffffffffffffffffff168073ffffffffffffffffffffffffffffffffffffffff163373ffffffffffffffffffffffffffffffffffffffff16141515611c9257600080fd5b816000806101000a81548173ffffffffffffffffffffffffffffffffffffffff021916908373ffffffffffffffffffffffffffffffffffffffff1602179055505050565b60015481565b600080600080600760008781526020019081526020016000208054905085101515611d0657600080fd5b600b600087815260200190815260200160002085815481101515611d2657fe5b906000526020600020900160009054906101000a900473ffffffffffffffffffffffffffffffffffffffff1673ffffffffffffffffffffffffffffffffffffffff163373ffffffffffffffffffffffffffffffffffffffff16141515611d8b57600080fd5b600a600087815260200190815260200160002085815481101515611dab57fe5b90600052602060002090015492506008600087815260200190815260200160002085815481101515611dd957fe5b90600052602060002090015491506007600087815260200190815260200160002085815481101515611e0757fe5b90600052602060002090602091828204019190069054906101000a900460ff1690506007600087815260200190815260200160002085815481101515611e4957fe5b90600052602060002090602091828204019190069054906101000a900460ff1615611f12573373ffffffffffffffffffffffffffffffffffffffff166108fc84600f60008a815260200190815260200160002060008515151515815260200190815260200160002054600e60008b815260200190815260200160002060008615151515815260200190815260200160002054038502811515611ee757fe5b049081150290604051600060405180830381858888f193505050501515611f0d57600080fd5b611fb2565b3373ffffffffffffffffffffffffffffffffffffffff166108fc84600f60008a815260200190815260200160002060008515151515815260200190815260200160002054600e60008b815260200190815260200160002060008615151515815260200190815260200160002054038502811515611f8b57fe5b049081150290604051600060405180830381858888f193505050501515611fb157600080fd5b5b6007600087815260200190815260200160002085815481101515611fd257fe5b90600052602060002090602091828204019190066101000a81549060ff0219169055600860008781526020019081526020016000208581548110151561201457fe5b906000526020600020900160009055600960008781526020019081526020016000208581548110151561204357fe5b906000526020600020900160009055600a60008781526020019081526020016000208581548110151561207257fe5b906000526020600020900160009055600b6000878152602001908152602001600020858154811015156120a157fe5b906000526020600020900160006101000a81549073ffffffffffffffffffffffffffffffffffffffff0219169055600c6000878152602001908152602001600020858154811015156120ef57fe5b906000526020600020900160009055600d60008781526020019081526020016000208581548110151561211e57fe5b906000526020600020900160009055600160128781548110151561213e57fe5b90600052602060002090016000828254019250508190555061215f86612e09565b506001935050505092915050565b600d6020528160005260406000208181548110151561218857fe5b9060005260206000209001600091509150505481565b60038060000154908060010154908060020154908060030160009054906101000a900460ff16908060030160019054906101000a900460ff16905085565b600080600080600033601060003373ffffffffffffffffffffffffffffffffffffffff1673ffffffffffffffffffffffffffffffffffffffff16815260200190815260200160002060009054906101000a900460ff168061224c57506003800160019054906101000a900460ff16155b151561225757600080fd5b6122648b8b8b8b8b6127e8565b151561226f57600080fd5b61227a8a8a8a61193f565b9450945060008411151561228d57600080fd5b600760008b8152602001908152602001600020898154811015156122ad57fe5b90600052602060002090602091828204019190069054906101000a900460ff16156122dd578892508791506122e4565b8792508891505b6122ef8a8c8661373a565b6123258a85600a60008e81526020019081526020016000208681548110151561231457fe5b906000526020600020900154612aae565b6123328a848488886137c8565b61233f8a8a8a88886139f8565b6123488a612e09565b5060019550505050505095945050505050565b6000809054906101000a900473ffffffffffffffffffffffffffffffffffffffff168073ffffffffffffffffffffffffffffffffffffffff163373ffffffffffffffffffffffffffffffffffffffff161415156123b757600080fd5b6007600087815260200190815260200160002080548060010182816123dc9190613ab3565b91600052602060002090602091828204019190066000909190916101000a81548160ff021916908315150217905550506008600087815260200190815260200160002080548060010182816124319190613aed565b91600052602060002090016000809091909150555060096000878152602001908152602001600020805480600101828161246b9190613aed565b916000526020600020900160008090919091505550600a600087815260200190815260200160002080548060010182816124a59190613aed565b916000526020600020900160008090919091505550600b600087815260200190815260200160002080548060010182816124df9190613b19565b9160005260206000209001600080909190916101000a81548173ffffffffffffffffffffffffffffffffffffffff021916908373ffffffffffffffffffffffffffffffffffffffff16021790555050600c600087815260200190815260200160002080548060010182816125539190613b45565b916000526020600020900160008060010290919091509060001916905550600d600087815260200190815260200160002080548060010182816125969190613b45565b916000526020600020900160008060010290919091509060001916905550601280548060010182816125c89190613aed565b91600052602060002090016000809091909150555084600e6000888152602001908152602001600020600060011515151581526020019081526020016000208190555083600e60008881526020019081526020016000206000801515151581526020019081526020016000208190555082600f6000888152602001908152602001600020600060011515151581526020019081526020016000208190555081600f600088815260200190815260200160002060008015151515815260200190815260200160002081905550505050505050565b6126a3613b9c565b600b600083815260200190815260200160002080548060200260200160405190810160405280929190818152602001828054801561273657602002820191906000526020600020905b8160009054906101000a900473ffffffffffffffffffffffffffffffffffffffff1673ffffffffffffffffffffffffffffffffffffffff16815260200190600101908083116126ec575b50505050509050919050565b60086020528160005260406000208181548110151561275d57fe5b9060005260206000209001600091509150505481565b61277b613a77565b600c60008381526020019081526020016000208054806020026020016040519081016040528092919081815260200182805480156127dc57602002820191906000526020600020905b815460001916815260200190600101908083116127c4575b50505050509050919050565b60008585858585604051808673ffffffffffffffffffffffffffffffffffffffff1673ffffffffffffffffffffffffffffffffffffffff166c0100000000000000000000000002815260140185815260200184815260200183815260200182815260200195505050505050604051809103902060001916600360020154600019161015612878576000905061287d565b600190505b95945050505050565b6000851561299a57600e6000838152602001908152602001600020600087151515158152602001908152602001600020548402858402101515156128c957600080fd5b6001546001540283600e60008581526020019081526020016000206000891515151581526020019081526020016000205486020281151561290657fe5b046002600082825401925050819055503373ffffffffffffffffffffffffffffffffffffffff166108fc6001546001540285600e600087815260200190815260200160002060008b1515151581526020019081526020016000205488020281151561296d57fe5b0487039081150290604051600060405180830381858888f19350505050151561299557600080fd5b612aa1565b600154600e60008481526020019081526020016000206000881515151581526020019081526020016000205485028115156129d157fe5b0485101515156129e057600080fd5b600154600e6000848152602001908152602001600020600088151515158152602001908152602001600020548502811515612a1757fe5b046002600082825401925050819055503373ffffffffffffffffffffffffffffffffffffffff166108fc600154600e600086815260200190815260200160002060008a151515158152602001908152602001600020548702811515612a7857fe5b0487039081150290604051600060405180830381858888f193505050501515612aa057600080fd5b5b6001905095945050505050565b60015482600e60008681526020019081526020016000206000801515151581526020019081526020016000205402811515612ae557fe5b04600260008282540392505081905550600154600154028183600e600087815260200190815260200160002060006001151515158152602001908152602001600020540202811515612b3357fe5b04600260008282540392505081905550505050565b8015612c8c57816008600087815260200190815260200160002085815481101515612b6f57fe5b9060005260206000209001541415612bab576001601286815481101515612b9257fe5b9060005260206000209001600082825401925050819055505b816009600087815260200190815260200160002085815481101515612bcc57fe5b9060005260206000209001541015612c145760006009600087815260200190815260200160002085815481101515612c0057fe5b906000526020600020900181905550612c4e565b816009600087815260200190815260200160002085815481101515612c3557fe5b9060005260206000209001600082825403925050819055505b816008600087815260200190815260200160002085815481101515612c6f57fe5b906000526020600020900160008282540392505081905550612e02565b600154838302811515612c9b57fe5b046008600087815260200190815260200160002085815481101515612cbc57fe5b9060005260206000209001541415612cf8576001601286815481101515612cdf57fe5b9060005260206000209001600082825401925050819055505b600154838302811515612d0757fe5b046009600087815260200190815260200160002085815481101515612d2857fe5b9060005260206000209001541015612d705760006009600087815260200190815260200160002085815481101515612d5c57fe5b906000526020600020900181905550612db9565b600154838302811515612d7f57fe5b046009600087815260200190815260200160002085815481101515612da057fe5b9060005260206000209001600082825403925050819055505b600154838302811515612dc857fe5b046008600087815260200190815260200160002085815481101515612de957fe5b9060005260206000209001600082825403925050819055505b5050505050565b600080600360000154601284815481101515612e2157fe5b9060005260206000209001541015612e3c57600091506135d8565b600190505b60076000848152602001908152602001600020805490508110156133755760006008600085815260200190815260200160002082815481101515612e8157fe5b9060005260206000209001541415613368576001600760008581526020019081526020016000208054905003811015613367576007600084815260200190815260200160002060018201815481101515612ed757fe5b90600052602060002090602091828204019190069054906101000a900460ff166007600085815260200190815260200160002082815481101515612f1757fe5b90600052602060002090602091828204019190066101000a81548160ff0219169083151502179055506008600084815260200190815260200160002060018201815481101515612f6357fe5b9060005260206000209001546008600085815260200190815260200160002082815481101515612f8f57fe5b9060005260206000209001819055506009600084815260200190815260200160002060018201815481101515612fc157fe5b9060005260206000209001546009600085815260200190815260200160002082815481101515612fed57fe5b906000526020600020900181905550600a60008481526020019081526020016000206001820181548110151561301f57fe5b906000526020600020900154600a60008581526020019081526020016000208281548110151561304b57fe5b906000526020600020900181905550600b60008481526020019081526020016000206001820181548110151561307d57fe5b906000526020600020900160009054906101000a900473ffffffffffffffffffffffffffffffffffffffff16600b6000858152602001908152602001600020828154811015156130c957fe5b906000526020600020900160006101000a81548173ffffffffffffffffffffffffffffffffffffffff021916908373ffffffffffffffffffffffffffffffffffffffff160217905550600c60008481526020019081526020016000206001820181548110151561313557fe5b906000526020600020900154600c60008581526020019081526020016000208281548110151561316157fe5b90600052602060002090018160001916905550600d60008481526020019081526020016000206001820181548110151561319757fe5b906000526020600020900154600d6000858152602001908152602001600020828154811015156131c357fe5b9060005260206000209001816000191690555060076000848152602001908152602001600020600182018154811015156131f957fe5b90600052602060002090602091828204019190066101000a81549060ff0219169055600860008481526020019081526020016000206001820181548110151561323e57fe5b906000526020600020900160009055600960008481526020019081526020016000206001820181548110151561327057fe5b906000526020600020900160009055600a6000848152602001908152602001600020600182018154811015156132a257fe5b906000526020600020900160009055600b6000848152602001908152602001600020600182018154811015156132d457fe5b906000526020600020900160006101000a81549073ffffffffffffffffffffffffffffffffffffffff0219169055600c60008481526020019081526020016000206001820181548110151561332557fe5b906000526020600020900160009055600d60008481526020019081526020016000206001820181548110151561335757fe5b9060005260206000209001600090555b5b8080600101915050612e41565b60128381548110151561338457fe5b90600052602060002090015460076000858152602001908152602001600020805490500360076000858152602001908152602001600020816133c69190613bb0565b506012838154811015156133d657fe5b90600052602060002090015460086000858152602001908152602001600020805490500360086000858152602001908152602001600020816134189190613bea565b5060128381548110151561342857fe5b906000526020600020900154600960008581526020019081526020016000208054905003600960008581526020019081526020016000208161346a9190613bea565b5060128381548110151561347a57fe5b906000526020600020900154600a60008581526020019081526020016000208054905003600a6000858152602001908152602001600020816134bc9190613bea565b506012838154811015156134cc57fe5b906000526020600020900154600b60008581526020019081526020016000208054905003600b60008581526020019081526020016000208161350e9190613c16565b5060128381548110151561351e57fe5b906000526020600020900154600c60008581526020019081526020016000208054905003600c6000858152602001908152602001600020816135609190613c42565b5060128381548110151561357057fe5b906000526020600020900154600d60008581526020019081526020016000208054905003600d6000858152602001908152602001600020816135b29190613c42565b5060006012848154811015156135c457fe5b906000526020600020900181905550600191505b50919050565b600060076000858152602001908152602001600020805490508310151561360457600080fd5b60076000858152602001908152602001600020805490508210151561362857600080fd5b600760008581526020019081526020016000208281548110151561364857fe5b90600052602060002090602091828204019190069054906101000a900460ff161515600760008681526020019081526020016000208481548110151561368a57fe5b90600052602060002090602091828204019190069054906101000a900460ff161515141515156136b957600080fd5b600060086000868152602001908152602001600020848154811015156136db57fe5b906000526020600020900154141515156136f457600080fd5b6000600860008681526020019081526020016000208381548110151561371657fe5b9060005260206000209001541415151561372f57600080fd5b600190509392505050565b60006001546001540282600e60008781526020019081526020016000206000600115151515815260200190815260200160002054600360010154020281151561377f57fe5b0490508273ffffffffffffffffffffffffffffffffffffffff166108fc829081150290604051600060405180830381858888f1935050505015156137c257600080fd5b50505050565b7f835256f687a0477436e79e9954c841b9c7a175ad0b152130f6ab141855b2f66e600b60008781526020019081526020016000208581548110151561380957fe5b906000526020600020900160009054906101000a900473ffffffffffffffffffffffffffffffffffffffff16600b60008881526020019081526020016000208581548110151561385557fe5b906000526020600020900160009054906101000a900473ffffffffffffffffffffffffffffffffffffffff16600c6000898152602001908152602001600020878154811015156138a157fe5b906000526020600020900154600c60008a8152602001908152602001600020878154811015156138cd57fe5b906000526020600020900154600d60008b8152602001908152602001600020898154811015156138f957fe5b906000526020600020900154600d60008c81526020019081526020016000208981548110151561392557fe5b9060005260206000209001548888604051808973ffffffffffffffffffffffffffffffffffffffff1673ffffffffffffffffffffffffffffffffffffffff1681526020018873ffffffffffffffffffffffffffffffffffffffff1673ffffffffffffffffffffffffffffffffffffffff16815260200187600019166000191681526020018660001916600019168152602001856000191660001916815260200184600019166000191681526020018381526020018281526020019850505050505050505060405180910390a15050505050565b6000806007600088815260200190815260200160002086815481101515613a1b57fe5b90600052602060002090602091828204019190069054906101000a900460ff1615613a4b57859150849050613a52565b8491508590505b613a60878386866001612b48565b613a6e878286866000612b48565b50505050505050565b602060405190810160405280600081525090565b602060405190810160405280600081525090565b602060405190810160405280600081525090565b815481835581811511613ae857601f016020900481601f01602090048360005260206000209182019101613ae79190613c6e565b5b505050565b815481835581811511613b1457818360005260206000209182019101613b139190613c6e565b5b505050565b815481835581811511613b4057818360005260206000209182019101613b3f9190613c6e565b5b505050565b815481835581811511613b6c57818360005260206000209182019101613b6b9190613c93565b5b505050565b6080604051908101604052806000151581526020016000815260200160008152602001600081525090565b602060405190810160405280600081525090565b815481835581811511613be557601f016020900481601f01602090048360005260206000209182019101613be49190613c6e565b5b505050565b815481835581811511613c1157818360005260206000209182019101613c109190613c6e565b5b505050565b815481835581811511613c3d57818360005260206000209182019101613c3c9190613c6e565b5b505050565b815481835581811511613c6957818360005260206000209182019101613c689190613c93565b5b505050565b613c9091905b80821115613c8c576000816000905550600101613c74565b5090565b90565b613cb591905b80821115613cb1576000816000905550600101613c99565b5090565b90565b84600360000181905550836003600101819055508260036002018160001916905550816003800160016101000a81548160ff021916908315150217905550806003800160006101000a81548160ff02191690831515021790555050505050505600a165627a7a72305820a7591e97c63463c0b8da0848deaeb1ad785d00ad89ebf160ba382cb6fa8810420029",
  "source": "pragma solidity ^0.4.18;\n\nimport 'zeppelin-solidity/contracts/math/SafeMath.sol';\nimport './ExchangeStructs.sol';\n/// @title Exchange\n/// @author Karim Helmy\n\n// Primary contract: Describes functions of exchange\ncontract Exchange is ExchangeStructs {\n  // TODO: Make all operations safe\n  using SafeMath for uint;\n\n  // SECTION: Declaring/initializing variables\n  address public owner = msg.sender;\n  uint public PRECISION = 10 ** 18;\n\n  // separate out the open balance (includes unclosed fees, gas fees),\n  // which will be distributed between miners, the exchange, and traders,\n  // from closed balance, which belongs to the exchange\n  uint public openBalance = 0;\n\n  Parameters public params;\n\n  // separate chapters for different currency pairs\n  // that's why they're 2D\n  /*\n  * Web3 can't properly handle structs.\n  * Ethers.js can only handle them under experimental version.\n  * Therefore, the old orderBook and adressBook pattern won't work.\n  * \\_()_/\n  */\n  // separate chapters for different currency pairs\n  // that's why they're 2D\n  mapping (uint => bool[]) public buyBook;\n  mapping (uint => uint[]) public volBook;\n  mapping (uint => uint[]) public minVolBook;\n  mapping (uint => uint[]) public limitBook;\n\n  mapping (uint => address[]) public ethAddressBook;\n  mapping (uint => bytes32[]) public firstAddressBook;\n  mapping (uint => bytes32[]) public secondAddressBook;\n\n  // Fixed fees per unit, rather than using dynamic exchange rate\n  // Different fees for buy/sell\n  // can be done with mapping (uint => mapping (bool => uint))\n  // Allows us to use multiple currencies (not just Ether trading pairs)\n\n  mapping (uint => mapping (bool => uint)) closureFees;\n  mapping (uint => mapping (bool => uint)) cancelFees;\n\n  // KYC whitelists\n  mapping (address => bool) minerWhitelist;\n  mapping (address => bool) traderWhitelist;\n\n  // Numbers of orders that have been closed are kept here\n  uint[] numsCleared;\n\n  // SECTION: Constructor and helpers\n  // Constructor for contract\n  function Exchange(uint closureFeeBuy0, uint closureFeeSell0,\n                    uint cancelFeeBuy0, uint cancelFeeSell0,\n                    uint cleanSize, uint minerShare,\n                    bytes32 difficulty, bool minerKYC, bool traderKYC)\n    public\n  {\n    // Initialize parameters books\n    setParams(cleanSize, minerShare, difficulty, minerKYC, traderKYC);\n    // Initialize order books\n    addChapter(0, closureFeeBuy0, closureFeeSell0,\n                cancelFeeBuy0, cancelFeeSell0);\n    return;\n  }\n\n  // SECTION: Permissions\n  // Modified: http://solidity.readthedocs.io/en/v0.3.1/common-patterns.html\n  modifier onlyBy(address _account)\n  {\n    require(msg.sender == _account);\n    _;\n  }\n\n  modifier minerWhitelisted(address _account)\n  {\n    require(minerWhitelist[msg.sender] || ! params.minerKYC);\n    _;\n  }\n\n  modifier traderWhitelisted(address _account)\n  {\n    require(traderWhitelist[msg.sender] || ! params.traderKYC);\n    _;\n  }\n\n  function changeOwner(address _newOwner)\n    public\n    onlyBy(owner)\n  {\n    owner = _newOwner;\n  }\n\n  function addToMinerWhitelist(address newAddress)\n    public\n    onlyBy(owner)\n  {\n    minerWhitelist[newAddress] = true;\n  }\n\n  function addToTraderWhitelist(address newAddress)\n    public\n    onlyBy(owner)\n  {\n    traderWhitelist[newAddress] = true;\n  }\n\n  /*\n  * Initializes order book and address book for chapter\n  * Only used in constructor\n  * Pushes \"genesis order\" to chapter\n  * ONLY USE FOR MOST RECENT CHAPTER + 1\n  */\n  function addChapter(uint chapter, uint closureFeeBuy, uint closureFeeSell,\n                      uint cancelFeeBuy, uint cancelFeeSell)\n    public\n    onlyBy(owner)\n  {\n    buyBook[chapter].push(false);\n    volBook[chapter].push(0);\n    minVolBook[chapter].push(0);\n    limitBook[chapter].push(0);\n\n    ethAddressBook[chapter].push(address(0));\n    firstAddressBook[chapter].push(bytes32(0));\n    secondAddressBook[chapter].push(bytes32(0));\n    // Initialize numsCleared[chapter] as zero\n    numsCleared.push(0);\n\n    closureFees[chapter][true] = closureFeeBuy;\n    closureFees[chapter][false] = closureFeeSell;\n    cancelFees[chapter][true] = cancelFeeBuy;\n    cancelFees[chapter][false] = cancelFeeSell;\n  }\n\n  // Init the params struct, which contains the bulk of exchange's parameters\n  // Only used in constructor\n  function setParams(uint cleanSize, uint minerShare,\n                    bytes32 difficulty, bool minerKYC, bool traderKYC)\n    internal\n  {\n    params.cleanSize = cleanSize;\n    params.minerShare = minerShare;\n    params.difficulty = difficulty;\n    params.minerKYC = minerKYC;\n    params.traderKYC = traderKYC;\n  }\n\n  // SECTION: Getters\n  // Get chapter from order book\n  function getOrderChapter(uint chapter)\n    external\n    view\n    returns(bool[] buyChapter, uint[] volChapter,\n            uint[] minVolChapter, uint[] limitChapter)\n  {\n    return(buyBook[chapter], volBook[chapter],\n          minVolBook[chapter], limitBook[chapter]);\n  }\n\n  /*\n  * Wish I could've bundled these.\n  * For some reason, get a bug when firstAddressChapter and secondAddressChapter are together.\n  * Suspect it has something to do with returning dynamic arrays of fixed size arrays\n  */\n  // Get chapter from ethAddressBook\n  function getETHAddressChapter(uint chapter)\n    external\n    view\n    returns(address[] ethAddressChapter)\n  {\n    return(ethAddressBook[chapter]);\n  }\n\n  // Get chapter from firstAddressBook\n  function getFirstAddressChapter(uint chapter)\n    external\n    view\n    returns(bytes32[] firstAddressChapter)\n  {\n    return(firstAddressBook[chapter]);\n  }\n\n  // Get chapter from secondAddressBook\n  function getSecondAddressChapter(uint chapter)\n    external\n    view\n    returns(bytes32[] secondAddressChapter)\n  {\n    return(secondAddressBook[chapter]);\n  }\n\n  // SECTION: Core functionality\n  // Checks edge cases for match verification\n  function checkMatchEdges(uint chapter, uint index1, uint index2)\n    private\n    view\n    returns(bool passes)\n  {\n    // valid indices\n    require(index1 < buyBook[chapter].length);\n    require(index2 < buyBook[chapter].length);\n    //One buy order and one sell order\n    require(buyBook[chapter][index1] != buyBook[chapter][index2]);\n    //Non-empty order\n    require(volBook[chapter][index1] != 0);\n    require(volBook[chapter][index2] != 0);\n    // All edge cases work!\n    return true;\n  }\n\n  // verifies that match is valid\n  function calcRateAndVol(uint chapter, uint index1, uint index2)\n    public\n    view\n    returns (uint mimRate, uint alphaVol)\n  {\n    // check edge cases\n    if (! checkMatchEdges(chapter, index1, index2)) {\n      return (0,0);\n    }\n    // which order is buying and selling ETH?\n    // buy-sell copy1\n    uint buyIndex;\n    uint sellIndex;\n    if (buyBook[chapter][index1]) {\n      buyIndex = index1;\n      sellIndex = index2;\n    } else{\n      buyIndex = index2;\n      sellIndex = index1;\n    }\n    // shorthand for buy and sell orders\n    Order memory buyOrder = Order(true, volBook[chapter][buyIndex],\n                                  minVolBook[chapter][buyIndex],\n                                  limitBook[chapter][buyIndex]);\n    Order memory sellOrder = Order(false, volBook[chapter][sellIndex],\n                                  minVolBook[chapter][sellIndex],\n                                  limitBook[chapter][sellIndex]);\n\n    // Non-contradictory limits\n    if (buyOrder.limit < sellOrder.limit) {\n      return (0, 0);\n    }\n    // Meet in middle rate\n    // mimRate\n    mimRate = (buyOrder.limit + sellOrder.limit) / 2;\n    // Volumes comparable\n    if (buyOrder.volume * PRECISION > sellOrder.volume * mimRate) {\n      if (buyOrder.minVolume * PRECISION > sellOrder.volume * mimRate) {\n        return (0, 0);\n      }\n      return (mimRate, sellOrder.volume * mimRate);\n    }\n    if (sellOrder.volume * mimRate > buyOrder.volume * PRECISION ) {\n      if (sellOrder.minVolume * mimRate > buyOrder.volume * PRECISION) {\n        return (0, 0);\n      }\n    }\n    return (mimRate, buyOrder.volume);\n  }\n\n  // Clears closed trade, reenters into order book if incomplete\n  function clearTrade(uint chapter, uint index1, uint index2,\n                      uint mimRate, uint alphaVol)\n    private\n  {\n    // which order is buying and selling ETH?\n    // buy-sell copy1\n    uint buyIndex;\n    uint sellIndex;\n    if (buyBook[chapter][index1]) {\n      buyIndex = index1;\n      sellIndex = index2;\n    } else{\n      buyIndex = index2;\n      sellIndex = index1;\n    }\n    clearOrder(chapter, buyIndex, mimRate, alphaVol, true);\n    clearOrder(chapter, sellIndex, mimRate, alphaVol, false);\n  }\n\n  function clearOrder(uint chapter, uint index,\n                      uint mimRate, uint alphaVol, bool buyAlpha)\n    private\n  {\n    if (buyAlpha) {\n      if (volBook[chapter][index] == alphaVol) {\n        numsCleared[chapter] += 1;\n      }\n      if (minVolBook[chapter][index] < alphaVol) {\n        minVolBook[chapter][index] = 0;\n      } else{\n        minVolBook[chapter][index] -= alphaVol;\n      }\n      volBook[chapter][index] -= alphaVol;\n    } else{\n      if (volBook[chapter][index] == (alphaVol * mimRate / PRECISION)) {\n        numsCleared[chapter] += 1;\n      }\n      if (minVolBook[chapter][index] < (alphaVol * mimRate / PRECISION)) {\n        minVolBook[chapter][index] = 0;\n      } else{\n        minVolBook[chapter][index] -= (alphaVol * mimRate / PRECISION);\n      }\n      volBook[chapter][index] -= alphaVol * mimRate / PRECISION;\n    }\n  }\n\n  // Adds trade to log, for traders to note\n  // http://solidity.readthedocs.io/en/latest/contracts.html?highlight=events#events\n  function alertTraders(uint chapter, uint index1, uint index2, uint mimRate, uint alphaVol)\n    private\n  {\n    TradeInfo(\n      ethAddressBook[chapter][index1], //ethAddress1,\n      ethAddressBook[chapter][index2], //ethAddress2,\n      firstAddressBook[chapter][index1], //firstAddress1,\n      firstAddressBook[chapter][index2], //firstAddress2,\n      secondAddressBook[chapter][index1], //otherAddress1,\n      secondAddressBook[chapter][index2], // otherAddress2,\n      mimRate,\n      alphaVol\n    );\n  }\n\n  // Move balance from open to closed\n  function clearBalance(uint chapter, uint alphaVol, uint buyLimit)\n    private\n  {\n    openBalance -= (closureFees[chapter][false] * alphaVol) / PRECISION;\n    openBalance -= (closureFees[chapter][true] * alphaVol * buyLimit) / (PRECISION * PRECISION);\n  }\n\n  // Clean chapter (called when size reaches size to clean)\n  function cleanChapter(uint chapter)\n    private\n    returns(bool cleaned)\n  {\n    // Clean chapter only if size is appropriate\n    if (numsCleared[chapter] < params.cleanSize) {\n      return false;\n    }\n    // For all orders\n    // If it's a cleared order:\n    // Replace it with the next one, and clear the next one\n    for (uint i = 1; i < buyBook[chapter].length; i++) {\n      if (volBook[chapter][i] == 0) {\n        if (i < buyBook[chapter].length - 1) {\n          buyBook[chapter][i] = buyBook[chapter][i+1];\n          volBook[chapter][i] = volBook[chapter][i+1];\n          minVolBook[chapter][i] = minVolBook[chapter][i+1];\n          limitBook[chapter][i] = limitBook[chapter][i+1];\n\n          ethAddressBook[chapter][i] = ethAddressBook[chapter][i+1];\n          firstAddressBook[chapter][i] = firstAddressBook[chapter][i+1];\n          secondAddressBook[chapter][i] = secondAddressBook[chapter][i+1];\n\n          delete buyBook[chapter][i+1];\n          delete volBook[chapter][i+1];\n          delete minVolBook[chapter][i+1];\n          delete limitBook[chapter][i+1];\n\n          delete ethAddressBook[chapter][i+1];\n          delete firstAddressBook[chapter][i+1];\n          delete secondAddressBook[chapter][i+1];\n        }\n      }\n    }\n    buyBook[chapter].length = buyBook[chapter].length - numsCleared[chapter];\n    volBook[chapter].length = volBook[chapter].length - numsCleared[chapter];\n    minVolBook[chapter].length = minVolBook[chapter].length - numsCleared[chapter];\n    limitBook[chapter].length = limitBook[chapter].length - numsCleared[chapter];\n\n    ethAddressBook[chapter].length = ethAddressBook[chapter].length - numsCleared[chapter];\n    firstAddressBook[chapter].length = firstAddressBook[chapter].length - numsCleared[chapter];\n    secondAddressBook[chapter].length = secondAddressBook[chapter].length - numsCleared[chapter];\n\n    numsCleared[chapter] = 0;\n    return true;\n  }\n\n  // Checks if POW (nonce) is valid\n  // Performs nonce verification (keccak256)\n  // Helper for giveMatch\n  function isValidPOW(address depositAddress, uint chapter, uint index1,\n                      uint index2, uint nonce)\n    private\n    view\n    returns(bool isValid)\n  {\n    if (params.difficulty < keccak256(depositAddress, chapter, index1, index2, nonce)) {\n      return false;\n    }\n    return true;\n  }\n\n  // Function to pay the miner what's due\n  function payMiner(uint chapter, address depositAddress, uint alphaVol)\n    private\n  {\n    // Calculate the miner's payment\n    uint minerPayment = ((params.minerShare * closureFees[chapter][true] * alphaVol) /\n                          (PRECISION * PRECISION));\n    // Pay the miner\n    depositAddress.transfer(minerPayment);\n  }\n\n  // Miners suggest matches with this function\n  // Wrapper for calcRateAndVol and isValidPOW, performs other required functions\n  function giveMatch(address depositAddress, uint chapter,\n                    uint index1, uint index2, uint nonce)\n    public\n    minerWhitelisted(msg.sender)\n    returns(bool isValid)\n  {\n    // Validate nonce\n    require(isValidPOW(depositAddress, chapter, index1, index2, nonce));\n    var (mimRate, alphaVol) = calcRateAndVol(chapter, index1, index2);\n    require(alphaVol > 0);\n    // which order is buying and selling ETH?\n    // buy-sell copy1\n    uint buyIndex;\n    uint sellIndex;\n    if (buyBook[chapter][index1]) {\n      buyIndex = index1;\n      sellIndex = index2;\n    } else{\n      buyIndex = index2;\n      sellIndex = index1;\n    }\n    payMiner(chapter, depositAddress, alphaVol);\n    clearBalance(chapter, alphaVol, limitBook[chapter][buyIndex]);\n    alertTraders(chapter, buyIndex, sellIndex, mimRate, alphaVol);\n    clearTrade(chapter, index1, index2, mimRate, alphaVol);\n    cleanChapter(chapter);\n    return true;\n  }\n\n  // Checks whether user has paid enough with the order that was placed\n  function paidEnough(bool buyAlpha, uint value, uint volume, uint limit, uint chapter)\n    private\n    returns(bool accepted)\n  {\n    if (buyAlpha) {\n      require(limit * value >= volume * closureFees[chapter][buyAlpha]);\n      openBalance += volume * closureFees[chapter][buyAlpha] * limit / (PRECISION * PRECISION);\n      msg.sender.transfer(value - (volume * closureFees[chapter][buyAlpha] *\n                          limit / (PRECISION * PRECISION)));\n    } else{\n      require(value >= volume * closureFees[chapter][buyAlpha] / PRECISION);\n      openBalance += volume * closureFees[chapter][buyAlpha] / PRECISION;\n      msg.sender.transfer(value - (volume * closureFees[chapter][buyAlpha] / PRECISION));\n    }\n    return true;\n  }\n\n  // Place market taker orders: choose an index and match with it\n  function placeTakeOrder(bool buyAlpha, uint volume,\n                          address ethAddress, bytes32 firstAddress,\n                          bytes32 otherAddress,\n                          uint chapter, uint index1, uint nonce)\n    public\n    payable\n    traderWhitelisted(msg.sender)\n    returns(bool accepted)\n  {\n    require(index1 < buyBook[chapter].length);\n    //One buy order and one sell order\n    require(buyAlpha != buyBook[chapter][index1]);\n    //Non-empty order\n    require(volBook[chapter][index1] != 0);\n    require(volume > 0);\n    require(isValidPOW(ethAddress, chapter, 0, index1, nonce));\n    require(paidEnough(buyAlpha, msg.value, volume, limitBook[chapter][index1], chapter));\n\n    uint alphaVol;\n    if (buyAlpha) {\n      require(volume >= minVolBook[chapter][index1] *\n              limitBook[chapter][index1] /  PRECISION);\n      require(volume <= volBook[chapter][index1] *\n              limitBook[chapter][index1] / PRECISION);\n      alphaVol = volume;\n      TradeInfo(\n        ethAddress, //ethAddress1,\n        ethAddressBook[chapter][index1], //ethAddress2,\n        firstAddress, //firstAddress1,\n        firstAddressBook[chapter][index1], //firstAddress2,\n        otherAddress, //otherAddress1,\n        secondAddressBook[chapter][index1], // otherAddress2,\n        limitBook[chapter][index1],\n        alphaVol\n      );\n    } else {\n      alphaVol = volume * limitBook[chapter][index1] /  PRECISION;\n      require(alphaVol >= minVolBook[chapter][index1]);\n      require(alphaVol <= volBook[chapter][index1]);\n      TradeInfo(\n        ethAddressBook[chapter][index1], //ethAddress1,\n        ethAddress, //ethAddress2,\n        firstAddressBook[chapter][index1], //firstAddress1,\n        firstAddress, //firstAddress2,\n        secondAddressBook[chapter][index1], //otherAddress1,\n        otherAddress, // otherAddress2,\n        limitBook[chapter][index1],\n        alphaVol\n      );\n    }\n\n    clearBalance(alphaVol, limitBook[chapter][index1], limitBook[chapter][index1]);\n    clearOrder(chapter, index1, limitBook[chapter][index1], alphaVol, ! buyAlpha);\n    cleanChapter(chapter);\n    return true;\n  }\n\n  // Allows traders to place (limit) orders\n  function placeOrder(bool buyAlpha, uint volume, uint minVolume, uint limit,\n                      address ethAddress, bytes32 firstAddress,\n                      bytes32 otherAddress, uint chapter)\n    public\n    payable\n    traderWhitelisted(msg.sender)\n    returns(bool accepted)\n  {\n    require(volume > 0);\n    require(minVolume > 0);\n    require(volume >= minVolume);\n    require(limit > 0);\n    require(paidEnough(buyAlpha, msg.value, volume, limit, chapter));\n    require(buyBook[chapter].length > 0);\n\n    buyBook[chapter].push(buyAlpha);\n    volBook[chapter].push(volume);\n    minVolBook[chapter].push(minVolume);\n    limitBook[chapter].push(limit);\n\n    ethAddressBook[chapter].push(ethAddress);\n    firstAddressBook[chapter].push(firstAddress);\n    secondAddressBook[chapter].push(otherAddress);\n    return true;\n  }\n\n  // Allows traders to cancel orders\n  function cancelOrder(uint chapter, uint index)\n    public\n    returns(bool accepted)\n  {\n    require(index < buyBook[chapter].length);\n    // Can't cancel other people's orders\n    require(msg.sender == ethAddressBook[chapter][index]);\n\n    uint limit = limitBook[chapter][index];\n    uint volume = volBook[chapter][index];\n    bool buyAlpha = buyBook[chapter][index];\n\n    // Refund according to alpha transaction volume\n    if (buyBook[chapter][index]) {\n      msg.sender.transfer(volume * (closureFees[chapter][buyAlpha] - cancelFees[chapter][buyAlpha]) / limit);\n    } else{\n      msg.sender.transfer(volume * (closureFees[chapter][buyAlpha] - cancelFees[chapter][buyAlpha]) / limit);\n    }\n    delete buyBook[chapter][index];\n    delete volBook[chapter][index];\n    delete minVolBook[chapter][index];\n    delete limitBook[chapter][index];\n\n    delete ethAddressBook[chapter][index];\n    delete firstAddressBook[chapter][index];\n    delete secondAddressBook[chapter][index];\n\n    numsCleared[chapter] += 1;\n    cleanChapter(chapter);\n    return true;\n  }\n}\n",
  "sourcePath": "/Users/Karim/Desktop/Valex/contracts/Exchange.sol",
  "compiler": {
    "name": "solc",
    "version": "0.4.18+commit.9cf6e910.Emscripten.clang"
  },
  "schemaVersion": "1.0.1",
  "updatedAt": "2018-05-14T16:29:25.745Z"
}