{
  "contractName": "Exchange",
  "abi": [
    {
      "constant": true,
      "inputs": [
        {
          "name": "",
          "type": "uint256"
        },
        {
          "name": "",
          "type": "uint256"
        }
      ],
      "name": "orderBook",
      "outputs": [
        {
          "name": "buyETH",
          "type": "bool"
        },
        {
          "name": "volume",
          "type": "uint256"
        }
      ],
      "payable": false,
      "stateMutability": "view",
      "type": "function"
    },
    {
      "constant": false,
      "inputs": [
        {
          "name": "buyETH",
          "type": "bool"
        },
        {
          "name": "volume",
          "type": "uint256"
        },
        {
          "name": "limit0",
          "type": "uint256"
        },
        {
          "name": "limit1",
          "type": "uint256"
        },
        {
          "name": "ethAddress",
          "type": "address"
        },
        {
          "name": "firstAddress",
          "type": "string"
        },
        {
          "name": "otherAddress",
          "type": "string"
        },
        {
          "name": "chapter",
          "type": "uint256"
        }
      ],
      "name": "placeOrder",
      "outputs": [
        {
          "name": "accepted",
          "type": "bool"
        }
      ],
      "payable": true,
      "stateMutability": "payable",
      "type": "function"
    },
    {
      "constant": false,
      "inputs": [
        {
          "name": "chapter",
          "type": "uint256"
        },
        {
          "name": "index1",
          "type": "uint256"
        },
        {
          "name": "index2",
          "type": "uint256"
        },
        {
          "name": "nonce",
          "type": "bytes32"
        },
        {
          "name": "hashVal",
          "type": "uint256"
        }
      ],
      "name": "giveMatch",
      "outputs": [
        {
          "name": "isValid",
          "type": "bool"
        }
      ],
      "payable": true,
      "stateMutability": "payable",
      "type": "function"
    },
    {
      "constant": true,
      "inputs": [],
      "name": "balances",
      "outputs": [
        {
          "name": "openBalance",
          "type": "uint256"
        },
        {
          "name": "closedBalance",
          "type": "uint256"
        }
      ],
      "payable": false,
      "stateMutability": "view",
      "type": "function"
    },
    {
      "constant": false,
      "inputs": [
        {
          "name": "chapter",
          "type": "uint256"
        },
        {
          "name": "index",
          "type": "uint256"
        }
      ],
      "name": "cancelOrder",
      "outputs": [
        {
          "name": "accepted",
          "type": "bool"
        }
      ],
      "payable": false,
      "stateMutability": "nonpayable",
      "type": "function"
    },
    {
      "constant": true,
      "inputs": [],
      "name": "params",
      "outputs": [
        {
          "name": "closureFeePerUnit",
          "type": "uint256"
        },
        {
          "name": "cancelFeePerUnit",
          "type": "uint256"
        },
        {
          "name": "cleanSize",
          "type": "uint256"
        },
        {
          "name": "distBalance",
          "type": "uint256"
        }
      ],
      "payable": false,
      "stateMutability": "view",
      "type": "function"
    },
    {
      "inputs": [
        {
          "name": "closureFeePerUnit",
          "type": "uint256"
        },
        {
          "name": "cancelFeePerUnit",
          "type": "uint256"
        },
        {
          "name": "margin0",
          "type": "uint256"
        },
        {
          "name": "margin1",
          "type": "uint256"
        },
        {
          "name": "cleanSize",
          "type": "uint256"
        },
        {
          "name": "minershare0",
          "type": "uint256"
        },
        {
          "name": "minerShare1",
          "type": "uint256"
        },
        {
          "name": "distBalance",
          "type": "uint256"
        }
      ],
      "payable": false,
      "stateMutability": "nonpayable",
      "type": "constructor"
    },
    {
      "anonymous": false,
      "inputs": [
        {
          "indexed": false,
          "name": "ethAddress1",
          "type": "address"
        },
        {
          "indexed": false,
          "name": "ethAddress2",
          "type": "address"
        },
        {
          "indexed": false,
          "name": "firstAddress1",
          "type": "string"
        },
        {
          "indexed": false,
          "name": "firstAddress2",
          "type": "string"
        },
        {
          "indexed": false,
          "name": "otherAddress1",
          "type": "string"
        },
        {
          "indexed": false,
          "name": "otherAddress2",
          "type": "string"
        },
        {
          "indexed": false,
          "name": "ethVol",
          "type": "uint256"
        },
        {
          "indexed": false,
          "name": "otherVol",
          "type": "uint256"
        }
      ],
      "name": "TradeInfo",
      "type": "event"
    }
  ],
  "bytecode": "0x60606040526000600d60006101000a81548160ff02191690831515021790555034156200002b57600080fd5b60405161010080620023b48339810160405280805190602001909190805190602001909190805190602001909190805190602001909190805190602001909190805190602001909190805190602001909190805190602001909190505060001515600d60009054906101000a900460ff161515141515620000ab57600080fd5b620000d1888888888888888862000145640100000000026200208c176401000000009004565b50620000f0620001e66401000000000262002129176401000000009004565b50600c8054806001018281620001079190620001ef565b9160005260206000209001600080909190915055506001600d60006101000a81548160ff021916908315150217905550505050505050505062000246565b60008860008001819055508760006001018190555086600060020160006002811015156200016f57fe5b018190555085600060020160016002811015156200018957fe5b0181905550846000600401819055508360006005016000600281101515620001ad57fe5b01819055508260006005016001600281101515620001c757fe5b0181905550816000600701819055506001905098975050505050505050565b60006001905090565b81548183558181151162000219578183600052602060002091820191016200021891906200021e565b5b505050565b6200024391905b808211156200023f57600081600090555060010162000225565b5090565b90565b61215e80620002566000396000f300606060405260043610610078576000357c0100000000000000000000000000000000000000000000000000000000900463ffffffff16806314974f461461007d5780634aed275c146100c85780635a1f6393146101c35780637bb98a681461021b578063b6ed06321461024b578063cff0ab961461028f575b600080fd5b341561008857600080fd5b6100a760048080359060200190919080359060200190919050506102cd565b60405180831515151581526020018281526020019250505060405180910390f35b6101a96004808035151590602001909190803590602001909190803590602001909190803590602001909190803573ffffffffffffffffffffffffffffffffffffffff1690602001909190803590602001908201803590602001908080601f0160208091040260200160405190810160405280939291908181526020018383808284378201915050505050509190803590602001908201803590602001908080601f0160208091040260200160405190810160405280939291908181526020018383808284378201915050505050509190803590602001909190505061031a565b604051808215151515815260200191505060405180910390f35b61020160048080359060200190919080359060200190919080359060200190919080356000191690602001909190803590602001909190505061055a565b604051808215151515815260200191505060405180910390f35b341561022657600080fd5b61022e610673565b604051808381526020018281526020019250505060405180910390f35b341561025657600080fd5b6102756004808035906020019091908035906020019091905050610685565b604051808215151515815260200191505060405180910390f35b341561029a57600080fd5b6102a261099c565b6040518085815260200184815260200183815260200182815260200194505050505060405180910390f35b600a602052816000526040600020818154811015156102e857fe5b9060005260206000209060040201600091509150508060000160009054906101000a900460ff16908060010154905082565b6000610324611d55565b60008911151561033357600080fd5b6000881180156103435750600087115b151561034e57600080fd5b89156103715760008001548802348a89020211151561036c57600080fd5b61038a565b60008001548702348a8a020211151561038957600080fd5b5b8781600060028110151561039a57fe5b602002018181525050868160016002811015156103b357fe5b602002018181525050600a600084815260200190815260200160002080548060010182816103e19190611d7c565b916000526020600020906004020160006060604051908101604052808e151581526020018d815260200185815250909190915060008201518160000160006101000a81548160ff02191690831515021790555060208201518160010155604082015181600201906002610455929190611dae565b50505050600b6000848152602001908152602001600020805480600101828161047e9190611dee565b916000526020600020906003020160006060604051908101604052808a73ffffffffffffffffffffffffffffffffffffffff16815260200189815260200188815250909190915060008201518160000160006101000a81548173ffffffffffffffffffffffffffffffffffffffff021916908373ffffffffffffffffffffffffffffffffffffffff1602179055506020820151816001019080519060200190610528929190611e20565b506040820151816002019080519060200190610545929190611e20565b50505050600191505098975050505050505050565b6000610564611d55565b60006105718888886109ba565b15806105885750610586338989898989610e30565b155b156105965760009250610668565b6105a1888888610f0b565b9150600060050160016002811015156105b657fe5b01548260006002811015156105c757fe5b60200201516000800154600060050160006002811015156105e457fe5b015402028115156105f157fe5b0490503373ffffffffffffffffffffffffffffffffffffffff166108fc829081150290604051600060405180830381858888f19350505050151561063457600080fd5b61063e81836111c4565b5061064b88888885611243565b5061065888888885611729565b506106628861198f565b50600192505b505095945050505050565b60088060000154908060010154905082565b6000806000600a600086815260200190815260200160002080549050841015156106ae57600080fd5b600b6000868152602001908152602001600020848154811015156106ce57fe5b906000526020600020906003020160000160009054906101000a900473ffffffffffffffffffffffffffffffffffffffff1673ffffffffffffffffffffffffffffffffffffffff163373ffffffffffffffffffffffffffffffffffffffff1614151561073957600080fd5b600a60008681526020019081526020016000208481548110151561075957fe5b906000526020600020906004020160000160009054906101000a900460ff16156107c557600a60008681526020019081526020016000208481548110151561079d57fe5b906000526020600020906004020160020160006002811015156107bc57fe5b01549150610809565b600a6000868152602001908152602001600020848154811015156107e557fe5b9060005260206000209060040201600201600160028110151561080457fe5b015491505b600060010154600080015403820290503373ffffffffffffffffffffffffffffffffffffffff166108fc829081150290604051600060405180830381858888f19350505050151561085957600080fd5b6000800154820260086000015403600860000181905550600060010154820260086001015401600860010181905550600a6000868152602001908152602001600020848154811015156108a857fe5b9060005260206000209060040201600080820160006101000a81549060ff021916905560018201600090556002820160006108e39190611ea0565b5050600b60008681526020019081526020016000208481548110151561090557fe5b9060005260206000209060030201600080820160006101000a81549073ffffffffffffffffffffffffffffffffffffffff021916905560018201600061094b9190611eae565b60028201600061095b9190611eae565b50506001600c8681548110151561096e57fe5b90600052602060002090016000828254019250508190555061098f8561198f565b5060019250505092915050565b60008060000154908060010154908060040154908060070154905084565b60008060006109c7611ef6565b6109cf611ef6565b6109d7611d55565b6109e2898989611bdc565b15156109f15760009550610e24565b600a60008a815260200190815260200160002088815481101515610a1157fe5b906000526020600020906004020160000160009054906101000a900460ff1615610a4057879450869350610a47565b8694508793505b600a60008a815260200190815260200160002085815481101515610a6757fe5b9060005260206000209060040201606060405190810160405290816000820160009054906101000a900460ff161515151581526020016001820154815260200160028201600280602002604051908101604052809291908260028015610ae2576020028201915b815481526020019060010190808311610ace575b5050505050815250509250600a60008a815260200190815260200160002084815481101515610b0d57fe5b9060005260206000209060040201606060405190810160405290816000820160009054906101000a900460ff161515151581526020016001820154815260200160028201600280602002604051908101604052809291908260028015610b88576020028201915b815481526020019060010190808311610b74575b505050505081525050915081604001516000600281101515610ba657fe5b602002015183604001516001600281101515610bbe57fe5b60200201510282604001516001600281101515610bd757fe5b602002015184604001516000600281101515610bef57fe5b6020020151021015610c045760009550610e24565b600282604001516001600281101515610c1957fe5b602002015184604001516000600281101515610c3157fe5b60200201510202816001600281101515610c4757fe5b60200201818152505081604001516001600281101515610c6357fe5b602002015183604001516000600281101515610c7b57fe5b60200201510282604001516000600281101515610c9457fe5b602002015184604001516001600281101515610cac57fe5b60200201510201816000600281101515610cc257fe5b602002018181525050806001600281101515610cda57fe5b6020020151826020015102816000600281101515610cf457fe5b60200201518460200151021115610d7557806001600281101515610d1457fe5b602002015160006002016001600281101515610d2c57fe5b015483602001510202816000600281101515610d4457fe5b602002015160006002016000600281101515610d5c57fe5b0154856020015102021115610d745760009550610e24565b5b806000600281101515610d8457fe5b6020020151836020015102816001600281101515610d9e57fe5b60200201518360200151021115610e1f57806001600281101515610dbe57fe5b602002015160006002016001600281101515610dd657fe5b015484602001510202816000600281101515610dee57fe5b602002015160006002016000600281101515610e0657fe5b0154846020015102021115610e1e5760009550610e24565b5b600195505b50505050509392505050565b6000866103e8606e8801811515610e4357fe5b066103e8606e8801811515610e5457fe5b066103e8606e8801811515610e6557fe5b066103e8606e8701811515610e7657fe5b06604051808673ffffffffffffffffffffffffffffffffffffffff1673ffffffffffffffffffffffffffffffffffffffff166c01000000000000000000000000028152601401858152602001848152602001838152602001828152602001955050505050506040518091039020600019168360001916141515610efc5760009050610f01565b600190505b9695505050505050565b610f13611d55565b6000806000806000610f23611d55565b600a60008b815260200190815260200160002089815481101515610f4357fe5b906000526020600020906004020160000160009054906101000a900460ff1615610f765788955087945060009350610f81565b879550889450600193505b600a60008b815260200190815260200160002086815481101515610fa157fe5b90600052602060002090600402019250600a60008b815260200190815260200160002085815481101515610fd157fe5b906000526020600020906004020191506002826002016001600281101515610ff557fe5b015484600201600060028110151561100957fe5b0154020281600160028110151561101c57fe5b60200201818152505081600201600160028110151561103757fe5b015483600201600060028110151561104b57fe5b01540282600201600060028110151561106057fe5b015484600201600160028110151561107457fe5b0154020181600060028110151561108757fe5b60200201818152505082600101548160006002811015156110a457fe5b60200201518260016002811015156110b857fe5b60200201518460010154028115156110cc57fe5b041115156111465781600101548760006002811015156110e857fe5b60200201818152505080600160028110151561110057fe5b602002015181600060028110151561111457fe5b602002015184600101540281151561112857fe5b0487600160028110151561113857fe5b6020020181815250506111b4565b80600160028110151561115557fe5b602002015181600060028110151561116957fe5b602002015184600101540281151561117d57fe5b0487600060028110151561118d57fe5b60200201818152505082600101548760016002811015156111aa57fe5b6020020181815250505b8696505050505050509392505050565b60008160006002811015156111d557fe5b6020020151600080015402600860000154036008600001819055508160006002811015156111ff57fe5b602002015160008001540283600860010154030160086001018190555060006007015460086001015410151561123957611237611d42565b505b6001905092915050565b6000806000600a60008881526020019081526020016000208681548110151561126857fe5b906000526020600020906004020160000160009054906101000a900460ff16156112bd5783600060028110151561129b57fe5b602002015191508360016002811015156112b157fe5b602002015190506112ea565b8360006002811015156112cc57fe5b602002015191508360016002811015156112e257fe5b602002015190505b7f17fad608e647bf180e9f2d2542498a2ec81fb1cb077d60802b67b21d64adc9b8600b60008981526020019081526020016000208781548110151561132b57fe5b906000526020600020906003020160000160009054906101000a900473ffffffffffffffffffffffffffffffffffffffff16600b60008a81526020019081526020016000208781548110151561137d57fe5b906000526020600020906003020160000160009054906101000a900473ffffffffffffffffffffffffffffffffffffffff16600b60008b8152602001908152602001600020898154811015156113cf57fe5b9060005260206000209060030201600101600b60008c81526020019081526020016000208981548110151561140057fe5b9060005260206000209060030201600101600b60008d81526020019081526020016000208b81548110151561143157fe5b9060005260206000209060030201600201600b60008e81526020019081526020016000208b81548110151561146257fe5b90600052602060002090600302016002018888604051808973ffffffffffffffffffffffffffffffffffffffff1673ffffffffffffffffffffffffffffffffffffffff1681526020018873ffffffffffffffffffffffffffffffffffffffff1673ffffffffffffffffffffffffffffffffffffffff1681526020018060200180602001806020018060200187815260200186815260200185810385528b81815460018160011615610100020316600290048152602001915080546001816001161561010002031660029004801561157a5780601f1061154f5761010080835404028352916020019161157a565b820191906000526020600020905b81548152906001019060200180831161155d57829003601f168201915b505085810384528a8181546001816001161561010002031660029004815260200191508054600181600116156101000203166002900480156115fd5780601f106115d2576101008083540402835291602001916115fd565b820191906000526020600020905b8154815290600101906020018083116115e057829003601f168201915b50508581038352898181546001816001161561010002031660029004815260200191508054600181600116156101000203166002900480156116805780601f1061165557610100808354040283529160200191611680565b820191906000526020600020905b81548152906001019060200180831161166357829003601f168201915b50508581038252888181546001816001161561010002031660029004815260200191508054600181600116156101000203166002900480156117035780601f106116d857610100808354040283529160200191611703565b820191906000526020600020905b8154815290600101906020018083116116e657829003601f168201915b50509c5050505050505050505050505060405180910390a1600192505050949350505050565b600081600060028110151561173a57fe5b6020020151600a60008781526020019081526020016000208581548110151561175f57fe5b90600052602060002090600402016001015414156117da57600a60008681526020019081526020016000208481548110151561179757fe5b9060005260206000209060040201600101600090556001600c868154811015156117bd57fe5b906000526020600020900160008282540192505081905550611857565b8160006002811015156117e957fe5b6020020151600a60008781526020019081526020016000208581548110151561180e57fe5b90600052602060002090600402016001015403600a60008781526020019081526020016000208581548110151561184157fe5b9060005260206000209060040201600101819055505b81600160028110151561186657fe5b6020020151600a60008781526020019081526020016000208481548110151561188b57fe5b906000526020600020906004020160010154141561190657600a6000868152602001908152602001600020838154811015156118c357fe5b9060005260206000209060040201600101600090556001600c868154811015156118e957fe5b906000526020600020900160008282540192505081905550611983565b81600160028110151561191557fe5b6020020151600a60008781526020019081526020016000208481548110151561193a57fe5b90600052602060002090600402016001015403600a60008781526020019081526020016000208481548110151561196d57fe5b9060005260206000209060040201600101819055505b60019050949350505050565b600080600060040154600c848154811015156119a757fe5b90600052602060002090015410156119c25760009150611bd6565b600090505b600a600084815260200190815260200160002080549050811015611b5f576000600a600085815260200190815260200160002082815481101515611a0757fe5b9060005260206000209060040201600101541415611b52576001600a60008581526020019081526020016000208054905003811015611b5157600a600084815260200190815260200160002060018201815481101515611a6357fe5b9060005260206000209060040201600a600085815260200190815260200160002082815481101515611a9157fe5b90600052602060002090600402016000820160009054906101000a900460ff168160000160006101000a81548160ff021916908315150217905550600182015481600101556002820181600201906002611aec929190611f20565b50905050600a600084815260200190815260200160002060018201815481101515611b1357fe5b9060005260206000209060040201600080820160006101000a81549060ff02191690556001820160009055600282016000611b4e9190611ea0565b50505b5b80806001019150506119c7565b600c83815481101515611b6e57fe5b906000526020600020900154600a60008581526020019081526020016000208054905003600a600085815260200190815260200160002081611bb09190611f5d565b506000600c84815481101515611bc257fe5b906000526020600020900181905550600191505b50919050565b6000600a60008581526020019081526020016000208054905083101515611c0257600080fd5b600a60008581526020019081526020016000208054905082101515611c2657600080fd5b600a600085815260200190815260200160002082815481101515611c4657fe5b906000526020600020906004020160000160009054906101000a900460ff161515600a600086815260200190815260200160002084815481101515611c8757fe5b906000526020600020906004020160000160009054906101000a900460ff16151514151515611cb557600080fd5b6000600a600086815260200190815260200160002084815481101515611cd757fe5b90600052602060002090600402016001015414151515611cf657600080fd5b6000600a600086815260200190815260200160002083815481101515611d1857fe5b90600052602060002090600402016001015414151515611d3757600080fd5b600190509392505050565b6000806008600101819055506001905090565b60408051908101604052806002905b6000815260200190600190039081611d645790505090565b815481835581811511611da957600402816004028360005260206000209182019101611da89190611f8f565b5b505050565b8260028101928215611ddd579160200282015b82811115611ddc578251825591602001919060010190611dc1565b5b509050611dea9190611fda565b5090565b815481835581811511611e1b57600302816003028360005260206000209182019101611e1a9190611fff565b5b505050565b828054600181600116156101000203166002900490600052602060002090601f016020900481019282601f10611e6157805160ff1916838001178555611e8f565b82800160010185558215611e8f579182015b82811115611e8e578251825591602001919060010190611e73565b5b509050611e9c9190611fda565b5090565b506000815560010160009055565b50805460018160011615610100020316600290046000825580601f10611ed45750611ef3565b601f016020900490600052602060002090810190611ef29190611fda565b5b50565b60806040519081016040528060001515815260200160008152602001611f1a612065565b81525090565b8260028101928215611f4c579182015b82811115611f4b578254825591600101919060010190611f30565b5b509050611f599190611fda565b5090565b815481835581811511611f8a57600402816004028360005260206000209182019101611f899190611f8f565b5b505050565b611fd791905b80821115611fd357600080820160006101000a81549060ff02191690556001820160009055600282016000611fca9190611ea0565b50600401611f95565b5090565b90565b611ffc91905b80821115611ff8576000816000905550600101611fe0565b5090565b90565b61206291905b8082111561205e57600080820160006101000a81549073ffffffffffffffffffffffffffffffffffffffff02191690556001820160006120459190611eae565b6002820160006120559190611eae565b50600301612005565b5090565b90565b60408051908101604052806002905b60008152602001906001900390816120745790505090565b60008860008001819055508760006001018190555086600060020160006002811015156120b557fe5b018190555085600060020160016002811015156120ce57fe5b01819055508460006004018190555083600060050160006002811015156120f157fe5b0181905550826000600501600160028110151561210a57fe5b0181905550816000600701819055506001905098975050505050505050565b600060019050905600a165627a7a7230582061a54aea2e28d9c81d6b6c2d479a93c922924c1a1723b83b724ff03cb2ffb91a0029",
  "source": "pragma solidity ^0.4.16;\n\nimport 'zeppelin-solidity/contracts/math/SafeMath.sol';\n\n/// @title Exchange\n/// @author Karim Helmy\n\n//Primary contract: Describes functions of exchange\ncontract Exchange {\n  using SafeMath for uint;\n  // fee parameters and such\n  struct Parameters{\n    //wei per eth\n    // closure fee paid up front, refunded - withdrawal fee if cancelled\n    uint closureFeePerUnit;\n    uint cancelFeePerUnit;\n    // Order margin for error (match), expressed as margin[0] units/margin[1] units\n    uint[2] margin;\n    // Size of numsCleared at which we should clean an order book\n    uint cleanSize;\n    // Proportion of fees that miners get\n    uint[2] minerShare;\n    // closedBalance at which we distribute dividends\n    uint distBalance;\n  }\n\n  // stores active balances\n  struct Balances{\n    // separate out the open balance (includes unclosed fees, gas fees),\n    // which will be distributed between miners, the exchange, and traders,\n    // from closed balance, which belongs to the exchange\n    uint openBalance;\n    uint closedBalance;\n  }\n\n  // stores order info (public information)\n  struct Order{\n    // false for buy ETH, true for sell ETH\n    bool buyETH;\n    uint volume;\n    // buy : sell ratio\n    uint[2] limit;\n  }\n\n  // stores address info on people placing orders (private information)\n  struct AddressInfo{\n    address ethAddress;\n    string firstAddress;\n    string otherAddress;\n  }\n\n  event TradeInfo(\n    address ethAddress1,\n    address ethAddress2,\n    string firstAddress1,\n    string firstAddress2,\n    string otherAddress1,\n    string otherAddress2,\n    // ether / other volumes\n    uint ethVol,\n    uint otherVol\n  );\n\n  Parameters public params;\n  Balances public balances;\n\n  // separate chapters for different currency pairs\n  // that's why they're 2D mappings\n  mapping (uint => Order[]) public orderBook;\n  // Order[][] public orderBook;\n  mapping (uint => AddressInfo[]) private addressBook;\n  // AddressInfo[][] private addressBook;\n  // Numbers of orders that have been closed are kept here\n  uint[] numsCleared;\n\n  // Used to make sure the constructor isn't called more than once\n  // Only used in constructor\n  bool initialized = false;\n  // Constructor for pre-alpha version of contract\n  function Exchange(uint closureFeePerUnit, uint cancelFeePerUnit,\n                    uint margin0, uint margin1, uint cleanSize,\n                    uint minershare0, uint minerShare1, uint distBalance)\n    public\n  {\n    require(initialized == false);\n    // Initialize parameters books\n    setParams(closureFeePerUnit, cancelFeePerUnit,\n              margin0, margin1, cleanSize, minershare0, minerShare1, distBalance);\n    // Initialize order books\n    setBooks();\n    // Initialize numsCleared[0] as zero\n    numsCleared.push(0);\n    initialized = true;\n    return;\n  }\n\n  // TODO: If necessary, implement, otherwise delete\n  // Initializes orderBook and addressBook\n  // Only used in constructor\n  function setBooks()\n    private\n    // TODO: Make impure when finished\n    // pure to avoid warning, but in final version will not be\n    pure\n    returns(bool passes)\n  {\n    return true;\n  }\n  // Init the params struct, which contains the bulk of exchange's parameters\n  // Only used in constructor\n  function setParams(uint closureFeePerUnit, uint cancelFeePerUnit,\n                    uint margin0, uint margin1, uint cleanSize,\n                    uint minerShare0, uint minerShare1, uint distBalance)\n    private\n    returns(bool passes)\n  {\n    params.closureFeePerUnit = closureFeePerUnit;\n    params.cancelFeePerUnit = cancelFeePerUnit;\n    params.margin[0] = margin0;\n    params.margin[1] = margin1;\n    params.cleanSize = cleanSize;\n    params.minerShare[0] = minerShare0;\n    params.minerShare[1] = minerShare1;\n    params.distBalance = distBalance;\n    return true;\n  }\n\n  // Checks edge cases for match verification\n  function checkMatchEdges(uint chapter, uint index1, uint index2)\n    private\n    view\n    returns(bool passes)\n  {\n    // valid indices\n    require(index1 < orderBook[chapter].length);\n    require(index2 < orderBook[chapter].length);\n    //One buy order and one sell order\n    require(orderBook[chapter][index1].buyETH != orderBook[chapter][index2].buyETH);\n    //Non-empty order\n    require(orderBook[chapter][index1].volume != 0);\n    require(orderBook[chapter][index2].volume != 0);\n    // All edge cases work!\n    return true;\n  }\n\n  // verifies that match is valid\n  function isValidMatch(uint chapter, uint index1, uint index2)\n    private\n    view\n    returns(bool isValid)\n  {\n    // check edge cases\n    if (! checkMatchEdges(chapter, index1, index2)){\n      return false;\n    }\n    // which order is buying and selling ETH?\n    // buy-sell copy1\n    uint buyIndex;\n    uint sellIndex;\n    if (orderBook[chapter][index1].buyETH){\n      buyIndex = index1;\n      sellIndex = index2;\n    }\n    else{\n      buyIndex = index2;\n      sellIndex = index1;\n    }\n    // shorthand for buy and sell orders\n    Order memory buyOrder = orderBook[chapter][buyIndex];\n    Order memory sellOrder = orderBook[chapter][sellIndex];\n\n    // Non-contradictory limits\n    // (non-negative trade surplus)\n    // TODO: DEBUGGING: verify that these are the correct equations\n    if (buyOrder.limit[0] * sellOrder.limit[1] <\n        buyOrder.limit[1] * sellOrder.limit[0]){\n      return false;\n    }\n\n    // Meet in middle rate\n    // mimRate copy2\n    uint[2] memory mimRate;\n    mimRate[1] = buyOrder.limit[0] * sellOrder.limit[1] * 2;\n    mimRate[0] = (buyOrder.limit[1] * sellOrder.limit[0]) + (buyOrder.limit[0] * sellOrder.limit[1]);\n\n    // Volumes comparable\n    // TODO: DEBUGGING: verify that these are the correct equations\n    if (buyOrder.volume * mimRate[0] > sellOrder.volume * mimRate[1]){\n      if (buyOrder.volume * params.margin[0] * mimRate[0] > sellOrder.volume * params.margin[1] * mimRate[1]){\n        return false;\n      }\n    }\n    if (sellOrder.volume * mimRate[1] > buyOrder.volume * mimRate[0] ){\n      if (sellOrder.volume * params.margin[0] * mimRate[0] > buyOrder.volume * params.margin[1] * mimRate[1] ){\n        return false;\n      }\n    }\n    return true;\n  }\n\n  // Clears closed trade, reenters into order book if incomplete\n  function clearTrade(uint chapter, uint index1, uint index2, uint[2] volumes)\n    private\n    returns(bool passed)\n  {\n    if (orderBook[chapter][index1].volume == volumes[0]){\n      delete orderBook[chapter][index1].volume;\n      numsCleared[chapter] += 1;\n    }\n    else{\n      orderBook[chapter][index1].volume = (orderBook[chapter][index1].volume -\n                                                volumes[0]);\n    }\n    if (orderBook[chapter][index2].volume == volumes[1]){\n      delete orderBook[chapter][index2].volume;\n      numsCleared[chapter] += 1;\n    }\n    else{\n      orderBook[chapter][index2].volume = (orderBook[chapter][index2].volume -\n                                                volumes[1]);\n    }\n    return true;\n  }\n\n  // Adds trade to log, for traders to note\n  // http://solidity.readthedocs.io/en/latest/contracts.html?highlight=events#events\n  function alertTraders(uint chapter, uint index1, uint index2, uint[2] volumes)\n    private\n    returns(bool passed)\n  {\n    uint ethVol;\n    uint otherVol;\n    if (orderBook[chapter][index1].buyETH){\n      ethVol = volumes[0];\n      otherVol = volumes[1];\n    }\n    else{\n      ethVol = volumes[0];\n      otherVol = volumes[1];\n    }\n    TradeInfo(\n      addressBook[chapter][index1].ethAddress, //ethAddress1,\n      addressBook[chapter][index2].ethAddress, //ethAddress2,\n      addressBook[chapter][index1].firstAddress, //firstAddress1,\n      addressBook[chapter][index2].firstAddress, //firstAddress2,\n      addressBook[chapter][index1].otherAddress, //otherAddress1,\n      addressBook[chapter][index2].otherAddress, // otherAddress2,\n      ethVol,\n      otherVol\n      );\n    return true;\n  }\n\n  // Calculates exchange volumes for trade using limits (meet in middle)\n  // Ether volume is always first\n  function getVolumes(uint chapter, uint index1, uint index2)\n    private\n    view\n    returns(uint[2] volumes)\n  {\n    // which order is buying and selling ETH?\n    // buy-sell copy1\n    // a little different from the other version\n    uint buyIndex;\n    uint sellIndex;\n    bool index1ETH;\n    if (orderBook[chapter][index1].buyETH){\n      buyIndex = index1;\n      sellIndex = index2;\n      index1ETH = false;\n    }\n    else{\n      buyIndex = index2;\n      sellIndex = index1;\n      index1ETH = true;\n    }\n    // shorthand for buy and sell orders\n    Order storage buyOrder = orderBook[chapter][buyIndex];\n    Order storage sellOrder = orderBook[chapter][sellIndex];\n    // TODO: FINISH FUNCTION\n    // Meet in middle rate\n    // mimRate copy2\n    uint[2] memory mimRate;\n    mimRate[1] = buyOrder.limit[0] * sellOrder.limit[1] * 2;\n    mimRate[0] = (buyOrder.limit[1] * sellOrder.limit[0]) + (buyOrder.limit[0] * sellOrder.limit[1]);\n    if (((sellOrder.volume * mimRate[1]) / mimRate[0]) <= buyOrder.volume){\n      volumes[0] = sellOrder.volume;\n      volumes[1] = ((buyOrder.volume * mimRate[0]) / mimRate[1]);\n    }\n    else{\n      volumes[0] = ((buyOrder.volume * mimRate[0]) / mimRate[1]);\n      volumes[1] = buyOrder.volume;\n    }\n    return volumes;\n  }\n\n  // TODO: Implement\n  // Distributes dividends when balance is of sufficient size\n  function distDividends()\n    private\n    returns(bool passes)\n  {\n    balances.closedBalance = 0;\n    return true;\n  }\n\n  // Move balance from open to closed\n  // Eliminate minerPayment from either balance\n  function clearBalance(uint minerPayment, uint[2] volumes)\n    private\n    returns(bool passed)\n  {\n    balances.openBalance = (balances.openBalance -\n                                  (params.closureFeePerUnit * volumes[0]));\n    balances.closedBalance = (balances.closedBalance -\n                                  minerPayment +\n                                  (params.closureFeePerUnit * volumes[0]));\n    if (balances.closedBalance >= params.distBalance){\n      distDividends();\n    }\n    return true;\n  }\n\n  // Clean chapter (called when size reaches size to clean)\n  function cleanChapter(uint chapter)\n    private\n    returns(bool cleaned)\n  {\n    // Clean chapter only if size is appropriate\n    if (numsCleared[chapter] < params.cleanSize){\n      return false;\n    }\n    // For all orders\n    // If it's a cleared order:\n    // Replace it with the next one, and clear the next one\n    for (uint i = 0; i < orderBook[chapter].length; i++){\n      if (orderBook[chapter][i].volume == 0){\n        if (i < orderBook[chapter].length - 1){\n          orderBook[chapter][i] = orderBook[chapter][i+1];\n          delete orderBook[chapter][i+1];\n        }\n      }\n    }\n    orderBook[chapter].length = orderBook[chapter].length - numsCleared[chapter];\n    numsCleared[chapter] = 0;\n    return true;\n  }\n\n  // Checks if POW (nonce) is valid\n  // Performs nonce verification (keccak256)\n  // Helper for giveMatch\n  function isValidPOW(address msgSender, uint chapter, uint index1,\n                  uint index2, bytes32 nonce, uint hashVal)\n    private\n    pure\n    returns(bool isValid)\n  {\n    if (nonce != keccak256(msgSender,\n                          (chapter + 110) % 1000,\n                          (index1 + 110) % 1000,\n                          (index2 + 110) % 1000,\n                          (hashVal + 110) % 1000)){\n      return false;\n    }\n    return true;\n  }\n\n  // Miners suggest matches with this function\n  // Wrapper for isValidMatch and isValidPOW, performs other required functions\n  function giveMatch(uint chapter, uint index1, uint index2,\n                  bytes32 nonce, uint hashVal)\n    public\n    payable\n    returns(bool isValid)\n  {\n    // Validate that nonce is equivalent\n    // modulo so that cost is constant\n    // + 110 so that it's always 3 digits\n    // storing all values is impractical\n    // hashVal adds security if trade volume is small\n    // Helper for giveMatch\n    if (! isValidMatch(chapter, index1, index2) ||\n        ! isValidPOW(msg.sender, chapter, index1, index2, nonce, hashVal)){\n      return false;\n    }\n    uint[2] memory volumes = getVolumes(chapter, index1, index2);\n    // calculate the miner's payment\n    uint minerPayment = ((params.minerShare[0] * params.closureFeePerUnit * volumes[0]) /\n                          params.minerShare[1]);\n    msg.sender.transfer(minerPayment);\n    clearBalance(minerPayment, volumes);\n    alertTraders(chapter, index1, index2, volumes);\n    clearTrade(chapter, index1, index2, volumes);\n    cleanChapter(chapter);\n    return true;\n  }\n\n  // Allows traders to place orders\n  function placeOrder(bool buyETH, uint volume, uint limit0, uint limit1,\n                      address ethAddress, string firstAddress,\n                      string otherAddress, uint chapter)\n    public\n    payable\n    returns(bool accepted)\n  {\n    require(volume > 0);\n    require(limit0 > 0 && limit1 > 0);\n    // Charge according to ether transaction vol\n    if (buyETH){\n      require((limit1 * volume * msg.value) > limit0 * params.closureFeePerUnit);\n    }\n    else{\n      require((limit0 * volume * msg.value) > limit1 * params.closureFeePerUnit);\n    }\n    uint[2] memory limit;\n    limit[0] = limit0;\n    limit[1] = limit1;\n    orderBook[chapter].push(Order(buyETH, volume, limit));\n    addressBook[chapter].push(AddressInfo(ethAddress, firstAddress, otherAddress));\n    return true;\n  }\n\n  // Allows traders to cancel orders\n  function cancelOrder(uint chapter, uint index)\n    public\n    returns(bool accepted)\n  {\n    //TODO: Account for gas price (maybe, if necessary)\n    // Valid indices\n    // require(chapter < orderBook.length);\n    require(index < orderBook[chapter].length);\n    // Can't cancel other people's orders\n    require(msg.sender == addressBook[chapter][index].ethAddress);\n    // uint volume = orderBook[chapter][index].volume;\n    uint limit;\n    // Refund according to ether transaction vol\n    if (orderBook[chapter][index].buyETH){\n      limit = orderBook[chapter][index].limit[0];\n    }\n    else{\n      limit = orderBook[chapter][index].limit[1];\n    }\n    uint cancelPayment = limit * (params.closureFeePerUnit - params.cancelFeePerUnit);\n    msg.sender.transfer(cancelPayment);\n    // Update balances\n    balances.openBalance = (balances.openBalance -\n                                (limit * params.closureFeePerUnit));\n    balances.closedBalance = (balances.closedBalance +\n                                  (limit * params.cancelFeePerUnit));\n    delete orderBook[chapter][index];\n    delete addressBook[chapter][index];\n    numsCleared[chapter] += 1;\n    cleanChapter(chapter);\n    return true;\n  }\n}\n",
  "sourcePath": "/Users/Karim/Desktop/Valex/contracts/Exchange.sol",
  "compiler": {
    "name": "solc",
    "version": "0.4.18+commit.9cf6e910.Emscripten.clang"
  },
  "schemaVersion": "1.0.1",
  "updatedAt": "2018-01-03T05:45:44.135Z"
}