{
  "contractName": "Exchange",
  "abi": [
    {
      "constant": true,
      "inputs": [
        {
          "name": "",
          "type": "uint256"
        },
        {
          "name": "",
          "type": "uint256"
        },
        {
          "name": "",
          "type": "uint256"
        }
      ],
      "name": "secondAddressBook",
      "outputs": [
        {
          "name": "",
          "type": "bytes32"
        }
      ],
      "payable": false,
      "stateMutability": "view",
      "type": "function"
    },
    {
      "constant": true,
      "inputs": [
        {
          "name": "chapter",
          "type": "uint256"
        }
      ],
      "name": "getSecondAddressChapter",
      "outputs": [
        {
          "name": "secondAddressChapter",
          "type": "bytes32[2][]"
        }
      ],
      "payable": false,
      "stateMutability": "view",
      "type": "function"
    },
    {
      "constant": true,
      "inputs": [
        {
          "name": "",
          "type": "uint256"
        },
        {
          "name": "",
          "type": "uint256"
        },
        {
          "name": "",
          "type": "uint256"
        }
      ],
      "name": "firstAddressBook",
      "outputs": [
        {
          "name": "",
          "type": "bytes32"
        }
      ],
      "payable": false,
      "stateMutability": "view",
      "type": "function"
    },
    {
      "constant": true,
      "inputs": [
        {
          "name": "",
          "type": "uint256"
        },
        {
          "name": "",
          "type": "uint256"
        }
      ],
      "name": "buyBook",
      "outputs": [
        {
          "name": "",
          "type": "bool"
        }
      ],
      "payable": false,
      "stateMutability": "view",
      "type": "function"
    },
    {
      "constant": true,
      "inputs": [
        {
          "name": "chapter",
          "type": "uint256"
        }
      ],
      "name": "getOrderChapter",
      "outputs": [
        {
          "name": "buyChapter",
          "type": "bool[]"
        },
        {
          "name": "volChapter",
          "type": "uint256[]"
        },
        {
          "name": "minVolChapter",
          "type": "uint256[]"
        },
        {
          "name": "limitChapter",
          "type": "uint256[]"
        }
      ],
      "payable": false,
      "stateMutability": "view",
      "type": "function"
    },
    {
      "constant": false,
      "inputs": [
        {
          "name": "buyETH",
          "type": "bool"
        },
        {
          "name": "volume",
          "type": "uint256"
        },
        {
          "name": "minVolume",
          "type": "uint256"
        },
        {
          "name": "limit",
          "type": "uint256"
        },
        {
          "name": "ethAddress",
          "type": "address"
        },
        {
          "name": "firstAddress",
          "type": "bytes32[2]"
        },
        {
          "name": "otherAddress",
          "type": "bytes32[2]"
        },
        {
          "name": "chapter",
          "type": "uint256"
        }
      ],
      "name": "placeOrder",
      "outputs": [
        {
          "name": "accepted",
          "type": "bool"
        }
      ],
      "payable": true,
      "stateMutability": "payable",
      "type": "function"
    },
    {
      "constant": true,
      "inputs": [
        {
          "name": "",
          "type": "uint256"
        },
        {
          "name": "",
          "type": "uint256"
        }
      ],
      "name": "ethAddressBook",
      "outputs": [
        {
          "name": "",
          "type": "address"
        }
      ],
      "payable": false,
      "stateMutability": "view",
      "type": "function"
    },
    {
      "constant": true,
      "inputs": [
        {
          "name": "",
          "type": "uint256"
        },
        {
          "name": "",
          "type": "uint256"
        }
      ],
      "name": "limitBook",
      "outputs": [
        {
          "name": "",
          "type": "uint256"
        }
      ],
      "payable": false,
      "stateMutability": "view",
      "type": "function"
    },
    {
      "constant": true,
      "inputs": [
        {
          "name": "chapter",
          "type": "uint256"
        },
        {
          "name": "index1",
          "type": "uint256"
        },
        {
          "name": "index2",
          "type": "uint256"
        }
      ],
      "name": "calcRateAndVol",
      "outputs": [
        {
          "name": "mimRate",
          "type": "uint256"
        },
        {
          "name": "ethVol",
          "type": "uint256"
        }
      ],
      "payable": false,
      "stateMutability": "view",
      "type": "function"
    },
    {
      "constant": true,
      "inputs": [],
      "name": "openBalance",
      "outputs": [
        {
          "name": "",
          "type": "uint256"
        }
      ],
      "payable": false,
      "stateMutability": "view",
      "type": "function"
    },
    {
      "constant": true,
      "inputs": [
        {
          "name": "",
          "type": "uint256"
        },
        {
          "name": "",
          "type": "uint256"
        }
      ],
      "name": "minVolBook",
      "outputs": [
        {
          "name": "",
          "type": "uint256"
        }
      ],
      "payable": false,
      "stateMutability": "view",
      "type": "function"
    },
    {
      "constant": true,
      "inputs": [],
      "name": "PRECISION",
      "outputs": [
        {
          "name": "",
          "type": "uint256"
        }
      ],
      "payable": false,
      "stateMutability": "view",
      "type": "function"
    },
    {
      "constant": false,
      "inputs": [
        {
          "name": "chapter",
          "type": "uint256"
        },
        {
          "name": "index",
          "type": "uint256"
        }
      ],
      "name": "cancelOrder",
      "outputs": [
        {
          "name": "accepted",
          "type": "bool"
        }
      ],
      "payable": false,
      "stateMutability": "nonpayable",
      "type": "function"
    },
    {
      "constant": true,
      "inputs": [],
      "name": "params",
      "outputs": [
        {
          "name": "closureFee",
          "type": "uint256"
        },
        {
          "name": "cancelFee",
          "type": "uint256"
        },
        {
          "name": "cleanSize",
          "type": "uint256"
        },
        {
          "name": "minerShare",
          "type": "uint256"
        },
        {
          "name": "difficulty",
          "type": "bytes32"
        }
      ],
      "payable": false,
      "stateMutability": "view",
      "type": "function"
    },
    {
      "constant": false,
      "inputs": [
        {
          "name": "depositAddress",
          "type": "address"
        },
        {
          "name": "chapter",
          "type": "uint256"
        },
        {
          "name": "index1",
          "type": "uint256"
        },
        {
          "name": "index2",
          "type": "uint256"
        },
        {
          "name": "nonce",
          "type": "uint256"
        }
      ],
      "name": "giveMatch",
      "outputs": [
        {
          "name": "isValid",
          "type": "bool"
        }
      ],
      "payable": false,
      "stateMutability": "nonpayable",
      "type": "function"
    },
    {
      "constant": true,
      "inputs": [
        {
          "name": "chapter",
          "type": "uint256"
        }
      ],
      "name": "getETHAddressChapter",
      "outputs": [
        {
          "name": "ethAddressChapter",
          "type": "address[]"
        }
      ],
      "payable": false,
      "stateMutability": "view",
      "type": "function"
    },
    {
      "constant": true,
      "inputs": [
        {
          "name": "",
          "type": "uint256"
        },
        {
          "name": "",
          "type": "uint256"
        }
      ],
      "name": "volBook",
      "outputs": [
        {
          "name": "",
          "type": "uint256"
        }
      ],
      "payable": false,
      "stateMutability": "view",
      "type": "function"
    },
    {
      "constant": true,
      "inputs": [
        {
          "name": "chapter",
          "type": "uint256"
        }
      ],
      "name": "getFirstAddressChapter",
      "outputs": [
        {
          "name": "firstAddressChapter",
          "type": "bytes32[2][]"
        }
      ],
      "payable": false,
      "stateMutability": "view",
      "type": "function"
    },
    {
      "inputs": [
        {
          "name": "closureFee",
          "type": "uint256"
        },
        {
          "name": "cancelFee",
          "type": "uint256"
        },
        {
          "name": "cleanSize",
          "type": "uint256"
        },
        {
          "name": "minerShare",
          "type": "uint256"
        },
        {
          "name": "difficulty",
          "type": "bytes32"
        }
      ],
      "payable": false,
      "stateMutability": "nonpayable",
      "type": "constructor"
    },
    {
      "anonymous": false,
      "inputs": [
        {
          "indexed": false,
          "name": "ethAddress1",
          "type": "address"
        },
        {
          "indexed": false,
          "name": "ethAddress2",
          "type": "address"
        },
        {
          "indexed": false,
          "name": "firstAddress1",
          "type": "bytes32[2]"
        },
        {
          "indexed": false,
          "name": "firstAddress2",
          "type": "bytes32[2]"
        },
        {
          "indexed": false,
          "name": "otherAddress1",
          "type": "bytes32[2]"
        },
        {
          "indexed": false,
          "name": "otherAddress2",
          "type": "bytes32[2]"
        },
        {
          "indexed": false,
          "name": "mimRate",
          "type": "uint256"
        },
        {
          "indexed": false,
          "name": "ethVol",
          "type": "uint256"
        }
      ],
      "name": "TradeInfo",
      "type": "event"
    }
  ],
  "bytecode": "0x6060604052670de0b6b3a7640000600055600060015534156200002157600080fd5b60405160a0806200348b83398101604052808051906020019091908051906020019091908051906020019091908051906020019091908051906020019091905050620000858585858585620000d96401000000000262002c74176401000000009004565b620000a3620001156401000000000262002cb0176401000000009004565b600e8054806001018281620000b991906200038e565b916000526020600020900160008090919091505550505050505062000538565b84600260000181905550836002600101819055508260028001819055508160026003018190555080600260040181600019169055505050505050565b6007600080815260200190815260200160002080548060010182816200013c9190620003bd565b91600052602060002090602091828204019190066000909190916101000a81548160ff021916908315150217905550506008600080815260200190815260200160002080548060010182816200019391906200038e565b916000526020600020900160008090919091505550600960008081526020019081526020016000208054806001018281620001cf91906200038e565b916000526020600020900160008090919091505550600a600080815260200190815260200160002080548060010182816200020b91906200038e565b916000526020600020900160008090919091505550600b60008081526020019081526020016000208054806001018281620002479190620003fa565b9160005260206000209001600080909190916101000a81548173ffffffffffffffffffffffffffffffffffffffff021916908373ffffffffffffffffffffffffffffffffffffffff16021790555050600c60008081526020019081526020016000208054806001018281620002bd919062000429565b9160005260206000209060020201600060408051908101604052806000600102600019166000191681526020016000600102600019166000191681525090919091509060026200030f9291906200045e565b5050600d6000808152602001908152602001600020805480600101828162000338919062000429565b9160005260206000209060020201600060408051908101604052806000600102600019166000191681526020016000600102600019166000191681525090919091509060026200038a9291906200045e565b5050565b815481835581811511620003b857818360005260206000209182019101620003b79190620004a9565b5b505050565b815481835581811511620003f557601f016020900481601f01602090048360005260206000209182019101620003f49190620004a9565b5b505050565b8154818355818115116200042457818360005260206000209182019101620004239190620004a9565b5b505050565b8154818355818115116200045957600202816002028360005260206000209182019101620004589190620004d1565b5b505050565b826002810192821562000496579160200282015b828111156200049557825182906000191690559160200191906001019062000472565b5b509050620004a5919062000502565b5090565b620004ce91905b80821115620004ca576000816000905550600101620004b0565b5090565b90565b620004ff91905b80821115620004fb5760008181620004f191906200052a565b50600201620004d8565b5090565b90565b6200052791905b808211156200052357600081600090555060010162000509565b5090565b90565b506000815560010160009055565b612f4380620005486000396000f3006060604052600436106100fc576000357c0100000000000000000000000000000000000000000000000000000000900463ffffffff16806310fc8a1514610101578063145404fc14610152578063324a1467146101ed5780633af8c2d51461023e5780633b6a08001461028257806349827685146103d257806353c1d8821461049f5780638139cbc61461050b5780638eae03d21461054b5780639138ec3a1461059b5780639febbcfa146105c4578063aaf5eb6814610604578063b6ed06321461062d578063cff0ab9614610671578063d2426ab9146106be578063e0cfdce014610733578063e0f1f59f146107ab578063ee4b94bb146107eb575b600080fd5b341561010c57600080fd5b6101346004808035906020019091908035906020019091908035906020019091905050610886565b60405180826000191660001916815260200191505060405180910390f35b341561015d57600080fd5b61017360048080359060200190919050506108c9565b60405180806020018281038252838181518152602001915080516000925b818410156101dc57828490602001906020020151600260200280838360005b838110156101cb5780820151818401526020810190506101b0565b505050509050019260010192610191565b925050509250505060405180910390f35b34156101f857600080fd5b6102206004808035906020019091908035906020019091908035906020019091905050610976565b60405180826000191660001916815260200191505060405180910390f35b341561024957600080fd5b61026860048080359060200190919080359060200190919050506109b9565b604051808215151515815260200191505060405180910390f35b341561028d57600080fd5b6102a360048080359060200190919050506109fb565b6040518080602001806020018060200180602001858103855289818151815260200191508051906020019060200280838360005b838110156102f25780820151818401526020810190506102d7565b50505050905001858103845288818151815260200191508051906020019060200280838360005b83811015610334578082015181840152602081019050610319565b50505050905001858103835287818151815260200191508051906020019060200280838360005b8381101561037657808201518184015260208101905061035b565b50505050905001858103825286818151815260200191508051906020019060200280838360005b838110156103b857808201518184015260208101905061039d565b505050509050019850505050505050505060405180910390f35b6104856004808035151590602001909190803590602001909190803590602001909190803590602001909190803573ffffffffffffffffffffffffffffffffffffffff1690602001909190806040019060028060200260405190810160405280929190826002602002808284378201915050505050919080604001906002806020026040519081016040528092919082600260200280828437820191505050505091908035906020019091905050610be3565b604051808215151515815260200191505060405180910390f35b34156104aa57600080fd5b6104c96004808035906020019091908035906020019091905050610ef6565b604051808273ffffffffffffffffffffffffffffffffffffffff1673ffffffffffffffffffffffffffffffffffffffff16815260200191505060405180910390f35b341561051657600080fd5b6105356004808035906020019091908035906020019091905050610f44565b6040518082815260200191505060405180910390f35b341561055657600080fd5b61057e6004808035906020019091908035906020019091908035906020019091905050610f75565b604051808381526020018281526020019250505060405180910390f35b34156105a657600080fd5b6105ae611235565b6040518082815260200191505060405180910390f35b34156105cf57600080fd5b6105ee600480803590602001909190803590602001909190505061123b565b6040518082815260200191505060405180910390f35b341561060f57600080fd5b61061761126c565b6040518082815260200191505060405180910390f35b341561063857600080fd5b6106576004808035906020019091908035906020019091905050611272565b604051808215151515815260200191505060405180910390f35b341561067c57600080fd5b610684611649565b6040518086815260200185815260200184815260200183815260200182600019166000191681526020019550505050505060405180910390f35b34156106c957600080fd5b610719600480803573ffffffffffffffffffffffffffffffffffffffff1690602001909190803590602001909190803590602001909190803590602001909190803590602001909190505061166d565b604051808215151515815260200191505060405180910390f35b341561073e57600080fd5b6107546004808035906020019091905050611776565b6040518080602001828103825283818151815260200191508051906020019060200280838360005b8381101561079757808201518184015260208101905061077c565b505050509050019250505060405180910390f35b34156107b657600080fd5b6107d5600480803590602001909190803590602001909190505061181d565b6040518082815260200191505060405180910390f35b34156107f657600080fd5b61080c600480803590602001909190505061184e565b60405180806020018281038252838181518152602001915080516000925b8184101561087557828490602001906020020151600260200280838360005b83811015610864578082015181840152602081019050610849565b50505050905001926001019261082a565b925050509250505060405180910390f35b600d602052826000526040600020828154811015156108a157fe5b9060005260206000209060020201816002811015156108bc57fe5b0160009250925050505481565b6108d161296a565b600d6000838152602001908152602001600020805480602002602001604051908101604052809291908181526020016000905b8282101561096b5783829060005260206000209060020201600280602002604051908101604052809291908260028015610957576020028201915b8154600019168152602001906001019080831161093f575b505050505081526020019060010190610904565b505050509050919050565b600c6020528260005260406000208281548110151561099157fe5b9060005260206000209060020201816002811015156109ac57fe5b0160009250925050505481565b6007602052816000526040600020818154811015156109d457fe5b9060005260206000209060209182820401919006915091509054906101000a900460ff1681565b610a0361297e565b610a0b612992565b610a13612992565b610a1b612992565b600760008681526020019081526020016000206008600087815260200190815260200160002060096000888152602001908152602001600020600a600089815260200190815260200160002083805480602002602001604051908101604052809291908181526020018280548015610ad757602002820191906000526020600020906000905b82829054906101000a900460ff16151581526020019060010190602082600001049283019260010382029150808411610aa15790505b5050505050935082805480602002602001604051908101604052809291908181526020018280548015610b2957602002820191906000526020600020905b815481526020019060010190808311610b15575b5050505050925081805480602002602001604051908101604052809291908181526020018280548015610b7b57602002820191906000526020600020905b815481526020019060010190808311610b67575b5050505050915080805480602002602001604051908101604052809291908181526020018280548015610bcd57602002820191906000526020600020905b815481526020019060010190808311610bb9575b5050505050905093509350935093509193509193565b60008088111515610bf357600080fd5b600087111515610c0257600080fd5b868810151515610c1157600080fd5b600086111515610c2057600080fd5b8815610c6d57600260000154880234870210151515610c3e57600080fd5b60005460005402866002600001548a0202811515610c5857fe5b04600160008282540192505081905550610cb5565b6000546002600001548902811515610c8157fe5b043410151515610c9057600080fd5b6000546002600001548902811515610ca457fe5b046001600082825401925050819055505b60006007600084815260200190815260200160002080549050111515610cda57600080fd5b600760008381526020019081526020016000208054806001018281610cff91906129a6565b91600052602060002090602091828204019190068b909190916101000a81548160ff02191690831515021790555050600860008381526020019081526020016000208054806001018281610d5391906129e0565b916000526020600020900160008a90919091505550600960008381526020019081526020016000208054806001018281610d8d91906129e0565b916000526020600020900160008990919091505550600a60008381526020019081526020016000208054806001018281610dc791906129e0565b916000526020600020900160008890919091505550600b60008381526020019081526020016000208054806001018281610e019190612a0c565b9160005260206000209001600087909190916101000a81548173ffffffffffffffffffffffffffffffffffffffff021916908373ffffffffffffffffffffffffffffffffffffffff16021790555050600c60008381526020019081526020016000208054806001018281610e759190612a38565b91600052602060002090600202016000869091909150906002610e99929190612a6a565b5050600d60008381526020019081526020016000208054806001018281610ec09190612a38565b91600052602060002090600202016000859091909150906002610ee4929190612a6a565b50506001905098975050505050505050565b600b60205281600052604060002081815481101515610f1157fe5b90600052602060002090016000915091509054906101000a900473ffffffffffffffffffffffffffffffffffffffff1681565b600a60205281600052604060002081815481101515610f5f57fe5b9060005260206000209001600091509150505481565b600080600080610f83612ab0565b610f8b612ab0565b610f968989896118fb565b1515610fae5760008081915080905095509550611229565b600760008a815260200190815260200160002088815481101515610fce57fe5b90600052602060002090602091828204019190069054906101000a900460ff1615610ffe57879350869250611005565b8693508792505b608060405190810160405280600115158152602001600860008c81526020019081526020016000208681548110151561103a57fe5b9060005260206000209001548152602001600960008c81526020019081526020016000208681548110151561106b57fe5b9060005260206000209001548152602001600a60008c81526020019081526020016000208681548110151561109c57fe5b9060005260206000209001548152509150608060405190810160405280600015158152602001600860008c8152602001908152602001600020858154811015156110e257fe5b9060005260206000209001548152602001600960008c81526020019081526020016000208581548110151561111357fe5b9060005260206000209001548152602001600a60008c81526020019081526020016000208581548110151561114457fe5b90600052602060002090015481525090508060600151826060015110156111775760008081915080905095509550611229565b6002816060015183606001510181151561118d57fe5b0495508581602001510260005483602001510211156111df578581602001510260005483604001510211156111ce5760008081915080905095509550611229565b858682602001510295509550611229565b60005482602001510286826020015102111561121e5760005482602001510286826040015102111561121d5760008081915080905095509550611229565b5b858260200151955095505b50505050935093915050565b60015481565b60096020528160005260406000208181548110151561125657fe5b9060005260206000209001600091509150505481565b60005481565b600080600060076000868152602001908152602001600020805490508410151561129b57600080fd5b600b6000868152602001908152602001600020848154811015156112bb57fe5b906000526020600020900160009054906101000a900473ffffffffffffffffffffffffffffffffffffffff1673ffffffffffffffffffffffffffffffffffffffff163373ffffffffffffffffffffffffffffffffffffffff1614151561132057600080fd5b600a60008681526020019081526020016000208481548110151561134057fe5b9060005260206000209001549150600860008681526020019081526020016000208481548110151561136e57fe5b9060005260206000209001549050600760008681526020019081526020016000208481548110151561139c57fe5b90600052602060002090602091828204019190069054906101000a900460ff161561141f573373ffffffffffffffffffffffffffffffffffffffff166108fc836002600101546002600001540384028115156113f457fe5b049081150290604051600060405180830381858888f19350505050151561141a57600080fd5b611479565b3373ffffffffffffffffffffffffffffffffffffffff166108fc8360026001015460026000015403840281151561145257fe5b049081150290604051600060405180830381858888f19350505050151561147857600080fd5b5b600760008681526020019081526020016000208481548110151561149957fe5b90600052602060002090602091828204019190066101000a81549060ff021916905560086000868152602001908152602001600020848154811015156114db57fe5b906000526020600020900160009055600960008681526020019081526020016000208481548110151561150a57fe5b906000526020600020900160009055600a60008681526020019081526020016000208481548110151561153957fe5b906000526020600020900160009055600b60008681526020019081526020016000208481548110151561156857fe5b906000526020600020900160006101000a81549073ffffffffffffffffffffffffffffffffffffffff0219169055600c6000868152602001908152602001600020848154811015156115b657fe5b906000526020600020906002020160006115d09190612adb565b600d6000868152602001908152602001600020848154811015156115f057fe5b9060005260206000209060020201600061160a9190612adb565b6001600e8681548110151561161b57fe5b90600052602060002090016000828254019250508190555061163c85611a57565b5060019250505092915050565b60028060000154908060010154908060020154908060030154908060040154905085565b60008060008060006116828a8a8a8a8a612259565b151561168d57600080fd5b611698898989610f75565b935093506000831115156116ab57600080fd5b600760008a8152602001908152602001600020888154811015156116cb57fe5b90600052602060002090602091828204019190069054906101000a900460ff16156116fb57879150869050611702565b8691508790505b61170c8a846122f7565b61174183600a60008c81526020019081526020016000208481548110151561173057fe5b90600052602060002090015461235f565b61174e89898987876123b1565b61175b8989898787612659565b61176489611a57565b50600194505050505095945050505050565b61177e612ae9565b600b600083815260200190815260200160002080548060200260200160405190810160405280929190818152602001828054801561181157602002820191906000526020600020905b8160009054906101000a900473ffffffffffffffffffffffffffffffffffffffff1673ffffffffffffffffffffffffffffffffffffffff16815260200190600101908083116117c7575b50505050509050919050565b60086020528160005260406000208181548110151561183857fe5b9060005260206000209001600091509150505481565b61185661296a565b600c6000838152602001908152602001600020805480602002602001604051908101604052809291908181526020016000905b828210156118f057838290600052602060002090600202016002806020026040519081016040528092919082600280156118dc576020028201915b815460001916815260200190600101908083116118c4575b505050505081526020019060010190611889565b505050509050919050565b600060076000858152602001908152602001600020805490508310151561192157600080fd5b60076000858152602001908152602001600020805490508210151561194557600080fd5b600760008581526020019081526020016000208281548110151561196557fe5b90600052602060002090602091828204019190069054906101000a900460ff16151560076000868152602001908152602001600020848154811015156119a757fe5b90600052602060002090602091828204019190069054906101000a900460ff161515141515156119d657600080fd5b600060086000868152602001908152602001600020848154811015156119f857fe5b90600052602060002090015414151515611a1157600080fd5b60006008600086815260200190815260200160002083815481101515611a3357fe5b90600052602060002090015414151515611a4c57600080fd5b600190509392505050565b6000806002800154600e84815481101515611a6e57fe5b9060005260206000209001541015611a895760009150612253565b600190505b6007600084815260200190815260200160002080549050811015611ff05760006008600085815260200190815260200160002082815481101515611ace57fe5b9060005260206000209001541415611fe3576001600760008581526020019081526020016000208054905003811015611fe2576007600084815260200190815260200160002060018201815481101515611b2457fe5b90600052602060002090602091828204019190069054906101000a900460ff166007600085815260200190815260200160002082815481101515611b6457fe5b90600052602060002090602091828204019190066101000a81548160ff0219169083151502179055506008600084815260200190815260200160002060018201815481101515611bb057fe5b9060005260206000209001546008600085815260200190815260200160002082815481101515611bdc57fe5b9060005260206000209001819055506009600084815260200190815260200160002060018201815481101515611c0e57fe5b9060005260206000209001546009600085815260200190815260200160002082815481101515611c3a57fe5b906000526020600020900181905550600a600084815260200190815260200160002060018201815481101515611c6c57fe5b906000526020600020900154600a600085815260200190815260200160002082815481101515611c9857fe5b906000526020600020900181905550600b600084815260200190815260200160002060018201815481101515611cca57fe5b906000526020600020900160009054906101000a900473ffffffffffffffffffffffffffffffffffffffff16600b600085815260200190815260200160002082815481101515611d1657fe5b906000526020600020900160006101000a81548173ffffffffffffffffffffffffffffffffffffffff021916908373ffffffffffffffffffffffffffffffffffffffff160217905550600c600084815260200190815260200160002060018201815481101515611d8257fe5b9060005260206000209060020201600c600085815260200190815260200160002082815481101515611db057fe5b9060005260206000209060020201906002611dcc929190612afd565b50600d600084815260200190815260200160002060018201815481101515611df057fe5b9060005260206000209060020201600d600085815260200190815260200160002082815481101515611e1e57fe5b9060005260206000209060020201906002611e3a929190612afd565b506007600084815260200190815260200160002060018201815481101515611e5e57fe5b90600052602060002090602091828204019190066101000a81549060ff02191690556008600084815260200190815260200160002060018201815481101515611ea357fe5b9060005260206000209001600090556009600084815260200190815260200160002060018201815481101515611ed557fe5b906000526020600020900160009055600a600084815260200190815260200160002060018201815481101515611f0757fe5b906000526020600020900160009055600b600084815260200190815260200160002060018201815481101515611f3957fe5b906000526020600020900160006101000a81549073ffffffffffffffffffffffffffffffffffffffff0219169055600c600084815260200190815260200160002060018201815481101515611f8a57fe5b90600052602060002090600202016000611fa49190612adb565b600d600084815260200190815260200160002060018201815481101515611fc757fe5b90600052602060002090600202016000611fe19190612adb565b5b5b8080600101915050611a8e565b600e83815481101515611fff57fe5b90600052602060002090015460076000858152602001908152602001600020805490500360076000858152602001908152602001600020816120419190612b3a565b50600e8381548110151561205157fe5b90600052602060002090015460086000858152602001908152602001600020805490500360086000858152602001908152602001600020816120939190612b74565b50600e838154811015156120a357fe5b90600052602060002090015460096000858152602001908152602001600020805490500360096000858152602001908152602001600020816120e59190612b74565b50600e838154811015156120f557fe5b906000526020600020900154600a60008581526020019081526020016000208054905003600a6000858152602001908152602001600020816121379190612b74565b50600e8381548110151561214757fe5b906000526020600020900154600b60008581526020019081526020016000208054905003600b6000858152602001908152602001600020816121899190612ba0565b50600e8381548110151561219957fe5b906000526020600020900154600c60008581526020019081526020016000208054905003600c6000858152602001908152602001600020816121db9190612bcc565b50600e838154811015156121eb57fe5b906000526020600020900154600d60008581526020019081526020016000208054905003600d60008581526020019081526020016000208161222d9190612bcc565b506000600e8481548110151561223f57fe5b906000526020600020900181905550600191505b50919050565b60008585858585604051808673ffffffffffffffffffffffffffffffffffffffff1673ffffffffffffffffffffffffffffffffffffffff166c01000000000000000000000000028152601401858152602001848152602001838152602001828152602001955050505050506040518091039020600019166002600401546000191610156122e957600090506122ee565b600190505b95945050505050565b600080546000540282600260000154600260030154020281151561231757fe5b0490508273ffffffffffffffffffffffffffffffffffffffff166108fc829081150290604051600060405180830381858888f19350505050151561235a57600080fd5b505050565b600054826002600001540281151561237357fe5b04600160008282540392505081905550600054600054028183600260000154020281151561239d57fe5b046001600082825403925050819055505050565b7f389a889e7f65d263df200f5a0bc042c0ba9d0c600161ff14d87cc1daa06b8e6d600b6000878152602001908152602001600020858154811015156123f257fe5b906000526020600020900160009054906101000a900473ffffffffffffffffffffffffffffffffffffffff16600b60008881526020019081526020016000208581548110151561243e57fe5b906000526020600020900160009054906101000a900473ffffffffffffffffffffffffffffffffffffffff16600c60008981526020019081526020016000208781548110151561248a57fe5b9060005260206000209060020201600c60008a8152602001908152602001600020878154811015156124b857fe5b9060005260206000209060020201600d60008b8152602001908152602001600020898154811015156124e657fe5b9060005260206000209060020201600d60008c81526020019081526020016000208981548110151561251457fe5b90600052602060002090600202018888604051808973ffffffffffffffffffffffffffffffffffffffff1673ffffffffffffffffffffffffffffffffffffffff1681526020018873ffffffffffffffffffffffffffffffffffffffff1673ffffffffffffffffffffffffffffffffffffffff16815260200187600280156125b4576020028201915b8154600019168152602001906001019080831161259c575b505086600280156125de576020028201915b815460001916815260200190600101908083116125c6575b50508560028015612608576020028201915b815460001916815260200190600101908083116125f0575b50508460028015612632576020028201915b8154600019168152602001906001019080831161261a575b50508381526020018281526020019850505050505050505060405180910390a15050505050565b600080600760008881526020019081526020016000208681548110151561267c57fe5b90600052602060002090602091828204019190069054906101000a900460ff16156126ac578591508490506126b3565b8491508590505b8260086000898152602001908152602001600020838154811015156126d457fe5b9060005260206000209001541415612710576001600e888154811015156126f757fe5b9060005260206000209001600082825401925050819055505b82600960008981526020019081526020016000208381548110151561273157fe5b9060005260206000209001541015612779576000600960008981526020019081526020016000208381548110151561276557fe5b9060005260206000209001819055506127b3565b82600960008981526020019081526020016000208381548110151561279a57fe5b9060005260206000209001600082825403925050819055505b8260086000898152602001908152602001600020838154811015156127d457fe5b9060005260206000209001600082825403925050819055506000548484028115156127fb57fe5b04600860008981526020019081526020016000208281548110151561281c57fe5b9060005260206000209001541415612858576001600e8881548110151561283f57fe5b9060005260206000209001600082825401925050819055505b60005484840281151561286757fe5b04600960008981526020019081526020016000208281548110151561288857fe5b90600052602060002090015410156128d057600060096000898152602001908152602001600020828154811015156128bc57fe5b906000526020600020900181905550612919565b6000548484028115156128df57fe5b04600960008981526020019081526020016000208281548110151561290057fe5b9060005260206000209001600082825403925050819055505b60005484840281151561292857fe5b04600860008981526020019081526020016000208281548110151561294957fe5b90600052602060002090016000828254039250508190555050505050505050565b602060405190810160405280600081525090565b602060405190810160405280600081525090565b602060405190810160405280600081525090565b8154818355818115116129db57601f016020900481601f016020900483600052602060002091820191016129da9190612bfe565b5b505050565b815481835581811511612a0757818360005260206000209182019101612a069190612bfe565b5b505050565b815481835581811511612a3357818360005260206000209182019101612a329190612bfe565b5b505050565b815481835581811511612a6557600202816002028360005260206000209182019101612a649190612c23565b5b505050565b8260028101928215612a9f579160200282015b82811115612a9e578251829060001916905591602001919060010190612a7d565b5b509050612aac9190612c4f565b5090565b6080604051908101604052806000151581526020016000815260200160008152602001600081525090565b506000815560010160009055565b602060405190810160405280600081525090565b8260028101928215612b29579182015b82811115612b28578254825591600101919060010190612b0d565b5b509050612b369190612c4f565b5090565b815481835581811511612b6f57601f016020900481601f01602090048360005260206000209182019101612b6e9190612bfe565b5b505050565b815481835581811511612b9b57818360005260206000209182019101612b9a9190612bfe565b5b505050565b815481835581811511612bc757818360005260206000209182019101612bc69190612bfe565b5b505050565b815481835581811511612bf957600202816002028360005260206000209182019101612bf89190612c23565b5b505050565b612c2091905b80821115612c1c576000816000905550600101612c04565b5090565b90565b612c4c91905b80821115612c485760008181612c3f9190612adb565b50600201612c29565b5090565b90565b612c7191905b80821115612c6d576000816000905550600101612c55565b5090565b90565b84600260000181905550836002600101819055508260028001819055508160026003018190555080600260040181600019169055505050505050565b600760008081526020019081526020016000208054806001018281612cd591906129a6565b91600052602060002090602091828204019190066000909190916101000a81548160ff02191690831515021790555050600860008081526020019081526020016000208054806001018281612d2a91906129e0565b916000526020600020900160008090919091505550600960008081526020019081526020016000208054806001018281612d6491906129e0565b916000526020600020900160008090919091505550600a60008081526020019081526020016000208054806001018281612d9e91906129e0565b916000526020600020900160008090919091505550600b60008081526020019081526020016000208054806001018281612dd89190612a0c565b9160005260206000209001600080909190916101000a81548173ffffffffffffffffffffffffffffffffffffffff021916908373ffffffffffffffffffffffffffffffffffffffff16021790555050600c60008081526020019081526020016000208054806001018281612e4c9190612a38565b916000526020600020906002020160006040805190810160405280600060010260001916600019168152602001600060010260001916600019168152509091909150906002612e9c929190612a6a565b5050600d60008081526020019081526020016000208054806001018281612ec39190612a38565b916000526020600020906002020160006040805190810160405280600060010260001916600019168152602001600060010260001916600019168152509091909150906002612f13929190612a6a565b50505600a165627a7a72305820c0838f6283403b27bf7875ed69f9eb5ee6b3b4e0750686567d0838741fbfce7b0029",
  "source": "pragma solidity ^0.4.18;\n\nimport 'zeppelin-solidity/contracts/math/SafeMath.sol';\nimport './ExchangeStructs.sol';\n/// @title Exchange\n/// @author Karim Helmy\n\n// Primary contract: Describes functions of exchange\ncontract Exchange is ExchangeStructs {\n  // TODO: Make all operations safe\n  using SafeMath for uint;\n\n  // SECTION: Declaring/initializing variables\n  uint public PRECISION = 10 ** 18;\n\n  // separate out the open balance (includes unclosed fees, gas fees),\n  // which will be distributed between miners, the exchange, and traders,\n  // from closed balance, which belongs to the exchange\n  uint public openBalance = 0;\n\n  Parameters public params;\n\n  // separate chapters for different currency pairs\n  // that's why they're 2D\n  /*\n  * Web3 can't properly handle structs.\n  * Ethers.js can only handle them under experimental version.\n  * Therefore, the old orderBook and adressBook pattern won't work.\n  * \\_()_/\n  */\n  // separate chapters for different currency pairs\n  // that's why they're 2D\n  mapping (uint => bool[]) public buyBook;\n  mapping (uint => uint[]) public volBook;\n  mapping (uint => uint[]) public minVolBook;\n  mapping (uint => uint[]) public limitBook;\n\n  mapping (uint => address[]) public ethAddressBook;\n  mapping (uint => bytes32[2][]) public firstAddressBook;\n  mapping (uint => bytes32[2][]) public secondAddressBook;\n\n  // Numbers of orders that have been closed are kept here\n  uint[] numsCleared;\n\n  // SECTION: Constructor and helpers\n  // Constructor for contract\n  function Exchange(uint closureFee, uint cancelFee,\n                    uint cleanSize, uint minerShare,\n                    bytes32 difficulty)\n    public\n  {\n    // Initialize parameters books\n    setParams(closureFee, cancelFee,\n              cleanSize, minerShare, difficulty);\n    // Initialize order books\n    setBooks();\n    // Initialize numsCleared[0] as zero\n    numsCleared.push(0);\n    return;\n  }\n\n  /*\n  * Initializes order book and address book\n  * Only used in constructor\n  * Pushes \"genesis order\"\n  */\n  function setBooks()\n    private\n  {\n    buyBook[0].push(false);\n    volBook[0].push(0);\n    minVolBook[0].push(0);\n    limitBook[0].push(0);\n\n    ethAddressBook[0].push(address(0));\n    firstAddressBook[0].push([bytes32(0), bytes32(0)]);\n    secondAddressBook[0].push([bytes32(0), bytes32(0)]);\n  }\n\n  // Init the params struct, which contains the bulk of exchange's parameters\n  // Only used in constructor\n  function setParams(uint closureFee, uint cancelFee,\n                    uint cleanSize, uint minerShare,\n                    bytes32 difficulty)\n    internal\n  {\n    params.closureFee = closureFee;\n    params.cancelFee = cancelFee;\n    params.cleanSize = cleanSize;\n    params.minerShare = minerShare;\n    params.difficulty = difficulty;\n  }\n\n  // SECTION: Getters\n  // Get chapter from order book\n  function getOrderChapter(uint chapter)\n    external\n    view\n    returns(bool[] buyChapter, uint[] volChapter,\n            uint[] minVolChapter, uint[] limitChapter)\n  {\n    return(buyBook[chapter], volBook[chapter],\n          minVolBook[chapter], limitBook[chapter]);\n  }\n\n  /*\n  * Wish I could've bundled these.\n  * For some reason, get a bug when firstAddressChapter and secondAddressChapter are together.\n  * Suspect it has something to do with returning dynamic arrays of fixed size arrays\n  */\n  // Get chapter from ethAddressBook\n  function getETHAddressChapter(uint chapter)\n    external\n    view\n    returns(address[] ethAddressChapter)\n  {\n    return(ethAddressBook[chapter]);\n  }\n\n  // Get chapter from firstAddressBook\n  function getFirstAddressChapter(uint chapter)\n    external\n    view\n    returns(bytes32[2][] firstAddressChapter)\n  {\n    return(firstAddressBook[chapter]);\n  }\n\n  // Get chapter from secondAddressBook\n  function getSecondAddressChapter(uint chapter)\n    external\n    view\n    returns(bytes32[2][] secondAddressChapter)\n  {\n    return(secondAddressBook[chapter]);\n  }\n\n  // SECTION: Core functionality\n  // Checks edge cases for match verification\n  function checkMatchEdges(uint chapter, uint index1, uint index2)\n    private\n    view\n    returns(bool passes)\n  {\n    // valid indices\n    require(index1 < buyBook[chapter].length);\n    require(index2 < buyBook[chapter].length);\n    //One buy order and one sell order\n    require(buyBook[chapter][index1] != buyBook[chapter][index2]);\n    //Non-empty order\n    require(volBook[chapter][index1] != 0);\n    require(volBook[chapter][index2] != 0);\n    // All edge cases work!\n    return true;\n  }\n\n  // verifies that match is valid\n  function calcRateAndVol(uint chapter, uint index1, uint index2)\n    public\n    view\n    returns (uint mimRate, uint ethVol)\n  {\n    // check edge cases\n    if (! checkMatchEdges(chapter, index1, index2)) {\n      return (0,0);\n    }\n    // which order is buying and selling ETH?\n    // buy-sell copy1\n    uint buyIndex;\n    uint sellIndex;\n    if (buyBook[chapter][index1]) {\n      buyIndex = index1;\n      sellIndex = index2;\n    } else{\n      buyIndex = index2;\n      sellIndex = index1;\n    }\n    // shorthand for buy and sell orders\n    Order memory buyOrder = Order(true, volBook[chapter][buyIndex],\n                                  minVolBook[chapter][buyIndex],\n                                  limitBook[chapter][buyIndex]);\n    Order memory sellOrder = Order(false, volBook[chapter][sellIndex],\n                                  minVolBook[chapter][sellIndex],\n                                  limitBook[chapter][sellIndex]);\n\n    // Non-contradictory limits\n    if (buyOrder.limit < sellOrder.limit) {\n      return (0, 0);\n    }\n    // Meet in middle rate\n    // mimRate\n    mimRate = (buyOrder.limit + sellOrder.limit) / 2;\n    // Volumes comparable\n    if (buyOrder.volume * PRECISION > sellOrder.volume * mimRate) {\n      if (buyOrder.minVolume * PRECISION > sellOrder.volume * mimRate) {\n        return (0, 0);\n      }\n      return (mimRate, sellOrder.volume * mimRate);\n    }\n    if (sellOrder.volume * mimRate > buyOrder.volume * PRECISION ) {\n      if (sellOrder.minVolume * mimRate > buyOrder.volume * PRECISION) {\n        return (0, 0);\n      }\n    }\n    return (mimRate, buyOrder.volume);\n  }\n\n  // Clears closed trade, reenters into order book if incomplete\n  function clearTrade(uint chapter, uint index1, uint index2,\n                      uint mimRate, uint ethVol)\n    private\n  {\n    // which order is buying and selling ETH?\n    // buy-sell copy1\n    uint buyIndex;\n    uint sellIndex;\n    if (buyBook[chapter][index1]) {\n      buyIndex = index1;\n      sellIndex = index2;\n    } else{\n      buyIndex = index2;\n      sellIndex = index1;\n    }\n    if (volBook[chapter][buyIndex] == ethVol) {\n      numsCleared[chapter] += 1;\n    }\n    if (minVolBook[chapter][buyIndex] < ethVol) {\n      minVolBook[chapter][buyIndex] = 0;\n    } else{\n      minVolBook[chapter][buyIndex] -= ethVol;\n    }\n    volBook[chapter][buyIndex] -= ethVol;\n    if (volBook[chapter][sellIndex] == (ethVol * mimRate / PRECISION)) {\n      numsCleared[chapter] += 1;\n    }\n    if (minVolBook[chapter][sellIndex] < (ethVol * mimRate / PRECISION)) {\n      minVolBook[chapter][sellIndex] = 0;\n    } else{\n      minVolBook[chapter][sellIndex] -= (ethVol * mimRate / PRECISION);\n    }\n    volBook[chapter][sellIndex] -= ethVol * mimRate / PRECISION;\n  }\n\n  // Adds trade to log, for traders to note\n  // http://solidity.readthedocs.io/en/latest/contracts.html?highlight=events#events\n  function alertTraders(uint chapter, uint index1, uint index2, uint mimRate, uint ethVol)\n    private\n  {\n    TradeInfo(\n      ethAddressBook[chapter][index1], //ethAddress1,\n      ethAddressBook[chapter][index2], //ethAddress2,\n      firstAddressBook[chapter][index1], //firstAddress1,\n      firstAddressBook[chapter][index2], //firstAddress2,\n      secondAddressBook[chapter][index1], //otherAddress1,\n      secondAddressBook[chapter][index2], // otherAddress2,\n      mimRate,\n      ethVol\n      );\n  }\n\n  // Move balance from open to closed\n  function clearBalance(uint ethVol, uint buyLimit)\n    private\n  {\n    openBalance -= (params.closureFee * ethVol) / PRECISION;\n    openBalance -= (params.closureFee * ethVol * buyLimit) / (PRECISION * PRECISION);\n  }\n\n  // Clean chapter (called when size reaches size to clean)\n  function cleanChapter(uint chapter)\n    private\n    returns(bool cleaned)\n  {\n    // Clean chapter only if size is appropriate\n    if (numsCleared[chapter] < params.cleanSize) {\n      return false;\n    }\n    // For all orders\n    // If it's a cleared order:\n    // Replace it with the next one, and clear the next one\n    for (uint i = 1; i < buyBook[chapter].length; i++) {\n      if (volBook[chapter][i] == 0) {\n        if (i < buyBook[chapter].length - 1) {\n          buyBook[chapter][i] = buyBook[chapter][i+1];\n          volBook[chapter][i] = volBook[chapter][i+1];\n          minVolBook[chapter][i] = minVolBook[chapter][i+1];\n          limitBook[chapter][i] = limitBook[chapter][i+1];\n\n          ethAddressBook[chapter][i] = ethAddressBook[chapter][i+1];\n          firstAddressBook[chapter][i] = firstAddressBook[chapter][i+1];\n          secondAddressBook[chapter][i] = secondAddressBook[chapter][i+1];\n\n          delete buyBook[chapter][i+1];\n          delete volBook[chapter][i+1];\n          delete minVolBook[chapter][i+1];\n          delete limitBook[chapter][i+1];\n\n          delete ethAddressBook[chapter][i+1];\n          delete firstAddressBook[chapter][i+1];\n          delete secondAddressBook[chapter][i+1];\n        }\n      }\n    }\n    buyBook[chapter].length = buyBook[chapter].length - numsCleared[chapter];\n    volBook[chapter].length = volBook[chapter].length - numsCleared[chapter];\n    minVolBook[chapter].length = minVolBook[chapter].length - numsCleared[chapter];\n    limitBook[chapter].length = limitBook[chapter].length - numsCleared[chapter];\n\n    ethAddressBook[chapter].length = ethAddressBook[chapter].length - numsCleared[chapter];\n    firstAddressBook[chapter].length = firstAddressBook[chapter].length - numsCleared[chapter];\n    secondAddressBook[chapter].length = secondAddressBook[chapter].length - numsCleared[chapter];\n\n    numsCleared[chapter] = 0;\n    return true;\n  }\n\n  // Checks if POW (nonce) is valid\n  // Performs nonce verification (keccak256)\n  // Helper for giveMatch\n  function isValidPOW(address depositAddress, uint chapter, uint index1,\n                      uint index2, uint nonce)\n    private\n    view\n    returns(bool isValid)\n  {\n    if (params.difficulty < keccak256(depositAddress, chapter, index1, index2, nonce)) {\n      return false;\n    }\n    return true;\n  }\n\n  // Function to pay the miner what's due\n  function payMiner(address depositAddress, uint ethVol)\n    private\n  {\n    // Calculate the miner's payment\n    uint minerPayment = ((params.minerShare * params.closureFee * ethVol) /\n                          (PRECISION * PRECISION));\n    // Pay the miner\n    depositAddress.transfer(minerPayment);\n  }\n\n  // Miners suggest matches with this function\n  // Wrapper for calcRateAndVol and isValidPOW, performs other required functions\n  function giveMatch(address depositAddress, uint chapter,\n                    uint index1, uint index2, uint nonce)\n    public\n    returns(bool isValid)\n  {\n    // Validate nonce\n    require(isValidPOW(depositAddress, chapter, index1, index2, nonce));\n    var (mimRate, ethVol) = calcRateAndVol(chapter, index1, index2);\n    require(ethVol > 0);\n    // which order is buying and selling ETH?\n    // buy-sell copy1\n    uint buyIndex;\n    uint sellIndex;\n    if (buyBook[chapter][index1]) {\n      buyIndex = index1;\n      sellIndex = index2;\n    } else{\n      buyIndex = index2;\n      sellIndex = index1;\n    }\n    payMiner(depositAddress, ethVol);\n    clearBalance(ethVol, limitBook[chapter][buyIndex]);\n    alertTraders(chapter, index1, index2, mimRate, ethVol);\n    clearTrade(chapter, index1, index2, mimRate, ethVol);\n    cleanChapter(chapter);\n    return true;\n  }\n\n  // Allows traders to place orders\n  function placeOrder(bool buyETH, uint volume, uint minVolume, uint limit,\n                      address ethAddress, bytes32[2] firstAddress,\n                      bytes32[2] otherAddress, uint chapter)\n    public\n    payable\n    returns(bool accepted)\n  {\n    require(volume > 0);\n    require(minVolume > 0);\n    require(volume >= minVolume);\n    require(limit > 0);\n    // TODO: NEXT VERSION: Charge according to transaction vol for generic currencies\n    // Use market rate\n    // TODO: Instant refunds (prototype code below)\n    if (buyETH) {\n      require(limit * msg.value >= volume * params.closureFee);\n      openBalance += volume * params.closureFee * limit / (PRECISION * PRECISION);\n      //msg.sender.transfer((limit * msg.value) - (volume * params.closureFee));\n    } else{\n      require(msg.value >= volume * params.closureFee / PRECISION);\n      openBalance += volume * params.closureFee / PRECISION;\n      //msg.sender.transfer(msg.value - (volume * params.closureFee / PRECISION));\n    }\n    require(buyBook[chapter].length > 0);\n\n    buyBook[chapter].push(buyETH);\n    volBook[chapter].push(volume);\n    minVolBook[chapter].push(minVolume);\n    limitBook[chapter].push(limit);\n\n    ethAddressBook[chapter].push(ethAddress);\n    firstAddressBook[chapter].push(firstAddress);\n    secondAddressBook[chapter].push(otherAddress);\n    return true;\n  }\n\n  // Allows traders to cancel orders\n  function cancelOrder(uint chapter, uint index)\n    public\n    returns(bool accepted)\n  {\n    require(index < buyBook[chapter].length);\n    // Can't cancel other people's orders\n    require(msg.sender == ethAddressBook[chapter][index]);\n\n    uint limit = limitBook[chapter][index];\n    uint volume = volBook[chapter][index];\n\n    // TODO: NEXT VERSION: Refund according to transaction vol for generic currencies\n    // Use market rate\n    // Refund according to ether transaction volume\n    if (buyBook[chapter][index]) {\n      msg.sender.transfer(volume * (params.closureFee - params.cancelFee) / limit);\n    } else{\n      msg.sender.transfer(volume * (params.closureFee - params.cancelFee) / limit);\n    }\n    delete buyBook[chapter][index];\n    delete volBook[chapter][index];\n    delete minVolBook[chapter][index];\n    delete limitBook[chapter][index];\n\n    delete ethAddressBook[chapter][index];\n    delete firstAddressBook[chapter][index];\n    delete secondAddressBook[chapter][index];\n\n    numsCleared[chapter] += 1;\n    cleanChapter(chapter);\n    return true;\n  }\n}\n",
  "sourcePath": "/Users/Karim/Desktop/Valex/contracts/Exchange.sol",
  "compiler": {
    "name": "solc",
    "version": "0.4.18+commit.9cf6e910.Emscripten.clang"
  },
  "schemaVersion": "1.0.1",
  "updatedAt": "2018-03-27T17:37:51.355Z"
}