{
  "contractName": "SafeMathLib",
  "abi": [
    {
      "constant": true,
      "inputs": [
        {
          "name": "a",
          "type": "uint256"
        },
        {
          "name": "b",
          "type": "uint256"
        }
      ],
      "name": "times",
      "outputs": [
        {
          "name": "",
          "type": "uint256"
        }
      ],
      "payable": false,
      "stateMutability": "pure",
      "type": "function"
    },
    {
      "constant": true,
      "inputs": [
        {
          "name": "a",
          "type": "uint256"
        },
        {
          "name": "b",
          "type": "uint256"
        }
      ],
      "name": "plus",
      "outputs": [
        {
          "name": "",
          "type": "uint256"
        }
      ],
      "payable": false,
      "stateMutability": "pure",
      "type": "function"
    },
    {
      "constant": true,
      "inputs": [
        {
          "name": "a",
          "type": "uint256"
        },
        {
          "name": "b",
          "type": "uint256"
        }
      ],
      "name": "minus",
      "outputs": [
        {
          "name": "",
          "type": "uint256"
        }
      ],
      "payable": false,
      "stateMutability": "pure",
      "type": "function"
    }
  ],
  "bytecode": "0x6060604052341561000f57600080fd5b61019d8061001e6000396000f300606060405260043610610057576000357c0100000000000000000000000000000000000000000000000000000000900463ffffffff1680631d3b9edf1461005c57806366098d4f14610091578063f4f3bdc1146100c6575b600080fd5b61007b60048080359060200190919080359060200190919050506100fb565b6040518082815260200191505060405180910390f35b6100b0600480803590602001909190803590602001909190505061012e565b6040518082815260200191505060405180910390f35b6100e56004808035906020019091908035906020019091905050610158565b6040518082815260200191505060405180910390f35b6000808284029050600084148061011c575082848281151561011957fe5b04145b151561012457fe5b8091505092915050565b60008082840190508381101580156101465750828110155b151561014e57fe5b8091505092915050565b600082821115151561016657fe5b8183039050929150505600a165627a7a7230582092b9dcab8f594e4186e07dcef054ecb098bd84b82fe232372804b94d95ea048b0029",
  "source": "pragma solidity ^0.4.16;\n\n// Modified from:\n// https://github.com/aragon/zeppelin-solidity/blob/master/contracts/SafeMathLib.sol\n\nlibrary SafeMathLib {\n  function times(uint a, uint b) public pure returns (uint) {\n    uint c = a * b;\n    assert(a == 0 || c / a == b);\n    return c;\n  }\n\n  function minus(uint a, uint b) public pure returns (uint) {\n    assert(b <= a);\n    return a - b;\n  }\n\n  function plus(uint a, uint b) public pure returns (uint) {\n    uint c = a + b;\n    assert(c >= a && c >= b);\n    return c;\n  }\n}\n",
  "sourcePath": "/Users/Karim/Desktop/Valex/contracts/libs/SafeMathLib.sol",
  "compiler": {
    "name": "solc",
    "version": "0.4.18+commit.9cf6e910.Emscripten.clang"
  },
  "schemaVersion": "1.0.1",
  "updatedAt": "2018-01-03T02:22:24.235Z"
}