{
  "contractName": "ValexPreferredToken",
  "abi": [
    {
      "constant": true,
      "inputs": [],
      "name": "name",
      "outputs": [
        {
          "name": "",
          "type": "string"
        }
      ],
      "payable": false,
      "stateMutability": "view",
      "type": "function"
    },
    {
      "constant": false,
      "inputs": [
        {
          "name": "_spender",
          "type": "address"
        },
        {
          "name": "_value",
          "type": "uint256"
        }
      ],
      "name": "approve",
      "outputs": [
        {
          "name": "",
          "type": "bool"
        }
      ],
      "payable": false,
      "stateMutability": "nonpayable",
      "type": "function"
    },
    {
      "constant": true,
      "inputs": [
        {
          "name": "",
          "type": "uint256"
        },
        {
          "name": "",
          "type": "uint256"
        }
      ],
      "name": "orderBook",
      "outputs": [
        {
          "name": "buyETH",
          "type": "bool"
        },
        {
          "name": "volume",
          "type": "uint256"
        },
        {
          "name": "minVolume",
          "type": "uint256"
        },
        {
          "name": "limit",
          "type": "uint256"
        }
      ],
      "payable": false,
      "stateMutability": "view",
      "type": "function"
    },
    {
      "constant": true,
      "inputs": [],
      "name": "totalSupply",
      "outputs": [
        {
          "name": "",
          "type": "uint256"
        }
      ],
      "payable": false,
      "stateMutability": "view",
      "type": "function"
    },
    {
      "constant": false,
      "inputs": [
        {
          "name": "_from",
          "type": "address"
        },
        {
          "name": "_to",
          "type": "address"
        },
        {
          "name": "_value",
          "type": "uint256"
        }
      ],
      "name": "transferFrom",
      "outputs": [
        {
          "name": "",
          "type": "bool"
        }
      ],
      "payable": false,
      "stateMutability": "nonpayable",
      "type": "function"
    },
    {
      "constant": true,
      "inputs": [],
      "name": "decimals",
      "outputs": [
        {
          "name": "",
          "type": "uint8"
        }
      ],
      "payable": false,
      "stateMutability": "view",
      "type": "function"
    },
    {
      "constant": true,
      "inputs": [],
      "name": "initialSupply",
      "outputs": [
        {
          "name": "",
          "type": "uint256"
        }
      ],
      "payable": false,
      "stateMutability": "view",
      "type": "function"
    },
    {
      "constant": false,
      "inputs": [
        {
          "name": "buyETH",
          "type": "bool"
        },
        {
          "name": "volume",
          "type": "uint256"
        },
        {
          "name": "minVolume",
          "type": "uint256"
        },
        {
          "name": "limit",
          "type": "uint256"
        },
        {
          "name": "ethAddress",
          "type": "address"
        },
        {
          "name": "firstAddress",
          "type": "string"
        },
        {
          "name": "otherAddress",
          "type": "string"
        },
        {
          "name": "chapter",
          "type": "uint256"
        }
      ],
      "name": "placeOrder",
      "outputs": [
        {
          "name": "accepted",
          "type": "bool"
        }
      ],
      "payable": true,
      "stateMutability": "payable",
      "type": "function"
    },
    {
      "constant": false,
      "inputs": [
        {
          "name": "chapter",
          "type": "uint256"
        },
        {
          "name": "index1",
          "type": "uint256"
        },
        {
          "name": "index2",
          "type": "uint256"
        },
        {
          "name": "nonce",
          "type": "bytes32"
        },
        {
          "name": "hashVal",
          "type": "uint256"
        }
      ],
      "name": "giveMatch",
      "outputs": [
        {
          "name": "isValid",
          "type": "bool"
        }
      ],
      "payable": true,
      "stateMutability": "payable",
      "type": "function"
    },
    {
      "constant": false,
      "inputs": [
        {
          "name": "_spender",
          "type": "address"
        },
        {
          "name": "_subtractedValue",
          "type": "uint256"
        }
      ],
      "name": "decreaseApproval",
      "outputs": [
        {
          "name": "",
          "type": "bool"
        }
      ],
      "payable": false,
      "stateMutability": "nonpayable",
      "type": "function"
    },
    {
      "constant": true,
      "inputs": [
        {
          "name": "_owner",
          "type": "address"
        }
      ],
      "name": "balanceOf",
      "outputs": [
        {
          "name": "balance",
          "type": "uint256"
        }
      ],
      "payable": false,
      "stateMutability": "view",
      "type": "function"
    },
    {
      "constant": true,
      "inputs": [],
      "name": "exBalances",
      "outputs": [
        {
          "name": "openBalance",
          "type": "uint256"
        },
        {
          "name": "closedBalance",
          "type": "uint256"
        }
      ],
      "payable": false,
      "stateMutability": "view",
      "type": "function"
    },
    {
      "constant": true,
      "inputs": [],
      "name": "symbol",
      "outputs": [
        {
          "name": "",
          "type": "string"
        }
      ],
      "payable": false,
      "stateMutability": "view",
      "type": "function"
    },
    {
      "constant": false,
      "inputs": [
        {
          "name": "_to",
          "type": "address"
        },
        {
          "name": "_value",
          "type": "uint256"
        }
      ],
      "name": "transfer",
      "outputs": [
        {
          "name": "",
          "type": "bool"
        }
      ],
      "payable": false,
      "stateMutability": "nonpayable",
      "type": "function"
    },
    {
      "constant": false,
      "inputs": [
        {
          "name": "chapter",
          "type": "uint256"
        },
        {
          "name": "index",
          "type": "uint256"
        }
      ],
      "name": "cancelOrder",
      "outputs": [
        {
          "name": "accepted",
          "type": "bool"
        }
      ],
      "payable": false,
      "stateMutability": "nonpayable",
      "type": "function"
    },
    {
      "constant": true,
      "inputs": [],
      "name": "params",
      "outputs": [
        {
          "name": "closureFeePerUnit",
          "type": "uint256"
        },
        {
          "name": "cancelFeePerUnit",
          "type": "uint256"
        },
        {
          "name": "cleanSize",
          "type": "uint256"
        },
        {
          "name": "minerShare",
          "type": "uint256"
        },
        {
          "name": "distBalance",
          "type": "uint256"
        }
      ],
      "payable": false,
      "stateMutability": "view",
      "type": "function"
    },
    {
      "constant": false,
      "inputs": [
        {
          "name": "_spender",
          "type": "address"
        },
        {
          "name": "_addedValue",
          "type": "uint256"
        }
      ],
      "name": "increaseApproval",
      "outputs": [
        {
          "name": "",
          "type": "bool"
        }
      ],
      "payable": false,
      "stateMutability": "nonpayable",
      "type": "function"
    },
    {
      "constant": true,
      "inputs": [
        {
          "name": "_owner",
          "type": "address"
        },
        {
          "name": "_spender",
          "type": "address"
        }
      ],
      "name": "allowance",
      "outputs": [
        {
          "name": "",
          "type": "uint256"
        }
      ],
      "payable": false,
      "stateMutability": "view",
      "type": "function"
    },
    {
      "inputs": [
        {
          "name": "closureFeePerUnit",
          "type": "uint256"
        },
        {
          "name": "cancelFeePerUnit",
          "type": "uint256"
        },
        {
          "name": "cleanSize",
          "type": "uint256"
        },
        {
          "name": "minershare",
          "type": "uint256"
        },
        {
          "name": "distBalance",
          "type": "uint256"
        }
      ],
      "payable": false,
      "stateMutability": "nonpayable",
      "type": "constructor"
    },
    {
      "anonymous": false,
      "inputs": [
        {
          "indexed": true,
          "name": "owner",
          "type": "address"
        },
        {
          "indexed": true,
          "name": "spender",
          "type": "address"
        },
        {
          "indexed": false,
          "name": "value",
          "type": "uint256"
        }
      ],
      "name": "Approval",
      "type": "event"
    },
    {
      "anonymous": false,
      "inputs": [
        {
          "indexed": true,
          "name": "from",
          "type": "address"
        },
        {
          "indexed": true,
          "name": "to",
          "type": "address"
        },
        {
          "indexed": false,
          "name": "value",
          "type": "uint256"
        }
      ],
      "name": "Transfer",
      "type": "event"
    },
    {
      "anonymous": false,
      "inputs": [
        {
          "indexed": false,
          "name": "ethAddress1",
          "type": "address"
        },
        {
          "indexed": false,
          "name": "ethAddress2",
          "type": "address"
        },
        {
          "indexed": false,
          "name": "firstAddress1",
          "type": "string"
        },
        {
          "indexed": false,
          "name": "firstAddress2",
          "type": "string"
        },
        {
          "indexed": false,
          "name": "otherAddress1",
          "type": "string"
        },
        {
          "indexed": false,
          "name": "otherAddress2",
          "type": "string"
        },
        {
          "indexed": false,
          "name": "mimRate",
          "type": "uint256"
        },
        {
          "indexed": false,
          "name": "ethVol",
          "type": "uint256"
        }
      ],
      "name": "TradeInfo",
      "type": "event"
    }
  ],
  "bytecode": "0x60606040526040805190810160405280601581526020017f56616c65782050726566657272656420546f6b656e0000000000000000000000815250600d908051906020019062000051929190620003f4565b506040805190810160405280600381526020017f564c500000000000000000000000000000000000000000000000000000000000815250600e90805190602001906200009f929190620003f4565b506012600f60006101000a81548160ff021916908360ff160217905550600f60009054906101000a900460ff1660ff16600a0a612710026010553415620000e557600080fd5b60405160a080620036568339810160405280805190602001909190805190602001909190805190602001909190805190602001909190805190602001909190505084848484846200014e8585858585620001f76401000000000262002d5b176401000000009004565b6200016c6200022f6401000000000262002d93176401000000009004565b50600980548060010182816200018391906200047b565b9160005260206000209001600080909190915055505050505050601054600b81905550601054600a60003373ffffffffffffffffffffffffffffffffffffffff1673ffffffffffffffffffffffffffffffffffffffff168152602001908152602001600020819055505050505050620006ca565b846000800181905550836000600101819055508260006002018190555081600060030181905550806000600401819055505050505050565b6000600760008081526020019081526020016000208054806001018281620002589190620004aa565b9160005260206000209060040201600060806040519081016040528060001515815260200160008152602001600081526020016000815250909190915060008201518160000160006101000a81548160ff021916908315150217905550602082015181600101556040820151816002015560608201518160030155505050600860008081526020019081526020016000208054806001018281620002fd9190620004df565b91600052602060002090600302016000606060405190810160405280600073ffffffffffffffffffffffffffffffffffffffff168152602001602060405190810160405280600081525081526020016020604051908101604052806000815250815250909190915060008201518160000160006101000a81548173ffffffffffffffffffffffffffffffffffffffff021916908373ffffffffffffffffffffffffffffffffffffffff1602179055506020820151816001019080519060200190620003ca92919062000514565b506040820151816002019080519060200190620003e992919062000514565b505050506001905090565b828054600181600116156101000203166002900490600052602060002090601f016020900481019282601f106200043757805160ff191683800117855562000468565b8280016001018555821562000468579182015b82811115620004675782518255916020019190600101906200044a565b5b5090506200047791906200059b565b5090565b815481835581811511620004a557818360005260206000209182019101620004a491906200059b565b5b505050565b815481835581811511620004da57600402816004028360005260206000209182019101620004d99190620005c3565b5b505050565b8154818355818115116200050f576003028160030283600052602060002091820191016200050e919062000611565b5b505050565b828054600181600116156101000203166002900490600052602060002090601f016020900481019282601f106200055757805160ff191683800117855562000588565b8280016001018555821562000588579182015b82811115620005875782518255916020019190600101906200056a565b5b5090506200059791906200059b565b5090565b620005c091905b80821115620005bc576000816000905550600101620005a2565b5090565b90565b6200060e91905b808211156200060a57600080820160006101000a81549060ff021916905560018201600090556002820160009055600382016000905550600401620005ca565b5090565b90565b6200067b91905b808211156200067757600080820160006101000a81549073ffffffffffffffffffffffffffffffffffffffff02191690556001820160006200065b91906200067e565b6002820160006200066d91906200067e565b5060030162000618565b5090565b90565b50805460018160011615610100020316600290046000825580601f10620006a65750620006c7565b601f016020900490600052602060002090810190620006c691906200059b565b5b50565b612f7c80620006da6000396000f3006060604052600436106100fc576000357c0100000000000000000000000000000000000000000000000000000000900463ffffffff16806306fdde0314610101578063095ea7b31461018f57806314974f46146101e957806318160ddd1461024257806323b872dd1461026b578063313ce567146102e4578063378dc3dc146103135780634aed275c1461033c5780635a1f639314610437578063661884631461048f57806370a08231146104e9578063737f02af1461053657806395d89b4114610566578063a9059cbb146105f4578063b6ed06321461064e578063cff0ab9614610692578063d73dd623146106d7578063dd62ed3e14610731575b600080fd5b341561010c57600080fd5b61011461079d565b6040518080602001828103825283818151815260200191508051906020019080838360005b83811015610154578082015181840152602081019050610139565b50505050905090810190601f1680156101815780820380516001836020036101000a031916815260200191505b509250505060405180910390f35b341561019a57600080fd5b6101cf600480803573ffffffffffffffffffffffffffffffffffffffff1690602001909190803590602001909190505061083b565b604051808215151515815260200191505060405180910390f35b34156101f457600080fd5b610213600480803590602001909190803590602001909190505061092d565b604051808515151515815260200184815260200183815260200182815260200194505050505060405180910390f35b341561024d57600080fd5b610255610986565b6040518082815260200191505060405180910390f35b341561027657600080fd5b6102ca600480803573ffffffffffffffffffffffffffffffffffffffff1690602001909190803573ffffffffffffffffffffffffffffffffffffffff16906020019091908035906020019091905050610990565b604051808215151515815260200191505060405180910390f35b34156102ef57600080fd5b6102f7610d4f565b604051808260ff1660ff16815260200191505060405180910390f35b341561031e57600080fd5b610326610d62565b6040518082815260200191505060405180910390f35b61041d6004808035151590602001909190803590602001909190803590602001909190803590602001909190803573ffffffffffffffffffffffffffffffffffffffff1690602001909190803590602001908201803590602001908080601f0160208091040260200160405190810160405280939291908181526020018383808284378201915050505050509190803590602001908201803590602001908080601f01602080910402602001604051908101604052809392919081815260200183838082843782019150505050505091908035906020019091905050610d68565b604051808215151515815260200191505060405180910390f35b610475600480803590602001909190803590602001909190803590602001909190803560001916906020019091908035906020019091905050610fa1565b604051808215151515815260200191505060405180910390f35b341561049a57600080fd5b6104cf600480803573ffffffffffffffffffffffffffffffffffffffff16906020019091908035906020019091905050611087565b604051808215151515815260200191505060405180910390f35b34156104f457600080fd5b610520600480803573ffffffffffffffffffffffffffffffffffffffff16906020019091905050611318565b6040518082815260200191505060405180910390f35b341561054157600080fd5b610549611361565b604051808381526020018281526020019250505060405180910390f35b341561057157600080fd5b610579611373565b6040518080602001828103825283818151815260200191508051906020019080838360005b838110156105b957808201518184015260208101905061059e565b50505050905090810190601f1680156105e65780820380516001836020036101000a031916815260200191505b509250505060405180910390f35b34156105ff57600080fd5b610634600480803573ffffffffffffffffffffffffffffffffffffffff16906020019091908035906020019091905050611411565b604051808215151515815260200191505060405180910390f35b341561065957600080fd5b6106786004808035906020019091908035906020019091905050611635565b604051808215151515815260200191505060405180910390f35b341561069d57600080fd5b6106a561195f565b604051808681526020018581526020018481526020018381526020018281526020019550505050505060405180910390f35b34156106e257600080fd5b610717600480803573ffffffffffffffffffffffffffffffffffffffff16906020019091908035906020019091905050611983565b604051808215151515815260200191505060405180910390f35b341561073c57600080fd5b610787600480803573ffffffffffffffffffffffffffffffffffffffff1690602001909190803573ffffffffffffffffffffffffffffffffffffffff16906020019091905050611b7f565b6040518082815260200191505060405180910390f35b600d8054600181600116156101000203166002900480601f0160208091040260200160405190810160405280929190818152602001828054600181600116156101000203166002900480156108335780601f1061080857610100808354040283529160200191610833565b820191906000526020600020905b81548152906001019060200180831161081657829003601f168201915b505050505081565b600081600c60003373ffffffffffffffffffffffffffffffffffffffff1673ffffffffffffffffffffffffffffffffffffffff16815260200190815260200160002060008573ffffffffffffffffffffffffffffffffffffffff1673ffffffffffffffffffffffffffffffffffffffff168152602001908152602001600020819055508273ffffffffffffffffffffffffffffffffffffffff163373ffffffffffffffffffffffffffffffffffffffff167f8c5be1e5ebec7d5bd14f71427d1e84f3dd0314c0f7b2291e5b200ac8c7c3b925846040518082815260200191505060405180910390a36001905092915050565b60076020528160005260406000208181548110151561094857fe5b9060005260206000209060040201600091509150508060000160009054906101000a900460ff16908060010154908060020154908060030154905084565b6000600b54905090565b60008073ffffffffffffffffffffffffffffffffffffffff168373ffffffffffffffffffffffffffffffffffffffff16141515156109cd57600080fd5b600a60008573ffffffffffffffffffffffffffffffffffffffff1673ffffffffffffffffffffffffffffffffffffffff168152602001908152602001600020548211151515610a1b57600080fd5b600c60008573ffffffffffffffffffffffffffffffffffffffff1673ffffffffffffffffffffffffffffffffffffffff16815260200190815260200160002060003373ffffffffffffffffffffffffffffffffffffffff1673ffffffffffffffffffffffffffffffffffffffff168152602001908152602001600020548211151515610aa657600080fd5b610af882600a60008773ffffffffffffffffffffffffffffffffffffffff1673ffffffffffffffffffffffffffffffffffffffff16815260200190815260200160002054611c0690919063ffffffff16565b600a60008673ffffffffffffffffffffffffffffffffffffffff1673ffffffffffffffffffffffffffffffffffffffff16815260200190815260200160002081905550610b8d82600a60008673ffffffffffffffffffffffffffffffffffffffff1673ffffffffffffffffffffffffffffffffffffffff16815260200190815260200160002054611c1f90919063ffffffff16565b600a60008573ffffffffffffffffffffffffffffffffffffffff1673ffffffffffffffffffffffffffffffffffffffff16815260200190815260200160002081905550610c5f82600c60008773ffffffffffffffffffffffffffffffffffffffff1673ffffffffffffffffffffffffffffffffffffffff16815260200190815260200160002060003373ffffffffffffffffffffffffffffffffffffffff1673ffffffffffffffffffffffffffffffffffffffff16815260200190815260200160002054611c0690919063ffffffff16565b600c60008673ffffffffffffffffffffffffffffffffffffffff1673ffffffffffffffffffffffffffffffffffffffff16815260200190815260200160002060003373ffffffffffffffffffffffffffffffffffffffff1673ffffffffffffffffffffffffffffffffffffffff168152602001908152602001600020819055508273ffffffffffffffffffffffffffffffffffffffff168473ffffffffffffffffffffffffffffffffffffffff167fddf252ad1be2c89b69c2b068fc378daa952ba7f163c4a11628f55a4df523b3ef846040518082815260200191505060405180910390a3600190509392505050565b600f60009054906101000a900460ff1681565b60105481565b60008088111515610d7857600080fd5b600087111515610d8757600080fd5b868810151515610d9657600080fd5b600086111515610da557600080fd5b8815610dc7576000800154880234870210151515610dc257600080fd5b610ddd565b600080015488023410151515610ddc57600080fd5b5b60006007600084815260200190815260200160002080549050111515610e0257600080fd5b600760008381526020019081526020016000208054806001018281610e279190612afc565b916000526020600020906004020160006080604051908101604052808d151581526020018c81526020018b81526020018a815250909190915060008201518160000160006101000a81548160ff021916908315150217905550602082015181600101556040820151816002015560608201518160030155505050600860008381526020019081526020016000208054806001018281610ec69190612b2e565b916000526020600020906003020160006060604051908101604052808973ffffffffffffffffffffffffffffffffffffffff16815260200188815260200187815250909190915060008201518160000160006101000a81548173ffffffffffffffffffffffffffffffffffffffff021916908373ffffffffffffffffffffffffffffffffffffffff1602179055506020820151816001019080519060200190610f70929190612b60565b506040820151816002019080519060200190610f8d929190612b60565b505050506001905098975050505050505050565b600080600080610fb5338a8a8a8a8a611c3d565b1515610fc4576000935061107b565b610fcf898989611cd8565b925092506000821415610fe5576000935061107b565b670de0b6b3a7640000826000800154600060030154020281151561100557fe5b0490503373ffffffffffffffffffffffffffffffffffffffff166108fc829081150290604051600060405180830381858888f19350505050151561104857600080fd5b6110528183611f49565b61105f8989898686611f99565b61106c89898986866123d1565b61107589612735565b50600193505b50505095945050505050565b600080600c60003373ffffffffffffffffffffffffffffffffffffffff1673ffffffffffffffffffffffffffffffffffffffff16815260200190815260200160002060008573ffffffffffffffffffffffffffffffffffffffff1673ffffffffffffffffffffffffffffffffffffffff16815260200190815260200160002054905080831115611198576000600c60003373ffffffffffffffffffffffffffffffffffffffff1673ffffffffffffffffffffffffffffffffffffffff16815260200190815260200160002060008673ffffffffffffffffffffffffffffffffffffffff1673ffffffffffffffffffffffffffffffffffffffff1681526020019081526020016000208190555061122c565b6111ab8382611c0690919063ffffffff16565b600c60003373ffffffffffffffffffffffffffffffffffffffff1673ffffffffffffffffffffffffffffffffffffffff16815260200190815260200160002060008673ffffffffffffffffffffffffffffffffffffffff1673ffffffffffffffffffffffffffffffffffffffff168152602001908152602001600020819055505b8373ffffffffffffffffffffffffffffffffffffffff163373ffffffffffffffffffffffffffffffffffffffff167f8c5be1e5ebec7d5bd14f71427d1e84f3dd0314c0f7b2291e5b200ac8c7c3b925600c60003373ffffffffffffffffffffffffffffffffffffffff1673ffffffffffffffffffffffffffffffffffffffff16815260200190815260200160002060008873ffffffffffffffffffffffffffffffffffffffff1673ffffffffffffffffffffffffffffffffffffffff168152602001908152602001600020546040518082815260200191505060405180910390a3600191505092915050565b6000600a60008373ffffffffffffffffffffffffffffffffffffffff1673ffffffffffffffffffffffffffffffffffffffff168152602001908152602001600020549050919050565b60058060000154908060010154905082565b600e8054600181600116156101000203166002900480601f0160208091040260200160405190810160405280929190818152602001828054600181600116156101000203166002900480156114095780601f106113de57610100808354040283529160200191611409565b820191906000526020600020905b8154815290600101906020018083116113ec57829003601f168201915b505050505081565b60008073ffffffffffffffffffffffffffffffffffffffff168373ffffffffffffffffffffffffffffffffffffffff161415151561144e57600080fd5b600a60003373ffffffffffffffffffffffffffffffffffffffff1673ffffffffffffffffffffffffffffffffffffffff16815260200190815260200160002054821115151561149c57600080fd5b6114ee82600a60003373ffffffffffffffffffffffffffffffffffffffff1673ffffffffffffffffffffffffffffffffffffffff16815260200190815260200160002054611c0690919063ffffffff16565b600a60003373ffffffffffffffffffffffffffffffffffffffff1673ffffffffffffffffffffffffffffffffffffffff1681526020019081526020016000208190555061158382600a60008673ffffffffffffffffffffffffffffffffffffffff1673ffffffffffffffffffffffffffffffffffffffff16815260200190815260200160002054611c1f90919063ffffffff16565b600a60008573ffffffffffffffffffffffffffffffffffffffff1673ffffffffffffffffffffffffffffffffffffffff168152602001908152602001600020819055508273ffffffffffffffffffffffffffffffffffffffff163373ffffffffffffffffffffffffffffffffffffffff167fddf252ad1be2c89b69c2b068fc378daa952ba7f163c4a11628f55a4df523b3ef846040518082815260200191505060405180910390a36001905092915050565b600080600060076000868152602001908152602001600020805490508410151561165e57600080fd5b600860008681526020019081526020016000208481548110151561167e57fe5b906000526020600020906003020160000160009054906101000a900473ffffffffffffffffffffffffffffffffffffffff1673ffffffffffffffffffffffffffffffffffffffff163373ffffffffffffffffffffffffffffffffffffffff161415156116e957600080fd5b600760008681526020019081526020016000208481548110151561170957fe5b9060005260206000209060040201600301549150600760008681526020019081526020016000208481548110151561173d57fe5b9060005260206000209060040201600101549050600760008681526020019081526020016000208481548110151561177157fe5b906000526020600020906004020160000160009054906101000a900460ff16156117f2573373ffffffffffffffffffffffffffffffffffffffff166108fc8360006001015460008001540384028115156117c757fe5b049081150290604051600060405180830381858888f1935050505015156117ed57600080fd5b61184b565b3373ffffffffffffffffffffffffffffffffffffffff166108fc83600060010154600080015403840281151561182457fe5b049081150290604051600060405180830381858888f19350505050151561184a57600080fd5b5b600760008681526020019081526020016000208481548110151561186b57fe5b9060005260206000209060040201600080820160006101000a81549060ff0219169055600182016000905560028201600090556003820160009055505060086000868152602001908152602001600020848154811015156118c857fe5b9060005260206000209060030201600080820160006101000a81549073ffffffffffffffffffffffffffffffffffffffff021916905560018201600061190e9190612be0565b60028201600061191e9190612be0565b5050600160098681548110151561193157fe5b90600052602060002090016000828254019250508190555061195285612735565b5060019250505092915050565b60008060000154908060010154908060020154908060030154908060040154905085565b6000611a1482600c60003373ffffffffffffffffffffffffffffffffffffffff1673ffffffffffffffffffffffffffffffffffffffff16815260200190815260200160002060008673ffffffffffffffffffffffffffffffffffffffff1673ffffffffffffffffffffffffffffffffffffffff16815260200190815260200160002054611c1f90919063ffffffff16565b600c60003373ffffffffffffffffffffffffffffffffffffffff1673ffffffffffffffffffffffffffffffffffffffff16815260200190815260200160002060008573ffffffffffffffffffffffffffffffffffffffff1673ffffffffffffffffffffffffffffffffffffffff168152602001908152602001600020819055508273ffffffffffffffffffffffffffffffffffffffff163373ffffffffffffffffffffffffffffffffffffffff167f8c5be1e5ebec7d5bd14f71427d1e84f3dd0314c0f7b2291e5b200ac8c7c3b925600c60003373ffffffffffffffffffffffffffffffffffffffff1673ffffffffffffffffffffffffffffffffffffffff16815260200190815260200160002060008773ffffffffffffffffffffffffffffffffffffffff1673ffffffffffffffffffffffffffffffffffffffff168152602001908152602001600020546040518082815260200191505060405180910390a36001905092915050565b6000600c60008473ffffffffffffffffffffffffffffffffffffffff1673ffffffffffffffffffffffffffffffffffffffff16815260200190815260200160002060008373ffffffffffffffffffffffffffffffffffffffff1673ffffffffffffffffffffffffffffffffffffffff16815260200190815260200160002054905092915050565b6000828211151515611c1457fe5b818303905092915050565b6000808284019050838110151515611c3357fe5b8091505092915050565b60008686868685604051808673ffffffffffffffffffffffffffffffffffffffff1673ffffffffffffffffffffffffffffffffffffffff166c01000000000000000000000000028152601401858152602001848152602001838152602001828152602001955050505050506040518091039020600019168360001916141515611cc95760009050611cce565b600190505b9695505050505050565b600080600080611ce6612c28565b611cee612c28565b611cf989898961297f565b1515611d115760008081915080905095509550611f3d565b600760008a815260200190815260200160002088815481101515611d3157fe5b906000526020600020906004020160000160009054906101000a900460ff1615611d6057879350869250611d67565b8693508792505b600760008a815260200190815260200160002084815481101515611d8757fe5b9060005260206000209060040201608060405190810160405290816000820160009054906101000a900460ff1615151515815260200160018201548152602001600282015481526020016003820154815250509150600760008a815260200190815260200160002083815481101515611dfc57fe5b9060005260206000209060040201608060405190810160405290816000820160009054906101000a900460ff1615151515815260200160018201548152602001600282015481526020016003820154815250509050806060015182606001511015611e735760008081915080905095509550611f3d565b60028160600151836060015101811515611e8957fe5b04955085816020015102670de0b6b3a76400008360200151021115611ee75785816020015102670de0b6b3a76400008360400151021115611ed65760008081915080905095509550611f3d565b858682602001510295509550611f3d565b670de0b6b3a7640000826020015102868260200151021115611f3257670de0b6b3a7640000826020015102868260400151021115611f315760008081915080905095509550611f3d565b5b858260200151955095505b50505050935093915050565b806000800154026005600001540360056000018190555080600080015402826005600101540301600560010181905550600060040154600560010154101515611f9557611f94612ae5565b5b5050565b7f17fad608e647bf180e9f2d2542498a2ec81fb1cb077d60802b67b21d64adc9b86008600087815260200190815260200160002085815481101515611fda57fe5b906000526020600020906003020160000160009054906101000a900473ffffffffffffffffffffffffffffffffffffffff16600860008881526020019081526020016000208581548110151561202c57fe5b906000526020600020906003020160000160009054906101000a900473ffffffffffffffffffffffffffffffffffffffff16600860008981526020019081526020016000208781548110151561207e57fe5b9060005260206000209060030201600101600860008a8152602001908152602001600020878154811015156120af57fe5b9060005260206000209060030201600101600860008b8152602001908152602001600020898154811015156120e057fe5b9060005260206000209060030201600201600860008c81526020019081526020016000208981548110151561211157fe5b90600052602060002090600302016002018888604051808973ffffffffffffffffffffffffffffffffffffffff1673ffffffffffffffffffffffffffffffffffffffff1681526020018873ffffffffffffffffffffffffffffffffffffffff1673ffffffffffffffffffffffffffffffffffffffff1681526020018060200180602001806020018060200187815260200186815260200185810385528b8181546001816001161561010002031660029004815260200191508054600181600116156101000203166002900480156122295780601f106121fe57610100808354040283529160200191612229565b820191906000526020600020905b81548152906001019060200180831161220c57829003601f168201915b505085810384528a8181546001816001161561010002031660029004815260200191508054600181600116156101000203166002900480156122ac5780601f10612281576101008083540402835291602001916122ac565b820191906000526020600020905b81548152906001019060200180831161228f57829003601f168201915b505085810383528981815460018160011615610100020316600290048152602001915080546001816001161561010002031660029004801561232f5780601f106123045761010080835404028352916020019161232f565b820191906000526020600020905b81548152906001019060200180831161231257829003601f168201915b50508581038252888181546001816001161561010002031660029004815260200191508054600181600116156101000203166002900480156123b25780601f10612387576101008083540402835291602001916123b2565b820191906000526020600020905b81548152906001019060200180831161239557829003601f168201915b50509c5050505050505050505050505060405180910390a15050505050565b60008060076000888152602001908152602001600020868154811015156123f457fe5b906000526020600020906004020160000160009054906101000a900460ff16156124235785915084905061242a565b8491508590505b82600760008981526020019081526020016000208381548110151561244b57fe5b906000526020600020906004020160010154141561248d57600160098881548110151561247457fe5b9060005260206000209001600082825401925050819055505b8260076000898152602001908152602001600020838154811015156124ae57fe5b906000526020600020906004020160020154101561250257600060076000898152602001908152602001600020838154811015156124e857fe5b906000526020600020906004020160020181905550612542565b82600760008981526020019081526020016000208381548110151561252357fe5b9060005260206000209060040201600201600082825403925050819055505b82600760008981526020019081526020016000208381548110151561256357fe5b906000526020600020906004020160010160008282540392505081905550670de0b6b3a764000084840281151561259657fe5b0460076000898152602001908152602001600020828154811015156125b757fe5b90600052602060002090600402016001015414156125f95760016009888154811015156125e057fe5b9060005260206000209001600082825401925050819055505b670de0b6b3a764000084840281151561260e57fe5b04600760008981526020019081526020016000208281548110151561262f57fe5b9060005260206000209060040201600201541015612683576000600760008981526020019081526020016000208281548110151561266957fe5b9060005260206000209060040201600201819055506126d8565b670de0b6b3a764000084840281151561269857fe5b0460076000898152602001908152602001600020828154811015156126b957fe5b9060005260206000209060040201600201600082825403925050819055505b670de0b6b3a76400008484028115156126ed57fe5b04600760008981526020019081526020016000208281548110151561270e57fe5b90600052602060002090600402016001016000828254039250508190555050505050505050565b60008060006002015460098481548110151561274d57fe5b90600052602060002090015410156127685760009150612979565b600190505b600760008481526020019081526020016000208054905081101561290257600060076000858152602001908152602001600020828154811015156127ad57fe5b90600052602060002090600402016001015414156128f55760016007600085815260200190815260200160002080549050038110156128f457600760008481526020019081526020016000206001820181548110151561280957fe5b9060005260206000209060040201600760008581526020019081526020016000208281548110151561283757fe5b90600052602060002090600402016000820160009054906101000a900460ff168160000160006101000a81548160ff02191690831515021790555060018201548160010155600282015481600201556003820154816003015590505060076000848152602001908152602001600020600182018154811015156128b657fe5b9060005260206000209060040201600080820160006101000a81549060ff021916905560018201600090556002820160009055600382016000905550505b5b808060010191505061276d565b60098381548110151561291157fe5b90600052602060002090015460076000858152602001908152602001600020805490500360076000858152602001908152602001600020816129539190612c53565b50600060098481548110151561296557fe5b906000526020600020900181905550600191505b50919050565b60006007600085815260200190815260200160002080549050831015156129a557600080fd5b6007600085815260200190815260200160002080549050821015156129c957600080fd5b60076000858152602001908152602001600020828154811015156129e957fe5b906000526020600020906004020160000160009054906101000a900460ff1615156007600086815260200190815260200160002084815481101515612a2a57fe5b906000526020600020906004020160000160009054906101000a900460ff16151514151515612a5857600080fd5b60006007600086815260200190815260200160002084815481101515612a7a57fe5b90600052602060002090600402016001015414151515612a9957600080fd5b60006007600086815260200190815260200160002083815481101515612abb57fe5b90600052602060002090600402016001015414151515612ada57600080fd5b600190509392505050565b612aed612aef565b565b6000600560010181905550565b815481835581811511612b2957600402816004028360005260206000209182019101612b289190612c85565b5b505050565b815481835581811511612b5b57600302816003028360005260206000209182019101612b5a9190612cd0565b5b505050565b828054600181600116156101000203166002900490600052602060002090601f016020900481019282601f10612ba157805160ff1916838001178555612bcf565b82800160010185558215612bcf579182015b82811115612bce578251825591602001919060010190612bb3565b5b509050612bdc9190612d36565b5090565b50805460018160011615610100020316600290046000825580601f10612c065750612c25565b601f016020900490600052602060002090810190612c249190612d36565b5b50565b6080604051908101604052806000151581526020016000815260200160008152602001600081525090565b815481835581811511612c8057600402816004028360005260206000209182019101612c7f9190612c85565b5b505050565b612ccd91905b80821115612cc957600080820160006101000a81549060ff021916905560018201600090556002820160009055600382016000905550600401612c8b565b5090565b90565b612d3391905b80821115612d2f57600080820160006101000a81549073ffffffffffffffffffffffffffffffffffffffff0219169055600182016000612d169190612be0565b600282016000612d269190612be0565b50600301612cd6565b5090565b90565b612d5891905b80821115612d54576000816000905550600101612d3c565b5090565b90565b846000800181905550836000600101819055508260006002018190555081600060030181905550806000600401819055505050505050565b6000600760008081526020019081526020016000208054806001018281612dba9190612afc565b9160005260206000209060040201600060806040519081016040528060001515815260200160008152602001600081526020016000815250909190915060008201518160000160006101000a81548160ff021916908315150217905550602082015181600101556040820151816002015560608201518160030155505050600860008081526020019081526020016000208054806001018281612e5d9190612b2e565b91600052602060002090600302016000606060405190810160405280600073ffffffffffffffffffffffffffffffffffffffff168152602001602060405190810160405280600081525081526020016020604051908101604052806000815250815250909190915060008201518160000160006101000a81548173ffffffffffffffffffffffffffffffffffffffff021916908373ffffffffffffffffffffffffffffffffffffffff1602179055506020820151816001019080519060200190612f28929190612b60565b506040820151816002019080519060200190612f45929190612b60565b5050505060019050905600a165627a7a72305820b2dc4d7c09f4aa819fb5773b25a3ad0b7e0d6862a2cfd0d11286c7dc92ec97510029",
  "source": "pragma solidity ^0.4.18;\n\nimport 'zeppelin-solidity/contracts/math/SafeMath.sol';\nimport 'zeppelin-solidity/contracts/token/ERC20/StandardToken.sol';\nimport './Exchange.sol';\n\n\n/// @title ValexPreferredToken\n/// @author Karim Helmy\n\n// Parts sourced from https://github.com/bokkypoobah/Tokens/blob/master/contracts/FixedSupplyToken.sol\n\n// ----------------------------------------------------------------------------\n// 'VLP' 'Valex Preferred Token' token contract\n//\n// Symbol      : VLP\n// Name        : Valex Preferred Token\n// Total supply: 1,000,000.000000000000000000\n// Decimals    : 18\n//\n// ----------------------------------------------------------------------------\n\n// ----------------------------------------------------------------------------\n// ERC20 Token, with the addition of symbol, name and decimals and an\n// initial fixed supply\n// ----------------------------------------------------------------------------\ncontract ValexPreferredToken is Exchange, StandardToken {\n    using SafeMath for uint;\n\n    string public name = \"Valex Preferred Token\";\n    string public symbol = \"VLP\";\n    uint8 public decimals = 18;\n\n    uint256 public initialSupply = 10000 * (10 ** uint256(decimals));\n\n    /**\n     * @dev Constructor that gives msg.sender all of existing tokens.\n     * @dev Initializes token to have same parameters as exchange\n     */\n    function ValexPreferredToken(uint closureFeePerUnit, uint cancelFeePerUnit,\n                      uint cleanSize, uint minershare, uint distBalance)\n      Exchange(closureFeePerUnit, cancelFeePerUnit,\n              cleanSize, minershare, distBalance)\n      public\n    {\n      totalSupply_ = initialSupply;\n      balances[msg.sender] = initialSupply;\n    }\n\n    // Distributes dividends when balance is of sufficient size\n    function distDividends()\n      internal\n    {\n      //TODO: Implement distribution\n      Exchange.distDividends();\n    }\n\n    //TODO: Implement voting/parameter modification\n\n}\n",
  "sourcePath": "/Users/Karim/Desktop/Valex/contracts/ValexPreferredToken.sol",
  "compiler": {
    "name": "solc",
    "version": "0.4.18+commit.9cf6e910.Emscripten.clang"
  },
  "schemaVersion": "1.0.1",
  "updatedAt": "2018-01-28T21:16:53.357Z"
}