{
  "contractName": "ValexToken",
  "abi": [
    {
      "constant": true,
      "inputs": [],
      "name": "name",
      "outputs": [
        {
          "name": "",
          "type": "string"
        }
      ],
      "payable": false,
      "stateMutability": "view",
      "type": "function"
    },
    {
      "constant": false,
      "inputs": [
        {
          "name": "_spender",
          "type": "address"
        },
        {
          "name": "_value",
          "type": "uint256"
        }
      ],
      "name": "approve",
      "outputs": [
        {
          "name": "",
          "type": "bool"
        }
      ],
      "payable": false,
      "stateMutability": "nonpayable",
      "type": "function"
    },
    {
      "constant": true,
      "inputs": [
        {
          "name": "",
          "type": "uint256"
        },
        {
          "name": "",
          "type": "uint256"
        },
        {
          "name": "",
          "type": "uint256"
        }
      ],
      "name": "secondAddressBook",
      "outputs": [
        {
          "name": "",
          "type": "bytes32"
        }
      ],
      "payable": false,
      "stateMutability": "view",
      "type": "function"
    },
    {
      "constant": true,
      "inputs": [
        {
          "name": "chapter",
          "type": "uint256"
        }
      ],
      "name": "getSecondAddressChapter",
      "outputs": [
        {
          "name": "secondAddressChapter",
          "type": "bytes32[2][]"
        }
      ],
      "payable": false,
      "stateMutability": "view",
      "type": "function"
    },
    {
      "constant": true,
      "inputs": [],
      "name": "totalSupply",
      "outputs": [
        {
          "name": "",
          "type": "uint256"
        }
      ],
      "payable": false,
      "stateMutability": "view",
      "type": "function"
    },
    {
      "constant": false,
      "inputs": [
        {
          "name": "_from",
          "type": "address"
        },
        {
          "name": "_to",
          "type": "address"
        },
        {
          "name": "_value",
          "type": "uint256"
        }
      ],
      "name": "transferFrom",
      "outputs": [
        {
          "name": "",
          "type": "bool"
        }
      ],
      "payable": false,
      "stateMutability": "nonpayable",
      "type": "function"
    },
    {
      "constant": true,
      "inputs": [],
      "name": "decimals",
      "outputs": [
        {
          "name": "",
          "type": "uint8"
        }
      ],
      "payable": false,
      "stateMutability": "view",
      "type": "function"
    },
    {
      "constant": true,
      "inputs": [
        {
          "name": "",
          "type": "uint256"
        },
        {
          "name": "",
          "type": "uint256"
        },
        {
          "name": "",
          "type": "uint256"
        }
      ],
      "name": "firstAddressBook",
      "outputs": [
        {
          "name": "",
          "type": "bytes32"
        }
      ],
      "payable": false,
      "stateMutability": "view",
      "type": "function"
    },
    {
      "constant": true,
      "inputs": [],
      "name": "initialSupply",
      "outputs": [
        {
          "name": "",
          "type": "uint256"
        }
      ],
      "payable": false,
      "stateMutability": "view",
      "type": "function"
    },
    {
      "constant": true,
      "inputs": [
        {
          "name": "",
          "type": "uint256"
        },
        {
          "name": "",
          "type": "uint256"
        }
      ],
      "name": "buyBook",
      "outputs": [
        {
          "name": "",
          "type": "bool"
        }
      ],
      "payable": false,
      "stateMutability": "view",
      "type": "function"
    },
    {
      "constant": true,
      "inputs": [
        {
          "name": "chapter",
          "type": "uint256"
        }
      ],
      "name": "getOrderChapter",
      "outputs": [
        {
          "name": "buyChapter",
          "type": "bool[]"
        },
        {
          "name": "volChapter",
          "type": "uint256[]"
        },
        {
          "name": "minVolChapter",
          "type": "uint256[]"
        },
        {
          "name": "limitChapter",
          "type": "uint256[]"
        }
      ],
      "payable": false,
      "stateMutability": "view",
      "type": "function"
    },
    {
      "constant": true,
      "inputs": [],
      "name": "threshold",
      "outputs": [
        {
          "name": "",
          "type": "uint256"
        }
      ],
      "payable": false,
      "stateMutability": "view",
      "type": "function"
    },
    {
      "constant": false,
      "inputs": [
        {
          "name": "buyETH",
          "type": "bool"
        },
        {
          "name": "volume",
          "type": "uint256"
        },
        {
          "name": "minVolume",
          "type": "uint256"
        },
        {
          "name": "limit",
          "type": "uint256"
        },
        {
          "name": "ethAddress",
          "type": "address"
        },
        {
          "name": "firstAddress",
          "type": "bytes32[2]"
        },
        {
          "name": "otherAddress",
          "type": "bytes32[2]"
        },
        {
          "name": "chapter",
          "type": "uint256"
        }
      ],
      "name": "placeOrder",
      "outputs": [
        {
          "name": "accepted",
          "type": "bool"
        }
      ],
      "payable": true,
      "stateMutability": "payable",
      "type": "function"
    },
    {
      "constant": true,
      "inputs": [
        {
          "name": "",
          "type": "uint256"
        },
        {
          "name": "",
          "type": "uint256"
        }
      ],
      "name": "ethAddressBook",
      "outputs": [
        {
          "name": "",
          "type": "address"
        }
      ],
      "payable": false,
      "stateMutability": "view",
      "type": "function"
    },
    {
      "constant": false,
      "inputs": [
        {
          "name": "_spender",
          "type": "address"
        },
        {
          "name": "_subtractedValue",
          "type": "uint256"
        }
      ],
      "name": "decreaseApproval",
      "outputs": [
        {
          "name": "",
          "type": "bool"
        }
      ],
      "payable": false,
      "stateMutability": "nonpayable",
      "type": "function"
    },
    {
      "constant": false,
      "inputs": [
        {
          "name": "desiredParam",
          "type": "uint256"
        }
      ],
      "name": "voteMinerShare",
      "outputs": [],
      "payable": false,
      "stateMutability": "nonpayable",
      "type": "function"
    },
    {
      "constant": true,
      "inputs": [
        {
          "name": "_owner",
          "type": "address"
        }
      ],
      "name": "balanceOf",
      "outputs": [
        {
          "name": "balance",
          "type": "uint256"
        }
      ],
      "payable": false,
      "stateMutability": "view",
      "type": "function"
    },
    {
      "constant": false,
      "inputs": [
        {
          "name": "desiredParam",
          "type": "uint256"
        }
      ],
      "name": "voteDistBalance",
      "outputs": [],
      "payable": false,
      "stateMutability": "nonpayable",
      "type": "function"
    },
    {
      "constant": true,
      "inputs": [
        {
          "name": "",
          "type": "uint256"
        },
        {
          "name": "",
          "type": "uint256"
        }
      ],
      "name": "limitBook",
      "outputs": [
        {
          "name": "",
          "type": "uint256"
        }
      ],
      "payable": false,
      "stateMutability": "view",
      "type": "function"
    },
    {
      "constant": true,
      "inputs": [
        {
          "name": "chapter",
          "type": "uint256"
        },
        {
          "name": "index1",
          "type": "uint256"
        },
        {
          "name": "index2",
          "type": "uint256"
        }
      ],
      "name": "calcRateAndVol",
      "outputs": [
        {
          "name": "mimRate",
          "type": "uint256"
        },
        {
          "name": "ethVol",
          "type": "uint256"
        }
      ],
      "payable": false,
      "stateMutability": "view",
      "type": "function"
    },
    {
      "constant": true,
      "inputs": [],
      "name": "openBalance",
      "outputs": [
        {
          "name": "",
          "type": "uint256"
        }
      ],
      "payable": false,
      "stateMutability": "view",
      "type": "function"
    },
    {
      "constant": true,
      "inputs": [],
      "name": "symbol",
      "outputs": [
        {
          "name": "",
          "type": "string"
        }
      ],
      "payable": false,
      "stateMutability": "view",
      "type": "function"
    },
    {
      "constant": true,
      "inputs": [
        {
          "name": "",
          "type": "uint256"
        },
        {
          "name": "",
          "type": "uint256"
        }
      ],
      "name": "minVolBook",
      "outputs": [
        {
          "name": "",
          "type": "uint256"
        }
      ],
      "payable": false,
      "stateMutability": "view",
      "type": "function"
    },
    {
      "constant": false,
      "inputs": [
        {
          "name": "_to",
          "type": "address"
        },
        {
          "name": "_value",
          "type": "uint256"
        }
      ],
      "name": "transfer",
      "outputs": [
        {
          "name": "",
          "type": "bool"
        }
      ],
      "payable": false,
      "stateMutability": "nonpayable",
      "type": "function"
    },
    {
      "constant": true,
      "inputs": [],
      "name": "PRECISION",
      "outputs": [
        {
          "name": "",
          "type": "uint256"
        }
      ],
      "payable": false,
      "stateMutability": "view",
      "type": "function"
    },
    {
      "constant": false,
      "inputs": [
        {
          "name": "desiredParam",
          "type": "uint256"
        }
      ],
      "name": "voteCleanSize",
      "outputs": [],
      "payable": false,
      "stateMutability": "nonpayable",
      "type": "function"
    },
    {
      "constant": false,
      "inputs": [
        {
          "name": "chapter",
          "type": "uint256"
        },
        {
          "name": "index",
          "type": "uint256"
        }
      ],
      "name": "cancelOrder",
      "outputs": [
        {
          "name": "accepted",
          "type": "bool"
        }
      ],
      "payable": false,
      "stateMutability": "nonpayable",
      "type": "function"
    },
    {
      "constant": false,
      "inputs": [
        {
          "name": "desiredParam",
          "type": "uint256"
        }
      ],
      "name": "voteClosureFee",
      "outputs": [],
      "payable": false,
      "stateMutability": "nonpayable",
      "type": "function"
    },
    {
      "constant": false,
      "inputs": [
        {
          "name": "desiredParam",
          "type": "uint256"
        }
      ],
      "name": "voteCancelFee",
      "outputs": [],
      "payable": false,
      "stateMutability": "nonpayable",
      "type": "function"
    },
    {
      "constant": true,
      "inputs": [],
      "name": "params",
      "outputs": [
        {
          "name": "closureFee",
          "type": "uint256"
        },
        {
          "name": "cancelFee",
          "type": "uint256"
        },
        {
          "name": "cleanSize",
          "type": "uint256"
        },
        {
          "name": "minerShare",
          "type": "uint256"
        },
        {
          "name": "distBalance",
          "type": "uint256"
        },
        {
          "name": "difficulty",
          "type": "bytes32"
        }
      ],
      "payable": false,
      "stateMutability": "view",
      "type": "function"
    },
    {
      "constant": false,
      "inputs": [
        {
          "name": "depositAddress",
          "type": "address"
        },
        {
          "name": "chapter",
          "type": "uint256"
        },
        {
          "name": "index1",
          "type": "uint256"
        },
        {
          "name": "index2",
          "type": "uint256"
        },
        {
          "name": "nonce",
          "type": "uint256"
        }
      ],
      "name": "giveMatch",
      "outputs": [
        {
          "name": "isValid",
          "type": "bool"
        }
      ],
      "payable": false,
      "stateMutability": "nonpayable",
      "type": "function"
    },
    {
      "constant": false,
      "inputs": [
        {
          "name": "_spender",
          "type": "address"
        },
        {
          "name": "_addedValue",
          "type": "uint256"
        }
      ],
      "name": "increaseApproval",
      "outputs": [
        {
          "name": "",
          "type": "bool"
        }
      ],
      "payable": false,
      "stateMutability": "nonpayable",
      "type": "function"
    },
    {
      "constant": true,
      "inputs": [
        {
          "name": "_owner",
          "type": "address"
        },
        {
          "name": "_spender",
          "type": "address"
        }
      ],
      "name": "allowance",
      "outputs": [
        {
          "name": "",
          "type": "uint256"
        }
      ],
      "payable": false,
      "stateMutability": "view",
      "type": "function"
    },
    {
      "constant": true,
      "inputs": [
        {
          "name": "chapter",
          "type": "uint256"
        }
      ],
      "name": "getETHAddressChapter",
      "outputs": [
        {
          "name": "ethAddressChapter",
          "type": "address[]"
        }
      ],
      "payable": false,
      "stateMutability": "view",
      "type": "function"
    },
    {
      "constant": true,
      "inputs": [
        {
          "name": "",
          "type": "uint256"
        },
        {
          "name": "",
          "type": "uint256"
        }
      ],
      "name": "volBook",
      "outputs": [
        {
          "name": "",
          "type": "uint256"
        }
      ],
      "payable": false,
      "stateMutability": "view",
      "type": "function"
    },
    {
      "constant": true,
      "inputs": [
        {
          "name": "chapter",
          "type": "uint256"
        }
      ],
      "name": "getFirstAddressChapter",
      "outputs": [
        {
          "name": "firstAddressChapter",
          "type": "bytes32[2][]"
        }
      ],
      "payable": false,
      "stateMutability": "view",
      "type": "function"
    },
    {
      "inputs": [
        {
          "name": "closureFee",
          "type": "uint256"
        },
        {
          "name": "cancelFee",
          "type": "uint256"
        },
        {
          "name": "cleanSize",
          "type": "uint256"
        },
        {
          "name": "minershare",
          "type": "uint256"
        },
        {
          "name": "distBalance",
          "type": "uint256"
        },
        {
          "name": "difficulty",
          "type": "bytes32"
        }
      ],
      "payable": false,
      "stateMutability": "nonpayable",
      "type": "constructor"
    },
    {
      "anonymous": false,
      "inputs": [
        {
          "indexed": true,
          "name": "owner",
          "type": "address"
        },
        {
          "indexed": true,
          "name": "spender",
          "type": "address"
        },
        {
          "indexed": false,
          "name": "value",
          "type": "uint256"
        }
      ],
      "name": "Approval",
      "type": "event"
    },
    {
      "anonymous": false,
      "inputs": [
        {
          "indexed": true,
          "name": "from",
          "type": "address"
        },
        {
          "indexed": true,
          "name": "to",
          "type": "address"
        },
        {
          "indexed": false,
          "name": "value",
          "type": "uint256"
        }
      ],
      "name": "Transfer",
      "type": "event"
    },
    {
      "anonymous": false,
      "inputs": [
        {
          "indexed": false,
          "name": "ethAddress1",
          "type": "address"
        },
        {
          "indexed": false,
          "name": "ethAddress2",
          "type": "address"
        },
        {
          "indexed": false,
          "name": "firstAddress1",
          "type": "bytes32[2]"
        },
        {
          "indexed": false,
          "name": "firstAddress2",
          "type": "bytes32[2]"
        },
        {
          "indexed": false,
          "name": "otherAddress1",
          "type": "bytes32[2]"
        },
        {
          "indexed": false,
          "name": "otherAddress2",
          "type": "bytes32[2]"
        },
        {
          "indexed": false,
          "name": "mimRate",
          "type": "uint256"
        },
        {
          "indexed": false,
          "name": "ethVol",
          "type": "uint256"
        }
      ],
      "name": "TradeInfo",
      "type": "event"
    }
  ],
  "bytecode": "0x6060604052670de0b6b3a764000060005560006001556040805190810160405280600b81526020017f56616c657820546f6b656e0000000000000000000000000000000000000000008152506013908051906020019062000062929190620004ea565b506040805190810160405280600381526020017f564c58000000000000000000000000000000000000000000000000000000000081525060149080519060200190620000b0929190620004ea565b506012601560006101000a81548160ff021916908360ff160217905550601560009054906101000a900460ff1660ff16600a0a6127100260165560336064601654811515620000fb57fe5b0402601d5534156200010c57600080fd5b60405160c080620054f783398101604052808051906020019091908051906020019091908051906020019091908051906020019091908051906020019091908051906020019091905050858585858585620001808686868686866200022a6401000000000262004af2176401000000009004565b6200019e620002716401000000000262004b39176401000000009004565b600f8054806001018281620001b4919062000571565b916000526020600020900160008090919091505550505050505050601654601181905550601654601060003373ffffffffffffffffffffffffffffffffffffffff1673ffffffffffffffffffffffffffffffffffffffff168152602001908152602001600020819055505050505050506200071b565b856002600001819055508460026001018190555083600280018190555082600260030181905550816002600401819055508060026005018160001916905550505050505050565b600860008081526020019081526020016000208054806001018281620002989190620005a0565b91600052602060002090602091828204019190066000909190916101000a81548160ff02191690831515021790555050600960008081526020019081526020016000208054806001018281620002ef919062000571565b916000526020600020900160008090919091505550600a600080815260200190815260200160002080548060010182816200032b919062000571565b916000526020600020900160008090919091505550600b6000808152602001908152602001600020805480600101828162000367919062000571565b916000526020600020900160008090919091505550600c60008081526020019081526020016000208054806001018281620003a39190620005dd565b9160005260206000209001600080909190916101000a81548173ffffffffffffffffffffffffffffffffffffffff021916908373ffffffffffffffffffffffffffffffffffffffff16021790555050600d600080815260200190815260200160002080548060010182816200041991906200060c565b9160005260206000209060020201600060408051908101604052806000600102600019166000191681526020016000600102600019166000191681525090919091509060026200046b92919062000641565b5050600e600080815260200190815260200160002080548060010182816200049491906200060c565b916000526020600020906002020160006040805190810160405280600060010260001916600019168152602001600060010260001916600019168152509091909150906002620004e692919062000641565b5050565b828054600181600116156101000203166002900490600052602060002090601f016020900481019282601f106200052d57805160ff19168380011785556200055e565b828001600101855582156200055e579182015b828111156200055d57825182559160200191906001019062000540565b5b5090506200056d91906200068c565b5090565b8154818355818115116200059b578183600052602060002091820191016200059a91906200068c565b5b505050565b815481835581811511620005d857601f016020900481601f01602090048360005260206000209182019101620005d791906200068c565b5b505050565b81548183558181151162000607578183600052602060002091820191016200060691906200068c565b5b505050565b8154818355818115116200063c576002028160020283600052602060002091820191016200063b9190620006b4565b5b505050565b826002810192821562000679579160200282015b828111156200067857825182906000191690559160200191906001019062000655565b5b509050620006889190620006e5565b5090565b620006b191905b80821115620006ad57600081600090555060010162000693565b5090565b90565b620006e291905b80821115620006de5760008181620006d491906200070d565b50600201620006bb565b5090565b90565b6200070a91905b8082111562000706576000816000905550600101620006ec565b5090565b90565b506000815560010160009055565b614dcc806200072b6000396000f3006060604052600436106101c2576000357c0100000000000000000000000000000000000000000000000000000000900463ffffffff16806306fdde03146101c7578063095ea7b31461025557806310fc8a15146102af578063145404fc1461030057806318160ddd1461039b57806323b872dd146103c4578063313ce5671461043d578063324a14671461046c578063378dc3dc146104bd5780633af8c2d5146104e65780633b6a08001461052a57806342cde4e81461067a57806349827685146106a357806353c1d8821461077057806366188463146107dc57806369f99f801461083657806370a08231146108595780637db23c05146108a65780638139cbc6146108c95780638eae03d2146109095780639138ec3a1461095957806395d89b41146109825780639febbcfa14610a10578063a9059cbb14610a50578063aaf5eb6814610aaa578063af87439e14610ad3578063b6ed063214610af6578063c932aa7b14610b3a578063ca7f74ea14610b5d578063cff0ab9614610b80578063d2426ab914610bd4578063d73dd62314610c49578063dd62ed3e14610ca3578063e0cfdce014610d0f578063e0f1f59f14610d87578063ee4b94bb14610dc7575b600080fd5b34156101d257600080fd5b6101da610e62565b6040518080602001828103825283818151815260200191508051906020019080838360005b8381101561021a5780820151818401526020810190506101ff565b50505050905090810190601f1680156102475780820380516001836020036101000a031916815260200191505b509250505060405180910390f35b341561026057600080fd5b610295600480803573ffffffffffffffffffffffffffffffffffffffff16906020019091908035906020019091905050610f00565b604051808215151515815260200191505060405180910390f35b34156102ba57600080fd5b6102e26004808035906020019091908035906020019091908035906020019091905050610ff2565b60405180826000191660001916815260200191505060405180910390f35b341561030b57600080fd5b6103216004808035906020019091905050611035565b60405180806020018281038252838181518152602001915080516000925b8184101561038a57828490602001906020020151600260200280838360005b8381101561037957808201518184015260208101905061035e565b50505050905001926001019261033f565b925050509250505060405180910390f35b34156103a657600080fd5b6103ae6110e2565b6040518082815260200191505060405180910390f35b34156103cf57600080fd5b610423600480803573ffffffffffffffffffffffffffffffffffffffff1690602001909190803573ffffffffffffffffffffffffffffffffffffffff169060200190919080359060200190919050506110ec565b604051808215151515815260200191505060405180910390f35b341561044857600080fd5b6104506114ab565b604051808260ff1660ff16815260200191505060405180910390f35b341561047757600080fd5b61049f60048080359060200190919080359060200190919080359060200190919050506114be565b60405180826000191660001916815260200191505060405180910390f35b34156104c857600080fd5b6104d0611501565b6040518082815260200191505060405180910390f35b34156104f157600080fd5b6105106004808035906020019091908035906020019091905050611507565b604051808215151515815260200191505060405180910390f35b341561053557600080fd5b61054b6004808035906020019091905050611549565b6040518080602001806020018060200180602001858103855289818151815260200191508051906020019060200280838360005b8381101561059a57808201518184015260208101905061057f565b50505050905001858103845288818151815260200191508051906020019060200280838360005b838110156105dc5780820151818401526020810190506105c1565b50505050905001858103835287818151815260200191508051906020019060200280838360005b8381101561061e578082015181840152602081019050610603565b50505050905001858103825286818151815260200191508051906020019060200280838360005b83811015610660578082015181840152602081019050610645565b505050509050019850505050505050505060405180910390f35b341561068557600080fd5b61068d611731565b6040518082815260200191505060405180910390f35b6107566004808035151590602001909190803590602001909190803590602001909190803590602001909190803573ffffffffffffffffffffffffffffffffffffffff1690602001909190806040019060028060200260405190810160405280929190826002602002808284378201915050505050919080604001906002806020026040519081016040528092919082600260200280828437820191505050505091908035906020019091905050611737565b604051808215151515815260200191505060405180910390f35b341561077b57600080fd5b61079a6004808035906020019091908035906020019091905050611a4a565b604051808273ffffffffffffffffffffffffffffffffffffffff1673ffffffffffffffffffffffffffffffffffffffff16815260200191505060405180910390f35b34156107e757600080fd5b61081c600480803573ffffffffffffffffffffffffffffffffffffffff16906020019091908035906020019091905050611a98565b604051808215151515815260200191505060405180910390f35b341561084157600080fd5b6108576004808035906020019091905050611d29565b005b341561086457600080fd5b610890600480803573ffffffffffffffffffffffffffffffffffffffff16906020019091905050611f46565b6040518082815260200191505060405180910390f35b34156108b157600080fd5b6108c76004808035906020019091905050611f8f565b005b34156108d457600080fd5b6108f360048080359060200190919080359060200190919050506121ac565b6040518082815260200191505060405180910390f35b341561091457600080fd5b61093c60048080359060200190919080359060200190919080359060200190919050506121dd565b604051808381526020018281526020019250505060405180910390f35b341561096457600080fd5b61096c61249d565b6040518082815260200191505060405180910390f35b341561098d57600080fd5b6109956124a3565b6040518080602001828103825283818151815260200191508051906020019080838360005b838110156109d55780820151818401526020810190506109ba565b50505050905090810190601f168015610a025780820380516001836020036101000a031916815260200191505b509250505060405180910390f35b3415610a1b57600080fd5b610a3a6004808035906020019091908035906020019091905050612541565b6040518082815260200191505060405180910390f35b3415610a5b57600080fd5b610a90600480803573ffffffffffffffffffffffffffffffffffffffff16906020019091908035906020019091905050612572565b604051808215151515815260200191505060405180910390f35b3415610ab557600080fd5b610abd612796565b6040518082815260200191505060405180910390f35b3415610ade57600080fd5b610af4600480803590602001909190505061279c565b005b3415610b0157600080fd5b610b2060048080359060200190919080359060200190919050506129b8565b604051808215151515815260200191505060405180910390f35b3415610b4557600080fd5b610b5b6004808035906020019091905050612d8f565b005b3415610b6857600080fd5b610b7e6004808035906020019091905050612fac565b005b3415610b8b57600080fd5b610b936131c9565b604051808781526020018681526020018581526020018481526020018381526020018260001916600019168152602001965050505050505060405180910390f35b3415610bdf57600080fd5b610c2f600480803573ffffffffffffffffffffffffffffffffffffffff169060200190919080359060200190919080359060200190919080359060200190919080359060200190919050506131f3565b604051808215151515815260200191505060405180910390f35b3415610c5457600080fd5b610c89600480803573ffffffffffffffffffffffffffffffffffffffff169060200190919080359060200190919050506132fc565b604051808215151515815260200191505060405180910390f35b3415610cae57600080fd5b610cf9600480803573ffffffffffffffffffffffffffffffffffffffff1690602001909190803573ffffffffffffffffffffffffffffffffffffffff169060200190919050506134f8565b6040518082815260200191505060405180910390f35b3415610d1a57600080fd5b610d30600480803590602001909190505061357f565b6040518080602001828103825283818151815260200191508051906020019060200280838360005b83811015610d73578082015181840152602081019050610d58565b505050509050019250505060405180910390f35b3415610d9257600080fd5b610db16004808035906020019091908035906020019091905050613626565b6040518082815260200191505060405180910390f35b3415610dd257600080fd5b610de86004808035906020019091905050613657565b60405180806020018281038252838181518152602001915080516000925b81841015610e5157828490602001906020020151600260200280838360005b83811015610e40578082015181840152602081019050610e25565b505050509050019260010192610e06565b925050509250505060405180910390f35b60138054600181600116156101000203166002900480601f016020809104026020016040519081016040528092919081815260200182805460018160011615610100020316600290048015610ef85780601f10610ecd57610100808354040283529160200191610ef8565b820191906000526020600020905b815481529060010190602001808311610edb57829003601f168201915b505050505081565b600081601260003373ffffffffffffffffffffffffffffffffffffffff1673ffffffffffffffffffffffffffffffffffffffff16815260200190815260200160002060008573ffffffffffffffffffffffffffffffffffffffff1673ffffffffffffffffffffffffffffffffffffffff168152602001908152602001600020819055508273ffffffffffffffffffffffffffffffffffffffff163373ffffffffffffffffffffffffffffffffffffffff167f8c5be1e5ebec7d5bd14f71427d1e84f3dd0314c0f7b2291e5b200ac8c7c3b925846040518082815260200191505060405180910390a36001905092915050565b600e6020528260005260406000208281548110151561100d57fe5b90600052602060002090600202018160028110151561102857fe5b0160009250925050505481565b61103d6147e8565b600e6000838152602001908152602001600020805480602002602001604051908101604052809291908181526020016000905b828210156110d757838290600052602060002090600202016002806020026040519081016040528092919082600280156110c3576020028201915b815460001916815260200190600101908083116110ab575b505050505081526020019060010190611070565b505050509050919050565b6000601154905090565b60008073ffffffffffffffffffffffffffffffffffffffff168373ffffffffffffffffffffffffffffffffffffffff161415151561112957600080fd5b601060008573ffffffffffffffffffffffffffffffffffffffff1673ffffffffffffffffffffffffffffffffffffffff16815260200190815260200160002054821115151561117757600080fd5b601260008573ffffffffffffffffffffffffffffffffffffffff1673ffffffffffffffffffffffffffffffffffffffff16815260200190815260200160002060003373ffffffffffffffffffffffffffffffffffffffff1673ffffffffffffffffffffffffffffffffffffffff16815260200190815260200160002054821115151561120257600080fd5b61125482601060008773ffffffffffffffffffffffffffffffffffffffff1673ffffffffffffffffffffffffffffffffffffffff1681526020019081526020016000205461370490919063ffffffff16565b601060008673ffffffffffffffffffffffffffffffffffffffff1673ffffffffffffffffffffffffffffffffffffffff168152602001908152602001600020819055506112e982601060008673ffffffffffffffffffffffffffffffffffffffff1673ffffffffffffffffffffffffffffffffffffffff1681526020019081526020016000205461371d90919063ffffffff16565b601060008573ffffffffffffffffffffffffffffffffffffffff1673ffffffffffffffffffffffffffffffffffffffff168152602001908152602001600020819055506113bb82601260008773ffffffffffffffffffffffffffffffffffffffff1673ffffffffffffffffffffffffffffffffffffffff16815260200190815260200160002060003373ffffffffffffffffffffffffffffffffffffffff1673ffffffffffffffffffffffffffffffffffffffff1681526020019081526020016000205461370490919063ffffffff16565b601260008673ffffffffffffffffffffffffffffffffffffffff1673ffffffffffffffffffffffffffffffffffffffff16815260200190815260200160002060003373ffffffffffffffffffffffffffffffffffffffff1673ffffffffffffffffffffffffffffffffffffffff168152602001908152602001600020819055508273ffffffffffffffffffffffffffffffffffffffff168473ffffffffffffffffffffffffffffffffffffffff167fddf252ad1be2c89b69c2b068fc378daa952ba7f163c4a11628f55a4df523b3ef846040518082815260200191505060405180910390a3600190509392505050565b601560009054906101000a900460ff1681565b600d602052826000526040600020828154811015156114d957fe5b9060005260206000209060020201816002811015156114f457fe5b0160009250925050505481565b60165481565b60086020528160005260406000208181548110151561152257fe5b9060005260206000209060209182820401919006915091509054906101000a900460ff1681565b6115516147fc565b611559614810565b611561614810565b611569614810565b6008600086815260200190815260200160002060096000878152602001908152602001600020600a6000888152602001908152602001600020600b60008981526020019081526020016000208380548060200260200160405190810160405280929190818152602001828054801561162557602002820191906000526020600020906000905b82829054906101000a900460ff161515815260200190600101906020826000010492830192600103820291508084116115ef5790505b505050505093508280548060200260200160405190810160405280929190818152602001828054801561167757602002820191906000526020600020905b815481526020019060010190808311611663575b50505050509250818054806020026020016040519081016040528092919081815260200182805480156116c957602002820191906000526020600020905b8154815260200190600101908083116116b5575b505050505091508080548060200260200160405190810160405280929190818152602001828054801561171b57602002820191906000526020600020905b815481526020019060010190808311611707575b5050505050905093509350935093509193509193565b601d5481565b6000808811151561174757600080fd5b60008711151561175657600080fd5b86881015151561176557600080fd5b60008611151561177457600080fd5b88156117c15760026000015488023487021015151561179257600080fd5b60005460005402866002600001548a02028115156117ac57fe5b04600160008282540192505081905550611809565b60005460026000015489028115156117d557fe5b0434101515156117e457600080fd5b60005460026000015489028115156117f857fe5b046001600082825401925050819055505b6000600860008481526020019081526020016000208054905011151561182e57600080fd5b6008600083815260200190815260200160002080548060010182816118539190614824565b91600052602060002090602091828204019190068b909190916101000a81548160ff021916908315150217905550506009600083815260200190815260200160002080548060010182816118a7919061485e565b916000526020600020900160008a90919091505550600a600083815260200190815260200160002080548060010182816118e1919061485e565b916000526020600020900160008990919091505550600b6000838152602001908152602001600020805480600101828161191b919061485e565b916000526020600020900160008890919091505550600c60008381526020019081526020016000208054806001018281611955919061488a565b9160005260206000209001600087909190916101000a81548173ffffffffffffffffffffffffffffffffffffffff021916908373ffffffffffffffffffffffffffffffffffffffff16021790555050600d600083815260200190815260200160002080548060010182816119c991906148b6565b916000526020600020906002020160008690919091509060026119ed9291906148e8565b5050600e60008381526020019081526020016000208054806001018281611a1491906148b6565b91600052602060002090600202016000859091909150906002611a389291906148e8565b50506001905098975050505050505050565b600c60205281600052604060002081815481101515611a6557fe5b90600052602060002090016000915091509054906101000a900473ffffffffffffffffffffffffffffffffffffffff1681565b600080601260003373ffffffffffffffffffffffffffffffffffffffff1673ffffffffffffffffffffffffffffffffffffffff16815260200190815260200160002060008573ffffffffffffffffffffffffffffffffffffffff1673ffffffffffffffffffffffffffffffffffffffff16815260200190815260200160002054905080831115611ba9576000601260003373ffffffffffffffffffffffffffffffffffffffff1673ffffffffffffffffffffffffffffffffffffffff16815260200190815260200160002060008673ffffffffffffffffffffffffffffffffffffffff1673ffffffffffffffffffffffffffffffffffffffff16815260200190815260200160002081905550611c3d565b611bbc838261370490919063ffffffff16565b601260003373ffffffffffffffffffffffffffffffffffffffff1673ffffffffffffffffffffffffffffffffffffffff16815260200190815260200160002060008673ffffffffffffffffffffffffffffffffffffffff1673ffffffffffffffffffffffffffffffffffffffff168152602001908152602001600020819055505b8373ffffffffffffffffffffffffffffffffffffffff163373ffffffffffffffffffffffffffffffffffffffff167f8c5be1e5ebec7d5bd14f71427d1e84f3dd0314c0f7b2291e5b200ac8c7c3b925601260003373ffffffffffffffffffffffffffffffffffffffff1673ffffffffffffffffffffffffffffffffffffffff16815260200190815260200160002060008873ffffffffffffffffffffffffffffffffffffffff1673ffffffffffffffffffffffffffffffffffffffff168152602001908152602001600020546040518082815260200191505060405180910390a3600191505092915050565b6000601060003373ffffffffffffffffffffffffffffffffffffffff1673ffffffffffffffffffffffffffffffffffffffff16815260200190815260200160002054111515611d7757600080fd5b600081111515611d8657600080fd5b6000601760003373ffffffffffffffffffffffffffffffffffffffff1673ffffffffffffffffffffffffffffffffffffffff168152602001908152602001600020600301541115611e7457601060003373ffffffffffffffffffffffffffffffffffffffff1673ffffffffffffffffffffffffffffffffffffffff16815260200190815260200160002054601b6000601760003373ffffffffffffffffffffffffffffffffffffffff1673ffffffffffffffffffffffffffffffffffffffff168152602001908152602001600020600301548152602001908152602001600020600082825403925050819055505b80601760003373ffffffffffffffffffffffffffffffffffffffff1673ffffffffffffffffffffffffffffffffffffffff16815260200190815260200160002060030181905550601060003373ffffffffffffffffffffffffffffffffffffffff1673ffffffffffffffffffffffffffffffffffffffff16815260200190815260200160002054601b600083815260200190815260200160002060008282540192505081905550601d54601b6000838152602001908152602001600020541115611f4357806002600301819055505b50565b6000601060008373ffffffffffffffffffffffffffffffffffffffff1673ffffffffffffffffffffffffffffffffffffffff168152602001908152602001600020549050919050565b6000601060003373ffffffffffffffffffffffffffffffffffffffff1673ffffffffffffffffffffffffffffffffffffffff16815260200190815260200160002054111515611fdd57600080fd5b600081111515611fec57600080fd5b6000601760003373ffffffffffffffffffffffffffffffffffffffff1673ffffffffffffffffffffffffffffffffffffffff1681526020019081526020016000206004015411156120da57601060003373ffffffffffffffffffffffffffffffffffffffff1673ffffffffffffffffffffffffffffffffffffffff16815260200190815260200160002054601c6000601760003373ffffffffffffffffffffffffffffffffffffffff1673ffffffffffffffffffffffffffffffffffffffff168152602001908152602001600020600401548152602001908152602001600020600082825403925050819055505b80601760003373ffffffffffffffffffffffffffffffffffffffff1673ffffffffffffffffffffffffffffffffffffffff16815260200190815260200160002060040181905550601060003373ffffffffffffffffffffffffffffffffffffffff1673ffffffffffffffffffffffffffffffffffffffff16815260200190815260200160002054601c600083815260200190815260200160002060008282540192505081905550601d54601c60008381526020019081526020016000205411156121a957806002600401819055505b50565b600b602052816000526040600020818154811015156121c757fe5b9060005260206000209001600091509150505481565b6000806000806121eb61492e565b6121f361492e565b6121fe89898961373b565b15156122165760008081915080905095509550612491565b600860008a81526020019081526020016000208881548110151561223657fe5b90600052602060002090602091828204019190069054906101000a900460ff16156122665787935086925061226d565b8693508792505b608060405190810160405280600115158152602001600960008c8152602001908152602001600020868154811015156122a257fe5b9060005260206000209001548152602001600a60008c8152602001908152602001600020868154811015156122d357fe5b9060005260206000209001548152602001600b60008c81526020019081526020016000208681548110151561230457fe5b9060005260206000209001548152509150608060405190810160405280600015158152602001600960008c81526020019081526020016000208581548110151561234a57fe5b9060005260206000209001548152602001600a60008c81526020019081526020016000208581548110151561237b57fe5b9060005260206000209001548152602001600b60008c8152602001908152602001600020858154811015156123ac57fe5b90600052602060002090015481525090508060600151826060015110156123df5760008081915080905095509550612491565b600281606001518360600151018115156123f557fe5b049550858160200151026000548360200151021115612447578581602001510260005483604001510211156124365760008081915080905095509550612491565b858682602001510295509550612491565b600054826020015102868260200151021115612486576000548260200151028682604001510211156124855760008081915080905095509550612491565b5b858260200151955095505b50505050935093915050565b60015481565b60148054600181600116156101000203166002900480601f0160208091040260200160405190810160405280929190818152602001828054600181600116156101000203166002900480156125395780601f1061250e57610100808354040283529160200191612539565b820191906000526020600020905b81548152906001019060200180831161251c57829003601f168201915b505050505081565b600a6020528160005260406000208181548110151561255c57fe5b9060005260206000209001600091509150505481565b60008073ffffffffffffffffffffffffffffffffffffffff168373ffffffffffffffffffffffffffffffffffffffff16141515156125af57600080fd5b601060003373ffffffffffffffffffffffffffffffffffffffff1673ffffffffffffffffffffffffffffffffffffffff1681526020019081526020016000205482111515156125fd57600080fd5b61264f82601060003373ffffffffffffffffffffffffffffffffffffffff1673ffffffffffffffffffffffffffffffffffffffff1681526020019081526020016000205461370490919063ffffffff16565b601060003373ffffffffffffffffffffffffffffffffffffffff1673ffffffffffffffffffffffffffffffffffffffff168152602001908152602001600020819055506126e482601060008673ffffffffffffffffffffffffffffffffffffffff1673ffffffffffffffffffffffffffffffffffffffff1681526020019081526020016000205461371d90919063ffffffff16565b601060008573ffffffffffffffffffffffffffffffffffffffff1673ffffffffffffffffffffffffffffffffffffffff168152602001908152602001600020819055508273ffffffffffffffffffffffffffffffffffffffff163373ffffffffffffffffffffffffffffffffffffffff167fddf252ad1be2c89b69c2b068fc378daa952ba7f163c4a11628f55a4df523b3ef846040518082815260200191505060405180910390a36001905092915050565b60005481565b6000601060003373ffffffffffffffffffffffffffffffffffffffff1673ffffffffffffffffffffffffffffffffffffffff168152602001908152602001600020541115156127ea57600080fd5b6000811115156127f957600080fd5b6000601760003373ffffffffffffffffffffffffffffffffffffffff1673ffffffffffffffffffffffffffffffffffffffff1681526020019081526020016000206002015411156128e757601060003373ffffffffffffffffffffffffffffffffffffffff1673ffffffffffffffffffffffffffffffffffffffff16815260200190815260200160002054601a6000601760003373ffffffffffffffffffffffffffffffffffffffff1673ffffffffffffffffffffffffffffffffffffffff168152602001908152602001600020600201548152602001908152602001600020600082825403925050819055505b80601760003373ffffffffffffffffffffffffffffffffffffffff1673ffffffffffffffffffffffffffffffffffffffff16815260200190815260200160002060020181905550601060003373ffffffffffffffffffffffffffffffffffffffff1673ffffffffffffffffffffffffffffffffffffffff16815260200190815260200160002054601a600083815260200190815260200160002060008282540192505081905550601d54601a60008381526020019081526020016000205411156129b5578060028001819055505b50565b60008060006008600086815260200190815260200160002080549050841015156129e157600080fd5b600c600086815260200190815260200160002084815481101515612a0157fe5b906000526020600020900160009054906101000a900473ffffffffffffffffffffffffffffffffffffffff1673ffffffffffffffffffffffffffffffffffffffff163373ffffffffffffffffffffffffffffffffffffffff16141515612a6657600080fd5b600b600086815260200190815260200160002084815481101515612a8657fe5b90600052602060002090015491506009600086815260200190815260200160002084815481101515612ab457fe5b90600052602060002090015490506008600086815260200190815260200160002084815481101515612ae257fe5b90600052602060002090602091828204019190069054906101000a900460ff1615612b65573373ffffffffffffffffffffffffffffffffffffffff166108fc83600260010154600260000154038402811515612b3a57fe5b049081150290604051600060405180830381858888f193505050501515612b6057600080fd5b612bbf565b3373ffffffffffffffffffffffffffffffffffffffff166108fc83600260010154600260000154038402811515612b9857fe5b049081150290604051600060405180830381858888f193505050501515612bbe57600080fd5b5b6008600086815260200190815260200160002084815481101515612bdf57fe5b90600052602060002090602091828204019190066101000a81549060ff02191690556009600086815260200190815260200160002084815481101515612c2157fe5b906000526020600020900160009055600a600086815260200190815260200160002084815481101515612c5057fe5b906000526020600020900160009055600b600086815260200190815260200160002084815481101515612c7f57fe5b906000526020600020900160009055600c600086815260200190815260200160002084815481101515612cae57fe5b906000526020600020900160006101000a81549073ffffffffffffffffffffffffffffffffffffffff0219169055600d600086815260200190815260200160002084815481101515612cfc57fe5b90600052602060002090600202016000612d169190614959565b600e600086815260200190815260200160002084815481101515612d3657fe5b90600052602060002090600202016000612d509190614959565b6001600f86815481101515612d6157fe5b906000526020600020900160008282540192505081905550612d8285613897565b5060019250505092915050565b6000601060003373ffffffffffffffffffffffffffffffffffffffff1673ffffffffffffffffffffffffffffffffffffffff16815260200190815260200160002054111515612ddd57600080fd5b600081111515612dec57600080fd5b6000601760003373ffffffffffffffffffffffffffffffffffffffff1673ffffffffffffffffffffffffffffffffffffffff168152602001908152602001600020600001541115612eda57601060003373ffffffffffffffffffffffffffffffffffffffff1673ffffffffffffffffffffffffffffffffffffffff1681526020019081526020016000205460186000601760003373ffffffffffffffffffffffffffffffffffffffff1673ffffffffffffffffffffffffffffffffffffffff168152602001908152602001600020600001548152602001908152602001600020600082825403925050819055505b80601760003373ffffffffffffffffffffffffffffffffffffffff1673ffffffffffffffffffffffffffffffffffffffff16815260200190815260200160002060000181905550601060003373ffffffffffffffffffffffffffffffffffffffff1673ffffffffffffffffffffffffffffffffffffffff168152602001908152602001600020546018600083815260200190815260200160002060008282540192505081905550601d5460186000838152602001908152602001600020541115612fa957806002600001819055505b50565b6000601060003373ffffffffffffffffffffffffffffffffffffffff1673ffffffffffffffffffffffffffffffffffffffff16815260200190815260200160002054111515612ffa57600080fd5b60008111151561300957600080fd5b6000601760003373ffffffffffffffffffffffffffffffffffffffff1673ffffffffffffffffffffffffffffffffffffffff1681526020019081526020016000206001015411156130f757601060003373ffffffffffffffffffffffffffffffffffffffff1673ffffffffffffffffffffffffffffffffffffffff1681526020019081526020016000205460196000601760003373ffffffffffffffffffffffffffffffffffffffff1673ffffffffffffffffffffffffffffffffffffffff168152602001908152602001600020600101548152602001908152602001600020600082825403925050819055505b80601760003373ffffffffffffffffffffffffffffffffffffffff1673ffffffffffffffffffffffffffffffffffffffff16815260200190815260200160002060010181905550601060003373ffffffffffffffffffffffffffffffffffffffff1673ffffffffffffffffffffffffffffffffffffffff168152602001908152602001600020546019600083815260200190815260200160002060008282540192505081905550601d54601960008381526020019081526020016000205411156131c657806002600101819055505b50565b60028060000154908060010154908060020154908060030154908060040154908060050154905086565b60008060008060006132088a8a8a8a8a614099565b151561321357600080fd5b61321e8989896121dd565b9350935060008311151561323157600080fd5b600860008a81526020019081526020016000208881548110151561325157fe5b90600052602060002090602091828204019190069054906101000a900460ff161561328157879150869050613288565b8691508790505b6132928a84614137565b6132c783600b60008c8152602001908152602001600020848154811015156132b657fe5b90600052602060002090015461419f565b6132d48989898787614223565b6132e189898987876144cb565b6132ea89613897565b50600194505050505095945050505050565b600061338d82601260003373ffffffffffffffffffffffffffffffffffffffff1673ffffffffffffffffffffffffffffffffffffffff16815260200190815260200160002060008673ffffffffffffffffffffffffffffffffffffffff1673ffffffffffffffffffffffffffffffffffffffff1681526020019081526020016000205461371d90919063ffffffff16565b601260003373ffffffffffffffffffffffffffffffffffffffff1673ffffffffffffffffffffffffffffffffffffffff16815260200190815260200160002060008573ffffffffffffffffffffffffffffffffffffffff1673ffffffffffffffffffffffffffffffffffffffff168152602001908152602001600020819055508273ffffffffffffffffffffffffffffffffffffffff163373ffffffffffffffffffffffffffffffffffffffff167f8c5be1e5ebec7d5bd14f71427d1e84f3dd0314c0f7b2291e5b200ac8c7c3b925601260003373ffffffffffffffffffffffffffffffffffffffff1673ffffffffffffffffffffffffffffffffffffffff16815260200190815260200160002060008773ffffffffffffffffffffffffffffffffffffffff1673ffffffffffffffffffffffffffffffffffffffff168152602001908152602001600020546040518082815260200191505060405180910390a36001905092915050565b6000601260008473ffffffffffffffffffffffffffffffffffffffff1673ffffffffffffffffffffffffffffffffffffffff16815260200190815260200160002060008373ffffffffffffffffffffffffffffffffffffffff1673ffffffffffffffffffffffffffffffffffffffff16815260200190815260200160002054905092915050565b613587614967565b600c600083815260200190815260200160002080548060200260200160405190810160405280929190818152602001828054801561361a57602002820191906000526020600020905b8160009054906101000a900473ffffffffffffffffffffffffffffffffffffffff1673ffffffffffffffffffffffffffffffffffffffff16815260200190600101908083116135d0575b50505050509050919050565b60096020528160005260406000208181548110151561364157fe5b9060005260206000209001600091509150505481565b61365f6147e8565b600d6000838152602001908152602001600020805480602002602001604051908101604052809291908181526020016000905b828210156136f957838290600052602060002090600202016002806020026040519081016040528092919082600280156136e5576020028201915b815460001916815260200190600101908083116136cd575b505050505081526020019060010190613692565b505050509050919050565b600082821115151561371257fe5b818303905092915050565b600080828401905083811015151561373157fe5b8091505092915050565b600060086000858152602001908152602001600020805490508310151561376157600080fd5b60086000858152602001908152602001600020805490508210151561378557600080fd5b60086000858152602001908152602001600020828154811015156137a557fe5b90600052602060002090602091828204019190069054906101000a900460ff16151560086000868152602001908152602001600020848154811015156137e757fe5b90600052602060002090602091828204019190069054906101000a900460ff1615151415151561381657600080fd5b6000600960008681526020019081526020016000208481548110151561383857fe5b9060005260206000209001541415151561385157600080fd5b6000600960008681526020019081526020016000208381548110151561387357fe5b9060005260206000209001541415151561388c57600080fd5b600190509392505050565b6000806002800154600f848154811015156138ae57fe5b90600052602060002090015410156138c95760009150614093565b600190505b6008600084815260200190815260200160002080549050811015613e30576000600960008581526020019081526020016000208281548110151561390e57fe5b9060005260206000209001541415613e23576001600860008581526020019081526020016000208054905003811015613e2257600860008481526020019081526020016000206001820181548110151561396457fe5b90600052602060002090602091828204019190069054906101000a900460ff1660086000858152602001908152602001600020828154811015156139a457fe5b90600052602060002090602091828204019190066101000a81548160ff02191690831515021790555060096000848152602001908152602001600020600182018154811015156139f057fe5b9060005260206000209001546009600085815260200190815260200160002082815481101515613a1c57fe5b906000526020600020900181905550600a600084815260200190815260200160002060018201815481101515613a4e57fe5b906000526020600020900154600a600085815260200190815260200160002082815481101515613a7a57fe5b906000526020600020900181905550600b600084815260200190815260200160002060018201815481101515613aac57fe5b906000526020600020900154600b600085815260200190815260200160002082815481101515613ad857fe5b906000526020600020900181905550600c600084815260200190815260200160002060018201815481101515613b0a57fe5b906000526020600020900160009054906101000a900473ffffffffffffffffffffffffffffffffffffffff16600c600085815260200190815260200160002082815481101515613b5657fe5b906000526020600020900160006101000a81548173ffffffffffffffffffffffffffffffffffffffff021916908373ffffffffffffffffffffffffffffffffffffffff160217905550600d600084815260200190815260200160002060018201815481101515613bc257fe5b9060005260206000209060020201600d600085815260200190815260200160002082815481101515613bf057fe5b9060005260206000209060020201906002613c0c92919061497b565b50600e600084815260200190815260200160002060018201815481101515613c3057fe5b9060005260206000209060020201600e600085815260200190815260200160002082815481101515613c5e57fe5b9060005260206000209060020201906002613c7a92919061497b565b506008600084815260200190815260200160002060018201815481101515613c9e57fe5b90600052602060002090602091828204019190066101000a81549060ff02191690556009600084815260200190815260200160002060018201815481101515613ce357fe5b906000526020600020900160009055600a600084815260200190815260200160002060018201815481101515613d1557fe5b906000526020600020900160009055600b600084815260200190815260200160002060018201815481101515613d4757fe5b906000526020600020900160009055600c600084815260200190815260200160002060018201815481101515613d7957fe5b906000526020600020900160006101000a81549073ffffffffffffffffffffffffffffffffffffffff0219169055600d600084815260200190815260200160002060018201815481101515613dca57fe5b90600052602060002090600202016000613de49190614959565b600e600084815260200190815260200160002060018201815481101515613e0757fe5b90600052602060002090600202016000613e219190614959565b5b5b80806001019150506138ce565b600f83815481101515613e3f57fe5b9060005260206000209001546008600085815260200190815260200160002080549050036008600085815260200190815260200160002081613e8191906149b8565b50600f83815481101515613e9157fe5b9060005260206000209001546009600085815260200190815260200160002080549050036009600085815260200190815260200160002081613ed391906149f2565b50600f83815481101515613ee357fe5b906000526020600020900154600a60008581526020019081526020016000208054905003600a600085815260200190815260200160002081613f2591906149f2565b50600f83815481101515613f3557fe5b906000526020600020900154600b60008581526020019081526020016000208054905003600b600085815260200190815260200160002081613f7791906149f2565b50600f83815481101515613f8757fe5b906000526020600020900154600c60008581526020019081526020016000208054905003600c600085815260200190815260200160002081613fc99190614a1e565b50600f83815481101515613fd957fe5b906000526020600020900154600d60008581526020019081526020016000208054905003600d60008581526020019081526020016000208161401b9190614a4a565b50600f8381548110151561402b57fe5b906000526020600020900154600e60008581526020019081526020016000208054905003600e60008581526020019081526020016000208161406d9190614a4a565b506000600f8481548110151561407f57fe5b906000526020600020900181905550600191505b50919050565b60008585858585604051808673ffffffffffffffffffffffffffffffffffffffff1673ffffffffffffffffffffffffffffffffffffffff166c0100000000000000000000000002815260140185815260200184815260200183815260200182815260200195505050505050604051809103902060001916600260050154600019161015614129576000905061412e565b600190505b95945050505050565b600080546000540282600260000154600260030154020281151561415757fe5b0490508273ffffffffffffffffffffffffffffffffffffffff166108fc829081150290604051600060405180830381858888f19350505050151561419a57600080fd5b505050565b60005482600260000154028115156141b357fe5b0460016000828254039250508190555060005460005402818360026000015402028115156141dd57fe5b046001600082825403925050819055506002600401546001543073ffffffffffffffffffffffffffffffffffffffff16310310151561421f5761421e6147dc565b5b5050565b7f389a889e7f65d263df200f5a0bc042c0ba9d0c600161ff14d87cc1daa06b8e6d600c60008781526020019081526020016000208581548110151561426457fe5b906000526020600020900160009054906101000a900473ffffffffffffffffffffffffffffffffffffffff16600c6000888152602001908152602001600020858154811015156142b057fe5b906000526020600020900160009054906101000a900473ffffffffffffffffffffffffffffffffffffffff16600d6000898152602001908152602001600020878154811015156142fc57fe5b9060005260206000209060020201600d60008a81526020019081526020016000208781548110151561432a57fe5b9060005260206000209060020201600e60008b81526020019081526020016000208981548110151561435857fe5b9060005260206000209060020201600e60008c81526020019081526020016000208981548110151561438657fe5b90600052602060002090600202018888604051808973ffffffffffffffffffffffffffffffffffffffff1673ffffffffffffffffffffffffffffffffffffffff1681526020018873ffffffffffffffffffffffffffffffffffffffff1673ffffffffffffffffffffffffffffffffffffffff1681526020018760028015614426576020028201915b8154600019168152602001906001019080831161440e575b50508660028015614450576020028201915b81546000191681526020019060010190808311614438575b5050856002801561447a576020028201915b81546000191681526020019060010190808311614462575b505084600280156144a4576020028201915b8154600019168152602001906001019080831161448c575b50508381526020018281526020019850505050505050505060405180910390a15050505050565b60008060086000888152602001908152602001600020868154811015156144ee57fe5b90600052602060002090602091828204019190069054906101000a900460ff161561451e57859150849050614525565b8491508590505b82600960008981526020019081526020016000208381548110151561454657fe5b9060005260206000209001541415614582576001600f8881548110151561456957fe5b9060005260206000209001600082825401925050819055505b82600a6000898152602001908152602001600020838154811015156145a357fe5b90600052602060002090015410156145eb576000600a6000898152602001908152602001600020838154811015156145d757fe5b906000526020600020900181905550614625565b82600a60008981526020019081526020016000208381548110151561460c57fe5b9060005260206000209001600082825403925050819055505b82600960008981526020019081526020016000208381548110151561464657fe5b90600052602060002090016000828254039250508190555060005484840281151561466d57fe5b04600960008981526020019081526020016000208281548110151561468e57fe5b90600052602060002090015414156146ca576001600f888154811015156146b157fe5b9060005260206000209001600082825401925050819055505b6000548484028115156146d957fe5b04600a6000898152602001908152602001600020828154811015156146fa57fe5b9060005260206000209001541015614742576000600a60008981526020019081526020016000208281548110151561472e57fe5b90600052602060002090018190555061478b565b60005484840281151561475157fe5b04600a60008981526020019081526020016000208281548110151561477257fe5b9060005260206000209001600082825403925050819055505b60005484840281151561479a57fe5b0460096000898152602001908152602001600020828154811015156147bb57fe5b90600052602060002090016000828254039250508190555050505050505050565b6147e46147e6565b565b565b602060405190810160405280600081525090565b602060405190810160405280600081525090565b602060405190810160405280600081525090565b81548183558181151161485957601f016020900481601f016020900483600052602060002091820191016148589190614a7c565b5b505050565b815481835581811511614885578183600052602060002091820191016148849190614a7c565b5b505050565b8154818355818115116148b1578183600052602060002091820191016148b09190614a7c565b5b505050565b8154818355818115116148e3576002028160020283600052602060002091820191016148e29190614aa1565b5b505050565b826002810192821561491d579160200282015b8281111561491c5782518290600019169055916020019190600101906148fb565b5b50905061492a9190614acd565b5090565b6080604051908101604052806000151581526020016000815260200160008152602001600081525090565b506000815560010160009055565b602060405190810160405280600081525090565b82600281019282156149a7579182015b828111156149a657825482559160010191906001019061498b565b5b5090506149b49190614acd565b5090565b8154818355818115116149ed57601f016020900481601f016020900483600052602060002091820191016149ec9190614a7c565b5b505050565b815481835581811511614a1957818360005260206000209182019101614a189190614a7c565b5b505050565b815481835581811511614a4557818360005260206000209182019101614a449190614a7c565b5b505050565b815481835581811511614a7757600202816002028360005260206000209182019101614a769190614aa1565b5b505050565b614a9e91905b80821115614a9a576000816000905550600101614a82565b5090565b90565b614aca91905b80821115614ac65760008181614abd9190614959565b50600201614aa7565b5090565b90565b614aef91905b80821115614aeb576000816000905550600101614ad3565b5090565b90565b856002600001819055508460026001018190555083600280018190555082600260030181905550816002600401819055508060026005018160001916905550505050505050565b600860008081526020019081526020016000208054806001018281614b5e9190614824565b91600052602060002090602091828204019190066000909190916101000a81548160ff02191690831515021790555050600960008081526020019081526020016000208054806001018281614bb3919061485e565b916000526020600020900160008090919091505550600a60008081526020019081526020016000208054806001018281614bed919061485e565b916000526020600020900160008090919091505550600b60008081526020019081526020016000208054806001018281614c27919061485e565b916000526020600020900160008090919091505550600c60008081526020019081526020016000208054806001018281614c61919061488a565b9160005260206000209001600080909190916101000a81548173ffffffffffffffffffffffffffffffffffffffff021916908373ffffffffffffffffffffffffffffffffffffffff16021790555050600d60008081526020019081526020016000208054806001018281614cd591906148b6565b916000526020600020906002020160006040805190810160405280600060010260001916600019168152602001600060010260001916600019168152509091909150906002614d259291906148e8565b5050600e60008081526020019081526020016000208054806001018281614d4c91906148b6565b916000526020600020906002020160006040805190810160405280600060010260001916600019168152602001600060010260001916600019168152509091909150906002614d9c9291906148e8565b50505600a165627a7a723058204e75430db8a76cf75e699350910878eb8bc84f3685f322352ff578dc68254c460029",
  "source": "pragma solidity ^0.4.18;\n\nimport 'zeppelin-solidity/contracts/token/ERC20/MintableToken.sol';\nimport 'zeppelin-solidity/contracts/math/SafeMath.sol';\nimport './Exchange.sol';\n\n\n/// @title ValexToken\n/// @author Karim Helmy\n\n// Parts sourced from https://github.com/bokkypoobah/Tokens/blob/master/contracts/FixedSupplyToken.sol\n\n// ----------------------------------------------------------------------------\n// 'VLX' 'Valex Token' token contract\n//\n// Symbol      : VLX\n// Name        : Valex Token\n// Total supply: 1,000,000.000000000000000000\n// Decimals    : 18\n//\n// ----------------------------------------------------------------------------\n\ncontract ValexToken is Exchange, StandardToken {\n    using SafeMath for uint;\n\n    string public name = \"Valex Token\";\n    string public symbol = \"VLX\";\n    uint8 public decimals = 18;\n\n    uint256 public initialSupply = 10000 * (10 ** uint256(decimals));\n\n    // Voting mappings\n    // Holds what every address has voted for\n    mapping (address => Parameters) voteBook;\n    // Hold frequencies of what addresses have voted for (in coin-votes)\n    mapping (uint => uint) closureFeeFreqs;\n    mapping (uint => uint) cancelFeeFreqs;\n    mapping (uint => uint) cleanSizeFreqs;\n    mapping (uint => uint) minerShareFreqs;\n    mapping (uint => uint) distBalanceFreqs;\n\n    // Threshold to be met for each parameter adjustment\n    uint256 public threshold = (initialSupply / 100) * 51;\n\n    // TODO: reset votes when tokens are transferred\n\n    /**\n     * @dev Constructor that gives msg.sender all of existing tokens.\n     * @dev Initializes token to have same parameters as exchange\n     */\n    function ValexToken(uint closureFee, uint cancelFee,\n                      uint cleanSize, uint minershare, uint distBalance,\n                      bytes32 difficulty)\n      Exchange(closureFee, cancelFee,\n              cleanSize, minershare, distBalance, difficulty)\n      public\n    {\n      totalSupply_ = initialSupply;\n      balances[msg.sender] = initialSupply;\n    }\n\n    // Distributes dividends when balance is of sufficient size\n    function distDividends()\n      internal\n    {\n      //TODO: Implement distribution\n      Exchange.distDividends();\n    }\n\n    // Voting functions for various parameters\n    // Solidity doesn't allow any meaningful abstraction\n    // Adjust relevant parameter if threshold met\n\n    // voting copy3\n    function voteClosureFee(uint desiredParam)\n      public\n    {\n      require(balances[msg.sender] > 0);\n      require(desiredParam > 0);\n      if (voteBook[msg.sender].closureFee > 0){\n        closureFeeFreqs[voteBook[msg.sender].closureFee] -= balances[msg.sender];\n      }\n      voteBook[msg.sender].closureFee = desiredParam;\n      closureFeeFreqs[desiredParam] += balances[msg.sender];\n      if (closureFeeFreqs[desiredParam] > threshold){\n        params.closureFee = desiredParam;\n      }\n    }\n\n    // voting copy3\n    function voteCancelFee(uint desiredParam)\n      public\n    {\n      require(balances[msg.sender] > 0);\n      require(desiredParam > 0);\n      if (voteBook[msg.sender].cancelFee > 0){\n        cancelFeeFreqs[voteBook[msg.sender].cancelFee] -= balances[msg.sender];\n      }\n      voteBook[msg.sender].cancelFee = desiredParam;\n      cancelFeeFreqs[desiredParam] += balances[msg.sender];\n      if (cancelFeeFreqs[desiredParam] > threshold){\n        params.cancelFee = desiredParam;\n      }\n    }\n\n    // voting copy3\n    function voteCleanSize(uint desiredParam)\n      public\n    {\n      require(balances[msg.sender] > 0);\n      require(desiredParam > 0);\n      if (voteBook[msg.sender].cleanSize > 0){\n        cleanSizeFreqs[voteBook[msg.sender].cleanSize] -= balances[msg.sender];\n      }\n      voteBook[msg.sender].cleanSize = desiredParam;\n      cleanSizeFreqs[desiredParam] += balances[msg.sender];\n      if (cleanSizeFreqs[desiredParam] > threshold){\n        params.cleanSize = desiredParam;\n      }\n    }\n\n    // voting copy3\n    function voteMinerShare(uint desiredParam)\n      public\n    {\n      require(balances[msg.sender] > 0);\n      require(desiredParam > 0);\n      if (voteBook[msg.sender].minerShare > 0){\n        minerShareFreqs[voteBook[msg.sender].minerShare] -= balances[msg.sender];\n      }\n      voteBook[msg.sender].minerShare = desiredParam;\n      minerShareFreqs[desiredParam] += balances[msg.sender];\n      if (minerShareFreqs[desiredParam] > threshold){\n        params.minerShare = desiredParam;\n      }\n    }\n\n    // voting copy3\n    function voteDistBalance(uint desiredParam)\n      public\n    {\n      require(balances[msg.sender] > 0);\n      require(desiredParam > 0);\n      if (voteBook[msg.sender].distBalance > 0){\n        distBalanceFreqs[voteBook[msg.sender].distBalance] -= balances[msg.sender];\n      }\n      voteBook[msg.sender].distBalance = desiredParam;\n      distBalanceFreqs[desiredParam] += balances[msg.sender];\n      if (distBalanceFreqs[desiredParam] > threshold){\n        params.distBalance = desiredParam;\n      }\n    }\n\n    // TODO: Implement adding/removing chapters\n\n    // TODO: NEXT VERSION: Add vote transferring\n\n}\n",
  "sourcePath": "/Users/Karim/Desktop/Valex/contracts/ValexToken.sol",
  "compiler": {
    "name": "solc",
    "version": "0.4.18+commit.9cf6e910.Emscripten.clang"
  },
  "schemaVersion": "1.0.1",
  "updatedAt": "2018-03-26T16:17:28.824Z"
}