{
  "contractName": "ValexToken",
  "abi": [
    {
      "constant": true,
      "inputs": [],
      "name": "name",
      "outputs": [
        {
          "name": "",
          "type": "string"
        }
      ],
      "payable": false,
      "stateMutability": "view",
      "type": "function"
    },
    {
      "constant": false,
      "inputs": [
        {
          "name": "_spender",
          "type": "address"
        },
        {
          "name": "_value",
          "type": "uint256"
        }
      ],
      "name": "approve",
      "outputs": [
        {
          "name": "",
          "type": "bool"
        }
      ],
      "payable": false,
      "stateMutability": "nonpayable",
      "type": "function"
    },
    {
      "constant": true,
      "inputs": [
        {
          "name": "",
          "type": "uint256"
        },
        {
          "name": "",
          "type": "uint256"
        }
      ],
      "name": "orderBook",
      "outputs": [
        {
          "name": "buyETH",
          "type": "bool"
        },
        {
          "name": "volume",
          "type": "uint256"
        },
        {
          "name": "minVolume",
          "type": "uint256"
        },
        {
          "name": "limit",
          "type": "uint256"
        }
      ],
      "payable": false,
      "stateMutability": "view",
      "type": "function"
    },
    {
      "constant": true,
      "inputs": [],
      "name": "totalSupply",
      "outputs": [
        {
          "name": "",
          "type": "uint256"
        }
      ],
      "payable": false,
      "stateMutability": "view",
      "type": "function"
    },
    {
      "constant": false,
      "inputs": [
        {
          "name": "_from",
          "type": "address"
        },
        {
          "name": "_to",
          "type": "address"
        },
        {
          "name": "_value",
          "type": "uint256"
        }
      ],
      "name": "transferFrom",
      "outputs": [
        {
          "name": "",
          "type": "bool"
        }
      ],
      "payable": false,
      "stateMutability": "nonpayable",
      "type": "function"
    },
    {
      "constant": true,
      "inputs": [],
      "name": "decimals",
      "outputs": [
        {
          "name": "",
          "type": "uint8"
        }
      ],
      "payable": false,
      "stateMutability": "view",
      "type": "function"
    },
    {
      "constant": true,
      "inputs": [],
      "name": "initialSupply",
      "outputs": [
        {
          "name": "",
          "type": "uint256"
        }
      ],
      "payable": false,
      "stateMutability": "view",
      "type": "function"
    },
    {
      "constant": false,
      "inputs": [
        {
          "name": "buyETH",
          "type": "bool"
        },
        {
          "name": "volume",
          "type": "uint256"
        },
        {
          "name": "minVolume",
          "type": "uint256"
        },
        {
          "name": "limit",
          "type": "uint256"
        },
        {
          "name": "ethAddress",
          "type": "address"
        },
        {
          "name": "firstAddress",
          "type": "string"
        },
        {
          "name": "otherAddress",
          "type": "string"
        },
        {
          "name": "chapter",
          "type": "uint256"
        }
      ],
      "name": "placeOrder",
      "outputs": [
        {
          "name": "accepted",
          "type": "bool"
        }
      ],
      "payable": true,
      "stateMutability": "payable",
      "type": "function"
    },
    {
      "constant": false,
      "inputs": [
        {
          "name": "_spender",
          "type": "address"
        },
        {
          "name": "_subtractedValue",
          "type": "uint256"
        }
      ],
      "name": "decreaseApproval",
      "outputs": [
        {
          "name": "",
          "type": "bool"
        }
      ],
      "payable": false,
      "stateMutability": "nonpayable",
      "type": "function"
    },
    {
      "constant": false,
      "inputs": [
        {
          "name": "desiredParam",
          "type": "uint256"
        }
      ],
      "name": "voteMinerShare",
      "outputs": [],
      "payable": false,
      "stateMutability": "nonpayable",
      "type": "function"
    },
    {
      "constant": true,
      "inputs": [
        {
          "name": "_owner",
          "type": "address"
        }
      ],
      "name": "balanceOf",
      "outputs": [
        {
          "name": "balance",
          "type": "uint256"
        }
      ],
      "payable": false,
      "stateMutability": "view",
      "type": "function"
    },
    {
      "constant": true,
      "inputs": [],
      "name": "exBalances",
      "outputs": [
        {
          "name": "openBalance",
          "type": "uint256"
        },
        {
          "name": "closedBalance",
          "type": "uint256"
        }
      ],
      "payable": false,
      "stateMutability": "view",
      "type": "function"
    },
    {
      "constant": false,
      "inputs": [
        {
          "name": "desiredParam",
          "type": "uint256"
        }
      ],
      "name": "voteDistBalance",
      "outputs": [],
      "payable": false,
      "stateMutability": "nonpayable",
      "type": "function"
    },
    {
      "constant": true,
      "inputs": [],
      "name": "symbol",
      "outputs": [
        {
          "name": "",
          "type": "string"
        }
      ],
      "payable": false,
      "stateMutability": "view",
      "type": "function"
    },
    {
      "constant": false,
      "inputs": [
        {
          "name": "_to",
          "type": "address"
        },
        {
          "name": "_value",
          "type": "uint256"
        }
      ],
      "name": "transfer",
      "outputs": [
        {
          "name": "",
          "type": "bool"
        }
      ],
      "payable": false,
      "stateMutability": "nonpayable",
      "type": "function"
    },
    {
      "constant": false,
      "inputs": [
        {
          "name": "desiredParam",
          "type": "uint256"
        }
      ],
      "name": "voteCleanSize",
      "outputs": [],
      "payable": false,
      "stateMutability": "nonpayable",
      "type": "function"
    },
    {
      "constant": false,
      "inputs": [
        {
          "name": "chapter",
          "type": "uint256"
        },
        {
          "name": "index",
          "type": "uint256"
        }
      ],
      "name": "cancelOrder",
      "outputs": [
        {
          "name": "accepted",
          "type": "bool"
        }
      ],
      "payable": false,
      "stateMutability": "nonpayable",
      "type": "function"
    },
    {
      "constant": false,
      "inputs": [
        {
          "name": "desiredParam",
          "type": "uint256"
        }
      ],
      "name": "voteClosureFee",
      "outputs": [],
      "payable": false,
      "stateMutability": "nonpayable",
      "type": "function"
    },
    {
      "constant": false,
      "inputs": [
        {
          "name": "desiredParam",
          "type": "uint256"
        }
      ],
      "name": "voteCancelFee",
      "outputs": [],
      "payable": false,
      "stateMutability": "nonpayable",
      "type": "function"
    },
    {
      "constant": true,
      "inputs": [],
      "name": "thresholds",
      "outputs": [
        {
          "name": "closureFeePerUnit",
          "type": "uint256"
        },
        {
          "name": "cancelFeePerUnit",
          "type": "uint256"
        },
        {
          "name": "cleanSize",
          "type": "uint256"
        },
        {
          "name": "minerShare",
          "type": "uint256"
        },
        {
          "name": "distBalance",
          "type": "uint256"
        },
        {
          "name": "difficulty",
          "type": "bytes32"
        }
      ],
      "payable": false,
      "stateMutability": "view",
      "type": "function"
    },
    {
      "constant": true,
      "inputs": [],
      "name": "params",
      "outputs": [
        {
          "name": "closureFeePerUnit",
          "type": "uint256"
        },
        {
          "name": "cancelFeePerUnit",
          "type": "uint256"
        },
        {
          "name": "cleanSize",
          "type": "uint256"
        },
        {
          "name": "minerShare",
          "type": "uint256"
        },
        {
          "name": "distBalance",
          "type": "uint256"
        },
        {
          "name": "difficulty",
          "type": "bytes32"
        }
      ],
      "payable": false,
      "stateMutability": "view",
      "type": "function"
    },
    {
      "constant": false,
      "inputs": [
        {
          "name": "depositAddress",
          "type": "address"
        },
        {
          "name": "chapter",
          "type": "uint256"
        },
        {
          "name": "index1",
          "type": "uint256"
        },
        {
          "name": "index2",
          "type": "uint256"
        },
        {
          "name": "nonce",
          "type": "uint256"
        }
      ],
      "name": "giveMatch",
      "outputs": [
        {
          "name": "isValid",
          "type": "bool"
        }
      ],
      "payable": true,
      "stateMutability": "payable",
      "type": "function"
    },
    {
      "constant": false,
      "inputs": [
        {
          "name": "_spender",
          "type": "address"
        },
        {
          "name": "_addedValue",
          "type": "uint256"
        }
      ],
      "name": "increaseApproval",
      "outputs": [
        {
          "name": "",
          "type": "bool"
        }
      ],
      "payable": false,
      "stateMutability": "nonpayable",
      "type": "function"
    },
    {
      "constant": true,
      "inputs": [
        {
          "name": "",
          "type": "uint256"
        },
        {
          "name": "",
          "type": "uint256"
        }
      ],
      "name": "addressBook",
      "outputs": [
        {
          "name": "ethAddress",
          "type": "address"
        },
        {
          "name": "firstAddress",
          "type": "string"
        },
        {
          "name": "otherAddress",
          "type": "string"
        }
      ],
      "payable": false,
      "stateMutability": "view",
      "type": "function"
    },
    {
      "constant": true,
      "inputs": [
        {
          "name": "_owner",
          "type": "address"
        },
        {
          "name": "_spender",
          "type": "address"
        }
      ],
      "name": "allowance",
      "outputs": [
        {
          "name": "",
          "type": "uint256"
        }
      ],
      "payable": false,
      "stateMutability": "view",
      "type": "function"
    },
    {
      "inputs": [
        {
          "name": "closureFeePerUnit",
          "type": "uint256"
        },
        {
          "name": "cancelFeePerUnit",
          "type": "uint256"
        },
        {
          "name": "cleanSize",
          "type": "uint256"
        },
        {
          "name": "minershare",
          "type": "uint256"
        },
        {
          "name": "distBalance",
          "type": "uint256"
        },
        {
          "name": "difficulty",
          "type": "bytes32"
        }
      ],
      "payable": false,
      "stateMutability": "nonpayable",
      "type": "constructor"
    },
    {
      "anonymous": false,
      "inputs": [
        {
          "indexed": true,
          "name": "owner",
          "type": "address"
        },
        {
          "indexed": true,
          "name": "spender",
          "type": "address"
        },
        {
          "indexed": false,
          "name": "value",
          "type": "uint256"
        }
      ],
      "name": "Approval",
      "type": "event"
    },
    {
      "anonymous": false,
      "inputs": [
        {
          "indexed": true,
          "name": "from",
          "type": "address"
        },
        {
          "indexed": true,
          "name": "to",
          "type": "address"
        },
        {
          "indexed": false,
          "name": "value",
          "type": "uint256"
        }
      ],
      "name": "Transfer",
      "type": "event"
    },
    {
      "anonymous": false,
      "inputs": [
        {
          "indexed": false,
          "name": "ethAddress1",
          "type": "address"
        },
        {
          "indexed": false,
          "name": "ethAddress2",
          "type": "address"
        },
        {
          "indexed": false,
          "name": "firstAddress1",
          "type": "string"
        },
        {
          "indexed": false,
          "name": "firstAddress2",
          "type": "string"
        },
        {
          "indexed": false,
          "name": "otherAddress1",
          "type": "string"
        },
        {
          "indexed": false,
          "name": "otherAddress2",
          "type": "string"
        },
        {
          "indexed": false,
          "name": "mimRate",
          "type": "uint256"
        },
        {
          "indexed": false,
          "name": "ethVol",
          "type": "uint256"
        }
      ],
      "name": "TradeInfo",
      "type": "event"
    }
  ],
  "bytecode": "0x60606040526040805190810160405280600b81526020017f56616c657820546f6b656e000000000000000000000000000000000000000000815250600e90805190602001906200005192919062000410565b506040805190810160405280600381526020017f564c580000000000000000000000000000000000000000000000000000000000815250600f90805190602001906200009f92919062000410565b506012601060006101000a81548160ff021916908360ff160217905550601060009054906101000a900460ff1660ff16600a0a612710026011553415620000e557600080fd5b60405160c080620044a58339810160405280805190602001909190805190602001909190805190602001909190805190602001909190805190602001909190805190602001909190505085858585858562000159868686868686620002046401000000000262003b7f176401000000009004565b620001776200024b6401000000000262003bc6176401000000009004565b50600a80548060010182816200018e919062000497565b916000526020600020900160008090919091505550505050505050601154600c81905550601154600b60003373ffffffffffffffffffffffffffffffffffffffff1673ffffffffffffffffffffffffffffffffffffffff16815260200190815260200160002081905550505050505050620006e6565b856000800181905550846000600101819055508360006002018190555082600060030181905550816000600401819055508060006005018160001916905550505050505050565b6000600860008081526020019081526020016000208054806001018281620002749190620004c6565b9160005260206000209060040201600060806040519081016040528060001515815260200160008152602001600081526020016000815250909190915060008201518160000160006101000a81548160ff021916908315150217905550602082015181600101556040820151816002015560608201518160030155505050600960008081526020019081526020016000208054806001018281620003199190620004fb565b91600052602060002090600302016000606060405190810160405280600073ffffffffffffffffffffffffffffffffffffffff168152602001602060405190810160405280600081525081526020016020604051908101604052806000815250815250909190915060008201518160000160006101000a81548173ffffffffffffffffffffffffffffffffffffffff021916908373ffffffffffffffffffffffffffffffffffffffff1602179055506020820151816001019080519060200190620003e692919062000530565b5060408201518160020190805190602001906200040592919062000530565b505050506001905090565b828054600181600116156101000203166002900490600052602060002090601f016020900481019282601f106200045357805160ff191683800117855562000484565b8280016001018555821562000484579182015b828111156200048357825182559160200191906001019062000466565b5b509050620004939190620005b7565b5090565b815481835581811511620004c157818360005260206000209182019101620004c09190620005b7565b5b505050565b815481835581811511620004f657600402816004028360005260206000209182019101620004f59190620005df565b5b505050565b8154818355818115116200052b576003028160030283600052602060002091820191016200052a91906200062d565b5b505050565b828054600181600116156101000203166002900490600052602060002090601f016020900481019282601f106200057357805160ff1916838001178555620005a4565b82800160010185558215620005a4579182015b82811115620005a357825182559160200191906001019062000586565b5b509050620005b39190620005b7565b5090565b620005dc91905b80821115620005d8576000816000905550600101620005be565b5090565b90565b6200062a91905b808211156200062657600080820160006101000a81549060ff021916905560018201600090556002820160009055600382016000905550600401620005e6565b5090565b90565b6200069791905b808211156200069357600080820160006101000a81549073ffffffffffffffffffffffffffffffffffffffff02191690556001820160006200067791906200069a565b6002820160006200068991906200069a565b5060030162000634565b5090565b90565b50805460018160011615610100020316600290046000825580601f10620006c25750620006e3565b601f016020900490600052602060002090810190620006e29190620005b7565b5b50565b613daf80620006f66000396000f300606060405260043610610149576000357c0100000000000000000000000000000000000000000000000000000000900463ffffffff16806306fdde031461014e578063095ea7b3146101dc57806314974f461461023657806318160ddd1461028f57806323b872dd146102b8578063313ce56714610331578063378dc3dc146103605780634aed275c14610389578063661884631461048457806369f99f80146104de57806370a0823114610501578063737f02af1461054e5780637db23c051461057e57806395d89b41146105a1578063a9059cbb1461062f578063af87439e14610689578063b6ed0632146106ac578063c932aa7b146106f0578063ca7f74ea14610713578063cda43b3a14610736578063cff0ab961461078a578063d2426ab9146107de578063d73dd62314610848578063da92b7c1146108a2578063dd62ed3e14610a20575b600080fd5b341561015957600080fd5b610161610a8c565b6040518080602001828103825283818151815260200191508051906020019080838360005b838110156101a1578082015181840152602081019050610186565b50505050905090810190601f1680156101ce5780820380516001836020036101000a031916815260200191505b509250505060405180910390f35b34156101e757600080fd5b61021c600480803573ffffffffffffffffffffffffffffffffffffffff16906020019091908035906020019091905050610b2a565b604051808215151515815260200191505060405180910390f35b341561024157600080fd5b6102606004808035906020019091908035906020019091905050610c1c565b604051808515151515815260200184815260200183815260200182815260200194505050505060405180910390f35b341561029a57600080fd5b6102a2610c75565b6040518082815260200191505060405180910390f35b34156102c357600080fd5b610317600480803573ffffffffffffffffffffffffffffffffffffffff1690602001909190803573ffffffffffffffffffffffffffffffffffffffff16906020019091908035906020019091905050610c7f565b604051808215151515815260200191505060405180910390f35b341561033c57600080fd5b61034461103e565b604051808260ff1660ff16815260200191505060405180910390f35b341561036b57600080fd5b610373611051565b6040518082815260200191505060405180910390f35b61046a6004808035151590602001909190803590602001909190803590602001909190803590602001909190803573ffffffffffffffffffffffffffffffffffffffff1690602001909190803590602001908201803590602001908080601f0160208091040260200160405190810160405280939291908181526020018383808284378201915050505050509190803590602001908201803590602001908080601f01602080910402602001604051908101604052809392919081815260200183838082843782019150505050505091908035906020019091905050611057565b604051808215151515815260200191505060405180910390f35b341561048f57600080fd5b6104c4600480803573ffffffffffffffffffffffffffffffffffffffff16906020019091908035906020019091905050611290565b604051808215151515815260200191505060405180910390f35b34156104e957600080fd5b6104ff6004808035906020019091905050611521565b005b341561050c57600080fd5b610538600480803573ffffffffffffffffffffffffffffffffffffffff16906020019091905050611741565b6040518082815260200191505060405180910390f35b341561055957600080fd5b61056161178a565b604051808381526020018281526020019250505060405180910390f35b341561058957600080fd5b61059f600480803590602001909190505061179c565b005b34156105ac57600080fd5b6105b46119bc565b6040518080602001828103825283818151815260200191508051906020019080838360005b838110156105f45780820151818401526020810190506105d9565b50505050905090810190601f1680156106215780820380516001836020036101000a031916815260200191505b509250505060405180910390f35b341561063a57600080fd5b61066f600480803573ffffffffffffffffffffffffffffffffffffffff16906020019091908035906020019091905050611a5a565b604051808215151515815260200191505060405180910390f35b341561069457600080fd5b6106aa6004808035906020019091905050611c7e565b005b34156106b757600080fd5b6106d66004808035906020019091908035906020019091905050611e9e565b604051808215151515815260200191505060405180910390f35b34156106fb57600080fd5b61071160048080359060200190919050506121c8565b005b341561071e57600080fd5b61073460048080359060200190919050506123e7565b005b341561074157600080fd5b610749612607565b604051808781526020018681526020018581526020018481526020018381526020018260001916600019168152602001965050505050505060405180910390f35b341561079557600080fd5b61079d612631565b604051808781526020018681526020018581526020018481526020018381526020018260001916600019168152602001965050505050505060405180910390f35b61082e600480803573ffffffffffffffffffffffffffffffffffffffff1690602001909190803590602001909190803590602001909190803590602001909190803590602001909190505061265b565b604051808215151515815260200191505060405180910390f35b341561085357600080fd5b610888600480803573ffffffffffffffffffffffffffffffffffffffff16906020019091908035906020019091905050612740565b604051808215151515815260200191505060405180910390f35b34156108ad57600080fd5b6108cc600480803590602001909190803590602001909190505061293c565b604051808473ffffffffffffffffffffffffffffffffffffffff1673ffffffffffffffffffffffffffffffffffffffff168152602001806020018060200183810383528581815460018160011615610100020316600290048152602001915080546001816001161561010002031660029004801561098b5780601f106109605761010080835404028352916020019161098b565b820191906000526020600020905b81548152906001019060200180831161096e57829003601f168201915b5050838103825284818154600181600116156101000203166002900481526020019150805460018160011615610100020316600290048015610a0e5780601f106109e357610100808354040283529160200191610a0e565b820191906000526020600020905b8154815290600101906020018083116109f157829003601f168201915b50509550505050505060405180910390f35b3415610a2b57600080fd5b610a76600480803573ffffffffffffffffffffffffffffffffffffffff1690602001909190803573ffffffffffffffffffffffffffffffffffffffff169060200190919050506129a0565b6040518082815260200191505060405180910390f35b600e8054600181600116156101000203166002900480601f016020809104026020016040519081016040528092919081815260200182805460018160011615610100020316600290048015610b225780601f10610af757610100808354040283529160200191610b22565b820191906000526020600020905b815481529060010190602001808311610b0557829003601f168201915b505050505081565b600081600d60003373ffffffffffffffffffffffffffffffffffffffff1673ffffffffffffffffffffffffffffffffffffffff16815260200190815260200160002060008573ffffffffffffffffffffffffffffffffffffffff1673ffffffffffffffffffffffffffffffffffffffff168152602001908152602001600020819055508273ffffffffffffffffffffffffffffffffffffffff163373ffffffffffffffffffffffffffffffffffffffff167f8c5be1e5ebec7d5bd14f71427d1e84f3dd0314c0f7b2291e5b200ac8c7c3b925846040518082815260200191505060405180910390a36001905092915050565b600860205281600052604060002081815481101515610c3757fe5b9060005260206000209060040201600091509150508060000160009054906101000a900460ff16908060010154908060020154908060030154905084565b6000600c54905090565b60008073ffffffffffffffffffffffffffffffffffffffff168373ffffffffffffffffffffffffffffffffffffffff1614151515610cbc57600080fd5b600b60008573ffffffffffffffffffffffffffffffffffffffff1673ffffffffffffffffffffffffffffffffffffffff168152602001908152602001600020548211151515610d0a57600080fd5b600d60008573ffffffffffffffffffffffffffffffffffffffff1673ffffffffffffffffffffffffffffffffffffffff16815260200190815260200160002060003373ffffffffffffffffffffffffffffffffffffffff1673ffffffffffffffffffffffffffffffffffffffff168152602001908152602001600020548211151515610d9557600080fd5b610de782600b60008773ffffffffffffffffffffffffffffffffffffffff1673ffffffffffffffffffffffffffffffffffffffff16815260200190815260200160002054612a2790919063ffffffff16565b600b60008673ffffffffffffffffffffffffffffffffffffffff1673ffffffffffffffffffffffffffffffffffffffff16815260200190815260200160002081905550610e7c82600b60008673ffffffffffffffffffffffffffffffffffffffff1673ffffffffffffffffffffffffffffffffffffffff16815260200190815260200160002054612a4090919063ffffffff16565b600b60008573ffffffffffffffffffffffffffffffffffffffff1673ffffffffffffffffffffffffffffffffffffffff16815260200190815260200160002081905550610f4e82600d60008773ffffffffffffffffffffffffffffffffffffffff1673ffffffffffffffffffffffffffffffffffffffff16815260200190815260200160002060003373ffffffffffffffffffffffffffffffffffffffff1673ffffffffffffffffffffffffffffffffffffffff16815260200190815260200160002054612a2790919063ffffffff16565b600d60008673ffffffffffffffffffffffffffffffffffffffff1673ffffffffffffffffffffffffffffffffffffffff16815260200190815260200160002060003373ffffffffffffffffffffffffffffffffffffffff1673ffffffffffffffffffffffffffffffffffffffff168152602001908152602001600020819055508273ffffffffffffffffffffffffffffffffffffffff168473ffffffffffffffffffffffffffffffffffffffff167fddf252ad1be2c89b69c2b068fc378daa952ba7f163c4a11628f55a4df523b3ef846040518082815260200191505060405180910390a3600190509392505050565b601060009054906101000a900460ff1681565b60115481565b6000808811151561106757600080fd5b60008711151561107657600080fd5b86881015151561108557600080fd5b60008611151561109457600080fd5b88156110b65760008001548802348702101515156110b157600080fd5b6110cc565b6000800154880234101515156110cb57600080fd5b5b600060086000848152602001908152602001600020805490501115156110f157600080fd5b6008600083815260200190815260200160002080548060010182816111169190613920565b916000526020600020906004020160006080604051908101604052808d151581526020018c81526020018b81526020018a815250909190915060008201518160000160006101000a81548160ff0219169083151502179055506020820151816001015560408201518160020155606082015181600301555050506009600083815260200190815260200160002080548060010182816111b59190613952565b916000526020600020906003020160006060604051908101604052808973ffffffffffffffffffffffffffffffffffffffff16815260200188815260200187815250909190915060008201518160000160006101000a81548173ffffffffffffffffffffffffffffffffffffffff021916908373ffffffffffffffffffffffffffffffffffffffff160217905550602082015181600101908051906020019061125f929190613984565b50604082015181600201908051906020019061127c929190613984565b505050506001905098975050505050505050565b600080600d60003373ffffffffffffffffffffffffffffffffffffffff1673ffffffffffffffffffffffffffffffffffffffff16815260200190815260200160002060008573ffffffffffffffffffffffffffffffffffffffff1673ffffffffffffffffffffffffffffffffffffffff168152602001908152602001600020549050808311156113a1576000600d60003373ffffffffffffffffffffffffffffffffffffffff1673ffffffffffffffffffffffffffffffffffffffff16815260200190815260200160002060008673ffffffffffffffffffffffffffffffffffffffff1673ffffffffffffffffffffffffffffffffffffffff16815260200190815260200160002081905550611435565b6113b48382612a2790919063ffffffff16565b600d60003373ffffffffffffffffffffffffffffffffffffffff1673ffffffffffffffffffffffffffffffffffffffff16815260200190815260200160002060008673ffffffffffffffffffffffffffffffffffffffff1673ffffffffffffffffffffffffffffffffffffffff168152602001908152602001600020819055505b8373ffffffffffffffffffffffffffffffffffffffff163373ffffffffffffffffffffffffffffffffffffffff167f8c5be1e5ebec7d5bd14f71427d1e84f3dd0314c0f7b2291e5b200ac8c7c3b925600d60003373ffffffffffffffffffffffffffffffffffffffff1673ffffffffffffffffffffffffffffffffffffffff16815260200190815260200160002060008873ffffffffffffffffffffffffffffffffffffffff1673ffffffffffffffffffffffffffffffffffffffff168152602001908152602001600020546040518082815260200191505060405180910390a3600191505092915050565b6000600b60003373ffffffffffffffffffffffffffffffffffffffff1673ffffffffffffffffffffffffffffffffffffffff1681526020019081526020016000205411151561156f57600080fd5b60008111151561157e57600080fd5b6000601260003373ffffffffffffffffffffffffffffffffffffffff1673ffffffffffffffffffffffffffffffffffffffff16815260200190815260200160002060030154111561166c57600b60003373ffffffffffffffffffffffffffffffffffffffff1673ffffffffffffffffffffffffffffffffffffffff1681526020019081526020016000205460166000601260003373ffffffffffffffffffffffffffffffffffffffff1673ffffffffffffffffffffffffffffffffffffffff168152602001908152602001600020600301548152602001908152602001600020600082825403925050819055505b80601260003373ffffffffffffffffffffffffffffffffffffffff1673ffffffffffffffffffffffffffffffffffffffff16815260200190815260200160002060030181905550600b60003373ffffffffffffffffffffffffffffffffffffffff1673ffffffffffffffffffffffffffffffffffffffff1681526020019081526020016000205460166000838152602001908152602001600020600082825401925050819055506018600301546016600083815260200190815260200160002054111561173e57806000600301819055505b50565b6000600b60008373ffffffffffffffffffffffffffffffffffffffff1673ffffffffffffffffffffffffffffffffffffffff168152602001908152602001600020549050919050565b60068060000154908060010154905082565b6000600b60003373ffffffffffffffffffffffffffffffffffffffff1673ffffffffffffffffffffffffffffffffffffffff168152602001908152602001600020541115156117ea57600080fd5b6000811115156117f957600080fd5b6000601260003373ffffffffffffffffffffffffffffffffffffffff1673ffffffffffffffffffffffffffffffffffffffff1681526020019081526020016000206004015411156118e757600b60003373ffffffffffffffffffffffffffffffffffffffff1673ffffffffffffffffffffffffffffffffffffffff1681526020019081526020016000205460176000601260003373ffffffffffffffffffffffffffffffffffffffff1673ffffffffffffffffffffffffffffffffffffffff168152602001908152602001600020600401548152602001908152602001600020600082825403925050819055505b80601260003373ffffffffffffffffffffffffffffffffffffffff1673ffffffffffffffffffffffffffffffffffffffff16815260200190815260200160002060040181905550600b60003373ffffffffffffffffffffffffffffffffffffffff1673ffffffffffffffffffffffffffffffffffffffff168152602001908152602001600020546017600083815260200190815260200160002060008282540192505081905550601860040154601760008381526020019081526020016000205411156119b957806000600401819055505b50565b600f8054600181600116156101000203166002900480601f016020809104026020016040519081016040528092919081815260200182805460018160011615610100020316600290048015611a525780601f10611a2757610100808354040283529160200191611a52565b820191906000526020600020905b815481529060010190602001808311611a3557829003601f168201915b505050505081565b60008073ffffffffffffffffffffffffffffffffffffffff168373ffffffffffffffffffffffffffffffffffffffff1614151515611a9757600080fd5b600b60003373ffffffffffffffffffffffffffffffffffffffff1673ffffffffffffffffffffffffffffffffffffffff168152602001908152602001600020548211151515611ae557600080fd5b611b3782600b60003373ffffffffffffffffffffffffffffffffffffffff1673ffffffffffffffffffffffffffffffffffffffff16815260200190815260200160002054612a2790919063ffffffff16565b600b60003373ffffffffffffffffffffffffffffffffffffffff1673ffffffffffffffffffffffffffffffffffffffff16815260200190815260200160002081905550611bcc82600b60008673ffffffffffffffffffffffffffffffffffffffff1673ffffffffffffffffffffffffffffffffffffffff16815260200190815260200160002054612a4090919063ffffffff16565b600b60008573ffffffffffffffffffffffffffffffffffffffff1673ffffffffffffffffffffffffffffffffffffffff168152602001908152602001600020819055508273ffffffffffffffffffffffffffffffffffffffff163373ffffffffffffffffffffffffffffffffffffffff167fddf252ad1be2c89b69c2b068fc378daa952ba7f163c4a11628f55a4df523b3ef846040518082815260200191505060405180910390a36001905092915050565b6000600b60003373ffffffffffffffffffffffffffffffffffffffff1673ffffffffffffffffffffffffffffffffffffffff16815260200190815260200160002054111515611ccc57600080fd5b600081111515611cdb57600080fd5b6000601260003373ffffffffffffffffffffffffffffffffffffffff1673ffffffffffffffffffffffffffffffffffffffff168152602001908152602001600020600201541115611dc957600b60003373ffffffffffffffffffffffffffffffffffffffff1673ffffffffffffffffffffffffffffffffffffffff1681526020019081526020016000205460156000601260003373ffffffffffffffffffffffffffffffffffffffff1673ffffffffffffffffffffffffffffffffffffffff168152602001908152602001600020600201548152602001908152602001600020600082825403925050819055505b80601260003373ffffffffffffffffffffffffffffffffffffffff1673ffffffffffffffffffffffffffffffffffffffff16815260200190815260200160002060020181905550600b60003373ffffffffffffffffffffffffffffffffffffffff1673ffffffffffffffffffffffffffffffffffffffff16815260200190815260200160002054601560008381526020019081526020016000206000828254019250508190555060186002015460156000838152602001908152602001600020541115611e9b57806000600201819055505b50565b6000806000600860008681526020019081526020016000208054905084101515611ec757600080fd5b6009600086815260200190815260200160002084815481101515611ee757fe5b906000526020600020906003020160000160009054906101000a900473ffffffffffffffffffffffffffffffffffffffff1673ffffffffffffffffffffffffffffffffffffffff163373ffffffffffffffffffffffffffffffffffffffff16141515611f5257600080fd5b6008600086815260200190815260200160002084815481101515611f7257fe5b90600052602060002090600402016003015491506008600086815260200190815260200160002084815481101515611fa657fe5b90600052602060002090600402016001015490506008600086815260200190815260200160002084815481101515611fda57fe5b906000526020600020906004020160000160009054906101000a900460ff161561205b573373ffffffffffffffffffffffffffffffffffffffff166108fc83600060010154600080015403840281151561203057fe5b049081150290604051600060405180830381858888f19350505050151561205657600080fd5b6120b4565b3373ffffffffffffffffffffffffffffffffffffffff166108fc83600060010154600080015403840281151561208d57fe5b049081150290604051600060405180830381858888f1935050505015156120b357600080fd5b5b60086000868152602001908152602001600020848154811015156120d457fe5b9060005260206000209060040201600080820160006101000a81549060ff02191690556001820160009055600282016000905560038201600090555050600960008681526020019081526020016000208481548110151561213157fe5b9060005260206000209060030201600080820160006101000a81549073ffffffffffffffffffffffffffffffffffffffff02191690556001820160006121779190613a04565b6002820160006121879190613a04565b50506001600a8681548110151561219a57fe5b9060005260206000209001600082825401925050819055506121bb85612a5e565b5060019250505092915050565b6000600b60003373ffffffffffffffffffffffffffffffffffffffff1673ffffffffffffffffffffffffffffffffffffffff1681526020019081526020016000205411151561221657600080fd5b60008111151561222557600080fd5b6000601260003373ffffffffffffffffffffffffffffffffffffffff1673ffffffffffffffffffffffffffffffffffffffff16815260200190815260200160002060000154111561231357600b60003373ffffffffffffffffffffffffffffffffffffffff1673ffffffffffffffffffffffffffffffffffffffff1681526020019081526020016000205460136000601260003373ffffffffffffffffffffffffffffffffffffffff1673ffffffffffffffffffffffffffffffffffffffff168152602001908152602001600020600001548152602001908152602001600020600082825403925050819055505b80601260003373ffffffffffffffffffffffffffffffffffffffff1673ffffffffffffffffffffffffffffffffffffffff16815260200190815260200160002060000181905550600b60003373ffffffffffffffffffffffffffffffffffffffff1673ffffffffffffffffffffffffffffffffffffffff168152602001908152602001600020546013600083815260200190815260200160002060008282540192505081905550601860000154601360008381526020019081526020016000205411156123e4578060008001819055505b50565b6000600b60003373ffffffffffffffffffffffffffffffffffffffff1673ffffffffffffffffffffffffffffffffffffffff1681526020019081526020016000205411151561243557600080fd5b60008111151561244457600080fd5b6000601260003373ffffffffffffffffffffffffffffffffffffffff1673ffffffffffffffffffffffffffffffffffffffff16815260200190815260200160002060010154111561253257600b60003373ffffffffffffffffffffffffffffffffffffffff1673ffffffffffffffffffffffffffffffffffffffff1681526020019081526020016000205460146000601260003373ffffffffffffffffffffffffffffffffffffffff1673ffffffffffffffffffffffffffffffffffffffff168152602001908152602001600020600101548152602001908152602001600020600082825403925050819055505b80601260003373ffffffffffffffffffffffffffffffffffffffff1673ffffffffffffffffffffffffffffffffffffffff16815260200190815260200160002060010181905550600b60003373ffffffffffffffffffffffffffffffffffffffff1673ffffffffffffffffffffffffffffffffffffffff1681526020019081526020016000205460146000838152602001908152602001600020600082825401925050819055506018600101546014600083815260200190815260200160002054111561260457806000600101819055505b50565b60188060000154908060010154908060020154908060030154908060040154908060050154905086565b60008060000154908060010154908060020154908060030154908060040154908060050154905086565b60008060008061266e8989898989612ca8565b151561267d5760009350612734565b612688888888612d46565b92509250600082141561269e5760009350612734565b670de0b6b3a764000082600080015460006003015402028115156126be57fe5b0490508873ffffffffffffffffffffffffffffffffffffffff166108fc829081150290604051600060405180830381858888f19350505050151561270157600080fd5b61270b8183612fb7565b6127188888888686613007565b612725888888868661343f565b61272e88612a5e565b50600193505b50505095945050505050565b60006127d182600d60003373ffffffffffffffffffffffffffffffffffffffff1673ffffffffffffffffffffffffffffffffffffffff16815260200190815260200160002060008673ffffffffffffffffffffffffffffffffffffffff1673ffffffffffffffffffffffffffffffffffffffff16815260200190815260200160002054612a4090919063ffffffff16565b600d60003373ffffffffffffffffffffffffffffffffffffffff1673ffffffffffffffffffffffffffffffffffffffff16815260200190815260200160002060008573ffffffffffffffffffffffffffffffffffffffff1673ffffffffffffffffffffffffffffffffffffffff168152602001908152602001600020819055508273ffffffffffffffffffffffffffffffffffffffff163373ffffffffffffffffffffffffffffffffffffffff167f8c5be1e5ebec7d5bd14f71427d1e84f3dd0314c0f7b2291e5b200ac8c7c3b925600d60003373ffffffffffffffffffffffffffffffffffffffff1673ffffffffffffffffffffffffffffffffffffffff16815260200190815260200160002060008773ffffffffffffffffffffffffffffffffffffffff1673ffffffffffffffffffffffffffffffffffffffff168152602001908152602001600020546040518082815260200191505060405180910390a36001905092915050565b60096020528160005260406000208181548110151561295757fe5b9060005260206000209060030201600091509150508060000160009054906101000a900473ffffffffffffffffffffffffffffffffffffffff1690806001019080600201905083565b6000600d60008473ffffffffffffffffffffffffffffffffffffffff1673ffffffffffffffffffffffffffffffffffffffff16815260200190815260200160002060008373ffffffffffffffffffffffffffffffffffffffff1673ffffffffffffffffffffffffffffffffffffffff16815260200190815260200160002054905092915050565b6000828211151515612a3557fe5b818303905092915050565b6000808284019050838110151515612a5457fe5b8091505092915050565b600080600060020154600a84815481101515612a7657fe5b9060005260206000209001541015612a915760009150612ca2565b600190505b6008600084815260200190815260200160002080549050811015612c2b5760006008600085815260200190815260200160002082815481101515612ad657fe5b9060005260206000209060040201600101541415612c1e576001600860008581526020019081526020016000208054905003811015612c1d576008600084815260200190815260200160002060018201815481101515612b3257fe5b90600052602060002090600402016008600085815260200190815260200160002082815481101515612b6057fe5b90600052602060002090600402016000820160009054906101000a900460ff168160000160006101000a81548160ff0219169083151502179055506001820154816001015560028201548160020155600382015481600301559050506008600084815260200190815260200160002060018201815481101515612bdf57fe5b9060005260206000209060040201600080820160006101000a81549060ff021916905560018201600090556002820160009055600382016000905550505b5b8080600101915050612a96565b600a83815481101515612c3a57fe5b9060005260206000209001546008600085815260200190815260200160002080549050036008600085815260200190815260200160002081612c7c9190613a4c565b506000600a84815481101515612c8e57fe5b906000526020600020900181905550600191505b50919050565b60008585858585604051808673ffffffffffffffffffffffffffffffffffffffff1673ffffffffffffffffffffffffffffffffffffffff166c0100000000000000000000000002815260140185815260200184815260200183815260200182815260200195505050505050604051809103902060001916600060050154600019161115612d385760009050612d3d565b600190505b95945050505050565b600080600080612d54613a7e565b612d5c613a7e565b612d678989896137a3565b1515612d7f5760008081915080905095509550612fab565b600860008a815260200190815260200160002088815481101515612d9f57fe5b906000526020600020906004020160000160009054906101000a900460ff1615612dce57879350869250612dd5565b8693508792505b600860008a815260200190815260200160002084815481101515612df557fe5b9060005260206000209060040201608060405190810160405290816000820160009054906101000a900460ff1615151515815260200160018201548152602001600282015481526020016003820154815250509150600860008a815260200190815260200160002083815481101515612e6a57fe5b9060005260206000209060040201608060405190810160405290816000820160009054906101000a900460ff1615151515815260200160018201548152602001600282015481526020016003820154815250509050806060015182606001511015612ee15760008081915080905095509550612fab565b60028160600151836060015101811515612ef757fe5b04955085816020015102670de0b6b3a76400008360200151021115612f555785816020015102670de0b6b3a76400008360400151021115612f445760008081915080905095509550612fab565b858682602001510295509550612fab565b670de0b6b3a7640000826020015102868260200151021115612fa057670de0b6b3a7640000826020015102868260400151021115612f9f5760008081915080905095509550612fab565b5b858260200151955095505b50505050935093915050565b80600080015402600660000154036006600001819055508060008001540282600660010154030160066001018190555060006004015460066001015410151561300357613002613909565b5b5050565b7f17fad608e647bf180e9f2d2542498a2ec81fb1cb077d60802b67b21d64adc9b8600960008781526020019081526020016000208581548110151561304857fe5b906000526020600020906003020160000160009054906101000a900473ffffffffffffffffffffffffffffffffffffffff16600960008881526020019081526020016000208581548110151561309a57fe5b906000526020600020906003020160000160009054906101000a900473ffffffffffffffffffffffffffffffffffffffff1660096000898152602001908152602001600020878154811015156130ec57fe5b9060005260206000209060030201600101600960008a81526020019081526020016000208781548110151561311d57fe5b9060005260206000209060030201600101600960008b81526020019081526020016000208981548110151561314e57fe5b9060005260206000209060030201600201600960008c81526020019081526020016000208981548110151561317f57fe5b90600052602060002090600302016002018888604051808973ffffffffffffffffffffffffffffffffffffffff1673ffffffffffffffffffffffffffffffffffffffff1681526020018873ffffffffffffffffffffffffffffffffffffffff1673ffffffffffffffffffffffffffffffffffffffff1681526020018060200180602001806020018060200187815260200186815260200185810385528b8181546001816001161561010002031660029004815260200191508054600181600116156101000203166002900480156132975780601f1061326c57610100808354040283529160200191613297565b820191906000526020600020905b81548152906001019060200180831161327a57829003601f168201915b505085810384528a81815460018160011615610100020316600290048152602001915080546001816001161561010002031660029004801561331a5780601f106132ef5761010080835404028352916020019161331a565b820191906000526020600020905b8154815290600101906020018083116132fd57829003601f168201915b505085810383528981815460018160011615610100020316600290048152602001915080546001816001161561010002031660029004801561339d5780601f106133725761010080835404028352916020019161339d565b820191906000526020600020905b81548152906001019060200180831161338057829003601f168201915b50508581038252888181546001816001161561010002031660029004815260200191508054600181600116156101000203166002900480156134205780601f106133f557610100808354040283529160200191613420565b820191906000526020600020905b81548152906001019060200180831161340357829003601f168201915b50509c5050505050505050505050505060405180910390a15050505050565b600080600860008881526020019081526020016000208681548110151561346257fe5b906000526020600020906004020160000160009054906101000a900460ff161561349157859150849050613498565b8491508590505b8260086000898152602001908152602001600020838154811015156134b957fe5b90600052602060002090600402016001015414156134fb576001600a888154811015156134e257fe5b9060005260206000209001600082825401925050819055505b82600860008981526020019081526020016000208381548110151561351c57fe5b9060005260206000209060040201600201541015613570576000600860008981526020019081526020016000208381548110151561355657fe5b9060005260206000209060040201600201819055506135b0565b82600860008981526020019081526020016000208381548110151561359157fe5b9060005260206000209060040201600201600082825403925050819055505b8260086000898152602001908152602001600020838154811015156135d157fe5b906000526020600020906004020160010160008282540392505081905550670de0b6b3a764000084840281151561360457fe5b04600860008981526020019081526020016000208281548110151561362557fe5b9060005260206000209060040201600101541415613667576001600a8881548110151561364e57fe5b9060005260206000209001600082825401925050819055505b670de0b6b3a764000084840281151561367c57fe5b04600860008981526020019081526020016000208281548110151561369d57fe5b90600052602060002090600402016002015410156136f157600060086000898152602001908152602001600020828154811015156136d757fe5b906000526020600020906004020160020181905550613746565b670de0b6b3a764000084840281151561370657fe5b04600860008981526020019081526020016000208281548110151561372757fe5b9060005260206000209060040201600201600082825403925050819055505b670de0b6b3a764000084840281151561375b57fe5b04600860008981526020019081526020016000208281548110151561377c57fe5b90600052602060002090600402016001016000828254039250508190555050505050505050565b60006008600085815260200190815260200160002080549050831015156137c957600080fd5b6008600085815260200190815260200160002080549050821015156137ed57600080fd5b600860008581526020019081526020016000208281548110151561380d57fe5b906000526020600020906004020160000160009054906101000a900460ff161515600860008681526020019081526020016000208481548110151561384e57fe5b906000526020600020906004020160000160009054906101000a900460ff1615151415151561387c57600080fd5b6000600860008681526020019081526020016000208481548110151561389e57fe5b906000526020600020906004020160010154141515156138bd57600080fd5b600060086000868152602001908152602001600020838154811015156138df57fe5b906000526020600020906004020160010154141515156138fe57600080fd5b600190509392505050565b613911613913565b565b6000600660010181905550565b81548183558181151161394d5760040281600402836000526020600020918201910161394c9190613aa9565b5b505050565b81548183558181151161397f5760030281600302836000526020600020918201910161397e9190613af4565b5b505050565b828054600181600116156101000203166002900490600052602060002090601f016020900481019282601f106139c557805160ff19168380011785556139f3565b828001600101855582156139f3579182015b828111156139f25782518255916020019190600101906139d7565b5b509050613a009190613b5a565b5090565b50805460018160011615610100020316600290046000825580601f10613a2a5750613a49565b601f016020900490600052602060002090810190613a489190613b5a565b5b50565b815481835581811511613a7957600402816004028360005260206000209182019101613a789190613aa9565b5b505050565b6080604051908101604052806000151581526020016000815260200160008152602001600081525090565b613af191905b80821115613aed57600080820160006101000a81549060ff021916905560018201600090556002820160009055600382016000905550600401613aaf565b5090565b90565b613b5791905b80821115613b5357600080820160006101000a81549073ffffffffffffffffffffffffffffffffffffffff0219169055600182016000613b3a9190613a04565b600282016000613b4a9190613a04565b50600301613afa565b5090565b90565b613b7c91905b80821115613b78576000816000905550600101613b60565b5090565b90565b856000800181905550846000600101819055508360006002018190555082600060030181905550816000600401819055508060006005018160001916905550505050505050565b6000600860008081526020019081526020016000208054806001018281613bed9190613920565b9160005260206000209060040201600060806040519081016040528060001515815260200160008152602001600081526020016000815250909190915060008201518160000160006101000a81548160ff021916908315150217905550602082015181600101556040820151816002015560608201518160030155505050600960008081526020019081526020016000208054806001018281613c909190613952565b91600052602060002090600302016000606060405190810160405280600073ffffffffffffffffffffffffffffffffffffffff168152602001602060405190810160405280600081525081526020016020604051908101604052806000815250815250909190915060008201518160000160006101000a81548173ffffffffffffffffffffffffffffffffffffffff021916908373ffffffffffffffffffffffffffffffffffffffff1602179055506020820151816001019080519060200190613d5b929190613984565b506040820151816002019080519060200190613d78929190613984565b5050505060019050905600a165627a7a723058202b9fea33242ec9daef86d700e7568e140b29f994fbd979800dc238578b2a8b150029",
  "source": "pragma solidity ^0.4.18;\n\nimport 'zeppelin-solidity/contracts/token/ERC20/MintableToken.sol';\nimport 'zeppelin-solidity/contracts/math/SafeMath.sol';\nimport './Exchange.sol';\n\n\n/// @title ValexToken\n/// @author Karim Helmy\n\n// Parts sourced from https://github.com/bokkypoobah/Tokens/blob/master/contracts/FixedSupplyToken.sol\n\n// ----------------------------------------------------------------------------\n// 'VLX' 'Valex Token' token contract\n//\n// Symbol      : VLX\n// Name        : Valex Token\n// Total supply: 1,000,000.000000000000000000\n// Decimals    : 18\n//\n// ----------------------------------------------------------------------------\n\ncontract ValexToken is Exchange, StandardToken {\n    using SafeMath for uint;\n\n    string public name = \"Valex Token\";\n    string public symbol = \"VLX\";\n    uint8 public decimals = 18;\n\n    uint256 public initialSupply = 10000 * (10 ** uint256(decimals));\n\n    // Voting mappings\n    // Holds what every address has voted for\n    mapping (address => Parameters) voteBook;\n    // Hold frequencies of what addresses have voted for (in coin-votes)\n    mapping (uint => uint) closureFeeFreqs;\n    mapping (uint => uint) cancelFeeFreqs;\n    mapping (uint => uint) cleanSizeFreqs;\n    mapping (uint => uint) minerShareFreqs;\n    mapping (uint => uint) distBalanceFreqs;\n\n    // Thresholds to be met for each parameter adjustment\n    // TODO: add initialization for thresholds\n    // TODO: add meta-voting for thresholds (will always require 51%)\n    Parameters public thresholds;\n\n    // TODO: reset votes when tokens are transferred\n\n    /**\n     * @dev Constructor that gives msg.sender all of existing tokens.\n     * @dev Initializes token to have same parameters as exchange\n     */\n    function ValexToken(uint closureFeePerUnit, uint cancelFeePerUnit,\n                      uint cleanSize, uint minershare, uint distBalance,\n                      bytes32 difficulty)\n      Exchange(closureFeePerUnit, cancelFeePerUnit,\n              cleanSize, minershare, distBalance, difficulty)\n      public\n    {\n      totalSupply_ = initialSupply;\n      balances[msg.sender] = initialSupply;\n    }\n\n    // Distributes dividends when balance is of sufficient size\n    function distDividends()\n      internal\n    {\n      //TODO: Implement distribution\n      Exchange.distDividends();\n    }\n\n    // Voting functions for various parameters\n    // Solidity doesn't allow any meaningful abstraction\n    // Adjust relevant parameter if threshold met\n\n    // voting copy3\n    function voteClosureFee(uint desiredParam)\n      public\n    {\n      require(balances[msg.sender] > 0);\n      require(desiredParam > 0);\n      if (voteBook[msg.sender].closureFeePerUnit > 0){\n        closureFeeFreqs[voteBook[msg.sender].closureFeePerUnit] -= balances[msg.sender];\n      }\n      voteBook[msg.sender].closureFeePerUnit = desiredParam;\n      closureFeeFreqs[desiredParam] += balances[msg.sender];\n      if (closureFeeFreqs[desiredParam] > thresholds.closureFeePerUnit){\n        params.closureFeePerUnit = desiredParam;\n      }\n    }\n\n    // voting copy3\n    function voteCancelFee(uint desiredParam)\n      public\n    {\n      require(balances[msg.sender] > 0);\n      require(desiredParam > 0);\n      if (voteBook[msg.sender].cancelFeePerUnit > 0){\n        cancelFeeFreqs[voteBook[msg.sender].cancelFeePerUnit] -= balances[msg.sender];\n      }\n      voteBook[msg.sender].cancelFeePerUnit = desiredParam;\n      cancelFeeFreqs[desiredParam] += balances[msg.sender];\n      if (cancelFeeFreqs[desiredParam] > thresholds.cancelFeePerUnit){\n        params.cancelFeePerUnit = desiredParam;\n      }\n    }\n\n    // voting copy3\n    function voteCleanSize(uint desiredParam)\n      public\n    {\n      require(balances[msg.sender] > 0);\n      require(desiredParam > 0);\n      if (voteBook[msg.sender].cleanSize > 0){\n        cleanSizeFreqs[voteBook[msg.sender].cleanSize] -= balances[msg.sender];\n      }\n      voteBook[msg.sender].cleanSize = desiredParam;\n      cleanSizeFreqs[desiredParam] += balances[msg.sender];\n      if (cleanSizeFreqs[desiredParam] > thresholds.cleanSize){\n        params.cleanSize = desiredParam;\n      }\n    }\n\n    // voting copy3\n    function voteMinerShare(uint desiredParam)\n      public\n    {\n      require(balances[msg.sender] > 0);\n      require(desiredParam > 0);\n      if (voteBook[msg.sender].minerShare > 0){\n        minerShareFreqs[voteBook[msg.sender].minerShare] -= balances[msg.sender];\n      }\n      voteBook[msg.sender].minerShare = desiredParam;\n      minerShareFreqs[desiredParam] += balances[msg.sender];\n      if (minerShareFreqs[desiredParam] > thresholds.minerShare){\n        params.minerShare = desiredParam;\n      }\n    }\n\n    // voting copy3\n    function voteDistBalance(uint desiredParam)\n      public\n    {\n      require(balances[msg.sender] > 0);\n      require(desiredParam > 0);\n      if (voteBook[msg.sender].distBalance > 0){\n        distBalanceFreqs[voteBook[msg.sender].distBalance] -= balances[msg.sender];\n      }\n      voteBook[msg.sender].distBalance = desiredParam;\n      distBalanceFreqs[desiredParam] += balances[msg.sender];\n      if (distBalanceFreqs[desiredParam] > thresholds.distBalance){\n        params.distBalance = desiredParam;\n      }\n    }\n\n    // TODO: Implement adding/removing chapters\n\n    // TODO: NEXT VERSION: Add vote transferring\n\n}\n",
  "sourcePath": "/Users/Karim/Desktop/Valex/contracts/ValexToken.sol",
  "compiler": {
    "name": "solc",
    "version": "0.4.18+commit.9cf6e910.Emscripten.clang"
  },
  "schemaVersion": "1.0.1",
  "updatedAt": "2018-02-15T19:22:33.493Z"
}