{
  "contractName": "ValexToken",
  "abi": [
    {
      "constant": true,
      "inputs": [],
      "name": "name",
      "outputs": [
        {
          "name": "",
          "type": "string"
        }
      ],
      "payable": false,
      "stateMutability": "view",
      "type": "function"
    },
    {
      "constant": false,
      "inputs": [
        {
          "name": "_spender",
          "type": "address"
        },
        {
          "name": "_value",
          "type": "uint256"
        }
      ],
      "name": "approve",
      "outputs": [
        {
          "name": "",
          "type": "bool"
        }
      ],
      "payable": false,
      "stateMutability": "nonpayable",
      "type": "function"
    },
    {
      "constant": true,
      "inputs": [
        {
          "name": "",
          "type": "uint256"
        },
        {
          "name": "",
          "type": "uint256"
        }
      ],
      "name": "orderBook",
      "outputs": [
        {
          "name": "buyETH",
          "type": "bool"
        },
        {
          "name": "volume",
          "type": "uint256"
        },
        {
          "name": "minVolume",
          "type": "uint256"
        },
        {
          "name": "limit",
          "type": "uint256"
        }
      ],
      "payable": false,
      "stateMutability": "view",
      "type": "function"
    },
    {
      "constant": true,
      "inputs": [],
      "name": "totalSupply",
      "outputs": [
        {
          "name": "",
          "type": "uint256"
        }
      ],
      "payable": false,
      "stateMutability": "view",
      "type": "function"
    },
    {
      "constant": false,
      "inputs": [
        {
          "name": "_from",
          "type": "address"
        },
        {
          "name": "_to",
          "type": "address"
        },
        {
          "name": "_value",
          "type": "uint256"
        }
      ],
      "name": "transferFrom",
      "outputs": [
        {
          "name": "",
          "type": "bool"
        }
      ],
      "payable": false,
      "stateMutability": "nonpayable",
      "type": "function"
    },
    {
      "constant": true,
      "inputs": [],
      "name": "decimals",
      "outputs": [
        {
          "name": "",
          "type": "uint8"
        }
      ],
      "payable": false,
      "stateMutability": "view",
      "type": "function"
    },
    {
      "constant": true,
      "inputs": [],
      "name": "initialSupply",
      "outputs": [
        {
          "name": "",
          "type": "uint256"
        }
      ],
      "payable": false,
      "stateMutability": "view",
      "type": "function"
    },
    {
      "constant": false,
      "inputs": [
        {
          "name": "buyETH",
          "type": "bool"
        },
        {
          "name": "volume",
          "type": "uint256"
        },
        {
          "name": "minVolume",
          "type": "uint256"
        },
        {
          "name": "limit",
          "type": "uint256"
        },
        {
          "name": "ethAddress",
          "type": "address"
        },
        {
          "name": "firstAddress",
          "type": "string"
        },
        {
          "name": "otherAddress",
          "type": "string"
        },
        {
          "name": "chapter",
          "type": "uint256"
        }
      ],
      "name": "placeOrder",
      "outputs": [
        {
          "name": "accepted",
          "type": "bool"
        }
      ],
      "payable": true,
      "stateMutability": "payable",
      "type": "function"
    },
    {
      "constant": false,
      "inputs": [
        {
          "name": "_spender",
          "type": "address"
        },
        {
          "name": "_subtractedValue",
          "type": "uint256"
        }
      ],
      "name": "decreaseApproval",
      "outputs": [
        {
          "name": "",
          "type": "bool"
        }
      ],
      "payable": false,
      "stateMutability": "nonpayable",
      "type": "function"
    },
    {
      "constant": false,
      "inputs": [
        {
          "name": "desiredParam",
          "type": "uint256"
        }
      ],
      "name": "voteMinerShare",
      "outputs": [],
      "payable": false,
      "stateMutability": "nonpayable",
      "type": "function"
    },
    {
      "constant": true,
      "inputs": [
        {
          "name": "_owner",
          "type": "address"
        }
      ],
      "name": "balanceOf",
      "outputs": [
        {
          "name": "balance",
          "type": "uint256"
        }
      ],
      "payable": false,
      "stateMutability": "view",
      "type": "function"
    },
    {
      "constant": true,
      "inputs": [],
      "name": "exBalances",
      "outputs": [
        {
          "name": "openBalance",
          "type": "uint256"
        },
        {
          "name": "closedBalance",
          "type": "uint256"
        }
      ],
      "payable": false,
      "stateMutability": "view",
      "type": "function"
    },
    {
      "constant": false,
      "inputs": [
        {
          "name": "desiredParam",
          "type": "uint256"
        }
      ],
      "name": "voteDistBalance",
      "outputs": [],
      "payable": false,
      "stateMutability": "nonpayable",
      "type": "function"
    },
    {
      "constant": true,
      "inputs": [],
      "name": "symbol",
      "outputs": [
        {
          "name": "",
          "type": "string"
        }
      ],
      "payable": false,
      "stateMutability": "view",
      "type": "function"
    },
    {
      "constant": false,
      "inputs": [
        {
          "name": "_to",
          "type": "address"
        },
        {
          "name": "_value",
          "type": "uint256"
        }
      ],
      "name": "transfer",
      "outputs": [
        {
          "name": "",
          "type": "bool"
        }
      ],
      "payable": false,
      "stateMutability": "nonpayable",
      "type": "function"
    },
    {
      "constant": true,
      "inputs": [],
      "name": "PRECISION",
      "outputs": [
        {
          "name": "",
          "type": "uint256"
        }
      ],
      "payable": false,
      "stateMutability": "view",
      "type": "function"
    },
    {
      "constant": false,
      "inputs": [
        {
          "name": "desiredParam",
          "type": "uint256"
        }
      ],
      "name": "voteCleanSize",
      "outputs": [],
      "payable": false,
      "stateMutability": "nonpayable",
      "type": "function"
    },
    {
      "constant": false,
      "inputs": [
        {
          "name": "chapter",
          "type": "uint256"
        },
        {
          "name": "index",
          "type": "uint256"
        }
      ],
      "name": "cancelOrder",
      "outputs": [
        {
          "name": "accepted",
          "type": "bool"
        }
      ],
      "payable": false,
      "stateMutability": "nonpayable",
      "type": "function"
    },
    {
      "constant": false,
      "inputs": [
        {
          "name": "desiredParam",
          "type": "uint256"
        }
      ],
      "name": "voteClosureFee",
      "outputs": [],
      "payable": false,
      "stateMutability": "nonpayable",
      "type": "function"
    },
    {
      "constant": false,
      "inputs": [
        {
          "name": "desiredParam",
          "type": "uint256"
        }
      ],
      "name": "voteCancelFee",
      "outputs": [],
      "payable": false,
      "stateMutability": "nonpayable",
      "type": "function"
    },
    {
      "constant": true,
      "inputs": [],
      "name": "thresholds",
      "outputs": [
        {
          "name": "closureFee",
          "type": "uint256"
        },
        {
          "name": "cancelFee",
          "type": "uint256"
        },
        {
          "name": "cleanSize",
          "type": "uint256"
        },
        {
          "name": "minerShare",
          "type": "uint256"
        },
        {
          "name": "distBalance",
          "type": "uint256"
        },
        {
          "name": "difficulty",
          "type": "bytes32"
        }
      ],
      "payable": false,
      "stateMutability": "view",
      "type": "function"
    },
    {
      "constant": true,
      "inputs": [],
      "name": "params",
      "outputs": [
        {
          "name": "closureFee",
          "type": "uint256"
        },
        {
          "name": "cancelFee",
          "type": "uint256"
        },
        {
          "name": "cleanSize",
          "type": "uint256"
        },
        {
          "name": "minerShare",
          "type": "uint256"
        },
        {
          "name": "distBalance",
          "type": "uint256"
        },
        {
          "name": "difficulty",
          "type": "bytes32"
        }
      ],
      "payable": false,
      "stateMutability": "view",
      "type": "function"
    },
    {
      "constant": false,
      "inputs": [
        {
          "name": "depositAddress",
          "type": "address"
        },
        {
          "name": "chapter",
          "type": "uint256"
        },
        {
          "name": "index1",
          "type": "uint256"
        },
        {
          "name": "index2",
          "type": "uint256"
        },
        {
          "name": "nonce",
          "type": "uint256"
        }
      ],
      "name": "giveMatch",
      "outputs": [
        {
          "name": "isValid",
          "type": "bool"
        }
      ],
      "payable": true,
      "stateMutability": "payable",
      "type": "function"
    },
    {
      "constant": false,
      "inputs": [
        {
          "name": "_spender",
          "type": "address"
        },
        {
          "name": "_addedValue",
          "type": "uint256"
        }
      ],
      "name": "increaseApproval",
      "outputs": [
        {
          "name": "",
          "type": "bool"
        }
      ],
      "payable": false,
      "stateMutability": "nonpayable",
      "type": "function"
    },
    {
      "constant": true,
      "inputs": [
        {
          "name": "",
          "type": "uint256"
        },
        {
          "name": "",
          "type": "uint256"
        }
      ],
      "name": "addressBook",
      "outputs": [
        {
          "name": "ethAddress",
          "type": "address"
        },
        {
          "name": "firstAddress",
          "type": "string"
        },
        {
          "name": "otherAddress",
          "type": "string"
        }
      ],
      "payable": false,
      "stateMutability": "view",
      "type": "function"
    },
    {
      "constant": true,
      "inputs": [
        {
          "name": "_owner",
          "type": "address"
        },
        {
          "name": "_spender",
          "type": "address"
        }
      ],
      "name": "allowance",
      "outputs": [
        {
          "name": "",
          "type": "uint256"
        }
      ],
      "payable": false,
      "stateMutability": "view",
      "type": "function"
    },
    {
      "inputs": [
        {
          "name": "closureFee",
          "type": "uint256"
        },
        {
          "name": "cancelFee",
          "type": "uint256"
        },
        {
          "name": "cleanSize",
          "type": "uint256"
        },
        {
          "name": "minershare",
          "type": "uint256"
        },
        {
          "name": "distBalance",
          "type": "uint256"
        },
        {
          "name": "difficulty",
          "type": "bytes32"
        }
      ],
      "payable": false,
      "stateMutability": "nonpayable",
      "type": "constructor"
    },
    {
      "anonymous": false,
      "inputs": [
        {
          "indexed": true,
          "name": "owner",
          "type": "address"
        },
        {
          "indexed": true,
          "name": "spender",
          "type": "address"
        },
        {
          "indexed": false,
          "name": "value",
          "type": "uint256"
        }
      ],
      "name": "Approval",
      "type": "event"
    },
    {
      "anonymous": false,
      "inputs": [
        {
          "indexed": true,
          "name": "from",
          "type": "address"
        },
        {
          "indexed": true,
          "name": "to",
          "type": "address"
        },
        {
          "indexed": false,
          "name": "value",
          "type": "uint256"
        }
      ],
      "name": "Transfer",
      "type": "event"
    },
    {
      "anonymous": false,
      "inputs": [
        {
          "indexed": false,
          "name": "ethAddress1",
          "type": "address"
        },
        {
          "indexed": false,
          "name": "ethAddress2",
          "type": "address"
        },
        {
          "indexed": false,
          "name": "firstAddress1",
          "type": "string"
        },
        {
          "indexed": false,
          "name": "firstAddress2",
          "type": "string"
        },
        {
          "indexed": false,
          "name": "otherAddress1",
          "type": "string"
        },
        {
          "indexed": false,
          "name": "otherAddress2",
          "type": "string"
        },
        {
          "indexed": false,
          "name": "mimRate",
          "type": "uint256"
        },
        {
          "indexed": false,
          "name": "ethVol",
          "type": "uint256"
        }
      ],
      "name": "TradeInfo",
      "type": "event"
    }
  ],
  "bytecode": "0x6060604052670de0b6b3a76400006000556040805190810160405280600b81526020017f56616c657820546f6b656e000000000000000000000000000000000000000000815250600f90805190602001906200005d9291906200041c565b506040805190810160405280600381526020017f564c58000000000000000000000000000000000000000000000000000000000081525060109080519060200190620000ab9291906200041c565b506012601160006101000a81548160ff021916908360ff160217905550601160009054906101000a900460ff1660ff16600a0a612710026012553415620000f157600080fd5b60405160c080620044ee8339810160405280805190602001909190805190602001909190805190602001909190805190602001909190805190602001909190805190602001909190505085858585858562000165868686868686620002106401000000000262003bbc176401000000009004565b62000183620002576401000000000262003c03176401000000009004565b50600b80548060010182816200019a9190620004a3565b916000526020600020900160008090919091505550505050505050601254600d81905550601254600c60003373ffffffffffffffffffffffffffffffffffffffff1673ffffffffffffffffffffffffffffffffffffffff16815260200190815260200160002081905550505050505050620006f2565b856001600001819055508460018001819055508360016002018190555082600160030181905550816001600401819055508060016005018160001916905550505050505050565b6000600960008081526020019081526020016000208054806001018281620002809190620004d2565b9160005260206000209060040201600060806040519081016040528060001515815260200160008152602001600081526020016000815250909190915060008201518160000160006101000a81548160ff021916908315150217905550602082015181600101556040820151816002015560608201518160030155505050600a6000808152602001908152602001600020805480600101828162000325919062000507565b91600052602060002090600302016000606060405190810160405280600073ffffffffffffffffffffffffffffffffffffffff168152602001602060405190810160405280600081525081526020016020604051908101604052806000815250815250909190915060008201518160000160006101000a81548173ffffffffffffffffffffffffffffffffffffffff021916908373ffffffffffffffffffffffffffffffffffffffff1602179055506020820151816001019080519060200190620003f29291906200053c565b506040820151816002019080519060200190620004119291906200053c565b505050506001905090565b828054600181600116156101000203166002900490600052602060002090601f016020900481019282601f106200045f57805160ff191683800117855562000490565b8280016001018555821562000490579182015b828111156200048f57825182559160200191906001019062000472565b5b5090506200049f9190620005c3565b5090565b815481835581811511620004cd57818360005260206000209182019101620004cc9190620005c3565b5b505050565b8154818355818115116200050257600402816004028360005260206000209182019101620005019190620005eb565b5b505050565b815481835581811511620005375760030281600302836000526020600020918201910162000536919062000639565b5b505050565b828054600181600116156101000203166002900490600052602060002090601f016020900481019282601f106200057f57805160ff1916838001178555620005b0565b82800160010185558215620005b0579182015b82811115620005af57825182559160200191906001019062000592565b5b509050620005bf9190620005c3565b5090565b620005e891905b80821115620005e4576000816000905550600101620005ca565b5090565b90565b6200063691905b808211156200063257600080820160006101000a81549060ff021916905560018201600090556002820160009055600382016000905550600401620005f2565b5090565b90565b620006a391905b808211156200069f57600080820160006101000a81549073ffffffffffffffffffffffffffffffffffffffff0219169055600182016000620006839190620006a6565b600282016000620006959190620006a6565b5060030162000640565b5090565b90565b50805460018160011615610100020316600290046000825580601f10620006ce5750620006ef565b601f016020900490600052602060002090810190620006ee9190620005c3565b5b50565b613dec80620007026000396000f300606060405260043610610154576000357c0100000000000000000000000000000000000000000000000000000000900463ffffffff16806306fdde0314610159578063095ea7b3146101e757806314974f461461024157806318160ddd1461029a57806323b872dd146102c3578063313ce5671461033c578063378dc3dc1461036b5780634aed275c14610394578063661884631461048f57806369f99f80146104e957806370a082311461050c578063737f02af146105595780637db23c051461058957806395d89b41146105ac578063a9059cbb1461063a578063aaf5eb6814610694578063af87439e146106bd578063b6ed0632146106e0578063c932aa7b14610724578063ca7f74ea14610747578063cda43b3a1461076a578063cff0ab96146107be578063d2426ab914610812578063d73dd6231461087c578063da92b7c1146108d6578063dd62ed3e14610a54575b600080fd5b341561016457600080fd5b61016c610ac0565b6040518080602001828103825283818151815260200191508051906020019080838360005b838110156101ac578082015181840152602081019050610191565b50505050905090810190601f1680156101d95780820380516001836020036101000a031916815260200191505b509250505060405180910390f35b34156101f257600080fd5b610227600480803573ffffffffffffffffffffffffffffffffffffffff16906020019091908035906020019091905050610b5e565b604051808215151515815260200191505060405180910390f35b341561024c57600080fd5b61026b6004808035906020019091908035906020019091905050610c50565b604051808515151515815260200184815260200183815260200182815260200194505050505060405180910390f35b34156102a557600080fd5b6102ad610ca9565b6040518082815260200191505060405180910390f35b34156102ce57600080fd5b610322600480803573ffffffffffffffffffffffffffffffffffffffff1690602001909190803573ffffffffffffffffffffffffffffffffffffffff16906020019091908035906020019091905050610cb3565b604051808215151515815260200191505060405180910390f35b341561034757600080fd5b61034f611072565b604051808260ff1660ff16815260200191505060405180910390f35b341561037657600080fd5b61037e611085565b6040518082815260200191505060405180910390f35b6104756004808035151590602001909190803590602001909190803590602001909190803590602001909190803573ffffffffffffffffffffffffffffffffffffffff1690602001909190803590602001908201803590602001908080601f0160208091040260200160405190810160405280939291908181526020018383808284378201915050505050509190803590602001908201803590602001908080601f0160208091040260200160405190810160405280939291908181526020018383808284378201915050505050509190803590602001909190505061108b565b604051808215151515815260200191505060405180910390f35b341561049a57600080fd5b6104cf600480803573ffffffffffffffffffffffffffffffffffffffff169060200190919080359060200190919050506112e0565b604051808215151515815260200191505060405180910390f35b34156104f457600080fd5b61050a6004808035906020019091905050611571565b005b341561051757600080fd5b610543600480803573ffffffffffffffffffffffffffffffffffffffff16906020019091905050611791565b6040518082815260200191505060405180910390f35b341561056457600080fd5b61056c6117da565b604051808381526020018281526020019250505060405180910390f35b341561059457600080fd5b6105aa60048080359060200190919050506117ec565b005b34156105b757600080fd5b6105bf611a0c565b6040518080602001828103825283818151815260200191508051906020019080838360005b838110156105ff5780820151818401526020810190506105e4565b50505050905090810190601f16801561062c5780820380516001836020036101000a031916815260200191505b509250505060405180910390f35b341561064557600080fd5b61067a600480803573ffffffffffffffffffffffffffffffffffffffff16906020019091908035906020019091905050611aaa565b604051808215151515815260200191505060405180910390f35b341561069f57600080fd5b6106a7611cce565b6040518082815260200191505060405180910390f35b34156106c857600080fd5b6106de6004808035906020019091905050611cd4565b005b34156106eb57600080fd5b61070a6004808035906020019091908035906020019091905050611ef4565b604051808215151515815260200191505060405180910390f35b341561072f57600080fd5b610745600480803590602001909190505061221e565b005b341561075257600080fd5b610768600480803590602001909190505061243e565b005b341561077557600080fd5b61077d61265d565b604051808781526020018681526020018581526020018481526020018381526020018260001916600019168152602001965050505050505060405180910390f35b34156107c957600080fd5b6107d1612687565b604051808781526020018681526020018581526020018481526020018381526020018260001916600019168152602001965050505050505060405180910390f35b610862600480803573ffffffffffffffffffffffffffffffffffffffff169060200190919080359060200190919080359060200190919080359060200190919080359060200190919050506126b1565b604051808215151515815260200191505060405180910390f35b341561088757600080fd5b6108bc600480803573ffffffffffffffffffffffffffffffffffffffff16906020019091908035906020019091905050612791565b604051808215151515815260200191505060405180910390f35b34156108e157600080fd5b610900600480803590602001909190803590602001909190505061298d565b604051808473ffffffffffffffffffffffffffffffffffffffff1673ffffffffffffffffffffffffffffffffffffffff16815260200180602001806020018381038352858181546001816001161561010002031660029004815260200191508054600181600116156101000203166002900480156109bf5780601f10610994576101008083540402835291602001916109bf565b820191906000526020600020905b8154815290600101906020018083116109a257829003601f168201915b5050838103825284818154600181600116156101000203166002900481526020019150805460018160011615610100020316600290048015610a425780601f10610a1757610100808354040283529160200191610a42565b820191906000526020600020905b815481529060010190602001808311610a2557829003601f168201915b50509550505050505060405180910390f35b3415610a5f57600080fd5b610aaa600480803573ffffffffffffffffffffffffffffffffffffffff1690602001909190803573ffffffffffffffffffffffffffffffffffffffff169060200190919050506129f1565b6040518082815260200191505060405180910390f35b600f8054600181600116156101000203166002900480601f016020809104026020016040519081016040528092919081815260200182805460018160011615610100020316600290048015610b565780601f10610b2b57610100808354040283529160200191610b56565b820191906000526020600020905b815481529060010190602001808311610b3957829003601f168201915b505050505081565b600081600e60003373ffffffffffffffffffffffffffffffffffffffff1673ffffffffffffffffffffffffffffffffffffffff16815260200190815260200160002060008573ffffffffffffffffffffffffffffffffffffffff1673ffffffffffffffffffffffffffffffffffffffff168152602001908152602001600020819055508273ffffffffffffffffffffffffffffffffffffffff163373ffffffffffffffffffffffffffffffffffffffff167f8c5be1e5ebec7d5bd14f71427d1e84f3dd0314c0f7b2291e5b200ac8c7c3b925846040518082815260200191505060405180910390a36001905092915050565b600960205281600052604060002081815481101515610c6b57fe5b9060005260206000209060040201600091509150508060000160009054906101000a900460ff16908060010154908060020154908060030154905084565b6000600d54905090565b60008073ffffffffffffffffffffffffffffffffffffffff168373ffffffffffffffffffffffffffffffffffffffff1614151515610cf057600080fd5b600c60008573ffffffffffffffffffffffffffffffffffffffff1673ffffffffffffffffffffffffffffffffffffffff168152602001908152602001600020548211151515610d3e57600080fd5b600e60008573ffffffffffffffffffffffffffffffffffffffff1673ffffffffffffffffffffffffffffffffffffffff16815260200190815260200160002060003373ffffffffffffffffffffffffffffffffffffffff1673ffffffffffffffffffffffffffffffffffffffff168152602001908152602001600020548211151515610dc957600080fd5b610e1b82600c60008773ffffffffffffffffffffffffffffffffffffffff1673ffffffffffffffffffffffffffffffffffffffff16815260200190815260200160002054612a7890919063ffffffff16565b600c60008673ffffffffffffffffffffffffffffffffffffffff1673ffffffffffffffffffffffffffffffffffffffff16815260200190815260200160002081905550610eb082600c60008673ffffffffffffffffffffffffffffffffffffffff1673ffffffffffffffffffffffffffffffffffffffff16815260200190815260200160002054612a9190919063ffffffff16565b600c60008573ffffffffffffffffffffffffffffffffffffffff1673ffffffffffffffffffffffffffffffffffffffff16815260200190815260200160002081905550610f8282600e60008773ffffffffffffffffffffffffffffffffffffffff1673ffffffffffffffffffffffffffffffffffffffff16815260200190815260200160002060003373ffffffffffffffffffffffffffffffffffffffff1673ffffffffffffffffffffffffffffffffffffffff16815260200190815260200160002054612a7890919063ffffffff16565b600e60008673ffffffffffffffffffffffffffffffffffffffff1673ffffffffffffffffffffffffffffffffffffffff16815260200190815260200160002060003373ffffffffffffffffffffffffffffffffffffffff1673ffffffffffffffffffffffffffffffffffffffff168152602001908152602001600020819055508273ffffffffffffffffffffffffffffffffffffffff168473ffffffffffffffffffffffffffffffffffffffff167fddf252ad1be2c89b69c2b068fc378daa952ba7f163c4a11628f55a4df523b3ef846040518082815260200191505060405180910390a3600190509392505050565b601160009054906101000a900460ff1681565b60125481565b6000808811151561109b57600080fd5b6000871115156110aa57600080fd5b8688101515156110b957600080fd5b6000861115156110c857600080fd5b88156110f85760005460016000015489028115156110e257fe5b04348702101515156110f357600080fd5b61111c565b600054600160000154890281151561110c57fe5b04341015151561111b57600080fd5b5b6000600960008481526020019081526020016000208054905011151561114157600080fd5b600960008381526020019081526020016000208054806001018281611166919061395d565b916000526020600020906004020160006080604051908101604052808d151581526020018c81526020018b81526020018a815250909190915060008201518160000160006101000a81548160ff021916908315150217905550602082015181600101556040820151816002015560608201518160030155505050600a60008381526020019081526020016000208054806001018281611205919061398f565b916000526020600020906003020160006060604051908101604052808973ffffffffffffffffffffffffffffffffffffffff16815260200188815260200187815250909190915060008201518160000160006101000a81548173ffffffffffffffffffffffffffffffffffffffff021916908373ffffffffffffffffffffffffffffffffffffffff16021790555060208201518160010190805190602001906112af9291906139c1565b5060408201518160020190805190602001906112cc9291906139c1565b505050506001905098975050505050505050565b600080600e60003373ffffffffffffffffffffffffffffffffffffffff1673ffffffffffffffffffffffffffffffffffffffff16815260200190815260200160002060008573ffffffffffffffffffffffffffffffffffffffff1673ffffffffffffffffffffffffffffffffffffffff168152602001908152602001600020549050808311156113f1576000600e60003373ffffffffffffffffffffffffffffffffffffffff1673ffffffffffffffffffffffffffffffffffffffff16815260200190815260200160002060008673ffffffffffffffffffffffffffffffffffffffff1673ffffffffffffffffffffffffffffffffffffffff16815260200190815260200160002081905550611485565b6114048382612a7890919063ffffffff16565b600e60003373ffffffffffffffffffffffffffffffffffffffff1673ffffffffffffffffffffffffffffffffffffffff16815260200190815260200160002060008673ffffffffffffffffffffffffffffffffffffffff1673ffffffffffffffffffffffffffffffffffffffff168152602001908152602001600020819055505b8373ffffffffffffffffffffffffffffffffffffffff163373ffffffffffffffffffffffffffffffffffffffff167f8c5be1e5ebec7d5bd14f71427d1e84f3dd0314c0f7b2291e5b200ac8c7c3b925600e60003373ffffffffffffffffffffffffffffffffffffffff1673ffffffffffffffffffffffffffffffffffffffff16815260200190815260200160002060008873ffffffffffffffffffffffffffffffffffffffff1673ffffffffffffffffffffffffffffffffffffffff168152602001908152602001600020546040518082815260200191505060405180910390a3600191505092915050565b6000600c60003373ffffffffffffffffffffffffffffffffffffffff1673ffffffffffffffffffffffffffffffffffffffff168152602001908152602001600020541115156115bf57600080fd5b6000811115156115ce57600080fd5b6000601360003373ffffffffffffffffffffffffffffffffffffffff1673ffffffffffffffffffffffffffffffffffffffff1681526020019081526020016000206003015411156116bc57600c60003373ffffffffffffffffffffffffffffffffffffffff1673ffffffffffffffffffffffffffffffffffffffff1681526020019081526020016000205460176000601360003373ffffffffffffffffffffffffffffffffffffffff1673ffffffffffffffffffffffffffffffffffffffff168152602001908152602001600020600301548152602001908152602001600020600082825403925050819055505b80601360003373ffffffffffffffffffffffffffffffffffffffff1673ffffffffffffffffffffffffffffffffffffffff16815260200190815260200160002060030181905550600c60003373ffffffffffffffffffffffffffffffffffffffff1673ffffffffffffffffffffffffffffffffffffffff1681526020019081526020016000205460176000838152602001908152602001600020600082825401925050819055506019600301546017600083815260200190815260200160002054111561178e57806001600301819055505b50565b6000600c60008373ffffffffffffffffffffffffffffffffffffffff1673ffffffffffffffffffffffffffffffffffffffff168152602001908152602001600020549050919050565b60078060000154908060010154905082565b6000600c60003373ffffffffffffffffffffffffffffffffffffffff1673ffffffffffffffffffffffffffffffffffffffff1681526020019081526020016000205411151561183a57600080fd5b60008111151561184957600080fd5b6000601360003373ffffffffffffffffffffffffffffffffffffffff1673ffffffffffffffffffffffffffffffffffffffff16815260200190815260200160002060040154111561193757600c60003373ffffffffffffffffffffffffffffffffffffffff1673ffffffffffffffffffffffffffffffffffffffff1681526020019081526020016000205460186000601360003373ffffffffffffffffffffffffffffffffffffffff1673ffffffffffffffffffffffffffffffffffffffff168152602001908152602001600020600401548152602001908152602001600020600082825403925050819055505b80601360003373ffffffffffffffffffffffffffffffffffffffff1673ffffffffffffffffffffffffffffffffffffffff16815260200190815260200160002060040181905550600c60003373ffffffffffffffffffffffffffffffffffffffff1673ffffffffffffffffffffffffffffffffffffffff16815260200190815260200160002054601860008381526020019081526020016000206000828254019250508190555060196004015460186000838152602001908152602001600020541115611a0957806001600401819055505b50565b60108054600181600116156101000203166002900480601f016020809104026020016040519081016040528092919081815260200182805460018160011615610100020316600290048015611aa25780601f10611a7757610100808354040283529160200191611aa2565b820191906000526020600020905b815481529060010190602001808311611a8557829003601f168201915b505050505081565b60008073ffffffffffffffffffffffffffffffffffffffff168373ffffffffffffffffffffffffffffffffffffffff1614151515611ae757600080fd5b600c60003373ffffffffffffffffffffffffffffffffffffffff1673ffffffffffffffffffffffffffffffffffffffff168152602001908152602001600020548211151515611b3557600080fd5b611b8782600c60003373ffffffffffffffffffffffffffffffffffffffff1673ffffffffffffffffffffffffffffffffffffffff16815260200190815260200160002054612a7890919063ffffffff16565b600c60003373ffffffffffffffffffffffffffffffffffffffff1673ffffffffffffffffffffffffffffffffffffffff16815260200190815260200160002081905550611c1c82600c60008673ffffffffffffffffffffffffffffffffffffffff1673ffffffffffffffffffffffffffffffffffffffff16815260200190815260200160002054612a9190919063ffffffff16565b600c60008573ffffffffffffffffffffffffffffffffffffffff1673ffffffffffffffffffffffffffffffffffffffff168152602001908152602001600020819055508273ffffffffffffffffffffffffffffffffffffffff163373ffffffffffffffffffffffffffffffffffffffff167fddf252ad1be2c89b69c2b068fc378daa952ba7f163c4a11628f55a4df523b3ef846040518082815260200191505060405180910390a36001905092915050565b60005481565b6000600c60003373ffffffffffffffffffffffffffffffffffffffff1673ffffffffffffffffffffffffffffffffffffffff16815260200190815260200160002054111515611d2257600080fd5b600081111515611d3157600080fd5b6000601360003373ffffffffffffffffffffffffffffffffffffffff1673ffffffffffffffffffffffffffffffffffffffff168152602001908152602001600020600201541115611e1f57600c60003373ffffffffffffffffffffffffffffffffffffffff1673ffffffffffffffffffffffffffffffffffffffff1681526020019081526020016000205460166000601360003373ffffffffffffffffffffffffffffffffffffffff1673ffffffffffffffffffffffffffffffffffffffff168152602001908152602001600020600201548152602001908152602001600020600082825403925050819055505b80601360003373ffffffffffffffffffffffffffffffffffffffff1673ffffffffffffffffffffffffffffffffffffffff16815260200190815260200160002060020181905550600c60003373ffffffffffffffffffffffffffffffffffffffff1673ffffffffffffffffffffffffffffffffffffffff16815260200190815260200160002054601660008381526020019081526020016000206000828254019250508190555060196002015460166000838152602001908152602001600020541115611ef157806001600201819055505b50565b6000806000600960008681526020019081526020016000208054905084101515611f1d57600080fd5b600a600086815260200190815260200160002084815481101515611f3d57fe5b906000526020600020906003020160000160009054906101000a900473ffffffffffffffffffffffffffffffffffffffff1673ffffffffffffffffffffffffffffffffffffffff163373ffffffffffffffffffffffffffffffffffffffff16141515611fa857600080fd5b6009600086815260200190815260200160002084815481101515611fc857fe5b90600052602060002090600402016003015491506009600086815260200190815260200160002084815481101515611ffc57fe5b9060005260206000209060040201600101549050600960008681526020019081526020016000208481548110151561203057fe5b906000526020600020906004020160000160009054906101000a900460ff16156120b1573373ffffffffffffffffffffffffffffffffffffffff166108fc83600180015460016000015403840281151561208657fe5b049081150290604051600060405180830381858888f1935050505015156120ac57600080fd5b61210a565b3373ffffffffffffffffffffffffffffffffffffffff166108fc8360018001546001600001540384028115156120e357fe5b049081150290604051600060405180830381858888f19350505050151561210957600080fd5b5b600960008681526020019081526020016000208481548110151561212a57fe5b9060005260206000209060040201600080820160006101000a81549060ff02191690556001820160009055600282016000905560038201600090555050600a60008681526020019081526020016000208481548110151561218757fe5b9060005260206000209060030201600080820160006101000a81549073ffffffffffffffffffffffffffffffffffffffff02191690556001820160006121cd9190613a41565b6002820160006121dd9190613a41565b50506001600b868154811015156121f057fe5b90600052602060002090016000828254019250508190555061221185612aaf565b5060019250505092915050565b6000600c60003373ffffffffffffffffffffffffffffffffffffffff1673ffffffffffffffffffffffffffffffffffffffff1681526020019081526020016000205411151561226c57600080fd5b60008111151561227b57600080fd5b6000601360003373ffffffffffffffffffffffffffffffffffffffff1673ffffffffffffffffffffffffffffffffffffffff16815260200190815260200160002060000154111561236957600c60003373ffffffffffffffffffffffffffffffffffffffff1673ffffffffffffffffffffffffffffffffffffffff1681526020019081526020016000205460146000601360003373ffffffffffffffffffffffffffffffffffffffff1673ffffffffffffffffffffffffffffffffffffffff168152602001908152602001600020600001548152602001908152602001600020600082825403925050819055505b80601360003373ffffffffffffffffffffffffffffffffffffffff1673ffffffffffffffffffffffffffffffffffffffff16815260200190815260200160002060000181905550600c60003373ffffffffffffffffffffffffffffffffffffffff1673ffffffffffffffffffffffffffffffffffffffff1681526020019081526020016000205460146000838152602001908152602001600020600082825401925050819055506019600001546014600083815260200190815260200160002054111561243b57806001600001819055505b50565b6000600c60003373ffffffffffffffffffffffffffffffffffffffff1673ffffffffffffffffffffffffffffffffffffffff1681526020019081526020016000205411151561248c57600080fd5b60008111151561249b57600080fd5b6000601360003373ffffffffffffffffffffffffffffffffffffffff1673ffffffffffffffffffffffffffffffffffffffff16815260200190815260200160002060010154111561258957600c60003373ffffffffffffffffffffffffffffffffffffffff1673ffffffffffffffffffffffffffffffffffffffff1681526020019081526020016000205460156000601360003373ffffffffffffffffffffffffffffffffffffffff1673ffffffffffffffffffffffffffffffffffffffff168152602001908152602001600020600101548152602001908152602001600020600082825403925050819055505b80601360003373ffffffffffffffffffffffffffffffffffffffff1673ffffffffffffffffffffffffffffffffffffffff16815260200190815260200160002060010181905550600c60003373ffffffffffffffffffffffffffffffffffffffff1673ffffffffffffffffffffffffffffffffffffffff1681526020019081526020016000205460156000838152602001908152602001600020600082825401925050819055506019600101546015600083815260200190815260200160002054111561265a578060018001819055505b50565b60198060000154908060010154908060020154908060030154908060040154908060050154905086565b60018060000154908060010154908060020154908060030154908060040154908060050154905086565b6000806000806126c48989898989612cf9565b15156126d35760009350612785565b6126de888888612d97565b9250925060008214156126f45760009350612785565b60005482600160000154600160030154020281151561270f57fe5b0490508873ffffffffffffffffffffffffffffffffffffffff166108fc829081150290604051600060405180830381858888f19350505050151561275257600080fd5b61275c8183612ff0565b612769888888868661305c565b6127768888888686613494565b61277f88612aaf565b50600193505b50505095945050505050565b600061282282600e60003373ffffffffffffffffffffffffffffffffffffffff1673ffffffffffffffffffffffffffffffffffffffff16815260200190815260200160002060008673ffffffffffffffffffffffffffffffffffffffff1673ffffffffffffffffffffffffffffffffffffffff16815260200190815260200160002054612a9190919063ffffffff16565b600e60003373ffffffffffffffffffffffffffffffffffffffff1673ffffffffffffffffffffffffffffffffffffffff16815260200190815260200160002060008573ffffffffffffffffffffffffffffffffffffffff1673ffffffffffffffffffffffffffffffffffffffff168152602001908152602001600020819055508273ffffffffffffffffffffffffffffffffffffffff163373ffffffffffffffffffffffffffffffffffffffff167f8c5be1e5ebec7d5bd14f71427d1e84f3dd0314c0f7b2291e5b200ac8c7c3b925600e60003373ffffffffffffffffffffffffffffffffffffffff1673ffffffffffffffffffffffffffffffffffffffff16815260200190815260200160002060008773ffffffffffffffffffffffffffffffffffffffff1673ffffffffffffffffffffffffffffffffffffffff168152602001908152602001600020546040518082815260200191505060405180910390a36001905092915050565b600a602052816000526040600020818154811015156129a857fe5b9060005260206000209060030201600091509150508060000160009054906101000a900473ffffffffffffffffffffffffffffffffffffffff1690806001019080600201905083565b6000600e60008473ffffffffffffffffffffffffffffffffffffffff1673ffffffffffffffffffffffffffffffffffffffff16815260200190815260200160002060008373ffffffffffffffffffffffffffffffffffffffff1673ffffffffffffffffffffffffffffffffffffffff16815260200190815260200160002054905092915050565b6000828211151515612a8657fe5b818303905092915050565b6000808284019050838110151515612aa557fe5b8091505092915050565b600080600160020154600b84815481101515612ac757fe5b9060005260206000209001541015612ae25760009150612cf3565b600190505b6009600084815260200190815260200160002080549050811015612c7c5760006009600085815260200190815260200160002082815481101515612b2757fe5b9060005260206000209060040201600101541415612c6f576001600960008581526020019081526020016000208054905003811015612c6e576009600084815260200190815260200160002060018201815481101515612b8357fe5b90600052602060002090600402016009600085815260200190815260200160002082815481101515612bb157fe5b90600052602060002090600402016000820160009054906101000a900460ff168160000160006101000a81548160ff0219169083151502179055506001820154816001015560028201548160020155600382015481600301559050506009600084815260200190815260200160002060018201815481101515612c3057fe5b9060005260206000209060040201600080820160006101000a81549060ff021916905560018201600090556002820160009055600382016000905550505b5b8080600101915050612ae7565b600b83815481101515612c8b57fe5b9060005260206000209001546009600085815260200190815260200160002080549050036009600085815260200190815260200160002081612ccd9190613a89565b506000600b84815481101515612cdf57fe5b906000526020600020900181905550600191505b50919050565b60008585858585604051808673ffffffffffffffffffffffffffffffffffffffff1673ffffffffffffffffffffffffffffffffffffffff166c0100000000000000000000000002815260140185815260200184815260200183815260200182815260200195505050505050604051809103902060001916600160050154600019161115612d895760009050612d8e565b600190505b95945050505050565b600080600080612da5613abb565b612dad613abb565b612db88989896137e0565b1515612dd05760008081915080905095509550612fe4565b600960008a815260200190815260200160002088815481101515612df057fe5b906000526020600020906004020160000160009054906101000a900460ff1615612e1f57879350869250612e26565b8693508792505b600960008a815260200190815260200160002084815481101515612e4657fe5b9060005260206000209060040201608060405190810160405290816000820160009054906101000a900460ff1615151515815260200160018201548152602001600282015481526020016003820154815250509150600960008a815260200190815260200160002083815481101515612ebb57fe5b9060005260206000209060040201608060405190810160405290816000820160009054906101000a900460ff1615151515815260200160018201548152602001600282015481526020016003820154815250509050806060015182606001511015612f325760008081915080905095509550612fe4565b60028160600151836060015101811515612f4857fe5b049550858160200151026000548360200151021115612f9a57858160200151026000548360400151021115612f895760008081915080905095509550612fe4565b858682602001510295509550612fe4565b600054826020015102868260200151021115612fd957600054826020015102868260400151021115612fd85760008081915080905095509550612fe4565b5b858260200151955095505b50505050935093915050565b600054816001600001540281151561300457fe5b0460076000015403600760000181905550600054816001600001540281151561302957fe5b0482600760010154030160076001018190555060016004015460076001015410151561305857613057613946565b5b5050565b7f17fad608e647bf180e9f2d2542498a2ec81fb1cb077d60802b67b21d64adc9b8600a60008781526020019081526020016000208581548110151561309d57fe5b906000526020600020906003020160000160009054906101000a900473ffffffffffffffffffffffffffffffffffffffff16600a6000888152602001908152602001600020858154811015156130ef57fe5b906000526020600020906003020160000160009054906101000a900473ffffffffffffffffffffffffffffffffffffffff16600a60008981526020019081526020016000208781548110151561314157fe5b9060005260206000209060030201600101600a60008a81526020019081526020016000208781548110151561317257fe5b9060005260206000209060030201600101600a60008b8152602001908152602001600020898154811015156131a357fe5b9060005260206000209060030201600201600a60008c8152602001908152602001600020898154811015156131d457fe5b90600052602060002090600302016002018888604051808973ffffffffffffffffffffffffffffffffffffffff1673ffffffffffffffffffffffffffffffffffffffff1681526020018873ffffffffffffffffffffffffffffffffffffffff1673ffffffffffffffffffffffffffffffffffffffff1681526020018060200180602001806020018060200187815260200186815260200185810385528b8181546001816001161561010002031660029004815260200191508054600181600116156101000203166002900480156132ec5780601f106132c1576101008083540402835291602001916132ec565b820191906000526020600020905b8154815290600101906020018083116132cf57829003601f168201915b505085810384528a81815460018160011615610100020316600290048152602001915080546001816001161561010002031660029004801561336f5780601f106133445761010080835404028352916020019161336f565b820191906000526020600020905b81548152906001019060200180831161335257829003601f168201915b50508581038352898181546001816001161561010002031660029004815260200191508054600181600116156101000203166002900480156133f25780601f106133c7576101008083540402835291602001916133f2565b820191906000526020600020905b8154815290600101906020018083116133d557829003601f168201915b50508581038252888181546001816001161561010002031660029004815260200191508054600181600116156101000203166002900480156134755780601f1061344a57610100808354040283529160200191613475565b820191906000526020600020905b81548152906001019060200180831161345857829003601f168201915b50509c5050505050505050505050505060405180910390a15050505050565b60008060096000888152602001908152602001600020868154811015156134b757fe5b906000526020600020906004020160000160009054906101000a900460ff16156134e6578591508490506134ed565b8491508590505b82600960008981526020019081526020016000208381548110151561350e57fe5b9060005260206000209060040201600101541415613550576001600b8881548110151561353757fe5b9060005260206000209001600082825401925050819055505b82600960008981526020019081526020016000208381548110151561357157fe5b90600052602060002090600402016002015410156135c557600060096000898152602001908152602001600020838154811015156135ab57fe5b906000526020600020906004020160020181905550613605565b8260096000898152602001908152602001600020838154811015156135e657fe5b9060005260206000209060040201600201600082825403925050819055505b82600960008981526020019081526020016000208381548110151561362657fe5b90600052602060002090600402016001016000828254039250508190555060005484840281151561365357fe5b04600960008981526020019081526020016000208281548110151561367457fe5b90600052602060002090600402016001015414156136b6576001600b8881548110151561369d57fe5b9060005260206000209001600082825401925050819055505b6000548484028115156136c557fe5b0460096000898152602001908152602001600020828154811015156136e657fe5b906000526020600020906004020160020154101561373a576000600960008981526020019081526020016000208281548110151561372057fe5b906000526020600020906004020160020181905550613789565b60005484840281151561374957fe5b04600960008981526020019081526020016000208281548110151561376a57fe5b9060005260206000209060040201600201600082825403925050819055505b60005484840281151561379857fe5b0460096000898152602001908152602001600020828154811015156137b957fe5b90600052602060002090600402016001016000828254039250508190555050505050505050565b600060096000858152602001908152602001600020805490508310151561380657600080fd5b60096000858152602001908152602001600020805490508210151561382a57600080fd5b600960008581526020019081526020016000208281548110151561384a57fe5b906000526020600020906004020160000160009054906101000a900460ff161515600960008681526020019081526020016000208481548110151561388b57fe5b906000526020600020906004020160000160009054906101000a900460ff161515141515156138b957600080fd5b600060096000868152602001908152602001600020848154811015156138db57fe5b906000526020600020906004020160010154141515156138fa57600080fd5b6000600960008681526020019081526020016000208381548110151561391c57fe5b9060005260206000209060040201600101541415151561393b57600080fd5b600190509392505050565b61394e613950565b565b6000600760010181905550565b81548183558181151161398a576004028160040283600052602060002091820191016139899190613ae6565b5b505050565b8154818355818115116139bc576003028160030283600052602060002091820191016139bb9190613b31565b5b505050565b828054600181600116156101000203166002900490600052602060002090601f016020900481019282601f10613a0257805160ff1916838001178555613a30565b82800160010185558215613a30579182015b82811115613a2f578251825591602001919060010190613a14565b5b509050613a3d9190613b97565b5090565b50805460018160011615610100020316600290046000825580601f10613a675750613a86565b601f016020900490600052602060002090810190613a859190613b97565b5b50565b815481835581811511613ab657600402816004028360005260206000209182019101613ab59190613ae6565b5b505050565b6080604051908101604052806000151581526020016000815260200160008152602001600081525090565b613b2e91905b80821115613b2a57600080820160006101000a81549060ff021916905560018201600090556002820160009055600382016000905550600401613aec565b5090565b90565b613b9491905b80821115613b9057600080820160006101000a81549073ffffffffffffffffffffffffffffffffffffffff0219169055600182016000613b779190613a41565b600282016000613b879190613a41565b50600301613b37565b5090565b90565b613bb991905b80821115613bb5576000816000905550600101613b9d565b5090565b90565b856001600001819055508460018001819055508360016002018190555082600160030181905550816001600401819055508060016005018160001916905550505050505050565b6000600960008081526020019081526020016000208054806001018281613c2a919061395d565b9160005260206000209060040201600060806040519081016040528060001515815260200160008152602001600081526020016000815250909190915060008201518160000160006101000a81548160ff021916908315150217905550602082015181600101556040820151816002015560608201518160030155505050600a60008081526020019081526020016000208054806001018281613ccd919061398f565b91600052602060002090600302016000606060405190810160405280600073ffffffffffffffffffffffffffffffffffffffff168152602001602060405190810160405280600081525081526020016020604051908101604052806000815250815250909190915060008201518160000160006101000a81548173ffffffffffffffffffffffffffffffffffffffff021916908373ffffffffffffffffffffffffffffffffffffffff1602179055506020820151816001019080519060200190613d989291906139c1565b506040820151816002019080519060200190613db59291906139c1565b5050505060019050905600a165627a7a7230582054a5454fc3e3fea202689eb59ae920d7e1011e65afaf0220799d6df81c3a682b0029",
  "source": "pragma solidity ^0.4.18;\n\nimport 'zeppelin-solidity/contracts/token/ERC20/MintableToken.sol';\nimport 'zeppelin-solidity/contracts/math/SafeMath.sol';\nimport './Exchange.sol';\n\n\n/// @title ValexToken\n/// @author Karim Helmy\n\n// Parts sourced from https://github.com/bokkypoobah/Tokens/blob/master/contracts/FixedSupplyToken.sol\n\n// ----------------------------------------------------------------------------\n// 'VLX' 'Valex Token' token contract\n//\n// Symbol      : VLX\n// Name        : Valex Token\n// Total supply: 1,000,000.000000000000000000\n// Decimals    : 18\n//\n// ----------------------------------------------------------------------------\n\ncontract ValexToken is Exchange, StandardToken {\n    using SafeMath for uint;\n\n    string public name = \"Valex Token\";\n    string public symbol = \"VLX\";\n    uint8 public decimals = 18;\n\n    uint256 public initialSupply = 10000 * (10 ** uint256(decimals));\n\n    // Voting mappings\n    // Holds what every address has voted for\n    mapping (address => Parameters) voteBook;\n    // Hold frequencies of what addresses have voted for (in coin-votes)\n    mapping (uint => uint) closureFeeFreqs;\n    mapping (uint => uint) cancelFeeFreqs;\n    mapping (uint => uint) cleanSizeFreqs;\n    mapping (uint => uint) minerShareFreqs;\n    mapping (uint => uint) distBalanceFreqs;\n\n    // Thresholds to be met for each parameter adjustment\n    // TODO: add initialization for thresholds\n    // TODO: add meta-voting for thresholds (will always require 51%)\n    Parameters public thresholds;\n\n    // TODO: reset votes when tokens are transferred\n\n    /**\n     * @dev Constructor that gives msg.sender all of existing tokens.\n     * @dev Initializes token to have same parameters as exchange\n     */\n    function ValexToken(uint closureFee, uint cancelFee,\n                      uint cleanSize, uint minershare, uint distBalance,\n                      bytes32 difficulty)\n      Exchange(closureFee, cancelFee,\n              cleanSize, minershare, distBalance, difficulty)\n      public\n    {\n      totalSupply_ = initialSupply;\n      balances[msg.sender] = initialSupply;\n    }\n\n    // Distributes dividends when balance is of sufficient size\n    function distDividends()\n      internal\n    {\n      //TODO: Implement distribution\n      Exchange.distDividends();\n    }\n\n    // Voting functions for various parameters\n    // Solidity doesn't allow any meaningful abstraction\n    // Adjust relevant parameter if threshold met\n\n    // voting copy3\n    function voteClosureFee(uint desiredParam)\n      public\n    {\n      require(balances[msg.sender] > 0);\n      require(desiredParam > 0);\n      if (voteBook[msg.sender].closureFee > 0){\n        closureFeeFreqs[voteBook[msg.sender].closureFee] -= balances[msg.sender];\n      }\n      voteBook[msg.sender].closureFee = desiredParam;\n      closureFeeFreqs[desiredParam] += balances[msg.sender];\n      if (closureFeeFreqs[desiredParam] > thresholds.closureFee){\n        params.closureFee = desiredParam;\n      }\n    }\n\n    // voting copy3\n    function voteCancelFee(uint desiredParam)\n      public\n    {\n      require(balances[msg.sender] > 0);\n      require(desiredParam > 0);\n      if (voteBook[msg.sender].cancelFee > 0){\n        cancelFeeFreqs[voteBook[msg.sender].cancelFee] -= balances[msg.sender];\n      }\n      voteBook[msg.sender].cancelFee = desiredParam;\n      cancelFeeFreqs[desiredParam] += balances[msg.sender];\n      if (cancelFeeFreqs[desiredParam] > thresholds.cancelFee){\n        params.cancelFee = desiredParam;\n      }\n    }\n\n    // voting copy3\n    function voteCleanSize(uint desiredParam)\n      public\n    {\n      require(balances[msg.sender] > 0);\n      require(desiredParam > 0);\n      if (voteBook[msg.sender].cleanSize > 0){\n        cleanSizeFreqs[voteBook[msg.sender].cleanSize] -= balances[msg.sender];\n      }\n      voteBook[msg.sender].cleanSize = desiredParam;\n      cleanSizeFreqs[desiredParam] += balances[msg.sender];\n      if (cleanSizeFreqs[desiredParam] > thresholds.cleanSize){\n        params.cleanSize = desiredParam;\n      }\n    }\n\n    // voting copy3\n    function voteMinerShare(uint desiredParam)\n      public\n    {\n      require(balances[msg.sender] > 0);\n      require(desiredParam > 0);\n      if (voteBook[msg.sender].minerShare > 0){\n        minerShareFreqs[voteBook[msg.sender].minerShare] -= balances[msg.sender];\n      }\n      voteBook[msg.sender].minerShare = desiredParam;\n      minerShareFreqs[desiredParam] += balances[msg.sender];\n      if (minerShareFreqs[desiredParam] > thresholds.minerShare){\n        params.minerShare = desiredParam;\n      }\n    }\n\n    // voting copy3\n    function voteDistBalance(uint desiredParam)\n      public\n    {\n      require(balances[msg.sender] > 0);\n      require(desiredParam > 0);\n      if (voteBook[msg.sender].distBalance > 0){\n        distBalanceFreqs[voteBook[msg.sender].distBalance] -= balances[msg.sender];\n      }\n      voteBook[msg.sender].distBalance = desiredParam;\n      distBalanceFreqs[desiredParam] += balances[msg.sender];\n      if (distBalanceFreqs[desiredParam] > thresholds.distBalance){\n        params.distBalance = desiredParam;\n      }\n    }\n\n    // TODO: Implement adding/removing chapters\n\n    // TODO: NEXT VERSION: Add vote transferring\n\n}\n",
  "sourcePath": "/Users/Karim/Desktop/Valex/contracts/ValexToken.sol",
  "compiler": {
    "name": "solc",
    "version": "0.4.18+commit.9cf6e910.Emscripten.clang"
  },
  "schemaVersion": "1.0.1",
  "updatedAt": "2018-02-16T04:04:06.708Z"
}