{
  "contractName": "ValexToken",
  "abi": [
    {
      "constant": true,
      "inputs": [],
      "name": "name",
      "outputs": [
        {
          "name": "",
          "type": "string"
        }
      ],
      "payable": false,
      "stateMutability": "view",
      "type": "function"
    },
    {
      "constant": false,
      "inputs": [
        {
          "name": "_spender",
          "type": "address"
        },
        {
          "name": "_value",
          "type": "uint256"
        }
      ],
      "name": "approve",
      "outputs": [
        {
          "name": "",
          "type": "bool"
        }
      ],
      "payable": false,
      "stateMutability": "nonpayable",
      "type": "function"
    },
    {
      "constant": true,
      "inputs": [
        {
          "name": "",
          "type": "uint256"
        },
        {
          "name": "",
          "type": "uint256"
        }
      ],
      "name": "orderBook",
      "outputs": [
        {
          "name": "buyETH",
          "type": "bool"
        },
        {
          "name": "volume",
          "type": "uint256"
        },
        {
          "name": "minVolume",
          "type": "uint256"
        },
        {
          "name": "limit",
          "type": "uint256"
        }
      ],
      "payable": false,
      "stateMutability": "view",
      "type": "function"
    },
    {
      "constant": true,
      "inputs": [],
      "name": "totalSupply",
      "outputs": [
        {
          "name": "",
          "type": "uint256"
        }
      ],
      "payable": false,
      "stateMutability": "view",
      "type": "function"
    },
    {
      "constant": false,
      "inputs": [
        {
          "name": "_from",
          "type": "address"
        },
        {
          "name": "_to",
          "type": "address"
        },
        {
          "name": "_value",
          "type": "uint256"
        }
      ],
      "name": "transferFrom",
      "outputs": [
        {
          "name": "",
          "type": "bool"
        }
      ],
      "payable": false,
      "stateMutability": "nonpayable",
      "type": "function"
    },
    {
      "constant": true,
      "inputs": [],
      "name": "decimals",
      "outputs": [
        {
          "name": "",
          "type": "uint8"
        }
      ],
      "payable": false,
      "stateMutability": "view",
      "type": "function"
    },
    {
      "constant": true,
      "inputs": [],
      "name": "initialSupply",
      "outputs": [
        {
          "name": "",
          "type": "uint256"
        }
      ],
      "payable": false,
      "stateMutability": "view",
      "type": "function"
    },
    {
      "constant": false,
      "inputs": [
        {
          "name": "buyETH",
          "type": "bool"
        },
        {
          "name": "volume",
          "type": "uint256"
        },
        {
          "name": "minVolume",
          "type": "uint256"
        },
        {
          "name": "limit",
          "type": "uint256"
        },
        {
          "name": "ethAddress",
          "type": "address"
        },
        {
          "name": "firstAddress",
          "type": "string"
        },
        {
          "name": "otherAddress",
          "type": "string"
        },
        {
          "name": "chapter",
          "type": "uint256"
        }
      ],
      "name": "placeOrder",
      "outputs": [
        {
          "name": "accepted",
          "type": "bool"
        }
      ],
      "payable": true,
      "stateMutability": "payable",
      "type": "function"
    },
    {
      "constant": false,
      "inputs": [
        {
          "name": "chapter",
          "type": "uint256"
        },
        {
          "name": "index1",
          "type": "uint256"
        },
        {
          "name": "index2",
          "type": "uint256"
        },
        {
          "name": "nonce",
          "type": "bytes32"
        },
        {
          "name": "hashVal",
          "type": "uint256"
        }
      ],
      "name": "giveMatch",
      "outputs": [
        {
          "name": "isValid",
          "type": "bool"
        }
      ],
      "payable": true,
      "stateMutability": "payable",
      "type": "function"
    },
    {
      "constant": false,
      "inputs": [
        {
          "name": "_spender",
          "type": "address"
        },
        {
          "name": "_subtractedValue",
          "type": "uint256"
        }
      ],
      "name": "decreaseApproval",
      "outputs": [
        {
          "name": "",
          "type": "bool"
        }
      ],
      "payable": false,
      "stateMutability": "nonpayable",
      "type": "function"
    },
    {
      "constant": false,
      "inputs": [
        {
          "name": "desiredParam",
          "type": "uint256"
        }
      ],
      "name": "voteMinerShare",
      "outputs": [],
      "payable": false,
      "stateMutability": "nonpayable",
      "type": "function"
    },
    {
      "constant": true,
      "inputs": [
        {
          "name": "_owner",
          "type": "address"
        }
      ],
      "name": "balanceOf",
      "outputs": [
        {
          "name": "balance",
          "type": "uint256"
        }
      ],
      "payable": false,
      "stateMutability": "view",
      "type": "function"
    },
    {
      "constant": true,
      "inputs": [],
      "name": "exBalances",
      "outputs": [
        {
          "name": "openBalance",
          "type": "uint256"
        },
        {
          "name": "closedBalance",
          "type": "uint256"
        }
      ],
      "payable": false,
      "stateMutability": "view",
      "type": "function"
    },
    {
      "constant": false,
      "inputs": [
        {
          "name": "desiredParam",
          "type": "uint256"
        }
      ],
      "name": "voteDistBalance",
      "outputs": [],
      "payable": false,
      "stateMutability": "nonpayable",
      "type": "function"
    },
    {
      "constant": true,
      "inputs": [],
      "name": "symbol",
      "outputs": [
        {
          "name": "",
          "type": "string"
        }
      ],
      "payable": false,
      "stateMutability": "view",
      "type": "function"
    },
    {
      "constant": false,
      "inputs": [
        {
          "name": "_to",
          "type": "address"
        },
        {
          "name": "_value",
          "type": "uint256"
        }
      ],
      "name": "transfer",
      "outputs": [
        {
          "name": "",
          "type": "bool"
        }
      ],
      "payable": false,
      "stateMutability": "nonpayable",
      "type": "function"
    },
    {
      "constant": false,
      "inputs": [
        {
          "name": "desiredParam",
          "type": "uint256"
        }
      ],
      "name": "voteCleanSize",
      "outputs": [],
      "payable": false,
      "stateMutability": "nonpayable",
      "type": "function"
    },
    {
      "constant": false,
      "inputs": [
        {
          "name": "chapter",
          "type": "uint256"
        },
        {
          "name": "index",
          "type": "uint256"
        }
      ],
      "name": "cancelOrder",
      "outputs": [
        {
          "name": "accepted",
          "type": "bool"
        }
      ],
      "payable": false,
      "stateMutability": "nonpayable",
      "type": "function"
    },
    {
      "constant": false,
      "inputs": [
        {
          "name": "desiredParam",
          "type": "uint256"
        }
      ],
      "name": "voteClosureFee",
      "outputs": [],
      "payable": false,
      "stateMutability": "nonpayable",
      "type": "function"
    },
    {
      "constant": false,
      "inputs": [
        {
          "name": "desiredParam",
          "type": "uint256"
        }
      ],
      "name": "voteCancelFee",
      "outputs": [],
      "payable": false,
      "stateMutability": "nonpayable",
      "type": "function"
    },
    {
      "constant": true,
      "inputs": [],
      "name": "thresholds",
      "outputs": [
        {
          "name": "closureFeePerUnit",
          "type": "uint256"
        },
        {
          "name": "cancelFeePerUnit",
          "type": "uint256"
        },
        {
          "name": "cleanSize",
          "type": "uint256"
        },
        {
          "name": "minerShare",
          "type": "uint256"
        },
        {
          "name": "distBalance",
          "type": "uint256"
        }
      ],
      "payable": false,
      "stateMutability": "view",
      "type": "function"
    },
    {
      "constant": true,
      "inputs": [],
      "name": "params",
      "outputs": [
        {
          "name": "closureFeePerUnit",
          "type": "uint256"
        },
        {
          "name": "cancelFeePerUnit",
          "type": "uint256"
        },
        {
          "name": "cleanSize",
          "type": "uint256"
        },
        {
          "name": "minerShare",
          "type": "uint256"
        },
        {
          "name": "distBalance",
          "type": "uint256"
        }
      ],
      "payable": false,
      "stateMutability": "view",
      "type": "function"
    },
    {
      "constant": false,
      "inputs": [
        {
          "name": "_spender",
          "type": "address"
        },
        {
          "name": "_addedValue",
          "type": "uint256"
        }
      ],
      "name": "increaseApproval",
      "outputs": [
        {
          "name": "",
          "type": "bool"
        }
      ],
      "payable": false,
      "stateMutability": "nonpayable",
      "type": "function"
    },
    {
      "constant": true,
      "inputs": [
        {
          "name": "",
          "type": "uint256"
        },
        {
          "name": "",
          "type": "uint256"
        }
      ],
      "name": "addressBook",
      "outputs": [
        {
          "name": "ethAddress",
          "type": "address"
        },
        {
          "name": "firstAddress",
          "type": "string"
        },
        {
          "name": "otherAddress",
          "type": "string"
        }
      ],
      "payable": false,
      "stateMutability": "view",
      "type": "function"
    },
    {
      "constant": true,
      "inputs": [
        {
          "name": "_owner",
          "type": "address"
        },
        {
          "name": "_spender",
          "type": "address"
        }
      ],
      "name": "allowance",
      "outputs": [
        {
          "name": "",
          "type": "uint256"
        }
      ],
      "payable": false,
      "stateMutability": "view",
      "type": "function"
    },
    {
      "inputs": [
        {
          "name": "closureFeePerUnit",
          "type": "uint256"
        },
        {
          "name": "cancelFeePerUnit",
          "type": "uint256"
        },
        {
          "name": "cleanSize",
          "type": "uint256"
        },
        {
          "name": "minershare",
          "type": "uint256"
        },
        {
          "name": "distBalance",
          "type": "uint256"
        }
      ],
      "payable": false,
      "stateMutability": "nonpayable",
      "type": "constructor"
    },
    {
      "anonymous": false,
      "inputs": [
        {
          "indexed": true,
          "name": "owner",
          "type": "address"
        },
        {
          "indexed": true,
          "name": "spender",
          "type": "address"
        },
        {
          "indexed": false,
          "name": "value",
          "type": "uint256"
        }
      ],
      "name": "Approval",
      "type": "event"
    },
    {
      "anonymous": false,
      "inputs": [
        {
          "indexed": true,
          "name": "from",
          "type": "address"
        },
        {
          "indexed": true,
          "name": "to",
          "type": "address"
        },
        {
          "indexed": false,
          "name": "value",
          "type": "uint256"
        }
      ],
      "name": "Transfer",
      "type": "event"
    },
    {
      "anonymous": false,
      "inputs": [
        {
          "indexed": false,
          "name": "ethAddress1",
          "type": "address"
        },
        {
          "indexed": false,
          "name": "ethAddress2",
          "type": "address"
        },
        {
          "indexed": false,
          "name": "firstAddress1",
          "type": "string"
        },
        {
          "indexed": false,
          "name": "firstAddress2",
          "type": "string"
        },
        {
          "indexed": false,
          "name": "otherAddress1",
          "type": "string"
        },
        {
          "indexed": false,
          "name": "otherAddress2",
          "type": "string"
        },
        {
          "indexed": false,
          "name": "mimRate",
          "type": "uint256"
        },
        {
          "indexed": false,
          "name": "ethVol",
          "type": "uint256"
        }
      ],
      "name": "TradeInfo",
      "type": "event"
    }
  ],
  "bytecode": "0x60606040526040805190810160405280600b81526020017f56616c657820546f6b656e000000000000000000000000000000000000000000815250600d908051906020019062000051929190620003f4565b506040805190810160405280600381526020017f564c580000000000000000000000000000000000000000000000000000000000815250600e90805190602001906200009f929190620003f4565b506012600f60006101000a81548160ff021916908360ff160217905550600f60009054906101000a900460ff1660ff16600a0a612710026010553415620000e557600080fd5b60405160a0806200443c8339810160405280805190602001909190805190602001909190805190602001909190805190602001909190805190602001909190505084848484846200014e8585858585620001f76401000000000262003b41176401000000009004565b6200016c6200022f6401000000000262003b79176401000000009004565b50600980548060010182816200018391906200047b565b9160005260206000209001600080909190915055505050505050601054600b81905550601054600a60003373ffffffffffffffffffffffffffffffffffffffff1673ffffffffffffffffffffffffffffffffffffffff168152602001908152602001600020819055505050505050620006ca565b846000800181905550836000600101819055508260006002018190555081600060030181905550806000600401819055505050505050565b6000600760008081526020019081526020016000208054806001018281620002589190620004aa565b9160005260206000209060040201600060806040519081016040528060001515815260200160008152602001600081526020016000815250909190915060008201518160000160006101000a81548160ff021916908315150217905550602082015181600101556040820151816002015560608201518160030155505050600860008081526020019081526020016000208054806001018281620002fd9190620004df565b91600052602060002090600302016000606060405190810160405280600073ffffffffffffffffffffffffffffffffffffffff168152602001602060405190810160405280600081525081526020016020604051908101604052806000815250815250909190915060008201518160000160006101000a81548173ffffffffffffffffffffffffffffffffffffffff021916908373ffffffffffffffffffffffffffffffffffffffff1602179055506020820151816001019080519060200190620003ca92919062000514565b506040820151816002019080519060200190620003e992919062000514565b505050506001905090565b828054600181600116156101000203166002900490600052602060002090601f016020900481019282601f106200043757805160ff191683800117855562000468565b8280016001018555821562000468579182015b82811115620004675782518255916020019190600101906200044a565b5b5090506200047791906200059b565b5090565b815481835581811511620004a557818360005260206000209182019101620004a491906200059b565b5b505050565b815481835581811511620004da57600402816004028360005260206000209182019101620004d99190620005c3565b5b505050565b8154818355818115116200050f576003028160030283600052602060002091820191016200050e919062000611565b5b505050565b828054600181600116156101000203166002900490600052602060002090601f016020900481019282601f106200055757805160ff191683800117855562000588565b8280016001018555821562000588579182015b82811115620005875782518255916020019190600101906200056a565b5b5090506200059791906200059b565b5090565b620005c091905b80821115620005bc576000816000905550600101620005a2565b5090565b90565b6200060e91905b808211156200060a57600080820160006101000a81549060ff021916905560018201600090556002820160009055600382016000905550600401620005ca565b5090565b90565b6200067b91905b808211156200067757600080820160006101000a81549073ffffffffffffffffffffffffffffffffffffffff02191690556001820160006200065b91906200067e565b6002820160006200066d91906200067e565b5060030162000618565b5090565b90565b50805460018160011615610100020316600290046000825580601f10620006a65750620006c7565b601f016020900490600052602060002090810190620006c691906200059b565b5b50565b613d6280620006da6000396000f300606060405260043610610149576000357c0100000000000000000000000000000000000000000000000000000000900463ffffffff16806306fdde031461014e578063095ea7b3146101dc57806314974f461461023657806318160ddd1461028f57806323b872dd146102b8578063313ce56714610331578063378dc3dc146103605780634aed275c146103895780635a1f63931461048457806366188463146104dc57806369f99f801461053657806370a0823114610559578063737f02af146105a65780637db23c05146105d657806395d89b41146105f9578063a9059cbb14610687578063af87439e146106e1578063b6ed063214610704578063c932aa7b14610748578063ca7f74ea1461076b578063cda43b3a1461078e578063cff0ab96146107d3578063d73dd62314610818578063da92b7c114610872578063dd62ed3e146109f0575b600080fd5b341561015957600080fd5b610161610a5c565b6040518080602001828103825283818151815260200191508051906020019080838360005b838110156101a1578082015181840152602081019050610186565b50505050905090810190601f1680156101ce5780820380516001836020036101000a031916815260200191505b509250505060405180910390f35b34156101e757600080fd5b61021c600480803573ffffffffffffffffffffffffffffffffffffffff16906020019091908035906020019091905050610afa565b604051808215151515815260200191505060405180910390f35b341561024157600080fd5b6102606004808035906020019091908035906020019091905050610bec565b604051808515151515815260200184815260200183815260200182815260200194505050505060405180910390f35b341561029a57600080fd5b6102a2610c45565b6040518082815260200191505060405180910390f35b34156102c357600080fd5b610317600480803573ffffffffffffffffffffffffffffffffffffffff1690602001909190803573ffffffffffffffffffffffffffffffffffffffff16906020019091908035906020019091905050610c4f565b604051808215151515815260200191505060405180910390f35b341561033c57600080fd5b61034461100e565b604051808260ff1660ff16815260200191505060405180910390f35b341561036b57600080fd5b610373611021565b6040518082815260200191505060405180910390f35b61046a6004808035151590602001909190803590602001909190803590602001909190803590602001909190803573ffffffffffffffffffffffffffffffffffffffff1690602001909190803590602001908201803590602001908080601f0160208091040260200160405190810160405280939291908181526020018383808284378201915050505050509190803590602001908201803590602001908080601f01602080910402602001604051908101604052809392919081815260200183838082843782019150505050505091908035906020019091905050611027565b604051808215151515815260200191505060405180910390f35b6104c2600480803590602001909190803590602001909190803590602001909190803560001916906020019091908035906020019091905050611260565b604051808215151515815260200191505060405180910390f35b34156104e757600080fd5b61051c600480803573ffffffffffffffffffffffffffffffffffffffff16906020019091908035906020019091905050611346565b604051808215151515815260200191505060405180910390f35b341561054157600080fd5b61055760048080359060200190919050506115d7565b005b341561056457600080fd5b610590600480803573ffffffffffffffffffffffffffffffffffffffff169060200190919050506117f7565b6040518082815260200191505060405180910390f35b34156105b157600080fd5b6105b9611840565b604051808381526020018281526020019250505060405180910390f35b34156105e157600080fd5b6105f76004808035906020019091905050611852565b005b341561060457600080fd5b61060c611a72565b6040518080602001828103825283818151815260200191508051906020019080838360005b8381101561064c578082015181840152602081019050610631565b50505050905090810190601f1680156106795780820380516001836020036101000a031916815260200191505b509250505060405180910390f35b341561069257600080fd5b6106c7600480803573ffffffffffffffffffffffffffffffffffffffff16906020019091908035906020019091905050611b10565b604051808215151515815260200191505060405180910390f35b34156106ec57600080fd5b6107026004808035906020019091905050611d34565b005b341561070f57600080fd5b61072e6004808035906020019091908035906020019091905050611f54565b604051808215151515815260200191505060405180910390f35b341561075357600080fd5b610769600480803590602001909190505061227e565b005b341561077657600080fd5b61078c600480803590602001909190505061249d565b005b341561079957600080fd5b6107a16126bd565b604051808681526020018581526020018481526020018381526020018281526020019550505050505060405180910390f35b34156107de57600080fd5b6107e66126e1565b604051808681526020018581526020018481526020018381526020018281526020019550505050505060405180910390f35b341561082357600080fd5b610858600480803573ffffffffffffffffffffffffffffffffffffffff16906020019091908035906020019091905050612705565b604051808215151515815260200191505060405180910390f35b341561087d57600080fd5b61089c6004808035906020019091908035906020019091905050612901565b604051808473ffffffffffffffffffffffffffffffffffffffff1673ffffffffffffffffffffffffffffffffffffffff168152602001806020018060200183810383528581815460018160011615610100020316600290048152602001915080546001816001161561010002031660029004801561095b5780601f106109305761010080835404028352916020019161095b565b820191906000526020600020905b81548152906001019060200180831161093e57829003601f168201915b50508381038252848181546001816001161561010002031660029004815260200191508054600181600116156101000203166002900480156109de5780601f106109b3576101008083540402835291602001916109de565b820191906000526020600020905b8154815290600101906020018083116109c157829003601f168201915b50509550505050505060405180910390f35b34156109fb57600080fd5b610a46600480803573ffffffffffffffffffffffffffffffffffffffff1690602001909190803573ffffffffffffffffffffffffffffffffffffffff16906020019091905050612965565b6040518082815260200191505060405180910390f35b600d8054600181600116156101000203166002900480601f016020809104026020016040519081016040528092919081815260200182805460018160011615610100020316600290048015610af25780601f10610ac757610100808354040283529160200191610af2565b820191906000526020600020905b815481529060010190602001808311610ad557829003601f168201915b505050505081565b600081600c60003373ffffffffffffffffffffffffffffffffffffffff1673ffffffffffffffffffffffffffffffffffffffff16815260200190815260200160002060008573ffffffffffffffffffffffffffffffffffffffff1673ffffffffffffffffffffffffffffffffffffffff168152602001908152602001600020819055508273ffffffffffffffffffffffffffffffffffffffff163373ffffffffffffffffffffffffffffffffffffffff167f8c5be1e5ebec7d5bd14f71427d1e84f3dd0314c0f7b2291e5b200ac8c7c3b925846040518082815260200191505060405180910390a36001905092915050565b600760205281600052604060002081815481101515610c0757fe5b9060005260206000209060040201600091509150508060000160009054906101000a900460ff16908060010154908060020154908060030154905084565b6000600b54905090565b60008073ffffffffffffffffffffffffffffffffffffffff168373ffffffffffffffffffffffffffffffffffffffff1614151515610c8c57600080fd5b600a60008573ffffffffffffffffffffffffffffffffffffffff1673ffffffffffffffffffffffffffffffffffffffff168152602001908152602001600020548211151515610cda57600080fd5b600c60008573ffffffffffffffffffffffffffffffffffffffff1673ffffffffffffffffffffffffffffffffffffffff16815260200190815260200160002060003373ffffffffffffffffffffffffffffffffffffffff1673ffffffffffffffffffffffffffffffffffffffff168152602001908152602001600020548211151515610d6557600080fd5b610db782600a60008773ffffffffffffffffffffffffffffffffffffffff1673ffffffffffffffffffffffffffffffffffffffff168152602001908152602001600020546129ec90919063ffffffff16565b600a60008673ffffffffffffffffffffffffffffffffffffffff1673ffffffffffffffffffffffffffffffffffffffff16815260200190815260200160002081905550610e4c82600a60008673ffffffffffffffffffffffffffffffffffffffff1673ffffffffffffffffffffffffffffffffffffffff16815260200190815260200160002054612a0590919063ffffffff16565b600a60008573ffffffffffffffffffffffffffffffffffffffff1673ffffffffffffffffffffffffffffffffffffffff16815260200190815260200160002081905550610f1e82600c60008773ffffffffffffffffffffffffffffffffffffffff1673ffffffffffffffffffffffffffffffffffffffff16815260200190815260200160002060003373ffffffffffffffffffffffffffffffffffffffff1673ffffffffffffffffffffffffffffffffffffffff168152602001908152602001600020546129ec90919063ffffffff16565b600c60008673ffffffffffffffffffffffffffffffffffffffff1673ffffffffffffffffffffffffffffffffffffffff16815260200190815260200160002060003373ffffffffffffffffffffffffffffffffffffffff1673ffffffffffffffffffffffffffffffffffffffff168152602001908152602001600020819055508273ffffffffffffffffffffffffffffffffffffffff168473ffffffffffffffffffffffffffffffffffffffff167fddf252ad1be2c89b69c2b068fc378daa952ba7f163c4a11628f55a4df523b3ef846040518082815260200191505060405180910390a3600190509392505050565b600f60009054906101000a900460ff1681565b60105481565b6000808811151561103757600080fd5b60008711151561104657600080fd5b86881015151561105557600080fd5b60008611151561106457600080fd5b881561108657600080015488023487021015151561108157600080fd5b61109c565b60008001548802341015151561109b57600080fd5b5b600060076000848152602001908152602001600020805490501115156110c157600080fd5b6007600083815260200190815260200160002080548060010182816110e691906138e2565b916000526020600020906004020160006080604051908101604052808d151581526020018c81526020018b81526020018a815250909190915060008201518160000160006101000a81548160ff0219169083151502179055506020820151816001015560408201518160020155606082015181600301555050506008600083815260200190815260200160002080548060010182816111859190613914565b916000526020600020906003020160006060604051908101604052808973ffffffffffffffffffffffffffffffffffffffff16815260200188815260200187815250909190915060008201518160000160006101000a81548173ffffffffffffffffffffffffffffffffffffffff021916908373ffffffffffffffffffffffffffffffffffffffff160217905550602082015181600101908051906020019061122f929190613946565b50604082015181600201908051906020019061124c929190613946565b505050506001905098975050505050505050565b600080600080611274338a8a8a8a8a612a23565b1515611283576000935061133a565b61128e898989612abe565b9250925060008214156112a4576000935061133a565b670de0b6b3a764000082600080015460006003015402028115156112c457fe5b0490503373ffffffffffffffffffffffffffffffffffffffff166108fc829081150290604051600060405180830381858888f19350505050151561130757600080fd5b6113118183612d2f565b61131e8989898686612d7f565b61132b89898986866131b7565b6113348961351b565b50600193505b50505095945050505050565b600080600c60003373ffffffffffffffffffffffffffffffffffffffff1673ffffffffffffffffffffffffffffffffffffffff16815260200190815260200160002060008573ffffffffffffffffffffffffffffffffffffffff1673ffffffffffffffffffffffffffffffffffffffff16815260200190815260200160002054905080831115611457576000600c60003373ffffffffffffffffffffffffffffffffffffffff1673ffffffffffffffffffffffffffffffffffffffff16815260200190815260200160002060008673ffffffffffffffffffffffffffffffffffffffff1673ffffffffffffffffffffffffffffffffffffffff168152602001908152602001600020819055506114eb565b61146a83826129ec90919063ffffffff16565b600c60003373ffffffffffffffffffffffffffffffffffffffff1673ffffffffffffffffffffffffffffffffffffffff16815260200190815260200160002060008673ffffffffffffffffffffffffffffffffffffffff1673ffffffffffffffffffffffffffffffffffffffff168152602001908152602001600020819055505b8373ffffffffffffffffffffffffffffffffffffffff163373ffffffffffffffffffffffffffffffffffffffff167f8c5be1e5ebec7d5bd14f71427d1e84f3dd0314c0f7b2291e5b200ac8c7c3b925600c60003373ffffffffffffffffffffffffffffffffffffffff1673ffffffffffffffffffffffffffffffffffffffff16815260200190815260200160002060008873ffffffffffffffffffffffffffffffffffffffff1673ffffffffffffffffffffffffffffffffffffffff168152602001908152602001600020546040518082815260200191505060405180910390a3600191505092915050565b6000600a60003373ffffffffffffffffffffffffffffffffffffffff1673ffffffffffffffffffffffffffffffffffffffff1681526020019081526020016000205411151561162557600080fd5b60008111151561163457600080fd5b6000601160003373ffffffffffffffffffffffffffffffffffffffff1673ffffffffffffffffffffffffffffffffffffffff16815260200190815260200160002060030154111561172257600a60003373ffffffffffffffffffffffffffffffffffffffff1673ffffffffffffffffffffffffffffffffffffffff1681526020019081526020016000205460156000601160003373ffffffffffffffffffffffffffffffffffffffff1673ffffffffffffffffffffffffffffffffffffffff168152602001908152602001600020600301548152602001908152602001600020600082825403925050819055505b80601160003373ffffffffffffffffffffffffffffffffffffffff1673ffffffffffffffffffffffffffffffffffffffff16815260200190815260200160002060030181905550600a60003373ffffffffffffffffffffffffffffffffffffffff1673ffffffffffffffffffffffffffffffffffffffff168152602001908152602001600020546015600083815260200190815260200160002060008282540192505081905550601760030154601560008381526020019081526020016000205411156117f457806000600301819055505b50565b6000600a60008373ffffffffffffffffffffffffffffffffffffffff1673ffffffffffffffffffffffffffffffffffffffff168152602001908152602001600020549050919050565b60058060000154908060010154905082565b6000600a60003373ffffffffffffffffffffffffffffffffffffffff1673ffffffffffffffffffffffffffffffffffffffff168152602001908152602001600020541115156118a057600080fd5b6000811115156118af57600080fd5b6000601160003373ffffffffffffffffffffffffffffffffffffffff1673ffffffffffffffffffffffffffffffffffffffff16815260200190815260200160002060040154111561199d57600a60003373ffffffffffffffffffffffffffffffffffffffff1673ffffffffffffffffffffffffffffffffffffffff1681526020019081526020016000205460166000601160003373ffffffffffffffffffffffffffffffffffffffff1673ffffffffffffffffffffffffffffffffffffffff168152602001908152602001600020600401548152602001908152602001600020600082825403925050819055505b80601160003373ffffffffffffffffffffffffffffffffffffffff1673ffffffffffffffffffffffffffffffffffffffff16815260200190815260200160002060040181905550600a60003373ffffffffffffffffffffffffffffffffffffffff1673ffffffffffffffffffffffffffffffffffffffff16815260200190815260200160002054601660008381526020019081526020016000206000828254019250508190555060176004015460166000838152602001908152602001600020541115611a6f57806000600401819055505b50565b600e8054600181600116156101000203166002900480601f016020809104026020016040519081016040528092919081815260200182805460018160011615610100020316600290048015611b085780601f10611add57610100808354040283529160200191611b08565b820191906000526020600020905b815481529060010190602001808311611aeb57829003601f168201915b505050505081565b60008073ffffffffffffffffffffffffffffffffffffffff168373ffffffffffffffffffffffffffffffffffffffff1614151515611b4d57600080fd5b600a60003373ffffffffffffffffffffffffffffffffffffffff1673ffffffffffffffffffffffffffffffffffffffff168152602001908152602001600020548211151515611b9b57600080fd5b611bed82600a60003373ffffffffffffffffffffffffffffffffffffffff1673ffffffffffffffffffffffffffffffffffffffff168152602001908152602001600020546129ec90919063ffffffff16565b600a60003373ffffffffffffffffffffffffffffffffffffffff1673ffffffffffffffffffffffffffffffffffffffff16815260200190815260200160002081905550611c8282600a60008673ffffffffffffffffffffffffffffffffffffffff1673ffffffffffffffffffffffffffffffffffffffff16815260200190815260200160002054612a0590919063ffffffff16565b600a60008573ffffffffffffffffffffffffffffffffffffffff1673ffffffffffffffffffffffffffffffffffffffff168152602001908152602001600020819055508273ffffffffffffffffffffffffffffffffffffffff163373ffffffffffffffffffffffffffffffffffffffff167fddf252ad1be2c89b69c2b068fc378daa952ba7f163c4a11628f55a4df523b3ef846040518082815260200191505060405180910390a36001905092915050565b6000600a60003373ffffffffffffffffffffffffffffffffffffffff1673ffffffffffffffffffffffffffffffffffffffff16815260200190815260200160002054111515611d8257600080fd5b600081111515611d9157600080fd5b6000601160003373ffffffffffffffffffffffffffffffffffffffff1673ffffffffffffffffffffffffffffffffffffffff168152602001908152602001600020600201541115611e7f57600a60003373ffffffffffffffffffffffffffffffffffffffff1673ffffffffffffffffffffffffffffffffffffffff1681526020019081526020016000205460146000601160003373ffffffffffffffffffffffffffffffffffffffff1673ffffffffffffffffffffffffffffffffffffffff168152602001908152602001600020600201548152602001908152602001600020600082825403925050819055505b80601160003373ffffffffffffffffffffffffffffffffffffffff1673ffffffffffffffffffffffffffffffffffffffff16815260200190815260200160002060020181905550600a60003373ffffffffffffffffffffffffffffffffffffffff1673ffffffffffffffffffffffffffffffffffffffff16815260200190815260200160002054601460008381526020019081526020016000206000828254019250508190555060176002015460146000838152602001908152602001600020541115611f5157806000600201819055505b50565b6000806000600760008681526020019081526020016000208054905084101515611f7d57600080fd5b6008600086815260200190815260200160002084815481101515611f9d57fe5b906000526020600020906003020160000160009054906101000a900473ffffffffffffffffffffffffffffffffffffffff1673ffffffffffffffffffffffffffffffffffffffff163373ffffffffffffffffffffffffffffffffffffffff1614151561200857600080fd5b600760008681526020019081526020016000208481548110151561202857fe5b9060005260206000209060040201600301549150600760008681526020019081526020016000208481548110151561205c57fe5b9060005260206000209060040201600101549050600760008681526020019081526020016000208481548110151561209057fe5b906000526020600020906004020160000160009054906101000a900460ff1615612111573373ffffffffffffffffffffffffffffffffffffffff166108fc8360006001015460008001540384028115156120e657fe5b049081150290604051600060405180830381858888f19350505050151561210c57600080fd5b61216a565b3373ffffffffffffffffffffffffffffffffffffffff166108fc83600060010154600080015403840281151561214357fe5b049081150290604051600060405180830381858888f19350505050151561216957600080fd5b5b600760008681526020019081526020016000208481548110151561218a57fe5b9060005260206000209060040201600080820160006101000a81549060ff0219169055600182016000905560028201600090556003820160009055505060086000868152602001908152602001600020848154811015156121e757fe5b9060005260206000209060030201600080820160006101000a81549073ffffffffffffffffffffffffffffffffffffffff021916905560018201600061222d91906139c6565b60028201600061223d91906139c6565b5050600160098681548110151561225057fe5b9060005260206000209001600082825401925050819055506122718561351b565b5060019250505092915050565b6000600a60003373ffffffffffffffffffffffffffffffffffffffff1673ffffffffffffffffffffffffffffffffffffffff168152602001908152602001600020541115156122cc57600080fd5b6000811115156122db57600080fd5b6000601160003373ffffffffffffffffffffffffffffffffffffffff1673ffffffffffffffffffffffffffffffffffffffff1681526020019081526020016000206000015411156123c957600a60003373ffffffffffffffffffffffffffffffffffffffff1673ffffffffffffffffffffffffffffffffffffffff1681526020019081526020016000205460126000601160003373ffffffffffffffffffffffffffffffffffffffff1673ffffffffffffffffffffffffffffffffffffffff168152602001908152602001600020600001548152602001908152602001600020600082825403925050819055505b80601160003373ffffffffffffffffffffffffffffffffffffffff1673ffffffffffffffffffffffffffffffffffffffff16815260200190815260200160002060000181905550600a60003373ffffffffffffffffffffffffffffffffffffffff1673ffffffffffffffffffffffffffffffffffffffff1681526020019081526020016000205460126000838152602001908152602001600020600082825401925050819055506017600001546012600083815260200190815260200160002054111561249a578060008001819055505b50565b6000600a60003373ffffffffffffffffffffffffffffffffffffffff1673ffffffffffffffffffffffffffffffffffffffff168152602001908152602001600020541115156124eb57600080fd5b6000811115156124fa57600080fd5b6000601160003373ffffffffffffffffffffffffffffffffffffffff1673ffffffffffffffffffffffffffffffffffffffff1681526020019081526020016000206001015411156125e857600a60003373ffffffffffffffffffffffffffffffffffffffff1673ffffffffffffffffffffffffffffffffffffffff1681526020019081526020016000205460136000601160003373ffffffffffffffffffffffffffffffffffffffff1673ffffffffffffffffffffffffffffffffffffffff168152602001908152602001600020600101548152602001908152602001600020600082825403925050819055505b80601160003373ffffffffffffffffffffffffffffffffffffffff1673ffffffffffffffffffffffffffffffffffffffff16815260200190815260200160002060010181905550600a60003373ffffffffffffffffffffffffffffffffffffffff1673ffffffffffffffffffffffffffffffffffffffff168152602001908152602001600020546013600083815260200190815260200160002060008282540192505081905550601760010154601360008381526020019081526020016000205411156126ba57806000600101819055505b50565b60178060000154908060010154908060020154908060030154908060040154905085565b60008060000154908060010154908060020154908060030154908060040154905085565b600061279682600c60003373ffffffffffffffffffffffffffffffffffffffff1673ffffffffffffffffffffffffffffffffffffffff16815260200190815260200160002060008673ffffffffffffffffffffffffffffffffffffffff1673ffffffffffffffffffffffffffffffffffffffff16815260200190815260200160002054612a0590919063ffffffff16565b600c60003373ffffffffffffffffffffffffffffffffffffffff1673ffffffffffffffffffffffffffffffffffffffff16815260200190815260200160002060008573ffffffffffffffffffffffffffffffffffffffff1673ffffffffffffffffffffffffffffffffffffffff168152602001908152602001600020819055508273ffffffffffffffffffffffffffffffffffffffff163373ffffffffffffffffffffffffffffffffffffffff167f8c5be1e5ebec7d5bd14f71427d1e84f3dd0314c0f7b2291e5b200ac8c7c3b925600c60003373ffffffffffffffffffffffffffffffffffffffff1673ffffffffffffffffffffffffffffffffffffffff16815260200190815260200160002060008773ffffffffffffffffffffffffffffffffffffffff1673ffffffffffffffffffffffffffffffffffffffff168152602001908152602001600020546040518082815260200191505060405180910390a36001905092915050565b60086020528160005260406000208181548110151561291c57fe5b9060005260206000209060030201600091509150508060000160009054906101000a900473ffffffffffffffffffffffffffffffffffffffff1690806001019080600201905083565b6000600c60008473ffffffffffffffffffffffffffffffffffffffff1673ffffffffffffffffffffffffffffffffffffffff16815260200190815260200160002060008373ffffffffffffffffffffffffffffffffffffffff1673ffffffffffffffffffffffffffffffffffffffff16815260200190815260200160002054905092915050565b60008282111515156129fa57fe5b818303905092915050565b6000808284019050838110151515612a1957fe5b8091505092915050565b60008686868685604051808673ffffffffffffffffffffffffffffffffffffffff1673ffffffffffffffffffffffffffffffffffffffff166c01000000000000000000000000028152601401858152602001848152602001838152602001828152602001955050505050506040518091039020600019168360001916141515612aaf5760009050612ab4565b600190505b9695505050505050565b600080600080612acc613a0e565b612ad4613a0e565b612adf898989613765565b1515612af75760008081915080905095509550612d23565b600760008a815260200190815260200160002088815481101515612b1757fe5b906000526020600020906004020160000160009054906101000a900460ff1615612b4657879350869250612b4d565b8693508792505b600760008a815260200190815260200160002084815481101515612b6d57fe5b9060005260206000209060040201608060405190810160405290816000820160009054906101000a900460ff1615151515815260200160018201548152602001600282015481526020016003820154815250509150600760008a815260200190815260200160002083815481101515612be257fe5b9060005260206000209060040201608060405190810160405290816000820160009054906101000a900460ff1615151515815260200160018201548152602001600282015481526020016003820154815250509050806060015182606001511015612c595760008081915080905095509550612d23565b60028160600151836060015101811515612c6f57fe5b04955085816020015102670de0b6b3a76400008360200151021115612ccd5785816020015102670de0b6b3a76400008360400151021115612cbc5760008081915080905095509550612d23565b858682602001510295509550612d23565b670de0b6b3a7640000826020015102868260200151021115612d1857670de0b6b3a7640000826020015102868260400151021115612d175760008081915080905095509550612d23565b5b858260200151955095505b50505050935093915050565b806000800154026005600001540360056000018190555080600080015402826005600101540301600560010181905550600060040154600560010154101515612d7b57612d7a6138cb565b5b5050565b7f17fad608e647bf180e9f2d2542498a2ec81fb1cb077d60802b67b21d64adc9b86008600087815260200190815260200160002085815481101515612dc057fe5b906000526020600020906003020160000160009054906101000a900473ffffffffffffffffffffffffffffffffffffffff166008600088815260200190815260200160002085815481101515612e1257fe5b906000526020600020906003020160000160009054906101000a900473ffffffffffffffffffffffffffffffffffffffff166008600089815260200190815260200160002087815481101515612e6457fe5b9060005260206000209060030201600101600860008a815260200190815260200160002087815481101515612e9557fe5b9060005260206000209060030201600101600860008b815260200190815260200160002089815481101515612ec657fe5b9060005260206000209060030201600201600860008c815260200190815260200160002089815481101515612ef757fe5b90600052602060002090600302016002018888604051808973ffffffffffffffffffffffffffffffffffffffff1673ffffffffffffffffffffffffffffffffffffffff1681526020018873ffffffffffffffffffffffffffffffffffffffff1673ffffffffffffffffffffffffffffffffffffffff1681526020018060200180602001806020018060200187815260200186815260200185810385528b81815460018160011615610100020316600290048152602001915080546001816001161561010002031660029004801561300f5780601f10612fe45761010080835404028352916020019161300f565b820191906000526020600020905b815481529060010190602001808311612ff257829003601f168201915b505085810384528a8181546001816001161561010002031660029004815260200191508054600181600116156101000203166002900480156130925780601f1061306757610100808354040283529160200191613092565b820191906000526020600020905b81548152906001019060200180831161307557829003601f168201915b50508581038352898181546001816001161561010002031660029004815260200191508054600181600116156101000203166002900480156131155780601f106130ea57610100808354040283529160200191613115565b820191906000526020600020905b8154815290600101906020018083116130f857829003601f168201915b50508581038252888181546001816001161561010002031660029004815260200191508054600181600116156101000203166002900480156131985780601f1061316d57610100808354040283529160200191613198565b820191906000526020600020905b81548152906001019060200180831161317b57829003601f168201915b50509c5050505050505050505050505060405180910390a15050505050565b60008060076000888152602001908152602001600020868154811015156131da57fe5b906000526020600020906004020160000160009054906101000a900460ff161561320957859150849050613210565b8491508590505b82600760008981526020019081526020016000208381548110151561323157fe5b906000526020600020906004020160010154141561327357600160098881548110151561325a57fe5b9060005260206000209001600082825401925050819055505b82600760008981526020019081526020016000208381548110151561329457fe5b90600052602060002090600402016002015410156132e857600060076000898152602001908152602001600020838154811015156132ce57fe5b906000526020600020906004020160020181905550613328565b82600760008981526020019081526020016000208381548110151561330957fe5b9060005260206000209060040201600201600082825403925050819055505b82600760008981526020019081526020016000208381548110151561334957fe5b906000526020600020906004020160010160008282540392505081905550670de0b6b3a764000084840281151561337c57fe5b04600760008981526020019081526020016000208281548110151561339d57fe5b90600052602060002090600402016001015414156133df5760016009888154811015156133c657fe5b9060005260206000209001600082825401925050819055505b670de0b6b3a76400008484028115156133f457fe5b04600760008981526020019081526020016000208281548110151561341557fe5b9060005260206000209060040201600201541015613469576000600760008981526020019081526020016000208281548110151561344f57fe5b9060005260206000209060040201600201819055506134be565b670de0b6b3a764000084840281151561347e57fe5b04600760008981526020019081526020016000208281548110151561349f57fe5b9060005260206000209060040201600201600082825403925050819055505b670de0b6b3a76400008484028115156134d357fe5b0460076000898152602001908152602001600020828154811015156134f457fe5b90600052602060002090600402016001016000828254039250508190555050505050505050565b60008060006002015460098481548110151561353357fe5b906000526020600020900154101561354e576000915061375f565b600190505b60076000848152602001908152602001600020805490508110156136e8576000600760008581526020019081526020016000208281548110151561359357fe5b90600052602060002090600402016001015414156136db5760016007600085815260200190815260200160002080549050038110156136da5760076000848152602001908152602001600020600182018154811015156135ef57fe5b9060005260206000209060040201600760008581526020019081526020016000208281548110151561361d57fe5b90600052602060002090600402016000820160009054906101000a900460ff168160000160006101000a81548160ff021916908315150217905550600182015481600101556002820154816002015560038201548160030155905050600760008481526020019081526020016000206001820181548110151561369c57fe5b9060005260206000209060040201600080820160006101000a81549060ff021916905560018201600090556002820160009055600382016000905550505b5b8080600101915050613553565b6009838154811015156136f757fe5b90600052602060002090015460076000858152602001908152602001600020805490500360076000858152602001908152602001600020816137399190613a39565b50600060098481548110151561374b57fe5b906000526020600020900181905550600191505b50919050565b600060076000858152602001908152602001600020805490508310151561378b57600080fd5b6007600085815260200190815260200160002080549050821015156137af57600080fd5b60076000858152602001908152602001600020828154811015156137cf57fe5b906000526020600020906004020160000160009054906101000a900460ff161515600760008681526020019081526020016000208481548110151561381057fe5b906000526020600020906004020160000160009054906101000a900460ff1615151415151561383e57600080fd5b6000600760008681526020019081526020016000208481548110151561386057fe5b9060005260206000209060040201600101541415151561387f57600080fd5b600060076000868152602001908152602001600020838154811015156138a157fe5b906000526020600020906004020160010154141515156138c057600080fd5b600190509392505050565b6138d36138d5565b565b6000600560010181905550565b81548183558181151161390f5760040281600402836000526020600020918201910161390e9190613a6b565b5b505050565b815481835581811511613941576003028160030283600052602060002091820191016139409190613ab6565b5b505050565b828054600181600116156101000203166002900490600052602060002090601f016020900481019282601f1061398757805160ff19168380011785556139b5565b828001600101855582156139b5579182015b828111156139b4578251825591602001919060010190613999565b5b5090506139c29190613b1c565b5090565b50805460018160011615610100020316600290046000825580601f106139ec5750613a0b565b601f016020900490600052602060002090810190613a0a9190613b1c565b5b50565b6080604051908101604052806000151581526020016000815260200160008152602001600081525090565b815481835581811511613a6657600402816004028360005260206000209182019101613a659190613a6b565b5b505050565b613ab391905b80821115613aaf57600080820160006101000a81549060ff021916905560018201600090556002820160009055600382016000905550600401613a71565b5090565b90565b613b1991905b80821115613b1557600080820160006101000a81549073ffffffffffffffffffffffffffffffffffffffff0219169055600182016000613afc91906139c6565b600282016000613b0c91906139c6565b50600301613abc565b5090565b90565b613b3e91905b80821115613b3a576000816000905550600101613b22565b5090565b90565b846000800181905550836000600101819055508260006002018190555081600060030181905550806000600401819055505050505050565b6000600760008081526020019081526020016000208054806001018281613ba091906138e2565b9160005260206000209060040201600060806040519081016040528060001515815260200160008152602001600081526020016000815250909190915060008201518160000160006101000a81548160ff021916908315150217905550602082015181600101556040820151816002015560608201518160030155505050600860008081526020019081526020016000208054806001018281613c439190613914565b91600052602060002090600302016000606060405190810160405280600073ffffffffffffffffffffffffffffffffffffffff168152602001602060405190810160405280600081525081526020016020604051908101604052806000815250815250909190915060008201518160000160006101000a81548173ffffffffffffffffffffffffffffffffffffffff021916908373ffffffffffffffffffffffffffffffffffffffff1602179055506020820151816001019080519060200190613d0e929190613946565b506040820151816002019080519060200190613d2b929190613946565b5050505060019050905600a165627a7a7230582001d01094ba2e0bd5ec58027d4ae666b85a668c51425fca6024249d3907f6f8960029",
  "source": "pragma solidity ^0.4.18;\n\nimport 'zeppelin-solidity/contracts/token/ERC20/MintableToken.sol';\nimport 'zeppelin-solidity/contracts/math/SafeMath.sol';\nimport './Exchange.sol';\n\n\n/// @title ValexToken\n/// @author Karim Helmy\n\n// Parts sourced from https://github.com/bokkypoobah/Tokens/blob/master/contracts/FixedSupplyToken.sol\n\n// ----------------------------------------------------------------------------\n// 'VLX' 'Valex Token' token contract\n//\n// Symbol      : VLX\n// Name        : Valex Token\n// Total supply: 1,000,000.000000000000000000\n// Decimals    : 18\n//\n// ----------------------------------------------------------------------------\n\ncontract ValexToken is Exchange, StandardToken {\n    using SafeMath for uint;\n\n    string public name = \"Valex Token\";\n    string public symbol = \"VLX\";\n    uint8 public decimals = 18;\n\n    uint256 public initialSupply = 10000 * (10 ** uint256(decimals));\n\n    // Voting mappings\n    // Holds what every address has voted for\n    mapping (address => Parameters) voteBook;\n    // Hold frequencies of what addresses have voted for (in coin-votes)\n    mapping (uint => uint) closureFeeFreqs;\n    mapping (uint => uint) cancelFeeFreqs;\n    mapping (uint => uint) cleanSizeFreqs;\n    mapping (uint => uint) minerShareFreqs;\n    mapping (uint => uint) distBalanceFreqs;\n\n    // Thresholds to be met for each parameter adjustment\n    // TODO: add initialization for thresholds\n    // TODO: add meta-voting for thresholds (will always require 51%)\n    Parameters public thresholds;\n\n    /**\n     * @dev Constructor that gives msg.sender all of existing tokens.\n     * @dev Initializes token to have same parameters as exchange\n     */\n    function ValexToken(uint closureFeePerUnit, uint cancelFeePerUnit,\n                      uint cleanSize, uint minershare, uint distBalance)\n      Exchange(closureFeePerUnit, cancelFeePerUnit,\n              cleanSize, minershare, distBalance)\n      public\n    {\n      totalSupply_ = initialSupply;\n      balances[msg.sender] = initialSupply;\n    }\n\n    // Distributes dividends when balance is of sufficient size\n    function distDividends()\n      internal\n    {\n      //TODO: Implement distribution\n      Exchange.distDividends();\n    }\n\n    // Voting functions for various parameters\n    // Solidity doesn't allow any meaningful abstraction\n    // Adjust relevant parameter if threshold met\n\n    // voting copy3\n    function voteClosureFee(uint desiredParam)\n      public\n    {\n      require(balances[msg.sender] > 0);\n      require(desiredParam > 0);\n      if (voteBook[msg.sender].closureFeePerUnit > 0){\n        closureFeeFreqs[voteBook[msg.sender].closureFeePerUnit] -= balances[msg.sender];\n      }\n      voteBook[msg.sender].closureFeePerUnit = desiredParam;\n      closureFeeFreqs[desiredParam] += balances[msg.sender];\n      if (closureFeeFreqs[desiredParam] > thresholds.closureFeePerUnit){\n        params.closureFeePerUnit = desiredParam;\n      }\n    }\n\n    // voting copy3\n    function voteCancelFee(uint desiredParam)\n      public\n    {\n      require(balances[msg.sender] > 0);\n      require(desiredParam > 0);\n      if (voteBook[msg.sender].cancelFeePerUnit > 0){\n        cancelFeeFreqs[voteBook[msg.sender].cancelFeePerUnit] -= balances[msg.sender];\n      }\n      voteBook[msg.sender].cancelFeePerUnit = desiredParam;\n      cancelFeeFreqs[desiredParam] += balances[msg.sender];\n      if (cancelFeeFreqs[desiredParam] > thresholds.cancelFeePerUnit){\n        params.cancelFeePerUnit = desiredParam;\n      }\n    }\n\n    // voting copy3\n    function voteCleanSize(uint desiredParam)\n      public\n    {\n      require(balances[msg.sender] > 0);\n      require(desiredParam > 0);\n      if (voteBook[msg.sender].cleanSize > 0){\n        cleanSizeFreqs[voteBook[msg.sender].cleanSize] -= balances[msg.sender];\n      }\n      voteBook[msg.sender].cleanSize = desiredParam;\n      cleanSizeFreqs[desiredParam] += balances[msg.sender];\n      if (cleanSizeFreqs[desiredParam] > thresholds.cleanSize){\n        params.cleanSize = desiredParam;\n      }\n    }\n\n    // voting copy3\n    function voteMinerShare(uint desiredParam)\n      public\n    {\n      require(balances[msg.sender] > 0);\n      require(desiredParam > 0);\n      if (voteBook[msg.sender].minerShare > 0){\n        minerShareFreqs[voteBook[msg.sender].minerShare] -= balances[msg.sender];\n      }\n      voteBook[msg.sender].minerShare = desiredParam;\n      minerShareFreqs[desiredParam] += balances[msg.sender];\n      if (minerShareFreqs[desiredParam] > thresholds.minerShare){\n        params.minerShare = desiredParam;\n      }\n    }\n\n    // voting copy3\n    function voteDistBalance(uint desiredParam)\n      public\n    {\n      require(balances[msg.sender] > 0);\n      require(desiredParam > 0);\n      if (voteBook[msg.sender].distBalance > 0){\n        distBalanceFreqs[voteBook[msg.sender].distBalance] -= balances[msg.sender];\n      }\n      voteBook[msg.sender].distBalance = desiredParam;\n      distBalanceFreqs[desiredParam] += balances[msg.sender];\n      if (distBalanceFreqs[desiredParam] > thresholds.distBalance){\n        params.distBalance = desiredParam;\n      }\n    }\n\n    // TODO: Implement adding/removing chapters\n\n}\n",
  "sourcePath": "/Users/Karim/Desktop/Valex/contracts/ValexToken.sol",
  "compiler": {
    "name": "solc",
    "version": "0.4.18+commit.9cf6e910.Emscripten.clang"
  },
  "schemaVersion": "1.0.1",
  "updatedAt": "2018-01-30T02:51:19.504Z"
}