{
  "contractName": "ValexToken",
  "abi": [
    {
      "constant": true,
      "inputs": [],
      "name": "name",
      "outputs": [
        {
          "name": "",
          "type": "string"
        }
      ],
      "payable": false,
      "stateMutability": "view",
      "type": "function"
    },
    {
      "constant": false,
      "inputs": [
        {
          "name": "_spender",
          "type": "address"
        },
        {
          "name": "_value",
          "type": "uint256"
        }
      ],
      "name": "approve",
      "outputs": [
        {
          "name": "",
          "type": "bool"
        }
      ],
      "payable": false,
      "stateMutability": "nonpayable",
      "type": "function"
    },
    {
      "constant": true,
      "inputs": [
        {
          "name": "",
          "type": "uint256"
        },
        {
          "name": "",
          "type": "uint256"
        }
      ],
      "name": "orderBook",
      "outputs": [
        {
          "name": "buyETH",
          "type": "bool"
        },
        {
          "name": "volume",
          "type": "uint256"
        },
        {
          "name": "minVolume",
          "type": "uint256"
        },
        {
          "name": "limit",
          "type": "uint256"
        }
      ],
      "payable": false,
      "stateMutability": "view",
      "type": "function"
    },
    {
      "constant": true,
      "inputs": [],
      "name": "totalSupply",
      "outputs": [
        {
          "name": "",
          "type": "uint256"
        }
      ],
      "payable": false,
      "stateMutability": "view",
      "type": "function"
    },
    {
      "constant": false,
      "inputs": [
        {
          "name": "_from",
          "type": "address"
        },
        {
          "name": "_to",
          "type": "address"
        },
        {
          "name": "_value",
          "type": "uint256"
        }
      ],
      "name": "transferFrom",
      "outputs": [
        {
          "name": "",
          "type": "bool"
        }
      ],
      "payable": false,
      "stateMutability": "nonpayable",
      "type": "function"
    },
    {
      "constant": true,
      "inputs": [],
      "name": "decimals",
      "outputs": [
        {
          "name": "",
          "type": "uint8"
        }
      ],
      "payable": false,
      "stateMutability": "view",
      "type": "function"
    },
    {
      "constant": true,
      "inputs": [],
      "name": "initialSupply",
      "outputs": [
        {
          "name": "",
          "type": "uint256"
        }
      ],
      "payable": false,
      "stateMutability": "view",
      "type": "function"
    },
    {
      "constant": false,
      "inputs": [
        {
          "name": "buyETH",
          "type": "bool"
        },
        {
          "name": "volume",
          "type": "uint256"
        },
        {
          "name": "minVolume",
          "type": "uint256"
        },
        {
          "name": "limit",
          "type": "uint256"
        },
        {
          "name": "ethAddress",
          "type": "address"
        },
        {
          "name": "firstAddress",
          "type": "string"
        },
        {
          "name": "otherAddress",
          "type": "string"
        },
        {
          "name": "chapter",
          "type": "uint256"
        }
      ],
      "name": "placeOrder",
      "outputs": [
        {
          "name": "accepted",
          "type": "bool"
        }
      ],
      "payable": true,
      "stateMutability": "payable",
      "type": "function"
    },
    {
      "constant": false,
      "inputs": [
        {
          "name": "chapter",
          "type": "uint256"
        },
        {
          "name": "index1",
          "type": "uint256"
        },
        {
          "name": "index2",
          "type": "uint256"
        },
        {
          "name": "nonce",
          "type": "bytes32"
        },
        {
          "name": "hashVal",
          "type": "uint256"
        }
      ],
      "name": "giveMatch",
      "outputs": [
        {
          "name": "isValid",
          "type": "bool"
        }
      ],
      "payable": true,
      "stateMutability": "payable",
      "type": "function"
    },
    {
      "constant": true,
      "inputs": [
        {
          "name": "",
          "type": "address"
        },
        {
          "name": "",
          "type": "address"
        }
      ],
      "name": "allowed",
      "outputs": [
        {
          "name": "",
          "type": "uint256"
        }
      ],
      "payable": false,
      "stateMutability": "view",
      "type": "function"
    },
    {
      "constant": false,
      "inputs": [
        {
          "name": "_spender",
          "type": "address"
        },
        {
          "name": "_subtractedValue",
          "type": "uint256"
        }
      ],
      "name": "decreaseApproval",
      "outputs": [
        {
          "name": "",
          "type": "bool"
        }
      ],
      "payable": false,
      "stateMutability": "nonpayable",
      "type": "function"
    },
    {
      "constant": true,
      "inputs": [
        {
          "name": "_owner",
          "type": "address"
        }
      ],
      "name": "balanceOf",
      "outputs": [
        {
          "name": "balance",
          "type": "uint256"
        }
      ],
      "payable": false,
      "stateMutability": "view",
      "type": "function"
    },
    {
      "constant": true,
      "inputs": [],
      "name": "exBalances",
      "outputs": [
        {
          "name": "openBalance",
          "type": "uint256"
        },
        {
          "name": "closedBalance",
          "type": "uint256"
        }
      ],
      "payable": false,
      "stateMutability": "view",
      "type": "function"
    },
    {
      "constant": true,
      "inputs": [],
      "name": "symbol",
      "outputs": [
        {
          "name": "",
          "type": "string"
        }
      ],
      "payable": false,
      "stateMutability": "view",
      "type": "function"
    },
    {
      "constant": false,
      "inputs": [
        {
          "name": "_to",
          "type": "address"
        },
        {
          "name": "_value",
          "type": "uint256"
        }
      ],
      "name": "transfer",
      "outputs": [
        {
          "name": "",
          "type": "bool"
        }
      ],
      "payable": false,
      "stateMutability": "nonpayable",
      "type": "function"
    },
    {
      "constant": false,
      "inputs": [
        {
          "name": "chapter",
          "type": "uint256"
        },
        {
          "name": "index",
          "type": "uint256"
        }
      ],
      "name": "cancelOrder",
      "outputs": [
        {
          "name": "accepted",
          "type": "bool"
        }
      ],
      "payable": false,
      "stateMutability": "nonpayable",
      "type": "function"
    },
    {
      "constant": true,
      "inputs": [],
      "name": "params",
      "outputs": [
        {
          "name": "closureFeePerUnit",
          "type": "uint256"
        },
        {
          "name": "cancelFeePerUnit",
          "type": "uint256"
        },
        {
          "name": "cleanSize",
          "type": "uint256"
        },
        {
          "name": "distBalance",
          "type": "uint256"
        }
      ],
      "payable": false,
      "stateMutability": "view",
      "type": "function"
    },
    {
      "constant": false,
      "inputs": [
        {
          "name": "_spender",
          "type": "address"
        },
        {
          "name": "_addedValue",
          "type": "uint256"
        }
      ],
      "name": "increaseApproval",
      "outputs": [
        {
          "name": "",
          "type": "bool"
        }
      ],
      "payable": false,
      "stateMutability": "nonpayable",
      "type": "function"
    },
    {
      "constant": true,
      "inputs": [
        {
          "name": "_owner",
          "type": "address"
        },
        {
          "name": "_spender",
          "type": "address"
        }
      ],
      "name": "allowance",
      "outputs": [
        {
          "name": "",
          "type": "uint256"
        }
      ],
      "payable": false,
      "stateMutability": "view",
      "type": "function"
    },
    {
      "inputs": [
        {
          "name": "closureFeePerUnit",
          "type": "uint256"
        },
        {
          "name": "cancelFeePerUnit",
          "type": "uint256"
        },
        {
          "name": "cleanSize",
          "type": "uint256"
        },
        {
          "name": "minershare0",
          "type": "uint256"
        },
        {
          "name": "minerShare1",
          "type": "uint256"
        },
        {
          "name": "distBalance",
          "type": "uint256"
        }
      ],
      "payable": false,
      "stateMutability": "nonpayable",
      "type": "constructor"
    },
    {
      "anonymous": false,
      "inputs": [
        {
          "indexed": false,
          "name": "ethAddress1",
          "type": "address"
        },
        {
          "indexed": false,
          "name": "ethAddress2",
          "type": "address"
        },
        {
          "indexed": false,
          "name": "firstAddress1",
          "type": "string"
        },
        {
          "indexed": false,
          "name": "firstAddress2",
          "type": "string"
        },
        {
          "indexed": false,
          "name": "otherAddress1",
          "type": "string"
        },
        {
          "indexed": false,
          "name": "otherAddress2",
          "type": "string"
        },
        {
          "indexed": false,
          "name": "ethVol",
          "type": "uint256"
        },
        {
          "indexed": false,
          "name": "otherVol",
          "type": "uint256"
        }
      ],
      "name": "TradeInfo",
      "type": "event"
    },
    {
      "anonymous": false,
      "inputs": [
        {
          "indexed": true,
          "name": "owner",
          "type": "address"
        },
        {
          "indexed": true,
          "name": "spender",
          "type": "address"
        },
        {
          "indexed": false,
          "name": "value",
          "type": "uint256"
        }
      ],
      "name": "Approval",
      "type": "event"
    },
    {
      "anonymous": false,
      "inputs": [
        {
          "indexed": true,
          "name": "from",
          "type": "address"
        },
        {
          "indexed": true,
          "name": "to",
          "type": "address"
        },
        {
          "indexed": false,
          "name": "value",
          "type": "uint256"
        }
      ],
      "name": "Transfer",
      "type": "event"
    }
  ],
  "bytecode": "0x60606040526040805190810160405280600b81526020017f56616c657820546f6b656e000000000000000000000000000000000000000000815250600f90805190602001906200005192919062000278565b506040805190810160405280600381526020017f564c580000000000000000000000000000000000000000000000000000000000815250601090805190602001906200009f92919062000278565b506012601160006101000a81548160ff021916908360ff160217905550601160009054906101000a900460ff1660ff16600a0a612710026013553415620000e557600080fd5b60405160c080620033668339810160405280805190602001909190805190602001909190805190602001909190805190602001909190805190602001909190805190602001909190505085858585858562000159868686868686620002056401000000000262002f63176401000000009004565b50620001786200026f6401000000000262002fcb176401000000009004565b50600d80548060010182816200018f9190620002ff565b916000526020600020900160008090919091505550505050505050601354600081905550601354601260003373ffffffffffffffffffffffffffffffffffffffff1673ffffffffffffffffffffffffffffffffffffffff1681526020019081526020016000208190555050505050505062000356565b6000866003600001819055508560036001018190555084600360020181905550836003800160006002811015156200023957fe5b0181905550826003800160016002811015156200025257fe5b018190555081600360050181905550600190509695505050505050565b60006001905090565b828054600181600116156101000203166002900490600052602060002090601f016020900481019282601f10620002bb57805160ff1916838001178555620002ec565b82800160010185558215620002ec579182015b82811115620002eb578251825591602001919060010190620002ce565b5b509050620002fb91906200032e565b5090565b81548183558181151162000329578183600052602060002091820191016200032891906200032e565b5b505050565b6200035391905b808211156200034f57600081600090555060010162000335565b5090565b90565b61300080620003666000396000f300606060405260043610610107576000357c0100000000000000000000000000000000000000000000000000000000900463ffffffff16806306fdde031461010c578063095ea7b31461019a57806314974f46146101f457806318160ddd1461024d57806323b872dd14610276578063313ce567146102ef578063378dc3dc1461031e5780634aed275c146103475780635a1f6393146104425780635c6581651461049a578063661884631461050657806370a0823114610560578063737f02af146105ad57806395d89b41146105dd578063a9059cbb1461066b578063b6ed0632146106c5578063cff0ab9614610709578063d73dd62314610747578063dd62ed3e146107a1575b600080fd5b341561011757600080fd5b61011f61080d565b6040518080602001828103825283818151815260200191508051906020019080838360005b8381101561015f578082015181840152602081019050610144565b50505050905090810190601f16801561018c5780820380516001836020036101000a031916815260200191505b509250505060405180910390f35b34156101a557600080fd5b6101da600480803573ffffffffffffffffffffffffffffffffffffffff169060200190919080359060200190919050506108ab565b604051808215151515815260200191505060405180910390f35b34156101ff57600080fd5b61021e600480803590602001909190803590602001909190505061099d565b604051808515151515815260200184815260200183815260200182815260200194505050505060405180910390f35b341561025857600080fd5b6102606109f6565b6040518082815260200191505060405180910390f35b341561028157600080fd5b6102d5600480803573ffffffffffffffffffffffffffffffffffffffff1690602001909190803573ffffffffffffffffffffffffffffffffffffffff169060200190919080359060200190919050506109fc565b604051808215151515815260200191505060405180910390f35b34156102fa57600080fd5b610302610dbb565b604051808260ff1660ff16815260200191505060405180910390f35b341561032957600080fd5b610331610dce565b6040518082815260200191505060405180910390f35b6104286004808035151590602001909190803590602001909190803590602001909190803590602001909190803573ffffffffffffffffffffffffffffffffffffffff1690602001909190803590602001908201803590602001908080601f0160208091040260200160405190810160405280939291908181526020018383808284378201915050505050509190803590602001908201803590602001908080601f01602080910402602001604051908101604052809392919081815260200183838082843782019150505050505091908035906020019091905050610dd4565b604051808215151515815260200191505060405180910390f35b610480600480803590602001909190803590602001909190803590602001909190803560001916906020019091908035906020019091905050610fea565b604051808215151515815260200191505060405180910390f35b34156104a557600080fd5b6104f0600480803573ffffffffffffffffffffffffffffffffffffffff1690602001909190803573ffffffffffffffffffffffffffffffffffffffff16906020019091905050611102565b6040518082815260200191505060405180910390f35b341561051157600080fd5b610546600480803573ffffffffffffffffffffffffffffffffffffffff16906020019091908035906020019091905050611127565b604051808215151515815260200191505060405180910390f35b341561056b57600080fd5b610597600480803573ffffffffffffffffffffffffffffffffffffffff169060200190919050506113b8565b6040518082815260200191505060405180910390f35b34156105b857600080fd5b6105c0611401565b604051808381526020018281526020019250505060405180910390f35b34156105e857600080fd5b6105f0611413565b6040518080602001828103825283818151815260200191508051906020019080838360005b83811015610630578082015181840152602081019050610615565b50505050905090810190601f16801561065d5780820380516001836020036101000a031916815260200191505b509250505060405180910390f35b341561067657600080fd5b6106ab600480803573ffffffffffffffffffffffffffffffffffffffff169060200190919080359060200190919050506114b1565b604051808215151515815260200191505060405180910390f35b34156106d057600080fd5b6106ef60048080359060200190919080359060200190919050506116d5565b604051808215151515815260200191505060405180910390f35b341561071457600080fd5b61071c611a01565b6040518085815260200184815260200183815260200182815260200194505050505060405180910390f35b341561075257600080fd5b610787600480803573ffffffffffffffffffffffffffffffffffffffff16906020019091908035906020019091905050611a1f565b604051808215151515815260200191505060405180910390f35b34156107ac57600080fd5b6107f7600480803573ffffffffffffffffffffffffffffffffffffffff1690602001909190803573ffffffffffffffffffffffffffffffffffffffff16906020019091905050611c1b565b6040518082815260200191505060405180910390f35b600f8054600181600116156101000203166002900480601f0160208091040260200160405190810160405280929190818152602001828054600181600116156101000203166002900480156108a35780601f10610878576101008083540402835291602001916108a3565b820191906000526020600020905b81548152906001019060200180831161088657829003601f168201915b505050505081565b600081600260003373ffffffffffffffffffffffffffffffffffffffff1673ffffffffffffffffffffffffffffffffffffffff16815260200190815260200160002060008573ffffffffffffffffffffffffffffffffffffffff1673ffffffffffffffffffffffffffffffffffffffff168152602001908152602001600020819055508273ffffffffffffffffffffffffffffffffffffffff163373ffffffffffffffffffffffffffffffffffffffff167f8c5be1e5ebec7d5bd14f71427d1e84f3dd0314c0f7b2291e5b200ac8c7c3b925846040518082815260200191505060405180910390a36001905092915050565b600b602052816000526040600020818154811015156109b857fe5b9060005260206000209060040201600091509150508060000160009054906101000a900460ff16908060010154908060020154908060030154905084565b60005481565b60008073ffffffffffffffffffffffffffffffffffffffff168373ffffffffffffffffffffffffffffffffffffffff1614151515610a3957600080fd5b600160008573ffffffffffffffffffffffffffffffffffffffff1673ffffffffffffffffffffffffffffffffffffffff168152602001908152602001600020548211151515610a8757600080fd5b600260008573ffffffffffffffffffffffffffffffffffffffff1673ffffffffffffffffffffffffffffffffffffffff16815260200190815260200160002060003373ffffffffffffffffffffffffffffffffffffffff1673ffffffffffffffffffffffffffffffffffffffff168152602001908152602001600020548211151515610b1257600080fd5b610b6482600160008773ffffffffffffffffffffffffffffffffffffffff1673ffffffffffffffffffffffffffffffffffffffff16815260200190815260200160002054611ca290919063ffffffff16565b600160008673ffffffffffffffffffffffffffffffffffffffff1673ffffffffffffffffffffffffffffffffffffffff16815260200190815260200160002081905550610bf982600160008673ffffffffffffffffffffffffffffffffffffffff1673ffffffffffffffffffffffffffffffffffffffff16815260200190815260200160002054611cbb90919063ffffffff16565b600160008573ffffffffffffffffffffffffffffffffffffffff1673ffffffffffffffffffffffffffffffffffffffff16815260200190815260200160002081905550610ccb82600260008773ffffffffffffffffffffffffffffffffffffffff1673ffffffffffffffffffffffffffffffffffffffff16815260200190815260200160002060003373ffffffffffffffffffffffffffffffffffffffff1673ffffffffffffffffffffffffffffffffffffffff16815260200190815260200160002054611ca290919063ffffffff16565b600260008673ffffffffffffffffffffffffffffffffffffffff1673ffffffffffffffffffffffffffffffffffffffff16815260200190815260200160002060003373ffffffffffffffffffffffffffffffffffffffff1673ffffffffffffffffffffffffffffffffffffffff168152602001908152602001600020819055508273ffffffffffffffffffffffffffffffffffffffff168473ffffffffffffffffffffffffffffffffffffffff167fddf252ad1be2c89b69c2b068fc378daa952ba7f163c4a11628f55a4df523b3ef846040518082815260200191505060405180910390a3600190509392505050565b601160009054906101000a900460ff1681565b60135481565b60008088111515610de457600080fd5b600087111515610df357600080fd5b868810151515610e0257600080fd5b600086111515610e1157600080fd5b8815610e3457600360000154880234870210151515610e2f57600080fd5b610e4b565b60036000015488023410151515610e4a57600080fd5b5b600b60008381526020019081526020016000208054806001018281610e709190612cdd565b916000526020600020906004020160006080604051908101604052808d151581526020018c81526020018b81526020018a815250909190915060008201518160000160006101000a81548160ff021916908315150217905550602082015181600101556040820151816002015560608201518160030155505050600c60008381526020019081526020016000208054806001018281610f0f9190612d0f565b916000526020600020906003020160006060604051908101604052808973ffffffffffffffffffffffffffffffffffffffff16815260200188815260200187815250909190915060008201518160000160006101000a81548173ffffffffffffffffffffffffffffffffffffffff021916908373ffffffffffffffffffffffffffffffffffffffff1602179055506020820151816001019080519060200190610fb9929190612d41565b506040820151816002019080519060200190610fd6929190612d41565b505050506001905098975050505050505050565b6000610ff4612dc1565b6000611001888888611cd9565b15806110185750611016338989898989611ee9565b155b1561102657600092506110f7565b611031888888611fc4565b915060038001600160028110151561104557fe5b015482600060028110151561105657fe5b602002015160036000015460038001600060028110151561107357fe5b0154020281151561108057fe5b0490503373ffffffffffffffffffffffffffffffffffffffff166108fc829081150290604051600060405180830381858888f1935050505015156110c357600080fd5b6110cd818361214d565b506110da888888856121ce565b506110e7888888856126b4565b506110f18861291a565b50600192505b505095945050505050565b600e602052816000526040600020602052806000526040600020600091509150505481565b600080600260003373ffffffffffffffffffffffffffffffffffffffff1673ffffffffffffffffffffffffffffffffffffffff16815260200190815260200160002060008573ffffffffffffffffffffffffffffffffffffffff1673ffffffffffffffffffffffffffffffffffffffff16815260200190815260200160002054905080831115611238576000600260003373ffffffffffffffffffffffffffffffffffffffff1673ffffffffffffffffffffffffffffffffffffffff16815260200190815260200160002060008673ffffffffffffffffffffffffffffffffffffffff1673ffffffffffffffffffffffffffffffffffffffff168152602001908152602001600020819055506112cc565b61124b8382611ca290919063ffffffff16565b600260003373ffffffffffffffffffffffffffffffffffffffff1673ffffffffffffffffffffffffffffffffffffffff16815260200190815260200160002060008673ffffffffffffffffffffffffffffffffffffffff1673ffffffffffffffffffffffffffffffffffffffff168152602001908152602001600020819055505b8373ffffffffffffffffffffffffffffffffffffffff163373ffffffffffffffffffffffffffffffffffffffff167f8c5be1e5ebec7d5bd14f71427d1e84f3dd0314c0f7b2291e5b200ac8c7c3b925600260003373ffffffffffffffffffffffffffffffffffffffff1673ffffffffffffffffffffffffffffffffffffffff16815260200190815260200160002060008873ffffffffffffffffffffffffffffffffffffffff1673ffffffffffffffffffffffffffffffffffffffff168152602001908152602001600020546040518082815260200191505060405180910390a3600191505092915050565b6000600160008373ffffffffffffffffffffffffffffffffffffffff1673ffffffffffffffffffffffffffffffffffffffff168152602001908152602001600020549050919050565b60098060000154908060010154905082565b60108054600181600116156101000203166002900480601f0160208091040260200160405190810160405280929190818152602001828054600181600116156101000203166002900480156114a95780601f1061147e576101008083540402835291602001916114a9565b820191906000526020600020905b81548152906001019060200180831161148c57829003601f168201915b505050505081565b60008073ffffffffffffffffffffffffffffffffffffffff168373ffffffffffffffffffffffffffffffffffffffff16141515156114ee57600080fd5b600160003373ffffffffffffffffffffffffffffffffffffffff1673ffffffffffffffffffffffffffffffffffffffff16815260200190815260200160002054821115151561153c57600080fd5b61158e82600160003373ffffffffffffffffffffffffffffffffffffffff1673ffffffffffffffffffffffffffffffffffffffff16815260200190815260200160002054611ca290919063ffffffff16565b600160003373ffffffffffffffffffffffffffffffffffffffff1673ffffffffffffffffffffffffffffffffffffffff1681526020019081526020016000208190555061162382600160008673ffffffffffffffffffffffffffffffffffffffff1673ffffffffffffffffffffffffffffffffffffffff16815260200190815260200160002054611cbb90919063ffffffff16565b600160008573ffffffffffffffffffffffffffffffffffffffff1673ffffffffffffffffffffffffffffffffffffffff168152602001908152602001600020819055508273ffffffffffffffffffffffffffffffffffffffff163373ffffffffffffffffffffffffffffffffffffffff167fddf252ad1be2c89b69c2b068fc378daa952ba7f163c4a11628f55a4df523b3ef846040518082815260200191505060405180910390a36001905092915050565b6000806000600b600086815260200190815260200160002080549050841015156116fe57600080fd5b600c60008681526020019081526020016000208481548110151561171e57fe5b906000526020600020906003020160000160009054906101000a900473ffffffffffffffffffffffffffffffffffffffff1673ffffffffffffffffffffffffffffffffffffffff163373ffffffffffffffffffffffffffffffffffffffff1614151561178957600080fd5b600b6000868152602001908152602001600020848154811015156117a957fe5b9060005260206000209060040201600301549150600b6000868152602001908152602001600020848154811015156117dd57fe5b9060005260206000209060040201600101549050600b60008681526020019081526020016000208481548110151561181157fe5b906000526020600020906004020160000160009054906101000a900460ff1615611893573373ffffffffffffffffffffffffffffffffffffffff166108fc8360036001015460036000015403840281151561186857fe5b049081150290604051600060405180830381858888f19350505050151561188e57600080fd5b6118ed565b3373ffffffffffffffffffffffffffffffffffffffff166108fc836003600101546003600001540384028115156118c657fe5b049081150290604051600060405180830381858888f1935050505015156118ec57600080fd5b5b600b60008681526020019081526020016000208481548110151561190d57fe5b9060005260206000209060040201600080820160006101000a81549060ff02191690556001820160009055600282016000905560038201600090555050600c60008681526020019081526020016000208481548110151561196a57fe5b9060005260206000209060030201600080820160006101000a81549073ffffffffffffffffffffffffffffffffffffffff02191690556001820160006119b09190612de8565b6002820160006119c09190612de8565b50506001600d868154811015156119d357fe5b9060005260206000209001600082825401925050819055506119f48561291a565b5060019250505092915050565b60038060000154908060010154908060020154908060050154905084565b6000611ab082600260003373ffffffffffffffffffffffffffffffffffffffff1673ffffffffffffffffffffffffffffffffffffffff16815260200190815260200160002060008673ffffffffffffffffffffffffffffffffffffffff1673ffffffffffffffffffffffffffffffffffffffff16815260200190815260200160002054611cbb90919063ffffffff16565b600260003373ffffffffffffffffffffffffffffffffffffffff1673ffffffffffffffffffffffffffffffffffffffff16815260200190815260200160002060008573ffffffffffffffffffffffffffffffffffffffff1673ffffffffffffffffffffffffffffffffffffffff168152602001908152602001600020819055508273ffffffffffffffffffffffffffffffffffffffff163373ffffffffffffffffffffffffffffffffffffffff167f8c5be1e5ebec7d5bd14f71427d1e84f3dd0314c0f7b2291e5b200ac8c7c3b925600260003373ffffffffffffffffffffffffffffffffffffffff1673ffffffffffffffffffffffffffffffffffffffff16815260200190815260200160002060008773ffffffffffffffffffffffffffffffffffffffff1673ffffffffffffffffffffffffffffffffffffffff168152602001908152602001600020546040518082815260200191505060405180910390a36001905092915050565b6000600260008473ffffffffffffffffffffffffffffffffffffffff1673ffffffffffffffffffffffffffffffffffffffff16815260200190815260200160002060008373ffffffffffffffffffffffffffffffffffffffff1673ffffffffffffffffffffffffffffffffffffffff16815260200190815260200160002054905092915050565b6000828211151515611cb057fe5b818303905092915050565b6000808284019050838110151515611ccf57fe5b8091505092915050565b6000806000611ce6612e30565b611cee612e30565b6000611cfb898989612b64565b1515611d0a5760009550611edd565b600b60008a815260200190815260200160002088815481101515611d2a57fe5b906000526020600020906004020160000160009054906101000a900460ff1615611d5957879450869350611d60565b8694508793505b600b60008a815260200190815260200160002085815481101515611d8057fe5b9060005260206000209060040201608060405190810160405290816000820160009054906101000a900460ff1615151515815260200160018201548152602001600282015481526020016003820154815250509250600b60008a815260200190815260200160002084815481101515611df557fe5b9060005260206000209060040201608060405190810160405290816000820160009054906101000a900460ff1615151515815260200160018201548152602001600282015481526020016003820154815250509150816060015183606001511015611e635760009550611edd565b60028260600151846060015101811515611e7957fe5b0490508082602001510283602001511115611eaa578082602001510283604001511115611ea95760009550611edd565b5b8260200151818360200151021115611ed8578260200151818360400151021115611ed75760009550611edd565b5b600195505b50505050509392505050565b6000866103e8606e8801811515611efc57fe5b066103e8606e8801811515611f0d57fe5b066103e8606e8801811515611f1e57fe5b066103e8606e8701811515611f2f57fe5b06604051808673ffffffffffffffffffffffffffffffffffffffff1673ffffffffffffffffffffffffffffffffffffffff166c01000000000000000000000000028152601401858152602001848152602001838152602001828152602001955050505050506040518091039020600019168360001916141515611fb55760009050611fba565b600190505b9695505050505050565b611fcc612dc1565b600080600080600080600b60008b815260200190815260200160002089815481101515611ff557fe5b906000526020600020906004020160000160009054906101000a900460ff16156120285788955087945060009350612033565b879550889450600193505b600b60008b81526020019081526020016000208681548110151561205357fe5b90600052602060002090600402019250600b60008b81526020019081526020016000208581548110151561208357fe5b90600052602060002090600402019150600282600301548460030154018115156120a957fe5b0490508260010154818360010154021115156121005781600101548760006002811015156120d357fe5b602002018181525050808260010154028760016002811015156120f257fe5b60200201818152505061213d565b8083600101540287600060028110151561211657fe5b602002018181525050826001015487600160028110151561213357fe5b6020020181815250505b8696505050505050509392505050565b600081600060028110151561215e57fe5b6020020151600360000154026009600001540360096000018190555081600060028110151561218957fe5b6020020151600360000154028360096001015403016009600101819055506003600501546009600101541015156121c4576121c2612cca565b505b6001905092915050565b6000806000600b6000888152602001908152602001600020868154811015156121f357fe5b906000526020600020906004020160000160009054906101000a900460ff16156122485783600060028110151561222657fe5b6020020151915083600160028110151561223c57fe5b60200201519050612275565b83600060028110151561225757fe5b6020020151915083600160028110151561226d57fe5b602002015190505b7f17fad608e647bf180e9f2d2542498a2ec81fb1cb077d60802b67b21d64adc9b8600c6000898152602001908152602001600020878154811015156122b657fe5b906000526020600020906003020160000160009054906101000a900473ffffffffffffffffffffffffffffffffffffffff16600c60008a81526020019081526020016000208781548110151561230857fe5b906000526020600020906003020160000160009054906101000a900473ffffffffffffffffffffffffffffffffffffffff16600c60008b81526020019081526020016000208981548110151561235a57fe5b9060005260206000209060030201600101600c60008c81526020019081526020016000208981548110151561238b57fe5b9060005260206000209060030201600101600c60008d81526020019081526020016000208b8154811015156123bc57fe5b9060005260206000209060030201600201600c60008e81526020019081526020016000208b8154811015156123ed57fe5b90600052602060002090600302016002018888604051808973ffffffffffffffffffffffffffffffffffffffff1673ffffffffffffffffffffffffffffffffffffffff1681526020018873ffffffffffffffffffffffffffffffffffffffff1673ffffffffffffffffffffffffffffffffffffffff1681526020018060200180602001806020018060200187815260200186815260200185810385528b8181546001816001161561010002031660029004815260200191508054600181600116156101000203166002900480156125055780601f106124da57610100808354040283529160200191612505565b820191906000526020600020905b8154815290600101906020018083116124e857829003601f168201915b505085810384528a8181546001816001161561010002031660029004815260200191508054600181600116156101000203166002900480156125885780601f1061255d57610100808354040283529160200191612588565b820191906000526020600020905b81548152906001019060200180831161256b57829003601f168201915b505085810383528981815460018160011615610100020316600290048152602001915080546001816001161561010002031660029004801561260b5780601f106125e05761010080835404028352916020019161260b565b820191906000526020600020905b8154815290600101906020018083116125ee57829003601f168201915b505085810382528881815460018160011615610100020316600290048152602001915080546001816001161561010002031660029004801561268e5780601f106126635761010080835404028352916020019161268e565b820191906000526020600020905b81548152906001019060200180831161267157829003601f168201915b50509c5050505050505050505050505060405180910390a1600192505050949350505050565b60008160006002811015156126c557fe5b6020020151600b6000878152602001908152602001600020858154811015156126ea57fe5b906000526020600020906004020160010154141561276557600b60008681526020019081526020016000208481548110151561272257fe5b9060005260206000209060040201600101600090556001600d8681548110151561274857fe5b9060005260206000209001600082825401925050819055506127e2565b81600060028110151561277457fe5b6020020151600b60008781526020019081526020016000208581548110151561279957fe5b90600052602060002090600402016001015403600b6000878152602001908152602001600020858154811015156127cc57fe5b9060005260206000209060040201600101819055505b8160016002811015156127f157fe5b6020020151600b60008781526020019081526020016000208481548110151561281657fe5b906000526020600020906004020160010154141561289157600b60008681526020019081526020016000208381548110151561284e57fe5b9060005260206000209060040201600101600090556001600d8681548110151561287457fe5b90600052602060002090016000828254019250508190555061290e565b8160016002811015156128a057fe5b6020020151600b6000878152602001908152602001600020848154811015156128c557fe5b90600052602060002090600402016001015403600b6000878152602001908152602001600020848154811015156128f857fe5b9060005260206000209060040201600101819055505b60019050949350505050565b600080600360020154600d8481548110151561293257fe5b906000526020600020900154101561294d5760009150612b5e565b600090505b600b600084815260200190815260200160002080549050811015612ae7576000600b60008581526020019081526020016000208281548110151561299257fe5b9060005260206000209060040201600101541415612ada576001600b60008581526020019081526020016000208054905003811015612ad957600b6000848152602001908152602001600020600182018154811015156129ee57fe5b9060005260206000209060040201600b600085815260200190815260200160002082815481101515612a1c57fe5b90600052602060002090600402016000820160009054906101000a900460ff168160000160006101000a81548160ff021916908315150217905550600182015481600101556002820154816002015560038201548160030155905050600b600084815260200190815260200160002060018201815481101515612a9b57fe5b9060005260206000209060040201600080820160006101000a81549060ff021916905560018201600090556002820160009055600382016000905550505b5b8080600101915050612952565b600d83815481101515612af657fe5b906000526020600020900154600b60008581526020019081526020016000208054905003600b600085815260200190815260200160002081612b389190612e5b565b506000600d84815481101515612b4a57fe5b906000526020600020900181905550600191505b50919050565b6000600b60008581526020019081526020016000208054905083101515612b8a57600080fd5b600b60008581526020019081526020016000208054905082101515612bae57600080fd5b600b600085815260200190815260200160002082815481101515612bce57fe5b906000526020600020906004020160000160009054906101000a900460ff161515600b600086815260200190815260200160002084815481101515612c0f57fe5b906000526020600020906004020160000160009054906101000a900460ff16151514151515612c3d57600080fd5b6000600b600086815260200190815260200160002084815481101515612c5f57fe5b90600052602060002090600402016001015414151515612c7e57600080fd5b6000600b600086815260200190815260200160002083815481101515612ca057fe5b90600052602060002090600402016001015414151515612cbf57600080fd5b600190509392505050565b6000806009600101819055506001905090565b815481835581811511612d0a57600402816004028360005260206000209182019101612d099190612e8d565b5b505050565b815481835581811511612d3c57600302816003028360005260206000209182019101612d3b9190612ed8565b5b505050565b828054600181600116156101000203166002900490600052602060002090601f016020900481019282601f10612d8257805160ff1916838001178555612db0565b82800160010185558215612db0579182015b82811115612daf578251825591602001919060010190612d94565b5b509050612dbd9190612f3e565b5090565b60408051908101604052806002905b6000815260200190600190039081612dd05790505090565b50805460018160011615610100020316600290046000825580601f10612e0e5750612e2d565b601f016020900490600052602060002090810190612e2c9190612f3e565b5b50565b6080604051908101604052806000151581526020016000815260200160008152602001600081525090565b815481835581811511612e8857600402816004028360005260206000209182019101612e879190612e8d565b5b505050565b612ed591905b80821115612ed157600080820160006101000a81549060ff021916905560018201600090556002820160009055600382016000905550600401612e93565b5090565b90565b612f3b91905b80821115612f3757600080820160006101000a81549073ffffffffffffffffffffffffffffffffffffffff0219169055600182016000612f1e9190612de8565b600282016000612f2e9190612de8565b50600301612ede565b5090565b90565b612f6091905b80821115612f5c576000816000905550600101612f44565b5090565b90565b600086600360000181905550856003600101819055508460036002018190555083600380016000600281101515612f9657fe5b018190555082600380016001600281101515612fae57fe5b018190555081600360050181905550600190509695505050505050565b600060019050905600a165627a7a72305820a38ab67e605e38bc781d2649cc1cdf7b81c5e4e20ac31b9e7b5b63324406003e0029",
  "source": "pragma solidity ^0.4.18;\n\nimport 'zeppelin-solidity/contracts/math/SafeMath.sol';\nimport 'zeppelin-solidity/contracts/token/StandardToken.sol';\nimport './Exchange.sol';\n\n\n/// @title ValexToken\n/// @author Karim Helmy\n\n// Parts sourced from https://github.com/bokkypoobah/Tokens/blob/master/contracts/FixedSupplyToken.sol\n\n// ----------------------------------------------------------------------------\n// 'VLX' 'Valex Token' token contract\n//\n// Symbol      : VLX\n// Name        : Valex Token\n// Total supply: 1,000,000.000000000000000000\n// Decimals    : 18\n//\n// ----------------------------------------------------------------------------\n\n// ----------------------------------------------------------------------------\n// ERC20 Token, with the addition of symbol, name and decimals and an\n// initial fixed supply\n// ----------------------------------------------------------------------------\ncontract ValexToken is StandardToken, Exchange {\n    using SafeMath for uint;\n\n    mapping(address => mapping(address => uint)) public allowed;\n\n    string public name = \"Valex Token\";\n    string public symbol = \"VLX\";\n    uint8 public decimals = 18;\n\n    mapping(address => uint256) balances;\n\n    uint256 public initialSupply = 10000 * (10 ** uint256(decimals));\n\n    /**\n     * @dev Constructor that gives msg.sender all of existing tokens.\n     * @dev Initializes token to have same parameters as exchange\n     */\n    function ValexToken(uint closureFeePerUnit, uint cancelFeePerUnit,\n                      uint cleanSize, uint minershare0, uint minerShare1,\n                      uint distBalance)\n      Exchange(closureFeePerUnit, cancelFeePerUnit,\n              cleanSize,\n              minershare0, minerShare1, distBalance)\n      public\n    {\n      totalSupply = initialSupply;\n      balances[msg.sender] = initialSupply;\n    }\n    //TODO: Implement voting/parameter modification\n\n}\n",
  "sourcePath": "/Users/Karim/Desktop/Valex/contracts/ValexToken.sol",
  "compiler": {
    "name": "solc",
    "version": "0.4.18+commit.9cf6e910.Emscripten.clang"
  },
  "schemaVersion": "1.0.1",
  "updatedAt": "2018-01-16T21:14:53.357Z"
}