{
  "contractName": "ValexToken",
  "abi": [
    {
      "constant": true,
      "inputs": [],
      "name": "name",
      "outputs": [
        {
          "name": "",
          "type": "string"
        }
      ],
      "payable": false,
      "stateMutability": "view",
      "type": "function"
    },
    {
      "constant": false,
      "inputs": [
        {
          "name": "_spender",
          "type": "address"
        },
        {
          "name": "_value",
          "type": "uint256"
        }
      ],
      "name": "approve",
      "outputs": [
        {
          "name": "",
          "type": "bool"
        }
      ],
      "payable": false,
      "stateMutability": "nonpayable",
      "type": "function"
    },
    {
      "constant": true,
      "inputs": [
        {
          "name": "",
          "type": "uint256"
        },
        {
          "name": "",
          "type": "uint256"
        }
      ],
      "name": "orderBook",
      "outputs": [
        {
          "name": "buyETH",
          "type": "bool"
        },
        {
          "name": "volume",
          "type": "uint256"
        },
        {
          "name": "minVolume",
          "type": "uint256"
        },
        {
          "name": "limit",
          "type": "uint256"
        }
      ],
      "payable": false,
      "stateMutability": "view",
      "type": "function"
    },
    {
      "constant": true,
      "inputs": [],
      "name": "totalSupply",
      "outputs": [
        {
          "name": "",
          "type": "uint256"
        }
      ],
      "payable": false,
      "stateMutability": "view",
      "type": "function"
    },
    {
      "constant": false,
      "inputs": [
        {
          "name": "_from",
          "type": "address"
        },
        {
          "name": "_to",
          "type": "address"
        },
        {
          "name": "_value",
          "type": "uint256"
        }
      ],
      "name": "transferFrom",
      "outputs": [
        {
          "name": "",
          "type": "bool"
        }
      ],
      "payable": false,
      "stateMutability": "nonpayable",
      "type": "function"
    },
    {
      "constant": true,
      "inputs": [],
      "name": "decimals",
      "outputs": [
        {
          "name": "",
          "type": "uint8"
        }
      ],
      "payable": false,
      "stateMutability": "view",
      "type": "function"
    },
    {
      "constant": true,
      "inputs": [],
      "name": "initialSupply",
      "outputs": [
        {
          "name": "",
          "type": "uint256"
        }
      ],
      "payable": false,
      "stateMutability": "view",
      "type": "function"
    },
    {
      "constant": false,
      "inputs": [
        {
          "name": "buyETH",
          "type": "bool"
        },
        {
          "name": "volume",
          "type": "uint256"
        },
        {
          "name": "minVolume",
          "type": "uint256"
        },
        {
          "name": "limit",
          "type": "uint256"
        },
        {
          "name": "ethAddress",
          "type": "address"
        },
        {
          "name": "firstAddress",
          "type": "string"
        },
        {
          "name": "otherAddress",
          "type": "string"
        },
        {
          "name": "chapter",
          "type": "uint256"
        }
      ],
      "name": "placeOrder",
      "outputs": [
        {
          "name": "accepted",
          "type": "bool"
        }
      ],
      "payable": true,
      "stateMutability": "payable",
      "type": "function"
    },
    {
      "constant": false,
      "inputs": [
        {
          "name": "_spender",
          "type": "address"
        },
        {
          "name": "_subtractedValue",
          "type": "uint256"
        }
      ],
      "name": "decreaseApproval",
      "outputs": [
        {
          "name": "",
          "type": "bool"
        }
      ],
      "payable": false,
      "stateMutability": "nonpayable",
      "type": "function"
    },
    {
      "constant": false,
      "inputs": [
        {
          "name": "desiredParam",
          "type": "uint256"
        }
      ],
      "name": "voteMinerShare",
      "outputs": [],
      "payable": false,
      "stateMutability": "nonpayable",
      "type": "function"
    },
    {
      "constant": true,
      "inputs": [
        {
          "name": "_owner",
          "type": "address"
        }
      ],
      "name": "balanceOf",
      "outputs": [
        {
          "name": "balance",
          "type": "uint256"
        }
      ],
      "payable": false,
      "stateMutability": "view",
      "type": "function"
    },
    {
      "constant": true,
      "inputs": [],
      "name": "exBalances",
      "outputs": [
        {
          "name": "openBalance",
          "type": "uint256"
        },
        {
          "name": "closedBalance",
          "type": "uint256"
        }
      ],
      "payable": false,
      "stateMutability": "view",
      "type": "function"
    },
    {
      "constant": false,
      "inputs": [
        {
          "name": "desiredParam",
          "type": "uint256"
        }
      ],
      "name": "voteDistBalance",
      "outputs": [],
      "payable": false,
      "stateMutability": "nonpayable",
      "type": "function"
    },
    {
      "constant": true,
      "inputs": [],
      "name": "symbol",
      "outputs": [
        {
          "name": "",
          "type": "string"
        }
      ],
      "payable": false,
      "stateMutability": "view",
      "type": "function"
    },
    {
      "constant": false,
      "inputs": [
        {
          "name": "_to",
          "type": "address"
        },
        {
          "name": "_value",
          "type": "uint256"
        }
      ],
      "name": "transfer",
      "outputs": [
        {
          "name": "",
          "type": "bool"
        }
      ],
      "payable": false,
      "stateMutability": "nonpayable",
      "type": "function"
    },
    {
      "constant": false,
      "inputs": [
        {
          "name": "desiredParam",
          "type": "uint256"
        }
      ],
      "name": "voteCleanSize",
      "outputs": [],
      "payable": false,
      "stateMutability": "nonpayable",
      "type": "function"
    },
    {
      "constant": false,
      "inputs": [
        {
          "name": "chapter",
          "type": "uint256"
        },
        {
          "name": "index",
          "type": "uint256"
        }
      ],
      "name": "cancelOrder",
      "outputs": [
        {
          "name": "accepted",
          "type": "bool"
        }
      ],
      "payable": false,
      "stateMutability": "nonpayable",
      "type": "function"
    },
    {
      "constant": false,
      "inputs": [
        {
          "name": "desiredParam",
          "type": "uint256"
        }
      ],
      "name": "voteClosureFee",
      "outputs": [],
      "payable": false,
      "stateMutability": "nonpayable",
      "type": "function"
    },
    {
      "constant": false,
      "inputs": [
        {
          "name": "desiredParam",
          "type": "uint256"
        }
      ],
      "name": "voteCancelFee",
      "outputs": [],
      "payable": false,
      "stateMutability": "nonpayable",
      "type": "function"
    },
    {
      "constant": true,
      "inputs": [],
      "name": "thresholds",
      "outputs": [
        {
          "name": "closureFeePerUnit",
          "type": "uint256"
        },
        {
          "name": "cancelFeePerUnit",
          "type": "uint256"
        },
        {
          "name": "cleanSize",
          "type": "uint256"
        },
        {
          "name": "minerShare",
          "type": "uint256"
        },
        {
          "name": "distBalance",
          "type": "uint256"
        }
      ],
      "payable": false,
      "stateMutability": "view",
      "type": "function"
    },
    {
      "constant": false,
      "inputs": [
        {
          "name": "depositAddress",
          "type": "address"
        },
        {
          "name": "chapter",
          "type": "uint256"
        },
        {
          "name": "index1",
          "type": "uint256"
        },
        {
          "name": "index2",
          "type": "uint256"
        },
        {
          "name": "nonce",
          "type": "bytes32"
        },
        {
          "name": "hashVal",
          "type": "uint256"
        }
      ],
      "name": "giveMatch",
      "outputs": [
        {
          "name": "isValid",
          "type": "bool"
        }
      ],
      "payable": true,
      "stateMutability": "payable",
      "type": "function"
    },
    {
      "constant": true,
      "inputs": [],
      "name": "params",
      "outputs": [
        {
          "name": "closureFeePerUnit",
          "type": "uint256"
        },
        {
          "name": "cancelFeePerUnit",
          "type": "uint256"
        },
        {
          "name": "cleanSize",
          "type": "uint256"
        },
        {
          "name": "minerShare",
          "type": "uint256"
        },
        {
          "name": "distBalance",
          "type": "uint256"
        }
      ],
      "payable": false,
      "stateMutability": "view",
      "type": "function"
    },
    {
      "constant": false,
      "inputs": [
        {
          "name": "_spender",
          "type": "address"
        },
        {
          "name": "_addedValue",
          "type": "uint256"
        }
      ],
      "name": "increaseApproval",
      "outputs": [
        {
          "name": "",
          "type": "bool"
        }
      ],
      "payable": false,
      "stateMutability": "nonpayable",
      "type": "function"
    },
    {
      "constant": true,
      "inputs": [
        {
          "name": "",
          "type": "uint256"
        },
        {
          "name": "",
          "type": "uint256"
        }
      ],
      "name": "addressBook",
      "outputs": [
        {
          "name": "ethAddress",
          "type": "address"
        },
        {
          "name": "firstAddress",
          "type": "string"
        },
        {
          "name": "otherAddress",
          "type": "string"
        }
      ],
      "payable": false,
      "stateMutability": "view",
      "type": "function"
    },
    {
      "constant": true,
      "inputs": [
        {
          "name": "_owner",
          "type": "address"
        },
        {
          "name": "_spender",
          "type": "address"
        }
      ],
      "name": "allowance",
      "outputs": [
        {
          "name": "",
          "type": "uint256"
        }
      ],
      "payable": false,
      "stateMutability": "view",
      "type": "function"
    },
    {
      "inputs": [
        {
          "name": "closureFeePerUnit",
          "type": "uint256"
        },
        {
          "name": "cancelFeePerUnit",
          "type": "uint256"
        },
        {
          "name": "cleanSize",
          "type": "uint256"
        },
        {
          "name": "minershare",
          "type": "uint256"
        },
        {
          "name": "distBalance",
          "type": "uint256"
        }
      ],
      "payable": false,
      "stateMutability": "nonpayable",
      "type": "constructor"
    },
    {
      "anonymous": false,
      "inputs": [
        {
          "indexed": true,
          "name": "owner",
          "type": "address"
        },
        {
          "indexed": true,
          "name": "spender",
          "type": "address"
        },
        {
          "indexed": false,
          "name": "value",
          "type": "uint256"
        }
      ],
      "name": "Approval",
      "type": "event"
    },
    {
      "anonymous": false,
      "inputs": [
        {
          "indexed": true,
          "name": "from",
          "type": "address"
        },
        {
          "indexed": true,
          "name": "to",
          "type": "address"
        },
        {
          "indexed": false,
          "name": "value",
          "type": "uint256"
        }
      ],
      "name": "Transfer",
      "type": "event"
    },
    {
      "anonymous": false,
      "inputs": [
        {
          "indexed": false,
          "name": "ethAddress1",
          "type": "address"
        },
        {
          "indexed": false,
          "name": "ethAddress2",
          "type": "address"
        },
        {
          "indexed": false,
          "name": "firstAddress1",
          "type": "string"
        },
        {
          "indexed": false,
          "name": "firstAddress2",
          "type": "string"
        },
        {
          "indexed": false,
          "name": "otherAddress1",
          "type": "string"
        },
        {
          "indexed": false,
          "name": "otherAddress2",
          "type": "string"
        },
        {
          "indexed": false,
          "name": "mimRate",
          "type": "uint256"
        },
        {
          "indexed": false,
          "name": "ethVol",
          "type": "uint256"
        }
      ],
      "name": "TradeInfo",
      "type": "event"
    }
  ],
  "bytecode": "0x60606040526040805190810160405280600b81526020017f56616c657820546f6b656e000000000000000000000000000000000000000000815250600d908051906020019062000051929190620003f4565b506040805190810160405280600381526020017f564c580000000000000000000000000000000000000000000000000000000000815250600e90805190602001906200009f929190620003f4565b506012600f60006101000a81548160ff021916908360ff160217905550600f60009054906101000a900460ff1660ff16600a0a612710026010553415620000e557600080fd5b60405160a0806200445c8339810160405280805190602001909190805190602001909190805190602001909190805190602001909190805190602001909190505084848484846200014e8585858585620001f76401000000000262003b61176401000000009004565b6200016c6200022f6401000000000262003b99176401000000009004565b50600980548060010182816200018391906200047b565b9160005260206000209001600080909190915055505050505050601054600b81905550601054600a60003373ffffffffffffffffffffffffffffffffffffffff1673ffffffffffffffffffffffffffffffffffffffff168152602001908152602001600020819055505050505050620006ca565b846000800181905550836000600101819055508260006002018190555081600060030181905550806000600401819055505050505050565b6000600760008081526020019081526020016000208054806001018281620002589190620004aa565b9160005260206000209060040201600060806040519081016040528060001515815260200160008152602001600081526020016000815250909190915060008201518160000160006101000a81548160ff021916908315150217905550602082015181600101556040820151816002015560608201518160030155505050600860008081526020019081526020016000208054806001018281620002fd9190620004df565b91600052602060002090600302016000606060405190810160405280600073ffffffffffffffffffffffffffffffffffffffff168152602001602060405190810160405280600081525081526020016020604051908101604052806000815250815250909190915060008201518160000160006101000a81548173ffffffffffffffffffffffffffffffffffffffff021916908373ffffffffffffffffffffffffffffffffffffffff1602179055506020820151816001019080519060200190620003ca92919062000514565b506040820151816002019080519060200190620003e992919062000514565b505050506001905090565b828054600181600116156101000203166002900490600052602060002090601f016020900481019282601f106200043757805160ff191683800117855562000468565b8280016001018555821562000468579182015b82811115620004675782518255916020019190600101906200044a565b5b5090506200047791906200059b565b5090565b815481835581811511620004a557818360005260206000209182019101620004a491906200059b565b5b505050565b815481835581811511620004da57600402816004028360005260206000209182019101620004d99190620005c3565b5b505050565b8154818355818115116200050f576003028160030283600052602060002091820191016200050e919062000611565b5b505050565b828054600181600116156101000203166002900490600052602060002090601f016020900481019282601f106200055757805160ff191683800117855562000588565b8280016001018555821562000588579182015b82811115620005875782518255916020019190600101906200056a565b5b5090506200059791906200059b565b5090565b620005c091905b80821115620005bc576000816000905550600101620005a2565b5090565b90565b6200060e91905b808211156200060a57600080820160006101000a81549060ff021916905560018201600090556002820160009055600382016000905550600401620005ca565b5090565b90565b6200067b91905b808211156200067757600080820160006101000a81549073ffffffffffffffffffffffffffffffffffffffff02191690556001820160006200065b91906200067e565b6002820160006200066d91906200067e565b5060030162000618565b5090565b90565b50805460018160011615610100020316600290046000825580601f10620006a65750620006c7565b601f016020900490600052602060002090810190620006c691906200059b565b5b50565b613d8280620006da6000396000f300606060405260043610610149576000357c0100000000000000000000000000000000000000000000000000000000900463ffffffff16806306fdde031461014e578063095ea7b3146101dc57806314974f461461023657806318160ddd1461028f57806323b872dd146102b8578063313ce56714610331578063378dc3dc146103605780634aed275c14610389578063661884631461048457806369f99f80146104de57806370a0823114610501578063737f02af1461054e5780637db23c051461057e57806395d89b41146105a1578063a9059cbb1461062f578063af87439e14610689578063b6ed0632146106ac578063c932aa7b146106f0578063ca7f74ea14610713578063cda43b3a14610736578063cf38deda1461077b578063cff0ab96146107f2578063d73dd62314610837578063da92b7c114610891578063dd62ed3e14610a0f575b600080fd5b341561015957600080fd5b610161610a7b565b6040518080602001828103825283818151815260200191508051906020019080838360005b838110156101a1578082015181840152602081019050610186565b50505050905090810190601f1680156101ce5780820380516001836020036101000a031916815260200191505b509250505060405180910390f35b34156101e757600080fd5b61021c600480803573ffffffffffffffffffffffffffffffffffffffff16906020019091908035906020019091905050610b19565b604051808215151515815260200191505060405180910390f35b341561024157600080fd5b6102606004808035906020019091908035906020019091905050610c0b565b604051808515151515815260200184815260200183815260200182815260200194505050505060405180910390f35b341561029a57600080fd5b6102a2610c64565b6040518082815260200191505060405180910390f35b34156102c357600080fd5b610317600480803573ffffffffffffffffffffffffffffffffffffffff1690602001909190803573ffffffffffffffffffffffffffffffffffffffff16906020019091908035906020019091905050610c6e565b604051808215151515815260200191505060405180910390f35b341561033c57600080fd5b61034461102d565b604051808260ff1660ff16815260200191505060405180910390f35b341561036b57600080fd5b610373611040565b6040518082815260200191505060405180910390f35b61046a6004808035151590602001909190803590602001909190803590602001909190803590602001909190803573ffffffffffffffffffffffffffffffffffffffff1690602001909190803590602001908201803590602001908080601f0160208091040260200160405190810160405280939291908181526020018383808284378201915050505050509190803590602001908201803590602001908080601f01602080910402602001604051908101604052809392919081815260200183838082843782019150505050505091908035906020019091905050611046565b604051808215151515815260200191505060405180910390f35b341561048f57600080fd5b6104c4600480803573ffffffffffffffffffffffffffffffffffffffff1690602001909190803590602001909190505061127f565b604051808215151515815260200191505060405180910390f35b34156104e957600080fd5b6104ff6004808035906020019091905050611510565b005b341561050c57600080fd5b610538600480803573ffffffffffffffffffffffffffffffffffffffff16906020019091905050611730565b6040518082815260200191505060405180910390f35b341561055957600080fd5b610561611779565b604051808381526020018281526020019250505060405180910390f35b341561058957600080fd5b61059f600480803590602001909190505061178b565b005b34156105ac57600080fd5b6105b46119ab565b6040518080602001828103825283818151815260200191508051906020019080838360005b838110156105f45780820151818401526020810190506105d9565b50505050905090810190601f1680156106215780820380516001836020036101000a031916815260200191505b509250505060405180910390f35b341561063a57600080fd5b61066f600480803573ffffffffffffffffffffffffffffffffffffffff16906020019091908035906020019091905050611a49565b604051808215151515815260200191505060405180910390f35b341561069457600080fd5b6106aa6004808035906020019091905050611c6d565b005b34156106b757600080fd5b6106d66004808035906020019091908035906020019091905050611e8d565b604051808215151515815260200191505060405180910390f35b34156106fb57600080fd5b61071160048080359060200190919050506121b7565b005b341561071e57600080fd5b61073460048080359060200190919050506123d6565b005b341561074157600080fd5b6107496125f6565b604051808681526020018581526020018481526020018381526020018281526020019550505050505060405180910390f35b6107d8600480803573ffffffffffffffffffffffffffffffffffffffff169060200190919080359060200190919080359060200190919080359060200190919080356000191690602001909190803590602001909190505061261a565b604051808215151515815260200191505060405180910390f35b34156107fd57600080fd5b610805612701565b604051808681526020018581526020018481526020018381526020018281526020019550505050505060405180910390f35b341561084257600080fd5b610877600480803573ffffffffffffffffffffffffffffffffffffffff16906020019091908035906020019091905050612725565b604051808215151515815260200191505060405180910390f35b341561089c57600080fd5b6108bb6004808035906020019091908035906020019091905050612921565b604051808473ffffffffffffffffffffffffffffffffffffffff1673ffffffffffffffffffffffffffffffffffffffff168152602001806020018060200183810383528581815460018160011615610100020316600290048152602001915080546001816001161561010002031660029004801561097a5780601f1061094f5761010080835404028352916020019161097a565b820191906000526020600020905b81548152906001019060200180831161095d57829003601f168201915b50508381038252848181546001816001161561010002031660029004815260200191508054600181600116156101000203166002900480156109fd5780601f106109d2576101008083540402835291602001916109fd565b820191906000526020600020905b8154815290600101906020018083116109e057829003601f168201915b50509550505050505060405180910390f35b3415610a1a57600080fd5b610a65600480803573ffffffffffffffffffffffffffffffffffffffff1690602001909190803573ffffffffffffffffffffffffffffffffffffffff16906020019091905050612985565b6040518082815260200191505060405180910390f35b600d8054600181600116156101000203166002900480601f016020809104026020016040519081016040528092919081815260200182805460018160011615610100020316600290048015610b115780601f10610ae657610100808354040283529160200191610b11565b820191906000526020600020905b815481529060010190602001808311610af457829003601f168201915b505050505081565b600081600c60003373ffffffffffffffffffffffffffffffffffffffff1673ffffffffffffffffffffffffffffffffffffffff16815260200190815260200160002060008573ffffffffffffffffffffffffffffffffffffffff1673ffffffffffffffffffffffffffffffffffffffff168152602001908152602001600020819055508273ffffffffffffffffffffffffffffffffffffffff163373ffffffffffffffffffffffffffffffffffffffff167f8c5be1e5ebec7d5bd14f71427d1e84f3dd0314c0f7b2291e5b200ac8c7c3b925846040518082815260200191505060405180910390a36001905092915050565b600760205281600052604060002081815481101515610c2657fe5b9060005260206000209060040201600091509150508060000160009054906101000a900460ff16908060010154908060020154908060030154905084565b6000600b54905090565b60008073ffffffffffffffffffffffffffffffffffffffff168373ffffffffffffffffffffffffffffffffffffffff1614151515610cab57600080fd5b600a60008573ffffffffffffffffffffffffffffffffffffffff1673ffffffffffffffffffffffffffffffffffffffff168152602001908152602001600020548211151515610cf957600080fd5b600c60008573ffffffffffffffffffffffffffffffffffffffff1673ffffffffffffffffffffffffffffffffffffffff16815260200190815260200160002060003373ffffffffffffffffffffffffffffffffffffffff1673ffffffffffffffffffffffffffffffffffffffff168152602001908152602001600020548211151515610d8457600080fd5b610dd682600a60008773ffffffffffffffffffffffffffffffffffffffff1673ffffffffffffffffffffffffffffffffffffffff16815260200190815260200160002054612a0c90919063ffffffff16565b600a60008673ffffffffffffffffffffffffffffffffffffffff1673ffffffffffffffffffffffffffffffffffffffff16815260200190815260200160002081905550610e6b82600a60008673ffffffffffffffffffffffffffffffffffffffff1673ffffffffffffffffffffffffffffffffffffffff16815260200190815260200160002054612a2590919063ffffffff16565b600a60008573ffffffffffffffffffffffffffffffffffffffff1673ffffffffffffffffffffffffffffffffffffffff16815260200190815260200160002081905550610f3d82600c60008773ffffffffffffffffffffffffffffffffffffffff1673ffffffffffffffffffffffffffffffffffffffff16815260200190815260200160002060003373ffffffffffffffffffffffffffffffffffffffff1673ffffffffffffffffffffffffffffffffffffffff16815260200190815260200160002054612a0c90919063ffffffff16565b600c60008673ffffffffffffffffffffffffffffffffffffffff1673ffffffffffffffffffffffffffffffffffffffff16815260200190815260200160002060003373ffffffffffffffffffffffffffffffffffffffff1673ffffffffffffffffffffffffffffffffffffffff168152602001908152602001600020819055508273ffffffffffffffffffffffffffffffffffffffff168473ffffffffffffffffffffffffffffffffffffffff167fddf252ad1be2c89b69c2b068fc378daa952ba7f163c4a11628f55a4df523b3ef846040518082815260200191505060405180910390a3600190509392505050565b600f60009054906101000a900460ff1681565b60105481565b6000808811151561105657600080fd5b60008711151561106557600080fd5b86881015151561107457600080fd5b60008611151561108357600080fd5b88156110a55760008001548802348702101515156110a057600080fd5b6110bb565b6000800154880234101515156110ba57600080fd5b5b600060076000848152602001908152602001600020805490501115156110e057600080fd5b6007600083815260200190815260200160002080548060010182816111059190613902565b916000526020600020906004020160006080604051908101604052808d151581526020018c81526020018b81526020018a815250909190915060008201518160000160006101000a81548160ff0219169083151502179055506020820151816001015560408201518160020155606082015181600301555050506008600083815260200190815260200160002080548060010182816111a49190613934565b916000526020600020906003020160006060604051908101604052808973ffffffffffffffffffffffffffffffffffffffff16815260200188815260200187815250909190915060008201518160000160006101000a81548173ffffffffffffffffffffffffffffffffffffffff021916908373ffffffffffffffffffffffffffffffffffffffff160217905550602082015181600101908051906020019061124e929190613966565b50604082015181600201908051906020019061126b929190613966565b505050506001905098975050505050505050565b600080600c60003373ffffffffffffffffffffffffffffffffffffffff1673ffffffffffffffffffffffffffffffffffffffff16815260200190815260200160002060008573ffffffffffffffffffffffffffffffffffffffff1673ffffffffffffffffffffffffffffffffffffffff16815260200190815260200160002054905080831115611390576000600c60003373ffffffffffffffffffffffffffffffffffffffff1673ffffffffffffffffffffffffffffffffffffffff16815260200190815260200160002060008673ffffffffffffffffffffffffffffffffffffffff1673ffffffffffffffffffffffffffffffffffffffff16815260200190815260200160002081905550611424565b6113a38382612a0c90919063ffffffff16565b600c60003373ffffffffffffffffffffffffffffffffffffffff1673ffffffffffffffffffffffffffffffffffffffff16815260200190815260200160002060008673ffffffffffffffffffffffffffffffffffffffff1673ffffffffffffffffffffffffffffffffffffffff168152602001908152602001600020819055505b8373ffffffffffffffffffffffffffffffffffffffff163373ffffffffffffffffffffffffffffffffffffffff167f8c5be1e5ebec7d5bd14f71427d1e84f3dd0314c0f7b2291e5b200ac8c7c3b925600c60003373ffffffffffffffffffffffffffffffffffffffff1673ffffffffffffffffffffffffffffffffffffffff16815260200190815260200160002060008873ffffffffffffffffffffffffffffffffffffffff1673ffffffffffffffffffffffffffffffffffffffff168152602001908152602001600020546040518082815260200191505060405180910390a3600191505092915050565b6000600a60003373ffffffffffffffffffffffffffffffffffffffff1673ffffffffffffffffffffffffffffffffffffffff1681526020019081526020016000205411151561155e57600080fd5b60008111151561156d57600080fd5b6000601160003373ffffffffffffffffffffffffffffffffffffffff1673ffffffffffffffffffffffffffffffffffffffff16815260200190815260200160002060030154111561165b57600a60003373ffffffffffffffffffffffffffffffffffffffff1673ffffffffffffffffffffffffffffffffffffffff1681526020019081526020016000205460156000601160003373ffffffffffffffffffffffffffffffffffffffff1673ffffffffffffffffffffffffffffffffffffffff168152602001908152602001600020600301548152602001908152602001600020600082825403925050819055505b80601160003373ffffffffffffffffffffffffffffffffffffffff1673ffffffffffffffffffffffffffffffffffffffff16815260200190815260200160002060030181905550600a60003373ffffffffffffffffffffffffffffffffffffffff1673ffffffffffffffffffffffffffffffffffffffff1681526020019081526020016000205460156000838152602001908152602001600020600082825401925050819055506017600301546015600083815260200190815260200160002054111561172d57806000600301819055505b50565b6000600a60008373ffffffffffffffffffffffffffffffffffffffff1673ffffffffffffffffffffffffffffffffffffffff168152602001908152602001600020549050919050565b60058060000154908060010154905082565b6000600a60003373ffffffffffffffffffffffffffffffffffffffff1673ffffffffffffffffffffffffffffffffffffffff168152602001908152602001600020541115156117d957600080fd5b6000811115156117e857600080fd5b6000601160003373ffffffffffffffffffffffffffffffffffffffff1673ffffffffffffffffffffffffffffffffffffffff1681526020019081526020016000206004015411156118d657600a60003373ffffffffffffffffffffffffffffffffffffffff1673ffffffffffffffffffffffffffffffffffffffff1681526020019081526020016000205460166000601160003373ffffffffffffffffffffffffffffffffffffffff1673ffffffffffffffffffffffffffffffffffffffff168152602001908152602001600020600401548152602001908152602001600020600082825403925050819055505b80601160003373ffffffffffffffffffffffffffffffffffffffff1673ffffffffffffffffffffffffffffffffffffffff16815260200190815260200160002060040181905550600a60003373ffffffffffffffffffffffffffffffffffffffff1673ffffffffffffffffffffffffffffffffffffffff168152602001908152602001600020546016600083815260200190815260200160002060008282540192505081905550601760040154601660008381526020019081526020016000205411156119a857806000600401819055505b50565b600e8054600181600116156101000203166002900480601f016020809104026020016040519081016040528092919081815260200182805460018160011615610100020316600290048015611a415780601f10611a1657610100808354040283529160200191611a41565b820191906000526020600020905b815481529060010190602001808311611a2457829003601f168201915b505050505081565b60008073ffffffffffffffffffffffffffffffffffffffff168373ffffffffffffffffffffffffffffffffffffffff1614151515611a8657600080fd5b600a60003373ffffffffffffffffffffffffffffffffffffffff1673ffffffffffffffffffffffffffffffffffffffff168152602001908152602001600020548211151515611ad457600080fd5b611b2682600a60003373ffffffffffffffffffffffffffffffffffffffff1673ffffffffffffffffffffffffffffffffffffffff16815260200190815260200160002054612a0c90919063ffffffff16565b600a60003373ffffffffffffffffffffffffffffffffffffffff1673ffffffffffffffffffffffffffffffffffffffff16815260200190815260200160002081905550611bbb82600a60008673ffffffffffffffffffffffffffffffffffffffff1673ffffffffffffffffffffffffffffffffffffffff16815260200190815260200160002054612a2590919063ffffffff16565b600a60008573ffffffffffffffffffffffffffffffffffffffff1673ffffffffffffffffffffffffffffffffffffffff168152602001908152602001600020819055508273ffffffffffffffffffffffffffffffffffffffff163373ffffffffffffffffffffffffffffffffffffffff167fddf252ad1be2c89b69c2b068fc378daa952ba7f163c4a11628f55a4df523b3ef846040518082815260200191505060405180910390a36001905092915050565b6000600a60003373ffffffffffffffffffffffffffffffffffffffff1673ffffffffffffffffffffffffffffffffffffffff16815260200190815260200160002054111515611cbb57600080fd5b600081111515611cca57600080fd5b6000601160003373ffffffffffffffffffffffffffffffffffffffff1673ffffffffffffffffffffffffffffffffffffffff168152602001908152602001600020600201541115611db857600a60003373ffffffffffffffffffffffffffffffffffffffff1673ffffffffffffffffffffffffffffffffffffffff1681526020019081526020016000205460146000601160003373ffffffffffffffffffffffffffffffffffffffff1673ffffffffffffffffffffffffffffffffffffffff168152602001908152602001600020600201548152602001908152602001600020600082825403925050819055505b80601160003373ffffffffffffffffffffffffffffffffffffffff1673ffffffffffffffffffffffffffffffffffffffff16815260200190815260200160002060020181905550600a60003373ffffffffffffffffffffffffffffffffffffffff1673ffffffffffffffffffffffffffffffffffffffff16815260200190815260200160002054601460008381526020019081526020016000206000828254019250508190555060176002015460146000838152602001908152602001600020541115611e8a57806000600201819055505b50565b6000806000600760008681526020019081526020016000208054905084101515611eb657600080fd5b6008600086815260200190815260200160002084815481101515611ed657fe5b906000526020600020906003020160000160009054906101000a900473ffffffffffffffffffffffffffffffffffffffff1673ffffffffffffffffffffffffffffffffffffffff163373ffffffffffffffffffffffffffffffffffffffff16141515611f4157600080fd5b6007600086815260200190815260200160002084815481101515611f6157fe5b90600052602060002090600402016003015491506007600086815260200190815260200160002084815481101515611f9557fe5b90600052602060002090600402016001015490506007600086815260200190815260200160002084815481101515611fc957fe5b906000526020600020906004020160000160009054906101000a900460ff161561204a573373ffffffffffffffffffffffffffffffffffffffff166108fc83600060010154600080015403840281151561201f57fe5b049081150290604051600060405180830381858888f19350505050151561204557600080fd5b6120a3565b3373ffffffffffffffffffffffffffffffffffffffff166108fc83600060010154600080015403840281151561207c57fe5b049081150290604051600060405180830381858888f1935050505015156120a257600080fd5b5b60076000868152602001908152602001600020848154811015156120c357fe5b9060005260206000209060040201600080820160006101000a81549060ff02191690556001820160009055600282016000905560038201600090555050600860008681526020019081526020016000208481548110151561212057fe5b9060005260206000209060030201600080820160006101000a81549073ffffffffffffffffffffffffffffffffffffffff021916905560018201600061216691906139e6565b60028201600061217691906139e6565b5050600160098681548110151561218957fe5b9060005260206000209001600082825401925050819055506121aa85612a43565b5060019250505092915050565b6000600a60003373ffffffffffffffffffffffffffffffffffffffff1673ffffffffffffffffffffffffffffffffffffffff1681526020019081526020016000205411151561220557600080fd5b60008111151561221457600080fd5b6000601160003373ffffffffffffffffffffffffffffffffffffffff1673ffffffffffffffffffffffffffffffffffffffff16815260200190815260200160002060000154111561230257600a60003373ffffffffffffffffffffffffffffffffffffffff1673ffffffffffffffffffffffffffffffffffffffff1681526020019081526020016000205460126000601160003373ffffffffffffffffffffffffffffffffffffffff1673ffffffffffffffffffffffffffffffffffffffff168152602001908152602001600020600001548152602001908152602001600020600082825403925050819055505b80601160003373ffffffffffffffffffffffffffffffffffffffff1673ffffffffffffffffffffffffffffffffffffffff16815260200190815260200160002060000181905550600a60003373ffffffffffffffffffffffffffffffffffffffff1673ffffffffffffffffffffffffffffffffffffffff168152602001908152602001600020546012600083815260200190815260200160002060008282540192505081905550601760000154601260008381526020019081526020016000205411156123d3578060008001819055505b50565b6000600a60003373ffffffffffffffffffffffffffffffffffffffff1673ffffffffffffffffffffffffffffffffffffffff1681526020019081526020016000205411151561242457600080fd5b60008111151561243357600080fd5b6000601160003373ffffffffffffffffffffffffffffffffffffffff1673ffffffffffffffffffffffffffffffffffffffff16815260200190815260200160002060010154111561252157600a60003373ffffffffffffffffffffffffffffffffffffffff1673ffffffffffffffffffffffffffffffffffffffff1681526020019081526020016000205460136000601160003373ffffffffffffffffffffffffffffffffffffffff1673ffffffffffffffffffffffffffffffffffffffff168152602001908152602001600020600101548152602001908152602001600020600082825403925050819055505b80601160003373ffffffffffffffffffffffffffffffffffffffff1673ffffffffffffffffffffffffffffffffffffffff16815260200190815260200160002060010181905550600a60003373ffffffffffffffffffffffffffffffffffffffff1673ffffffffffffffffffffffffffffffffffffffff168152602001908152602001600020546013600083815260200190815260200160002060008282540192505081905550601760010154601360008381526020019081526020016000205411156125f357806000600101819055505b50565b60178060000154908060010154908060020154908060030154908060040154905085565b60008060008061262e8a8a8a8a8a8a612c8d565b151561263d57600093506126f4565b612648898989612d28565b92509250600082141561265e57600093506126f4565b670de0b6b3a7640000826000800154600060030154020281151561267e57fe5b0490508973ffffffffffffffffffffffffffffffffffffffff166108fc829081150290604051600060405180830381858888f1935050505015156126c157600080fd5b6126cb8183612f99565b6126d88989898686612fe9565b6126e58989898686613421565b6126ee89612a43565b50600193505b5050509695505050505050565b60008060000154908060010154908060020154908060030154908060040154905085565b60006127b682600c60003373ffffffffffffffffffffffffffffffffffffffff1673ffffffffffffffffffffffffffffffffffffffff16815260200190815260200160002060008673ffffffffffffffffffffffffffffffffffffffff1673ffffffffffffffffffffffffffffffffffffffff16815260200190815260200160002054612a2590919063ffffffff16565b600c60003373ffffffffffffffffffffffffffffffffffffffff1673ffffffffffffffffffffffffffffffffffffffff16815260200190815260200160002060008573ffffffffffffffffffffffffffffffffffffffff1673ffffffffffffffffffffffffffffffffffffffff168152602001908152602001600020819055508273ffffffffffffffffffffffffffffffffffffffff163373ffffffffffffffffffffffffffffffffffffffff167f8c5be1e5ebec7d5bd14f71427d1e84f3dd0314c0f7b2291e5b200ac8c7c3b925600c60003373ffffffffffffffffffffffffffffffffffffffff1673ffffffffffffffffffffffffffffffffffffffff16815260200190815260200160002060008773ffffffffffffffffffffffffffffffffffffffff1673ffffffffffffffffffffffffffffffffffffffff168152602001908152602001600020546040518082815260200191505060405180910390a36001905092915050565b60086020528160005260406000208181548110151561293c57fe5b9060005260206000209060030201600091509150508060000160009054906101000a900473ffffffffffffffffffffffffffffffffffffffff1690806001019080600201905083565b6000600c60008473ffffffffffffffffffffffffffffffffffffffff1673ffffffffffffffffffffffffffffffffffffffff16815260200190815260200160002060008373ffffffffffffffffffffffffffffffffffffffff1673ffffffffffffffffffffffffffffffffffffffff16815260200190815260200160002054905092915050565b6000828211151515612a1a57fe5b818303905092915050565b6000808284019050838110151515612a3957fe5b8091505092915050565b600080600060020154600984815481101515612a5b57fe5b9060005260206000209001541015612a765760009150612c87565b600190505b6007600084815260200190815260200160002080549050811015612c105760006007600085815260200190815260200160002082815481101515612abb57fe5b9060005260206000209060040201600101541415612c03576001600760008581526020019081526020016000208054905003811015612c02576007600084815260200190815260200160002060018201815481101515612b1757fe5b90600052602060002090600402016007600085815260200190815260200160002082815481101515612b4557fe5b90600052602060002090600402016000820160009054906101000a900460ff168160000160006101000a81548160ff0219169083151502179055506001820154816001015560028201548160020155600382015481600301559050506007600084815260200190815260200160002060018201815481101515612bc457fe5b9060005260206000209060040201600080820160006101000a81549060ff021916905560018201600090556002820160009055600382016000905550505b5b8080600101915050612a7b565b600983815481101515612c1f57fe5b9060005260206000209001546007600085815260200190815260200160002080549050036007600085815260200190815260200160002081612c619190613a2e565b506000600984815481101515612c7357fe5b906000526020600020900181905550600191505b50919050565b60008686868685604051808673ffffffffffffffffffffffffffffffffffffffff1673ffffffffffffffffffffffffffffffffffffffff166c01000000000000000000000000028152601401858152602001848152602001838152602001828152602001955050505050506040518091039020600019168360001916141515612d195760009050612d1e565b600190505b9695505050505050565b600080600080612d36613a60565b612d3e613a60565b612d49898989613785565b1515612d615760008081915080905095509550612f8d565b600760008a815260200190815260200160002088815481101515612d8157fe5b906000526020600020906004020160000160009054906101000a900460ff1615612db057879350869250612db7565b8693508792505b600760008a815260200190815260200160002084815481101515612dd757fe5b9060005260206000209060040201608060405190810160405290816000820160009054906101000a900460ff1615151515815260200160018201548152602001600282015481526020016003820154815250509150600760008a815260200190815260200160002083815481101515612e4c57fe5b9060005260206000209060040201608060405190810160405290816000820160009054906101000a900460ff1615151515815260200160018201548152602001600282015481526020016003820154815250509050806060015182606001511015612ec35760008081915080905095509550612f8d565b60028160600151836060015101811515612ed957fe5b04955085816020015102670de0b6b3a76400008360200151021115612f375785816020015102670de0b6b3a76400008360400151021115612f265760008081915080905095509550612f8d565b858682602001510295509550612f8d565b670de0b6b3a7640000826020015102868260200151021115612f8257670de0b6b3a7640000826020015102868260400151021115612f815760008081915080905095509550612f8d565b5b858260200151955095505b50505050935093915050565b806000800154026005600001540360056000018190555080600080015402826005600101540301600560010181905550600060040154600560010154101515612fe557612fe46138eb565b5b5050565b7f17fad608e647bf180e9f2d2542498a2ec81fb1cb077d60802b67b21d64adc9b8600860008781526020019081526020016000208581548110151561302a57fe5b906000526020600020906003020160000160009054906101000a900473ffffffffffffffffffffffffffffffffffffffff16600860008881526020019081526020016000208581548110151561307c57fe5b906000526020600020906003020160000160009054906101000a900473ffffffffffffffffffffffffffffffffffffffff1660086000898152602001908152602001600020878154811015156130ce57fe5b9060005260206000209060030201600101600860008a8152602001908152602001600020878154811015156130ff57fe5b9060005260206000209060030201600101600860008b81526020019081526020016000208981548110151561313057fe5b9060005260206000209060030201600201600860008c81526020019081526020016000208981548110151561316157fe5b90600052602060002090600302016002018888604051808973ffffffffffffffffffffffffffffffffffffffff1673ffffffffffffffffffffffffffffffffffffffff1681526020018873ffffffffffffffffffffffffffffffffffffffff1673ffffffffffffffffffffffffffffffffffffffff1681526020018060200180602001806020018060200187815260200186815260200185810385528b8181546001816001161561010002031660029004815260200191508054600181600116156101000203166002900480156132795780601f1061324e57610100808354040283529160200191613279565b820191906000526020600020905b81548152906001019060200180831161325c57829003601f168201915b505085810384528a8181546001816001161561010002031660029004815260200191508054600181600116156101000203166002900480156132fc5780601f106132d1576101008083540402835291602001916132fc565b820191906000526020600020905b8154815290600101906020018083116132df57829003601f168201915b505085810383528981815460018160011615610100020316600290048152602001915080546001816001161561010002031660029004801561337f5780601f106133545761010080835404028352916020019161337f565b820191906000526020600020905b81548152906001019060200180831161336257829003601f168201915b50508581038252888181546001816001161561010002031660029004815260200191508054600181600116156101000203166002900480156134025780601f106133d757610100808354040283529160200191613402565b820191906000526020600020905b8154815290600101906020018083116133e557829003601f168201915b50509c5050505050505050505050505060405180910390a15050505050565b600080600760008881526020019081526020016000208681548110151561344457fe5b906000526020600020906004020160000160009054906101000a900460ff16156134735785915084905061347a565b8491508590505b82600760008981526020019081526020016000208381548110151561349b57fe5b90600052602060002090600402016001015414156134dd5760016009888154811015156134c457fe5b9060005260206000209001600082825401925050819055505b8260076000898152602001908152602001600020838154811015156134fe57fe5b9060005260206000209060040201600201541015613552576000600760008981526020019081526020016000208381548110151561353857fe5b906000526020600020906004020160020181905550613592565b82600760008981526020019081526020016000208381548110151561357357fe5b9060005260206000209060040201600201600082825403925050819055505b8260076000898152602001908152602001600020838154811015156135b357fe5b906000526020600020906004020160010160008282540392505081905550670de0b6b3a76400008484028115156135e657fe5b04600760008981526020019081526020016000208281548110151561360757fe5b906000526020600020906004020160010154141561364957600160098881548110151561363057fe5b9060005260206000209001600082825401925050819055505b670de0b6b3a764000084840281151561365e57fe5b04600760008981526020019081526020016000208281548110151561367f57fe5b90600052602060002090600402016002015410156136d357600060076000898152602001908152602001600020828154811015156136b957fe5b906000526020600020906004020160020181905550613728565b670de0b6b3a76400008484028115156136e857fe5b04600760008981526020019081526020016000208281548110151561370957fe5b9060005260206000209060040201600201600082825403925050819055505b670de0b6b3a764000084840281151561373d57fe5b04600760008981526020019081526020016000208281548110151561375e57fe5b90600052602060002090600402016001016000828254039250508190555050505050505050565b60006007600085815260200190815260200160002080549050831015156137ab57600080fd5b6007600085815260200190815260200160002080549050821015156137cf57600080fd5b60076000858152602001908152602001600020828154811015156137ef57fe5b906000526020600020906004020160000160009054906101000a900460ff161515600760008681526020019081526020016000208481548110151561383057fe5b906000526020600020906004020160000160009054906101000a900460ff1615151415151561385e57600080fd5b6000600760008681526020019081526020016000208481548110151561388057fe5b9060005260206000209060040201600101541415151561389f57600080fd5b600060076000868152602001908152602001600020838154811015156138c157fe5b906000526020600020906004020160010154141515156138e057600080fd5b600190509392505050565b6138f36138f5565b565b6000600560010181905550565b81548183558181151161392f5760040281600402836000526020600020918201910161392e9190613a8b565b5b505050565b815481835581811511613961576003028160030283600052602060002091820191016139609190613ad6565b5b505050565b828054600181600116156101000203166002900490600052602060002090601f016020900481019282601f106139a757805160ff19168380011785556139d5565b828001600101855582156139d5579182015b828111156139d45782518255916020019190600101906139b9565b5b5090506139e29190613b3c565b5090565b50805460018160011615610100020316600290046000825580601f10613a0c5750613a2b565b601f016020900490600052602060002090810190613a2a9190613b3c565b5b50565b815481835581811511613a5b57600402816004028360005260206000209182019101613a5a9190613a8b565b5b505050565b6080604051908101604052806000151581526020016000815260200160008152602001600081525090565b613ad391905b80821115613acf57600080820160006101000a81549060ff021916905560018201600090556002820160009055600382016000905550600401613a91565b5090565b90565b613b3991905b80821115613b3557600080820160006101000a81549073ffffffffffffffffffffffffffffffffffffffff0219169055600182016000613b1c91906139e6565b600282016000613b2c91906139e6565b50600301613adc565b5090565b90565b613b5e91905b80821115613b5a576000816000905550600101613b42565b5090565b90565b846000800181905550836000600101819055508260006002018190555081600060030181905550806000600401819055505050505050565b6000600760008081526020019081526020016000208054806001018281613bc09190613902565b9160005260206000209060040201600060806040519081016040528060001515815260200160008152602001600081526020016000815250909190915060008201518160000160006101000a81548160ff021916908315150217905550602082015181600101556040820151816002015560608201518160030155505050600860008081526020019081526020016000208054806001018281613c639190613934565b91600052602060002090600302016000606060405190810160405280600073ffffffffffffffffffffffffffffffffffffffff168152602001602060405190810160405280600081525081526020016020604051908101604052806000815250815250909190915060008201518160000160006101000a81548173ffffffffffffffffffffffffffffffffffffffff021916908373ffffffffffffffffffffffffffffffffffffffff1602179055506020820151816001019080519060200190613d2e929190613966565b506040820151816002019080519060200190613d4b929190613966565b5050505060019050905600a165627a7a72305820ff1cf753c75d249f3c4ca8eadc1970e20cbaf49f76843bb543a8a218e366d5360029",
  "source": "pragma solidity ^0.4.18;\n\nimport 'zeppelin-solidity/contracts/token/ERC20/MintableToken.sol';\nimport 'zeppelin-solidity/contracts/math/SafeMath.sol';\nimport './Exchange.sol';\n\n\n/// @title ValexToken\n/// @author Karim Helmy\n\n// Parts sourced from https://github.com/bokkypoobah/Tokens/blob/master/contracts/FixedSupplyToken.sol\n\n// ----------------------------------------------------------------------------\n// 'VLX' 'Valex Token' token contract\n//\n// Symbol      : VLX\n// Name        : Valex Token\n// Total supply: 1,000,000.000000000000000000\n// Decimals    : 18\n//\n// ----------------------------------------------------------------------------\n\ncontract ValexToken is Exchange, StandardToken {\n    using SafeMath for uint;\n\n    string public name = \"Valex Token\";\n    string public symbol = \"VLX\";\n    uint8 public decimals = 18;\n\n    uint256 public initialSupply = 10000 * (10 ** uint256(decimals));\n\n    // Voting mappings\n    // Holds what every address has voted for\n    mapping (address => Parameters) voteBook;\n    // Hold frequencies of what addresses have voted for (in coin-votes)\n    mapping (uint => uint) closureFeeFreqs;\n    mapping (uint => uint) cancelFeeFreqs;\n    mapping (uint => uint) cleanSizeFreqs;\n    mapping (uint => uint) minerShareFreqs;\n    mapping (uint => uint) distBalanceFreqs;\n\n    // Thresholds to be met for each parameter adjustment\n    // TODO: add initialization for thresholds\n    // TODO: add meta-voting for thresholds (will always require 51%)\n    Parameters public thresholds;\n\n    // TODO: reset votes when tokens are transferred\n\n    /**\n     * @dev Constructor that gives msg.sender all of existing tokens.\n     * @dev Initializes token to have same parameters as exchange\n     */\n    function ValexToken(uint closureFeePerUnit, uint cancelFeePerUnit,\n                      uint cleanSize, uint minershare, uint distBalance)\n      Exchange(closureFeePerUnit, cancelFeePerUnit,\n              cleanSize, minershare, distBalance)\n      public\n    {\n      totalSupply_ = initialSupply;\n      balances[msg.sender] = initialSupply;\n    }\n\n    // Distributes dividends when balance is of sufficient size\n    function distDividends()\n      internal\n    {\n      //TODO: Implement distribution\n      Exchange.distDividends();\n    }\n\n    // Voting functions for various parameters\n    // Solidity doesn't allow any meaningful abstraction\n    // Adjust relevant parameter if threshold met\n\n    // voting copy3\n    function voteClosureFee(uint desiredParam)\n      public\n    {\n      require(balances[msg.sender] > 0);\n      require(desiredParam > 0);\n      if (voteBook[msg.sender].closureFeePerUnit > 0){\n        closureFeeFreqs[voteBook[msg.sender].closureFeePerUnit] -= balances[msg.sender];\n      }\n      voteBook[msg.sender].closureFeePerUnit = desiredParam;\n      closureFeeFreqs[desiredParam] += balances[msg.sender];\n      if (closureFeeFreqs[desiredParam] > thresholds.closureFeePerUnit){\n        params.closureFeePerUnit = desiredParam;\n      }\n    }\n\n    // voting copy3\n    function voteCancelFee(uint desiredParam)\n      public\n    {\n      require(balances[msg.sender] > 0);\n      require(desiredParam > 0);\n      if (voteBook[msg.sender].cancelFeePerUnit > 0){\n        cancelFeeFreqs[voteBook[msg.sender].cancelFeePerUnit] -= balances[msg.sender];\n      }\n      voteBook[msg.sender].cancelFeePerUnit = desiredParam;\n      cancelFeeFreqs[desiredParam] += balances[msg.sender];\n      if (cancelFeeFreqs[desiredParam] > thresholds.cancelFeePerUnit){\n        params.cancelFeePerUnit = desiredParam;\n      }\n    }\n\n    // voting copy3\n    function voteCleanSize(uint desiredParam)\n      public\n    {\n      require(balances[msg.sender] > 0);\n      require(desiredParam > 0);\n      if (voteBook[msg.sender].cleanSize > 0){\n        cleanSizeFreqs[voteBook[msg.sender].cleanSize] -= balances[msg.sender];\n      }\n      voteBook[msg.sender].cleanSize = desiredParam;\n      cleanSizeFreqs[desiredParam] += balances[msg.sender];\n      if (cleanSizeFreqs[desiredParam] > thresholds.cleanSize){\n        params.cleanSize = desiredParam;\n      }\n    }\n\n    // voting copy3\n    function voteMinerShare(uint desiredParam)\n      public\n    {\n      require(balances[msg.sender] > 0);\n      require(desiredParam > 0);\n      if (voteBook[msg.sender].minerShare > 0){\n        minerShareFreqs[voteBook[msg.sender].minerShare] -= balances[msg.sender];\n      }\n      voteBook[msg.sender].minerShare = desiredParam;\n      minerShareFreqs[desiredParam] += balances[msg.sender];\n      if (minerShareFreqs[desiredParam] > thresholds.minerShare){\n        params.minerShare = desiredParam;\n      }\n    }\n\n    // voting copy3\n    function voteDistBalance(uint desiredParam)\n      public\n    {\n      require(balances[msg.sender] > 0);\n      require(desiredParam > 0);\n      if (voteBook[msg.sender].distBalance > 0){\n        distBalanceFreqs[voteBook[msg.sender].distBalance] -= balances[msg.sender];\n      }\n      voteBook[msg.sender].distBalance = desiredParam;\n      distBalanceFreqs[desiredParam] += balances[msg.sender];\n      if (distBalanceFreqs[desiredParam] > thresholds.distBalance){\n        params.distBalance = desiredParam;\n      }\n    }\n\n    // TODO: Implement adding/removing chapters\n\n    // TODO: NEXT VERSION: Add vote transferring\n\n}\n",
  "sourcePath": "/Users/Karim/Desktop/Valex/contracts/ValexToken.sol",
  "compiler": {
    "name": "solc",
    "version": "0.4.18+commit.9cf6e910.Emscripten.clang"
  },
  "schemaVersion": "1.0.1",
  "updatedAt": "2018-02-05T21:49:28.490Z"
}