{
  "contractName": "ValexToken",
  "abi": [
    {
      "constant": true,
      "inputs": [],
      "name": "name",
      "outputs": [
        {
          "name": "",
          "type": "string"
        }
      ],
      "payable": false,
      "stateMutability": "view",
      "type": "function"
    },
    {
      "constant": false,
      "inputs": [
        {
          "name": "_spender",
          "type": "address"
        },
        {
          "name": "_value",
          "type": "uint256"
        }
      ],
      "name": "approve",
      "outputs": [
        {
          "name": "",
          "type": "bool"
        }
      ],
      "payable": false,
      "stateMutability": "nonpayable",
      "type": "function"
    },
    {
      "constant": true,
      "inputs": [
        {
          "name": "",
          "type": "uint256"
        },
        {
          "name": "",
          "type": "uint256"
        },
        {
          "name": "",
          "type": "uint256"
        }
      ],
      "name": "secondAddressBook",
      "outputs": [
        {
          "name": "",
          "type": "bytes32"
        }
      ],
      "payable": false,
      "stateMutability": "view",
      "type": "function"
    },
    {
      "constant": true,
      "inputs": [
        {
          "name": "chapter",
          "type": "uint256"
        }
      ],
      "name": "getSecondAddressChapter",
      "outputs": [
        {
          "name": "secondAddressChapter",
          "type": "bytes32[2][]"
        }
      ],
      "payable": false,
      "stateMutability": "view",
      "type": "function"
    },
    {
      "constant": true,
      "inputs": [],
      "name": "totalSupply",
      "outputs": [
        {
          "name": "",
          "type": "uint256"
        }
      ],
      "payable": false,
      "stateMutability": "view",
      "type": "function"
    },
    {
      "constant": false,
      "inputs": [
        {
          "name": "_from",
          "type": "address"
        },
        {
          "name": "_to",
          "type": "address"
        },
        {
          "name": "_value",
          "type": "uint256"
        }
      ],
      "name": "transferFrom",
      "outputs": [
        {
          "name": "",
          "type": "bool"
        }
      ],
      "payable": false,
      "stateMutability": "nonpayable",
      "type": "function"
    },
    {
      "constant": true,
      "inputs": [],
      "name": "decimals",
      "outputs": [
        {
          "name": "",
          "type": "uint8"
        }
      ],
      "payable": false,
      "stateMutability": "view",
      "type": "function"
    },
    {
      "constant": true,
      "inputs": [
        {
          "name": "",
          "type": "uint256"
        },
        {
          "name": "",
          "type": "uint256"
        },
        {
          "name": "",
          "type": "uint256"
        }
      ],
      "name": "firstAddressBook",
      "outputs": [
        {
          "name": "",
          "type": "bytes32"
        }
      ],
      "payable": false,
      "stateMutability": "view",
      "type": "function"
    },
    {
      "constant": true,
      "inputs": [],
      "name": "initialSupply",
      "outputs": [
        {
          "name": "",
          "type": "uint256"
        }
      ],
      "payable": false,
      "stateMutability": "view",
      "type": "function"
    },
    {
      "constant": true,
      "inputs": [
        {
          "name": "",
          "type": "uint256"
        },
        {
          "name": "",
          "type": "uint256"
        }
      ],
      "name": "buyBook",
      "outputs": [
        {
          "name": "",
          "type": "bool"
        }
      ],
      "payable": false,
      "stateMutability": "view",
      "type": "function"
    },
    {
      "constant": true,
      "inputs": [
        {
          "name": "chapter",
          "type": "uint256"
        }
      ],
      "name": "getOrderChapter",
      "outputs": [
        {
          "name": "buyChapter",
          "type": "bool[]"
        },
        {
          "name": "volChapter",
          "type": "uint256[]"
        },
        {
          "name": "minVolChapter",
          "type": "uint256[]"
        },
        {
          "name": "limitChapter",
          "type": "uint256[]"
        }
      ],
      "payable": false,
      "stateMutability": "view",
      "type": "function"
    },
    {
      "constant": true,
      "inputs": [],
      "name": "threshold",
      "outputs": [
        {
          "name": "",
          "type": "uint256"
        }
      ],
      "payable": false,
      "stateMutability": "view",
      "type": "function"
    },
    {
      "constant": false,
      "inputs": [
        {
          "name": "buyETH",
          "type": "bool"
        },
        {
          "name": "volume",
          "type": "uint256"
        },
        {
          "name": "minVolume",
          "type": "uint256"
        },
        {
          "name": "limit",
          "type": "uint256"
        },
        {
          "name": "ethAddress",
          "type": "address"
        },
        {
          "name": "firstAddress",
          "type": "bytes32[2]"
        },
        {
          "name": "otherAddress",
          "type": "bytes32[2]"
        },
        {
          "name": "chapter",
          "type": "uint256"
        }
      ],
      "name": "placeOrder",
      "outputs": [
        {
          "name": "accepted",
          "type": "bool"
        }
      ],
      "payable": true,
      "stateMutability": "payable",
      "type": "function"
    },
    {
      "constant": true,
      "inputs": [
        {
          "name": "",
          "type": "uint256"
        },
        {
          "name": "",
          "type": "uint256"
        }
      ],
      "name": "ethAddressBook",
      "outputs": [
        {
          "name": "",
          "type": "address"
        }
      ],
      "payable": false,
      "stateMutability": "view",
      "type": "function"
    },
    {
      "constant": true,
      "inputs": [],
      "name": "distCycle",
      "outputs": [
        {
          "name": "",
          "type": "uint256"
        }
      ],
      "payable": false,
      "stateMutability": "view",
      "type": "function"
    },
    {
      "constant": false,
      "inputs": [
        {
          "name": "_spender",
          "type": "address"
        },
        {
          "name": "_subtractedValue",
          "type": "uint256"
        }
      ],
      "name": "decreaseApproval",
      "outputs": [
        {
          "name": "",
          "type": "bool"
        }
      ],
      "payable": false,
      "stateMutability": "nonpayable",
      "type": "function"
    },
    {
      "constant": false,
      "inputs": [
        {
          "name": "desiredParam",
          "type": "uint256"
        }
      ],
      "name": "voteMinerShare",
      "outputs": [],
      "payable": false,
      "stateMutability": "nonpayable",
      "type": "function"
    },
    {
      "constant": true,
      "inputs": [
        {
          "name": "_owner",
          "type": "address"
        }
      ],
      "name": "balanceOf",
      "outputs": [
        {
          "name": "balance",
          "type": "uint256"
        }
      ],
      "payable": false,
      "stateMutability": "view",
      "type": "function"
    },
    {
      "constant": true,
      "inputs": [
        {
          "name": "",
          "type": "uint256"
        },
        {
          "name": "",
          "type": "uint256"
        }
      ],
      "name": "limitBook",
      "outputs": [
        {
          "name": "",
          "type": "uint256"
        }
      ],
      "payable": false,
      "stateMutability": "view",
      "type": "function"
    },
    {
      "constant": true,
      "inputs": [],
      "name": "DISTTIME",
      "outputs": [
        {
          "name": "",
          "type": "uint256"
        }
      ],
      "payable": false,
      "stateMutability": "view",
      "type": "function"
    },
    {
      "constant": true,
      "inputs": [
        {
          "name": "chapter",
          "type": "uint256"
        },
        {
          "name": "index1",
          "type": "uint256"
        },
        {
          "name": "index2",
          "type": "uint256"
        }
      ],
      "name": "calcRateAndVol",
      "outputs": [
        {
          "name": "mimRate",
          "type": "uint256"
        },
        {
          "name": "ethVol",
          "type": "uint256"
        }
      ],
      "payable": false,
      "stateMutability": "view",
      "type": "function"
    },
    {
      "constant": true,
      "inputs": [],
      "name": "openBalance",
      "outputs": [
        {
          "name": "",
          "type": "uint256"
        }
      ],
      "payable": false,
      "stateMutability": "view",
      "type": "function"
    },
    {
      "constant": true,
      "inputs": [],
      "name": "symbol",
      "outputs": [
        {
          "name": "",
          "type": "string"
        }
      ],
      "payable": false,
      "stateMutability": "view",
      "type": "function"
    },
    {
      "constant": true,
      "inputs": [
        {
          "name": "",
          "type": "uint256"
        },
        {
          "name": "",
          "type": "uint256"
        }
      ],
      "name": "minVolBook",
      "outputs": [
        {
          "name": "",
          "type": "uint256"
        }
      ],
      "payable": false,
      "stateMutability": "view",
      "type": "function"
    },
    {
      "constant": false,
      "inputs": [
        {
          "name": "_to",
          "type": "address"
        },
        {
          "name": "_value",
          "type": "uint256"
        }
      ],
      "name": "transfer",
      "outputs": [
        {
          "name": "",
          "type": "bool"
        }
      ],
      "payable": false,
      "stateMutability": "nonpayable",
      "type": "function"
    },
    {
      "constant": true,
      "inputs": [],
      "name": "distPerToken",
      "outputs": [
        {
          "name": "",
          "type": "uint256"
        }
      ],
      "payable": false,
      "stateMutability": "view",
      "type": "function"
    },
    {
      "constant": true,
      "inputs": [],
      "name": "PRECISION",
      "outputs": [
        {
          "name": "",
          "type": "uint256"
        }
      ],
      "payable": false,
      "stateMutability": "view",
      "type": "function"
    },
    {
      "constant": false,
      "inputs": [
        {
          "name": "desiredParam",
          "type": "uint256"
        }
      ],
      "name": "voteCleanSize",
      "outputs": [],
      "payable": false,
      "stateMutability": "nonpayable",
      "type": "function"
    },
    {
      "constant": true,
      "inputs": [],
      "name": "lastDist",
      "outputs": [
        {
          "name": "",
          "type": "uint256"
        }
      ],
      "payable": false,
      "stateMutability": "view",
      "type": "function"
    },
    {
      "constant": false,
      "inputs": [
        {
          "name": "chapter",
          "type": "uint256"
        },
        {
          "name": "index",
          "type": "uint256"
        }
      ],
      "name": "cancelOrder",
      "outputs": [
        {
          "name": "accepted",
          "type": "bool"
        }
      ],
      "payable": false,
      "stateMutability": "nonpayable",
      "type": "function"
    },
    {
      "constant": false,
      "inputs": [
        {
          "name": "desiredParam",
          "type": "uint256"
        }
      ],
      "name": "voteClosureFee",
      "outputs": [],
      "payable": false,
      "stateMutability": "nonpayable",
      "type": "function"
    },
    {
      "constant": false,
      "inputs": [
        {
          "name": "_collector",
          "type": "address"
        }
      ],
      "name": "collectDividends",
      "outputs": [],
      "payable": false,
      "stateMutability": "nonpayable",
      "type": "function"
    },
    {
      "constant": false,
      "inputs": [
        {
          "name": "desiredParam",
          "type": "uint256"
        }
      ],
      "name": "voteCancelFee",
      "outputs": [],
      "payable": false,
      "stateMutability": "nonpayable",
      "type": "function"
    },
    {
      "constant": true,
      "inputs": [],
      "name": "params",
      "outputs": [
        {
          "name": "closureFee",
          "type": "uint256"
        },
        {
          "name": "cancelFee",
          "type": "uint256"
        },
        {
          "name": "cleanSize",
          "type": "uint256"
        },
        {
          "name": "minerShare",
          "type": "uint256"
        },
        {
          "name": "difficulty",
          "type": "bytes32"
        }
      ],
      "payable": false,
      "stateMutability": "view",
      "type": "function"
    },
    {
      "constant": false,
      "inputs": [
        {
          "name": "depositAddress",
          "type": "address"
        },
        {
          "name": "chapter",
          "type": "uint256"
        },
        {
          "name": "index1",
          "type": "uint256"
        },
        {
          "name": "index2",
          "type": "uint256"
        },
        {
          "name": "nonce",
          "type": "uint256"
        }
      ],
      "name": "giveMatch",
      "outputs": [
        {
          "name": "isValid",
          "type": "bool"
        }
      ],
      "payable": false,
      "stateMutability": "nonpayable",
      "type": "function"
    },
    {
      "constant": false,
      "inputs": [
        {
          "name": "_spender",
          "type": "address"
        },
        {
          "name": "_addedValue",
          "type": "uint256"
        }
      ],
      "name": "increaseApproval",
      "outputs": [
        {
          "name": "",
          "type": "bool"
        }
      ],
      "payable": false,
      "stateMutability": "nonpayable",
      "type": "function"
    },
    {
      "constant": true,
      "inputs": [
        {
          "name": "_owner",
          "type": "address"
        },
        {
          "name": "_spender",
          "type": "address"
        }
      ],
      "name": "allowance",
      "outputs": [
        {
          "name": "",
          "type": "uint256"
        }
      ],
      "payable": false,
      "stateMutability": "view",
      "type": "function"
    },
    {
      "constant": true,
      "inputs": [
        {
          "name": "chapter",
          "type": "uint256"
        }
      ],
      "name": "getETHAddressChapter",
      "outputs": [
        {
          "name": "ethAddressChapter",
          "type": "address[]"
        }
      ],
      "payable": false,
      "stateMutability": "view",
      "type": "function"
    },
    {
      "constant": true,
      "inputs": [
        {
          "name": "",
          "type": "uint256"
        },
        {
          "name": "",
          "type": "uint256"
        }
      ],
      "name": "volBook",
      "outputs": [
        {
          "name": "",
          "type": "uint256"
        }
      ],
      "payable": false,
      "stateMutability": "view",
      "type": "function"
    },
    {
      "constant": true,
      "inputs": [
        {
          "name": "chapter",
          "type": "uint256"
        }
      ],
      "name": "getFirstAddressChapter",
      "outputs": [
        {
          "name": "firstAddressChapter",
          "type": "bytes32[2][]"
        }
      ],
      "payable": false,
      "stateMutability": "view",
      "type": "function"
    },
    {
      "inputs": [
        {
          "name": "closureFee",
          "type": "uint256"
        },
        {
          "name": "cancelFee",
          "type": "uint256"
        },
        {
          "name": "cleanSize",
          "type": "uint256"
        },
        {
          "name": "minershare",
          "type": "uint256"
        },
        {
          "name": "difficulty",
          "type": "bytes32"
        }
      ],
      "payable": false,
      "stateMutability": "nonpayable",
      "type": "constructor"
    },
    {
      "anonymous": false,
      "inputs": [
        {
          "indexed": true,
          "name": "owner",
          "type": "address"
        },
        {
          "indexed": true,
          "name": "spender",
          "type": "address"
        },
        {
          "indexed": false,
          "name": "value",
          "type": "uint256"
        }
      ],
      "name": "Approval",
      "type": "event"
    },
    {
      "anonymous": false,
      "inputs": [
        {
          "indexed": true,
          "name": "from",
          "type": "address"
        },
        {
          "indexed": true,
          "name": "to",
          "type": "address"
        },
        {
          "indexed": false,
          "name": "value",
          "type": "uint256"
        }
      ],
      "name": "Transfer",
      "type": "event"
    },
    {
      "anonymous": false,
      "inputs": [
        {
          "indexed": false,
          "name": "ethAddress1",
          "type": "address"
        },
        {
          "indexed": false,
          "name": "ethAddress2",
          "type": "address"
        },
        {
          "indexed": false,
          "name": "firstAddress1",
          "type": "bytes32[2]"
        },
        {
          "indexed": false,
          "name": "firstAddress2",
          "type": "bytes32[2]"
        },
        {
          "indexed": false,
          "name": "otherAddress1",
          "type": "bytes32[2]"
        },
        {
          "indexed": false,
          "name": "otherAddress2",
          "type": "bytes32[2]"
        },
        {
          "indexed": false,
          "name": "mimRate",
          "type": "uint256"
        },
        {
          "indexed": false,
          "name": "ethVol",
          "type": "uint256"
        }
      ],
      "name": "TradeInfo",
      "type": "event"
    }
  ],
  "bytecode": "0x6060604052670de0b6b3a764000060005560006001556040805190810160405280600b81526020017f56616c657820546f6b656e0000000000000000000000000000000000000000008152506012908051906020019062000062929190620004e7565b506040805190810160405280600381526020017f564c58000000000000000000000000000000000000000000000000000000000081525060139080519060200190620000b0929190620004e7565b506012601460006101000a81548160ff021916908360ff160217905550601460009054906101000a900460ff1660ff16600a0a6127100260155560336064601554811515620000fb57fe5b0402601b5562eff100601c5542601d556000601e556000601f5534156200012157600080fd5b60405160a08062005d248339810160405280805190602001909190805190602001909190805190602001909190805190602001909190805190602001909190505084848484846200018a858585858562000232640100000000026200532d176401000000009004565b620001a86200026e6401000000000262005369176401000000009004565b600e8054806001018281620001be91906200056e565b9160005260206000209001600080909190915055505050505050601554601081905550601554600f60003373ffffffffffffffffffffffffffffffffffffffff1673ffffffffffffffffffffffffffffffffffffffff16815260200190815260200160002081905550505050505062000718565b84600260000181905550836002600101819055508260028001819055508160026003018190555080600260040181600019169055505050505050565b6007600080815260200190815260200160002080548060010182816200029591906200059d565b91600052602060002090602091828204019190066000909190916101000a81548160ff02191690831515021790555050600860008081526020019081526020016000208054806001018281620002ec91906200056e565b9160005260206000209001600080909190915055506009600080815260200190815260200160002080548060010182816200032891906200056e565b916000526020600020900160008090919091505550600a600080815260200190815260200160002080548060010182816200036491906200056e565b916000526020600020900160008090919091505550600b60008081526020019081526020016000208054806001018281620003a09190620005da565b9160005260206000209001600080909190916101000a81548173ffffffffffffffffffffffffffffffffffffffff021916908373ffffffffffffffffffffffffffffffffffffffff16021790555050600c6000808152602001908152602001600020805480600101828162000416919062000609565b916000526020600020906002020160006040805190810160405280600060010260001916600019168152602001600060010260001916600019168152509091909150906002620004689291906200063e565b5050600d6000808152602001908152602001600020805480600101828162000491919062000609565b916000526020600020906002020160006040805190810160405280600060010260001916600019168152602001600060010260001916600019168152509091909150906002620004e39291906200063e565b5050565b828054600181600116156101000203166002900490600052602060002090601f016020900481019282601f106200052a57805160ff19168380011785556200055b565b828001600101855582156200055b579182015b828111156200055a5782518255916020019190600101906200053d565b5b5090506200056a919062000689565b5090565b815481835581811511620005985781836000526020600020918201910162000597919062000689565b5b505050565b815481835581811511620005d557601f016020900481601f01602090048360005260206000209182019101620005d4919062000689565b5b505050565b815481835581811511620006045781836000526020600020918201910162000603919062000689565b5b505050565b8154818355818115116200063957600202816002028360005260206000209182019101620006389190620006b1565b5b505050565b826002810192821562000676579160200282015b828111156200067557825182906000191690559160200191906001019062000652565b5b509050620006859190620006e2565b5090565b620006ae91905b80821115620006aa57600081600090555060010162000690565b5090565b90565b620006df91905b80821115620006db5760008181620006d191906200070a565b50600201620006b8565b5090565b90565b6200070791905b8082111562000703576000816000905550600101620006e9565b5090565b90565b506000815560010160009055565b6155fc80620007286000396000f3006060604052600436106101ee576000357c0100000000000000000000000000000000000000000000000000000000900463ffffffff16806306fdde03146101f3578063095ea7b31461028157806310fc8a15146102db578063145404fc1461032c57806318160ddd146103c757806323b872dd146103f0578063313ce56714610469578063324a146714610498578063378dc3dc146104e95780633af8c2d5146105125780633b6a08001461055657806342cde4e8146106a657806349827685146106cf57806353c1d8821461079c57806357627e9314610808578063661884631461083157806369f99f801461088b57806370a08231146108ae5780638139cbc6146108fb5780638a0c528a1461093b5780638eae03d2146109645780639138ec3a146109b457806395d89b41146109dd5780639febbcfa14610a6b578063a9059cbb14610aab578063a9ea682914610b05578063aaf5eb6814610b2e578063af87439e14610b57578063b194624314610b7a578063b6ed063214610ba3578063c932aa7b14610be7578063c93ceec814610c0a578063ca7f74ea14610c43578063cff0ab9614610c66578063d2426ab914610cb3578063d73dd62314610d28578063dd62ed3e14610d82578063e0cfdce014610dee578063e0f1f59f14610e66578063ee4b94bb14610ea6575b600080fd5b34156101fe57600080fd5b610206610f41565b6040518080602001828103825283818151815260200191508051906020019080838360005b8381101561024657808201518184015260208101905061022b565b50505050905090810190601f1680156102735780820380516001836020036101000a031916815260200191505b509250505060405180910390f35b341561028c57600080fd5b6102c1600480803573ffffffffffffffffffffffffffffffffffffffff16906020019091908035906020019091905050610fdf565b604051808215151515815260200191505060405180910390f35b34156102e657600080fd5b61030e60048080359060200190919080359060200190919080359060200190919050506110d1565b60405180826000191660001916815260200191505060405180910390f35b341561033757600080fd5b61034d6004808035906020019091905050611114565b60405180806020018281038252838181518152602001915080516000925b818410156103b657828490602001906020020151600260200280838360005b838110156103a557808201518184015260208101905061038a565b50505050905001926001019261036b565b925050509250505060405180910390f35b34156103d257600080fd5b6103da6111c1565b6040518082815260200191505060405180910390f35b34156103fb57600080fd5b61044f600480803573ffffffffffffffffffffffffffffffffffffffff1690602001909190803573ffffffffffffffffffffffffffffffffffffffff169060200190919080359060200190919050506111cb565b604051808215151515815260200191505060405180910390f35b341561047457600080fd5b61047c6115be565b604051808260ff1660ff16815260200191505060405180910390f35b34156104a357600080fd5b6104cb60048080359060200190919080359060200190919080359060200190919050506115d1565b60405180826000191660001916815260200191505060405180910390f35b34156104f457600080fd5b6104fc611614565b6040518082815260200191505060405180910390f35b341561051d57600080fd5b61053c600480803590602001909190803590602001909190505061161a565b604051808215151515815260200191505060405180910390f35b341561056157600080fd5b610577600480803590602001909190505061165c565b6040518080602001806020018060200180602001858103855289818151815260200191508051906020019060200280838360005b838110156105c65780820151818401526020810190506105ab565b50505050905001858103845288818151815260200191508051906020019060200280838360005b838110156106085780820151818401526020810190506105ed565b50505050905001858103835287818151815260200191508051906020019060200280838360005b8381101561064a57808201518184015260208101905061062f565b50505050905001858103825286818151815260200191508051906020019060200280838360005b8381101561068c578082015181840152602081019050610671565b505050509050019850505050505050505060405180910390f35b34156106b157600080fd5b6106b9611844565b6040518082815260200191505060405180910390f35b6107826004808035151590602001909190803590602001909190803590602001909190803590602001909190803573ffffffffffffffffffffffffffffffffffffffff169060200190919080604001906002806020026040519081016040528092919082600260200280828437820191505050505091908060400190600280602002604051908101604052809291908260026020028082843782019150505050509190803590602001909190505061184a565b604051808215151515815260200191505060405180910390f35b34156107a757600080fd5b6107c66004808035906020019091908035906020019091905050611b5d565b604051808273ffffffffffffffffffffffffffffffffffffffff1673ffffffffffffffffffffffffffffffffffffffff16815260200191505060405180910390f35b341561081357600080fd5b61081b611bab565b6040518082815260200191505060405180910390f35b341561083c57600080fd5b610871600480803573ffffffffffffffffffffffffffffffffffffffff16906020019091908035906020019091905050611bb1565b604051808215151515815260200191505060405180910390f35b341561089657600080fd5b6108ac6004808035906020019091905050611e42565b005b34156108b957600080fd5b6108e5600480803573ffffffffffffffffffffffffffffffffffffffff1690602001909190505061205f565b6040518082815260200191505060405180910390f35b341561090657600080fd5b61092560048080359060200190919080359060200190919050506120a8565b6040518082815260200191505060405180910390f35b341561094657600080fd5b61094e6120d9565b6040518082815260200191505060405180910390f35b341561096f57600080fd5b61099760048080359060200190919080359060200190919080359060200190919050506120df565b604051808381526020018281526020019250505060405180910390f35b34156109bf57600080fd5b6109c761239f565b6040518082815260200191505060405180910390f35b34156109e857600080fd5b6109f06123a5565b6040518080602001828103825283818151815260200191508051906020019080838360005b83811015610a30578082015181840152602081019050610a15565b50505050905090810190601f168015610a5d5780820380516001836020036101000a031916815260200191505b509250505060405180910390f35b3415610a7657600080fd5b610a956004808035906020019091908035906020019091905050612443565b6040518082815260200191505060405180910390f35b3415610ab657600080fd5b610aeb600480803573ffffffffffffffffffffffffffffffffffffffff16906020019091908035906020019091905050612474565b604051808215151515815260200191505060405180910390f35b3415610b1057600080fd5b610b18612865565b6040518082815260200191505060405180910390f35b3415610b3957600080fd5b610b4161286b565b6040518082815260200191505060405180910390f35b3415610b6257600080fd5b610b786004808035906020019091905050612871565b005b3415610b8557600080fd5b610b8d612a8d565b6040518082815260200191505060405180910390f35b3415610bae57600080fd5b610bcd6004808035906020019091908035906020019091905050612a93565b604051808215151515815260200191505060405180910390f35b3415610bf257600080fd5b610c086004808035906020019091905050612e6a565b005b3415610c1557600080fd5b610c41600480803573ffffffffffffffffffffffffffffffffffffffff16906020019091905050613087565b005b3415610c4e57600080fd5b610c646004808035906020019091905050613248565b005b3415610c7157600080fd5b610c79613465565b6040518086815260200185815260200184815260200183815260200182600019166000191681526020019550505050505060405180910390f35b3415610cbe57600080fd5b610d0e600480803573ffffffffffffffffffffffffffffffffffffffff16906020019091908035906020019091908035906020019091908035906020019091908035906020019091905050613489565b604051808215151515815260200191505060405180910390f35b3415610d3357600080fd5b610d68600480803573ffffffffffffffffffffffffffffffffffffffff16906020019091908035906020019091905050613592565b604051808215151515815260200191505060405180910390f35b3415610d8d57600080fd5b610dd8600480803573ffffffffffffffffffffffffffffffffffffffff1690602001909190803573ffffffffffffffffffffffffffffffffffffffff1690602001909190505061378e565b6040518082815260200191505060405180910390f35b3415610df957600080fd5b610e0f6004808035906020019091905050613815565b6040518080602001828103825283818151815260200191508051906020019060200280838360005b83811015610e52578082015181840152602081019050610e37565b505050509050019250505060405180910390f35b3415610e7157600080fd5b610e9060048080359060200190919080359060200190919050506138bc565b6040518082815260200191505060405180910390f35b3415610eb157600080fd5b610ec760048080359060200190919050506138ed565b60405180806020018281038252838181518152602001915080516000925b81841015610f3057828490602001906020020151600260200280838360005b83811015610f1f578082015181840152602081019050610f04565b505050509050019260010192610ee5565b925050509250505060405180910390f35b60128054600181600116156101000203166002900480601f016020809104026020016040519081016040528092919081815260200182805460018160011615610100020316600290048015610fd75780601f10610fac57610100808354040283529160200191610fd7565b820191906000526020600020905b815481529060010190602001808311610fba57829003601f168201915b505050505081565b600081601160003373ffffffffffffffffffffffffffffffffffffffff1673ffffffffffffffffffffffffffffffffffffffff16815260200190815260200160002060008573ffffffffffffffffffffffffffffffffffffffff1673ffffffffffffffffffffffffffffffffffffffff168152602001908152602001600020819055508273ffffffffffffffffffffffffffffffffffffffff163373ffffffffffffffffffffffffffffffffffffffff167f8c5be1e5ebec7d5bd14f71427d1e84f3dd0314c0f7b2291e5b200ac8c7c3b925846040518082815260200191505060405180910390a36001905092915050565b600d602052826000526040600020828154811015156110ec57fe5b90600052602060002090600202018160028110151561110757fe5b0160009250925050505481565b61111c615023565b600d6000838152602001908152602001600020805480602002602001604051908101604052809291908181526020016000905b828210156111b657838290600052602060002090600202016002806020026040519081016040528092919082600280156111a2576020028201915b8154600019168152602001906001019080831161118a575b50505050508152602001906001019061114f565b505050509050919050565b6000601054905090565b60006111d884848461399a565b508160176000601660008873ffffffffffffffffffffffffffffffffffffffff1673ffffffffffffffffffffffffffffffffffffffff168152602001908152602001600020600001548152602001908152602001600020600082825403925050819055508160186000601660008873ffffffffffffffffffffffffffffffffffffffff1673ffffffffffffffffffffffffffffffffffffffff168152602001908152602001600020600101548152602001908152602001600020600082825403925050819055508160196000601660008873ffffffffffffffffffffffffffffffffffffffff1673ffffffffffffffffffffffffffffffffffffffff1681526020019081526020016000206002015481526020019081526020016000206000828254039250508190555081601a6000601660008873ffffffffffffffffffffffffffffffffffffffff1673ffffffffffffffffffffffffffffffffffffffff16815260200190815260200160002060030154815260200190815260200160002060008282540392505081905550601e54602060008673ffffffffffffffffffffffffffffffffffffffff1673ffffffffffffffffffffffffffffffffffffffff168152602001908152602001600020541415156113b9576113b884613087565b5b6000602060008573ffffffffffffffffffffffffffffffffffffffff1673ffffffffffffffffffffffffffffffffffffffff168152602001908152602001600020541415801561144a5750601e54602060008573ffffffffffffffffffffffffffffffffffffffff1673ffffffffffffffffffffffffffffffffffffffff1681526020019081526020016000205414155b156114595761145883613087565b5b6000602060008573ffffffffffffffffffffffffffffffffffffffff1673ffffffffffffffffffffffffffffffffffffffff16815260200190815260200160002054141561152557602060008573ffffffffffffffffffffffffffffffffffffffff1673ffffffffffffffffffffffffffffffffffffffff16815260200190815260200160002054602060008573ffffffffffffffffffffffffffffffffffffffff1673ffffffffffffffffffffffffffffffffffffffff168152602001908152602001600020819055505b6000600f60008673ffffffffffffffffffffffffffffffffffffffff1673ffffffffffffffffffffffffffffffffffffffff1681526020019081526020016000205414156115b3576000602060008673ffffffffffffffffffffffffffffffffffffffff1673ffffffffffffffffffffffffffffffffffffffff168152602001908152602001600020819055505b600190509392505050565b601460009054906101000a900460ff1681565b600c602052826000526040600020828154811015156115ec57fe5b90600052602060002090600202018160028110151561160757fe5b0160009250925050505481565b60155481565b60076020528160005260406000208181548110151561163557fe5b9060005260206000209060209182820401919006915091509054906101000a900460ff1681565b611664615037565b61166c61504b565b61167461504b565b61167c61504b565b600760008681526020019081526020016000206008600087815260200190815260200160002060096000888152602001908152602001600020600a60008981526020019081526020016000208380548060200260200160405190810160405280929190818152602001828054801561173857602002820191906000526020600020906000905b82829054906101000a900460ff161515815260200190600101906020826000010492830192600103820291508084116117025790505b505050505093508280548060200260200160405190810160405280929190818152602001828054801561178a57602002820191906000526020600020905b815481526020019060010190808311611776575b50505050509250818054806020026020016040519081016040528092919081815260200182805480156117dc57602002820191906000526020600020905b8154815260200190600101908083116117c8575b505050505091508080548060200260200160405190810160405280929190818152602001828054801561182e57602002820191906000526020600020905b81548152602001906001019080831161181a575b5050505050905093509350935093509193509193565b601b5481565b6000808811151561185a57600080fd5b60008711151561186957600080fd5b86881015151561187857600080fd5b60008611151561188757600080fd5b88156118d4576002600001548802348702101515156118a557600080fd5b60005460005402866002600001548a02028115156118bf57fe5b0460016000828254019250508190555061191c565b60005460026000015489028115156118e857fe5b0434101515156118f757600080fd5b600054600260000154890281151561190b57fe5b046001600082825401925050819055505b6000600760008481526020019081526020016000208054905011151561194157600080fd5b600760008381526020019081526020016000208054806001018281611966919061505f565b91600052602060002090602091828204019190068b909190916101000a81548160ff021916908315150217905550506008600083815260200190815260200160002080548060010182816119ba9190615099565b916000526020600020900160008a909190915055506009600083815260200190815260200160002080548060010182816119f49190615099565b916000526020600020900160008990919091505550600a60008381526020019081526020016000208054806001018281611a2e9190615099565b916000526020600020900160008890919091505550600b60008381526020019081526020016000208054806001018281611a6891906150c5565b9160005260206000209001600087909190916101000a81548173ffffffffffffffffffffffffffffffffffffffff021916908373ffffffffffffffffffffffffffffffffffffffff16021790555050600c60008381526020019081526020016000208054806001018281611adc91906150f1565b91600052602060002090600202016000869091909150906002611b00929190615123565b5050600d60008381526020019081526020016000208054806001018281611b2791906150f1565b91600052602060002090600202016000859091909150906002611b4b929190615123565b50506001905098975050505050505050565b600b60205281600052604060002081815481101515611b7857fe5b90600052602060002090016000915091509054906101000a900473ffffffffffffffffffffffffffffffffffffffff1681565b601e5481565b600080601160003373ffffffffffffffffffffffffffffffffffffffff1673ffffffffffffffffffffffffffffffffffffffff16815260200190815260200160002060008573ffffffffffffffffffffffffffffffffffffffff1673ffffffffffffffffffffffffffffffffffffffff16815260200190815260200160002054905080831115611cc2576000601160003373ffffffffffffffffffffffffffffffffffffffff1673ffffffffffffffffffffffffffffffffffffffff16815260200190815260200160002060008673ffffffffffffffffffffffffffffffffffffffff1673ffffffffffffffffffffffffffffffffffffffff16815260200190815260200160002081905550611d56565b611cd58382613d5990919063ffffffff16565b601160003373ffffffffffffffffffffffffffffffffffffffff1673ffffffffffffffffffffffffffffffffffffffff16815260200190815260200160002060008673ffffffffffffffffffffffffffffffffffffffff1673ffffffffffffffffffffffffffffffffffffffff168152602001908152602001600020819055505b8373ffffffffffffffffffffffffffffffffffffffff163373ffffffffffffffffffffffffffffffffffffffff167f8c5be1e5ebec7d5bd14f71427d1e84f3dd0314c0f7b2291e5b200ac8c7c3b925601160003373ffffffffffffffffffffffffffffffffffffffff1673ffffffffffffffffffffffffffffffffffffffff16815260200190815260200160002060008873ffffffffffffffffffffffffffffffffffffffff1673ffffffffffffffffffffffffffffffffffffffff168152602001908152602001600020546040518082815260200191505060405180910390a3600191505092915050565b6000600f60003373ffffffffffffffffffffffffffffffffffffffff1673ffffffffffffffffffffffffffffffffffffffff16815260200190815260200160002054111515611e9057600080fd5b600081111515611e9f57600080fd5b6000601660003373ffffffffffffffffffffffffffffffffffffffff1673ffffffffffffffffffffffffffffffffffffffff168152602001908152602001600020600301541115611f8d57600f60003373ffffffffffffffffffffffffffffffffffffffff1673ffffffffffffffffffffffffffffffffffffffff16815260200190815260200160002054601a6000601660003373ffffffffffffffffffffffffffffffffffffffff1673ffffffffffffffffffffffffffffffffffffffff168152602001908152602001600020600301548152602001908152602001600020600082825403925050819055505b80601660003373ffffffffffffffffffffffffffffffffffffffff1673ffffffffffffffffffffffffffffffffffffffff16815260200190815260200160002060030181905550600f60003373ffffffffffffffffffffffffffffffffffffffff1673ffffffffffffffffffffffffffffffffffffffff16815260200190815260200160002054601a600083815260200190815260200160002060008282540192505081905550601b54601a600083815260200190815260200160002054111561205c57806002600301819055505b50565b6000600f60008373ffffffffffffffffffffffffffffffffffffffff1673ffffffffffffffffffffffffffffffffffffffff168152602001908152602001600020549050919050565b600a602052816000526040600020818154811015156120c357fe5b9060005260206000209001600091509150505481565b601c5481565b6000806000806120ed615169565b6120f5615169565b612100898989613d72565b15156121185760008081915080905095509550612393565b600760008a81526020019081526020016000208881548110151561213857fe5b90600052602060002090602091828204019190069054906101000a900460ff16156121685787935086925061216f565b8693508792505b608060405190810160405280600115158152602001600860008c8152602001908152602001600020868154811015156121a457fe5b9060005260206000209001548152602001600960008c8152602001908152602001600020868154811015156121d557fe5b9060005260206000209001548152602001600a60008c81526020019081526020016000208681548110151561220657fe5b9060005260206000209001548152509150608060405190810160405280600015158152602001600860008c81526020019081526020016000208581548110151561224c57fe5b9060005260206000209001548152602001600960008c81526020019081526020016000208581548110151561227d57fe5b9060005260206000209001548152602001600a60008c8152602001908152602001600020858154811015156122ae57fe5b90600052602060002090015481525090508060600151826060015110156122e15760008081915080905095509550612393565b600281606001518360600151018115156122f757fe5b049550858160200151026000548360200151021115612349578581602001510260005483604001510211156123385760008081915080905095509550612393565b858682602001510295509550612393565b600054826020015102868260200151021115612388576000548260200151028682604001510211156123875760008081915080905095509550612393565b5b858260200151955095505b50505050935093915050565b60015481565b60138054600181600116156101000203166002900480601f01602080910402602001604051908101604052809291908181526020018280546001816001161561010002031660029004801561243b5780601f106124105761010080835404028352916020019161243b565b820191906000526020600020905b81548152906001019060200180831161241e57829003601f168201915b505050505081565b60096020528160005260406000208181548110151561245e57fe5b9060005260206000209001600091509150505481565b60006124808383613ece565b508160176000601660003373ffffffffffffffffffffffffffffffffffffffff1673ffffffffffffffffffffffffffffffffffffffff168152602001908152602001600020600001548152602001908152602001600020600082825403925050819055508160186000601660003373ffffffffffffffffffffffffffffffffffffffff1673ffffffffffffffffffffffffffffffffffffffff168152602001908152602001600020600101548152602001908152602001600020600082825403925050819055508160196000601660003373ffffffffffffffffffffffffffffffffffffffff1673ffffffffffffffffffffffffffffffffffffffff1681526020019081526020016000206002015481526020019081526020016000206000828254039250508190555081601a6000601660003373ffffffffffffffffffffffffffffffffffffffff1673ffffffffffffffffffffffffffffffffffffffff16815260200190815260200160002060030154815260200190815260200160002060008282540392505081905550601e54602060003373ffffffffffffffffffffffffffffffffffffffff1673ffffffffffffffffffffffffffffffffffffffff168152602001908152602001600020541415156126615761266033613087565b5b6000602060008573ffffffffffffffffffffffffffffffffffffffff1673ffffffffffffffffffffffffffffffffffffffff16815260200190815260200160002054141580156126f25750601e54602060008573ffffffffffffffffffffffffffffffffffffffff1673ffffffffffffffffffffffffffffffffffffffff1681526020019081526020016000205414155b156127015761270083613087565b5b6000602060008573ffffffffffffffffffffffffffffffffffffffff1673ffffffffffffffffffffffffffffffffffffffff1681526020019081526020016000205414156127cd57602060003373ffffffffffffffffffffffffffffffffffffffff1673ffffffffffffffffffffffffffffffffffffffff16815260200190815260200160002054602060008573ffffffffffffffffffffffffffffffffffffffff1673ffffffffffffffffffffffffffffffffffffffff168152602001908152602001600020819055505b6000600f60003373ffffffffffffffffffffffffffffffffffffffff1673ffffffffffffffffffffffffffffffffffffffff16815260200190815260200160002054141561285b576000602060003373ffffffffffffffffffffffffffffffffffffffff1673ffffffffffffffffffffffffffffffffffffffff168152602001908152602001600020819055505b6001905092915050565b601f5481565b60005481565b6000600f60003373ffffffffffffffffffffffffffffffffffffffff1673ffffffffffffffffffffffffffffffffffffffff168152602001908152602001600020541115156128bf57600080fd5b6000811115156128ce57600080fd5b6000601660003373ffffffffffffffffffffffffffffffffffffffff1673ffffffffffffffffffffffffffffffffffffffff1681526020019081526020016000206002015411156129bc57600f60003373ffffffffffffffffffffffffffffffffffffffff1673ffffffffffffffffffffffffffffffffffffffff1681526020019081526020016000205460196000601660003373ffffffffffffffffffffffffffffffffffffffff1673ffffffffffffffffffffffffffffffffffffffff168152602001908152602001600020600201548152602001908152602001600020600082825403925050819055505b80601660003373ffffffffffffffffffffffffffffffffffffffff1673ffffffffffffffffffffffffffffffffffffffff16815260200190815260200160002060020181905550600f60003373ffffffffffffffffffffffffffffffffffffffff1673ffffffffffffffffffffffffffffffffffffffff168152602001908152602001600020546019600083815260200190815260200160002060008282540192505081905550601b5460196000838152602001908152602001600020541115612a8a578060028001819055505b50565b601d5481565b6000806000600760008681526020019081526020016000208054905084101515612abc57600080fd5b600b600086815260200190815260200160002084815481101515612adc57fe5b906000526020600020900160009054906101000a900473ffffffffffffffffffffffffffffffffffffffff1673ffffffffffffffffffffffffffffffffffffffff163373ffffffffffffffffffffffffffffffffffffffff16141515612b4157600080fd5b600a600086815260200190815260200160002084815481101515612b6157fe5b90600052602060002090015491506008600086815260200190815260200160002084815481101515612b8f57fe5b90600052602060002090015490506007600086815260200190815260200160002084815481101515612bbd57fe5b90600052602060002090602091828204019190069054906101000a900460ff1615612c40573373ffffffffffffffffffffffffffffffffffffffff166108fc83600260010154600260000154038402811515612c1557fe5b049081150290604051600060405180830381858888f193505050501515612c3b57600080fd5b612c9a565b3373ffffffffffffffffffffffffffffffffffffffff166108fc83600260010154600260000154038402811515612c7357fe5b049081150290604051600060405180830381858888f193505050501515612c9957600080fd5b5b6007600086815260200190815260200160002084815481101515612cba57fe5b90600052602060002090602091828204019190066101000a81549060ff02191690556008600086815260200190815260200160002084815481101515612cfc57fe5b9060005260206000209001600090556009600086815260200190815260200160002084815481101515612d2b57fe5b906000526020600020900160009055600a600086815260200190815260200160002084815481101515612d5a57fe5b906000526020600020900160009055600b600086815260200190815260200160002084815481101515612d8957fe5b906000526020600020900160006101000a81549073ffffffffffffffffffffffffffffffffffffffff0219169055600c600086815260200190815260200160002084815481101515612dd757fe5b90600052602060002090600202016000612df19190615194565b600d600086815260200190815260200160002084815481101515612e1157fe5b90600052602060002090600202016000612e2b9190615194565b6001600e86815481101515612e3c57fe5b906000526020600020900160008282540192505081905550612e5d856140f2565b5060019250505092915050565b6000600f60003373ffffffffffffffffffffffffffffffffffffffff1673ffffffffffffffffffffffffffffffffffffffff16815260200190815260200160002054111515612eb857600080fd5b600081111515612ec757600080fd5b6000601660003373ffffffffffffffffffffffffffffffffffffffff1673ffffffffffffffffffffffffffffffffffffffff168152602001908152602001600020600001541115612fb557600f60003373ffffffffffffffffffffffffffffffffffffffff1673ffffffffffffffffffffffffffffffffffffffff1681526020019081526020016000205460176000601660003373ffffffffffffffffffffffffffffffffffffffff1673ffffffffffffffffffffffffffffffffffffffff168152602001908152602001600020600001548152602001908152602001600020600082825403925050819055505b80601660003373ffffffffffffffffffffffffffffffffffffffff1673ffffffffffffffffffffffffffffffffffffffff16815260200190815260200160002060000181905550600f60003373ffffffffffffffffffffffffffffffffffffffff1673ffffffffffffffffffffffffffffffffffffffff168152602001908152602001600020546017600083815260200190815260200160002060008282540192505081905550601b546017600083815260200190815260200160002054111561308457806002600001819055505b50565b6000600f60008373ffffffffffffffffffffffffffffffffffffffff1673ffffffffffffffffffffffffffffffffffffffff168152602001908152602001600020541115156130d557600080fd5b42601c54601d540111151561312c5742601d819055506001601e600082825401925050819055506015546001543073ffffffffffffffffffffffffffffffffffffffff16310381151561312457fe5b04601f819055505b601e54602060008373ffffffffffffffffffffffffffffffffffffffff1673ffffffffffffffffffffffffffffffffffffffff168152602001908152602001600020541115151561317c57600080fd5b8073ffffffffffffffffffffffffffffffffffffffff166108fc600f60008473ffffffffffffffffffffffffffffffffffffffff1673ffffffffffffffffffffffffffffffffffffffff16815260200190815260200160002054601f54029081150290604051600060405180830381858888f1935050505015156131ff57600080fd5b601e54602060008373ffffffffffffffffffffffffffffffffffffffff1673ffffffffffffffffffffffffffffffffffffffff1681526020019081526020016000208190555050565b6000600f60003373ffffffffffffffffffffffffffffffffffffffff1673ffffffffffffffffffffffffffffffffffffffff1681526020019081526020016000205411151561329657600080fd5b6000811115156132a557600080fd5b6000601660003373ffffffffffffffffffffffffffffffffffffffff1673ffffffffffffffffffffffffffffffffffffffff16815260200190815260200160002060010154111561339357600f60003373ffffffffffffffffffffffffffffffffffffffff1673ffffffffffffffffffffffffffffffffffffffff1681526020019081526020016000205460186000601660003373ffffffffffffffffffffffffffffffffffffffff1673ffffffffffffffffffffffffffffffffffffffff168152602001908152602001600020600101548152602001908152602001600020600082825403925050819055505b80601660003373ffffffffffffffffffffffffffffffffffffffff1673ffffffffffffffffffffffffffffffffffffffff16815260200190815260200160002060010181905550600f60003373ffffffffffffffffffffffffffffffffffffffff1673ffffffffffffffffffffffffffffffffffffffff168152602001908152602001600020546018600083815260200190815260200160002060008282540192505081905550601b546018600083815260200190815260200160002054111561346257806002600101819055505b50565b60028060000154908060010154908060020154908060030154908060040154905085565b600080600080600061349e8a8a8a8a8a6148f4565b15156134a957600080fd5b6134b48989896120df565b935093506000831115156134c757600080fd5b600760008a8152602001908152602001600020888154811015156134e757fe5b90600052602060002090602091828204019190069054906101000a900460ff16156135175787915086905061351e565b8691508790505b6135288a84614992565b61355d83600a60008c81526020019081526020016000208481548110151561354c57fe5b9060005260206000209001546149fa565b61356a8989898787614a4c565b6135778989898787614cf4565b613580896140f2565b50600194505050505095945050505050565b600061362382601160003373ffffffffffffffffffffffffffffffffffffffff1673ffffffffffffffffffffffffffffffffffffffff16815260200190815260200160002060008673ffffffffffffffffffffffffffffffffffffffff1673ffffffffffffffffffffffffffffffffffffffff1681526020019081526020016000205461500590919063ffffffff16565b601160003373ffffffffffffffffffffffffffffffffffffffff1673ffffffffffffffffffffffffffffffffffffffff16815260200190815260200160002060008573ffffffffffffffffffffffffffffffffffffffff1673ffffffffffffffffffffffffffffffffffffffff168152602001908152602001600020819055508273ffffffffffffffffffffffffffffffffffffffff163373ffffffffffffffffffffffffffffffffffffffff167f8c5be1e5ebec7d5bd14f71427d1e84f3dd0314c0f7b2291e5b200ac8c7c3b925601160003373ffffffffffffffffffffffffffffffffffffffff1673ffffffffffffffffffffffffffffffffffffffff16815260200190815260200160002060008773ffffffffffffffffffffffffffffffffffffffff1673ffffffffffffffffffffffffffffffffffffffff168152602001908152602001600020546040518082815260200191505060405180910390a36001905092915050565b6000601160008473ffffffffffffffffffffffffffffffffffffffff1673ffffffffffffffffffffffffffffffffffffffff16815260200190815260200160002060008373ffffffffffffffffffffffffffffffffffffffff1673ffffffffffffffffffffffffffffffffffffffff16815260200190815260200160002054905092915050565b61381d6151a2565b600b60008381526020019081526020016000208054806020026020016040519081016040528092919081815260200182805480156138b057602002820191906000526020600020905b8160009054906101000a900473ffffffffffffffffffffffffffffffffffffffff1673ffffffffffffffffffffffffffffffffffffffff1681526020019060010190808311613866575b50505050509050919050565b6008602052816000526040600020818154811015156138d757fe5b9060005260206000209001600091509150505481565b6138f5615023565b600c6000838152602001908152602001600020805480602002602001604051908101604052809291908181526020016000905b8282101561398f578382906000526020600020906002020160028060200260405190810160405280929190826002801561397b576020028201915b81546000191681526020019060010190808311613963575b505050505081526020019060010190613928565b505050509050919050565b60008073ffffffffffffffffffffffffffffffffffffffff168373ffffffffffffffffffffffffffffffffffffffff16141515156139d757600080fd5b600f60008573ffffffffffffffffffffffffffffffffffffffff1673ffffffffffffffffffffffffffffffffffffffff168152602001908152602001600020548211151515613a2557600080fd5b601160008573ffffffffffffffffffffffffffffffffffffffff1673ffffffffffffffffffffffffffffffffffffffff16815260200190815260200160002060003373ffffffffffffffffffffffffffffffffffffffff1673ffffffffffffffffffffffffffffffffffffffff168152602001908152602001600020548211151515613ab057600080fd5b613b0282600f60008773ffffffffffffffffffffffffffffffffffffffff1673ffffffffffffffffffffffffffffffffffffffff16815260200190815260200160002054613d5990919063ffffffff16565b600f60008673ffffffffffffffffffffffffffffffffffffffff1673ffffffffffffffffffffffffffffffffffffffff16815260200190815260200160002081905550613b9782600f60008673ffffffffffffffffffffffffffffffffffffffff1673ffffffffffffffffffffffffffffffffffffffff1681526020019081526020016000205461500590919063ffffffff16565b600f60008573ffffffffffffffffffffffffffffffffffffffff1673ffffffffffffffffffffffffffffffffffffffff16815260200190815260200160002081905550613c6982601160008773ffffffffffffffffffffffffffffffffffffffff1673ffffffffffffffffffffffffffffffffffffffff16815260200190815260200160002060003373ffffffffffffffffffffffffffffffffffffffff1673ffffffffffffffffffffffffffffffffffffffff16815260200190815260200160002054613d5990919063ffffffff16565b601160008673ffffffffffffffffffffffffffffffffffffffff1673ffffffffffffffffffffffffffffffffffffffff16815260200190815260200160002060003373ffffffffffffffffffffffffffffffffffffffff1673ffffffffffffffffffffffffffffffffffffffff168152602001908152602001600020819055508273ffffffffffffffffffffffffffffffffffffffff168473ffffffffffffffffffffffffffffffffffffffff167fddf252ad1be2c89b69c2b068fc378daa952ba7f163c4a11628f55a4df523b3ef846040518082815260200191505060405180910390a3600190509392505050565b6000828211151515613d6757fe5b818303905092915050565b6000600760008581526020019081526020016000208054905083101515613d9857600080fd5b600760008581526020019081526020016000208054905082101515613dbc57600080fd5b6007600085815260200190815260200160002082815481101515613ddc57fe5b90600052602060002090602091828204019190069054906101000a900460ff1615156007600086815260200190815260200160002084815481101515613e1e57fe5b90600052602060002090602091828204019190069054906101000a900460ff16151514151515613e4d57600080fd5b60006008600086815260200190815260200160002084815481101515613e6f57fe5b90600052602060002090015414151515613e8857600080fd5b60006008600086815260200190815260200160002083815481101515613eaa57fe5b90600052602060002090015414151515613ec357600080fd5b600190509392505050565b60008073ffffffffffffffffffffffffffffffffffffffff168373ffffffffffffffffffffffffffffffffffffffff1614151515613f0b57600080fd5b600f60003373ffffffffffffffffffffffffffffffffffffffff1673ffffffffffffffffffffffffffffffffffffffff168152602001908152602001600020548211151515613f5957600080fd5b613fab82600f60003373ffffffffffffffffffffffffffffffffffffffff1673ffffffffffffffffffffffffffffffffffffffff16815260200190815260200160002054613d5990919063ffffffff16565b600f60003373ffffffffffffffffffffffffffffffffffffffff1673ffffffffffffffffffffffffffffffffffffffff1681526020019081526020016000208190555061404082600f60008673ffffffffffffffffffffffffffffffffffffffff1673ffffffffffffffffffffffffffffffffffffffff1681526020019081526020016000205461500590919063ffffffff16565b600f60008573ffffffffffffffffffffffffffffffffffffffff1673ffffffffffffffffffffffffffffffffffffffff168152602001908152602001600020819055508273ffffffffffffffffffffffffffffffffffffffff163373ffffffffffffffffffffffffffffffffffffffff167fddf252ad1be2c89b69c2b068fc378daa952ba7f163c4a11628f55a4df523b3ef846040518082815260200191505060405180910390a36001905092915050565b6000806002800154600e8481548110151561410957fe5b906000526020600020900154101561412457600091506148ee565b600190505b600760008481526020019081526020016000208054905081101561468b576000600860008581526020019081526020016000208281548110151561416957fe5b906000526020600020900154141561467e57600160076000858152602001908152602001600020805490500381101561467d5760076000848152602001908152602001600020600182018154811015156141bf57fe5b90600052602060002090602091828204019190069054906101000a900460ff1660076000858152602001908152602001600020828154811015156141ff57fe5b90600052602060002090602091828204019190066101000a81548160ff021916908315150217905550600860008481526020019081526020016000206001820181548110151561424b57fe5b906000526020600020900154600860008581526020019081526020016000208281548110151561427757fe5b90600052602060002090018190555060096000848152602001908152602001600020600182018154811015156142a957fe5b90600052602060002090015460096000858152602001908152602001600020828154811015156142d557fe5b906000526020600020900181905550600a60008481526020019081526020016000206001820181548110151561430757fe5b906000526020600020900154600a60008581526020019081526020016000208281548110151561433357fe5b906000526020600020900181905550600b60008481526020019081526020016000206001820181548110151561436557fe5b906000526020600020900160009054906101000a900473ffffffffffffffffffffffffffffffffffffffff16600b6000858152602001908152602001600020828154811015156143b157fe5b906000526020600020900160006101000a81548173ffffffffffffffffffffffffffffffffffffffff021916908373ffffffffffffffffffffffffffffffffffffffff160217905550600c60008481526020019081526020016000206001820181548110151561441d57fe5b9060005260206000209060020201600c60008581526020019081526020016000208281548110151561444b57fe5b90600052602060002090600202019060026144679291906151b6565b50600d60008481526020019081526020016000206001820181548110151561448b57fe5b9060005260206000209060020201600d6000858152602001908152602001600020828154811015156144b957fe5b90600052602060002090600202019060026144d59291906151b6565b5060076000848152602001908152602001600020600182018154811015156144f957fe5b90600052602060002090602091828204019190066101000a81549060ff0219169055600860008481526020019081526020016000206001820181548110151561453e57fe5b906000526020600020900160009055600960008481526020019081526020016000206001820181548110151561457057fe5b906000526020600020900160009055600a6000848152602001908152602001600020600182018154811015156145a257fe5b906000526020600020900160009055600b6000848152602001908152602001600020600182018154811015156145d457fe5b906000526020600020900160006101000a81549073ffffffffffffffffffffffffffffffffffffffff0219169055600c60008481526020019081526020016000206001820181548110151561462557fe5b9060005260206000209060020201600061463f9190615194565b600d60008481526020019081526020016000206001820181548110151561466257fe5b9060005260206000209060020201600061467c9190615194565b5b5b8080600101915050614129565b600e8381548110151561469a57fe5b90600052602060002090015460076000858152602001908152602001600020805490500360076000858152602001908152602001600020816146dc91906151f3565b50600e838154811015156146ec57fe5b906000526020600020900154600860008581526020019081526020016000208054905003600860008581526020019081526020016000208161472e919061522d565b50600e8381548110151561473e57fe5b9060005260206000209001546009600085815260200190815260200160002080549050036009600085815260200190815260200160002081614780919061522d565b50600e8381548110151561479057fe5b906000526020600020900154600a60008581526020019081526020016000208054905003600a6000858152602001908152602001600020816147d2919061522d565b50600e838154811015156147e257fe5b906000526020600020900154600b60008581526020019081526020016000208054905003600b6000858152602001908152602001600020816148249190615259565b50600e8381548110151561483457fe5b906000526020600020900154600c60008581526020019081526020016000208054905003600c6000858152602001908152602001600020816148769190615285565b50600e8381548110151561488657fe5b906000526020600020900154600d60008581526020019081526020016000208054905003600d6000858152602001908152602001600020816148c89190615285565b506000600e848154811015156148da57fe5b906000526020600020900181905550600191505b50919050565b60008585858585604051808673ffffffffffffffffffffffffffffffffffffffff1673ffffffffffffffffffffffffffffffffffffffff166c01000000000000000000000000028152601401858152602001848152602001838152602001828152602001955050505050506040518091039020600019166002600401546000191610156149845760009050614989565b600190505b95945050505050565b60008054600054028260026000015460026003015402028115156149b257fe5b0490508273ffffffffffffffffffffffffffffffffffffffff166108fc829081150290604051600060405180830381858888f1935050505015156149f557600080fd5b505050565b6000548260026000015402811515614a0e57fe5b046001600082825403925050819055506000546000540281836002600001540202811515614a3857fe5b046001600082825403925050819055505050565b7f389a889e7f65d263df200f5a0bc042c0ba9d0c600161ff14d87cc1daa06b8e6d600b600087815260200190815260200160002085815481101515614a8d57fe5b906000526020600020900160009054906101000a900473ffffffffffffffffffffffffffffffffffffffff16600b600088815260200190815260200160002085815481101515614ad957fe5b906000526020600020900160009054906101000a900473ffffffffffffffffffffffffffffffffffffffff16600c600089815260200190815260200160002087815481101515614b2557fe5b9060005260206000209060020201600c60008a815260200190815260200160002087815481101515614b5357fe5b9060005260206000209060020201600d60008b815260200190815260200160002089815481101515614b8157fe5b9060005260206000209060020201600d60008c815260200190815260200160002089815481101515614baf57fe5b90600052602060002090600202018888604051808973ffffffffffffffffffffffffffffffffffffffff1673ffffffffffffffffffffffffffffffffffffffff1681526020018873ffffffffffffffffffffffffffffffffffffffff1673ffffffffffffffffffffffffffffffffffffffff1681526020018760028015614c4f576020028201915b81546000191681526020019060010190808311614c37575b50508660028015614c79576020028201915b81546000191681526020019060010190808311614c61575b50508560028015614ca3576020028201915b81546000191681526020019060010190808311614c8b575b50508460028015614ccd576020028201915b81546000191681526020019060010190808311614cb5575b50508381526020018281526020019850505050505050505060405180910390a15050505050565b6000806007600088815260200190815260200160002086815481101515614d1757fe5b90600052602060002090602091828204019190069054906101000a900460ff1615614d4757859150849050614d4e565b8491508590505b826008600089815260200190815260200160002083815481101515614d6f57fe5b9060005260206000209001541415614dab576001600e88815481101515614d9257fe5b9060005260206000209001600082825401925050819055505b826009600089815260200190815260200160002083815481101515614dcc57fe5b9060005260206000209001541015614e145760006009600089815260200190815260200160002083815481101515614e0057fe5b906000526020600020900181905550614e4e565b826009600089815260200190815260200160002083815481101515614e3557fe5b9060005260206000209001600082825403925050819055505b826008600089815260200190815260200160002083815481101515614e6f57fe5b906000526020600020900160008282540392505081905550600054848402811515614e9657fe5b046008600089815260200190815260200160002082815481101515614eb757fe5b9060005260206000209001541415614ef3576001600e88815481101515614eda57fe5b9060005260206000209001600082825401925050819055505b600054848402811515614f0257fe5b046009600089815260200190815260200160002082815481101515614f2357fe5b9060005260206000209001541015614f6b5760006009600089815260200190815260200160002082815481101515614f5757fe5b906000526020600020900181905550614fb4565b600054848402811515614f7a57fe5b046009600089815260200190815260200160002082815481101515614f9b57fe5b9060005260206000209001600082825403925050819055505b600054848402811515614fc357fe5b046008600089815260200190815260200160002082815481101515614fe457fe5b90600052602060002090016000828254039250508190555050505050505050565b600080828401905083811015151561501957fe5b8091505092915050565b602060405190810160405280600081525090565b602060405190810160405280600081525090565b602060405190810160405280600081525090565b81548183558181151161509457601f016020900481601f0160209004836000526020600020918201910161509391906152b7565b5b505050565b8154818355818115116150c0578183600052602060002091820191016150bf91906152b7565b5b505050565b8154818355818115116150ec578183600052602060002091820191016150eb91906152b7565b5b505050565b81548183558181151161511e5760020281600202836000526020600020918201910161511d91906152dc565b5b505050565b8260028101928215615158579160200282015b82811115615157578251829060001916905591602001919060010190615136565b5b5090506151659190615308565b5090565b6080604051908101604052806000151581526020016000815260200160008152602001600081525090565b506000815560010160009055565b602060405190810160405280600081525090565b82600281019282156151e2579182015b828111156151e15782548255916001019190600101906151c6565b5b5090506151ef9190615308565b5090565b81548183558181151161522857601f016020900481601f0160209004836000526020600020918201910161522791906152b7565b5b505050565b8154818355818115116152545781836000526020600020918201910161525391906152b7565b5b505050565b8154818355818115116152805781836000526020600020918201910161527f91906152b7565b5b505050565b8154818355818115116152b2576002028160020283600052602060002091820191016152b191906152dc565b5b505050565b6152d991905b808211156152d55760008160009055506001016152bd565b5090565b90565b61530591905b8082111561530157600081816152f89190615194565b506002016152e2565b5090565b90565b61532a91905b8082111561532657600081600090555060010161530e565b5090565b90565b84600260000181905550836002600101819055508260028001819055508160026003018190555080600260040181600019169055505050505050565b60076000808152602001908152602001600020805480600101828161538e919061505f565b91600052602060002090602091828204019190066000909190916101000a81548160ff021916908315150217905550506008600080815260200190815260200160002080548060010182816153e39190615099565b91600052602060002090016000809091909150555060096000808152602001908152602001600020805480600101828161541d9190615099565b916000526020600020900160008090919091505550600a600080815260200190815260200160002080548060010182816154579190615099565b916000526020600020900160008090919091505550600b6000808152602001908152602001600020805480600101828161549191906150c5565b9160005260206000209001600080909190916101000a81548173ffffffffffffffffffffffffffffffffffffffff021916908373ffffffffffffffffffffffffffffffffffffffff16021790555050600c6000808152602001908152602001600020805480600101828161550591906150f1565b916000526020600020906002020160006040805190810160405280600060010260001916600019168152602001600060010260001916600019168152509091909150906002615555929190615123565b5050600d6000808152602001908152602001600020805480600101828161557c91906150f1565b9160005260206000209060020201600060408051908101604052806000600102600019166000191681526020016000600102600019166000191681525090919091509060026155cc929190615123565b50505600a165627a7a7230582078436ce4e7949b6ad463ec95688246705610306ee2255fad94c9676df8ab8c210029",
  "source": "pragma solidity ^0.4.18;\n\nimport 'zeppelin-solidity/contracts/token/ERC20/MintableToken.sol';\nimport 'zeppelin-solidity/contracts/math/SafeMath.sol';\nimport './Exchange.sol';\n\n\n/// @title ValexToken\n/// @author Karim Helmy\n\n// Parts sourced from https://github.com/bokkypoobah/Tokens/blob/master/contracts/FixedSupplyToken.sol\n\n// ----------------------------------------------------------------------------\n// 'VLX' 'Valex Token' token contract\n//\n// Symbol      : VLX\n// Name        : Valex Token\n// Total supply: 1,000,000.000000000000000000\n// Decimals    : 18\n//\n// ----------------------------------------------------------------------------\n\ncontract ValexToken is Exchange, StandardToken {\n    using SafeMath for uint;\n\n    string public name = \"Valex Token\";\n    string public symbol = \"VLX\";\n    uint8 public decimals = 18;\n\n    uint256 public initialSupply = 10000 * (10 ** uint256(decimals));\n\n    // Voting mappings\n    // Holds what every address has voted for\n    mapping (address => Parameters) voteBook;\n    // Hold frequencies of what addresses have voted for (in coin-votes)\n    mapping (uint => uint) closureFeeFreqs;\n    mapping (uint => uint) cancelFeeFreqs;\n    mapping (uint => uint) cleanSizeFreqs;\n    mapping (uint => uint) minerShareFreqs;\n\n    // Threshold to be met for each parameter adjustment\n    uint public threshold = (initialSupply / 100) * 51;\n\n    // How often are you allowed to collect dividends?\n    uint public DISTTIME = 26 weeks;\n    // When were dividends last collected?\n    uint public lastDist = now;\n    // What distribution cycle are we in?\n    uint public distCycle = 0;\n    // How much does one token entitle you to in this cycle?\n    uint public distPerToken = 0;\n    // When did addresses last collect their dividends?\n    mapping (address => uint) lastCollected;\n\n    /**\n    * @dev transfer token for a specified address\n    * @param _to The address to transfer to.\n    * @param _value The amount to be transferred.\n    */\n    function transfer(address _to, uint256 _value) public returns (bool) {\n      BasicToken.transfer(_to, _value);\n      closureFeeFreqs[voteBook[msg.sender].closureFee] -= _value;\n      cancelFeeFreqs[voteBook[msg.sender].cancelFee] -= _value;\n      cleanSizeFreqs[voteBook[msg.sender].cleanSize] -= _value;\n      minerShareFreqs[voteBook[msg.sender].minerShare] -= _value;\n      if (lastCollected[msg.sender] != distCycle){\n        collectDividends(msg.sender);\n      }\n      if (lastCollected[_to] != 0 && lastCollected[_to] != distCycle){\n        collectDividends(_to);\n      }\n      if (lastCollected[_to] == 0){\n        lastCollected[_to] = lastCollected[msg.sender];\n      }\n      if (balances[msg.sender] == 0){\n        lastCollected[msg.sender] = 0;\n      }\n      return true;\n    }\n\n    /**\n     * @dev Transfer tokens from one address to another\n     * @param _from address The address which you want to send tokens from\n     * @param _to address The address which you want to transfer to\n     * @param _value uint256 the amount of tokens to be transferred\n     */\n    function transferFrom(address _from, address _to, uint256 _value) public returns (bool) {\n      StandardToken.transferFrom(_from, _to, _value);\n      closureFeeFreqs[voteBook[_from].closureFee] -= _value;\n      cancelFeeFreqs[voteBook[_from].cancelFee] -= _value;\n      cleanSizeFreqs[voteBook[_from].cleanSize] -= _value;\n      minerShareFreqs[voteBook[_from].minerShare] -= _value;\n      if (lastCollected[_from] != distCycle){\n        collectDividends(_from);\n      }\n      if (lastCollected[_to] != 0 && lastCollected[_to] != distCycle){\n        collectDividends(_to);\n      }\n      if (lastCollected[_to] == 0){\n        lastCollected[_to] = lastCollected[_from];\n      }\n      if (balances[_from] == 0){\n        lastCollected[_from] = 0;\n      }\n      return true;\n    }\n\n    /**\n     * @dev Constructor that gives msg.sender all of existing tokens.\n     * @dev Initializes token to have same parameters as exchange\n     */\n    function ValexToken(uint closureFee, uint cancelFee,\n                      uint cleanSize, uint minershare,\n                      bytes32 difficulty)\n      Exchange(closureFee, cancelFee,\n              cleanSize, minershare, difficulty)\n      public\n    {\n      totalSupply_ = initialSupply;\n      balances[msg.sender] = initialSupply;\n    }\n\n    // Users can collect their dividends on specified time intervals\n    function collectDividends(address _collector)\n      public\n    {\n      require(balances[_collector] > 0);\n      if (lastDist + DISTTIME <= now){\n        lastDist = now;\n        distCycle += 1;\n        distPerToken = (this.balance - openBalance) / initialSupply;\n      }\n      require(lastCollected[_collector] <= distCycle);\n      _collector.transfer(distPerToken * balances[_collector]);\n      lastCollected[_collector] = distCycle;\n      return;\n    }\n\n    // Voting functions for various parameters\n    // Solidity doesn't allow any meaningful abstraction\n    // Adjust relevant parameter if threshold met\n\n    // voting copy3\n    function voteClosureFee(uint desiredParam)\n      public\n    {\n      require(balances[msg.sender] > 0);\n      require(desiredParam > 0);\n      if (voteBook[msg.sender].closureFee > 0){\n        closureFeeFreqs[voteBook[msg.sender].closureFee] -= balances[msg.sender];\n      }\n      voteBook[msg.sender].closureFee = desiredParam;\n      closureFeeFreqs[desiredParam] += balances[msg.sender];\n      if (closureFeeFreqs[desiredParam] > threshold){\n        params.closureFee = desiredParam;\n      }\n    }\n\n    // voting copy3\n    function voteCancelFee(uint desiredParam)\n      public\n    {\n      require(balances[msg.sender] > 0);\n      require(desiredParam > 0);\n      if (voteBook[msg.sender].cancelFee > 0){\n        cancelFeeFreqs[voteBook[msg.sender].cancelFee] -= balances[msg.sender];\n      }\n      voteBook[msg.sender].cancelFee = desiredParam;\n      cancelFeeFreqs[desiredParam] += balances[msg.sender];\n      if (cancelFeeFreqs[desiredParam] > threshold){\n        params.cancelFee = desiredParam;\n      }\n    }\n\n    // voting copy3\n    function voteCleanSize(uint desiredParam)\n      public\n    {\n      require(balances[msg.sender] > 0);\n      require(desiredParam > 0);\n      if (voteBook[msg.sender].cleanSize > 0){\n        cleanSizeFreqs[voteBook[msg.sender].cleanSize] -= balances[msg.sender];\n      }\n      voteBook[msg.sender].cleanSize = desiredParam;\n      cleanSizeFreqs[desiredParam] += balances[msg.sender];\n      if (cleanSizeFreqs[desiredParam] > threshold){\n        params.cleanSize = desiredParam;\n      }\n    }\n\n    // voting copy3\n    function voteMinerShare(uint desiredParam)\n      public\n    {\n      require(balances[msg.sender] > 0);\n      require(desiredParam > 0);\n      if (voteBook[msg.sender].minerShare > 0){\n        minerShareFreqs[voteBook[msg.sender].minerShare] -= balances[msg.sender];\n      }\n      voteBook[msg.sender].minerShare = desiredParam;\n      minerShareFreqs[desiredParam] += balances[msg.sender];\n      if (minerShareFreqs[desiredParam] > threshold){\n        params.minerShare = desiredParam;\n      }\n    }\n\n    // TODO: Implement adding/removing chapters\n\n    // TODO: NEXT VERSION: Add vote transferring\n\n}\n",
  "sourcePath": "/Users/Karim/Desktop/Valex/contracts/ValexToken.sol",
  "compiler": {
    "name": "solc",
    "version": "0.4.18+commit.9cf6e910.Emscripten.clang"
  },
  "schemaVersion": "1.0.1",
  "updatedAt": "2018-03-27T17:37:51.340Z"
}