{
  "contractName": "ValexToken",
  "abi": [
    {
      "constant": true,
      "inputs": [],
      "name": "name",
      "outputs": [
        {
          "name": "",
          "type": "string"
        }
      ],
      "payable": false,
      "stateMutability": "view",
      "type": "function"
    },
    {
      "constant": false,
      "inputs": [
        {
          "name": "_spender",
          "type": "address"
        },
        {
          "name": "_value",
          "type": "uint256"
        }
      ],
      "name": "approve",
      "outputs": [
        {
          "name": "",
          "type": "bool"
        }
      ],
      "payable": false,
      "stateMutability": "nonpayable",
      "type": "function"
    },
    {
      "constant": true,
      "inputs": [
        {
          "name": "",
          "type": "uint256"
        },
        {
          "name": "",
          "type": "uint256"
        }
      ],
      "name": "orderBook",
      "outputs": [
        {
          "name": "buyETH",
          "type": "bool"
        },
        {
          "name": "volume",
          "type": "uint256"
        },
        {
          "name": "minVolume",
          "type": "uint256"
        },
        {
          "name": "limit",
          "type": "uint256"
        }
      ],
      "payable": false,
      "stateMutability": "view",
      "type": "function"
    },
    {
      "constant": true,
      "inputs": [],
      "name": "totalSupply",
      "outputs": [
        {
          "name": "",
          "type": "uint256"
        }
      ],
      "payable": false,
      "stateMutability": "view",
      "type": "function"
    },
    {
      "constant": false,
      "inputs": [
        {
          "name": "_from",
          "type": "address"
        },
        {
          "name": "_to",
          "type": "address"
        },
        {
          "name": "_value",
          "type": "uint256"
        }
      ],
      "name": "transferFrom",
      "outputs": [
        {
          "name": "",
          "type": "bool"
        }
      ],
      "payable": false,
      "stateMutability": "nonpayable",
      "type": "function"
    },
    {
      "constant": true,
      "inputs": [],
      "name": "decimals",
      "outputs": [
        {
          "name": "",
          "type": "uint8"
        }
      ],
      "payable": false,
      "stateMutability": "view",
      "type": "function"
    },
    {
      "constant": true,
      "inputs": [],
      "name": "initialSupply",
      "outputs": [
        {
          "name": "",
          "type": "uint256"
        }
      ],
      "payable": false,
      "stateMutability": "view",
      "type": "function"
    },
    {
      "constant": false,
      "inputs": [
        {
          "name": "buyETH",
          "type": "bool"
        },
        {
          "name": "volume",
          "type": "uint256"
        },
        {
          "name": "minVolume",
          "type": "uint256"
        },
        {
          "name": "limit",
          "type": "uint256"
        },
        {
          "name": "ethAddress",
          "type": "address"
        },
        {
          "name": "firstAddress",
          "type": "string"
        },
        {
          "name": "otherAddress",
          "type": "string"
        },
        {
          "name": "chapter",
          "type": "uint256"
        }
      ],
      "name": "placeOrder",
      "outputs": [
        {
          "name": "accepted",
          "type": "bool"
        }
      ],
      "payable": true,
      "stateMutability": "payable",
      "type": "function"
    },
    {
      "constant": false,
      "inputs": [
        {
          "name": "chapter",
          "type": "uint256"
        },
        {
          "name": "index1",
          "type": "uint256"
        },
        {
          "name": "index2",
          "type": "uint256"
        },
        {
          "name": "nonce",
          "type": "bytes32"
        },
        {
          "name": "hashVal",
          "type": "uint256"
        }
      ],
      "name": "giveMatch",
      "outputs": [
        {
          "name": "isValid",
          "type": "bool"
        }
      ],
      "payable": true,
      "stateMutability": "payable",
      "type": "function"
    },
    {
      "constant": false,
      "inputs": [
        {
          "name": "_spender",
          "type": "address"
        },
        {
          "name": "_subtractedValue",
          "type": "uint256"
        }
      ],
      "name": "decreaseApproval",
      "outputs": [
        {
          "name": "",
          "type": "bool"
        }
      ],
      "payable": false,
      "stateMutability": "nonpayable",
      "type": "function"
    },
    {
      "constant": true,
      "inputs": [
        {
          "name": "_owner",
          "type": "address"
        }
      ],
      "name": "balanceOf",
      "outputs": [
        {
          "name": "balance",
          "type": "uint256"
        }
      ],
      "payable": false,
      "stateMutability": "view",
      "type": "function"
    },
    {
      "constant": true,
      "inputs": [],
      "name": "exBalances",
      "outputs": [
        {
          "name": "openBalance",
          "type": "uint256"
        },
        {
          "name": "closedBalance",
          "type": "uint256"
        }
      ],
      "payable": false,
      "stateMutability": "view",
      "type": "function"
    },
    {
      "constant": true,
      "inputs": [],
      "name": "symbol",
      "outputs": [
        {
          "name": "",
          "type": "string"
        }
      ],
      "payable": false,
      "stateMutability": "view",
      "type": "function"
    },
    {
      "constant": false,
      "inputs": [
        {
          "name": "_to",
          "type": "address"
        },
        {
          "name": "_value",
          "type": "uint256"
        }
      ],
      "name": "transfer",
      "outputs": [
        {
          "name": "",
          "type": "bool"
        }
      ],
      "payable": false,
      "stateMutability": "nonpayable",
      "type": "function"
    },
    {
      "constant": false,
      "inputs": [
        {
          "name": "chapter",
          "type": "uint256"
        },
        {
          "name": "index",
          "type": "uint256"
        }
      ],
      "name": "cancelOrder",
      "outputs": [
        {
          "name": "accepted",
          "type": "bool"
        }
      ],
      "payable": false,
      "stateMutability": "nonpayable",
      "type": "function"
    },
    {
      "constant": false,
      "inputs": [
        {
          "name": "desiredParam",
          "type": "uint256"
        }
      ],
      "name": "voteClosureFee",
      "outputs": [],
      "payable": false,
      "stateMutability": "nonpayable",
      "type": "function"
    },
    {
      "constant": true,
      "inputs": [],
      "name": "thresholds",
      "outputs": [
        {
          "name": "closureFeePerUnit",
          "type": "uint256"
        },
        {
          "name": "cancelFeePerUnit",
          "type": "uint256"
        },
        {
          "name": "cleanSize",
          "type": "uint256"
        },
        {
          "name": "minerShare",
          "type": "uint256"
        },
        {
          "name": "distBalance",
          "type": "uint256"
        }
      ],
      "payable": false,
      "stateMutability": "view",
      "type": "function"
    },
    {
      "constant": true,
      "inputs": [],
      "name": "params",
      "outputs": [
        {
          "name": "closureFeePerUnit",
          "type": "uint256"
        },
        {
          "name": "cancelFeePerUnit",
          "type": "uint256"
        },
        {
          "name": "cleanSize",
          "type": "uint256"
        },
        {
          "name": "minerShare",
          "type": "uint256"
        },
        {
          "name": "distBalance",
          "type": "uint256"
        }
      ],
      "payable": false,
      "stateMutability": "view",
      "type": "function"
    },
    {
      "constant": false,
      "inputs": [
        {
          "name": "_spender",
          "type": "address"
        },
        {
          "name": "_addedValue",
          "type": "uint256"
        }
      ],
      "name": "increaseApproval",
      "outputs": [
        {
          "name": "",
          "type": "bool"
        }
      ],
      "payable": false,
      "stateMutability": "nonpayable",
      "type": "function"
    },
    {
      "constant": true,
      "inputs": [
        {
          "name": "",
          "type": "uint256"
        },
        {
          "name": "",
          "type": "uint256"
        }
      ],
      "name": "addressBook",
      "outputs": [
        {
          "name": "ethAddress",
          "type": "address"
        },
        {
          "name": "firstAddress",
          "type": "string"
        },
        {
          "name": "otherAddress",
          "type": "string"
        }
      ],
      "payable": false,
      "stateMutability": "view",
      "type": "function"
    },
    {
      "constant": true,
      "inputs": [
        {
          "name": "_owner",
          "type": "address"
        },
        {
          "name": "_spender",
          "type": "address"
        }
      ],
      "name": "allowance",
      "outputs": [
        {
          "name": "",
          "type": "uint256"
        }
      ],
      "payable": false,
      "stateMutability": "view",
      "type": "function"
    },
    {
      "inputs": [
        {
          "name": "closureFeePerUnit",
          "type": "uint256"
        },
        {
          "name": "cancelFeePerUnit",
          "type": "uint256"
        },
        {
          "name": "cleanSize",
          "type": "uint256"
        },
        {
          "name": "minershare",
          "type": "uint256"
        },
        {
          "name": "distBalance",
          "type": "uint256"
        }
      ],
      "payable": false,
      "stateMutability": "nonpayable",
      "type": "constructor"
    },
    {
      "anonymous": false,
      "inputs": [
        {
          "indexed": true,
          "name": "owner",
          "type": "address"
        },
        {
          "indexed": true,
          "name": "spender",
          "type": "address"
        },
        {
          "indexed": false,
          "name": "value",
          "type": "uint256"
        }
      ],
      "name": "Approval",
      "type": "event"
    },
    {
      "anonymous": false,
      "inputs": [
        {
          "indexed": true,
          "name": "from",
          "type": "address"
        },
        {
          "indexed": true,
          "name": "to",
          "type": "address"
        },
        {
          "indexed": false,
          "name": "value",
          "type": "uint256"
        }
      ],
      "name": "Transfer",
      "type": "event"
    },
    {
      "anonymous": false,
      "inputs": [
        {
          "indexed": false,
          "name": "ethAddress1",
          "type": "address"
        },
        {
          "indexed": false,
          "name": "ethAddress2",
          "type": "address"
        },
        {
          "indexed": false,
          "name": "firstAddress1",
          "type": "string"
        },
        {
          "indexed": false,
          "name": "firstAddress2",
          "type": "string"
        },
        {
          "indexed": false,
          "name": "otherAddress1",
          "type": "string"
        },
        {
          "indexed": false,
          "name": "otherAddress2",
          "type": "string"
        },
        {
          "indexed": false,
          "name": "mimRate",
          "type": "uint256"
        },
        {
          "indexed": false,
          "name": "ethVol",
          "type": "uint256"
        }
      ],
      "name": "TradeInfo",
      "type": "event"
    }
  ],
  "bytecode": "0x60606040526040805190810160405280600b81526020017f56616c657820546f6b656e000000000000000000000000000000000000000000815250600d908051906020019062000051929190620003f4565b506040805190810160405280600381526020017f564c580000000000000000000000000000000000000000000000000000000000815250600e90805190602001906200009f929190620003f4565b506012600f60006101000a81548160ff021916908360ff160217905550600f60009054906101000a900460ff1660ff16600a0a612710026010553415620000e557600080fd5b60405160a08062003b048339810160405280805190602001909190805190602001909190805190602001909190805190602001909190805190602001909190505084848484846200014e8585858585620001f76401000000000262003209176401000000009004565b6200016c6200022f6401000000000262003241176401000000009004565b50600980548060010182816200018391906200047b565b9160005260206000209001600080909190915055505050505050601054600b81905550601054600a60003373ffffffffffffffffffffffffffffffffffffffff1673ffffffffffffffffffffffffffffffffffffffff168152602001908152602001600020819055505050505050620006ca565b846000800181905550836000600101819055508260006002018190555081600060030181905550806000600401819055505050505050565b6000600760008081526020019081526020016000208054806001018281620002589190620004aa565b9160005260206000209060040201600060806040519081016040528060001515815260200160008152602001600081526020016000815250909190915060008201518160000160006101000a81548160ff021916908315150217905550602082015181600101556040820151816002015560608201518160030155505050600860008081526020019081526020016000208054806001018281620002fd9190620004df565b91600052602060002090600302016000606060405190810160405280600073ffffffffffffffffffffffffffffffffffffffff168152602001602060405190810160405280600081525081526020016020604051908101604052806000815250815250909190915060008201518160000160006101000a81548173ffffffffffffffffffffffffffffffffffffffff021916908373ffffffffffffffffffffffffffffffffffffffff1602179055506020820151816001019080519060200190620003ca92919062000514565b506040820151816002019080519060200190620003e992919062000514565b505050506001905090565b828054600181600116156101000203166002900490600052602060002090601f016020900481019282601f106200043757805160ff191683800117855562000468565b8280016001018555821562000468579182015b82811115620004675782518255916020019190600101906200044a565b5b5090506200047791906200059b565b5090565b815481835581811511620004a557818360005260206000209182019101620004a491906200059b565b5b505050565b815481835581811511620004da57600402816004028360005260206000209182019101620004d99190620005c3565b5b505050565b8154818355818115116200050f576003028160030283600052602060002091820191016200050e919062000611565b5b505050565b828054600181600116156101000203166002900490600052602060002090601f016020900481019282601f106200055757805160ff191683800117855562000588565b8280016001018555821562000588579182015b82811115620005875782518255916020019190600101906200056a565b5b5090506200059791906200059b565b5090565b620005c091905b80821115620005bc576000816000905550600101620005a2565b5090565b90565b6200060e91905b808211156200060a57600080820160006101000a81549060ff021916905560018201600090556002820160009055600382016000905550600401620005ca565b5090565b90565b6200067b91905b808211156200067757600080820160006101000a81549073ffffffffffffffffffffffffffffffffffffffff02191690556001820160006200065b91906200067e565b6002820160006200066d91906200067e565b5060030162000618565b5090565b90565b50805460018160011615610100020316600290046000825580601f10620006a65750620006c7565b601f016020900490600052602060002090810190620006c691906200059b565b5b50565b61342a80620006da6000396000f30060606040526004361061011d576000357c0100000000000000000000000000000000000000000000000000000000900463ffffffff16806306fdde0314610122578063095ea7b3146101b057806314974f461461020a57806318160ddd1461026357806323b872dd1461028c578063313ce56714610305578063378dc3dc146103345780634aed275c1461035d5780635a1f63931461045857806366188463146104b057806370a082311461050a578063737f02af1461055757806395d89b4114610587578063a9059cbb14610615578063b6ed06321461066f578063c932aa7b146106b3578063cda43b3a146106d6578063cff0ab961461071b578063d73dd62314610760578063da92b7c1146107ba578063dd62ed3e14610938575b600080fd5b341561012d57600080fd5b6101356109a4565b6040518080602001828103825283818151815260200191508051906020019080838360005b8381101561017557808201518184015260208101905061015a565b50505050905090810190601f1680156101a25780820380516001836020036101000a031916815260200191505b509250505060405180910390f35b34156101bb57600080fd5b6101f0600480803573ffffffffffffffffffffffffffffffffffffffff16906020019091908035906020019091905050610a42565b604051808215151515815260200191505060405180910390f35b341561021557600080fd5b6102346004808035906020019091908035906020019091905050610b34565b604051808515151515815260200184815260200183815260200182815260200194505050505060405180910390f35b341561026e57600080fd5b610276610b8d565b6040518082815260200191505060405180910390f35b341561029757600080fd5b6102eb600480803573ffffffffffffffffffffffffffffffffffffffff1690602001909190803573ffffffffffffffffffffffffffffffffffffffff16906020019091908035906020019091905050610b97565b604051808215151515815260200191505060405180910390f35b341561031057600080fd5b610318610f56565b604051808260ff1660ff16815260200191505060405180910390f35b341561033f57600080fd5b610347610f69565b6040518082815260200191505060405180910390f35b61043e6004808035151590602001909190803590602001909190803590602001909190803590602001909190803573ffffffffffffffffffffffffffffffffffffffff1690602001909190803590602001908201803590602001908080601f0160208091040260200160405190810160405280939291908181526020018383808284378201915050505050509190803590602001908201803590602001908080601f01602080910402602001604051908101604052809392919081815260200183838082843782019150505050505091908035906020019091905050610f6f565b604051808215151515815260200191505060405180910390f35b6104966004808035906020019091908035906020019091908035906020019091908035600019169060200190919080359060200190919050506111a8565b604051808215151515815260200191505060405180910390f35b34156104bb57600080fd5b6104f0600480803573ffffffffffffffffffffffffffffffffffffffff1690602001909190803590602001909190505061128e565b604051808215151515815260200191505060405180910390f35b341561051557600080fd5b610541600480803573ffffffffffffffffffffffffffffffffffffffff1690602001909190505061151f565b6040518082815260200191505060405180910390f35b341561056257600080fd5b61056a611568565b604051808381526020018281526020019250505060405180910390f35b341561059257600080fd5b61059a61157a565b6040518080602001828103825283818151815260200191508051906020019080838360005b838110156105da5780820151818401526020810190506105bf565b50505050905090810190601f1680156106075780820380516001836020036101000a031916815260200191505b509250505060405180910390f35b341561062057600080fd5b610655600480803573ffffffffffffffffffffffffffffffffffffffff16906020019091908035906020019091905050611618565b604051808215151515815260200191505060405180910390f35b341561067a57600080fd5b610699600480803590602001909190803590602001909190505061183c565b604051808215151515815260200191505060405180910390f35b34156106be57600080fd5b6106d46004808035906020019091905050611b66565b005b34156106e157600080fd5b6106e9611d85565b604051808681526020018581526020018481526020018381526020018281526020019550505050505060405180910390f35b341561072657600080fd5b61072e611da9565b604051808681526020018581526020018481526020018381526020018281526020019550505050505060405180910390f35b341561076b57600080fd5b6107a0600480803573ffffffffffffffffffffffffffffffffffffffff16906020019091908035906020019091905050611dcd565b604051808215151515815260200191505060405180910390f35b34156107c557600080fd5b6107e46004808035906020019091908035906020019091905050611fc9565b604051808473ffffffffffffffffffffffffffffffffffffffff1673ffffffffffffffffffffffffffffffffffffffff16815260200180602001806020018381038352858181546001816001161561010002031660029004815260200191508054600181600116156101000203166002900480156108a35780601f10610878576101008083540402835291602001916108a3565b820191906000526020600020905b81548152906001019060200180831161088657829003601f168201915b50508381038252848181546001816001161561010002031660029004815260200191508054600181600116156101000203166002900480156109265780601f106108fb57610100808354040283529160200191610926565b820191906000526020600020905b81548152906001019060200180831161090957829003601f168201915b50509550505050505060405180910390f35b341561094357600080fd5b61098e600480803573ffffffffffffffffffffffffffffffffffffffff1690602001909190803573ffffffffffffffffffffffffffffffffffffffff1690602001909190505061202d565b6040518082815260200191505060405180910390f35b600d8054600181600116156101000203166002900480601f016020809104026020016040519081016040528092919081815260200182805460018160011615610100020316600290048015610a3a5780601f10610a0f57610100808354040283529160200191610a3a565b820191906000526020600020905b815481529060010190602001808311610a1d57829003601f168201915b505050505081565b600081600c60003373ffffffffffffffffffffffffffffffffffffffff1673ffffffffffffffffffffffffffffffffffffffff16815260200190815260200160002060008573ffffffffffffffffffffffffffffffffffffffff1673ffffffffffffffffffffffffffffffffffffffff168152602001908152602001600020819055508273ffffffffffffffffffffffffffffffffffffffff163373ffffffffffffffffffffffffffffffffffffffff167f8c5be1e5ebec7d5bd14f71427d1e84f3dd0314c0f7b2291e5b200ac8c7c3b925846040518082815260200191505060405180910390a36001905092915050565b600760205281600052604060002081815481101515610b4f57fe5b9060005260206000209060040201600091509150508060000160009054906101000a900460ff16908060010154908060020154908060030154905084565b6000600b54905090565b60008073ffffffffffffffffffffffffffffffffffffffff168373ffffffffffffffffffffffffffffffffffffffff1614151515610bd457600080fd5b600a60008573ffffffffffffffffffffffffffffffffffffffff1673ffffffffffffffffffffffffffffffffffffffff168152602001908152602001600020548211151515610c2257600080fd5b600c60008573ffffffffffffffffffffffffffffffffffffffff1673ffffffffffffffffffffffffffffffffffffffff16815260200190815260200160002060003373ffffffffffffffffffffffffffffffffffffffff1673ffffffffffffffffffffffffffffffffffffffff168152602001908152602001600020548211151515610cad57600080fd5b610cff82600a60008773ffffffffffffffffffffffffffffffffffffffff1673ffffffffffffffffffffffffffffffffffffffff168152602001908152602001600020546120b490919063ffffffff16565b600a60008673ffffffffffffffffffffffffffffffffffffffff1673ffffffffffffffffffffffffffffffffffffffff16815260200190815260200160002081905550610d9482600a60008673ffffffffffffffffffffffffffffffffffffffff1673ffffffffffffffffffffffffffffffffffffffff168152602001908152602001600020546120cd90919063ffffffff16565b600a60008573ffffffffffffffffffffffffffffffffffffffff1673ffffffffffffffffffffffffffffffffffffffff16815260200190815260200160002081905550610e6682600c60008773ffffffffffffffffffffffffffffffffffffffff1673ffffffffffffffffffffffffffffffffffffffff16815260200190815260200160002060003373ffffffffffffffffffffffffffffffffffffffff1673ffffffffffffffffffffffffffffffffffffffff168152602001908152602001600020546120b490919063ffffffff16565b600c60008673ffffffffffffffffffffffffffffffffffffffff1673ffffffffffffffffffffffffffffffffffffffff16815260200190815260200160002060003373ffffffffffffffffffffffffffffffffffffffff1673ffffffffffffffffffffffffffffffffffffffff168152602001908152602001600020819055508273ffffffffffffffffffffffffffffffffffffffff168473ffffffffffffffffffffffffffffffffffffffff167fddf252ad1be2c89b69c2b068fc378daa952ba7f163c4a11628f55a4df523b3ef846040518082815260200191505060405180910390a3600190509392505050565b600f60009054906101000a900460ff1681565b60105481565b60008088111515610f7f57600080fd5b600087111515610f8e57600080fd5b868810151515610f9d57600080fd5b600086111515610fac57600080fd5b8815610fce576000800154880234870210151515610fc957600080fd5b610fe4565b600080015488023410151515610fe357600080fd5b5b6000600760008481526020019081526020016000208054905011151561100957600080fd5b60076000838152602001908152602001600020805480600101828161102e9190612faa565b916000526020600020906004020160006080604051908101604052808d151581526020018c81526020018b81526020018a815250909190915060008201518160000160006101000a81548160ff0219169083151502179055506020820151816001015560408201518160020155606082015181600301555050506008600083815260200190815260200160002080548060010182816110cd9190612fdc565b916000526020600020906003020160006060604051908101604052808973ffffffffffffffffffffffffffffffffffffffff16815260200188815260200187815250909190915060008201518160000160006101000a81548173ffffffffffffffffffffffffffffffffffffffff021916908373ffffffffffffffffffffffffffffffffffffffff160217905550602082015181600101908051906020019061117792919061300e565b50604082015181600201908051906020019061119492919061300e565b505050506001905098975050505050505050565b6000806000806111bc338a8a8a8a8a6120eb565b15156111cb5760009350611282565b6111d6898989612186565b9250925060008214156111ec5760009350611282565b670de0b6b3a7640000826000800154600060030154020281151561120c57fe5b0490503373ffffffffffffffffffffffffffffffffffffffff166108fc829081150290604051600060405180830381858888f19350505050151561124f57600080fd5b61125981836123f7565b6112668989898686612447565b611273898989868661287f565b61127c89612be3565b50600193505b50505095945050505050565b600080600c60003373ffffffffffffffffffffffffffffffffffffffff1673ffffffffffffffffffffffffffffffffffffffff16815260200190815260200160002060008573ffffffffffffffffffffffffffffffffffffffff1673ffffffffffffffffffffffffffffffffffffffff1681526020019081526020016000205490508083111561139f576000600c60003373ffffffffffffffffffffffffffffffffffffffff1673ffffffffffffffffffffffffffffffffffffffff16815260200190815260200160002060008673ffffffffffffffffffffffffffffffffffffffff1673ffffffffffffffffffffffffffffffffffffffff16815260200190815260200160002081905550611433565b6113b283826120b490919063ffffffff16565b600c60003373ffffffffffffffffffffffffffffffffffffffff1673ffffffffffffffffffffffffffffffffffffffff16815260200190815260200160002060008673ffffffffffffffffffffffffffffffffffffffff1673ffffffffffffffffffffffffffffffffffffffff168152602001908152602001600020819055505b8373ffffffffffffffffffffffffffffffffffffffff163373ffffffffffffffffffffffffffffffffffffffff167f8c5be1e5ebec7d5bd14f71427d1e84f3dd0314c0f7b2291e5b200ac8c7c3b925600c60003373ffffffffffffffffffffffffffffffffffffffff1673ffffffffffffffffffffffffffffffffffffffff16815260200190815260200160002060008873ffffffffffffffffffffffffffffffffffffffff1673ffffffffffffffffffffffffffffffffffffffff168152602001908152602001600020546040518082815260200191505060405180910390a3600191505092915050565b6000600a60008373ffffffffffffffffffffffffffffffffffffffff1673ffffffffffffffffffffffffffffffffffffffff168152602001908152602001600020549050919050565b60058060000154908060010154905082565b600e8054600181600116156101000203166002900480601f0160208091040260200160405190810160405280929190818152602001828054600181600116156101000203166002900480156116105780601f106115e557610100808354040283529160200191611610565b820191906000526020600020905b8154815290600101906020018083116115f357829003601f168201915b505050505081565b60008073ffffffffffffffffffffffffffffffffffffffff168373ffffffffffffffffffffffffffffffffffffffff161415151561165557600080fd5b600a60003373ffffffffffffffffffffffffffffffffffffffff1673ffffffffffffffffffffffffffffffffffffffff1681526020019081526020016000205482111515156116a357600080fd5b6116f582600a60003373ffffffffffffffffffffffffffffffffffffffff1673ffffffffffffffffffffffffffffffffffffffff168152602001908152602001600020546120b490919063ffffffff16565b600a60003373ffffffffffffffffffffffffffffffffffffffff1673ffffffffffffffffffffffffffffffffffffffff1681526020019081526020016000208190555061178a82600a60008673ffffffffffffffffffffffffffffffffffffffff1673ffffffffffffffffffffffffffffffffffffffff168152602001908152602001600020546120cd90919063ffffffff16565b600a60008573ffffffffffffffffffffffffffffffffffffffff1673ffffffffffffffffffffffffffffffffffffffff168152602001908152602001600020819055508273ffffffffffffffffffffffffffffffffffffffff163373ffffffffffffffffffffffffffffffffffffffff167fddf252ad1be2c89b69c2b068fc378daa952ba7f163c4a11628f55a4df523b3ef846040518082815260200191505060405180910390a36001905092915050565b600080600060076000868152602001908152602001600020805490508410151561186557600080fd5b600860008681526020019081526020016000208481548110151561188557fe5b906000526020600020906003020160000160009054906101000a900473ffffffffffffffffffffffffffffffffffffffff1673ffffffffffffffffffffffffffffffffffffffff163373ffffffffffffffffffffffffffffffffffffffff161415156118f057600080fd5b600760008681526020019081526020016000208481548110151561191057fe5b9060005260206000209060040201600301549150600760008681526020019081526020016000208481548110151561194457fe5b9060005260206000209060040201600101549050600760008681526020019081526020016000208481548110151561197857fe5b906000526020600020906004020160000160009054906101000a900460ff16156119f9573373ffffffffffffffffffffffffffffffffffffffff166108fc8360006001015460008001540384028115156119ce57fe5b049081150290604051600060405180830381858888f1935050505015156119f457600080fd5b611a52565b3373ffffffffffffffffffffffffffffffffffffffff166108fc836000600101546000800154038402811515611a2b57fe5b049081150290604051600060405180830381858888f193505050501515611a5157600080fd5b5b6007600086815260200190815260200160002084815481101515611a7257fe5b9060005260206000209060040201600080820160006101000a81549060ff021916905560018201600090556002820160009055600382016000905550506008600086815260200190815260200160002084815481101515611acf57fe5b9060005260206000209060030201600080820160006101000a81549073ffffffffffffffffffffffffffffffffffffffff0219169055600182016000611b15919061308e565b600282016000611b25919061308e565b50506001600986815481101515611b3857fe5b906000526020600020900160008282540192505081905550611b5985612be3565b5060019250505092915050565b6000600a60003373ffffffffffffffffffffffffffffffffffffffff1673ffffffffffffffffffffffffffffffffffffffff16815260200190815260200160002054111515611bb457600080fd5b600081111515611bc357600080fd5b6000601160003373ffffffffffffffffffffffffffffffffffffffff1673ffffffffffffffffffffffffffffffffffffffff168152602001908152602001600020600001541115611cb157600a60003373ffffffffffffffffffffffffffffffffffffffff1673ffffffffffffffffffffffffffffffffffffffff1681526020019081526020016000205460126000601160003373ffffffffffffffffffffffffffffffffffffffff1673ffffffffffffffffffffffffffffffffffffffff168152602001908152602001600020600001548152602001908152602001600020600082825403925050819055505b80601160003373ffffffffffffffffffffffffffffffffffffffff1673ffffffffffffffffffffffffffffffffffffffff16815260200190815260200160002060000181905550600a60003373ffffffffffffffffffffffffffffffffffffffff1673ffffffffffffffffffffffffffffffffffffffff16815260200190815260200160002054601260008381526020019081526020016000206000828254019250508190555060176000015460126000838152602001908152602001600020541115611d82578060008001819055505b50565b60178060000154908060010154908060020154908060030154908060040154905085565b60008060000154908060010154908060020154908060030154908060040154905085565b6000611e5e82600c60003373ffffffffffffffffffffffffffffffffffffffff1673ffffffffffffffffffffffffffffffffffffffff16815260200190815260200160002060008673ffffffffffffffffffffffffffffffffffffffff1673ffffffffffffffffffffffffffffffffffffffff168152602001908152602001600020546120cd90919063ffffffff16565b600c60003373ffffffffffffffffffffffffffffffffffffffff1673ffffffffffffffffffffffffffffffffffffffff16815260200190815260200160002060008573ffffffffffffffffffffffffffffffffffffffff1673ffffffffffffffffffffffffffffffffffffffff168152602001908152602001600020819055508273ffffffffffffffffffffffffffffffffffffffff163373ffffffffffffffffffffffffffffffffffffffff167f8c5be1e5ebec7d5bd14f71427d1e84f3dd0314c0f7b2291e5b200ac8c7c3b925600c60003373ffffffffffffffffffffffffffffffffffffffff1673ffffffffffffffffffffffffffffffffffffffff16815260200190815260200160002060008773ffffffffffffffffffffffffffffffffffffffff1673ffffffffffffffffffffffffffffffffffffffff168152602001908152602001600020546040518082815260200191505060405180910390a36001905092915050565b600860205281600052604060002081815481101515611fe457fe5b9060005260206000209060030201600091509150508060000160009054906101000a900473ffffffffffffffffffffffffffffffffffffffff1690806001019080600201905083565b6000600c60008473ffffffffffffffffffffffffffffffffffffffff1673ffffffffffffffffffffffffffffffffffffffff16815260200190815260200160002060008373ffffffffffffffffffffffffffffffffffffffff1673ffffffffffffffffffffffffffffffffffffffff16815260200190815260200160002054905092915050565b60008282111515156120c257fe5b818303905092915050565b60008082840190508381101515156120e157fe5b8091505092915050565b60008686868685604051808673ffffffffffffffffffffffffffffffffffffffff1673ffffffffffffffffffffffffffffffffffffffff166c01000000000000000000000000028152601401858152602001848152602001838152602001828152602001955050505050506040518091039020600019168360001916141515612177576000905061217c565b600190505b9695505050505050565b6000806000806121946130d6565b61219c6130d6565b6121a7898989612e2d565b15156121bf57600080819150809050955095506123eb565b600760008a8152602001908152602001600020888154811015156121df57fe5b906000526020600020906004020160000160009054906101000a900460ff161561220e57879350869250612215565b8693508792505b600760008a81526020019081526020016000208481548110151561223557fe5b9060005260206000209060040201608060405190810160405290816000820160009054906101000a900460ff1615151515815260200160018201548152602001600282015481526020016003820154815250509150600760008a8152602001908152602001600020838154811015156122aa57fe5b9060005260206000209060040201608060405190810160405290816000820160009054906101000a900460ff161515151581526020016001820154815260200160028201548152602001600382015481525050905080606001518260600151101561232157600080819150809050955095506123eb565b6002816060015183606001510181151561233757fe5b04955085816020015102670de0b6b3a764000083602001510211156123955785816020015102670de0b6b3a7640000836040015102111561238457600080819150809050955095506123eb565b8586826020015102955095506123eb565b670de0b6b3a76400008260200151028682602001510211156123e057670de0b6b3a76400008260200151028682604001510211156123df57600080819150809050955095506123eb565b5b858260200151955095505b50505050935093915050565b80600080015402600560000154036005600001819055508060008001540282600560010154030160056001018190555060006004015460056001015410151561244357612442612f93565b5b5050565b7f17fad608e647bf180e9f2d2542498a2ec81fb1cb077d60802b67b21d64adc9b8600860008781526020019081526020016000208581548110151561248857fe5b906000526020600020906003020160000160009054906101000a900473ffffffffffffffffffffffffffffffffffffffff1660086000888152602001908152602001600020858154811015156124da57fe5b906000526020600020906003020160000160009054906101000a900473ffffffffffffffffffffffffffffffffffffffff16600860008981526020019081526020016000208781548110151561252c57fe5b9060005260206000209060030201600101600860008a81526020019081526020016000208781548110151561255d57fe5b9060005260206000209060030201600101600860008b81526020019081526020016000208981548110151561258e57fe5b9060005260206000209060030201600201600860008c8152602001908152602001600020898154811015156125bf57fe5b90600052602060002090600302016002018888604051808973ffffffffffffffffffffffffffffffffffffffff1673ffffffffffffffffffffffffffffffffffffffff1681526020018873ffffffffffffffffffffffffffffffffffffffff1673ffffffffffffffffffffffffffffffffffffffff1681526020018060200180602001806020018060200187815260200186815260200185810385528b8181546001816001161561010002031660029004815260200191508054600181600116156101000203166002900480156126d75780601f106126ac576101008083540402835291602001916126d7565b820191906000526020600020905b8154815290600101906020018083116126ba57829003601f168201915b505085810384528a81815460018160011615610100020316600290048152602001915080546001816001161561010002031660029004801561275a5780601f1061272f5761010080835404028352916020019161275a565b820191906000526020600020905b81548152906001019060200180831161273d57829003601f168201915b50508581038352898181546001816001161561010002031660029004815260200191508054600181600116156101000203166002900480156127dd5780601f106127b2576101008083540402835291602001916127dd565b820191906000526020600020905b8154815290600101906020018083116127c057829003601f168201915b50508581038252888181546001816001161561010002031660029004815260200191508054600181600116156101000203166002900480156128605780601f1061283557610100808354040283529160200191612860565b820191906000526020600020905b81548152906001019060200180831161284357829003601f168201915b50509c5050505050505050505050505060405180910390a15050505050565b60008060076000888152602001908152602001600020868154811015156128a257fe5b906000526020600020906004020160000160009054906101000a900460ff16156128d1578591508490506128d8565b8491508590505b8260076000898152602001908152602001600020838154811015156128f957fe5b906000526020600020906004020160010154141561293b57600160098881548110151561292257fe5b9060005260206000209001600082825401925050819055505b82600760008981526020019081526020016000208381548110151561295c57fe5b90600052602060002090600402016002015410156129b0576000600760008981526020019081526020016000208381548110151561299657fe5b9060005260206000209060040201600201819055506129f0565b8260076000898152602001908152602001600020838154811015156129d157fe5b9060005260206000209060040201600201600082825403925050819055505b826007600089815260200190815260200160002083815481101515612a1157fe5b906000526020600020906004020160010160008282540392505081905550670de0b6b3a7640000848402811515612a4457fe5b046007600089815260200190815260200160002082815481101515612a6557fe5b9060005260206000209060040201600101541415612aa7576001600988815481101515612a8e57fe5b9060005260206000209001600082825401925050819055505b670de0b6b3a7640000848402811515612abc57fe5b046007600089815260200190815260200160002082815481101515612add57fe5b9060005260206000209060040201600201541015612b315760006007600089815260200190815260200160002082815481101515612b1757fe5b906000526020600020906004020160020181905550612b86565b670de0b6b3a7640000848402811515612b4657fe5b046007600089815260200190815260200160002082815481101515612b6757fe5b9060005260206000209060040201600201600082825403925050819055505b670de0b6b3a7640000848402811515612b9b57fe5b046007600089815260200190815260200160002082815481101515612bbc57fe5b90600052602060002090600402016001016000828254039250508190555050505050505050565b600080600060020154600984815481101515612bfb57fe5b9060005260206000209001541015612c165760009150612e27565b600190505b6007600084815260200190815260200160002080549050811015612db05760006007600085815260200190815260200160002082815481101515612c5b57fe5b9060005260206000209060040201600101541415612da3576001600760008581526020019081526020016000208054905003811015612da2576007600084815260200190815260200160002060018201815481101515612cb757fe5b90600052602060002090600402016007600085815260200190815260200160002082815481101515612ce557fe5b90600052602060002090600402016000820160009054906101000a900460ff168160000160006101000a81548160ff0219169083151502179055506001820154816001015560028201548160020155600382015481600301559050506007600084815260200190815260200160002060018201815481101515612d6457fe5b9060005260206000209060040201600080820160006101000a81549060ff021916905560018201600090556002820160009055600382016000905550505b5b8080600101915050612c1b565b600983815481101515612dbf57fe5b9060005260206000209001546007600085815260200190815260200160002080549050036007600085815260200190815260200160002081612e019190613101565b506000600984815481101515612e1357fe5b906000526020600020900181905550600191505b50919050565b6000600760008581526020019081526020016000208054905083101515612e5357600080fd5b600760008581526020019081526020016000208054905082101515612e7757600080fd5b6007600085815260200190815260200160002082815481101515612e9757fe5b906000526020600020906004020160000160009054906101000a900460ff1615156007600086815260200190815260200160002084815481101515612ed857fe5b906000526020600020906004020160000160009054906101000a900460ff16151514151515612f0657600080fd5b60006007600086815260200190815260200160002084815481101515612f2857fe5b90600052602060002090600402016001015414151515612f4757600080fd5b60006007600086815260200190815260200160002083815481101515612f6957fe5b90600052602060002090600402016001015414151515612f8857600080fd5b600190509392505050565b612f9b612f9d565b565b6000600560010181905550565b815481835581811511612fd757600402816004028360005260206000209182019101612fd69190613133565b5b505050565b81548183558181151161300957600302816003028360005260206000209182019101613008919061317e565b5b505050565b828054600181600116156101000203166002900490600052602060002090601f016020900481019282601f1061304f57805160ff191683800117855561307d565b8280016001018555821561307d579182015b8281111561307c578251825591602001919060010190613061565b5b50905061308a91906131e4565b5090565b50805460018160011615610100020316600290046000825580601f106130b457506130d3565b601f0160209004906000526020600020908101906130d291906131e4565b5b50565b6080604051908101604052806000151581526020016000815260200160008152602001600081525090565b81548183558181151161312e5760040281600402836000526020600020918201910161312d9190613133565b5b505050565b61317b91905b8082111561317757600080820160006101000a81549060ff021916905560018201600090556002820160009055600382016000905550600401613139565b5090565b90565b6131e191905b808211156131dd57600080820160006101000a81549073ffffffffffffffffffffffffffffffffffffffff02191690556001820160006131c4919061308e565b6002820160006131d4919061308e565b50600301613184565b5090565b90565b61320691905b808211156132025760008160009055506001016131ea565b5090565b90565b846000800181905550836000600101819055508260006002018190555081600060030181905550806000600401819055505050505050565b60006007600080815260200190815260200160002080548060010182816132689190612faa565b9160005260206000209060040201600060806040519081016040528060001515815260200160008152602001600081526020016000815250909190915060008201518160000160006101000a81548160ff02191690831515021790555060208201518160010155604082015181600201556060820151816003015550505060086000808152602001908152602001600020805480600101828161330b9190612fdc565b91600052602060002090600302016000606060405190810160405280600073ffffffffffffffffffffffffffffffffffffffff168152602001602060405190810160405280600081525081526020016020604051908101604052806000815250815250909190915060008201518160000160006101000a81548173ffffffffffffffffffffffffffffffffffffffff021916908373ffffffffffffffffffffffffffffffffffffffff16021790555060208201518160010190805190602001906133d692919061300e565b5060408201518160020190805190602001906133f392919061300e565b5050505060019050905600a165627a7a7230582003f4d13e99d923a9f7fd19e8aaa24d27ed3993e256e85f7e3e307d402c0d09790029",
  "source": "pragma solidity ^0.4.18;\n\nimport 'zeppelin-solidity/contracts/token/ERC20/MintableToken.sol';\nimport 'zeppelin-solidity/contracts/math/SafeMath.sol';\nimport './Exchange.sol';\n\n\n/// @title ValexToken\n/// @author Karim Helmy\n\n// Parts sourced from https://github.com/bokkypoobah/Tokens/blob/master/contracts/FixedSupplyToken.sol\n\n// ----------------------------------------------------------------------------\n// 'VLX' 'Valex Token' token contract\n//\n// Symbol      : VLX\n// Name        : Valex Token\n// Total supply: 1,000,000.000000000000000000\n// Decimals    : 18\n//\n// ----------------------------------------------------------------------------\n\ncontract ValexToken is Exchange, StandardToken {\n    using SafeMath for uint;\n\n    string public name = \"Valex Token\";\n    string public symbol = \"VLX\";\n    uint8 public decimals = 18;\n\n    uint256 public initialSupply = 10000 * (10 ** uint256(decimals));\n\n    // Voting mappings\n    // Holds what every address has voted for\n    mapping (address => Parameters) voteBook;\n    // Hold frequencies of what addresses have voted for (in coin-votes)\n    mapping (uint => uint) closureFeeFreqs;\n    mapping (uint => uint) cancelFeeFreqs;\n    mapping (uint => uint) cleanSizeFreqs;\n    mapping (uint => uint) minerShareFreqs;\n    mapping (uint => uint) distBalanceFreqs;\n\n    // Thresholds to be met for each parameter adjustment\n    // TODO: add initialization for thresholds\n    Parameters public thresholds;\n\n    /**\n     * @dev Constructor that gives msg.sender all of existing tokens.\n     * @dev Initializes token to have same parameters as exchange\n     */\n    function ValexToken(uint closureFeePerUnit, uint cancelFeePerUnit,\n                      uint cleanSize, uint minershare, uint distBalance)\n      Exchange(closureFeePerUnit, cancelFeePerUnit,\n              cleanSize, minershare, distBalance)\n      public\n    {\n      totalSupply_ = initialSupply;\n      balances[msg.sender] = initialSupply;\n    }\n\n    // Distributes dividends when balance is of sufficient size\n    function distDividends()\n      internal\n    {\n      //TODO: Implement distribution\n      Exchange.distDividends();\n    }\n\n    // TODO: Implement voting/parameter modification\n    // Vote for a closure fee\n    // Adjust closure fee if threshold met\n    // voting copy3\n    function voteClosureFee(uint desiredParam)\n      public\n    {\n      require(balances[msg.sender] > 0);\n      require(desiredParam > 0);\n      if (voteBook[msg.sender].closureFeePerUnit > 0){\n        closureFeeFreqs[voteBook[msg.sender].closureFeePerUnit] -= balances[msg.sender];\n      }\n      voteBook[msg.sender].closureFeePerUnit = desiredParam;\n      closureFeeFreqs[desiredParam] += balances[msg.sender];\n      if (closureFeeFreqs[desiredParam] > thresholds.closureFeePerUnit){\n        params.closureFeePerUnit = desiredParam;\n      }\n    }\n    \n    // TODO: Implement adding/removing chapters\n\n}\n",
  "sourcePath": "/Users/Karim/Desktop/Valex/contracts/ValexToken.sol",
  "compiler": {
    "name": "solc",
    "version": "0.4.18+commit.9cf6e910.Emscripten.clang"
  },
  "schemaVersion": "1.0.1",
  "updatedAt": "2018-01-29T16:43:14.193Z"
}