{
  "contractName": "ValexToken",
  "abi": [
    {
      "constant": true,
      "inputs": [],
      "name": "name",
      "outputs": [
        {
          "name": "",
          "type": "string"
        }
      ],
      "payable": false,
      "stateMutability": "view",
      "type": "function"
    },
    {
      "constant": false,
      "inputs": [
        {
          "name": "_spender",
          "type": "address"
        },
        {
          "name": "_value",
          "type": "uint256"
        }
      ],
      "name": "approve",
      "outputs": [
        {
          "name": "",
          "type": "bool"
        }
      ],
      "payable": false,
      "stateMutability": "nonpayable",
      "type": "function"
    },
    {
      "constant": true,
      "inputs": [
        {
          "name": "",
          "type": "uint256"
        },
        {
          "name": "",
          "type": "uint256"
        }
      ],
      "name": "orderBook",
      "outputs": [
        {
          "name": "buyETH",
          "type": "bool"
        },
        {
          "name": "volume",
          "type": "uint256"
        },
        {
          "name": "minVolume",
          "type": "uint256"
        },
        {
          "name": "limit",
          "type": "uint256"
        }
      ],
      "payable": false,
      "stateMutability": "view",
      "type": "function"
    },
    {
      "constant": true,
      "inputs": [],
      "name": "totalSupply",
      "outputs": [
        {
          "name": "",
          "type": "uint256"
        }
      ],
      "payable": false,
      "stateMutability": "view",
      "type": "function"
    },
    {
      "constant": false,
      "inputs": [
        {
          "name": "_from",
          "type": "address"
        },
        {
          "name": "_to",
          "type": "address"
        },
        {
          "name": "_value",
          "type": "uint256"
        }
      ],
      "name": "transferFrom",
      "outputs": [
        {
          "name": "",
          "type": "bool"
        }
      ],
      "payable": false,
      "stateMutability": "nonpayable",
      "type": "function"
    },
    {
      "constant": true,
      "inputs": [],
      "name": "decimals",
      "outputs": [
        {
          "name": "",
          "type": "uint8"
        }
      ],
      "payable": false,
      "stateMutability": "view",
      "type": "function"
    },
    {
      "constant": true,
      "inputs": [],
      "name": "initialSupply",
      "outputs": [
        {
          "name": "",
          "type": "uint256"
        }
      ],
      "payable": false,
      "stateMutability": "view",
      "type": "function"
    },
    {
      "constant": false,
      "inputs": [
        {
          "name": "buyETH",
          "type": "bool"
        },
        {
          "name": "volume",
          "type": "uint256"
        },
        {
          "name": "minVolume",
          "type": "uint256"
        },
        {
          "name": "limit",
          "type": "uint256"
        },
        {
          "name": "ethAddress",
          "type": "address"
        },
        {
          "name": "firstAddress",
          "type": "string"
        },
        {
          "name": "otherAddress",
          "type": "string"
        },
        {
          "name": "chapter",
          "type": "uint256"
        }
      ],
      "name": "placeOrder",
      "outputs": [
        {
          "name": "accepted",
          "type": "bool"
        }
      ],
      "payable": true,
      "stateMutability": "payable",
      "type": "function"
    },
    {
      "constant": false,
      "inputs": [
        {
          "name": "chapter",
          "type": "uint256"
        },
        {
          "name": "index1",
          "type": "uint256"
        },
        {
          "name": "index2",
          "type": "uint256"
        },
        {
          "name": "nonce",
          "type": "bytes32"
        },
        {
          "name": "hashVal",
          "type": "uint256"
        }
      ],
      "name": "giveMatch",
      "outputs": [
        {
          "name": "isValid",
          "type": "bool"
        }
      ],
      "payable": true,
      "stateMutability": "payable",
      "type": "function"
    },
    {
      "constant": false,
      "inputs": [
        {
          "name": "_spender",
          "type": "address"
        },
        {
          "name": "_subtractedValue",
          "type": "uint256"
        }
      ],
      "name": "decreaseApproval",
      "outputs": [
        {
          "name": "",
          "type": "bool"
        }
      ],
      "payable": false,
      "stateMutability": "nonpayable",
      "type": "function"
    },
    {
      "constant": true,
      "inputs": [
        {
          "name": "_owner",
          "type": "address"
        }
      ],
      "name": "balanceOf",
      "outputs": [
        {
          "name": "balance",
          "type": "uint256"
        }
      ],
      "payable": false,
      "stateMutability": "view",
      "type": "function"
    },
    {
      "constant": true,
      "inputs": [],
      "name": "exBalances",
      "outputs": [
        {
          "name": "openBalance",
          "type": "uint256"
        },
        {
          "name": "closedBalance",
          "type": "uint256"
        }
      ],
      "payable": false,
      "stateMutability": "view",
      "type": "function"
    },
    {
      "constant": true,
      "inputs": [],
      "name": "symbol",
      "outputs": [
        {
          "name": "",
          "type": "string"
        }
      ],
      "payable": false,
      "stateMutability": "view",
      "type": "function"
    },
    {
      "constant": false,
      "inputs": [
        {
          "name": "_to",
          "type": "address"
        },
        {
          "name": "_value",
          "type": "uint256"
        }
      ],
      "name": "transfer",
      "outputs": [
        {
          "name": "",
          "type": "bool"
        }
      ],
      "payable": false,
      "stateMutability": "nonpayable",
      "type": "function"
    },
    {
      "constant": false,
      "inputs": [
        {
          "name": "chapter",
          "type": "uint256"
        },
        {
          "name": "index",
          "type": "uint256"
        }
      ],
      "name": "cancelOrder",
      "outputs": [
        {
          "name": "accepted",
          "type": "bool"
        }
      ],
      "payable": false,
      "stateMutability": "nonpayable",
      "type": "function"
    },
    {
      "constant": true,
      "inputs": [],
      "name": "params",
      "outputs": [
        {
          "name": "closureFeePerUnit",
          "type": "uint256"
        },
        {
          "name": "cancelFeePerUnit",
          "type": "uint256"
        },
        {
          "name": "cleanSize",
          "type": "uint256"
        },
        {
          "name": "minerShare",
          "type": "uint256"
        },
        {
          "name": "distBalance",
          "type": "uint256"
        }
      ],
      "payable": false,
      "stateMutability": "view",
      "type": "function"
    },
    {
      "constant": false,
      "inputs": [
        {
          "name": "_spender",
          "type": "address"
        },
        {
          "name": "_addedValue",
          "type": "uint256"
        }
      ],
      "name": "increaseApproval",
      "outputs": [
        {
          "name": "",
          "type": "bool"
        }
      ],
      "payable": false,
      "stateMutability": "nonpayable",
      "type": "function"
    },
    {
      "constant": true,
      "inputs": [
        {
          "name": "_owner",
          "type": "address"
        },
        {
          "name": "_spender",
          "type": "address"
        }
      ],
      "name": "allowance",
      "outputs": [
        {
          "name": "",
          "type": "uint256"
        }
      ],
      "payable": false,
      "stateMutability": "view",
      "type": "function"
    },
    {
      "inputs": [
        {
          "name": "closureFeePerUnit",
          "type": "uint256"
        },
        {
          "name": "cancelFeePerUnit",
          "type": "uint256"
        },
        {
          "name": "cleanSize",
          "type": "uint256"
        },
        {
          "name": "minershare",
          "type": "uint256"
        },
        {
          "name": "distBalance",
          "type": "uint256"
        }
      ],
      "payable": false,
      "stateMutability": "nonpayable",
      "type": "constructor"
    },
    {
      "anonymous": false,
      "inputs": [
        {
          "indexed": false,
          "name": "ethAddress1",
          "type": "address"
        },
        {
          "indexed": false,
          "name": "ethAddress2",
          "type": "address"
        },
        {
          "indexed": false,
          "name": "firstAddress1",
          "type": "string"
        },
        {
          "indexed": false,
          "name": "firstAddress2",
          "type": "string"
        },
        {
          "indexed": false,
          "name": "otherAddress1",
          "type": "string"
        },
        {
          "indexed": false,
          "name": "otherAddress2",
          "type": "string"
        },
        {
          "indexed": false,
          "name": "mimRate",
          "type": "uint256"
        },
        {
          "indexed": false,
          "name": "ethVol",
          "type": "uint256"
        }
      ],
      "name": "TradeInfo",
      "type": "event"
    },
    {
      "anonymous": false,
      "inputs": [
        {
          "indexed": true,
          "name": "owner",
          "type": "address"
        },
        {
          "indexed": true,
          "name": "spender",
          "type": "address"
        },
        {
          "indexed": false,
          "name": "value",
          "type": "uint256"
        }
      ],
      "name": "Approval",
      "type": "event"
    },
    {
      "anonymous": false,
      "inputs": [
        {
          "indexed": true,
          "name": "from",
          "type": "address"
        },
        {
          "indexed": true,
          "name": "to",
          "type": "address"
        },
        {
          "indexed": false,
          "name": "value",
          "type": "uint256"
        }
      ],
      "name": "Transfer",
      "type": "event"
    }
  ],
  "bytecode": "0x60606040526040805190810160405280600b81526020017f56616c657820546f6b656e000000000000000000000000000000000000000000815250600d90805190602001906200005192919062000241565b506040805190810160405280600381526020017f564c580000000000000000000000000000000000000000000000000000000000815250600e90805190602001906200009f92919062000241565b506012600f60006101000a81548160ff021916908360ff160217905550600f60009054906101000a900460ff1660ff16600a0a612710026010553415620000e557600080fd5b60405160a080620030f48339810160405280805190602001909190805190602001909190805190602001909190805190602001909190805190602001909190505084848484846200014e8585858585620001f86401000000000262002d50176401000000009004565b506200016d620002386401000000000262002d90176401000000009004565b50600c8054806001018281620001849190620002c8565b9160005260206000209001600080909190915055505050505050601054600081905550601054600160003373ffffffffffffffffffffffffffffffffffffffff1673ffffffffffffffffffffffffffffffffffffffff1681526020019081526020016000208190555050505050506200031f565b6000856003600001819055508460036001018190555083600360020181905550826003800181905550816003600401819055506001905095945050505050565b60006001905090565b828054600181600116156101000203166002900490600052602060002090601f016020900481019282601f106200028457805160ff1916838001178555620002b5565b82800160010185558215620002b5579182015b82811115620002b457825182559160200191906001019062000297565b5b509050620002c49190620002f7565b5090565b815481835581811511620002f257818360005260206000209182019101620002f19190620002f7565b5b505050565b6200031c91905b8082111562000318576000816000905550600101620002fe565b5090565b90565b612dc5806200032f6000396000f3006060604052600436106100fc576000357c0100000000000000000000000000000000000000000000000000000000900463ffffffff16806306fdde0314610101578063095ea7b31461018f57806314974f46146101e957806318160ddd1461024257806323b872dd1461026b578063313ce567146102e4578063378dc3dc146103135780634aed275c1461033c5780635a1f639314610437578063661884631461048f57806370a08231146104e9578063737f02af1461053657806395d89b4114610566578063a9059cbb146105f4578063b6ed06321461064e578063cff0ab9614610692578063d73dd623146106d7578063dd62ed3e14610731575b600080fd5b341561010c57600080fd5b61011461079d565b6040518080602001828103825283818151815260200191508051906020019080838360005b83811015610154578082015181840152602081019050610139565b50505050905090810190601f1680156101815780820380516001836020036101000a031916815260200191505b509250505060405180910390f35b341561019a57600080fd5b6101cf600480803573ffffffffffffffffffffffffffffffffffffffff1690602001909190803590602001909190505061083b565b604051808215151515815260200191505060405180910390f35b34156101f457600080fd5b610213600480803590602001909190803590602001909190505061092d565b604051808515151515815260200184815260200183815260200182815260200194505050505060405180910390f35b341561024d57600080fd5b610255610986565b6040518082815260200191505060405180910390f35b341561027657600080fd5b6102ca600480803573ffffffffffffffffffffffffffffffffffffffff1690602001909190803573ffffffffffffffffffffffffffffffffffffffff1690602001909190803590602001909190505061098c565b604051808215151515815260200191505060405180910390f35b34156102ef57600080fd5b6102f7610d4b565b604051808260ff1660ff16815260200191505060405180910390f35b341561031e57600080fd5b610326610d5e565b6040518082815260200191505060405180910390f35b61041d6004808035151590602001909190803590602001909190803590602001909190803590602001909190803573ffffffffffffffffffffffffffffffffffffffff1690602001909190803590602001908201803590602001908080601f0160208091040260200160405190810160405280939291908181526020018383808284378201915050505050509190803590602001908201803590602001908080601f01602080910402602001604051908101604052809392919081815260200183838082843782019150505050505091908035906020019091905050610d64565b604051808215151515815260200191505060405180910390f35b610475600480803590602001909190803590602001909190803590602001909190803560001916906020019091908035906020019091905050610f7a565b604051808215151515815260200191505060405180910390f35b341561049a57600080fd5b6104cf600480803573ffffffffffffffffffffffffffffffffffffffff16906020019091908035906020019091905050611063565b604051808215151515815260200191505060405180910390f35b34156104f457600080fd5b610520600480803573ffffffffffffffffffffffffffffffffffffffff169060200190919050506112f4565b6040518082815260200191505060405180910390f35b341561054157600080fd5b61054961133d565b604051808381526020018281526020019250505060405180910390f35b341561057157600080fd5b61057961134f565b6040518080602001828103825283818151815260200191508051906020019080838360005b838110156105b957808201518184015260208101905061059e565b50505050905090810190601f1680156105e65780820380516001836020036101000a031916815260200191505b509250505060405180910390f35b34156105ff57600080fd5b610634600480803573ffffffffffffffffffffffffffffffffffffffff169060200190919080359060200190919050506113ed565b604051808215151515815260200191505060405180910390f35b341561065957600080fd5b6106786004808035906020019091908035906020019091905050611611565b604051808215151515815260200191505060405180910390f35b341561069d57600080fd5b6106a561193d565b604051808681526020018581526020018481526020018381526020018281526020019550505050505060405180910390f35b34156106e257600080fd5b610717600480803573ffffffffffffffffffffffffffffffffffffffff16906020019091908035906020019091905050611961565b604051808215151515815260200191505060405180910390f35b341561073c57600080fd5b610787600480803573ffffffffffffffffffffffffffffffffffffffff1690602001909190803573ffffffffffffffffffffffffffffffffffffffff16906020019091905050611b5d565b6040518082815260200191505060405180910390f35b600d8054600181600116156101000203166002900480601f0160208091040260200160405190810160405280929190818152602001828054600181600116156101000203166002900480156108335780601f1061080857610100808354040283529160200191610833565b820191906000526020600020905b81548152906001019060200180831161081657829003601f168201915b505050505081565b600081600260003373ffffffffffffffffffffffffffffffffffffffff1673ffffffffffffffffffffffffffffffffffffffff16815260200190815260200160002060008573ffffffffffffffffffffffffffffffffffffffff1673ffffffffffffffffffffffffffffffffffffffff168152602001908152602001600020819055508273ffffffffffffffffffffffffffffffffffffffff163373ffffffffffffffffffffffffffffffffffffffff167f8c5be1e5ebec7d5bd14f71427d1e84f3dd0314c0f7b2291e5b200ac8c7c3b925846040518082815260200191505060405180910390a36001905092915050565b600a6020528160005260406000208181548110151561094857fe5b9060005260206000209060040201600091509150508060000160009054906101000a900460ff16908060010154908060020154908060030154905084565b60005481565b60008073ffffffffffffffffffffffffffffffffffffffff168373ffffffffffffffffffffffffffffffffffffffff16141515156109c957600080fd5b600160008573ffffffffffffffffffffffffffffffffffffffff1673ffffffffffffffffffffffffffffffffffffffff168152602001908152602001600020548211151515610a1757600080fd5b600260008573ffffffffffffffffffffffffffffffffffffffff1673ffffffffffffffffffffffffffffffffffffffff16815260200190815260200160002060003373ffffffffffffffffffffffffffffffffffffffff1673ffffffffffffffffffffffffffffffffffffffff168152602001908152602001600020548211151515610aa257600080fd5b610af482600160008773ffffffffffffffffffffffffffffffffffffffff1673ffffffffffffffffffffffffffffffffffffffff16815260200190815260200160002054611be490919063ffffffff16565b600160008673ffffffffffffffffffffffffffffffffffffffff1673ffffffffffffffffffffffffffffffffffffffff16815260200190815260200160002081905550610b8982600160008673ffffffffffffffffffffffffffffffffffffffff1673ffffffffffffffffffffffffffffffffffffffff16815260200190815260200160002054611bfd90919063ffffffff16565b600160008573ffffffffffffffffffffffffffffffffffffffff1673ffffffffffffffffffffffffffffffffffffffff16815260200190815260200160002081905550610c5b82600260008773ffffffffffffffffffffffffffffffffffffffff1673ffffffffffffffffffffffffffffffffffffffff16815260200190815260200160002060003373ffffffffffffffffffffffffffffffffffffffff1673ffffffffffffffffffffffffffffffffffffffff16815260200190815260200160002054611be490919063ffffffff16565b600260008673ffffffffffffffffffffffffffffffffffffffff1673ffffffffffffffffffffffffffffffffffffffff16815260200190815260200160002060003373ffffffffffffffffffffffffffffffffffffffff1673ffffffffffffffffffffffffffffffffffffffff168152602001908152602001600020819055508273ffffffffffffffffffffffffffffffffffffffff168473ffffffffffffffffffffffffffffffffffffffff167fddf252ad1be2c89b69c2b068fc378daa952ba7f163c4a11628f55a4df523b3ef846040518082815260200191505060405180910390a3600190509392505050565b600f60009054906101000a900460ff1681565b60105481565b60008088111515610d7457600080fd5b600087111515610d8357600080fd5b868810151515610d9257600080fd5b600086111515610da157600080fd5b8815610dc457600360000154880234870210151515610dbf57600080fd5b610ddb565b60036000015488023410151515610dda57600080fd5b5b600a60008381526020019081526020016000208054806001018281610e009190612af1565b916000526020600020906004020160006080604051908101604052808d151581526020018c81526020018b81526020018a815250909190915060008201518160000160006101000a81548160ff021916908315150217905550602082015181600101556040820151816002015560608201518160030155505050600b60008381526020019081526020016000208054806001018281610e9f9190612b23565b916000526020600020906003020160006060604051908101604052808973ffffffffffffffffffffffffffffffffffffffff16815260200188815260200187815250909190915060008201518160000160006101000a81548173ffffffffffffffffffffffffffffffffffffffff021916908373ffffffffffffffffffffffffffffffffffffffff1602179055506020820151816001019080519060200190610f49929190612b55565b506040820151816002019080519060200190610f66929190612b55565b505050506001905098975050505050505050565b600080600080610f8e338a8a8a8a8a611c1b565b1515610f9d5760009350611057565b610fa8898989611cb6565b925092506000821415610fbe5760009350611057565b670de0b6b3a76400008260036000015460038001540202811515610fde57fe5b0490503373ffffffffffffffffffffffffffffffffffffffff166108fc829081150290604051600060405180830381858888f19350505050151561102157600080fd5b61102b8183611f27565b506110398989898686611f82565b5061104789898986866123c2565b506110518961272e565b50600193505b50505095945050505050565b600080600260003373ffffffffffffffffffffffffffffffffffffffff1673ffffffffffffffffffffffffffffffffffffffff16815260200190815260200160002060008573ffffffffffffffffffffffffffffffffffffffff1673ffffffffffffffffffffffffffffffffffffffff16815260200190815260200160002054905080831115611174576000600260003373ffffffffffffffffffffffffffffffffffffffff1673ffffffffffffffffffffffffffffffffffffffff16815260200190815260200160002060008673ffffffffffffffffffffffffffffffffffffffff1673ffffffffffffffffffffffffffffffffffffffff16815260200190815260200160002081905550611208565b6111878382611be490919063ffffffff16565b600260003373ffffffffffffffffffffffffffffffffffffffff1673ffffffffffffffffffffffffffffffffffffffff16815260200190815260200160002060008673ffffffffffffffffffffffffffffffffffffffff1673ffffffffffffffffffffffffffffffffffffffff168152602001908152602001600020819055505b8373ffffffffffffffffffffffffffffffffffffffff163373ffffffffffffffffffffffffffffffffffffffff167f8c5be1e5ebec7d5bd14f71427d1e84f3dd0314c0f7b2291e5b200ac8c7c3b925600260003373ffffffffffffffffffffffffffffffffffffffff1673ffffffffffffffffffffffffffffffffffffffff16815260200190815260200160002060008873ffffffffffffffffffffffffffffffffffffffff1673ffffffffffffffffffffffffffffffffffffffff168152602001908152602001600020546040518082815260200191505060405180910390a3600191505092915050565b6000600160008373ffffffffffffffffffffffffffffffffffffffff1673ffffffffffffffffffffffffffffffffffffffff168152602001908152602001600020549050919050565b60088060000154908060010154905082565b600e8054600181600116156101000203166002900480601f0160208091040260200160405190810160405280929190818152602001828054600181600116156101000203166002900480156113e55780601f106113ba576101008083540402835291602001916113e5565b820191906000526020600020905b8154815290600101906020018083116113c857829003601f168201915b505050505081565b60008073ffffffffffffffffffffffffffffffffffffffff168373ffffffffffffffffffffffffffffffffffffffff161415151561142a57600080fd5b600160003373ffffffffffffffffffffffffffffffffffffffff1673ffffffffffffffffffffffffffffffffffffffff16815260200190815260200160002054821115151561147857600080fd5b6114ca82600160003373ffffffffffffffffffffffffffffffffffffffff1673ffffffffffffffffffffffffffffffffffffffff16815260200190815260200160002054611be490919063ffffffff16565b600160003373ffffffffffffffffffffffffffffffffffffffff1673ffffffffffffffffffffffffffffffffffffffff1681526020019081526020016000208190555061155f82600160008673ffffffffffffffffffffffffffffffffffffffff1673ffffffffffffffffffffffffffffffffffffffff16815260200190815260200160002054611bfd90919063ffffffff16565b600160008573ffffffffffffffffffffffffffffffffffffffff1673ffffffffffffffffffffffffffffffffffffffff168152602001908152602001600020819055508273ffffffffffffffffffffffffffffffffffffffff163373ffffffffffffffffffffffffffffffffffffffff167fddf252ad1be2c89b69c2b068fc378daa952ba7f163c4a11628f55a4df523b3ef846040518082815260200191505060405180910390a36001905092915050565b6000806000600a6000868152602001908152602001600020805490508410151561163a57600080fd5b600b60008681526020019081526020016000208481548110151561165a57fe5b906000526020600020906003020160000160009054906101000a900473ffffffffffffffffffffffffffffffffffffffff1673ffffffffffffffffffffffffffffffffffffffff163373ffffffffffffffffffffffffffffffffffffffff161415156116c557600080fd5b600a6000868152602001908152602001600020848154811015156116e557fe5b9060005260206000209060040201600301549150600a60008681526020019081526020016000208481548110151561171957fe5b9060005260206000209060040201600101549050600a60008681526020019081526020016000208481548110151561174d57fe5b906000526020600020906004020160000160009054906101000a900460ff16156117cf573373ffffffffffffffffffffffffffffffffffffffff166108fc836003600101546003600001540384028115156117a457fe5b049081150290604051600060405180830381858888f1935050505015156117ca57600080fd5b611829565b3373ffffffffffffffffffffffffffffffffffffffff166108fc8360036001015460036000015403840281151561180257fe5b049081150290604051600060405180830381858888f19350505050151561182857600080fd5b5b600a60008681526020019081526020016000208481548110151561184957fe5b9060005260206000209060040201600080820160006101000a81549060ff02191690556001820160009055600282016000905560038201600090555050600b6000868152602001908152602001600020848154811015156118a657fe5b9060005260206000209060030201600080820160006101000a81549073ffffffffffffffffffffffffffffffffffffffff02191690556001820160006118ec9190612bd5565b6002820160006118fc9190612bd5565b50506001600c8681548110151561190f57fe5b9060005260206000209001600082825401925050819055506119308561272e565b5060019250505092915050565b60038060000154908060010154908060020154908060030154908060040154905085565b60006119f282600260003373ffffffffffffffffffffffffffffffffffffffff1673ffffffffffffffffffffffffffffffffffffffff16815260200190815260200160002060008673ffffffffffffffffffffffffffffffffffffffff1673ffffffffffffffffffffffffffffffffffffffff16815260200190815260200160002054611bfd90919063ffffffff16565b600260003373ffffffffffffffffffffffffffffffffffffffff1673ffffffffffffffffffffffffffffffffffffffff16815260200190815260200160002060008573ffffffffffffffffffffffffffffffffffffffff1673ffffffffffffffffffffffffffffffffffffffff168152602001908152602001600020819055508273ffffffffffffffffffffffffffffffffffffffff163373ffffffffffffffffffffffffffffffffffffffff167f8c5be1e5ebec7d5bd14f71427d1e84f3dd0314c0f7b2291e5b200ac8c7c3b925600260003373ffffffffffffffffffffffffffffffffffffffff1673ffffffffffffffffffffffffffffffffffffffff16815260200190815260200160002060008773ffffffffffffffffffffffffffffffffffffffff1673ffffffffffffffffffffffffffffffffffffffff168152602001908152602001600020546040518082815260200191505060405180910390a36001905092915050565b6000600260008473ffffffffffffffffffffffffffffffffffffffff1673ffffffffffffffffffffffffffffffffffffffff16815260200190815260200160002060008373ffffffffffffffffffffffffffffffffffffffff1673ffffffffffffffffffffffffffffffffffffffff16815260200190815260200160002054905092915050565b6000828211151515611bf257fe5b818303905092915050565b6000808284019050838110151515611c1157fe5b8091505092915050565b60008686868685604051808673ffffffffffffffffffffffffffffffffffffffff1673ffffffffffffffffffffffffffffffffffffffff166c01000000000000000000000000028152601401858152602001848152602001838152602001828152602001955050505050506040518091039020600019168360001916141515611ca75760009050611cac565b600190505b9695505050505050565b600080600080611cc4612c1d565b611ccc612c1d565b611cd7898989612978565b1515611cef5760008081915080905095509550611f1b565b600a60008a815260200190815260200160002088815481101515611d0f57fe5b906000526020600020906004020160000160009054906101000a900460ff1615611d3e57879350869250611d45565b8693508792505b600a60008a815260200190815260200160002084815481101515611d6557fe5b9060005260206000209060040201608060405190810160405290816000820160009054906101000a900460ff1615151515815260200160018201548152602001600282015481526020016003820154815250509150600a60008a815260200190815260200160002083815481101515611dda57fe5b9060005260206000209060040201608060405190810160405290816000820160009054906101000a900460ff1615151515815260200160018201548152602001600282015481526020016003820154815250509050806060015182606001511015611e515760008081915080905095509550611f1b565b60028160600151836060015101811515611e6757fe5b04955085816020015102670de0b6b3a76400008360200151021115611ec55785816020015102670de0b6b3a76400008360400151021115611eb45760008081915080905095509550611f1b565b858682602001510295509550611f1b565b670de0b6b3a7640000826020015102868260200151021115611f1057670de0b6b3a7640000826020015102868260400151021115611f0f5760008081915080905095509550611f1b565b5b858260200151955095505b50505050935093915050565b60008160036000015402600860000154036008600001819055508160036000015402836008600101540301600860010181905550600360040154600860010154101515611f7857611f76612ade565b505b6001905092915050565b60007f17fad608e647bf180e9f2d2542498a2ec81fb1cb077d60802b67b21d64adc9b8600b600088815260200190815260200160002086815481101515611fc557fe5b906000526020600020906003020160000160009054906101000a900473ffffffffffffffffffffffffffffffffffffffff16600b60008981526020019081526020016000208681548110151561201757fe5b906000526020600020906003020160000160009054906101000a900473ffffffffffffffffffffffffffffffffffffffff16600b60008a81526020019081526020016000208881548110151561206957fe5b9060005260206000209060030201600101600b60008b81526020019081526020016000208881548110151561209a57fe5b9060005260206000209060030201600101600b60008c81526020019081526020016000208a8154811015156120cb57fe5b9060005260206000209060030201600201600b60008d81526020019081526020016000208a8154811015156120fc57fe5b90600052602060002090600302016002018989604051808973ffffffffffffffffffffffffffffffffffffffff1673ffffffffffffffffffffffffffffffffffffffff1681526020018873ffffffffffffffffffffffffffffffffffffffff1673ffffffffffffffffffffffffffffffffffffffff1681526020018060200180602001806020018060200187815260200186815260200185810385528b8181546001816001161561010002031660029004815260200191508054600181600116156101000203166002900480156122145780601f106121e957610100808354040283529160200191612214565b820191906000526020600020905b8154815290600101906020018083116121f757829003601f168201915b505085810384528a8181546001816001161561010002031660029004815260200191508054600181600116156101000203166002900480156122975780601f1061226c57610100808354040283529160200191612297565b820191906000526020600020905b81548152906001019060200180831161227a57829003601f168201915b505085810383528981815460018160011615610100020316600290048152602001915080546001816001161561010002031660029004801561231a5780601f106122ef5761010080835404028352916020019161231a565b820191906000526020600020905b8154815290600101906020018083116122fd57829003601f168201915b505085810382528881815460018160011615610100020316600290048152602001915080546001816001161561010002031660029004801561239d5780601f106123725761010080835404028352916020019161239d565b820191906000526020600020905b81548152906001019060200180831161238057829003601f168201915b50509c5050505050505050505050505060405180910390a16001905095945050505050565b6000806000600a6000898152602001908152602001600020878154811015156123e757fe5b906000526020600020906004020160000160009054906101000a900460ff16156124165786915085905061241d565b8591508690505b83600a60008a81526020019081526020016000208381548110151561243e57fe5b9060005260206000209060040201600101541415612480576001600c8981548110151561246757fe5b9060005260206000209001600082825401925050819055505b83600a60008a8152602001908152602001600020838154811015156124a157fe5b90600052602060002090600402016002015410156124f5576000600a60008a8152602001908152602001600020838154811015156124db57fe5b906000526020600020906004020160020181905550612535565b83600a60008a81526020019081526020016000208381548110151561251657fe5b9060005260206000209060040201600201600082825403925050819055505b83600a60008a81526020019081526020016000208381548110151561255657fe5b906000526020600020906004020160010160008282540392505081905550670de0b6b3a764000085850281151561258957fe5b04600a60008a8152602001908152602001600020828154811015156125aa57fe5b90600052602060002090600402016001015414156125ec576001600c898154811015156125d357fe5b9060005260206000209001600082825401925050819055505b670de0b6b3a764000085850281151561260157fe5b04600a60008a81526020019081526020016000208281548110151561262257fe5b9060005260206000209060040201600201541015612676576000600a60008a81526020019081526020016000208281548110151561265c57fe5b9060005260206000209060040201600201819055506126cb565b670de0b6b3a764000085850281151561268b57fe5b04600a60008a8152602001908152602001600020828154811015156126ac57fe5b9060005260206000209060040201600201600082825403925050819055505b670de0b6b3a76400008585028115156126e057fe5b04600a60008a81526020019081526020016000208281548110151561270157fe5b90600052602060002090600402016001016000828254039250508190555060019250505095945050505050565b600080600360020154600c8481548110151561274657fe5b90600052602060002090015410156127615760009150612972565b600090505b600a6000848152602001908152602001600020805490508110156128fb576000600a6000858152602001908152602001600020828154811015156127a657fe5b90600052602060002090600402016001015414156128ee576001600a600085815260200190815260200160002080549050038110156128ed57600a60008481526020019081526020016000206001820181548110151561280257fe5b9060005260206000209060040201600a60008581526020019081526020016000208281548110151561283057fe5b90600052602060002090600402016000820160009054906101000a900460ff168160000160006101000a81548160ff021916908315150217905550600182015481600101556002820154816002015560038201548160030155905050600a6000848152602001908152602001600020600182018154811015156128af57fe5b9060005260206000209060040201600080820160006101000a81549060ff021916905560018201600090556002820160009055600382016000905550505b5b8080600101915050612766565b600c8381548110151561290a57fe5b906000526020600020900154600a60008581526020019081526020016000208054905003600a60008581526020019081526020016000208161294c9190612c48565b506000600c8481548110151561295e57fe5b906000526020600020900181905550600191505b50919050565b6000600a6000858152602001908152602001600020805490508310151561299e57600080fd5b600a600085815260200190815260200160002080549050821015156129c257600080fd5b600a6000858152602001908152602001600020828154811015156129e257fe5b906000526020600020906004020160000160009054906101000a900460ff161515600a600086815260200190815260200160002084815481101515612a2357fe5b906000526020600020906004020160000160009054906101000a900460ff16151514151515612a5157600080fd5b6000600a600086815260200190815260200160002084815481101515612a7357fe5b90600052602060002090600402016001015414151515612a9257600080fd5b6000600a600086815260200190815260200160002083815481101515612ab457fe5b90600052602060002090600402016001015414151515612ad357600080fd5b600190509392505050565b6000806008600101819055506001905090565b815481835581811511612b1e57600402816004028360005260206000209182019101612b1d9190612c7a565b5b505050565b815481835581811511612b5057600302816003028360005260206000209182019101612b4f9190612cc5565b5b505050565b828054600181600116156101000203166002900490600052602060002090601f016020900481019282601f10612b9657805160ff1916838001178555612bc4565b82800160010185558215612bc4579182015b82811115612bc3578251825591602001919060010190612ba8565b5b509050612bd19190612d2b565b5090565b50805460018160011615610100020316600290046000825580601f10612bfb5750612c1a565b601f016020900490600052602060002090810190612c199190612d2b565b5b50565b6080604051908101604052806000151581526020016000815260200160008152602001600081525090565b815481835581811511612c7557600402816004028360005260206000209182019101612c749190612c7a565b5b505050565b612cc291905b80821115612cbe57600080820160006101000a81549060ff021916905560018201600090556002820160009055600382016000905550600401612c80565b5090565b90565b612d2891905b80821115612d2457600080820160006101000a81549073ffffffffffffffffffffffffffffffffffffffff0219169055600182016000612d0b9190612bd5565b600282016000612d1b9190612bd5565b50600301612ccb565b5090565b90565b612d4d91905b80821115612d49576000816000905550600101612d31565b5090565b90565b6000856003600001819055508460036001018190555083600360020181905550826003800181905550816003600401819055506001905095945050505050565b600060019050905600a165627a7a72305820dd8e85dd029a866ab2d9cb21d21c0e560dfc7db2001dc31c965696def6d5fa110029",
  "source": "pragma solidity ^0.4.18;\n\nimport 'zeppelin-solidity/contracts/math/SafeMath.sol';\nimport 'zeppelin-solidity/contracts/token/StandardToken.sol';\nimport './Exchange.sol';\n\n\n/// @title ValexToken\n/// @author Karim Helmy\n\n// Parts sourced from https://github.com/bokkypoobah/Tokens/blob/master/contracts/FixedSupplyToken.sol\n\n// ----------------------------------------------------------------------------\n// 'VLX' 'Valex Token' token contract\n//\n// Symbol      : VLX\n// Name        : Valex Token\n// Total supply: 1,000,000.000000000000000000\n// Decimals    : 18\n//\n// ----------------------------------------------------------------------------\n\n// ----------------------------------------------------------------------------\n// ERC20 Token, with the addition of symbol, name and decimals and an\n// initial fixed supply\n// ----------------------------------------------------------------------------\ncontract ValexToken is StandardToken, Exchange {\n    using SafeMath for uint;\n\n    // mapping(address => mapping(address => uint)) public allowed;\n\n    string public name = \"Valex Token\";\n    string public symbol = \"VLX\";\n    uint8 public decimals = 18;\n\n    // mapping(address => uint256) balances;\n\n    uint256 public initialSupply = 10000 * (10 ** uint256(decimals));\n\n    /**\n     * @dev Constructor that gives msg.sender all of existing tokens.\n     * @dev Initializes token to have same parameters as exchange\n     */\n    function ValexToken(uint closureFeePerUnit, uint cancelFeePerUnit,\n                      uint cleanSize, uint minershare, uint distBalance)\n      Exchange(closureFeePerUnit, cancelFeePerUnit,\n              cleanSize, minershare, distBalance)\n      public\n    {\n      totalSupply = initialSupply;\n      balances[msg.sender] = initialSupply;\n    }\n    //TODO: Implement voting/parameter modification\n\n}\n",
  "sourcePath": "/Users/Karim/Desktop/Valex/contracts/ValexToken.sol",
  "compiler": {
    "name": "solc",
    "version": "0.4.18+commit.9cf6e910.Emscripten.clang"
  },
  "schemaVersion": "1.0.1",
  "updatedAt": "2018-01-24T02:16:00.366Z"
}