{
  "contractName": "ValexToken",
  "abi": [
    {
      "constant": true,
      "inputs": [],
      "name": "name",
      "outputs": [
        {
          "name": "",
          "type": "string"
        }
      ],
      "payable": false,
      "stateMutability": "view",
      "type": "function"
    },
    {
      "constant": false,
      "inputs": [
        {
          "name": "_spender",
          "type": "address"
        },
        {
          "name": "_value",
          "type": "uint256"
        }
      ],
      "name": "approve",
      "outputs": [
        {
          "name": "",
          "type": "bool"
        }
      ],
      "payable": false,
      "stateMutability": "nonpayable",
      "type": "function"
    },
    {
      "constant": true,
      "inputs": [
        {
          "name": "",
          "type": "uint256"
        },
        {
          "name": "",
          "type": "uint256"
        },
        {
          "name": "",
          "type": "uint256"
        }
      ],
      "name": "secondAddressBook",
      "outputs": [
        {
          "name": "",
          "type": "bytes32"
        }
      ],
      "payable": false,
      "stateMutability": "view",
      "type": "function"
    },
    {
      "constant": true,
      "inputs": [
        {
          "name": "chapter",
          "type": "uint256"
        }
      ],
      "name": "getSecondAddressChapter",
      "outputs": [
        {
          "name": "secondAddressChapter",
          "type": "bytes32[2][]"
        }
      ],
      "payable": false,
      "stateMutability": "view",
      "type": "function"
    },
    {
      "constant": true,
      "inputs": [],
      "name": "totalSupply",
      "outputs": [
        {
          "name": "",
          "type": "uint256"
        }
      ],
      "payable": false,
      "stateMutability": "view",
      "type": "function"
    },
    {
      "constant": false,
      "inputs": [
        {
          "name": "_from",
          "type": "address"
        },
        {
          "name": "_to",
          "type": "address"
        },
        {
          "name": "_value",
          "type": "uint256"
        }
      ],
      "name": "transferFrom",
      "outputs": [
        {
          "name": "",
          "type": "bool"
        }
      ],
      "payable": false,
      "stateMutability": "nonpayable",
      "type": "function"
    },
    {
      "constant": true,
      "inputs": [],
      "name": "decimals",
      "outputs": [
        {
          "name": "",
          "type": "uint8"
        }
      ],
      "payable": false,
      "stateMutability": "view",
      "type": "function"
    },
    {
      "constant": true,
      "inputs": [
        {
          "name": "",
          "type": "uint256"
        },
        {
          "name": "",
          "type": "uint256"
        },
        {
          "name": "",
          "type": "uint256"
        }
      ],
      "name": "firstAddressBook",
      "outputs": [
        {
          "name": "",
          "type": "bytes32"
        }
      ],
      "payable": false,
      "stateMutability": "view",
      "type": "function"
    },
    {
      "constant": true,
      "inputs": [],
      "name": "initialSupply",
      "outputs": [
        {
          "name": "",
          "type": "uint256"
        }
      ],
      "payable": false,
      "stateMutability": "view",
      "type": "function"
    },
    {
      "constant": true,
      "inputs": [
        {
          "name": "",
          "type": "uint256"
        },
        {
          "name": "",
          "type": "uint256"
        }
      ],
      "name": "buyBook",
      "outputs": [
        {
          "name": "",
          "type": "bool"
        }
      ],
      "payable": false,
      "stateMutability": "view",
      "type": "function"
    },
    {
      "constant": true,
      "inputs": [
        {
          "name": "chapter",
          "type": "uint256"
        }
      ],
      "name": "getOrderChapter",
      "outputs": [
        {
          "name": "buyChapter",
          "type": "bool[]"
        },
        {
          "name": "volChapter",
          "type": "uint256[]"
        },
        {
          "name": "minVolChapter",
          "type": "uint256[]"
        },
        {
          "name": "limitChapter",
          "type": "uint256[]"
        }
      ],
      "payable": false,
      "stateMutability": "view",
      "type": "function"
    },
    {
      "constant": true,
      "inputs": [],
      "name": "threshold",
      "outputs": [
        {
          "name": "",
          "type": "uint256"
        }
      ],
      "payable": false,
      "stateMutability": "view",
      "type": "function"
    },
    {
      "constant": false,
      "inputs": [
        {
          "name": "buyETH",
          "type": "bool"
        },
        {
          "name": "volume",
          "type": "uint256"
        },
        {
          "name": "minVolume",
          "type": "uint256"
        },
        {
          "name": "limit",
          "type": "uint256"
        },
        {
          "name": "ethAddress",
          "type": "address"
        },
        {
          "name": "firstAddress",
          "type": "bytes32[2]"
        },
        {
          "name": "otherAddress",
          "type": "bytes32[2]"
        },
        {
          "name": "chapter",
          "type": "uint256"
        }
      ],
      "name": "placeOrder",
      "outputs": [
        {
          "name": "accepted",
          "type": "bool"
        }
      ],
      "payable": true,
      "stateMutability": "payable",
      "type": "function"
    },
    {
      "constant": true,
      "inputs": [
        {
          "name": "",
          "type": "uint256"
        },
        {
          "name": "",
          "type": "uint256"
        }
      ],
      "name": "ethAddressBook",
      "outputs": [
        {
          "name": "",
          "type": "address"
        }
      ],
      "payable": false,
      "stateMutability": "view",
      "type": "function"
    },
    {
      "constant": false,
      "inputs": [
        {
          "name": "_spender",
          "type": "address"
        },
        {
          "name": "_subtractedValue",
          "type": "uint256"
        }
      ],
      "name": "decreaseApproval",
      "outputs": [
        {
          "name": "",
          "type": "bool"
        }
      ],
      "payable": false,
      "stateMutability": "nonpayable",
      "type": "function"
    },
    {
      "constant": false,
      "inputs": [
        {
          "name": "desiredParam",
          "type": "uint256"
        }
      ],
      "name": "voteMinerShare",
      "outputs": [],
      "payable": false,
      "stateMutability": "nonpayable",
      "type": "function"
    },
    {
      "constant": true,
      "inputs": [
        {
          "name": "_owner",
          "type": "address"
        }
      ],
      "name": "balanceOf",
      "outputs": [
        {
          "name": "balance",
          "type": "uint256"
        }
      ],
      "payable": false,
      "stateMutability": "view",
      "type": "function"
    },
    {
      "constant": true,
      "inputs": [
        {
          "name": "",
          "type": "uint256"
        },
        {
          "name": "",
          "type": "uint256"
        }
      ],
      "name": "limitBook",
      "outputs": [
        {
          "name": "",
          "type": "uint256"
        }
      ],
      "payable": false,
      "stateMutability": "view",
      "type": "function"
    },
    {
      "constant": true,
      "inputs": [],
      "name": "DISTTIME",
      "outputs": [
        {
          "name": "",
          "type": "uint256"
        }
      ],
      "payable": false,
      "stateMutability": "view",
      "type": "function"
    },
    {
      "constant": true,
      "inputs": [
        {
          "name": "chapter",
          "type": "uint256"
        },
        {
          "name": "index1",
          "type": "uint256"
        },
        {
          "name": "index2",
          "type": "uint256"
        }
      ],
      "name": "calcRateAndVol",
      "outputs": [
        {
          "name": "mimRate",
          "type": "uint256"
        },
        {
          "name": "ethVol",
          "type": "uint256"
        }
      ],
      "payable": false,
      "stateMutability": "view",
      "type": "function"
    },
    {
      "constant": true,
      "inputs": [],
      "name": "openBalance",
      "outputs": [
        {
          "name": "",
          "type": "uint256"
        }
      ],
      "payable": false,
      "stateMutability": "view",
      "type": "function"
    },
    {
      "constant": true,
      "inputs": [],
      "name": "symbol",
      "outputs": [
        {
          "name": "",
          "type": "string"
        }
      ],
      "payable": false,
      "stateMutability": "view",
      "type": "function"
    },
    {
      "constant": true,
      "inputs": [
        {
          "name": "",
          "type": "uint256"
        },
        {
          "name": "",
          "type": "uint256"
        }
      ],
      "name": "minVolBook",
      "outputs": [
        {
          "name": "",
          "type": "uint256"
        }
      ],
      "payable": false,
      "stateMutability": "view",
      "type": "function"
    },
    {
      "constant": false,
      "inputs": [
        {
          "name": "_to",
          "type": "address"
        },
        {
          "name": "_value",
          "type": "uint256"
        }
      ],
      "name": "transfer",
      "outputs": [
        {
          "name": "",
          "type": "bool"
        }
      ],
      "payable": false,
      "stateMutability": "nonpayable",
      "type": "function"
    },
    {
      "constant": true,
      "inputs": [],
      "name": "PRECISION",
      "outputs": [
        {
          "name": "",
          "type": "uint256"
        }
      ],
      "payable": false,
      "stateMutability": "view",
      "type": "function"
    },
    {
      "constant": false,
      "inputs": [
        {
          "name": "desiredParam",
          "type": "uint256"
        }
      ],
      "name": "voteCleanSize",
      "outputs": [],
      "payable": false,
      "stateMutability": "nonpayable",
      "type": "function"
    },
    {
      "constant": true,
      "inputs": [],
      "name": "lastDist",
      "outputs": [
        {
          "name": "",
          "type": "uint256"
        }
      ],
      "payable": false,
      "stateMutability": "view",
      "type": "function"
    },
    {
      "constant": false,
      "inputs": [
        {
          "name": "chapter",
          "type": "uint256"
        },
        {
          "name": "index",
          "type": "uint256"
        }
      ],
      "name": "cancelOrder",
      "outputs": [
        {
          "name": "accepted",
          "type": "bool"
        }
      ],
      "payable": false,
      "stateMutability": "nonpayable",
      "type": "function"
    },
    {
      "constant": false,
      "inputs": [
        {
          "name": "desiredParam",
          "type": "uint256"
        }
      ],
      "name": "voteClosureFee",
      "outputs": [],
      "payable": false,
      "stateMutability": "nonpayable",
      "type": "function"
    },
    {
      "constant": false,
      "inputs": [
        {
          "name": "desiredParam",
          "type": "uint256"
        }
      ],
      "name": "voteCancelFee",
      "outputs": [],
      "payable": false,
      "stateMutability": "nonpayable",
      "type": "function"
    },
    {
      "constant": true,
      "inputs": [],
      "name": "params",
      "outputs": [
        {
          "name": "closureFee",
          "type": "uint256"
        },
        {
          "name": "cancelFee",
          "type": "uint256"
        },
        {
          "name": "cleanSize",
          "type": "uint256"
        },
        {
          "name": "minerShare",
          "type": "uint256"
        },
        {
          "name": "difficulty",
          "type": "bytes32"
        }
      ],
      "payable": false,
      "stateMutability": "view",
      "type": "function"
    },
    {
      "constant": false,
      "inputs": [
        {
          "name": "depositAddress",
          "type": "address"
        },
        {
          "name": "chapter",
          "type": "uint256"
        },
        {
          "name": "index1",
          "type": "uint256"
        },
        {
          "name": "index2",
          "type": "uint256"
        },
        {
          "name": "nonce",
          "type": "uint256"
        }
      ],
      "name": "giveMatch",
      "outputs": [
        {
          "name": "isValid",
          "type": "bool"
        }
      ],
      "payable": false,
      "stateMutability": "nonpayable",
      "type": "function"
    },
    {
      "constant": false,
      "inputs": [
        {
          "name": "_spender",
          "type": "address"
        },
        {
          "name": "_addedValue",
          "type": "uint256"
        }
      ],
      "name": "increaseApproval",
      "outputs": [
        {
          "name": "",
          "type": "bool"
        }
      ],
      "payable": false,
      "stateMutability": "nonpayable",
      "type": "function"
    },
    {
      "constant": true,
      "inputs": [
        {
          "name": "_owner",
          "type": "address"
        },
        {
          "name": "_spender",
          "type": "address"
        }
      ],
      "name": "allowance",
      "outputs": [
        {
          "name": "",
          "type": "uint256"
        }
      ],
      "payable": false,
      "stateMutability": "view",
      "type": "function"
    },
    {
      "constant": true,
      "inputs": [
        {
          "name": "chapter",
          "type": "uint256"
        }
      ],
      "name": "getETHAddressChapter",
      "outputs": [
        {
          "name": "ethAddressChapter",
          "type": "address[]"
        }
      ],
      "payable": false,
      "stateMutability": "view",
      "type": "function"
    },
    {
      "constant": true,
      "inputs": [
        {
          "name": "",
          "type": "uint256"
        },
        {
          "name": "",
          "type": "uint256"
        }
      ],
      "name": "volBook",
      "outputs": [
        {
          "name": "",
          "type": "uint256"
        }
      ],
      "payable": false,
      "stateMutability": "view",
      "type": "function"
    },
    {
      "constant": true,
      "inputs": [
        {
          "name": "chapter",
          "type": "uint256"
        }
      ],
      "name": "getFirstAddressChapter",
      "outputs": [
        {
          "name": "firstAddressChapter",
          "type": "bytes32[2][]"
        }
      ],
      "payable": false,
      "stateMutability": "view",
      "type": "function"
    },
    {
      "inputs": [
        {
          "name": "closureFee",
          "type": "uint256"
        },
        {
          "name": "cancelFee",
          "type": "uint256"
        },
        {
          "name": "cleanSize",
          "type": "uint256"
        },
        {
          "name": "minershare",
          "type": "uint256"
        },
        {
          "name": "difficulty",
          "type": "bytes32"
        }
      ],
      "payable": false,
      "stateMutability": "nonpayable",
      "type": "constructor"
    },
    {
      "anonymous": false,
      "inputs": [
        {
          "indexed": true,
          "name": "owner",
          "type": "address"
        },
        {
          "indexed": true,
          "name": "spender",
          "type": "address"
        },
        {
          "indexed": false,
          "name": "value",
          "type": "uint256"
        }
      ],
      "name": "Approval",
      "type": "event"
    },
    {
      "anonymous": false,
      "inputs": [
        {
          "indexed": true,
          "name": "from",
          "type": "address"
        },
        {
          "indexed": true,
          "name": "to",
          "type": "address"
        },
        {
          "indexed": false,
          "name": "value",
          "type": "uint256"
        }
      ],
      "name": "Transfer",
      "type": "event"
    },
    {
      "anonymous": false,
      "inputs": [
        {
          "indexed": false,
          "name": "ethAddress1",
          "type": "address"
        },
        {
          "indexed": false,
          "name": "ethAddress2",
          "type": "address"
        },
        {
          "indexed": false,
          "name": "firstAddress1",
          "type": "bytes32[2]"
        },
        {
          "indexed": false,
          "name": "firstAddress2",
          "type": "bytes32[2]"
        },
        {
          "indexed": false,
          "name": "otherAddress1",
          "type": "bytes32[2]"
        },
        {
          "indexed": false,
          "name": "otherAddress2",
          "type": "bytes32[2]"
        },
        {
          "indexed": false,
          "name": "mimRate",
          "type": "uint256"
        },
        {
          "indexed": false,
          "name": "ethVol",
          "type": "uint256"
        }
      ],
      "name": "TradeInfo",
      "type": "event"
    }
  ],
  "bytecode": "0x6060604052670de0b6b3a76400006000556249d4006001556000600255426003556040805190810160405280600b81526020017f56616c657820546f6b656e000000000000000000000000000000000000000000815250601490805190602001906200006d929190620004dd565b506040805190810160405280600381526020017f564c58000000000000000000000000000000000000000000000000000000000081525060159080519060200190620000bb929190620004dd565b506012601660006101000a81548160ff021916908360ff160217905550601660009054906101000a900460ff1660ff16600a0a61271002601755603360646017548115156200010657fe5b0402601d5534156200011757600080fd5b60405160a08062005631833981016040528080519060200190919080519060200190919080519060200190919080519060200190919080519060200190919050508484848484620001808585858585620002286401000000000262004c44176401000000009004565b6200019e620002646401000000000262004c80176401000000009004565b60108054806001018281620001b4919062000564565b9160005260206000209001600080909190915055505050505050601754601281905550601754601160003373ffffffffffffffffffffffffffffffffffffffff1673ffffffffffffffffffffffffffffffffffffffff1681526020019081526020016000208190555050505050506200070e565b84600460000181905550836004600101819055508260046002018190555081600460030181905550806004800181600019169055505050505050565b6009600080815260200190815260200160002080548060010182816200028b919062000593565b91600052602060002090602091828204019190066000909190916101000a81548160ff02191690831515021790555050600a60008081526020019081526020016000208054806001018281620002e2919062000564565b916000526020600020900160008090919091505550600b600080815260200190815260200160002080548060010182816200031e919062000564565b916000526020600020900160008090919091505550600c600080815260200190815260200160002080548060010182816200035a919062000564565b916000526020600020900160008090919091505550600d60008081526020019081526020016000208054806001018281620003969190620005d0565b9160005260206000209001600080909190916101000a81548173ffffffffffffffffffffffffffffffffffffffff021916908373ffffffffffffffffffffffffffffffffffffffff16021790555050600e600080815260200190815260200160002080548060010182816200040c9190620005ff565b9160005260206000209060020201600060408051908101604052806000600102600019166000191681526020016000600102600019166000191681525090919091509060026200045e92919062000634565b5050600f60008081526020019081526020016000208054806001018281620004879190620005ff565b916000526020600020906002020160006040805190810160405280600060010260001916600019168152602001600060010260001916600019168152509091909150906002620004d992919062000634565b5050565b828054600181600116156101000203166002900490600052602060002090601f016020900481019282601f106200052057805160ff191683800117855562000551565b8280016001018555821562000551579182015b828111156200055057825182559160200191906001019062000533565b5b5090506200056091906200067f565b5090565b8154818355818115116200058e578183600052602060002091820191016200058d91906200067f565b5b505050565b815481835581811511620005cb57601f016020900481601f01602090048360005260206000209182019101620005ca91906200067f565b5b505050565b815481835581811511620005fa57818360005260206000209182019101620005f991906200067f565b5b505050565b8154818355818115116200062f576002028160020283600052602060002091820191016200062e9190620006a7565b5b505050565b82600281019282156200066c579160200282015b828111156200066b57825182906000191690559160200191906001019062000648565b5b5090506200067b9190620006d8565b5090565b620006a491905b80821115620006a057600081600090555060010162000686565b5090565b90565b620006d591905b80821115620006d15760008181620006c7919062000700565b50600201620006ae565b5090565b90565b620006fd91905b80821115620006f9576000816000905550600101620006df565b5090565b90565b506000815560010160009055565b614f13806200071e6000396000f3006060604052600436106101cd576000357c0100000000000000000000000000000000000000000000000000000000900463ffffffff16806306fdde03146101d2578063095ea7b31461026057806310fc8a15146102ba578063145404fc1461030b57806318160ddd146103a657806323b872dd146103cf578063313ce56714610448578063324a146714610477578063378dc3dc146104c85780633af8c2d5146104f15780633b6a08001461053557806342cde4e81461068557806349827685146106ae57806353c1d8821461077b57806366188463146107e757806369f99f801461084157806370a08231146108645780638139cbc6146108b15780638a0c528a146108f15780638eae03d21461091a5780639138ec3a1461096a57806395d89b41146109935780639febbcfa14610a21578063a9059cbb14610a61578063aaf5eb6814610abb578063af87439e14610ae4578063b194624314610b07578063b6ed063214610b30578063c932aa7b14610b74578063ca7f74ea14610b97578063cff0ab9614610bba578063d2426ab914610c07578063d73dd62314610c7c578063dd62ed3e14610cd6578063e0cfdce014610d42578063e0f1f59f14610dba578063ee4b94bb14610dfa575b600080fd5b34156101dd57600080fd5b6101e5610e95565b6040518080602001828103825283818151815260200191508051906020019080838360005b8381101561022557808201518184015260208101905061020a565b50505050905090810190601f1680156102525780820380516001836020036101000a031916815260200191505b509250505060405180910390f35b341561026b57600080fd5b6102a0600480803573ffffffffffffffffffffffffffffffffffffffff16906020019091908035906020019091905050610f33565b604051808215151515815260200191505060405180910390f35b34156102c557600080fd5b6102ed6004808035906020019091908035906020019091908035906020019091905050611025565b60405180826000191660001916815260200191505060405180910390f35b341561031657600080fd5b61032c6004808035906020019091905050611068565b60405180806020018281038252838181518152602001915080516000925b8184101561039557828490602001906020020151600260200280838360005b83811015610384578082015181840152602081019050610369565b50505050905001926001019261034a565b925050509250505060405180910390f35b34156103b157600080fd5b6103b9611115565b6040518082815260200191505060405180910390f35b34156103da57600080fd5b61042e600480803573ffffffffffffffffffffffffffffffffffffffff1690602001909190803573ffffffffffffffffffffffffffffffffffffffff1690602001909190803590602001909190505061111f565b604051808215151515815260200191505060405180910390f35b341561045357600080fd5b61045b6112c4565b604051808260ff1660ff16815260200191505060405180910390f35b341561048257600080fd5b6104aa60048080359060200190919080359060200190919080359060200190919050506112d7565b60405180826000191660001916815260200191505060405180910390f35b34156104d357600080fd5b6104db61131a565b6040518082815260200191505060405180910390f35b34156104fc57600080fd5b61051b6004808035906020019091908035906020019091905050611320565b604051808215151515815260200191505060405180910390f35b341561054057600080fd5b6105566004808035906020019091905050611362565b6040518080602001806020018060200180602001858103855289818151815260200191508051906020019060200280838360005b838110156105a557808201518184015260208101905061058a565b50505050905001858103845288818151815260200191508051906020019060200280838360005b838110156105e75780820151818401526020810190506105cc565b50505050905001858103835287818151815260200191508051906020019060200280838360005b8381101561062957808201518184015260208101905061060e565b50505050905001858103825286818151815260200191508051906020019060200280838360005b8381101561066b578082015181840152602081019050610650565b505050509050019850505050505050505060405180910390f35b341561069057600080fd5b61069861154a565b6040518082815260200191505060405180910390f35b6107616004808035151590602001909190803590602001909190803590602001909190803590602001909190803573ffffffffffffffffffffffffffffffffffffffff1690602001909190806040019060028060200260405190810160405280929190826002602002808284378201915050505050919080604001906002806020026040519081016040528092919082600260200280828437820191505050505091908035906020019091905050611550565b604051808215151515815260200191505060405180910390f35b341561078657600080fd5b6107a56004808035906020019091908035906020019091905050611863565b604051808273ffffffffffffffffffffffffffffffffffffffff1673ffffffffffffffffffffffffffffffffffffffff16815260200191505060405180910390f35b34156107f257600080fd5b610827600480803573ffffffffffffffffffffffffffffffffffffffff169060200190919080359060200190919050506118b1565b604051808215151515815260200191505060405180910390f35b341561084c57600080fd5b6108626004808035906020019091905050611b42565b005b341561086f57600080fd5b61089b600480803573ffffffffffffffffffffffffffffffffffffffff16906020019091905050611d5f565b6040518082815260200191505060405180910390f35b34156108bc57600080fd5b6108db6004808035906020019091908035906020019091905050611da8565b6040518082815260200191505060405180910390f35b34156108fc57600080fd5b610904611dd9565b6040518082815260200191505060405180910390f35b341561092557600080fd5b61094d6004808035906020019091908035906020019091908035906020019091905050611ddf565b604051808381526020018281526020019250505060405180910390f35b341561097557600080fd5b61097d61209f565b6040518082815260200191505060405180910390f35b341561099e57600080fd5b6109a66120a5565b6040518080602001828103825283818151815260200191508051906020019080838360005b838110156109e65780820151818401526020810190506109cb565b50505050905090810190601f168015610a135780820380516001836020036101000a031916815260200191505b509250505060405180910390f35b3415610a2c57600080fd5b610a4b6004808035906020019091908035906020019091905050612143565b6040518082815260200191505060405180910390f35b3415610a6c57600080fd5b610aa1600480803573ffffffffffffffffffffffffffffffffffffffff16906020019091908035906020019091905050612174565b604051808215151515815260200191505060405180910390f35b3415610ac657600080fd5b610ace612317565b6040518082815260200191505060405180910390f35b3415610aef57600080fd5b610b05600480803590602001909190505061231d565b005b3415610b1257600080fd5b610b1a61253a565b6040518082815260200191505060405180910390f35b3415610b3b57600080fd5b610b5a6004808035906020019091908035906020019091905050612540565b604051808215151515815260200191505060405180910390f35b3415610b7f57600080fd5b610b956004808035906020019091905050612917565b005b3415610ba257600080fd5b610bb86004808035906020019091905050612b34565b005b3415610bc557600080fd5b610bcd612d51565b6040518086815260200185815260200184815260200183815260200182600019166000191681526020019550505050505060405180910390f35b3415610c1257600080fd5b610c62600480803573ffffffffffffffffffffffffffffffffffffffff16906020019091908035906020019091908035906020019091908035906020019091908035906020019091905050612d75565b604051808215151515815260200191505060405180910390f35b3415610c8757600080fd5b610cbc600480803573ffffffffffffffffffffffffffffffffffffffff16906020019091908035906020019091905050612e7e565b604051808215151515815260200191505060405180910390f35b3415610ce157600080fd5b610d2c600480803573ffffffffffffffffffffffffffffffffffffffff1690602001909190803573ffffffffffffffffffffffffffffffffffffffff1690602001909190505061307a565b6040518082815260200191505060405180910390f35b3415610d4d57600080fd5b610d636004808035906020019091905050613101565b6040518080602001828103825283818151815260200191508051906020019060200280838360005b83811015610da6578082015181840152602081019050610d8b565b505050509050019250505060405180910390f35b3415610dc557600080fd5b610de460048080359060200190919080359060200190919050506131a8565b6040518082815260200191505060405180910390f35b3415610e0557600080fd5b610e1b60048080359060200190919050506131d9565b60405180806020018281038252838181518152602001915080516000925b81841015610e8457828490602001906020020151600260200280838360005b83811015610e73578082015181840152602081019050610e58565b505050509050019260010192610e39565b925050509250505060405180910390f35b60148054600181600116156101000203166002900480601f016020809104026020016040519081016040528092919081815260200182805460018160011615610100020316600290048015610f2b5780601f10610f0057610100808354040283529160200191610f2b565b820191906000526020600020905b815481529060010190602001808311610f0e57829003601f168201915b505050505081565b600081601360003373ffffffffffffffffffffffffffffffffffffffff1673ffffffffffffffffffffffffffffffffffffffff16815260200190815260200160002060008573ffffffffffffffffffffffffffffffffffffffff1673ffffffffffffffffffffffffffffffffffffffff168152602001908152602001600020819055508273ffffffffffffffffffffffffffffffffffffffff163373ffffffffffffffffffffffffffffffffffffffff167f8c5be1e5ebec7d5bd14f71427d1e84f3dd0314c0f7b2291e5b200ac8c7c3b925846040518082815260200191505060405180910390a36001905092915050565b600f6020528260005260406000208281548110151561104057fe5b90600052602060002090600202018160028110151561105b57fe5b0160009250925050505481565b61107061493a565b600f6000838152602001908152602001600020805480602002602001604051908101604052809291908181526020016000905b8282101561110a57838290600052602060002090600202016002806020026040519081016040528092919082600280156110f6576020028201915b815460001916815260200190600101908083116110de575b5050505050815260200190600101906110a3565b505050509050919050565b6000601254905090565b600061112c848484613286565b508160196000601860008873ffffffffffffffffffffffffffffffffffffffff1673ffffffffffffffffffffffffffffffffffffffff1681526020019081526020016000206000015481526020019081526020016000206000828254039250508190555081601a6000601860008873ffffffffffffffffffffffffffffffffffffffff1673ffffffffffffffffffffffffffffffffffffffff1681526020019081526020016000206001015481526020019081526020016000206000828254039250508190555081601b6000601860008873ffffffffffffffffffffffffffffffffffffffff1673ffffffffffffffffffffffffffffffffffffffff1681526020019081526020016000206002015481526020019081526020016000206000828254039250508190555081601c6000601860008873ffffffffffffffffffffffffffffffffffffffff1673ffffffffffffffffffffffffffffffffffffffff16815260200190815260200160002060030154815260200190815260200160002060008282540392505081905550600190509392505050565b601660009054906101000a900460ff1681565b600e602052826000526040600020828154811015156112f257fe5b90600052602060002090600202018160028110151561130d57fe5b0160009250925050505481565b60175481565b60096020528160005260406000208181548110151561133b57fe5b9060005260206000209060209182820401919006915091509054906101000a900460ff1681565b61136a61494e565b611372614962565b61137a614962565b611382614962565b60096000868152602001908152602001600020600a6000878152602001908152602001600020600b6000888152602001908152602001600020600c60008981526020019081526020016000208380548060200260200160405190810160405280929190818152602001828054801561143e57602002820191906000526020600020906000905b82829054906101000a900460ff161515815260200190600101906020826000010492830192600103820291508084116114085790505b505050505093508280548060200260200160405190810160405280929190818152602001828054801561149057602002820191906000526020600020905b81548152602001906001019080831161147c575b50505050509250818054806020026020016040519081016040528092919081815260200182805480156114e257602002820191906000526020600020905b8154815260200190600101908083116114ce575b505050505091508080548060200260200160405190810160405280929190818152602001828054801561153457602002820191906000526020600020905b815481526020019060010190808311611520575b5050505050905093509350935093509193509193565b601d5481565b6000808811151561156057600080fd5b60008711151561156f57600080fd5b86881015151561157e57600080fd5b60008611151561158d57600080fd5b88156115da576004600001548802348702101515156115ab57600080fd5b60005460005402866004600001548a02028115156115c557fe5b04600260008282540192505081905550611622565b60005460046000015489028115156115ee57fe5b0434101515156115fd57600080fd5b600054600460000154890281151561161157fe5b046002600082825401925050819055505b6000600960008481526020019081526020016000208054905011151561164757600080fd5b60096000838152602001908152602001600020805480600101828161166c9190614976565b91600052602060002090602091828204019190068b909190916101000a81548160ff02191690831515021790555050600a600083815260200190815260200160002080548060010182816116c091906149b0565b916000526020600020900160008a90919091505550600b600083815260200190815260200160002080548060010182816116fa91906149b0565b916000526020600020900160008990919091505550600c6000838152602001908152602001600020805480600101828161173491906149b0565b916000526020600020900160008890919091505550600d6000838152602001908152602001600020805480600101828161176e91906149dc565b9160005260206000209001600087909190916101000a81548173ffffffffffffffffffffffffffffffffffffffff021916908373ffffffffffffffffffffffffffffffffffffffff16021790555050600e600083815260200190815260200160002080548060010182816117e29190614a08565b91600052602060002090600202016000869091909150906002611806929190614a3a565b5050600f6000838152602001908152602001600020805480600101828161182d9190614a08565b91600052602060002090600202016000859091909150906002611851929190614a3a565b50506001905098975050505050505050565b600d6020528160005260406000208181548110151561187e57fe5b90600052602060002090016000915091509054906101000a900473ffffffffffffffffffffffffffffffffffffffff1681565b600080601360003373ffffffffffffffffffffffffffffffffffffffff1673ffffffffffffffffffffffffffffffffffffffff16815260200190815260200160002060008573ffffffffffffffffffffffffffffffffffffffff1673ffffffffffffffffffffffffffffffffffffffff168152602001908152602001600020549050808311156119c2576000601360003373ffffffffffffffffffffffffffffffffffffffff1673ffffffffffffffffffffffffffffffffffffffff16815260200190815260200160002060008673ffffffffffffffffffffffffffffffffffffffff1673ffffffffffffffffffffffffffffffffffffffff16815260200190815260200160002081905550611a56565b6119d5838261364590919063ffffffff16565b601360003373ffffffffffffffffffffffffffffffffffffffff1673ffffffffffffffffffffffffffffffffffffffff16815260200190815260200160002060008673ffffffffffffffffffffffffffffffffffffffff1673ffffffffffffffffffffffffffffffffffffffff168152602001908152602001600020819055505b8373ffffffffffffffffffffffffffffffffffffffff163373ffffffffffffffffffffffffffffffffffffffff167f8c5be1e5ebec7d5bd14f71427d1e84f3dd0314c0f7b2291e5b200ac8c7c3b925601360003373ffffffffffffffffffffffffffffffffffffffff1673ffffffffffffffffffffffffffffffffffffffff16815260200190815260200160002060008873ffffffffffffffffffffffffffffffffffffffff1673ffffffffffffffffffffffffffffffffffffffff168152602001908152602001600020546040518082815260200191505060405180910390a3600191505092915050565b6000601160003373ffffffffffffffffffffffffffffffffffffffff1673ffffffffffffffffffffffffffffffffffffffff16815260200190815260200160002054111515611b9057600080fd5b600081111515611b9f57600080fd5b6000601860003373ffffffffffffffffffffffffffffffffffffffff1673ffffffffffffffffffffffffffffffffffffffff168152602001908152602001600020600301541115611c8d57601160003373ffffffffffffffffffffffffffffffffffffffff1673ffffffffffffffffffffffffffffffffffffffff16815260200190815260200160002054601c6000601860003373ffffffffffffffffffffffffffffffffffffffff1673ffffffffffffffffffffffffffffffffffffffff168152602001908152602001600020600301548152602001908152602001600020600082825403925050819055505b80601860003373ffffffffffffffffffffffffffffffffffffffff1673ffffffffffffffffffffffffffffffffffffffff16815260200190815260200160002060030181905550601160003373ffffffffffffffffffffffffffffffffffffffff1673ffffffffffffffffffffffffffffffffffffffff16815260200190815260200160002054601c600083815260200190815260200160002060008282540192505081905550601d54601c6000838152602001908152602001600020541115611d5c57806004600301819055505b50565b6000601160008373ffffffffffffffffffffffffffffffffffffffff1673ffffffffffffffffffffffffffffffffffffffff168152602001908152602001600020549050919050565b600c60205281600052604060002081815481101515611dc357fe5b9060005260206000209001600091509150505481565b60015481565b600080600080611ded614a80565b611df5614a80565b611e0089898961365e565b1515611e185760008081915080905095509550612093565b600960008a815260200190815260200160002088815481101515611e3857fe5b90600052602060002090602091828204019190069054906101000a900460ff1615611e6857879350869250611e6f565b8693508792505b608060405190810160405280600115158152602001600a60008c815260200190815260200160002086815481101515611ea457fe5b9060005260206000209001548152602001600b60008c815260200190815260200160002086815481101515611ed557fe5b9060005260206000209001548152602001600c60008c815260200190815260200160002086815481101515611f0657fe5b9060005260206000209001548152509150608060405190810160405280600015158152602001600a60008c815260200190815260200160002085815481101515611f4c57fe5b9060005260206000209001548152602001600b60008c815260200190815260200160002085815481101515611f7d57fe5b9060005260206000209001548152602001600c60008c815260200190815260200160002085815481101515611fae57fe5b9060005260206000209001548152509050806060015182606001511015611fe15760008081915080905095509550612093565b60028160600151836060015101811515611ff757fe5b049550858160200151026000548360200151021115612049578581602001510260005483604001510211156120385760008081915080905095509550612093565b858682602001510295509550612093565b600054826020015102868260200151021115612088576000548260200151028682604001510211156120875760008081915080905095509550612093565b5b858260200151955095505b50505050935093915050565b60025481565b60158054600181600116156101000203166002900480601f01602080910402602001604051908101604052809291908181526020018280546001816001161561010002031660029004801561213b5780601f106121105761010080835404028352916020019161213b565b820191906000526020600020905b81548152906001019060200180831161211e57829003601f168201915b505050505081565b600b6020528160005260406000208181548110151561215e57fe5b9060005260206000209001600091509150505481565b600061218083836137ba565b508160196000601860003373ffffffffffffffffffffffffffffffffffffffff1673ffffffffffffffffffffffffffffffffffffffff1681526020019081526020016000206000015481526020019081526020016000206000828254039250508190555081601a6000601860003373ffffffffffffffffffffffffffffffffffffffff1673ffffffffffffffffffffffffffffffffffffffff1681526020019081526020016000206001015481526020019081526020016000206000828254039250508190555081601b6000601860003373ffffffffffffffffffffffffffffffffffffffff1673ffffffffffffffffffffffffffffffffffffffff1681526020019081526020016000206002015481526020019081526020016000206000828254039250508190555081601c6000601860003373ffffffffffffffffffffffffffffffffffffffff1673ffffffffffffffffffffffffffffffffffffffff168152602001908152602001600020600301548152602001908152602001600020600082825403925050819055506001905092915050565b60005481565b6000601160003373ffffffffffffffffffffffffffffffffffffffff1673ffffffffffffffffffffffffffffffffffffffff1681526020019081526020016000205411151561236b57600080fd5b60008111151561237a57600080fd5b6000601860003373ffffffffffffffffffffffffffffffffffffffff1673ffffffffffffffffffffffffffffffffffffffff16815260200190815260200160002060020154111561246857601160003373ffffffffffffffffffffffffffffffffffffffff1673ffffffffffffffffffffffffffffffffffffffff16815260200190815260200160002054601b6000601860003373ffffffffffffffffffffffffffffffffffffffff1673ffffffffffffffffffffffffffffffffffffffff168152602001908152602001600020600201548152602001908152602001600020600082825403925050819055505b80601860003373ffffffffffffffffffffffffffffffffffffffff1673ffffffffffffffffffffffffffffffffffffffff16815260200190815260200160002060020181905550601160003373ffffffffffffffffffffffffffffffffffffffff1673ffffffffffffffffffffffffffffffffffffffff16815260200190815260200160002054601b600083815260200190815260200160002060008282540192505081905550601d54601b600083815260200190815260200160002054111561253757806004600201819055505b50565b60035481565b600080600060096000868152602001908152602001600020805490508410151561256957600080fd5b600d60008681526020019081526020016000208481548110151561258957fe5b906000526020600020900160009054906101000a900473ffffffffffffffffffffffffffffffffffffffff1673ffffffffffffffffffffffffffffffffffffffff163373ffffffffffffffffffffffffffffffffffffffff161415156125ee57600080fd5b600c60008681526020019081526020016000208481548110151561260e57fe5b9060005260206000209001549150600a60008681526020019081526020016000208481548110151561263c57fe5b9060005260206000209001549050600960008681526020019081526020016000208481548110151561266a57fe5b90600052602060002090602091828204019190069054906101000a900460ff16156126ed573373ffffffffffffffffffffffffffffffffffffffff166108fc836004600101546004600001540384028115156126c257fe5b049081150290604051600060405180830381858888f1935050505015156126e857600080fd5b612747565b3373ffffffffffffffffffffffffffffffffffffffff166108fc8360046001015460046000015403840281151561272057fe5b049081150290604051600060405180830381858888f19350505050151561274657600080fd5b5b600960008681526020019081526020016000208481548110151561276757fe5b90600052602060002090602091828204019190066101000a81549060ff0219169055600a6000868152602001908152602001600020848154811015156127a957fe5b906000526020600020900160009055600b6000868152602001908152602001600020848154811015156127d857fe5b906000526020600020900160009055600c60008681526020019081526020016000208481548110151561280757fe5b906000526020600020900160009055600d60008681526020019081526020016000208481548110151561283657fe5b906000526020600020900160006101000a81549073ffffffffffffffffffffffffffffffffffffffff0219169055600e60008681526020019081526020016000208481548110151561288457fe5b9060005260206000209060020201600061289e9190614aab565b600f6000868152602001908152602001600020848154811015156128be57fe5b906000526020600020906002020160006128d89190614aab565b60016010868154811015156128e957fe5b90600052602060002090016000828254019250508190555061290a856139de565b5060019250505092915050565b6000601160003373ffffffffffffffffffffffffffffffffffffffff1673ffffffffffffffffffffffffffffffffffffffff1681526020019081526020016000205411151561296557600080fd5b60008111151561297457600080fd5b6000601860003373ffffffffffffffffffffffffffffffffffffffff1673ffffffffffffffffffffffffffffffffffffffff168152602001908152602001600020600001541115612a6257601160003373ffffffffffffffffffffffffffffffffffffffff1673ffffffffffffffffffffffffffffffffffffffff1681526020019081526020016000205460196000601860003373ffffffffffffffffffffffffffffffffffffffff1673ffffffffffffffffffffffffffffffffffffffff168152602001908152602001600020600001548152602001908152602001600020600082825403925050819055505b80601860003373ffffffffffffffffffffffffffffffffffffffff1673ffffffffffffffffffffffffffffffffffffffff16815260200190815260200160002060000181905550601160003373ffffffffffffffffffffffffffffffffffffffff1673ffffffffffffffffffffffffffffffffffffffff168152602001908152602001600020546019600083815260200190815260200160002060008282540192505081905550601d5460196000838152602001908152602001600020541115612b3157806004600001819055505b50565b6000601160003373ffffffffffffffffffffffffffffffffffffffff1673ffffffffffffffffffffffffffffffffffffffff16815260200190815260200160002054111515612b8257600080fd5b600081111515612b9157600080fd5b6000601860003373ffffffffffffffffffffffffffffffffffffffff1673ffffffffffffffffffffffffffffffffffffffff168152602001908152602001600020600101541115612c7f57601160003373ffffffffffffffffffffffffffffffffffffffff1673ffffffffffffffffffffffffffffffffffffffff16815260200190815260200160002054601a6000601860003373ffffffffffffffffffffffffffffffffffffffff1673ffffffffffffffffffffffffffffffffffffffff168152602001908152602001600020600101548152602001908152602001600020600082825403925050819055505b80601860003373ffffffffffffffffffffffffffffffffffffffff1673ffffffffffffffffffffffffffffffffffffffff16815260200190815260200160002060010181905550601160003373ffffffffffffffffffffffffffffffffffffffff1673ffffffffffffffffffffffffffffffffffffffff16815260200190815260200160002054601a600083815260200190815260200160002060008282540192505081905550601d54601a6000838152602001908152602001600020541115612d4e57806004600101819055505b50565b60048060000154908060010154908060020154908060030154908060040154905085565b6000806000806000612d8a8a8a8a8a8a6141e1565b1515612d9557600080fd5b612da0898989611ddf565b93509350600083111515612db357600080fd5b600960008a815260200190815260200160002088815481101515612dd357fe5b90600052602060002090602091828204019190069054906101000a900460ff1615612e0357879150869050612e0a565b8691508790505b612e148a8461427e565b612e4983600c60008c815260200190815260200160002084815481101515612e3857fe5b9060005260206000209001546142e6565b612e568989898787614350565b612e6389898987876145f8565b612e6c896139de565b50600194505050505095945050505050565b6000612f0f82601360003373ffffffffffffffffffffffffffffffffffffffff1673ffffffffffffffffffffffffffffffffffffffff16815260200190815260200160002060008673ffffffffffffffffffffffffffffffffffffffff1673ffffffffffffffffffffffffffffffffffffffff1681526020019081526020016000205461490990919063ffffffff16565b601360003373ffffffffffffffffffffffffffffffffffffffff1673ffffffffffffffffffffffffffffffffffffffff16815260200190815260200160002060008573ffffffffffffffffffffffffffffffffffffffff1673ffffffffffffffffffffffffffffffffffffffff168152602001908152602001600020819055508273ffffffffffffffffffffffffffffffffffffffff163373ffffffffffffffffffffffffffffffffffffffff167f8c5be1e5ebec7d5bd14f71427d1e84f3dd0314c0f7b2291e5b200ac8c7c3b925601360003373ffffffffffffffffffffffffffffffffffffffff1673ffffffffffffffffffffffffffffffffffffffff16815260200190815260200160002060008773ffffffffffffffffffffffffffffffffffffffff1673ffffffffffffffffffffffffffffffffffffffff168152602001908152602001600020546040518082815260200191505060405180910390a36001905092915050565b6000601360008473ffffffffffffffffffffffffffffffffffffffff1673ffffffffffffffffffffffffffffffffffffffff16815260200190815260200160002060008373ffffffffffffffffffffffffffffffffffffffff1673ffffffffffffffffffffffffffffffffffffffff16815260200190815260200160002054905092915050565b613109614ab9565b600d600083815260200190815260200160002080548060200260200160405190810160405280929190818152602001828054801561319c57602002820191906000526020600020905b8160009054906101000a900473ffffffffffffffffffffffffffffffffffffffff1673ffffffffffffffffffffffffffffffffffffffff1681526020019060010190808311613152575b50505050509050919050565b600a602052816000526040600020818154811015156131c357fe5b9060005260206000209001600091509150505481565b6131e161493a565b600e6000838152602001908152602001600020805480602002602001604051908101604052809291908181526020016000905b8282101561327b5783829060005260206000209060020201600280602002604051908101604052809291908260028015613267576020028201915b8154600019168152602001906001019080831161324f575b505050505081526020019060010190613214565b505050509050919050565b60008073ffffffffffffffffffffffffffffffffffffffff168373ffffffffffffffffffffffffffffffffffffffff16141515156132c357600080fd5b601160008573ffffffffffffffffffffffffffffffffffffffff1673ffffffffffffffffffffffffffffffffffffffff16815260200190815260200160002054821115151561331157600080fd5b601360008573ffffffffffffffffffffffffffffffffffffffff1673ffffffffffffffffffffffffffffffffffffffff16815260200190815260200160002060003373ffffffffffffffffffffffffffffffffffffffff1673ffffffffffffffffffffffffffffffffffffffff16815260200190815260200160002054821115151561339c57600080fd5b6133ee82601160008773ffffffffffffffffffffffffffffffffffffffff1673ffffffffffffffffffffffffffffffffffffffff1681526020019081526020016000205461364590919063ffffffff16565b601160008673ffffffffffffffffffffffffffffffffffffffff1673ffffffffffffffffffffffffffffffffffffffff1681526020019081526020016000208190555061348382601160008673ffffffffffffffffffffffffffffffffffffffff1673ffffffffffffffffffffffffffffffffffffffff1681526020019081526020016000205461490990919063ffffffff16565b601160008573ffffffffffffffffffffffffffffffffffffffff1673ffffffffffffffffffffffffffffffffffffffff1681526020019081526020016000208190555061355582601360008773ffffffffffffffffffffffffffffffffffffffff1673ffffffffffffffffffffffffffffffffffffffff16815260200190815260200160002060003373ffffffffffffffffffffffffffffffffffffffff1673ffffffffffffffffffffffffffffffffffffffff1681526020019081526020016000205461364590919063ffffffff16565b601360008673ffffffffffffffffffffffffffffffffffffffff1673ffffffffffffffffffffffffffffffffffffffff16815260200190815260200160002060003373ffffffffffffffffffffffffffffffffffffffff1673ffffffffffffffffffffffffffffffffffffffff168152602001908152602001600020819055508273ffffffffffffffffffffffffffffffffffffffff168473ffffffffffffffffffffffffffffffffffffffff167fddf252ad1be2c89b69c2b068fc378daa952ba7f163c4a11628f55a4df523b3ef846040518082815260200191505060405180910390a3600190509392505050565b600082821115151561365357fe5b818303905092915050565b600060096000858152602001908152602001600020805490508310151561368457600080fd5b6009600085815260200190815260200160002080549050821015156136a857600080fd5b60096000858152602001908152602001600020828154811015156136c857fe5b90600052602060002090602091828204019190069054906101000a900460ff161515600960008681526020019081526020016000208481548110151561370a57fe5b90600052602060002090602091828204019190069054906101000a900460ff1615151415151561373957600080fd5b6000600a60008681526020019081526020016000208481548110151561375b57fe5b9060005260206000209001541415151561377457600080fd5b6000600a60008681526020019081526020016000208381548110151561379657fe5b906000526020600020900154141515156137af57600080fd5b600190509392505050565b60008073ffffffffffffffffffffffffffffffffffffffff168373ffffffffffffffffffffffffffffffffffffffff16141515156137f757600080fd5b601160003373ffffffffffffffffffffffffffffffffffffffff1673ffffffffffffffffffffffffffffffffffffffff16815260200190815260200160002054821115151561384557600080fd5b61389782601160003373ffffffffffffffffffffffffffffffffffffffff1673ffffffffffffffffffffffffffffffffffffffff1681526020019081526020016000205461364590919063ffffffff16565b601160003373ffffffffffffffffffffffffffffffffffffffff1673ffffffffffffffffffffffffffffffffffffffff1681526020019081526020016000208190555061392c82601160008673ffffffffffffffffffffffffffffffffffffffff1673ffffffffffffffffffffffffffffffffffffffff1681526020019081526020016000205461490990919063ffffffff16565b601160008573ffffffffffffffffffffffffffffffffffffffff1673ffffffffffffffffffffffffffffffffffffffff168152602001908152602001600020819055508273ffffffffffffffffffffffffffffffffffffffff163373ffffffffffffffffffffffffffffffffffffffff167fddf252ad1be2c89b69c2b068fc378daa952ba7f163c4a11628f55a4df523b3ef846040518082815260200191505060405180910390a36001905092915050565b6000806004600201546010848154811015156139f657fe5b9060005260206000209001541015613a1157600091506141db565b600190505b6009600084815260200190815260200160002080549050811015613f78576000600a600085815260200190815260200160002082815481101515613a5657fe5b9060005260206000209001541415613f6b576001600960008581526020019081526020016000208054905003811015613f6a576009600084815260200190815260200160002060018201815481101515613aac57fe5b90600052602060002090602091828204019190069054906101000a900460ff166009600085815260200190815260200160002082815481101515613aec57fe5b90600052602060002090602091828204019190066101000a81548160ff021916908315150217905550600a600084815260200190815260200160002060018201815481101515613b3857fe5b906000526020600020900154600a600085815260200190815260200160002082815481101515613b6457fe5b906000526020600020900181905550600b600084815260200190815260200160002060018201815481101515613b9657fe5b906000526020600020900154600b600085815260200190815260200160002082815481101515613bc257fe5b906000526020600020900181905550600c600084815260200190815260200160002060018201815481101515613bf457fe5b906000526020600020900154600c600085815260200190815260200160002082815481101515613c2057fe5b906000526020600020900181905550600d600084815260200190815260200160002060018201815481101515613c5257fe5b906000526020600020900160009054906101000a900473ffffffffffffffffffffffffffffffffffffffff16600d600085815260200190815260200160002082815481101515613c9e57fe5b906000526020600020900160006101000a81548173ffffffffffffffffffffffffffffffffffffffff021916908373ffffffffffffffffffffffffffffffffffffffff160217905550600e600084815260200190815260200160002060018201815481101515613d0a57fe5b9060005260206000209060020201600e600085815260200190815260200160002082815481101515613d3857fe5b9060005260206000209060020201906002613d54929190614acd565b50600f600084815260200190815260200160002060018201815481101515613d7857fe5b9060005260206000209060020201600f600085815260200190815260200160002082815481101515613da657fe5b9060005260206000209060020201906002613dc2929190614acd565b506009600084815260200190815260200160002060018201815481101515613de657fe5b90600052602060002090602091828204019190066101000a81549060ff0219169055600a600084815260200190815260200160002060018201815481101515613e2b57fe5b906000526020600020900160009055600b600084815260200190815260200160002060018201815481101515613e5d57fe5b906000526020600020900160009055600c600084815260200190815260200160002060018201815481101515613e8f57fe5b906000526020600020900160009055600d600084815260200190815260200160002060018201815481101515613ec157fe5b906000526020600020900160006101000a81549073ffffffffffffffffffffffffffffffffffffffff0219169055600e600084815260200190815260200160002060018201815481101515613f1257fe5b90600052602060002090600202016000613f2c9190614aab565b600f600084815260200190815260200160002060018201815481101515613f4f57fe5b90600052602060002090600202016000613f699190614aab565b5b5b8080600101915050613a16565b601083815481101515613f8757fe5b9060005260206000209001546009600085815260200190815260200160002080549050036009600085815260200190815260200160002081613fc99190614b0a565b50601083815481101515613fd957fe5b906000526020600020900154600a60008581526020019081526020016000208054905003600a60008581526020019081526020016000208161401b9190614b44565b5060108381548110151561402b57fe5b906000526020600020900154600b60008581526020019081526020016000208054905003600b60008581526020019081526020016000208161406d9190614b44565b5060108381548110151561407d57fe5b906000526020600020900154600c60008581526020019081526020016000208054905003600c6000858152602001908152602001600020816140bf9190614b44565b506010838154811015156140cf57fe5b906000526020600020900154600d60008581526020019081526020016000208054905003600d6000858152602001908152602001600020816141119190614b70565b5060108381548110151561412157fe5b906000526020600020900154600e60008581526020019081526020016000208054905003600e6000858152602001908152602001600020816141639190614b9c565b5060108381548110151561417357fe5b906000526020600020900154600f60008581526020019081526020016000208054905003600f6000858152602001908152602001600020816141b59190614b9c565b5060006010848154811015156141c757fe5b906000526020600020900181905550600191505b50919050565b60008585858585604051808673ffffffffffffffffffffffffffffffffffffffff1673ffffffffffffffffffffffffffffffffffffffff166c010000000000000000000000000281526014018581526020018481526020018381526020018281526020019550505050505060405180910390206000191660048001546000191610156142705760009050614275565b600190505b95945050505050565b600080546000540282600460000154600460030154020281151561429e57fe5b0490508273ffffffffffffffffffffffffffffffffffffffff166108fc829081150290604051600060405180830381858888f1935050505015156142e157600080fd5b505050565b60005482600460000154028115156142fa57fe5b04600260008282540392505081905550600054600054028183600460000154020281151561432457fe5b04600260008282540392505081905550426001546003540111151561434c5761434b614927565b5b5050565b7f389a889e7f65d263df200f5a0bc042c0ba9d0c600161ff14d87cc1daa06b8e6d600d60008781526020019081526020016000208581548110151561439157fe5b906000526020600020900160009054906101000a900473ffffffffffffffffffffffffffffffffffffffff16600d6000888152602001908152602001600020858154811015156143dd57fe5b906000526020600020900160009054906101000a900473ffffffffffffffffffffffffffffffffffffffff16600e60008981526020019081526020016000208781548110151561442957fe5b9060005260206000209060020201600e60008a81526020019081526020016000208781548110151561445757fe5b9060005260206000209060020201600f60008b81526020019081526020016000208981548110151561448557fe5b9060005260206000209060020201600f60008c8152602001908152602001600020898154811015156144b357fe5b90600052602060002090600202018888604051808973ffffffffffffffffffffffffffffffffffffffff1673ffffffffffffffffffffffffffffffffffffffff1681526020018873ffffffffffffffffffffffffffffffffffffffff1673ffffffffffffffffffffffffffffffffffffffff1681526020018760028015614553576020028201915b8154600019168152602001906001019080831161453b575b5050866002801561457d576020028201915b81546000191681526020019060010190808311614565575b505085600280156145a7576020028201915b8154600019168152602001906001019080831161458f575b505084600280156145d1576020028201915b815460001916815260200190600101908083116145b9575b50508381526020018281526020019850505050505050505060405180910390a15050505050565b600080600960008881526020019081526020016000208681548110151561461b57fe5b90600052602060002090602091828204019190069054906101000a900460ff161561464b57859150849050614652565b8491508590505b82600a60008981526020019081526020016000208381548110151561467357fe5b90600052602060002090015414156146af57600160108881548110151561469657fe5b9060005260206000209001600082825401925050819055505b82600b6000898152602001908152602001600020838154811015156146d057fe5b9060005260206000209001541015614718576000600b60008981526020019081526020016000208381548110151561470457fe5b906000526020600020900181905550614752565b82600b60008981526020019081526020016000208381548110151561473957fe5b9060005260206000209001600082825403925050819055505b82600a60008981526020019081526020016000208381548110151561477357fe5b90600052602060002090016000828254039250508190555060005484840281151561479a57fe5b04600a6000898152602001908152602001600020828154811015156147bb57fe5b90600052602060002090015414156147f75760016010888154811015156147de57fe5b9060005260206000209001600082825401925050819055505b60005484840281151561480657fe5b04600b60008981526020019081526020016000208281548110151561482757fe5b906000526020600020900154101561486f576000600b60008981526020019081526020016000208281548110151561485b57fe5b9060005260206000209001819055506148b8565b60005484840281151561487e57fe5b04600b60008981526020019081526020016000208281548110151561489f57fe5b9060005260206000209001600082825403925050819055505b6000548484028115156148c757fe5b04600a6000898152602001908152602001600020828154811015156148e857fe5b90600052602060002090016000828254039250508190555050505050505050565b600080828401905083811015151561491d57fe5b8091505092915050565b61492f614931565b565b42600381905550565b602060405190810160405280600081525090565b602060405190810160405280600081525090565b602060405190810160405280600081525090565b8154818355818115116149ab57601f016020900481601f016020900483600052602060002091820191016149aa9190614bce565b5b505050565b8154818355818115116149d7578183600052602060002091820191016149d69190614bce565b5b505050565b815481835581811511614a0357818360005260206000209182019101614a029190614bce565b5b505050565b815481835581811511614a3557600202816002028360005260206000209182019101614a349190614bf3565b5b505050565b8260028101928215614a6f579160200282015b82811115614a6e578251829060001916905591602001919060010190614a4d565b5b509050614a7c9190614c1f565b5090565b6080604051908101604052806000151581526020016000815260200160008152602001600081525090565b506000815560010160009055565b602060405190810160405280600081525090565b8260028101928215614af9579182015b82811115614af8578254825591600101919060010190614add565b5b509050614b069190614c1f565b5090565b815481835581811511614b3f57601f016020900481601f01602090048360005260206000209182019101614b3e9190614bce565b5b505050565b815481835581811511614b6b57818360005260206000209182019101614b6a9190614bce565b5b505050565b815481835581811511614b9757818360005260206000209182019101614b969190614bce565b5b505050565b815481835581811511614bc957600202816002028360005260206000209182019101614bc89190614bf3565b5b505050565b614bf091905b80821115614bec576000816000905550600101614bd4565b5090565b90565b614c1c91905b80821115614c185760008181614c0f9190614aab565b50600201614bf9565b5090565b90565b614c4191905b80821115614c3d576000816000905550600101614c25565b5090565b90565b84600460000181905550836004600101819055508260046002018190555081600460030181905550806004800181600019169055505050505050565b600960008081526020019081526020016000208054806001018281614ca59190614976565b91600052602060002090602091828204019190066000909190916101000a81548160ff02191690831515021790555050600a60008081526020019081526020016000208054806001018281614cfa91906149b0565b916000526020600020900160008090919091505550600b60008081526020019081526020016000208054806001018281614d3491906149b0565b916000526020600020900160008090919091505550600c60008081526020019081526020016000208054806001018281614d6e91906149b0565b916000526020600020900160008090919091505550600d60008081526020019081526020016000208054806001018281614da891906149dc565b9160005260206000209001600080909190916101000a81548173ffffffffffffffffffffffffffffffffffffffff021916908373ffffffffffffffffffffffffffffffffffffffff16021790555050600e60008081526020019081526020016000208054806001018281614e1c9190614a08565b916000526020600020906002020160006040805190810160405280600060010260001916600019168152602001600060010260001916600019168152509091909150906002614e6c929190614a3a565b5050600f60008081526020019081526020016000208054806001018281614e939190614a08565b916000526020600020906002020160006040805190810160405280600060010260001916600019168152602001600060010260001916600019168152509091909150906002614ee3929190614a3a565b50505600a165627a7a72305820739a88033d2b6e743aa19a2fdee6abf44f738df5215c4d53733cdcdcf5d9ad930029",
  "source": "pragma solidity ^0.4.18;\n\nimport 'zeppelin-solidity/contracts/token/ERC20/MintableToken.sol';\nimport 'zeppelin-solidity/contracts/math/SafeMath.sol';\nimport './Exchange.sol';\n\n\n/// @title ValexToken\n/// @author Karim Helmy\n\n// Parts sourced from https://github.com/bokkypoobah/Tokens/blob/master/contracts/FixedSupplyToken.sol\n\n// ----------------------------------------------------------------------------\n// 'VLX' 'Valex Token' token contract\n//\n// Symbol      : VLX\n// Name        : Valex Token\n// Total supply: 1,000,000.000000000000000000\n// Decimals    : 18\n//\n// ----------------------------------------------------------------------------\n\ncontract ValexToken is Exchange, StandardToken {\n    using SafeMath for uint;\n\n    string public name = \"Valex Token\";\n    string public symbol = \"VLX\";\n    uint8 public decimals = 18;\n\n    uint256 public initialSupply = 10000 * (10 ** uint256(decimals));\n\n    // Voting mappings\n    // Holds what every address has voted for\n    mapping (address => Parameters) voteBook;\n    // Hold frequencies of what addresses have voted for (in coin-votes)\n    mapping (uint => uint) closureFeeFreqs;\n    mapping (uint => uint) cancelFeeFreqs;\n    mapping (uint => uint) cleanSizeFreqs;\n    mapping (uint => uint) minerShareFreqs;\n\n    // Threshold to be met for each parameter adjustment\n    uint256 public threshold = (initialSupply / 100) * 51;\n\n    /**\n    * @dev transfer token for a specified address\n    * @param _to The address to transfer to.\n    * @param _value The amount to be transferred.\n    */\n    function transfer(address _to, uint256 _value) public returns (bool) {\n      BasicToken.transfer(_to, _value);\n      closureFeeFreqs[voteBook[msg.sender].closureFee] -= _value;\n      cancelFeeFreqs[voteBook[msg.sender].cancelFee] -= _value;\n      cleanSizeFreqs[voteBook[msg.sender].cleanSize] -= _value;\n      minerShareFreqs[voteBook[msg.sender].minerShare] -= _value;\n      return true;\n    }\n\n    /**\n     * @dev Transfer tokens from one address to another\n     * @param _from address The address which you want to send tokens from\n     * @param _to address The address which you want to transfer to\n     * @param _value uint256 the amount of tokens to be transferred\n     */\n    function transferFrom(address _from, address _to, uint256 _value) public returns (bool) {\n      StandardToken.transferFrom(_from, _to, _value);\n      closureFeeFreqs[voteBook[_from].closureFee] -= _value;\n      cancelFeeFreqs[voteBook[_from].cancelFee] -= _value;\n      cleanSizeFreqs[voteBook[_from].cleanSize] -= _value;\n      minerShareFreqs[voteBook[_from].minerShare] -= _value;\n      return true;\n    }\n\n    /**\n     * @dev Constructor that gives msg.sender all of existing tokens.\n     * @dev Initializes token to have same parameters as exchange\n     */\n    function ValexToken(uint closureFee, uint cancelFee,\n                      uint cleanSize, uint minershare,\n                      bytes32 difficulty)\n      Exchange(closureFee, cancelFee,\n              cleanSize, minershare, difficulty)\n      public\n    {\n      totalSupply_ = initialSupply;\n      balances[msg.sender] = initialSupply;\n    }\n\n    // Distributes dividends when balance is of sufficient size\n    function distDividends()\n      internal\n    {\n      //TODO: Implement distribution\n      Exchange.distDividends();\n    }\n\n    // Voting functions for various parameters\n    // Solidity doesn't allow any meaningful abstraction\n    // Adjust relevant parameter if threshold met\n\n    // voting copy3\n    function voteClosureFee(uint desiredParam)\n      public\n    {\n      require(balances[msg.sender] > 0);\n      require(desiredParam > 0);\n      if (voteBook[msg.sender].closureFee > 0){\n        closureFeeFreqs[voteBook[msg.sender].closureFee] -= balances[msg.sender];\n      }\n      voteBook[msg.sender].closureFee = desiredParam;\n      closureFeeFreqs[desiredParam] += balances[msg.sender];\n      if (closureFeeFreqs[desiredParam] > threshold){\n        params.closureFee = desiredParam;\n      }\n    }\n\n    // voting copy3\n    function voteCancelFee(uint desiredParam)\n      public\n    {\n      require(balances[msg.sender] > 0);\n      require(desiredParam > 0);\n      if (voteBook[msg.sender].cancelFee > 0){\n        cancelFeeFreqs[voteBook[msg.sender].cancelFee] -= balances[msg.sender];\n      }\n      voteBook[msg.sender].cancelFee = desiredParam;\n      cancelFeeFreqs[desiredParam] += balances[msg.sender];\n      if (cancelFeeFreqs[desiredParam] > threshold){\n        params.cancelFee = desiredParam;\n      }\n    }\n\n    // voting copy3\n    function voteCleanSize(uint desiredParam)\n      public\n    {\n      require(balances[msg.sender] > 0);\n      require(desiredParam > 0);\n      if (voteBook[msg.sender].cleanSize > 0){\n        cleanSizeFreqs[voteBook[msg.sender].cleanSize] -= balances[msg.sender];\n      }\n      voteBook[msg.sender].cleanSize = desiredParam;\n      cleanSizeFreqs[desiredParam] += balances[msg.sender];\n      if (cleanSizeFreqs[desiredParam] > threshold){\n        params.cleanSize = desiredParam;\n      }\n    }\n\n    // voting copy3\n    function voteMinerShare(uint desiredParam)\n      public\n    {\n      require(balances[msg.sender] > 0);\n      require(desiredParam > 0);\n      if (voteBook[msg.sender].minerShare > 0){\n        minerShareFreqs[voteBook[msg.sender].minerShare] -= balances[msg.sender];\n      }\n      voteBook[msg.sender].minerShare = desiredParam;\n      minerShareFreqs[desiredParam] += balances[msg.sender];\n      if (minerShareFreqs[desiredParam] > threshold){\n        params.minerShare = desiredParam;\n      }\n    }\n\n    // TODO: Implement adding/removing chapters\n\n    // TODO: NEXT VERSION: Add vote transferring\n\n}\n",
  "sourcePath": "/Users/Karim/Desktop/Valex/contracts/ValexToken.sol",
  "compiler": {
    "name": "solc",
    "version": "0.4.18+commit.9cf6e910.Emscripten.clang"
  },
  "schemaVersion": "1.0.1",
  "updatedAt": "2018-03-27T03:27:12.724Z"
}