{
  "contractName": "ValexToken",
  "abi": [
    {
      "constant": true,
      "inputs": [],
      "name": "name",
      "outputs": [
        {
          "name": "",
          "type": "string"
        }
      ],
      "payable": false,
      "stateMutability": "view",
      "type": "function"
    },
    {
      "constant": false,
      "inputs": [
        {
          "name": "_spender",
          "type": "address"
        },
        {
          "name": "_value",
          "type": "uint256"
        }
      ],
      "name": "approve",
      "outputs": [
        {
          "name": "",
          "type": "bool"
        }
      ],
      "payable": false,
      "stateMutability": "nonpayable",
      "type": "function"
    },
    {
      "constant": true,
      "inputs": [
        {
          "name": "",
          "type": "uint256"
        },
        {
          "name": "",
          "type": "uint256"
        }
      ],
      "name": "orderBook",
      "outputs": [
        {
          "name": "buyETH",
          "type": "bool"
        },
        {
          "name": "volume",
          "type": "uint256"
        }
      ],
      "payable": false,
      "stateMutability": "view",
      "type": "function"
    },
    {
      "constant": true,
      "inputs": [],
      "name": "totalSupply",
      "outputs": [
        {
          "name": "",
          "type": "uint256"
        }
      ],
      "payable": false,
      "stateMutability": "view",
      "type": "function"
    },
    {
      "constant": false,
      "inputs": [
        {
          "name": "_from",
          "type": "address"
        },
        {
          "name": "_to",
          "type": "address"
        },
        {
          "name": "_value",
          "type": "uint256"
        }
      ],
      "name": "transferFrom",
      "outputs": [
        {
          "name": "",
          "type": "bool"
        }
      ],
      "payable": false,
      "stateMutability": "nonpayable",
      "type": "function"
    },
    {
      "constant": true,
      "inputs": [],
      "name": "decimals",
      "outputs": [
        {
          "name": "",
          "type": "uint8"
        }
      ],
      "payable": false,
      "stateMutability": "view",
      "type": "function"
    },
    {
      "constant": true,
      "inputs": [],
      "name": "initialSupply",
      "outputs": [
        {
          "name": "",
          "type": "uint256"
        }
      ],
      "payable": false,
      "stateMutability": "view",
      "type": "function"
    },
    {
      "constant": false,
      "inputs": [
        {
          "name": "buyETH",
          "type": "bool"
        },
        {
          "name": "volume",
          "type": "uint256"
        },
        {
          "name": "limit0",
          "type": "uint256"
        },
        {
          "name": "limit1",
          "type": "uint256"
        },
        {
          "name": "ethAddress",
          "type": "address"
        },
        {
          "name": "firstAddress",
          "type": "string"
        },
        {
          "name": "otherAddress",
          "type": "string"
        },
        {
          "name": "chapter",
          "type": "uint256"
        }
      ],
      "name": "placeOrder",
      "outputs": [
        {
          "name": "accepted",
          "type": "bool"
        }
      ],
      "payable": true,
      "stateMutability": "payable",
      "type": "function"
    },
    {
      "constant": false,
      "inputs": [
        {
          "name": "chapter",
          "type": "uint256"
        },
        {
          "name": "index1",
          "type": "uint256"
        },
        {
          "name": "index2",
          "type": "uint256"
        },
        {
          "name": "nonce",
          "type": "bytes32"
        },
        {
          "name": "hashVal",
          "type": "uint256"
        }
      ],
      "name": "giveMatch",
      "outputs": [
        {
          "name": "isValid",
          "type": "bool"
        }
      ],
      "payable": true,
      "stateMutability": "payable",
      "type": "function"
    },
    {
      "constant": true,
      "inputs": [
        {
          "name": "",
          "type": "address"
        },
        {
          "name": "",
          "type": "address"
        }
      ],
      "name": "allowed",
      "outputs": [
        {
          "name": "",
          "type": "uint256"
        }
      ],
      "payable": false,
      "stateMutability": "view",
      "type": "function"
    },
    {
      "constant": false,
      "inputs": [
        {
          "name": "_spender",
          "type": "address"
        },
        {
          "name": "_subtractedValue",
          "type": "uint256"
        }
      ],
      "name": "decreaseApproval",
      "outputs": [
        {
          "name": "",
          "type": "bool"
        }
      ],
      "payable": false,
      "stateMutability": "nonpayable",
      "type": "function"
    },
    {
      "constant": true,
      "inputs": [
        {
          "name": "_owner",
          "type": "address"
        }
      ],
      "name": "balanceOf",
      "outputs": [
        {
          "name": "balance",
          "type": "uint256"
        }
      ],
      "payable": false,
      "stateMutability": "view",
      "type": "function"
    },
    {
      "constant": true,
      "inputs": [],
      "name": "exBalances",
      "outputs": [
        {
          "name": "openBalance",
          "type": "uint256"
        },
        {
          "name": "closedBalance",
          "type": "uint256"
        }
      ],
      "payable": false,
      "stateMutability": "view",
      "type": "function"
    },
    {
      "constant": true,
      "inputs": [],
      "name": "symbol",
      "outputs": [
        {
          "name": "",
          "type": "string"
        }
      ],
      "payable": false,
      "stateMutability": "view",
      "type": "function"
    },
    {
      "constant": false,
      "inputs": [
        {
          "name": "_to",
          "type": "address"
        },
        {
          "name": "_value",
          "type": "uint256"
        }
      ],
      "name": "transfer",
      "outputs": [
        {
          "name": "",
          "type": "bool"
        }
      ],
      "payable": false,
      "stateMutability": "nonpayable",
      "type": "function"
    },
    {
      "constant": false,
      "inputs": [
        {
          "name": "chapter",
          "type": "uint256"
        },
        {
          "name": "index",
          "type": "uint256"
        }
      ],
      "name": "cancelOrder",
      "outputs": [
        {
          "name": "accepted",
          "type": "bool"
        }
      ],
      "payable": false,
      "stateMutability": "nonpayable",
      "type": "function"
    },
    {
      "constant": true,
      "inputs": [],
      "name": "params",
      "outputs": [
        {
          "name": "closureFeePerUnit",
          "type": "uint256"
        },
        {
          "name": "cancelFeePerUnit",
          "type": "uint256"
        },
        {
          "name": "cleanSize",
          "type": "uint256"
        },
        {
          "name": "distBalance",
          "type": "uint256"
        }
      ],
      "payable": false,
      "stateMutability": "view",
      "type": "function"
    },
    {
      "constant": false,
      "inputs": [
        {
          "name": "_spender",
          "type": "address"
        },
        {
          "name": "_addedValue",
          "type": "uint256"
        }
      ],
      "name": "increaseApproval",
      "outputs": [
        {
          "name": "",
          "type": "bool"
        }
      ],
      "payable": false,
      "stateMutability": "nonpayable",
      "type": "function"
    },
    {
      "constant": true,
      "inputs": [
        {
          "name": "_owner",
          "type": "address"
        },
        {
          "name": "_spender",
          "type": "address"
        }
      ],
      "name": "allowance",
      "outputs": [
        {
          "name": "",
          "type": "uint256"
        }
      ],
      "payable": false,
      "stateMutability": "view",
      "type": "function"
    },
    {
      "inputs": [
        {
          "name": "closureFeePerUnit",
          "type": "uint256"
        },
        {
          "name": "cancelFeePerUnit",
          "type": "uint256"
        },
        {
          "name": "margin0",
          "type": "uint256"
        },
        {
          "name": "margin1",
          "type": "uint256"
        },
        {
          "name": "cleanSize",
          "type": "uint256"
        },
        {
          "name": "minershare0",
          "type": "uint256"
        },
        {
          "name": "minerShare1",
          "type": "uint256"
        },
        {
          "name": "distBalance",
          "type": "uint256"
        }
      ],
      "payable": false,
      "stateMutability": "nonpayable",
      "type": "constructor"
    },
    {
      "anonymous": false,
      "inputs": [
        {
          "indexed": false,
          "name": "ethAddress1",
          "type": "address"
        },
        {
          "indexed": false,
          "name": "ethAddress2",
          "type": "address"
        },
        {
          "indexed": false,
          "name": "firstAddress1",
          "type": "string"
        },
        {
          "indexed": false,
          "name": "firstAddress2",
          "type": "string"
        },
        {
          "indexed": false,
          "name": "otherAddress1",
          "type": "string"
        },
        {
          "indexed": false,
          "name": "otherAddress2",
          "type": "string"
        },
        {
          "indexed": false,
          "name": "ethVol",
          "type": "uint256"
        },
        {
          "indexed": false,
          "name": "otherVol",
          "type": "uint256"
        }
      ],
      "name": "TradeInfo",
      "type": "event"
    },
    {
      "anonymous": false,
      "inputs": [
        {
          "indexed": true,
          "name": "owner",
          "type": "address"
        },
        {
          "indexed": true,
          "name": "spender",
          "type": "address"
        },
        {
          "indexed": false,
          "name": "value",
          "type": "uint256"
        }
      ],
      "name": "Approval",
      "type": "event"
    },
    {
      "anonymous": false,
      "inputs": [
        {
          "indexed": true,
          "name": "from",
          "type": "address"
        },
        {
          "indexed": true,
          "name": "to",
          "type": "address"
        },
        {
          "indexed": false,
          "name": "value",
          "type": "uint256"
        }
      ],
      "name": "Transfer",
      "type": "event"
    }
  ],
  "bytecode": "0x60606040526040805190810160405280600b81526020017f56616c657820546f6b656e0000000000000000000000000000000000000000008152506011908051906020019062000051929190620002cb565b506040805190810160405280600381526020017f564c580000000000000000000000000000000000000000000000000000000000815250601290805190602001906200009f929190620002cb565b506012601360006101000a81548160ff021916908360ff160217905550601360009054906101000a900460ff1660ff16600a0a612710026015553415620000e557600080fd5b604051610100806200383a8339810160405280805190602001909190805190602001909190805190602001909190805190602001909190805190602001909190805190602001909190805190602001909190805190602001909190505087878787878787876200017088888888888888886200022064010000000002620033ae176401000000009004565b506200018f620002c2640100000000026200344c176401000000009004565b50600f8054806001018281620001a6919062000352565b9160005260206000209001600080909190915055505050505050505050601554600081905550601554601460003373ffffffffffffffffffffffffffffffffffffffff1673ffffffffffffffffffffffffffffffffffffffff168152602001908152602001600020819055505050505050505050620003a9565b6000886003600001819055508760036001018190555086600360020160006002811015156200024b57fe5b018190555085600360020160016002811015156200026557fe5b01819055508460036004018190555083600360050160006002811015156200028957fe5b01819055508260036005016001600281101515620002a357fe5b0181905550816003600701819055506001905098975050505050505050565b60006001905090565b828054600181600116156101000203166002900490600052602060002090601f016020900481019282601f106200030e57805160ff19168380011785556200033f565b828001600101855582156200033f579182015b828111156200033e57825182559160200191906001019062000321565b5b5090506200034e919062000381565b5090565b8154818355818115116200037c578183600052602060002091820191016200037b919062000381565b5b505050565b620003a691905b80821115620003a257600081600090555060010162000388565b5090565b90565b61348180620003b96000396000f300606060405260043610610107576000357c0100000000000000000000000000000000000000000000000000000000900463ffffffff16806306fdde031461010c578063095ea7b31461019a57806314974f46146101f457806318160ddd1461023f57806323b872dd14610268578063313ce567146102e1578063378dc3dc146103105780634aed275c146103395780635a1f6393146104345780635c6581651461048c57806366188463146104f857806370a0823114610552578063737f02af1461059f57806395d89b41146105cf578063a9059cbb1461065d578063b6ed0632146106b7578063cff0ab96146106fb578063d73dd62314610739578063dd62ed3e14610793575b600080fd5b341561011757600080fd5b61011f6107ff565b6040518080602001828103825283818151815260200191508051906020019080838360005b8381101561015f578082015181840152602081019050610144565b50505050905090810190601f16801561018c5780820380516001836020036101000a031916815260200191505b509250505060405180910390f35b34156101a557600080fd5b6101da600480803573ffffffffffffffffffffffffffffffffffffffff1690602001909190803590602001909190505061089d565b604051808215151515815260200191505060405180910390f35b34156101ff57600080fd5b61021e600480803590602001909190803590602001909190505061098f565b60405180831515151581526020018281526020019250505060405180910390f35b341561024a57600080fd5b6102526109dc565b6040518082815260200191505060405180910390f35b341561027357600080fd5b6102c7600480803573ffffffffffffffffffffffffffffffffffffffff1690602001909190803573ffffffffffffffffffffffffffffffffffffffff169060200190919080359060200190919050506109e2565b604051808215151515815260200191505060405180910390f35b34156102ec57600080fd5b6102f4610da1565b604051808260ff1660ff16815260200191505060405180910390f35b341561031b57600080fd5b610323610db4565b6040518082815260200191505060405180910390f35b61041a6004808035151590602001909190803590602001909190803590602001909190803590602001909190803573ffffffffffffffffffffffffffffffffffffffff1690602001909190803590602001908201803590602001908080601f0160208091040260200160405190810160405280939291908181526020018383808284378201915050505050509190803590602001908201803590602001908080601f01602080910402602001604051908101604052809392919081815260200183838082843782019150505050505091908035906020019091905050610dba565b604051808215151515815260200191505060405180910390f35b610472600480803590602001909190803590602001909190803590602001909190803560001916906020019091908035906020019091905050610ffc565b604051808215151515815260200191505060405180910390f35b341561049757600080fd5b6104e2600480803573ffffffffffffffffffffffffffffffffffffffff1690602001909190803573ffffffffffffffffffffffffffffffffffffffff16906020019091905050611116565b6040518082815260200191505060405180910390f35b341561050357600080fd5b610538600480803573ffffffffffffffffffffffffffffffffffffffff1690602001909190803590602001909190505061113b565b604051808215151515815260200191505060405180910390f35b341561055d57600080fd5b610589600480803573ffffffffffffffffffffffffffffffffffffffff169060200190919050506113cc565b6040518082815260200191505060405180910390f35b34156105aa57600080fd5b6105b2611415565b604051808381526020018281526020019250505060405180910390f35b34156105da57600080fd5b6105e2611427565b6040518080602001828103825283818151815260200191508051906020019080838360005b83811015610622578082015181840152602081019050610607565b50505050905090810190601f16801561064f5780820380516001836020036101000a031916815260200191505b509250505060405180910390f35b341561066857600080fd5b61069d600480803573ffffffffffffffffffffffffffffffffffffffff169060200190919080359060200190919050506114c5565b604051808215151515815260200191505060405180910390f35b34156106c257600080fd5b6106e160048080359060200190919080359060200190919050506116e9565b604051808215151515815260200191505060405180910390f35b341561070657600080fd5b61070e611a02565b6040518085815260200184815260200183815260200182815260200194505050505060405180910390f35b341561074457600080fd5b610779600480803573ffffffffffffffffffffffffffffffffffffffff16906020019091908035906020019091905050611a20565b604051808215151515815260200191505060405180910390f35b341561079e57600080fd5b6107e9600480803573ffffffffffffffffffffffffffffffffffffffff1690602001909190803573ffffffffffffffffffffffffffffffffffffffff16906020019091905050611c1c565b6040518082815260200191505060405180910390f35b60118054600181600116156101000203166002900480601f0160208091040260200160405190810160405280929190818152602001828054600181600116156101000203166002900480156108955780601f1061086a57610100808354040283529160200191610895565b820191906000526020600020905b81548152906001019060200180831161087857829003601f168201915b505050505081565b600081600260003373ffffffffffffffffffffffffffffffffffffffff1673ffffffffffffffffffffffffffffffffffffffff16815260200190815260200160002060008573ffffffffffffffffffffffffffffffffffffffff1673ffffffffffffffffffffffffffffffffffffffff168152602001908152602001600020819055508273ffffffffffffffffffffffffffffffffffffffff163373ffffffffffffffffffffffffffffffffffffffff167f8c5be1e5ebec7d5bd14f71427d1e84f3dd0314c0f7b2291e5b200ac8c7c3b925846040518082815260200191505060405180910390a36001905092915050565b600d602052816000526040600020818154811015156109aa57fe5b9060005260206000209060040201600091509150508060000160009054906101000a900460ff16908060010154905082565b60005481565b60008073ffffffffffffffffffffffffffffffffffffffff168373ffffffffffffffffffffffffffffffffffffffff1614151515610a1f57600080fd5b600160008573ffffffffffffffffffffffffffffffffffffffff1673ffffffffffffffffffffffffffffffffffffffff168152602001908152602001600020548211151515610a6d57600080fd5b600260008573ffffffffffffffffffffffffffffffffffffffff1673ffffffffffffffffffffffffffffffffffffffff16815260200190815260200160002060003373ffffffffffffffffffffffffffffffffffffffff1673ffffffffffffffffffffffffffffffffffffffff168152602001908152602001600020548211151515610af857600080fd5b610b4a82600160008773ffffffffffffffffffffffffffffffffffffffff1673ffffffffffffffffffffffffffffffffffffffff16815260200190815260200160002054611ca390919063ffffffff16565b600160008673ffffffffffffffffffffffffffffffffffffffff1673ffffffffffffffffffffffffffffffffffffffff16815260200190815260200160002081905550610bdf82600160008673ffffffffffffffffffffffffffffffffffffffff1673ffffffffffffffffffffffffffffffffffffffff16815260200190815260200160002054611cbc90919063ffffffff16565b600160008573ffffffffffffffffffffffffffffffffffffffff1673ffffffffffffffffffffffffffffffffffffffff16815260200190815260200160002081905550610cb182600260008773ffffffffffffffffffffffffffffffffffffffff1673ffffffffffffffffffffffffffffffffffffffff16815260200190815260200160002060003373ffffffffffffffffffffffffffffffffffffffff1673ffffffffffffffffffffffffffffffffffffffff16815260200190815260200160002054611ca390919063ffffffff16565b600260008673ffffffffffffffffffffffffffffffffffffffff1673ffffffffffffffffffffffffffffffffffffffff16815260200190815260200160002060003373ffffffffffffffffffffffffffffffffffffffff1673ffffffffffffffffffffffffffffffffffffffff168152602001908152602001600020819055508273ffffffffffffffffffffffffffffffffffffffff168473ffffffffffffffffffffffffffffffffffffffff167fddf252ad1be2c89b69c2b068fc378daa952ba7f163c4a11628f55a4df523b3ef846040518082815260200191505060405180910390a3600190509392505050565b601360009054906101000a900460ff1681565b60155481565b6000610dc4613077565b600089111515610dd357600080fd5b600088118015610de35750600087115b1515610dee57600080fd5b8915610e12576003600001548802348a890202111515610e0d57600080fd5b610e2c565b6003600001548702348a8a0202111515610e2b57600080fd5b5b87816000600281101515610e3c57fe5b60200201818152505086816001600281101515610e5557fe5b602002018181525050600d60008481526020019081526020016000208054806001018281610e83919061309e565b916000526020600020906004020160006060604051908101604052808e151581526020018d815260200185815250909190915060008201518160000160006101000a81548160ff02191690831515021790555060208201518160010155604082015181600201906002610ef79291906130d0565b50505050600e60008481526020019081526020016000208054806001018281610f209190613110565b916000526020600020906003020160006060604051908101604052808a73ffffffffffffffffffffffffffffffffffffffff16815260200189815260200188815250909190915060008201518160000160006101000a81548173ffffffffffffffffffffffffffffffffffffffff021916908373ffffffffffffffffffffffffffffffffffffffff1602179055506020820151816001019080519060200190610fca929190613142565b506040820151816002019080519060200190610fe7929190613142565b50505050600191505098975050505050505050565b6000611006613077565b6000611013888888611cda565b158061102a5750611028338989898989612150565b155b15611038576000925061110b565b61104388888861222b565b91506003600501600160028110151561105857fe5b015482600060028110151561106957fe5b60200201516003600001546003600501600060028110151561108757fe5b0154020281151561109457fe5b0490503373ffffffffffffffffffffffffffffffffffffffff166108fc829081150290604051600060405180830381858888f1935050505015156110d757600080fd5b6110e181836124e4565b506110ee88888885612565565b506110fb88888885612a4b565b5061110588612cb1565b50600192505b505095945050505050565b6010602052816000526040600020602052806000526040600020600091509150505481565b600080600260003373ffffffffffffffffffffffffffffffffffffffff1673ffffffffffffffffffffffffffffffffffffffff16815260200190815260200160002060008573ffffffffffffffffffffffffffffffffffffffff1673ffffffffffffffffffffffffffffffffffffffff1681526020019081526020016000205490508083111561124c576000600260003373ffffffffffffffffffffffffffffffffffffffff1673ffffffffffffffffffffffffffffffffffffffff16815260200190815260200160002060008673ffffffffffffffffffffffffffffffffffffffff1673ffffffffffffffffffffffffffffffffffffffff168152602001908152602001600020819055506112e0565b61125f8382611ca390919063ffffffff16565b600260003373ffffffffffffffffffffffffffffffffffffffff1673ffffffffffffffffffffffffffffffffffffffff16815260200190815260200160002060008673ffffffffffffffffffffffffffffffffffffffff1673ffffffffffffffffffffffffffffffffffffffff168152602001908152602001600020819055505b8373ffffffffffffffffffffffffffffffffffffffff163373ffffffffffffffffffffffffffffffffffffffff167f8c5be1e5ebec7d5bd14f71427d1e84f3dd0314c0f7b2291e5b200ac8c7c3b925600260003373ffffffffffffffffffffffffffffffffffffffff1673ffffffffffffffffffffffffffffffffffffffff16815260200190815260200160002060008873ffffffffffffffffffffffffffffffffffffffff1673ffffffffffffffffffffffffffffffffffffffff168152602001908152602001600020546040518082815260200191505060405180910390a3600191505092915050565b6000600160008373ffffffffffffffffffffffffffffffffffffffff1673ffffffffffffffffffffffffffffffffffffffff168152602001908152602001600020549050919050565b600b8060000154908060010154905082565b60128054600181600116156101000203166002900480601f0160208091040260200160405190810160405280929190818152602001828054600181600116156101000203166002900480156114bd5780601f10611492576101008083540402835291602001916114bd565b820191906000526020600020905b8154815290600101906020018083116114a057829003601f168201915b505050505081565b60008073ffffffffffffffffffffffffffffffffffffffff168373ffffffffffffffffffffffffffffffffffffffff161415151561150257600080fd5b600160003373ffffffffffffffffffffffffffffffffffffffff1673ffffffffffffffffffffffffffffffffffffffff16815260200190815260200160002054821115151561155057600080fd5b6115a282600160003373ffffffffffffffffffffffffffffffffffffffff1673ffffffffffffffffffffffffffffffffffffffff16815260200190815260200160002054611ca390919063ffffffff16565b600160003373ffffffffffffffffffffffffffffffffffffffff1673ffffffffffffffffffffffffffffffffffffffff1681526020019081526020016000208190555061163782600160008673ffffffffffffffffffffffffffffffffffffffff1673ffffffffffffffffffffffffffffffffffffffff16815260200190815260200160002054611cbc90919063ffffffff16565b600160008573ffffffffffffffffffffffffffffffffffffffff1673ffffffffffffffffffffffffffffffffffffffff168152602001908152602001600020819055508273ffffffffffffffffffffffffffffffffffffffff163373ffffffffffffffffffffffffffffffffffffffff167fddf252ad1be2c89b69c2b068fc378daa952ba7f163c4a11628f55a4df523b3ef846040518082815260200191505060405180910390a36001905092915050565b6000806000600d6000868152602001908152602001600020805490508410151561171257600080fd5b600e60008681526020019081526020016000208481548110151561173257fe5b906000526020600020906003020160000160009054906101000a900473ffffffffffffffffffffffffffffffffffffffff1673ffffffffffffffffffffffffffffffffffffffff163373ffffffffffffffffffffffffffffffffffffffff1614151561179d57600080fd5b600d6000868152602001908152602001600020848154811015156117bd57fe5b906000526020600020906004020160000160009054906101000a900460ff161561182957600d60008681526020019081526020016000208481548110151561180157fe5b9060005260206000209060040201600201600060028110151561182057fe5b0154915061186d565b600d60008681526020019081526020016000208481548110151561184957fe5b9060005260206000209060040201600201600160028110151561186857fe5b015491505b60036001015460036000015403820290503373ffffffffffffffffffffffffffffffffffffffff166108fc829081150290604051600060405180830381858888f1935050505015156118be57600080fd5b6003600001548202600b6000015403600b600001819055506003600101548202600b6001015401600b60010181905550600d60008681526020019081526020016000208481548110151561190e57fe5b9060005260206000209060040201600080820160006101000a81549060ff0219169055600182016000905560028201600061194991906131c2565b5050600e60008681526020019081526020016000208481548110151561196b57fe5b9060005260206000209060030201600080820160006101000a81549073ffffffffffffffffffffffffffffffffffffffff02191690556001820160006119b191906131d0565b6002820160006119c191906131d0565b50506001600f868154811015156119d457fe5b9060005260206000209001600082825401925050819055506119f585612cb1565b5060019250505092915050565b60038060000154908060010154908060040154908060070154905084565b6000611ab182600260003373ffffffffffffffffffffffffffffffffffffffff1673ffffffffffffffffffffffffffffffffffffffff16815260200190815260200160002060008673ffffffffffffffffffffffffffffffffffffffff1673ffffffffffffffffffffffffffffffffffffffff16815260200190815260200160002054611cbc90919063ffffffff16565b600260003373ffffffffffffffffffffffffffffffffffffffff1673ffffffffffffffffffffffffffffffffffffffff16815260200190815260200160002060008573ffffffffffffffffffffffffffffffffffffffff1673ffffffffffffffffffffffffffffffffffffffff168152602001908152602001600020819055508273ffffffffffffffffffffffffffffffffffffffff163373ffffffffffffffffffffffffffffffffffffffff167f8c5be1e5ebec7d5bd14f71427d1e84f3dd0314c0f7b2291e5b200ac8c7c3b925600260003373ffffffffffffffffffffffffffffffffffffffff1673ffffffffffffffffffffffffffffffffffffffff16815260200190815260200160002060008773ffffffffffffffffffffffffffffffffffffffff1673ffffffffffffffffffffffffffffffffffffffff168152602001908152602001600020546040518082815260200191505060405180910390a36001905092915050565b6000600260008473ffffffffffffffffffffffffffffffffffffffff1673ffffffffffffffffffffffffffffffffffffffff16815260200190815260200160002060008373ffffffffffffffffffffffffffffffffffffffff1673ffffffffffffffffffffffffffffffffffffffff16815260200190815260200160002054905092915050565b6000828211151515611cb157fe5b818303905092915050565b6000808284019050838110151515611cd057fe5b8091505092915050565b6000806000611ce7613218565b611cef613218565b611cf7613077565b611d02898989612efe565b1515611d115760009550612144565b600d60008a815260200190815260200160002088815481101515611d3157fe5b906000526020600020906004020160000160009054906101000a900460ff1615611d6057879450869350611d67565b8694508793505b600d60008a815260200190815260200160002085815481101515611d8757fe5b9060005260206000209060040201606060405190810160405290816000820160009054906101000a900460ff161515151581526020016001820154815260200160028201600280602002604051908101604052809291908260028015611e02576020028201915b815481526020019060010190808311611dee575b5050505050815250509250600d60008a815260200190815260200160002084815481101515611e2d57fe5b9060005260206000209060040201606060405190810160405290816000820160009054906101000a900460ff161515151581526020016001820154815260200160028201600280602002604051908101604052809291908260028015611ea8576020028201915b815481526020019060010190808311611e94575b505050505081525050915081604001516000600281101515611ec657fe5b602002015183604001516001600281101515611ede57fe5b60200201510282604001516001600281101515611ef757fe5b602002015184604001516000600281101515611f0f57fe5b6020020151021015611f245760009550612144565b600282604001516001600281101515611f3957fe5b602002015184604001516000600281101515611f5157fe5b60200201510202816001600281101515611f6757fe5b60200201818152505081604001516001600281101515611f8357fe5b602002015183604001516000600281101515611f9b57fe5b60200201510282604001516000600281101515611fb457fe5b602002015184604001516001600281101515611fcc57fe5b60200201510201816000600281101515611fe257fe5b602002018181525050806001600281101515611ffa57fe5b602002015182602001510281600060028110151561201457fe5b602002015184602001510211156120955780600160028110151561203457fe5b60200201516003600201600160028110151561204c57fe5b01548360200151020281600060028110151561206457fe5b60200201516003600201600060028110151561207c57fe5b01548560200151020211156120945760009550612144565b5b8060006002811015156120a457fe5b60200201518360200151028160016002811015156120be57fe5b6020020151836020015102111561213f578060016002811015156120de57fe5b6020020151600360020160016002811015156120f657fe5b01548460200151020281600060028110151561210e57fe5b60200201516003600201600060028110151561212657fe5b015484602001510202111561213e5760009550612144565b5b600195505b50505050509392505050565b6000866103e8606e880181151561216357fe5b066103e8606e880181151561217457fe5b066103e8606e880181151561218557fe5b066103e8606e870181151561219657fe5b06604051808673ffffffffffffffffffffffffffffffffffffffff1673ffffffffffffffffffffffffffffffffffffffff166c0100000000000000000000000002815260140185815260200184815260200183815260200182815260200195505050505050604051809103902060001916836000191614151561221c5760009050612221565b600190505b9695505050505050565b612233613077565b6000806000806000612243613077565b600d60008b81526020019081526020016000208981548110151561226357fe5b906000526020600020906004020160000160009054906101000a900460ff161561229657889550879450600093506122a1565b879550889450600193505b600d60008b8152602001908152602001600020868154811015156122c157fe5b90600052602060002090600402019250600d60008b8152602001908152602001600020858154811015156122f157fe5b90600052602060002090600402019150600282600201600160028110151561231557fe5b015484600201600060028110151561232957fe5b0154020281600160028110151561233c57fe5b60200201818152505081600201600160028110151561235757fe5b015483600201600060028110151561236b57fe5b01540282600201600060028110151561238057fe5b015484600201600160028110151561239457fe5b015402018160006002811015156123a757fe5b60200201818152505082600101548160006002811015156123c457fe5b60200201518260016002811015156123d857fe5b60200201518460010154028115156123ec57fe5b0411151561246657816001015487600060028110151561240857fe5b60200201818152505080600160028110151561242057fe5b602002015181600060028110151561243457fe5b602002015184600101540281151561244857fe5b0487600160028110151561245857fe5b6020020181815250506124d4565b80600160028110151561247557fe5b602002015181600060028110151561248957fe5b602002015184600101540281151561249d57fe5b048760006002811015156124ad57fe5b60200201818152505082600101548760016002811015156124ca57fe5b6020020181815250505b8696505050505050509392505050565b60008160006002811015156124f557fe5b602002015160036000015402600b6000015403600b6000018190555081600060028110151561252057fe5b60200201516003600001540283600b600101540301600b60010181905550600360070154600b6001015410151561255b57612559613064565b505b6001905092915050565b6000806000600d60008881526020019081526020016000208681548110151561258a57fe5b906000526020600020906004020160000160009054906101000a900460ff16156125df578360006002811015156125bd57fe5b602002015191508360016002811015156125d357fe5b6020020151905061260c565b8360006002811015156125ee57fe5b6020020151915083600160028110151561260457fe5b602002015190505b7f17fad608e647bf180e9f2d2542498a2ec81fb1cb077d60802b67b21d64adc9b8600e60008981526020019081526020016000208781548110151561264d57fe5b906000526020600020906003020160000160009054906101000a900473ffffffffffffffffffffffffffffffffffffffff16600e60008a81526020019081526020016000208781548110151561269f57fe5b906000526020600020906003020160000160009054906101000a900473ffffffffffffffffffffffffffffffffffffffff16600e60008b8152602001908152602001600020898154811015156126f157fe5b9060005260206000209060030201600101600e60008c81526020019081526020016000208981548110151561272257fe5b9060005260206000209060030201600101600e60008d81526020019081526020016000208b81548110151561275357fe5b9060005260206000209060030201600201600e60008e81526020019081526020016000208b81548110151561278457fe5b90600052602060002090600302016002018888604051808973ffffffffffffffffffffffffffffffffffffffff1673ffffffffffffffffffffffffffffffffffffffff1681526020018873ffffffffffffffffffffffffffffffffffffffff1673ffffffffffffffffffffffffffffffffffffffff1681526020018060200180602001806020018060200187815260200186815260200185810385528b81815460018160011615610100020316600290048152602001915080546001816001161561010002031660029004801561289c5780601f106128715761010080835404028352916020019161289c565b820191906000526020600020905b81548152906001019060200180831161287f57829003601f168201915b505085810384528a81815460018160011615610100020316600290048152602001915080546001816001161561010002031660029004801561291f5780601f106128f45761010080835404028352916020019161291f565b820191906000526020600020905b81548152906001019060200180831161290257829003601f168201915b50508581038352898181546001816001161561010002031660029004815260200191508054600181600116156101000203166002900480156129a25780601f10612977576101008083540402835291602001916129a2565b820191906000526020600020905b81548152906001019060200180831161298557829003601f168201915b5050858103825288818154600181600116156101000203166002900481526020019150805460018160011615610100020316600290048015612a255780601f106129fa57610100808354040283529160200191612a25565b820191906000526020600020905b815481529060010190602001808311612a0857829003601f168201915b50509c5050505050505050505050505060405180910390a1600192505050949350505050565b6000816000600281101515612a5c57fe5b6020020151600d600087815260200190815260200160002085815481101515612a8157fe5b9060005260206000209060040201600101541415612afc57600d600086815260200190815260200160002084815481101515612ab957fe5b9060005260206000209060040201600101600090556001600f86815481101515612adf57fe5b906000526020600020900160008282540192505081905550612b79565b816000600281101515612b0b57fe5b6020020151600d600087815260200190815260200160002085815481101515612b3057fe5b90600052602060002090600402016001015403600d600087815260200190815260200160002085815481101515612b6357fe5b9060005260206000209060040201600101819055505b816001600281101515612b8857fe5b6020020151600d600087815260200190815260200160002084815481101515612bad57fe5b9060005260206000209060040201600101541415612c2857600d600086815260200190815260200160002083815481101515612be557fe5b9060005260206000209060040201600101600090556001600f86815481101515612c0b57fe5b906000526020600020900160008282540192505081905550612ca5565b816001600281101515612c3757fe5b6020020151600d600087815260200190815260200160002084815481101515612c5c57fe5b90600052602060002090600402016001015403600d600087815260200190815260200160002084815481101515612c8f57fe5b9060005260206000209060040201600101819055505b60019050949350505050565b600080600360040154600f84815481101515612cc957fe5b9060005260206000209001541015612ce45760009150612ef8565b600090505b600d600084815260200190815260200160002080549050811015612e81576000600d600085815260200190815260200160002082815481101515612d2957fe5b9060005260206000209060040201600101541415612e74576001600d60008581526020019081526020016000208054905003811015612e7357600d600084815260200190815260200160002060018201815481101515612d8557fe5b9060005260206000209060040201600d600085815260200190815260200160002082815481101515612db357fe5b90600052602060002090600402016000820160009054906101000a900460ff168160000160006101000a81548160ff021916908315150217905550600182015481600101556002820181600201906002612e0e929190613242565b50905050600d600084815260200190815260200160002060018201815481101515612e3557fe5b9060005260206000209060040201600080820160006101000a81549060ff02191690556001820160009055600282016000612e7091906131c2565b50505b5b8080600101915050612ce9565b600f83815481101515612e9057fe5b906000526020600020900154600d60008581526020019081526020016000208054905003600d600085815260200190815260200160002081612ed2919061327f565b506000600f84815481101515612ee457fe5b906000526020600020900181905550600191505b50919050565b6000600d60008581526020019081526020016000208054905083101515612f2457600080fd5b600d60008581526020019081526020016000208054905082101515612f4857600080fd5b600d600085815260200190815260200160002082815481101515612f6857fe5b906000526020600020906004020160000160009054906101000a900460ff161515600d600086815260200190815260200160002084815481101515612fa957fe5b906000526020600020906004020160000160009054906101000a900460ff16151514151515612fd757600080fd5b6000600d600086815260200190815260200160002084815481101515612ff957fe5b9060005260206000209060040201600101541415151561301857600080fd5b6000600d60008681526020019081526020016000208381548110151561303a57fe5b9060005260206000209060040201600101541415151561305957600080fd5b600190509392505050565b600080600b600101819055506001905090565b60408051908101604052806002905b60008152602001906001900390816130865790505090565b8154818355818115116130cb576004028160040283600052602060002091820191016130ca91906132b1565b5b505050565b82600281019282156130ff579160200282015b828111156130fe5782518255916020019190600101906130e3565b5b50905061310c91906132fc565b5090565b81548183558181151161313d5760030281600302836000526020600020918201910161313c9190613321565b5b505050565b828054600181600116156101000203166002900490600052602060002090601f016020900481019282601f1061318357805160ff19168380011785556131b1565b828001600101855582156131b1579182015b828111156131b0578251825591602001919060010190613195565b5b5090506131be91906132fc565b5090565b506000815560010160009055565b50805460018160011615610100020316600290046000825580601f106131f65750613215565b601f01602090049060005260206000209081019061321491906132fc565b5b50565b6080604051908101604052806000151581526020016000815260200161323c613387565b81525090565b826002810192821561326e579182015b8281111561326d578254825591600101919060010190613252565b5b50905061327b91906132fc565b5090565b8154818355818115116132ac576004028160040283600052602060002091820191016132ab91906132b1565b5b505050565b6132f991905b808211156132f557600080820160006101000a81549060ff021916905560018201600090556002820160006132ec91906131c2565b506004016132b7565b5090565b90565b61331e91905b8082111561331a576000816000905550600101613302565b5090565b90565b61338491905b8082111561338057600080820160006101000a81549073ffffffffffffffffffffffffffffffffffffffff021916905560018201600061336791906131d0565b60028201600061337791906131d0565b50600301613327565b5090565b90565b60408051908101604052806002905b60008152602001906001900390816133965790505090565b6000886003600001819055508760036001018190555086600360020160006002811015156133d857fe5b018190555085600360020160016002811015156133f157fe5b018190555084600360040181905550836003600501600060028110151561341457fe5b0181905550826003600501600160028110151561342d57fe5b0181905550816003600701819055506001905098975050505050505050565b600060019050905600a165627a7a72305820bc910cdd00bd276ae68a2234e1e2290ac84a97771d9b99140020e19567c6c9b60029",
  "source": "pragma solidity ^0.4.18;\n\nimport 'zeppelin-solidity/contracts/math/SafeMath.sol';\nimport 'zeppelin-solidity/contracts/token/StandardToken.sol';\nimport './Exchange.sol';\n\n\n/// @title ValexToken\n/// @author Karim Helmy\n\n// Parts sourced from https://github.com/bokkypoobah/Tokens/blob/master/contracts/FixedSupplyToken.sol\n\n// ----------------------------------------------------------------------------\n// 'VLX' 'Valex Token' token contract\n//\n// Symbol      : VLX\n// Name        : Valex Token\n// Total supply: 1,000,000.000000000000000000\n// Decimals    : 18\n//\n// ----------------------------------------------------------------------------\n\n// ----------------------------------------------------------------------------\n// ERC20 Token, with the addition of symbol, name and decimals and an\n// initial fixed supply\n// ----------------------------------------------------------------------------\ncontract ValexToken is StandardToken, Exchange {\n    using SafeMath for uint;\n\n    mapping(address => mapping(address => uint)) public allowed;\n\n    string public name = \"Valex Token\";\n    string public symbol = \"VLX\";\n    uint8 public decimals = 18;\n\n    mapping(address => uint256) balances;\n\n    uint256 public initialSupply = 10000 * (10 ** uint256(decimals));\n\n    /**\n     * @dev Constructor that gives msg.sender all of existing tokens.\n     * @dev Initializes token to have same parameters as exchange\n     */\n    function ValexToken(uint closureFeePerUnit, uint cancelFeePerUnit,\n                      uint margin0, uint margin1, uint cleanSize,\n                      uint minershare0, uint minerShare1, uint distBalance)\n      Exchange(closureFeePerUnit, cancelFeePerUnit,\n              margin0, margin1, cleanSize,\n              minershare0, minerShare1, distBalance)\n      public\n    {\n      totalSupply = initialSupply;\n      balances[msg.sender] = initialSupply;\n    }\n    //TODO: Implement voting/parameter modification\n\n}\n",
  "sourcePath": "/Users/Karim/Desktop/Valex/contracts/ValexToken.sol",
  "compiler": {
    "name": "solc",
    "version": "0.4.18+commit.9cf6e910.Emscripten.clang"
  },
  "schemaVersion": "1.0.1",
  "updatedAt": "2018-01-11T22:43:12.407Z"
}