{
  "contractName": "ValexToken",
  "abi": [
    {
      "constant": true,
      "inputs": [],
      "name": "name",
      "outputs": [
        {
          "name": "",
          "type": "string"
        }
      ],
      "payable": false,
      "stateMutability": "view",
      "type": "function"
    },
    {
      "constant": false,
      "inputs": [
        {
          "name": "_spender",
          "type": "address"
        },
        {
          "name": "_value",
          "type": "uint256"
        }
      ],
      "name": "approve",
      "outputs": [
        {
          "name": "",
          "type": "bool"
        }
      ],
      "payable": false,
      "stateMutability": "nonpayable",
      "type": "function"
    },
    {
      "constant": true,
      "inputs": [
        {
          "name": "",
          "type": "uint256"
        },
        {
          "name": "",
          "type": "uint256"
        },
        {
          "name": "",
          "type": "uint256"
        }
      ],
      "name": "secondAddressBook",
      "outputs": [
        {
          "name": "",
          "type": "bytes32"
        }
      ],
      "payable": false,
      "stateMutability": "view",
      "type": "function"
    },
    {
      "constant": true,
      "inputs": [
        {
          "name": "chapter",
          "type": "uint256"
        }
      ],
      "name": "getSecondAddressChapter",
      "outputs": [
        {
          "name": "secondAddressChapter",
          "type": "bytes32[2][]"
        }
      ],
      "payable": false,
      "stateMutability": "view",
      "type": "function"
    },
    {
      "constant": true,
      "inputs": [],
      "name": "totalSupply",
      "outputs": [
        {
          "name": "",
          "type": "uint256"
        }
      ],
      "payable": false,
      "stateMutability": "view",
      "type": "function"
    },
    {
      "constant": false,
      "inputs": [
        {
          "name": "_from",
          "type": "address"
        },
        {
          "name": "_to",
          "type": "address"
        },
        {
          "name": "_value",
          "type": "uint256"
        }
      ],
      "name": "transferFrom",
      "outputs": [
        {
          "name": "",
          "type": "bool"
        }
      ],
      "payable": false,
      "stateMutability": "nonpayable",
      "type": "function"
    },
    {
      "constant": true,
      "inputs": [],
      "name": "decimals",
      "outputs": [
        {
          "name": "",
          "type": "uint8"
        }
      ],
      "payable": false,
      "stateMutability": "view",
      "type": "function"
    },
    {
      "constant": true,
      "inputs": [
        {
          "name": "",
          "type": "uint256"
        },
        {
          "name": "",
          "type": "uint256"
        },
        {
          "name": "",
          "type": "uint256"
        }
      ],
      "name": "firstAddressBook",
      "outputs": [
        {
          "name": "",
          "type": "bytes32"
        }
      ],
      "payable": false,
      "stateMutability": "view",
      "type": "function"
    },
    {
      "constant": true,
      "inputs": [],
      "name": "initialSupply",
      "outputs": [
        {
          "name": "",
          "type": "uint256"
        }
      ],
      "payable": false,
      "stateMutability": "view",
      "type": "function"
    },
    {
      "constant": true,
      "inputs": [
        {
          "name": "",
          "type": "uint256"
        },
        {
          "name": "",
          "type": "uint256"
        }
      ],
      "name": "buyBook",
      "outputs": [
        {
          "name": "",
          "type": "bool"
        }
      ],
      "payable": false,
      "stateMutability": "view",
      "type": "function"
    },
    {
      "constant": true,
      "inputs": [
        {
          "name": "chapter",
          "type": "uint256"
        }
      ],
      "name": "getOrderChapter",
      "outputs": [
        {
          "name": "buyChapter",
          "type": "bool[]"
        },
        {
          "name": "volChapter",
          "type": "uint256[]"
        },
        {
          "name": "minVolChapter",
          "type": "uint256[]"
        },
        {
          "name": "limitChapter",
          "type": "uint256[]"
        }
      ],
      "payable": false,
      "stateMutability": "view",
      "type": "function"
    },
    {
      "constant": true,
      "inputs": [],
      "name": "threshold",
      "outputs": [
        {
          "name": "",
          "type": "uint256"
        }
      ],
      "payable": false,
      "stateMutability": "view",
      "type": "function"
    },
    {
      "constant": false,
      "inputs": [
        {
          "name": "buyETH",
          "type": "bool"
        },
        {
          "name": "volume",
          "type": "uint256"
        },
        {
          "name": "minVolume",
          "type": "uint256"
        },
        {
          "name": "limit",
          "type": "uint256"
        },
        {
          "name": "ethAddress",
          "type": "address"
        },
        {
          "name": "firstAddress",
          "type": "bytes32[2]"
        },
        {
          "name": "otherAddress",
          "type": "bytes32[2]"
        },
        {
          "name": "chapter",
          "type": "uint256"
        }
      ],
      "name": "placeOrder",
      "outputs": [
        {
          "name": "accepted",
          "type": "bool"
        }
      ],
      "payable": true,
      "stateMutability": "payable",
      "type": "function"
    },
    {
      "constant": true,
      "inputs": [
        {
          "name": "",
          "type": "uint256"
        },
        {
          "name": "",
          "type": "uint256"
        }
      ],
      "name": "ethAddressBook",
      "outputs": [
        {
          "name": "",
          "type": "address"
        }
      ],
      "payable": false,
      "stateMutability": "view",
      "type": "function"
    },
    {
      "constant": true,
      "inputs": [],
      "name": "distCycle",
      "outputs": [
        {
          "name": "",
          "type": "uint256"
        }
      ],
      "payable": false,
      "stateMutability": "view",
      "type": "function"
    },
    {
      "constant": false,
      "inputs": [
        {
          "name": "_spender",
          "type": "address"
        },
        {
          "name": "_subtractedValue",
          "type": "uint256"
        }
      ],
      "name": "decreaseApproval",
      "outputs": [
        {
          "name": "",
          "type": "bool"
        }
      ],
      "payable": false,
      "stateMutability": "nonpayable",
      "type": "function"
    },
    {
      "constant": false,
      "inputs": [
        {
          "name": "desiredParam",
          "type": "uint256"
        }
      ],
      "name": "voteMinerShare",
      "outputs": [],
      "payable": false,
      "stateMutability": "nonpayable",
      "type": "function"
    },
    {
      "constant": true,
      "inputs": [
        {
          "name": "_owner",
          "type": "address"
        }
      ],
      "name": "balanceOf",
      "outputs": [
        {
          "name": "balance",
          "type": "uint256"
        }
      ],
      "payable": false,
      "stateMutability": "view",
      "type": "function"
    },
    {
      "constant": true,
      "inputs": [
        {
          "name": "",
          "type": "uint256"
        },
        {
          "name": "",
          "type": "uint256"
        }
      ],
      "name": "limitBook",
      "outputs": [
        {
          "name": "",
          "type": "uint256"
        }
      ],
      "payable": false,
      "stateMutability": "view",
      "type": "function"
    },
    {
      "constant": true,
      "inputs": [],
      "name": "DISTTIME",
      "outputs": [
        {
          "name": "",
          "type": "uint256"
        }
      ],
      "payable": false,
      "stateMutability": "view",
      "type": "function"
    },
    {
      "constant": true,
      "inputs": [],
      "name": "owner",
      "outputs": [
        {
          "name": "",
          "type": "address"
        }
      ],
      "payable": false,
      "stateMutability": "view",
      "type": "function"
    },
    {
      "constant": true,
      "inputs": [
        {
          "name": "chapter",
          "type": "uint256"
        },
        {
          "name": "index1",
          "type": "uint256"
        },
        {
          "name": "index2",
          "type": "uint256"
        }
      ],
      "name": "calcRateAndVol",
      "outputs": [
        {
          "name": "mimRate",
          "type": "uint256"
        },
        {
          "name": "ethVol",
          "type": "uint256"
        }
      ],
      "payable": false,
      "stateMutability": "view",
      "type": "function"
    },
    {
      "constant": true,
      "inputs": [],
      "name": "openBalance",
      "outputs": [
        {
          "name": "",
          "type": "uint256"
        }
      ],
      "payable": false,
      "stateMutability": "view",
      "type": "function"
    },
    {
      "constant": true,
      "inputs": [],
      "name": "symbol",
      "outputs": [
        {
          "name": "",
          "type": "string"
        }
      ],
      "payable": false,
      "stateMutability": "view",
      "type": "function"
    },
    {
      "constant": true,
      "inputs": [
        {
          "name": "",
          "type": "uint256"
        },
        {
          "name": "",
          "type": "uint256"
        }
      ],
      "name": "minVolBook",
      "outputs": [
        {
          "name": "",
          "type": "uint256"
        }
      ],
      "payable": false,
      "stateMutability": "view",
      "type": "function"
    },
    {
      "constant": false,
      "inputs": [
        {
          "name": "_newOwner",
          "type": "address"
        }
      ],
      "name": "changeOwner",
      "outputs": [],
      "payable": false,
      "stateMutability": "nonpayable",
      "type": "function"
    },
    {
      "constant": false,
      "inputs": [
        {
          "name": "_to",
          "type": "address"
        },
        {
          "name": "_value",
          "type": "uint256"
        }
      ],
      "name": "transfer",
      "outputs": [
        {
          "name": "",
          "type": "bool"
        }
      ],
      "payable": false,
      "stateMutability": "nonpayable",
      "type": "function"
    },
    {
      "constant": true,
      "inputs": [],
      "name": "distPerToken",
      "outputs": [
        {
          "name": "",
          "type": "uint256"
        }
      ],
      "payable": false,
      "stateMutability": "view",
      "type": "function"
    },
    {
      "constant": true,
      "inputs": [],
      "name": "PRECISION",
      "outputs": [
        {
          "name": "",
          "type": "uint256"
        }
      ],
      "payable": false,
      "stateMutability": "view",
      "type": "function"
    },
    {
      "constant": false,
      "inputs": [
        {
          "name": "desiredParam",
          "type": "uint256"
        }
      ],
      "name": "voteCleanSize",
      "outputs": [],
      "payable": false,
      "stateMutability": "nonpayable",
      "type": "function"
    },
    {
      "constant": true,
      "inputs": [],
      "name": "lastDist",
      "outputs": [
        {
          "name": "",
          "type": "uint256"
        }
      ],
      "payable": false,
      "stateMutability": "view",
      "type": "function"
    },
    {
      "constant": false,
      "inputs": [
        {
          "name": "chapter",
          "type": "uint256"
        },
        {
          "name": "index",
          "type": "uint256"
        }
      ],
      "name": "cancelOrder",
      "outputs": [
        {
          "name": "accepted",
          "type": "bool"
        }
      ],
      "payable": false,
      "stateMutability": "nonpayable",
      "type": "function"
    },
    {
      "constant": false,
      "inputs": [
        {
          "name": "chapter",
          "type": "uint256"
        }
      ],
      "name": "addChapter",
      "outputs": [],
      "payable": false,
      "stateMutability": "nonpayable",
      "type": "function"
    },
    {
      "constant": false,
      "inputs": [
        {
          "name": "desiredParam",
          "type": "uint256"
        }
      ],
      "name": "voteClosureFee",
      "outputs": [],
      "payable": false,
      "stateMutability": "nonpayable",
      "type": "function"
    },
    {
      "constant": false,
      "inputs": [
        {
          "name": "_collector",
          "type": "address"
        }
      ],
      "name": "collectDividends",
      "outputs": [],
      "payable": false,
      "stateMutability": "nonpayable",
      "type": "function"
    },
    {
      "constant": false,
      "inputs": [
        {
          "name": "desiredParam",
          "type": "uint256"
        }
      ],
      "name": "voteCancelFee",
      "outputs": [],
      "payable": false,
      "stateMutability": "nonpayable",
      "type": "function"
    },
    {
      "constant": true,
      "inputs": [],
      "name": "params",
      "outputs": [
        {
          "name": "closureFee",
          "type": "uint256"
        },
        {
          "name": "cancelFee",
          "type": "uint256"
        },
        {
          "name": "cleanSize",
          "type": "uint256"
        },
        {
          "name": "minerShare",
          "type": "uint256"
        },
        {
          "name": "difficulty",
          "type": "bytes32"
        }
      ],
      "payable": false,
      "stateMutability": "view",
      "type": "function"
    },
    {
      "constant": false,
      "inputs": [
        {
          "name": "depositAddress",
          "type": "address"
        },
        {
          "name": "chapter",
          "type": "uint256"
        },
        {
          "name": "index1",
          "type": "uint256"
        },
        {
          "name": "index2",
          "type": "uint256"
        },
        {
          "name": "nonce",
          "type": "uint256"
        }
      ],
      "name": "giveMatch",
      "outputs": [
        {
          "name": "isValid",
          "type": "bool"
        }
      ],
      "payable": false,
      "stateMutability": "nonpayable",
      "type": "function"
    },
    {
      "constant": false,
      "inputs": [
        {
          "name": "_spender",
          "type": "address"
        },
        {
          "name": "_addedValue",
          "type": "uint256"
        }
      ],
      "name": "increaseApproval",
      "outputs": [
        {
          "name": "",
          "type": "bool"
        }
      ],
      "payable": false,
      "stateMutability": "nonpayable",
      "type": "function"
    },
    {
      "constant": true,
      "inputs": [
        {
          "name": "_owner",
          "type": "address"
        },
        {
          "name": "_spender",
          "type": "address"
        }
      ],
      "name": "allowance",
      "outputs": [
        {
          "name": "",
          "type": "uint256"
        }
      ],
      "payable": false,
      "stateMutability": "view",
      "type": "function"
    },
    {
      "constant": true,
      "inputs": [
        {
          "name": "chapter",
          "type": "uint256"
        }
      ],
      "name": "getETHAddressChapter",
      "outputs": [
        {
          "name": "ethAddressChapter",
          "type": "address[]"
        }
      ],
      "payable": false,
      "stateMutability": "view",
      "type": "function"
    },
    {
      "constant": true,
      "inputs": [
        {
          "name": "",
          "type": "uint256"
        },
        {
          "name": "",
          "type": "uint256"
        }
      ],
      "name": "volBook",
      "outputs": [
        {
          "name": "",
          "type": "uint256"
        }
      ],
      "payable": false,
      "stateMutability": "view",
      "type": "function"
    },
    {
      "constant": true,
      "inputs": [
        {
          "name": "chapter",
          "type": "uint256"
        }
      ],
      "name": "getFirstAddressChapter",
      "outputs": [
        {
          "name": "firstAddressChapter",
          "type": "bytes32[2][]"
        }
      ],
      "payable": false,
      "stateMutability": "view",
      "type": "function"
    },
    {
      "inputs": [
        {
          "name": "closureFee",
          "type": "uint256"
        },
        {
          "name": "cancelFee",
          "type": "uint256"
        },
        {
          "name": "cleanSize",
          "type": "uint256"
        },
        {
          "name": "minershare",
          "type": "uint256"
        },
        {
          "name": "difficulty",
          "type": "bytes32"
        }
      ],
      "payable": false,
      "stateMutability": "nonpayable",
      "type": "constructor"
    },
    {
      "anonymous": false,
      "inputs": [
        {
          "indexed": true,
          "name": "owner",
          "type": "address"
        },
        {
          "indexed": true,
          "name": "spender",
          "type": "address"
        },
        {
          "indexed": false,
          "name": "value",
          "type": "uint256"
        }
      ],
      "name": "Approval",
      "type": "event"
    },
    {
      "anonymous": false,
      "inputs": [
        {
          "indexed": true,
          "name": "from",
          "type": "address"
        },
        {
          "indexed": true,
          "name": "to",
          "type": "address"
        },
        {
          "indexed": false,
          "name": "value",
          "type": "uint256"
        }
      ],
      "name": "Transfer",
      "type": "event"
    },
    {
      "anonymous": false,
      "inputs": [
        {
          "indexed": false,
          "name": "ethAddress1",
          "type": "address"
        },
        {
          "indexed": false,
          "name": "ethAddress2",
          "type": "address"
        },
        {
          "indexed": false,
          "name": "firstAddress1",
          "type": "bytes32[2]"
        },
        {
          "indexed": false,
          "name": "firstAddress2",
          "type": "bytes32[2]"
        },
        {
          "indexed": false,
          "name": "otherAddress1",
          "type": "bytes32[2]"
        },
        {
          "indexed": false,
          "name": "otherAddress2",
          "type": "bytes32[2]"
        },
        {
          "indexed": false,
          "name": "mimRate",
          "type": "uint256"
        },
        {
          "indexed": false,
          "name": "ethVol",
          "type": "uint256"
        }
      ],
      "name": "TradeInfo",
      "type": "event"
    }
  ],
  "bytecode": "0x6060604052670de0b6b3a7640000600055600060015533600f60006101000a81548173ffffffffffffffffffffffffffffffffffffffff021916908373ffffffffffffffffffffffffffffffffffffffff1602179055506040805190810160405280600b81526020017f56616c657820546f6b656e00000000000000000000000000000000000000000081525060139080519060200190620000a39291906200058a565b506040805190810160405280600381526020017f564c58000000000000000000000000000000000000000000000000000000000081525060149080519060200190620000f19291906200058a565b506012601560006101000a81548160ff021916908360ff160217905550601560009054906101000a900460ff1660ff16600a0a61271002601655603360646016548115156200013c57fe5b0402601c5562eff100601d5542601e556000601f55600060205534156200016257600080fd5b60405160a08062005fe9833981016040528080519060200190919080519060200190919080519060200190919080519060200190919080519060200190919050508484848484620001cb85858585856200024a64010000000002620057b6176401000000009004565b620001eb6000620002866401000000000262003004176401000000009004565b5050505050601654601181905550601654601060003373ffffffffffffffffffffffffffffffffffffffff1673ffffffffffffffffffffffffffffffffffffffff168152602001908152602001600020819055505050505050620007bb565b84600260000181905550836002600101819055508260028001819055508160026003018190555080600260040181600019169055505050505050565b600f60009054906101000a900473ffffffffffffffffffffffffffffffffffffffff168073ffffffffffffffffffffffffffffffffffffffff163373ffffffffffffffffffffffffffffffffffffffff16141515620002e457600080fd5b6007600083815260200190815260200160002080548060010182816200030b919062000611565b91600052602060002090602091828204019190066000909190916101000a81548160ff021916908315150217905550506008600083815260200190815260200160002080548060010182816200036291906200064e565b9160005260206000209001600080909190915055506009600083815260200190815260200160002080548060010182816200039e91906200064e565b916000526020600020900160008090919091505550600a60008381526020019081526020016000208054806001018281620003da91906200064e565b916000526020600020900160008090919091505550600b600083815260200190815260200160002080548060010182816200041691906200067d565b9160005260206000209001600080909190916101000a81548173ffffffffffffffffffffffffffffffffffffffff021916908373ffffffffffffffffffffffffffffffffffffffff16021790555050600c600083815260200190815260200160002080548060010182816200048c9190620006ac565b916000526020600020906002020160006040805190810160405280600060010260001916600019168152602001600060010260001916600019168152509091909150906002620004de929190620006e1565b5050600d60008381526020019081526020016000208054806001018281620005079190620006ac565b91600052602060002090600202016000604080519081016040528060006001026000191660001916815260200160006001026000191660001916815250909190915090600262000559929190620006e1565b5050600e80548060010182816200057191906200064e565b9160005260206000209001600080909190915055505050565b828054600181600116156101000203166002900490600052602060002090601f016020900481019282601f10620005cd57805160ff1916838001178555620005fe565b82800160010185558215620005fe579182015b82811115620005fd578251825591602001919060010190620005e0565b5b5090506200060d91906200072c565b5090565b8154818355818115116200064957601f016020900481601f016020900483600052602060002091820191016200064891906200072c565b5b505050565b81548183558181151162000678578183600052602060002091820191016200067791906200072c565b5b505050565b815481835581811511620006a757818360005260206000209182019101620006a691906200072c565b5b505050565b815481835581811511620006dc57600202816002028360005260206000209182019101620006db919062000754565b5b505050565b826002810192821562000719579160200282015b8281111562000718578251829060001916905591602001919060010190620006f5565b5b50905062000728919062000785565b5090565b6200075191905b808211156200074d57600081600090555060010162000733565b5090565b90565b6200078291905b808211156200077e5760008181620007749190620007ad565b506002016200075b565b5090565b90565b620007aa91905b80821115620007a65760008160009055506001016200078c565b5090565b90565b506000815560010160009055565b61581e80620007cb6000396000f30060606040526004361061020f576000357c0100000000000000000000000000000000000000000000000000000000900463ffffffff16806306fdde0314610214578063095ea7b3146102a257806310fc8a15146102fc578063145404fc1461034d57806318160ddd146103e857806323b872dd14610411578063313ce5671461048a578063324a1467146104b9578063378dc3dc1461050a5780633af8c2d5146105335780633b6a08001461057757806342cde4e8146106c757806349827685146106f057806353c1d882146107bd57806357627e9314610829578063661884631461085257806369f99f80146108ac57806370a08231146108cf5780638139cbc61461091c5780638a0c528a1461095c5780638da5cb5b146109855780638eae03d2146109da5780639138ec3a14610a2a57806395d89b4114610a535780639febbcfa14610ae1578063a6f9dae114610b21578063a9059cbb14610b5a578063a9ea682914610bb4578063aaf5eb6814610bdd578063af87439e14610c06578063b194624314610c29578063b6ed063214610c52578063c759b91e14610c96578063c932aa7b14610cb9578063c93ceec814610cdc578063ca7f74ea14610d15578063cff0ab9614610d38578063d2426ab914610d85578063d73dd62314610dfa578063dd62ed3e14610e54578063e0cfdce014610ec0578063e0f1f59f14610f38578063ee4b94bb14610f78575b600080fd5b341561021f57600080fd5b610227611013565b6040518080602001828103825283818151815260200191508051906020019080838360005b8381101561026757808201518184015260208101905061024c565b50505050905090810190601f1680156102945780820380516001836020036101000a031916815260200191505b509250505060405180910390f35b34156102ad57600080fd5b6102e2600480803573ffffffffffffffffffffffffffffffffffffffff169060200190919080359060200190919050506110b1565b604051808215151515815260200191505060405180910390f35b341561030757600080fd5b61032f60048080359060200190919080359060200190919080359060200190919050506111a3565b60405180826000191660001916815260200191505060405180910390f35b341561035857600080fd5b61036e60048080359060200190919050506111e6565b60405180806020018281038252838181518152602001915080516000925b818410156103d757828490602001906020020151600260200280838360005b838110156103c65780820151818401526020810190506103ab565b50505050905001926001019261038c565b925050509250505060405180910390f35b34156103f357600080fd5b6103fb611293565b6040518082815260200191505060405180910390f35b341561041c57600080fd5b610470600480803573ffffffffffffffffffffffffffffffffffffffff1690602001909190803573ffffffffffffffffffffffffffffffffffffffff1690602001909190803590602001909190505061129d565b604051808215151515815260200191505060405180910390f35b341561049557600080fd5b61049d611690565b604051808260ff1660ff16815260200191505060405180910390f35b34156104c457600080fd5b6104ec60048080359060200190919080359060200190919080359060200190919050506116a3565b60405180826000191660001916815260200191505060405180910390f35b341561051557600080fd5b61051d6116e6565b6040518082815260200191505060405180910390f35b341561053e57600080fd5b61055d60048080359060200190919080359060200190919050506116ec565b604051808215151515815260200191505060405180910390f35b341561058257600080fd5b610598600480803590602001909190505061172e565b6040518080602001806020018060200180602001858103855289818151815260200191508051906020019060200280838360005b838110156105e75780820151818401526020810190506105cc565b50505050905001858103845288818151815260200191508051906020019060200280838360005b8381101561062957808201518184015260208101905061060e565b50505050905001858103835287818151815260200191508051906020019060200280838360005b8381101561066b578082015181840152602081019050610650565b50505050905001858103825286818151815260200191508051906020019060200280838360005b838110156106ad578082015181840152602081019050610692565b505050509050019850505050505050505060405180910390f35b34156106d257600080fd5b6106da611916565b6040518082815260200191505060405180910390f35b6107a36004808035151590602001909190803590602001909190803590602001909190803590602001909190803573ffffffffffffffffffffffffffffffffffffffff169060200190919080604001906002806020026040519081016040528092919082600260200280828437820191505050505091908060400190600280602002604051908101604052809291908260026020028082843782019150505050509190803590602001909190505061191c565b604051808215151515815260200191505060405180910390f35b34156107c857600080fd5b6107e76004808035906020019091908035906020019091905050611c2f565b604051808273ffffffffffffffffffffffffffffffffffffffff1673ffffffffffffffffffffffffffffffffffffffff16815260200191505060405180910390f35b341561083457600080fd5b61083c611c7d565b6040518082815260200191505060405180910390f35b341561085d57600080fd5b610892600480803573ffffffffffffffffffffffffffffffffffffffff16906020019091908035906020019091905050611c83565b604051808215151515815260200191505060405180910390f35b34156108b757600080fd5b6108cd6004808035906020019091905050611f14565b005b34156108da57600080fd5b610906600480803573ffffffffffffffffffffffffffffffffffffffff16906020019091905050612131565b6040518082815260200191505060405180910390f35b341561092757600080fd5b610946600480803590602001909190803590602001909190505061217a565b6040518082815260200191505060405180910390f35b341561096757600080fd5b61096f6121ab565b6040518082815260200191505060405180910390f35b341561099057600080fd5b6109986121b1565b604051808273ffffffffffffffffffffffffffffffffffffffff1673ffffffffffffffffffffffffffffffffffffffff16815260200191505060405180910390f35b34156109e557600080fd5b610a0d60048080359060200190919080359060200190919080359060200190919050506121d7565b604051808381526020018281526020019250505060405180910390f35b3415610a3557600080fd5b610a3d612497565b6040518082815260200191505060405180910390f35b3415610a5e57600080fd5b610a6661249d565b6040518080602001828103825283818151815260200191508051906020019080838360005b83811015610aa6578082015181840152602081019050610a8b565b50505050905090810190601f168015610ad35780820380516001836020036101000a031916815260200191505b509250505060405180910390f35b3415610aec57600080fd5b610b0b600480803590602001909190803590602001909190505061253b565b6040518082815260200191505060405180910390f35b3415610b2c57600080fd5b610b58600480803573ffffffffffffffffffffffffffffffffffffffff1690602001909190505061256c565b005b3415610b6557600080fd5b610b9a600480803573ffffffffffffffffffffffffffffffffffffffff1690602001909190803590602001909190505061260e565b604051808215151515815260200191505060405180910390f35b3415610bbf57600080fd5b610bc76129ff565b6040518082815260200191505060405180910390f35b3415610be857600080fd5b610bf0612a05565b6040518082815260200191505060405180910390f35b3415610c1157600080fd5b610c276004808035906020019091905050612a0b565b005b3415610c3457600080fd5b610c3c612c27565b6040518082815260200191505060405180910390f35b3415610c5d57600080fd5b610c7c6004808035906020019091908035906020019091905050612c2d565b604051808215151515815260200191505060405180910390f35b3415610ca157600080fd5b610cb76004808035906020019091905050613004565b005b3415610cc457600080fd5b610cda60048080359060200190919050506132f3565b005b3415610ce757600080fd5b610d13600480803573ffffffffffffffffffffffffffffffffffffffff16906020019091905050613510565b005b3415610d2057600080fd5b610d3660048080359060200190919050506136d1565b005b3415610d4357600080fd5b610d4b6138ee565b6040518086815260200185815260200184815260200183815260200182600019166000191681526020019550505050505060405180910390f35b3415610d9057600080fd5b610de0600480803573ffffffffffffffffffffffffffffffffffffffff16906020019091908035906020019091908035906020019091908035906020019091908035906020019091905050613912565b604051808215151515815260200191505060405180910390f35b3415610e0557600080fd5b610e3a600480803573ffffffffffffffffffffffffffffffffffffffff16906020019091908035906020019091905050613a1b565b604051808215151515815260200191505060405180910390f35b3415610e5f57600080fd5b610eaa600480803573ffffffffffffffffffffffffffffffffffffffff1690602001909190803573ffffffffffffffffffffffffffffffffffffffff16906020019091905050613c17565b6040518082815260200191505060405180910390f35b3415610ecb57600080fd5b610ee16004808035906020019091905050613c9e565b6040518080602001828103825283818151815260200191508051906020019060200280838360005b83811015610f24578082015181840152602081019050610f09565b505050509050019250505060405180910390f35b3415610f4357600080fd5b610f626004808035906020019091908035906020019091905050613d45565b6040518082815260200191505060405180910390f35b3415610f8357600080fd5b610f996004808035906020019091905050613d76565b60405180806020018281038252838181518152602001915080516000925b8184101561100257828490602001906020020151600260200280838360005b83811015610ff1578082015181840152602081019050610fd6565b505050509050019260010192610fb7565b925050509250505060405180910390f35b60138054600181600116156101000203166002900480601f0160208091040260200160405190810160405280929190818152602001828054600181600116156101000203166002900480156110a95780601f1061107e576101008083540402835291602001916110a9565b820191906000526020600020905b81548152906001019060200180831161108c57829003601f168201915b505050505081565b600081601260003373ffffffffffffffffffffffffffffffffffffffff1673ffffffffffffffffffffffffffffffffffffffff16815260200190815260200160002060008573ffffffffffffffffffffffffffffffffffffffff1673ffffffffffffffffffffffffffffffffffffffff168152602001908152602001600020819055508273ffffffffffffffffffffffffffffffffffffffff163373ffffffffffffffffffffffffffffffffffffffff167f8c5be1e5ebec7d5bd14f71427d1e84f3dd0314c0f7b2291e5b200ac8c7c3b925846040518082815260200191505060405180910390a36001905092915050565b600d602052826000526040600020828154811015156111be57fe5b9060005260206000209060020201816002811015156111d957fe5b0160009250925050505481565b6111ee6154ac565b600d6000838152602001908152602001600020805480602002602001604051908101604052809291908181526020016000905b828210156112885783829060005260206000209060020201600280602002604051908101604052809291908260028015611274576020028201915b8154600019168152602001906001019080831161125c575b505050505081526020019060010190611221565b505050509050919050565b6000601154905090565b60006112aa848484613e23565b508160186000601760008873ffffffffffffffffffffffffffffffffffffffff1673ffffffffffffffffffffffffffffffffffffffff168152602001908152602001600020600001548152602001908152602001600020600082825403925050819055508160196000601760008873ffffffffffffffffffffffffffffffffffffffff1673ffffffffffffffffffffffffffffffffffffffff1681526020019081526020016000206001015481526020019081526020016000206000828254039250508190555081601a6000601760008873ffffffffffffffffffffffffffffffffffffffff1673ffffffffffffffffffffffffffffffffffffffff1681526020019081526020016000206002015481526020019081526020016000206000828254039250508190555081601b6000601760008873ffffffffffffffffffffffffffffffffffffffff1673ffffffffffffffffffffffffffffffffffffffff16815260200190815260200160002060030154815260200190815260200160002060008282540392505081905550601f54602160008673ffffffffffffffffffffffffffffffffffffffff1673ffffffffffffffffffffffffffffffffffffffff1681526020019081526020016000205414151561148b5761148a84613510565b5b6000602160008573ffffffffffffffffffffffffffffffffffffffff1673ffffffffffffffffffffffffffffffffffffffff168152602001908152602001600020541415801561151c5750601f54602160008573ffffffffffffffffffffffffffffffffffffffff1673ffffffffffffffffffffffffffffffffffffffff1681526020019081526020016000205414155b1561152b5761152a83613510565b5b6000602160008573ffffffffffffffffffffffffffffffffffffffff1673ffffffffffffffffffffffffffffffffffffffff1681526020019081526020016000205414156115f757602160008573ffffffffffffffffffffffffffffffffffffffff1673ffffffffffffffffffffffffffffffffffffffff16815260200190815260200160002054602160008573ffffffffffffffffffffffffffffffffffffffff1673ffffffffffffffffffffffffffffffffffffffff168152602001908152602001600020819055505b6000601060008673ffffffffffffffffffffffffffffffffffffffff1673ffffffffffffffffffffffffffffffffffffffff168152602001908152602001600020541415611685576000602160008673ffffffffffffffffffffffffffffffffffffffff1673ffffffffffffffffffffffffffffffffffffffff168152602001908152602001600020819055505b600190509392505050565b601560009054906101000a900460ff1681565b600c602052826000526040600020828154811015156116be57fe5b9060005260206000209060020201816002811015156116d957fe5b0160009250925050505481565b60165481565b60076020528160005260406000208181548110151561170757fe5b9060005260206000209060209182820401919006915091509054906101000a900460ff1681565b6117366154c0565b61173e6154d4565b6117466154d4565b61174e6154d4565b600760008681526020019081526020016000206008600087815260200190815260200160002060096000888152602001908152602001600020600a60008981526020019081526020016000208380548060200260200160405190810160405280929190818152602001828054801561180a57602002820191906000526020600020906000905b82829054906101000a900460ff161515815260200190600101906020826000010492830192600103820291508084116117d45790505b505050505093508280548060200260200160405190810160405280929190818152602001828054801561185c57602002820191906000526020600020905b815481526020019060010190808311611848575b50505050509250818054806020026020016040519081016040528092919081815260200182805480156118ae57602002820191906000526020600020905b81548152602001906001019080831161189a575b505050505091508080548060200260200160405190810160405280929190818152602001828054801561190057602002820191906000526020600020905b8154815260200190600101908083116118ec575b5050505050905093509350935093509193509193565b601c5481565b6000808811151561192c57600080fd5b60008711151561193b57600080fd5b86881015151561194a57600080fd5b60008611151561195957600080fd5b88156119a65760026000015488023487021015151561197757600080fd5b60005460005402866002600001548a020281151561199157fe5b046001600082825401925050819055506119ee565b60005460026000015489028115156119ba57fe5b0434101515156119c957600080fd5b60005460026000015489028115156119dd57fe5b046001600082825401925050819055505b60006007600084815260200190815260200160002080549050111515611a1357600080fd5b600760008381526020019081526020016000208054806001018281611a3891906154e8565b91600052602060002090602091828204019190068b909190916101000a81548160ff02191690831515021790555050600860008381526020019081526020016000208054806001018281611a8c9190615522565b916000526020600020900160008a90919091505550600960008381526020019081526020016000208054806001018281611ac69190615522565b916000526020600020900160008990919091505550600a60008381526020019081526020016000208054806001018281611b009190615522565b916000526020600020900160008890919091505550600b60008381526020019081526020016000208054806001018281611b3a919061554e565b9160005260206000209001600087909190916101000a81548173ffffffffffffffffffffffffffffffffffffffff021916908373ffffffffffffffffffffffffffffffffffffffff16021790555050600c60008381526020019081526020016000208054806001018281611bae919061557a565b91600052602060002090600202016000869091909150906002611bd29291906155ac565b5050600d60008381526020019081526020016000208054806001018281611bf9919061557a565b91600052602060002090600202016000859091909150906002611c1d9291906155ac565b50506001905098975050505050505050565b600b60205281600052604060002081815481101515611c4a57fe5b90600052602060002090016000915091509054906101000a900473ffffffffffffffffffffffffffffffffffffffff1681565b601f5481565b600080601260003373ffffffffffffffffffffffffffffffffffffffff1673ffffffffffffffffffffffffffffffffffffffff16815260200190815260200160002060008573ffffffffffffffffffffffffffffffffffffffff1673ffffffffffffffffffffffffffffffffffffffff16815260200190815260200160002054905080831115611d94576000601260003373ffffffffffffffffffffffffffffffffffffffff1673ffffffffffffffffffffffffffffffffffffffff16815260200190815260200160002060008673ffffffffffffffffffffffffffffffffffffffff1673ffffffffffffffffffffffffffffffffffffffff16815260200190815260200160002081905550611e28565b611da783826141e290919063ffffffff16565b601260003373ffffffffffffffffffffffffffffffffffffffff1673ffffffffffffffffffffffffffffffffffffffff16815260200190815260200160002060008673ffffffffffffffffffffffffffffffffffffffff1673ffffffffffffffffffffffffffffffffffffffff168152602001908152602001600020819055505b8373ffffffffffffffffffffffffffffffffffffffff163373ffffffffffffffffffffffffffffffffffffffff167f8c5be1e5ebec7d5bd14f71427d1e84f3dd0314c0f7b2291e5b200ac8c7c3b925601260003373ffffffffffffffffffffffffffffffffffffffff1673ffffffffffffffffffffffffffffffffffffffff16815260200190815260200160002060008873ffffffffffffffffffffffffffffffffffffffff1673ffffffffffffffffffffffffffffffffffffffff168152602001908152602001600020546040518082815260200191505060405180910390a3600191505092915050565b6000601060003373ffffffffffffffffffffffffffffffffffffffff1673ffffffffffffffffffffffffffffffffffffffff16815260200190815260200160002054111515611f6257600080fd5b600081111515611f7157600080fd5b6000601760003373ffffffffffffffffffffffffffffffffffffffff1673ffffffffffffffffffffffffffffffffffffffff16815260200190815260200160002060030154111561205f57601060003373ffffffffffffffffffffffffffffffffffffffff1673ffffffffffffffffffffffffffffffffffffffff16815260200190815260200160002054601b6000601760003373ffffffffffffffffffffffffffffffffffffffff1673ffffffffffffffffffffffffffffffffffffffff168152602001908152602001600020600301548152602001908152602001600020600082825403925050819055505b80601760003373ffffffffffffffffffffffffffffffffffffffff1673ffffffffffffffffffffffffffffffffffffffff16815260200190815260200160002060030181905550601060003373ffffffffffffffffffffffffffffffffffffffff1673ffffffffffffffffffffffffffffffffffffffff16815260200190815260200160002054601b600083815260200190815260200160002060008282540192505081905550601c54601b600083815260200190815260200160002054111561212e57806002600301819055505b50565b6000601060008373ffffffffffffffffffffffffffffffffffffffff1673ffffffffffffffffffffffffffffffffffffffff168152602001908152602001600020549050919050565b600a6020528160005260406000208181548110151561219557fe5b9060005260206000209001600091509150505481565b601d5481565b600f60009054906101000a900473ffffffffffffffffffffffffffffffffffffffff1681565b6000806000806121e56155f2565b6121ed6155f2565b6121f88989896141fb565b1515612210576000808191508090509550955061248b565b600760008a81526020019081526020016000208881548110151561223057fe5b90600052602060002090602091828204019190069054906101000a900460ff161561226057879350869250612267565b8693508792505b608060405190810160405280600115158152602001600860008c81526020019081526020016000208681548110151561229c57fe5b9060005260206000209001548152602001600960008c8152602001908152602001600020868154811015156122cd57fe5b9060005260206000209001548152602001600a60008c8152602001908152602001600020868154811015156122fe57fe5b9060005260206000209001548152509150608060405190810160405280600015158152602001600860008c81526020019081526020016000208581548110151561234457fe5b9060005260206000209001548152602001600960008c81526020019081526020016000208581548110151561237557fe5b9060005260206000209001548152602001600a60008c8152602001908152602001600020858154811015156123a657fe5b90600052602060002090015481525090508060600151826060015110156123d9576000808191508090509550955061248b565b600281606001518360600151018115156123ef57fe5b04955085816020015102600054836020015102111561244157858160200151026000548360400151021115612430576000808191508090509550955061248b565b85868260200151029550955061248b565b6000548260200151028682602001510211156124805760005482602001510286826040015102111561247f576000808191508090509550955061248b565b5b858260200151955095505b50505050935093915050565b60015481565b60148054600181600116156101000203166002900480601f0160208091040260200160405190810160405280929190818152602001828054600181600116156101000203166002900480156125335780601f1061250857610100808354040283529160200191612533565b820191906000526020600020905b81548152906001019060200180831161251657829003601f168201915b505050505081565b60096020528160005260406000208181548110151561255657fe5b9060005260206000209001600091509150505481565b600f60009054906101000a900473ffffffffffffffffffffffffffffffffffffffff168073ffffffffffffffffffffffffffffffffffffffff163373ffffffffffffffffffffffffffffffffffffffff161415156125c957600080fd5b81600f60006101000a81548173ffffffffffffffffffffffffffffffffffffffff021916908373ffffffffffffffffffffffffffffffffffffffff1602179055505050565b600061261a8383614357565b508160186000601760003373ffffffffffffffffffffffffffffffffffffffff1673ffffffffffffffffffffffffffffffffffffffff168152602001908152602001600020600001548152602001908152602001600020600082825403925050819055508160196000601760003373ffffffffffffffffffffffffffffffffffffffff1673ffffffffffffffffffffffffffffffffffffffff1681526020019081526020016000206001015481526020019081526020016000206000828254039250508190555081601a6000601760003373ffffffffffffffffffffffffffffffffffffffff1673ffffffffffffffffffffffffffffffffffffffff1681526020019081526020016000206002015481526020019081526020016000206000828254039250508190555081601b6000601760003373ffffffffffffffffffffffffffffffffffffffff1673ffffffffffffffffffffffffffffffffffffffff16815260200190815260200160002060030154815260200190815260200160002060008282540392505081905550601f54602160003373ffffffffffffffffffffffffffffffffffffffff1673ffffffffffffffffffffffffffffffffffffffff168152602001908152602001600020541415156127fb576127fa33613510565b5b6000602160008573ffffffffffffffffffffffffffffffffffffffff1673ffffffffffffffffffffffffffffffffffffffff168152602001908152602001600020541415801561288c5750601f54602160008573ffffffffffffffffffffffffffffffffffffffff1673ffffffffffffffffffffffffffffffffffffffff1681526020019081526020016000205414155b1561289b5761289a83613510565b5b6000602160008573ffffffffffffffffffffffffffffffffffffffff1673ffffffffffffffffffffffffffffffffffffffff16815260200190815260200160002054141561296757602160003373ffffffffffffffffffffffffffffffffffffffff1673ffffffffffffffffffffffffffffffffffffffff16815260200190815260200160002054602160008573ffffffffffffffffffffffffffffffffffffffff1673ffffffffffffffffffffffffffffffffffffffff168152602001908152602001600020819055505b6000601060003373ffffffffffffffffffffffffffffffffffffffff1673ffffffffffffffffffffffffffffffffffffffff1681526020019081526020016000205414156129f5576000602160003373ffffffffffffffffffffffffffffffffffffffff1673ffffffffffffffffffffffffffffffffffffffff168152602001908152602001600020819055505b6001905092915050565b60205481565b60005481565b6000601060003373ffffffffffffffffffffffffffffffffffffffff1673ffffffffffffffffffffffffffffffffffffffff16815260200190815260200160002054111515612a5957600080fd5b600081111515612a6857600080fd5b6000601760003373ffffffffffffffffffffffffffffffffffffffff1673ffffffffffffffffffffffffffffffffffffffff168152602001908152602001600020600201541115612b5657601060003373ffffffffffffffffffffffffffffffffffffffff1673ffffffffffffffffffffffffffffffffffffffff16815260200190815260200160002054601a6000601760003373ffffffffffffffffffffffffffffffffffffffff1673ffffffffffffffffffffffffffffffffffffffff168152602001908152602001600020600201548152602001908152602001600020600082825403925050819055505b80601760003373ffffffffffffffffffffffffffffffffffffffff1673ffffffffffffffffffffffffffffffffffffffff16815260200190815260200160002060020181905550601060003373ffffffffffffffffffffffffffffffffffffffff1673ffffffffffffffffffffffffffffffffffffffff16815260200190815260200160002054601a600083815260200190815260200160002060008282540192505081905550601c54601a6000838152602001908152602001600020541115612c24578060028001819055505b50565b601e5481565b6000806000600760008681526020019081526020016000208054905084101515612c5657600080fd5b600b600086815260200190815260200160002084815481101515612c7657fe5b906000526020600020900160009054906101000a900473ffffffffffffffffffffffffffffffffffffffff1673ffffffffffffffffffffffffffffffffffffffff163373ffffffffffffffffffffffffffffffffffffffff16141515612cdb57600080fd5b600a600086815260200190815260200160002084815481101515612cfb57fe5b90600052602060002090015491506008600086815260200190815260200160002084815481101515612d2957fe5b90600052602060002090015490506007600086815260200190815260200160002084815481101515612d5757fe5b90600052602060002090602091828204019190069054906101000a900460ff1615612dda573373ffffffffffffffffffffffffffffffffffffffff166108fc83600260010154600260000154038402811515612daf57fe5b049081150290604051600060405180830381858888f193505050501515612dd557600080fd5b612e34565b3373ffffffffffffffffffffffffffffffffffffffff166108fc83600260010154600260000154038402811515612e0d57fe5b049081150290604051600060405180830381858888f193505050501515612e3357600080fd5b5b6007600086815260200190815260200160002084815481101515612e5457fe5b90600052602060002090602091828204019190066101000a81549060ff02191690556008600086815260200190815260200160002084815481101515612e9657fe5b9060005260206000209001600090556009600086815260200190815260200160002084815481101515612ec557fe5b906000526020600020900160009055600a600086815260200190815260200160002084815481101515612ef457fe5b906000526020600020900160009055600b600086815260200190815260200160002084815481101515612f2357fe5b906000526020600020900160006101000a81549073ffffffffffffffffffffffffffffffffffffffff0219169055600c600086815260200190815260200160002084815481101515612f7157fe5b90600052602060002090600202016000612f8b919061561d565b600d600086815260200190815260200160002084815481101515612fab57fe5b90600052602060002090600202016000612fc5919061561d565b6001600e86815481101515612fd657fe5b906000526020600020900160008282540192505081905550612ff78561457b565b5060019250505092915050565b600f60009054906101000a900473ffffffffffffffffffffffffffffffffffffffff168073ffffffffffffffffffffffffffffffffffffffff163373ffffffffffffffffffffffffffffffffffffffff1614151561306157600080fd5b60076000838152602001908152602001600020805480600101828161308691906154e8565b91600052602060002090602091828204019190066000909190916101000a81548160ff021916908315150217905550506008600083815260200190815260200160002080548060010182816130db9190615522565b9160005260206000209001600080909190915055506009600083815260200190815260200160002080548060010182816131159190615522565b916000526020600020900160008090919091505550600a6000838152602001908152602001600020805480600101828161314f9190615522565b916000526020600020900160008090919091505550600b60008381526020019081526020016000208054806001018281613189919061554e565b9160005260206000209001600080909190916101000a81548173ffffffffffffffffffffffffffffffffffffffff021916908373ffffffffffffffffffffffffffffffffffffffff16021790555050600c600083815260200190815260200160002080548060010182816131fd919061557a565b91600052602060002090600202016000604080519081016040528060006001026000191660001916815260200160006001026000191660001916815250909190915090600261324d9291906155ac565b5050600d60008381526020019081526020016000208054806001018281613274919061557a565b9160005260206000209060020201600060408051908101604052806000600102600019166000191681526020016000600102600019166000191681525090919091509060026132c49291906155ac565b5050600e80548060010182816132da9190615522565b9160005260206000209001600080909190915055505050565b6000601060003373ffffffffffffffffffffffffffffffffffffffff1673ffffffffffffffffffffffffffffffffffffffff1681526020019081526020016000205411151561334157600080fd5b60008111151561335057600080fd5b6000601760003373ffffffffffffffffffffffffffffffffffffffff1673ffffffffffffffffffffffffffffffffffffffff16815260200190815260200160002060000154111561343e57601060003373ffffffffffffffffffffffffffffffffffffffff1673ffffffffffffffffffffffffffffffffffffffff1681526020019081526020016000205460186000601760003373ffffffffffffffffffffffffffffffffffffffff1673ffffffffffffffffffffffffffffffffffffffff168152602001908152602001600020600001548152602001908152602001600020600082825403925050819055505b80601760003373ffffffffffffffffffffffffffffffffffffffff1673ffffffffffffffffffffffffffffffffffffffff16815260200190815260200160002060000181905550601060003373ffffffffffffffffffffffffffffffffffffffff1673ffffffffffffffffffffffffffffffffffffffff168152602001908152602001600020546018600083815260200190815260200160002060008282540192505081905550601c546018600083815260200190815260200160002054111561350d57806002600001819055505b50565b6000601060008373ffffffffffffffffffffffffffffffffffffffff1673ffffffffffffffffffffffffffffffffffffffff1681526020019081526020016000205411151561355e57600080fd5b42601d54601e54011115156135b55742601e819055506001601f600082825401925050819055506016546001543073ffffffffffffffffffffffffffffffffffffffff1631038115156135ad57fe5b046020819055505b601f54602160008373ffffffffffffffffffffffffffffffffffffffff1673ffffffffffffffffffffffffffffffffffffffff168152602001908152602001600020541115151561360557600080fd5b8073ffffffffffffffffffffffffffffffffffffffff166108fc601060008473ffffffffffffffffffffffffffffffffffffffff1673ffffffffffffffffffffffffffffffffffffffff16815260200190815260200160002054602054029081150290604051600060405180830381858888f19350505050151561368857600080fd5b601f54602160008373ffffffffffffffffffffffffffffffffffffffff1673ffffffffffffffffffffffffffffffffffffffff1681526020019081526020016000208190555050565b6000601060003373ffffffffffffffffffffffffffffffffffffffff1673ffffffffffffffffffffffffffffffffffffffff1681526020019081526020016000205411151561371f57600080fd5b60008111151561372e57600080fd5b6000601760003373ffffffffffffffffffffffffffffffffffffffff1673ffffffffffffffffffffffffffffffffffffffff16815260200190815260200160002060010154111561381c57601060003373ffffffffffffffffffffffffffffffffffffffff1673ffffffffffffffffffffffffffffffffffffffff1681526020019081526020016000205460196000601760003373ffffffffffffffffffffffffffffffffffffffff1673ffffffffffffffffffffffffffffffffffffffff168152602001908152602001600020600101548152602001908152602001600020600082825403925050819055505b80601760003373ffffffffffffffffffffffffffffffffffffffff1673ffffffffffffffffffffffffffffffffffffffff16815260200190815260200160002060010181905550601060003373ffffffffffffffffffffffffffffffffffffffff1673ffffffffffffffffffffffffffffffffffffffff168152602001908152602001600020546019600083815260200190815260200160002060008282540192505081905550601c54601960008381526020019081526020016000205411156138eb57806002600101819055505b50565b60028060000154908060010154908060020154908060030154908060040154905085565b60008060008060006139278a8a8a8a8a614d7d565b151561393257600080fd5b61393d8989896121d7565b9350935060008311151561395057600080fd5b600760008a81526020019081526020016000208881548110151561397057fe5b90600052602060002090602091828204019190069054906101000a900460ff16156139a0578791508690506139a7565b8691508790505b6139b18a84614e1b565b6139e683600a60008c8152602001908152602001600020848154811015156139d557fe5b906000526020600020900154614e83565b6139f38989898787614ed5565b613a00898989878761517d565b613a098961457b565b50600194505050505095945050505050565b6000613aac82601260003373ffffffffffffffffffffffffffffffffffffffff1673ffffffffffffffffffffffffffffffffffffffff16815260200190815260200160002060008673ffffffffffffffffffffffffffffffffffffffff1673ffffffffffffffffffffffffffffffffffffffff1681526020019081526020016000205461548e90919063ffffffff16565b601260003373ffffffffffffffffffffffffffffffffffffffff1673ffffffffffffffffffffffffffffffffffffffff16815260200190815260200160002060008573ffffffffffffffffffffffffffffffffffffffff1673ffffffffffffffffffffffffffffffffffffffff168152602001908152602001600020819055508273ffffffffffffffffffffffffffffffffffffffff163373ffffffffffffffffffffffffffffffffffffffff167f8c5be1e5ebec7d5bd14f71427d1e84f3dd0314c0f7b2291e5b200ac8c7c3b925601260003373ffffffffffffffffffffffffffffffffffffffff1673ffffffffffffffffffffffffffffffffffffffff16815260200190815260200160002060008773ffffffffffffffffffffffffffffffffffffffff1673ffffffffffffffffffffffffffffffffffffffff168152602001908152602001600020546040518082815260200191505060405180910390a36001905092915050565b6000601260008473ffffffffffffffffffffffffffffffffffffffff1673ffffffffffffffffffffffffffffffffffffffff16815260200190815260200160002060008373ffffffffffffffffffffffffffffffffffffffff1673ffffffffffffffffffffffffffffffffffffffff16815260200190815260200160002054905092915050565b613ca661562b565b600b6000838152602001908152602001600020805480602002602001604051908101604052809291908181526020018280548015613d3957602002820191906000526020600020905b8160009054906101000a900473ffffffffffffffffffffffffffffffffffffffff1673ffffffffffffffffffffffffffffffffffffffff1681526020019060010190808311613cef575b50505050509050919050565b600860205281600052604060002081815481101515613d6057fe5b9060005260206000209001600091509150505481565b613d7e6154ac565b600c6000838152602001908152602001600020805480602002602001604051908101604052809291908181526020016000905b82821015613e185783829060005260206000209060020201600280602002604051908101604052809291908260028015613e04576020028201915b81546000191681526020019060010190808311613dec575b505050505081526020019060010190613db1565b505050509050919050565b60008073ffffffffffffffffffffffffffffffffffffffff168373ffffffffffffffffffffffffffffffffffffffff1614151515613e6057600080fd5b601060008573ffffffffffffffffffffffffffffffffffffffff1673ffffffffffffffffffffffffffffffffffffffff168152602001908152602001600020548211151515613eae57600080fd5b601260008573ffffffffffffffffffffffffffffffffffffffff1673ffffffffffffffffffffffffffffffffffffffff16815260200190815260200160002060003373ffffffffffffffffffffffffffffffffffffffff1673ffffffffffffffffffffffffffffffffffffffff168152602001908152602001600020548211151515613f3957600080fd5b613f8b82601060008773ffffffffffffffffffffffffffffffffffffffff1673ffffffffffffffffffffffffffffffffffffffff168152602001908152602001600020546141e290919063ffffffff16565b601060008673ffffffffffffffffffffffffffffffffffffffff1673ffffffffffffffffffffffffffffffffffffffff1681526020019081526020016000208190555061402082601060008673ffffffffffffffffffffffffffffffffffffffff1673ffffffffffffffffffffffffffffffffffffffff1681526020019081526020016000205461548e90919063ffffffff16565b601060008573ffffffffffffffffffffffffffffffffffffffff1673ffffffffffffffffffffffffffffffffffffffff168152602001908152602001600020819055506140f282601260008773ffffffffffffffffffffffffffffffffffffffff1673ffffffffffffffffffffffffffffffffffffffff16815260200190815260200160002060003373ffffffffffffffffffffffffffffffffffffffff1673ffffffffffffffffffffffffffffffffffffffff168152602001908152602001600020546141e290919063ffffffff16565b601260008673ffffffffffffffffffffffffffffffffffffffff1673ffffffffffffffffffffffffffffffffffffffff16815260200190815260200160002060003373ffffffffffffffffffffffffffffffffffffffff1673ffffffffffffffffffffffffffffffffffffffff168152602001908152602001600020819055508273ffffffffffffffffffffffffffffffffffffffff168473ffffffffffffffffffffffffffffffffffffffff167fddf252ad1be2c89b69c2b068fc378daa952ba7f163c4a11628f55a4df523b3ef846040518082815260200191505060405180910390a3600190509392505050565b60008282111515156141f057fe5b818303905092915050565b600060076000858152602001908152602001600020805490508310151561422157600080fd5b60076000858152602001908152602001600020805490508210151561424557600080fd5b600760008581526020019081526020016000208281548110151561426557fe5b90600052602060002090602091828204019190069054906101000a900460ff16151560076000868152602001908152602001600020848154811015156142a757fe5b90600052602060002090602091828204019190069054906101000a900460ff161515141515156142d657600080fd5b600060086000868152602001908152602001600020848154811015156142f857fe5b9060005260206000209001541415151561431157600080fd5b6000600860008681526020019081526020016000208381548110151561433357fe5b9060005260206000209001541415151561434c57600080fd5b600190509392505050565b60008073ffffffffffffffffffffffffffffffffffffffff168373ffffffffffffffffffffffffffffffffffffffff161415151561439457600080fd5b601060003373ffffffffffffffffffffffffffffffffffffffff1673ffffffffffffffffffffffffffffffffffffffff1681526020019081526020016000205482111515156143e257600080fd5b61443482601060003373ffffffffffffffffffffffffffffffffffffffff1673ffffffffffffffffffffffffffffffffffffffff168152602001908152602001600020546141e290919063ffffffff16565b601060003373ffffffffffffffffffffffffffffffffffffffff1673ffffffffffffffffffffffffffffffffffffffff168152602001908152602001600020819055506144c982601060008673ffffffffffffffffffffffffffffffffffffffff1673ffffffffffffffffffffffffffffffffffffffff1681526020019081526020016000205461548e90919063ffffffff16565b601060008573ffffffffffffffffffffffffffffffffffffffff1673ffffffffffffffffffffffffffffffffffffffff168152602001908152602001600020819055508273ffffffffffffffffffffffffffffffffffffffff163373ffffffffffffffffffffffffffffffffffffffff167fddf252ad1be2c89b69c2b068fc378daa952ba7f163c4a11628f55a4df523b3ef846040518082815260200191505060405180910390a36001905092915050565b6000806002800154600e8481548110151561459257fe5b90600052602060002090015410156145ad5760009150614d77565b600190505b6007600084815260200190815260200160002080549050811015614b1457600060086000858152602001908152602001600020828154811015156145f257fe5b9060005260206000209001541415614b07576001600760008581526020019081526020016000208054905003811015614b0657600760008481526020019081526020016000206001820181548110151561464857fe5b90600052602060002090602091828204019190069054906101000a900460ff16600760008581526020019081526020016000208281548110151561468857fe5b90600052602060002090602091828204019190066101000a81548160ff02191690831515021790555060086000848152602001908152602001600020600182018154811015156146d457fe5b906000526020600020900154600860008581526020019081526020016000208281548110151561470057fe5b906000526020600020900181905550600960008481526020019081526020016000206001820181548110151561473257fe5b906000526020600020900154600960008581526020019081526020016000208281548110151561475e57fe5b906000526020600020900181905550600a60008481526020019081526020016000206001820181548110151561479057fe5b906000526020600020900154600a6000858152602001908152602001600020828154811015156147bc57fe5b906000526020600020900181905550600b6000848152602001908152602001600020600182018154811015156147ee57fe5b906000526020600020900160009054906101000a900473ffffffffffffffffffffffffffffffffffffffff16600b60008581526020019081526020016000208281548110151561483a57fe5b906000526020600020900160006101000a81548173ffffffffffffffffffffffffffffffffffffffff021916908373ffffffffffffffffffffffffffffffffffffffff160217905550600c6000848152602001908152602001600020600182018154811015156148a657fe5b9060005260206000209060020201600c6000858152602001908152602001600020828154811015156148d457fe5b90600052602060002090600202019060026148f092919061563f565b50600d60008481526020019081526020016000206001820181548110151561491457fe5b9060005260206000209060020201600d60008581526020019081526020016000208281548110151561494257fe5b906000526020600020906002020190600261495e92919061563f565b50600760008481526020019081526020016000206001820181548110151561498257fe5b90600052602060002090602091828204019190066101000a81549060ff021916905560086000848152602001908152602001600020600182018154811015156149c757fe5b90600052602060002090016000905560096000848152602001908152602001600020600182018154811015156149f957fe5b906000526020600020900160009055600a600084815260200190815260200160002060018201815481101515614a2b57fe5b906000526020600020900160009055600b600084815260200190815260200160002060018201815481101515614a5d57fe5b906000526020600020900160006101000a81549073ffffffffffffffffffffffffffffffffffffffff0219169055600c600084815260200190815260200160002060018201815481101515614aae57fe5b90600052602060002090600202016000614ac8919061561d565b600d600084815260200190815260200160002060018201815481101515614aeb57fe5b90600052602060002090600202016000614b05919061561d565b5b5b80806001019150506145b2565b600e83815481101515614b2357fe5b9060005260206000209001546007600085815260200190815260200160002080549050036007600085815260200190815260200160002081614b65919061567c565b50600e83815481101515614b7557fe5b9060005260206000209001546008600085815260200190815260200160002080549050036008600085815260200190815260200160002081614bb791906156b6565b50600e83815481101515614bc757fe5b9060005260206000209001546009600085815260200190815260200160002080549050036009600085815260200190815260200160002081614c0991906156b6565b50600e83815481101515614c1957fe5b906000526020600020900154600a60008581526020019081526020016000208054905003600a600085815260200190815260200160002081614c5b91906156b6565b50600e83815481101515614c6b57fe5b906000526020600020900154600b60008581526020019081526020016000208054905003600b600085815260200190815260200160002081614cad91906156e2565b50600e83815481101515614cbd57fe5b906000526020600020900154600c60008581526020019081526020016000208054905003600c600085815260200190815260200160002081614cff919061570e565b50600e83815481101515614d0f57fe5b906000526020600020900154600d60008581526020019081526020016000208054905003600d600085815260200190815260200160002081614d51919061570e565b506000600e84815481101515614d6357fe5b906000526020600020900181905550600191505b50919050565b60008585858585604051808673ffffffffffffffffffffffffffffffffffffffff1673ffffffffffffffffffffffffffffffffffffffff166c0100000000000000000000000002815260140185815260200184815260200183815260200182815260200195505050505050604051809103902060001916600260040154600019161015614e0d5760009050614e12565b600190505b95945050505050565b6000805460005402826002600001546002600301540202811515614e3b57fe5b0490508273ffffffffffffffffffffffffffffffffffffffff166108fc829081150290604051600060405180830381858888f193505050501515614e7e57600080fd5b505050565b6000548260026000015402811515614e9757fe5b046001600082825403925050819055506000546000540281836002600001540202811515614ec157fe5b046001600082825403925050819055505050565b7f389a889e7f65d263df200f5a0bc042c0ba9d0c600161ff14d87cc1daa06b8e6d600b600087815260200190815260200160002085815481101515614f1657fe5b906000526020600020900160009054906101000a900473ffffffffffffffffffffffffffffffffffffffff16600b600088815260200190815260200160002085815481101515614f6257fe5b906000526020600020900160009054906101000a900473ffffffffffffffffffffffffffffffffffffffff16600c600089815260200190815260200160002087815481101515614fae57fe5b9060005260206000209060020201600c60008a815260200190815260200160002087815481101515614fdc57fe5b9060005260206000209060020201600d60008b81526020019081526020016000208981548110151561500a57fe5b9060005260206000209060020201600d60008c81526020019081526020016000208981548110151561503857fe5b90600052602060002090600202018888604051808973ffffffffffffffffffffffffffffffffffffffff1673ffffffffffffffffffffffffffffffffffffffff1681526020018873ffffffffffffffffffffffffffffffffffffffff1673ffffffffffffffffffffffffffffffffffffffff16815260200187600280156150d8576020028201915b815460001916815260200190600101908083116150c0575b50508660028015615102576020028201915b815460001916815260200190600101908083116150ea575b5050856002801561512c576020028201915b81546000191681526020019060010190808311615114575b50508460028015615156576020028201915b8154600019168152602001906001019080831161513e575b50508381526020018281526020019850505050505050505060405180910390a15050505050565b60008060076000888152602001908152602001600020868154811015156151a057fe5b90600052602060002090602091828204019190069054906101000a900460ff16156151d0578591508490506151d7565b8491508590505b8260086000898152602001908152602001600020838154811015156151f857fe5b9060005260206000209001541415615234576001600e8881548110151561521b57fe5b9060005260206000209001600082825401925050819055505b82600960008981526020019081526020016000208381548110151561525557fe5b906000526020600020900154101561529d576000600960008981526020019081526020016000208381548110151561528957fe5b9060005260206000209001819055506152d7565b8260096000898152602001908152602001600020838154811015156152be57fe5b9060005260206000209001600082825403925050819055505b8260086000898152602001908152602001600020838154811015156152f857fe5b90600052602060002090016000828254039250508190555060005484840281151561531f57fe5b04600860008981526020019081526020016000208281548110151561534057fe5b906000526020600020900154141561537c576001600e8881548110151561536357fe5b9060005260206000209001600082825401925050819055505b60005484840281151561538b57fe5b0460096000898152602001908152602001600020828154811015156153ac57fe5b90600052602060002090015410156153f457600060096000898152602001908152602001600020828154811015156153e057fe5b90600052602060002090018190555061543d565b60005484840281151561540357fe5b04600960008981526020019081526020016000208281548110151561542457fe5b9060005260206000209001600082825403925050819055505b60005484840281151561544c57fe5b04600860008981526020019081526020016000208281548110151561546d57fe5b90600052602060002090016000828254039250508190555050505050505050565b60008082840190508381101515156154a257fe5b8091505092915050565b602060405190810160405280600081525090565b602060405190810160405280600081525090565b602060405190810160405280600081525090565b81548183558181151161551d57601f016020900481601f0160209004836000526020600020918201910161551c9190615740565b5b505050565b815481835581811511615549578183600052602060002091820191016155489190615740565b5b505050565b815481835581811511615575578183600052602060002091820191016155749190615740565b5b505050565b8154818355818115116155a7576002028160020283600052602060002091820191016155a69190615765565b5b505050565b82600281019282156155e1579160200282015b828111156155e05782518290600019169055916020019190600101906155bf565b5b5090506155ee9190615791565b5090565b6080604051908101604052806000151581526020016000815260200160008152602001600081525090565b506000815560010160009055565b602060405190810160405280600081525090565b826002810192821561566b579182015b8281111561566a57825482559160010191906001019061564f565b5b5090506156789190615791565b5090565b8154818355818115116156b157601f016020900481601f016020900483600052602060002091820191016156b09190615740565b5b505050565b8154818355818115116156dd578183600052602060002091820191016156dc9190615740565b5b505050565b815481835581811511615709578183600052602060002091820191016157089190615740565b5b505050565b81548183558181151161573b5760020281600202836000526020600020918201910161573a9190615765565b5b505050565b61576291905b8082111561575e576000816000905550600101615746565b5090565b90565b61578e91905b8082111561578a5760008181615781919061561d565b5060020161576b565b5090565b90565b6157b391905b808211156157af576000816000905550600101615797565b5090565b90565b846002600001819055508360026001018190555082600280018190555081600260030181905550806002600401816000191690555050505050505600a165627a7a72305820866da18055b869bba1e9fca9d6b8e0be21930f0c31c00957bcf7593147bf9e240029",
  "source": "pragma solidity ^0.4.18;\n\nimport 'zeppelin-solidity/contracts/token/ERC20/MintableToken.sol';\nimport 'zeppelin-solidity/contracts/math/SafeMath.sol';\nimport './Exchange.sol';\n\n\n/// @title ValexToken\n/// @author Karim Helmy\n\n// Parts sourced from https://github.com/bokkypoobah/Tokens/blob/master/contracts/FixedSupplyToken.sol\n\n// ----------------------------------------------------------------------------\n// 'VLX' 'Valex Token' token contract\n//\n// Symbol      : VLX\n// Name        : Valex Token\n// Total supply: 1,000,000.000000000000000000\n// Decimals    : 18\n//\n// ----------------------------------------------------------------------------\n\ncontract ValexToken is Exchange, StandardToken {\n    using SafeMath for uint;\n\n    string public name = \"Valex Token\";\n    string public symbol = \"VLX\";\n    uint8 public decimals = 18;\n\n    uint256 public initialSupply = 10000 * (10 ** uint256(decimals));\n\n    // Voting mappings\n    // Holds what every address has voted for\n    mapping (address => Parameters) voteBook;\n    // Hold frequencies of what addresses have voted for (in coin-votes)\n    mapping (uint => uint) closureFeeFreqs;\n    mapping (uint => uint) cancelFeeFreqs;\n    mapping (uint => uint) cleanSizeFreqs;\n    mapping (uint => uint) minerShareFreqs;\n\n    // Threshold to be met for each parameter adjustment\n    uint public threshold = (initialSupply / 100) * 51;\n\n    // How often are you allowed to collect dividends?\n    uint public DISTTIME = 26 weeks;\n    // When were dividends last collected?\n    uint public lastDist = now;\n    // What distribution cycle are we in?\n    uint public distCycle = 0;\n    // How much does one token entitle you to in this cycle?\n    uint public distPerToken = 0;\n    // When did addresses last collect their dividends?\n    mapping (address => uint) lastCollected;\n\n    /**\n    * @dev transfer token for a specified address\n    * @param _to The address to transfer to.\n    * @param _value The amount to be transferred.\n    */\n    function transfer(address _to, uint256 _value) public returns (bool) {\n      BasicToken.transfer(_to, _value);\n      closureFeeFreqs[voteBook[msg.sender].closureFee] -= _value;\n      cancelFeeFreqs[voteBook[msg.sender].cancelFee] -= _value;\n      cleanSizeFreqs[voteBook[msg.sender].cleanSize] -= _value;\n      minerShareFreqs[voteBook[msg.sender].minerShare] -= _value;\n      if (lastCollected[msg.sender] != distCycle){\n        collectDividends(msg.sender);\n      }\n      if (lastCollected[_to] != 0 && lastCollected[_to] != distCycle){\n        collectDividends(_to);\n      }\n      if (lastCollected[_to] == 0){\n        lastCollected[_to] = lastCollected[msg.sender];\n      }\n      if (balances[msg.sender] == 0){\n        lastCollected[msg.sender] = 0;\n      }\n      return true;\n    }\n\n    /**\n     * @dev Transfer tokens from one address to another\n     * @param _from address The address which you want to send tokens from\n     * @param _to address The address which you want to transfer to\n     * @param _value uint256 the amount of tokens to be transferred\n     */\n    function transferFrom(address _from, address _to, uint256 _value) public returns (bool) {\n      StandardToken.transferFrom(_from, _to, _value);\n      closureFeeFreqs[voteBook[_from].closureFee] -= _value;\n      cancelFeeFreqs[voteBook[_from].cancelFee] -= _value;\n      cleanSizeFreqs[voteBook[_from].cleanSize] -= _value;\n      minerShareFreqs[voteBook[_from].minerShare] -= _value;\n      if (lastCollected[_from] != distCycle){\n        collectDividends(_from);\n      }\n      if (lastCollected[_to] != 0 && lastCollected[_to] != distCycle){\n        collectDividends(_to);\n      }\n      if (lastCollected[_to] == 0){\n        lastCollected[_to] = lastCollected[_from];\n      }\n      if (balances[_from] == 0){\n        lastCollected[_from] = 0;\n      }\n      return true;\n    }\n\n    /**\n     * @dev Constructor that gives msg.sender all of existing tokens.\n     * @dev Initializes token to have same parameters as exchange\n     */\n    function ValexToken(uint closureFee, uint cancelFee,\n                      uint cleanSize, uint minershare,\n                      bytes32 difficulty)\n      Exchange(closureFee, cancelFee,\n              cleanSize, minershare, difficulty)\n      public\n    {\n      totalSupply_ = initialSupply;\n      balances[msg.sender] = initialSupply;\n    }\n\n    // Users can collect their dividends on specified time intervals\n    function collectDividends(address _collector)\n      public\n    {\n      require(balances[_collector] > 0);\n      if (lastDist + DISTTIME <= now){\n        lastDist = now;\n        distCycle += 1;\n        distPerToken = (this.balance - openBalance) / initialSupply;\n      }\n      require(lastCollected[_collector] <= distCycle);\n      _collector.transfer(distPerToken * balances[_collector]);\n      lastCollected[_collector] = distCycle;\n      return;\n    }\n\n    // Voting functions for various parameters\n    // Solidity doesn't allow any meaningful abstraction\n    // Adjust relevant parameter if threshold met\n\n    // voting copy3\n    function voteClosureFee(uint desiredParam)\n      public\n    {\n      require(balances[msg.sender] > 0);\n      require(desiredParam > 0);\n      if (voteBook[msg.sender].closureFee > 0){\n        closureFeeFreqs[voteBook[msg.sender].closureFee] -= balances[msg.sender];\n      }\n      voteBook[msg.sender].closureFee = desiredParam;\n      closureFeeFreqs[desiredParam] += balances[msg.sender];\n      if (closureFeeFreqs[desiredParam] > threshold){\n        params.closureFee = desiredParam;\n      }\n    }\n\n    // voting copy3\n    function voteCancelFee(uint desiredParam)\n      public\n    {\n      require(balances[msg.sender] > 0);\n      require(desiredParam > 0);\n      if (voteBook[msg.sender].cancelFee > 0){\n        cancelFeeFreqs[voteBook[msg.sender].cancelFee] -= balances[msg.sender];\n      }\n      voteBook[msg.sender].cancelFee = desiredParam;\n      cancelFeeFreqs[desiredParam] += balances[msg.sender];\n      if (cancelFeeFreqs[desiredParam] > threshold){\n        params.cancelFee = desiredParam;\n      }\n    }\n\n    // voting copy3\n    function voteCleanSize(uint desiredParam)\n      public\n    {\n      require(balances[msg.sender] > 0);\n      require(desiredParam > 0);\n      if (voteBook[msg.sender].cleanSize > 0){\n        cleanSizeFreqs[voteBook[msg.sender].cleanSize] -= balances[msg.sender];\n      }\n      voteBook[msg.sender].cleanSize = desiredParam;\n      cleanSizeFreqs[desiredParam] += balances[msg.sender];\n      if (cleanSizeFreqs[desiredParam] > threshold){\n        params.cleanSize = desiredParam;\n      }\n    }\n\n    // voting copy3\n    function voteMinerShare(uint desiredParam)\n      public\n    {\n      require(balances[msg.sender] > 0);\n      require(desiredParam > 0);\n      if (voteBook[msg.sender].minerShare > 0){\n        minerShareFreqs[voteBook[msg.sender].minerShare] -= balances[msg.sender];\n      }\n      voteBook[msg.sender].minerShare = desiredParam;\n      minerShareFreqs[desiredParam] += balances[msg.sender];\n      if (minerShareFreqs[desiredParam] > threshold){\n        params.minerShare = desiredParam;\n      }\n    }\n\n    // TODO: NEXT VERSION: Implement adding/removing chapters by consensus\n\n    // TODO: NEXT VERSION: Add vote transferring\n\n}\n",
  "sourcePath": "/Users/Karim/Desktop/Valex/contracts/ValexToken.sol",
  "compiler": {
    "name": "solc",
    "version": "0.4.18+commit.9cf6e910.Emscripten.clang"
  },
  "schemaVersion": "1.0.1",
  "updatedAt": "2018-03-27T23:28:34.617Z"
}